:020000040800F2
:1000000000500020251F00086D1F00086D1F00080C
:100010006D1F00086D1F00086D1F00080000000024
:100020000000000000000000000000006D1F00083C
:100030006D1F0008000000006D1F0008D9060008B1
:100040006D1F00086D1F00086D1F00086D1F000860
:100050006D1F00086D1F00086D1F00086D1F000850
:100060006D1F00086D1F00086D1F00086D1F000840
:100070006D1F00086D1F00086D1F00086D1F000830
:100080006D1F00086D1F00086D1F00086D1F000820
:100090006D1F00086D1F00086D1F00086D1F000810
:1000A0006D1F00086D1F00086D1F00086D1F000800
:1000B0006D1F00086D1F00086D1F00086D1F0008F0
:1000C0006D1F00086D1F00086D1F00086D1F0008E0
:1000D0006D1F00086D1F00086D1F00086D1F0008D0
:1000E0006D1F00086D1F00086D1F00080000000054
:1000F0000000000000000000000000000000000000
:0C01000000000000000000005FF808F1A3
:10010C0010B5064C2378002B07D1054B002B02D0E1
:10011C000448AFF300800123237010BD6800002059
:10012C0000000000AC200008044B10B5002B03D0DD
:10013C0003490448AFF3008010BDC0460000000026
:10014C006C000020AC20000880B582B000AF786055
:10015C000A00FB1C1A70FB1C1B780F221340DAB22E
:10016C007B680F210A4012015968F02081430A4331
:10017C005A607B681800BD4602B080BD80B582B065
:10018C0000AF78600A00FB1C1A70FB1C1B7807225E
:10019C001340DAB27B6807210A40120259680448FE
:1001AC0001400A435A607B681800BD4602B080BD0E
:1001BC00FFF8FFFF80B582B000AF78600A00FB1C2F
:1001CC001A70FB1C1B7807221340DAB27B680721DC
:1001DC000A40D2025968044801400A435A607B68BD
:1001EC001800BD4602B080BDFFC7FFFF80B582B0CE
:1001FC0000AF78600A00FB1C1A70FB1C1B780322F2
:10020C001340DAB27B6803210A405968032081430A
:10021C000A435A607B681800BD4602B080BD0000DE
:10022C0080B582B000AF78600A00FB1C1A70FB1C12
:10023C001B7801221340DAB27B6801210A401204B8
:10024C005968044801400A435A607B681800BD464F
:10025C0002B080BDFFFFFEFF80B582B000AF7860BA
:10026C000A00FB1C1A70FB1C1B780F221340DAB21D
:10027C007B680F210A4092045968044801400A43E4
:10028C005A607B681800BD4602B080BDFFFFC3FFFB
:10029C0080B582B000AF78607B681A688021490213
:1002AC000A431A607B681800BD4602B080BD80B559
:1002BC0082B000AF78607B681B689B03DB0FDBB2FE
:1002CC0001225340DBB2002B00D0F4E77B6818000E
:1002DC00BD4602B080BD80B582B000AF78607B684F
:1002EC001A68802149040A431A607B681800BD46CD
:1002FC0002B080BD80B582B000AF78607B681B68AF
:10030C009B01DB0FDBB201225340DBB2002B00D090
:10031C00F4E77B681800BD4602B080BD80B582B0A2
:10032C0000AF78600A00FB1C1A70FB1C1B780722BC
:10033C001340DAB27B6807210A4019680720814311
:10034C000A431A607B681800BD4602B080BD80B5B8
:10035C0082B000AF78607B681A6810210A431A607B
:10036C007B681800BD4602B080BD000080B582B02D
:10037C0000AF78600A00FB1C1A70FB1C1B7807226C
:10038C001340DAB27B6807210A4012065968044808
:10039C0001400A435A607B681800BD4602B080BD1C
:1003AC00FFFFFFF880B582B000AF786039607B68E2
:1003BC001B6901213A6891400A001A437B681A6153
:1003CC00C046BD4602B080BD80B582B000AF78603B
:1003DC0039607B681B693A681032012191400A0030
:1003EC001A437B681A61C046BD4602B080BD80B519
:1003FC0082B000AF786039607B689B6801213A68F5
:10040C0091400A0013405A1E9341DBB21800BD46BE
:10041C0002B080BD80B582B000AF78607A6880236E
:10042C005B000021D1507B681800BD4602B080BD36
:10043C0080B582B000AF78607A68054B1100180067
:10044C0001F01FF803001800BD4602B080BDC04685
:10045C008400002080B584B000AFF860B9607A6089
:10046C00FB68BA681A60FB687A685A60FB68180007
:10047C00BD4604B080BD80B582B000AF78607B68AB
:10048C001A687B685B6819001000FFF78BFFC04689
:10049C00BD4602B080BD80B582B000AF78607B688D
:1004AC001A687B685B6819001000FFF78DFFC04667
:1004BC00BD4602B080BD80B582B000AF78607B686D
:1004CC001A687B685B6819001000FFF790FF030047
:1004DC001800BD4602B080BD80B582B000AF786018
:1004EC000A00FB1C1A70FB1C1B78002B04D07B68C9
:1004FC001800FFF7C0FF03E07B681800FFF7CBFF85
:10050C00FB1C1B781800BD4602B080BD80B582B0C4
:10051C0000AF78607B681800FFF7CDFF0300180070
:10052C00BD4602B080BD80B582B000AF7860396046
:10053C007B683A681100180000F0C6FFC046BD4643
:10054C0002B080BD80B582B000AF786039607B6846
:10055C003A681100180000F0D6FFC046BD4602B044
:10056C0080BD90B587B000AF78607B687B617B699C
:10057C00180001F018F80300FB607B69180001F00B
:10058C002FF80300BB600823FA180C23FB1811008A
:10059C00180001F035F8031E11D00C243B1918007B
:1005AC0001F04DF803003B613B691B681B683A691D
:1005BC00100098473B19180001F033F8E3E7C046E8
:1005CC00BD4607B090BD80B582B000AF7860396091
:1005DC007B683A685A60C046BD4602B080BD80B5A3
:1005EC0082B000AF78607B6800229A60C046BD463E
:1005FC0002B080BD80B582B000AF78600A00FB1CF1
:10060C001A70FB1C1B7801221340DAB27B680121A3
:10061C000A4092001968042081430A431A60C046BC
:10062C00BD4602B080BD80B582B000AF78607B68FB
:10063C001A6802210A431A60C046BD4602B080BD4A
:10064C0080B582B000AF78607B681A6801210A43DC
:10065C001A60C046BD4602B080BD80B582B000AF06
:10066C0078607B689B681800BD4602B080BD80B581
:10067C0082B000AF78607B6800221A607B68002231
:10068C005A607B681800BD4602B080BD80B582B050
:10069C0000AF78607B681800FFF7E9FF7B681800F3
:1006AC00BD4602B080BD80B582B000AF78607B687B
:1006BC001800FFF7EBFF00F0CDFF0300180000F06F
:1006CC00D1FF7B681800BD4602B080BD80B500AF7D
:1006DC00034B1800FFF745FFC046BD4680BDC04622
:1006EC008801002080B582B000AF78607B68002262
:1006FC001A607B6800225A607B681800BD4602B005
:10070C0080BD000080B582B000AF78607B68043398
:10071C001800FFF7E7FF044A7B681A607B68180033
:10072C00BD4602B080BDC046FC20000880B582B03A
:10073C0000AF78607B681800FFF7E4FF054A7B6820
:10074C001A607B6800221A737B681800BD4602B0E1
:10075C0080BDC046F020000880B582B000AF786044
:10076C0039607B681800FFF7E1FF0A4A7B681A6062
:10077C007B6800221A617B6800225A613A687B68A8
:10078C001100180000F015F87B681800BD4602B087
:10079C0080BDC046E420000880B582B000AF786010
:1007AC007B685B695A1C7B685A61C046BD4602B0C7
:1007BC0080BD80B582B000AF786039607B683A68E4
:1007CC001A617B68180000F043F8C046BD4602B0C1
:1007DC0080BD80B582B000AF78607B6859697B685A
:1007EC001A69002391425B41DBB2002B04D07B6879
:1007FC0000225A61012300E000231800BD4602B01C
:10080C0080BD80B582B000AF78607B6800225A61F1
:10081C007B68180000F004F8C046BD4602B080BDED
:10082C0080B582B000AF78607B681B7B002B08D052
:10083C007B6800221A737A68044B11001800FFF7CA
:10084C0081FEC046BD4602B080BDC0468801002076
:10085C0080B582B000AF78607B681B7B012253406F
:10086C00DBB2002B08D07B6801221A737A68044B28
:10087C0011001800FFF757FEC046BD4602B080BD00
:10088C008801002080B584B000AFF860B960FB1D12
:10089C001A70FB681800FFF749FF124AFB681A60D0
:1008AC00FB68BA681A61FB6800225A61FB68002277
:1008BC001A76FB6800225A76FB6800229A76FB684F
:1008CC00FA1D1278DA76FB680122DA61FB680022E5
:1008DC001A62FB6800225A62FB681800BD4604B01D
:1008EC0080BDC046D820000880B582B000AF7860CB
:1008FC007B68DB7E002B10D07B681B691800FFF730
:10090C0005FE03001A0001235340DBB2002B0FD06D
:10091C007B681800FFF79CFF0AE07B681B691800D6
:10092C00FFF7F4FD031E03D07B681800FFF790FF60
:10093C007B685B69092B0BDD7B681B7E01225340B6
:10094C00DBB2002B04D07B6801221A76012300E075
:10095C0000231800BD4602B080BD80B582B000AF48
:10096C0078607B68DB7E002B20D07B681B691800CD
:10097C00FFF7CCFD031E13D07B681800FFF750FF68
:10098C007B6800225A617B6800221A767B68002201
:10099C005A767B6800229A767B680122DA612AE01B
:1009AC007B685B695A1C7B685A6124E07B681B6915
:1009BC001800FFF7ABFD03001A0001235340DBB214
:1009CC00002B13D07B681800FFF72AFF7B680022EE
:1009DC005A617B6800221A767B6800225A767B6803
:1009EC0000229A767B680122DA6104E07B685B69FD
:1009FC005A1C7B685A61C046BD4602B080BD0000DF
:100A0C0080B584B000AFF860B9607A603B60FB6879
:100A1C001800FFF78BFE144AFB681A60FB68002273
:100A2C005A73FB68BA681A61FB687A685A61FB688A
:100A3C003A689A61FB68BA69DA61FB68FA691A620A
:100A4C00FB683A6A5A62FB687A6A9A6200F02EFE78
:100A5C000200FB68DA62FB68BA6A1A63FB6818006A
:100A6C00BD4604B080BDC046CC20000880B582B025
:100A7C0000AF78607B689B6900211800FFF72CFDA4
:100A8C0000F01CFE7B689B6901211800FFF724FD18
:100A9C0000F014FEC046BD4602B080BD80B582B0E9
:100AAC0000AF78607B685B7B012B36D002DC002BBF
:100ABC0005D06FE0022B58D0032B60D06AE07B6826
:100ACC001B6901211800FFF707FD7B685B6900219A
:100ADC001800FFF701FD7B689B6901211800FFF7E7
:100AEC00FBFC7B689B6A00211800FFF7F5FC7B6818
:100AFC005B6A00211800FFF7EFFC7B681B6A012181
:100B0C001800FFF7E9FC7B68DB6900211800FFF790
:100B1C00E3FC7B6801225A733CE07B689B690021F3
:100B2C001800FFF7D9FC7B689B6901211800FFF7BF
:100B3C00D3FC7B689B6A01211800FFF7CDFC7B6816
:100B4C005B6A00211800FFF7C7FC7B681B6A012158
:100B5C001800FFF7C1FC7B68DB6900211800FFF768
:100B6C00BBFC7B6802225A7314E07B689B690021F2
:100B7C001800FFF7B1FC7B6803225A730AE07B680C
:100B8C001B6B1800FFF7B0FE031E02D07B6800221F
:100B9C005A73C046C046BD4602B080BD80B582B017
:100BAC0000AF786000F0F2FD7B681B690021180033
:100BBC00FFF792FC7B685B6900211800FFF78CFC47
:100BCC007B689B6901211800FFF786FC7B68DB6959
:100BDC0001211800FFF780FC7B681B6A01211800BB
:100BEC00FFF77AFC7B685B6A00211800FFF774FC46
:100BFC007B689B6A00211800FFF76EFC7B6818006D
:100C0C00FFF734FF00F0E0FD7B68DB690121180081
:100C1C00FFF762FC7B681B6A01211800FFF75CFC84
:100C2C007B685B6A00211800FFF756FC7B689B6AA7
:100C3C0000211800FFF750FC7B681800FFF716FF27
:100C4C0000F0E0FD7B68DB6901211800FFF744FC34
:100C5C007B681B6A01211800FFF73EFC7B685B6A0E
:100C6C0000211800FFF738FC7B689B6A00211800F4
:100C7C00FFF732FC7B681800FFF7F8FE00F02CFE43
:100C8C007B68DB6900211800FFF726FC7B681B6A78
:100C9C0001211800FFF720FC7B685B6A002118001B
:100CAC00FFF71AFC7B689B6A00211800FFF714FC05
:100CBC007B681800FFF7DAFE00F00EFE7B68DB693C
:100CCC0000211800FFF708FC7B681B6A0121180043
:100CDC00FFF702FC7B685B6A00211800FFF7FCFB46
:100CEC007B689B6A00211800FFF7F6FB7B681800F5
:100CFC00FFF7BCFE00F0F0FD7B68DB6900211800FB
:100D0C00FFF7EAFB7B681B6A00211800FFF7E4FB86
:100D1C007B685B6A00211800FFF7DEFB7B689B6A2F
:100D2C0001211800FFF7D8FB7B681800FFF79EFE27
:100D3C0000F0D2FD7B68DB6901211800FFF7CCFBCA
:100D4C007B681B6A00211800FFF7C6FB7B685B6A97
:100D5C0000211800FFF7C0FB7B689B6A002118007C
:100D6C00FFF7BAFB7B681800FFF780FE00F0B4FDBC
:100D7C007B68DB6900211800FFF7AEFB7B681B6A00
:100D8C0001211800FFF7A8FB7B685B6A00211800A3
:100D9C00FFF7A2FB7B689B6A00211800FFF79CFB06
:100DAC007B681800FFF762FE00F096FD7B68DB693C
:100DBC0000211800FFF790FB7B681B6A00211800CC
:100DCC00FFF78AFB7B685B6A00211800FFF784FB46
:100DDC007B689B6A00211800FFF77EFB7B6818007C
:100DEC00FFF744FE00F078FD7B68DB6900211800FA
:100DFC00FFF772FB7B681B6A00211800FFF76CFB86
:100E0C007B685B6A01211800FFF766FB7B689B6AB5
:100E1C0001211800FFF760FB7B681800FFF726FE26
:100E2C0000F05AFD7B68DB6900211800FFF754FBCA
:100E3C007B681B6A00211800FFF74EFB7B685B6A1E
:100E4C0000211800FFF748FB7B689B6A0021180003
:100E5C00FFF742FB7B681800FFF708FE00F03CFD33
:100E6C007B68DB6900211800FFF736FB7B681B6A87
:100E7C0001211800FFF730FB7B685B6A0121180029
:100E8C00FFF72AFB7B689B6A00211800FFF724FB05
:100E9C007B681800FFF7EAFD00F01EFD7B68DB693C
:100EAC0000211800FFF718FB7B681B6A0021180053
:100EBC00FFF712FB7B685B6A00211800FFF70CFB45
:100ECC007B689B6A00211800FFF706FB7B68180003
:100EDC00FFF7CCFD00F000FD7B68DB6900211800FA
:100EEC00FFF7FAFA7B681B6A01211800FFF7F4FA86
:100EFC007B685B6A00211800FFF7EEFA7B689B6A3F
:100F0C0000211800FFF7E8FA7B681800FFF7AEFD28
:100F1C0000F0E2FC7B68DB6900211800FFF7DCFACB
:100F2C007B681B6A00211800FFF7D6FA7B685B6AA6
:100F3C0000211800FFF7D0FA7B689B6A002118008B
:100F4C00FFF7CAFA7B681800FFF790FD00F0C4FCAD
:100F5C007B68DB6901211800FFF7BEFA7B681B6A0E
:100F6C0000211800FFF7B8FA7B685B6A00211800B3
:100F7C00FFF7B2FA7B689B6A00211800FFF7ACFA06
:100F8C007B681800FFF772FD00F0A6FC7B68DB693C
:100F9C0000211800FFF7A0FA7B681B6A00211800DB
:100FAC00FFF79AFA7B685B6A00211800FFF794FA46
:100FBC007B689B6A01211800FFF78EFA7B6818008A
:100FCC00FFF754FD00F088FC7B68DB6900211800FA
:100FDC00FFF782FA7B681B6A00211800FFF77CFA86
:100FEC007B685B6A00211800FFF776FA7B689B6AC6
:100FFC0000211800FFF770FA7B681800FFF736FD28
:10100C0000F06AFCC046BD4602B080BD80B500AFA2
:10101C0000F0CCFC03001800FFF799F90300022143
:10102C001800FFF77BF900F0C9FC03001800FFF76C
:10103C002FF903001800FFF73AF9030000211800FC
:10104C00FFF782F8030004211800FFF797F803005C
:10105C0000211800FFF7AEF8030001211800FFF77C
:10106C00DFF8030007211800FFF7F6F8030018005B
:10107C00FFF731F903001800FFF73CF903000221D8
:10108C001800FFF7B3F8C046BD4680BDB0B582B0BE
:10109C0000AF00F09BFC05000820FFF7C9F9030026
:1010AC001C00072229002000FFF7D4F97C607B6824
:1010BC001B68180000F092FC0300180000F09DFC67
:1010CC007B681800BD4602B0B0BDB0B582B000AFB1
:1010DC0000F07CFC05000820FFF7AAF903001C00B7
:1010EC00062229002000FFF7B5F97C607B681B689D
:1010FC00180000F073FC0300180000F08BFC7B68F8
:10110C001800BD4602B0B0BDB0B582B000AF00F063
:10111C00CDFA05000820FFF78BF903001C000C2208
:10112C0029002000FFF796F97C607B681B6818008B
:10113C0000F07DFC0300180000F088FC7B681800B0
:10114C00BD4602B0B0BDB0B582B000AF00F03EFC01
:10115C0005000820FFF76CF903001C000C22290085
:10116C002000FFF777F97C607B681B68180000F0A3
:10117C0035FC0300180000F076FC7B681800BD46B7
:10118C0002B0B0BDB0B582B000AF00F079FC050084
:10119C000820FFF74DF903001C0002222900200053
:1011AC00FFF758F97C607B681B68180000F070FC36
:1011BC000300180000F07BFC7B681800BD4602B0F1
:1011CC00B0BDB0B582B000AF00F070FA05000820D9
:1011DC00FFF72EF903001C00032229002000FFF763
:1011EC0039F97C607B681B68180000F020FC030058
:1011FC00180000F069FC7B681800BD4602B0B0BD59
:10120C00B0B582B000AF00F051FA05000820FFF72E
:10121C000FF903001C00042229002000FFF71AF923
:10122C007C607B681B68180000F001FC0300180050
:10123C0000F064FC7B681800BD4602B0B0BDB0B5D0
:10124C0082B000AF00F032FA05000820FFF7F0F88A
:10125C0003001C00052229002000FFF7FBF87C602E
:10126C007B681B68180000F0E2FB0300180000F01C
:10127C005FFC7B681800BD4602B0B0BDB0B582B053
:10128C0000AF00F013FA05000820FFF7D1F80300B7
:10129C001C00062229002000FFF7DCF87C607B682C
:1012AC001B68180000F0C3FB0300180000F04DFC95
:1012BC007B681800BD4602B0B0BDB0B582B000AFBF
:1012CC0000F0F4F905000820FFF7B2F803001C0049
:1012DC00072229002000FFF7BDF87C607B681B68A3
:1012EC00180000F0A4FB0300180000F03BFC7B6826
:1012FC001800BD4602B0B0BDB0B582B000AF00F072
:10130C00D5F905000820FFF793F803001C0008220C
:10131C0029002000FFF79EF87C607B681B68180092
:10132C0000F085FB0300180000F029FC7B68180016
:10133C00BD4602B0B0BDB0B582B000AFFFF7DCFF68
:10134C0005002820FFF774F803001C000022290078
:10135C002000FFF797FA7C607B681800BD4602B04E
:10136C00B0BDF0B5D6464F464646C0B58CB006AFBC
:10137C00FFF7E9FEF860FFF705FFB860FFF721FF04
:10138C007860FFF73DFF0500FFF759FF0600FFF7F8
:10139C0075FF8046FFF791FF8146FFF7CCFF824631
:1013AC003420FFF745F803001C00534604934B46CA
:1013BC00039343460293019600957B68BA68F968DB
:1013CC002000FFF71DFB7C617B691800FFF7E6FB33
:1013DC007B691800FFF73CFA7B691800BD4606B024
:1013EC001CBC90469946A246F0BD80B584B000AFB7
:1013FC00FFF74CFE0300FB60FFF767FE0300BB60CA
:10140C00FFF782FE03007B60FFF7ABFF03003B603E
:10141C00FB6801211800FFF75FF800F0BDFBFB68CB
:10142C0000211800FFF758F800F0B6FBBB6801214B
:10143C001800FFF751F800F0AFFBBB680021180053
:10144C00FFF74AF800F0A8FB7B6801211800FFF7B2
:10145C0043F800F0BFFB7B6800211800FFF73CF855
:10146C0000F0B8FBBB6801211800FFF735F800F05D
:10147C00B1FBBB6800211800FFF72EF800F0C8FB89
:10148C00C6E780B584B000AF786039607A68796857
:10149C0080235B00CB58D318FB607A6880235B00F9
:1014AC00D2583B68D1187A6880235B00D1507A6897
:1014BC0080235B00D358FF2B01D8FB6800E000238E
:1014CC001800BD4604B080BD80B582B000AF786016
:1014DC0039607B685A683B685A607B685B68002B94
:1014EC0003D07B685B683A689A607B683A685A609C
:1014FC007B681B68002B02D17B683A681A60C04677
:10150C00BD4602B080BD80B582B000AF7860396056
:10151C003B685B68002B0ED03B689B68002B0AD0A5
:10152C003B685B683A6892689A603B689B683A686B
:10153C0052685A602DE03B689B68002B0FD03B68CB
:10154C009A687B681A607B681B6800225A607B680B
:10155C001B68002B1DD17B6800225A6019E03B6888
:10156C005B68002B0FD03B685A687B685A607B68BD
:10157C005B6800229A607B685B68002B09D17B68F2
:10158C0000221A6005E07B6800221A607B6800224A
:10159C005A603B6800225A603B6800229A60C04641
:1015AC00BD4602B080BD80B584B000AF78607B686A
:1015BC001A680C23FB181100180000F047FBFB689D
:1015CC001800BD4604B080BD80B582B000AF786015
:1015DC007B6800221A607B681800BD4602B080BD93
:1015EC0080B584B000AF78600023FB600C23FB183F
:1015FC001800FFF7E9FFFB681800BD4604B080BD7A
:10160C0080B582B000AF786039607B681A683B683F
:10161C001B68D31A5A1E9341DBB21800BD4602B0A8
:10162C0080BD80B582B000AF78607B681B689A681B
:10163C007B681A607B681800BD4602B080BD80B51F
:10164C0082B000AF78607B681B681800BD4602B0A2
:10165C0080BD000080B500AF014B1800BD4680BDB9
:10166C0010E000E080B584B000AF78600E4BFB60FA
:10167C000D4A7B6811001800FEF7A5FF7B68180067
:10168C00FEF7ADFF7B6801211800FEF7B3FF7B6806
:10169C001800FEF7C8FF7B681800FEF7D1FFC046A4
:1016AC00BD4604B080BDC0463F19010080B500AFF7
:1016BC00014B1800BD4680BD000C014090B585B0B3
:1016CC0000AF304BBB60FFF7C5FF03007B607B684E
:1016DC001800FEF7C2FF0300FB607B681800FEF7E2
:1016EC00BCFF0200274B93429B415B42DBB2002BB9
:1016FC000ED0FB68244A9C187B681800FEF7ADFFDF
:10170C0003009C429B415B42DBB2002B36D0F0E7DE
:10171C007B681800FEF7A1FF02001A4B9B1A3B6076
:10172C007B681800FEF799FF0300FB607B681800CC
:10173C00FEF793FF0200FB689A429B415B42DBB2CF
:10174C00002B06D07B681800FEF787FF0300FB60B8
:10175C00ECE77B681800FEF780FF0300FB60FA687B
:10176C003B68D41A7B681800FEF777FF03009C4295
:10177C009B415B42DBB2002B00D0F0E7C046BD467C
:10178C0005B090BDA08C00006073FFFF80B588B0E1
:10179C0000AF1423FB613B1D14211800FEF7DCFF86
:1017AC003B1D1800FFF715F803001A0001235340E6
:1017BC00DBB2002B00D0F3E73B1D1800FFF721F83C
:1017CC00C046BD4608B080BD80B588B000AF0523CB
:1017DC00FB613B1D05211800FEF7BEFF3B1D1800E9
:1017EC00FEF7F7FF03001A0001235340DBB2002B76
:1017FC0000D0F3E73B1D1800FFF703F8C046BD46C9
:10180C0008B080BD90B585B000AFE1235B01BB6033
:10181C00FFF720FF03007B607B681800FEF71DFFBD
:10182C000300FB607B681800FEF717FF0200E12342
:10183C005B0193429B415B42DBB2002B0ED0FB68F9
:10184C00244A9C187B681800FEF707FF03009C4293
:10185C009B415B42DBB2002B37D0F0E77B68180072
:10186C00FEF7FBFE0200E1235B019B1A3B607B68E9
:10187C001800FEF7F2FE0300FB607B681800FEF711
:10188C00ECFE0200FB689A429B415B42DBB2002BF0
:10189C0006D07B681800FEF7E0FE0300FB60ECE767
:1018AC007B681800FEF7D9FE0300FB60FA683B6802
:1018BC00D41A7B681800FEF7D0FE03009C429B41B3
:1018CC005B42DBB2002B00D0F0E7C046BD4605B052
:1018DC0090BDC046E0E3FFFF90B585B000AFB423E8
:1018EC001B01BB60FFF7B6FE03007B607B68180032
:1018FC00FEF7B3FE0300FB607B681800FEF7ADFE3D
:10190C000200B4231B0193429B415B42DBB2002BD0
:10191C000ED0FB68244A9C187B681800FEF79DFECD
:10192C0003009C429B415B42DBB2002B37D0F0E7BB
:10193C007B681800FEF791FE0200B4231B019B1A72
:10194C003B607B681800FEF788FE0300FB607B6839
:10195C001800FEF782FE0200FB689A429B415B4234
:10196C00DBB2002B06D07B681800FEF776FE030076
:10197C00FB60ECE77B681800FEF76FFE0300FB6072
:10198C00FA683B68D41A7B681800FEF766FE030001
:10199C009C429B415B42DBB2002B00D0F0E7C0467F
:1019AC00BD4605B090BDC046C0F4FFFF80B500AF8A
:1019BC00014B1800BD4680BD0020024080B500AF31
:1019CC00014B1800BD4680BD0010024080B500AF31
:1019DC00014B1800BD4680BD0010014080B582B09F
:1019EC0000AF7860FFF7EAFF0300180000F03BF946
:1019FC007B681800BD4602B080BD80B582B000AFD8
:101A0C0078607B680221180000F051F9C046BD4691
:101A1C0002B080BD80B582B000AF78607B680221D7
:101A2C00180000F05DF9C046BD4602B080BD80B51F
:101A3C0082B000AF7860FFF7C1FF0300180000F020
:101A4C006BF97B681800BD4602B080BD80B582B0D2
:101A5C0000AF78607B680221180000F06BF9C0467B
:101A6C00BD4602B080BD80B582B000AF78607B68A7
:101A7C000221180000F05EF9C046BD4602B080BDE0
:101A8C0080B500AF014B1800BD4680BD001401406D
:101A9C0080B582B000AF7860FFF790FF03001800AC
:101AAC0000F064F97B681800BD4602B080BD80B5BB
:101ABC0082B000AF78607B680221180000F064F9F6
:101ACC00C046BD4602B080BD80B582B000AF786024
:101ADC0000F0D6F80300180000F0DAF800F0D0F8A7
:101AEC00030002211800FEF741FC7B68022118005C
:101AFC0000F066F9C046BD4602B080BD80B582B02C
:101B0C0000AF786000F0BCF80300180000F0C0F8DB
:101B1C0000F0B6F8030002211800FEF727FC7B68E2
:101B2C000221180000F068F9C046BD4602B080BD25
:101B3C0080B582B000AF78607B680221180000F09D
:101B4C0077F9C046BD4602B080BD80B582B000AF0B
:101B5C0078607B680221180000F0C2F8C046BD46D0
:101B6C0002B080BD80B582B000AF78607B68022186
:101B7C00180000F09CF8C046BD4602B080BD80B590
:101B8C0082B000AF78607B680421180000F06CF91B
:101B9C00C046BD4602B080BD80B588B000AF3223D0
:101BAC00FB613B1D32211800FEF7D6FD3B1D1800D2
:101BBC00FEF70FFE03001A0001235340DBB2002B8B
:101BCC0000D0F3E73B1D1800FEF71BFEC046BD46D8
:101BDC0008B080BD80B588B000AF9623FB613B1D7B
:101BEC0096211800FEF7B8FD3B1D1800FEF7F1FD1D
:101BFC0003001A0001235340DBB2002B00D0F3E7A3
:101C0C003B1D1800FEF7FDFDC046BD4608B080BD6B
:101C1C0080B588B000AFC823FB613B1DC8211800FC
:101C2C00FEF79AFD3B1D1800FEF7D3FD03001A00CA
:101C3C0001235340DBB2002B00D0F3E73B1D18000F
:101C4C00FEF7DFFDC046BD4608B080BD80B582B052
:101C5C0000AF786039607B683A681A607B6818005E
:101C6C00BD4602B080BD80B582B000AF78607B68A5
:101C7C009A6910210A439A61C046BD4602B080BDE4
:101C8C0080B500AF014B1800BD4680BD000001407F
:101C9C0080B582B000AF7860FFF790FE03001800AB
:101CAC0000F0FBF87B681800BD4602B080BD80B523
:101CBC0082B000AF78600A00FB1C1A70FB1C1B780A
:101CCC000F221340DAB27B6812071968090109095F
:101CDC000A431A607B681800BD4602B080BD000044
:101CEC0080B582B000AF78600A00FB1C1A70FB1C38
:101CFC001B780F221340DAB27B680F210A401206C0
:101D0C001968044801400A431A607B681800BD46F4
:101D1C0002B080BDFFFFFFF080B582B000AF7860ED
:101D2C007B689A6908210A439A61C046BD4602B095
:101D3C0080BD000080B582B000AF78600A00FB1C4B
:101D4C001A70FB1C1B780F221340DAB27B680F2130
:101D5C000A4012045968044801400A435A607B68DF
:101D6C001800BD4602B080BDFFFFF0FF80B582B009
:101D7C0000AF78607B689A6920210A439A61C0465B
:101D8C00BD4602B080BD000080B582B000AF786067
:101D9C000A00FB1C1A70FB1C1B780F221340DAB2D2
:101DAC007B680F210A4012021968044801400A435B
:101DBC001A607B681800BD4602B080BDFFF0FFFFC3
:101DCC0080B582B000AF78600A00FB1C1A70FB1C57
:101DDC001B780F221340DAB27B680F210A401203E2
:101DEC001968044801400A431A607B681800BD4614
:101DFC0002B080BDFF0FFFFF80B582B000AF7860EE
:101E0C000A00FB1C1A70FB1C1B780F221340DAB261
:101E1C007B680F210A4012041968044801400A43E8
:101E2C001A607B681800BD4602B080BDFFFFF0FF52
:101E3C0080B582B000AF78600A00FB1C1A70FB1CE6
:101E4C001B780F221340DAB27B680F210A4012056F
:101E5C001968044801400A431A607B681800BD46A3
:101E6C0002B080BDFFFF0FFF80B582B000AF78607D
:101E7C000A00FB1C1A70FB1C1B780F221340DAB2F1
:101E8C007B680F210A4059680F2081430A435A602E
:101E9C007B681800BD4602B080BD80B582B000AF33
:101EAC0078607B689A6901210A439A61C046BD46F5
:101EBC0002B080BD80B582B000AF786039607B68BD
:101ECC00012B13D13B680B4A93420FD10A4B1800DC
:101EDC0082235B001A00002100F07EF8064B1800EC
:101EEC00FEF798FA054B1800FEF7DDFBC046BD4621
:101EFC0002B080BDFFFF000084000020880100209C
:101F0C0080B500AF034B19000120FFF7D3FFBD468E
:101F1C0080BDC046FFFF0000002103E00B4B5B5867
:101F2C00435004310A480B4B42189A42F6D30A4AE2
:101F3C0002E0002342F8043B084B9A42F9D3FFF726
:101F4C0065F800F025F8FFF750FA70470C210008EF
:101F5C000000002068000020680000209401002090
:101F6C00FEE710B500F004F810B5804700F008F853
:101F7C00024B10B51868FFF7F7FFC04600000020B1
:101F8C0010B5062000F05AF8012000F087F8000088
:101F9C0070B500260C4D0D4C641BA410A64209D143
:101FAC00002600F07DF80A4D0A4C641BA410A642D2
:101FBC0005D170BDB300EB5898470136EEE7B3007E
:101FCC00EB5898470136F2E7002100080021000881
:101FDC00002100080821000803001218934200D1C8
:101FEC00704719700133F9E770B504000D001F2913
:101FFC0004D9162303600120404270BD436C002BB2
:10200C0004D08A009B181A68002A08D1200000F01E
:10201C0031F82A000100200000F01AF8EDE700204A
:10202C00012AEAD0511C03D1162301302360E4E7C6
:10203C00002428001C6090472000DEE710B5034BFD
:10204C0001001868FFF7D0FF10BDC0460400002047
:10205C00002370B5064C050008001100236000F049
:10206C0015F8431C03D12368002B00D02B6070BDE6
:10207C009001002010B500F001F810BD582201208D
:10208C00014B40421A6070479001002058220120F9
:10209C00014B40421A60704790010020FEE7C04699
:1020AC00F8B5C046F8BC08BC9E467047F8B5C046AB
:0820BC00F8BC08BC9E46704709
:1020C4000000000000000000A90A00080000000051
:1020D4000000000067090008000000000000000084
:1020E400A507000800000000000000006F1F0008A2
:0C20F40000000000000000006F1F00084A
:08210000350100080D1F000865
:042108000D010008BD
:10210C008D1F0008080000200000000000000000E7
:10211C0000000000000000000000000000000000B3
:10212C0000000000000000000000000000000000A3
:10213C000000000000000000000000000000000093
:10214C000000000000000000000000000000000083
:10215C000000000000000000000000000000000073
:08216C0000000000000000006B
:0400000508001F25AB
:00000001FF
