:020000040800F2
:100000000050002061A10008A9A10008A9A10008D2
:10001000A9A10008A9A10008A9A1000800000000EA
:10002000000000000000000000000000A9A100087E
:10003000A9A1000800000000A9A10008E51D000812
:10004000B7230008B9230008BB230008BD2300081C
:10005000BF230008C1230008C5230008E1230008CE
:10006000FD2300081924000835240008B9250008DC
:10007000D5250008F12500080D26000829260008CE
:100080004526000861260008512400085324000872
:100090005524000857240008592400085D2400084E
:1000A000C9240008CB240008CD240008CF24000870
:1000B000D1240008D3240008D5240008D724000840
:1000C000D9240008DB240008DD240008DF24000810
:1000D000E124000865250008812500089D25000809
:1000E000E5240008612500086325000800000000E1
:1000F0000000000000000000000000000000000000
:0C01000000000000000000005FF808F1A3
:10010C0010B5064C2378002B07D1054B002B02D0E1
:10011C000448AFF300800123237010BD6800002059
:10012C0000000000A8AC0008044B10B5002B03D055
:10013C0003490448AFF3008010BDC0460000000026
:10014C006C000020A8AC00080023C25C0133002A1C
:10015C00FBD1581E7047000002B471464908490093
:10016C00095C49008E4402BC7047C04603B471461A
:10017C00490840004900095A49008E4403BC7047A5
:10018C00002243088B4274D303098B425FD3030ACA
:10019C008B4244D3030B8B4228D3030C8B420DD3DD
:1001AC00FF22090212BA030C8B4202D3121209026B
:1001BC0065D0030B8B4219D300E0090AC30B8B42A9
:1001CC0001D3CB03C01A5241830B8B4201D38B0357
:1001DC00C01A5241430B8B4201D34B03C01A5241FC
:1001EC00030B8B4201D30B03C01A5241C30A8B423F
:1001FC0001D3CB02C01A5241830A8B4201D38B022A
:10020C00C01A5241430A8B4201D34B02C01A5241CD
:10021C00030A8B4201D30B02C01A5241CDD2C3093F
:10022C008B4201D3CB01C01A524183098B4201D3BB
:10023C008B01C01A524143098B4201D34B01C01AA6
:10024C00524103098B4201D30B01C01A5241C3081E
:10025C008B4201D3CB00C01A524183088B4201D38D
:10026C008B00C01A524143088B4201D34B00C01A79
:10027C005241411A00D20146524110467047FFE7E5
:10028C0001B5002000F0F0F802BDC0460029F7D0FF
:10029C0076E7704703460B437FD4002243088B421A
:1002AC0074D303098B425FD3030A8B4244D3030BF1
:1002BC008B4228D3030C8B420DD3FF22090212BAB6
:1002CC00030C8B4202D31212090265D0030B8B4232
:1002DC0019D300E0090AC30B8B4201D3CB03C01A1C
:1002EC005241830B8B4201D38B03C01A5241430BF7
:1002FC008B4201D34B03C01A5241030B8B4201D3E7
:10030C000B03C01A5241C30A8B4201D3CB02C01A51
:10031C005241830A8B4201D38B02C01A5241430AC9
:10032C008B4201D34B02C01A5241030A8B4201D3B8
:10033C000B02C01A5241CDD2C3098B4201D3CB015F
:10034C00C01A524183098B4201D38B01C01A52410E
:10035C0043098B4201D34B01C01A524103098B4212
:10036C0001D30B01C01A5241C3088B4201D3CB00FD
:10037C00C01A524183088B4201D38B00C01A5241E0
:10038C0043088B4201D34B00C01A5241411A00D290
:10039C0001465241104670475DE0CA0F00D04942F9
:1003AC00031000D34042534000229C4603098B4269
:1003BC002DD3030A8B4212D3FC22890112BA030AF1
:1003CC008B420CD3890192118B4208D38901921173
:1003DC008B4204D389013AD0921100E08909C309F8
:1003EC008B4201D3CB01C01A524183098B4201D3FA
:1003FC008B01C01A524143098B4201D34B01C01AE5
:10040C00524103098B4201D30B01C01A5241C3085C
:10041C008B4201D3CB00C01A524183088B4201D3CB
:10042C008B00C01A5241D9D243088B4201D34B00E6
:10043C00C01A5241411A00D20146634652415B1028
:10044C00104601D34042002B00D549427047634609
:10045C005B1000D3404201B5002000F005F802BD4E
:10046C000029F8D016E770477047C0461F22430991
:10047C0010401E3A824002499B005A507047C046B9
:10048C0000E100E0436901334361704770477047F6
:10049C0070477047012A03D0022A03D0002070470E
:1004AC000160FBE70B680360F8E7012A03D0022A1E
:1004BC0003D0002070470160FBE70B680360F8E78E
:1004CC00012A03D0022A03D0002070470160FBE709
:1004DC000B680360F8E7012A03D0022A03D000203E
:1004EC0070470160FBE70B680360F8E7012A03D053
:1004FC00022A03D0002070470160FBE70B68036001
:10050C00F8E7012A03D0022A03D0002070470160CB
:10051C00FBE70B680360F8E7012A03D0022A03D03B
:10052C00002070470160FBE70B680360F8E7012AC5
:10053C0003D0022A03D0002070470160FBE70B6850
:10054C000360F8E7012A03D0022A03D00020704789
:10055C000160FBE70B680360F8E7012A03D0022A6D
:10056C0003D0002070470160FBE70B680360F8E7DD
:10057C00012A03D0022A03D0002070470160FBE758
:10058C000B680360F8E7012A03D0022A03D000208D
:10059C0070470160FBE70B680360F8E7012A03D0A2
:1005AC00022A03D0002070470160FBE70B68036050
:1005BC00F8E7012A03D0022A03D00020704701601B
:1005CC00FBE70CC90CC0F8E7012A03D0022A03D0C0
:1005DC00002070470160FBE70CC90CC0F8E702680B
:1005EC00406810B503685C1C9B00D318046019614B
:1005FC0010BD012A03D0022A03D0002070470160ED
:10060C00FBE70B680360F8E7012A03D0022A03D04A
:10061C00002070470160FBE70B680360F8E7012AD4
:10062C0003D0022A03D0002070470160FBE70B685F
:10063C000360F8E7012A03D0022A03D00020704798
:10064C000160FBE70B680360F8E7012A03D0022A7C
:10065C0003D0002070470160FBE70B680360F8E7EC
:10066C00012A03D0022A03D0002070470160FBE767
:10067C000B680360F8E7012A03D0022A03D000209C
:10068C0070470160FBE70B680360F8E7012A03D0B1
:10069C00022A03D0002070470160FBE70B6803605F
:1006AC00F8E7012A03D0022A03D00020704701602A
:1006BC00FBE70B680360F8E7012A03D0022A03D09A
:1006CC00002070470160FBE70B680360F8E7012A24
:1006DC0003D0022A03D0002070470160FBE70B68AF
:1006EC000360F8E7012A03D0022A03D000207047E8
:1006FC000160FBE70B680360F8E7012A03D0022ACC
:10070C0003D0002070470160FBE70B680360F8E73B
:10071C00012A03D0022A03D0002070470160FBE7B6
:10072C000B680360F8E7012A03D0022A03D00020EB
:10073C0070470160FBE70B680360F8E77047012A1C
:10074C0000D1016000207047012A00D10160002017
:10075C007047012A03D0022A03D0002070470160A1
:10076C00FBE70B680360F8E7012A03D0022A03D0E9
:10077C00002070470160FBE70B680360F8E7012A73
:10078C0003D0022A03D0002070470160FBE70B68FE
:10079C000360F8E7012A03D0022A03D00020704737
:1007AC000160FBE70B680360F8E7012A03D0022A1B
:1007BC0003D0002070470160FBE70B680360F8E78B
:1007CC00012A03D0022A03D0002070470160FBE706
:1007DC000B680360F8E7012A03D0022A03D000203B
:1007EC0070470160FBE70B680360F8E7012A03D050
:1007FC00022A03D0002070470160FBE70B680360FE
:10080C00F8E7012A03D0022A03D0002070470160C8
:10081C00FBE70B680360F8E7012A03D0022A03D038
:10082C00002070470160FBE70B680360F8E7012AC2
:10083C0003D0022A03D0002070470160FBE70B684D
:10084C000360F8E7012A03D0022A03D00020704786
:10085C000160FBE70B680360F8E7012A03D0022A6A
:10086C0003D0002070470160FBE70B680360F8E7DA
:10087C00012A03D0022A03D0002070470160FBE755
:10088C000B680360F8E7012A03D0022A03D000208A
:10089C0070470160FBE70B680360F8E7012A03D09F
:1008AC00022A03D0002070470160FBE70B6803604D
:1008BC00F8E7012A03D0022A03D000207047016018
:1008CC00FBE70B680360F8E7012A03D0022A03D088
:1008DC00002070470160FBE70B680360F8E7012A12
:1008EC0003D0022A03D0002070470160FBE70B689D
:1008FC000360F8E7012A03D0022A03D000207047D6
:10090C000160FBE70B680360F8E7012A03D0022AB9
:10091C0003D0002070470160FBE70B680360F8E729
:10092C00012A03D0022A03D0002070470160FBE7A4
:10093C000B680360F8E7012A03D0022A03D00020D9
:10094C0070470160FBE70B680360F8E7012A03D0EE
:10095C00022A03D0002070470160FBE70B6803609C
:10096C00F8E7012A03D0022A03D000207047016067
:10097C00FBE70B680360F8E7012A03D0022A03D0D7
:10098C00002070470160FBE70B680360F8E7012A61
:10099C0003D0022A03D0002070470160FBE70B68EC
:1009AC000360F8E7012A03D0022A03D00020704725
:1009BC000160FBE70B680360F8E7012A03D0022A09
:1009CC0003D0002070470160FBE70B680360F8E779
:1009DC00012A03D0022A03D0002070470160FBE7F4
:1009EC000B680360F8E7012A03D0022A03D0002029
:1009FC0070470160FBE70B680360F8E7012A03D03E
:100A0C00022A03D0002070470160FBE70B680360EB
:100A1C00F8E7012A03D0022A03D0002070470160B6
:100A2C00FBE70B680360F8E7012A03D0022A03D026
:100A3C00002070470160FBE70B680360F8E7012AB0
:100A4C0003D0022A03D0002070470160FBE70B683B
:100A5C000360F8E7012A03D0022A03D00020704774
:100A6C000160FBE70B680360F8E7012A03D0022A58
:100A7C0003D0002070470160FBE70B680360F8E7C8
:100A8C00012A03D0022A03D0002070470160FBE743
:100A9C000B680360F8E7012A03D0022A03D0002078
:100AAC0070470160FBE70B680360F8E7012A03D08D
:100ABC00022A03D0002070470160FBE70B6803603B
:100ACC00F8E7012A03D0022A03D000207047016006
:100ADC00FBE70B680360F8E7012A03D0022A03D076
:100AEC00002070470160FBE70B680360F8E7012A00
:100AFC0003D0022A03D0002070470160FBE70B688B
:100B0C000360F8E7012A03D0022A03D000207047C3
:100B1C000160FBE70B680360F8E7012A03D0022AA7
:100B2C0003D0002070470160FBE70B680360F8E717
:100B3C00012A03D0022A03D0002070470160FBE792
:100B4C000B680360F8E7012A03D0022A03D00020C7
:100B5C0070470160FBE70B680360F8E7012A03D0DC
:100B6C00022A03D0002070470160FBE70B6803608A
:100B7C00F8E7012A03D0022A03D000207047016055
:100B8C00FBE70B680360F8E7012A03D0022A03D0C5
:100B9C00002070470160FBE70B680360F8E7012A4F
:100BAC0003D0022A03D0002070470160FBE70B68DA
:100BBC000360F8E7012A03D0022A03D00020704713
:100BCC000160FBE70B680360F8E7012A03D0022AF7
:100BDC0003D0002070470160FBE70B680360F8E767
:100BEC00012A03D0022A03D0002070470160FBE7E2
:100BFC000B680360F8E7012A03D0022A03D0002017
:100C0C0070470160FBE70B680360F8E7012A03D02B
:100C1C00022A03D0002070470160FBE70B680360D9
:100C2C00F8E7012A03D0022A03D0002070470160A4
:100C3C00FBE70B680360F8E7012A03D0022A03D014
:100C4C00002070470160FBE70B680360F8E7012A9E
:100C5C0003D0022A03D0002070470160FBE70CC9C7
:100C6C000CC0F8E7012A03D0022A03D000207047F9
:100C7C000160FBE70CC90CC0F8E7036C013303649B
:100C8C007047002303704370704700230370437058
:100C9C0070470023037043707047C3690133C3610D
:100CAC007047704770477047704770477047704780
:100CBC00704770477047704770477047012A03D0E0
:100CCC00022A03D0002070470160FBE70B68036029
:100CDC00F8E7012A03D0022A03D0002070470160F4
:100CEC00FBE70B680360F8E7012A03D0022A03D064
:100CFC00002070470160FBE70B680360F8E7012AEE
:100D0C0003D0022A03D0002070470160FBE70B6878
:100D1C000360F8E7012A03D0022A03D000207047B1
:100D2C000160FBE70B680360F8E7012A03D0022A95
:100D3C0003D0002070470160FBE70B680360F8E705
:100D4C00012A03D0022A03D0002070470160FBE780
:100D5C000B680360F8E7012A03D0022A03D00020B5
:100D6C0070470160FBE70B680360F8E7012A03D0CA
:100D7C00022A03D0002070470160FBE70B68036078
:100D8C00F8E7012A03D0022A03D000207047016043
:100D9C00FBE70B680360F8E7012A03D0022A03D0B3
:100DAC00002070470160FBE70B680360F8E7012A3D
:100DBC0003D0022A03D0002070470160FBE70B68C8
:100DCC000360F8E7012A03D0022A03D00020704701
:100DDC000160FBE70B680360F8E7012A03D0022AE5
:100DEC0003D0002070470160FBE70B680360F8E755
:100DFC00012A03D0022A03D0002070470160FBE7D0
:100E0C000B680360F8E7012A03D0022A03D0002004
:100E1C0070470160FBE70B680360F8E7012A03D019
:100E2C00022A03D0002070470160FBE70B680360C7
:100E3C00F8E7012A03D0022A03D000207047016092
:100E4C00FBE70B680360F8E7012A03D0022A03D002
:100E5C00002070470160FBE70B680360F8E7012A8C
:100E6C0003D0022A03D0002070470160FBE70B6817
:100E7C000360F8E7012A03D0022A03D00020704750
:100E8C000160FBE70B680360F8E7012A03D0022A34
:100E9C0003D0002070470160FBE70B680360F8E7A4
:100EAC00012A03D0022A03D0002070470160FBE71F
:100EBC000B680360F8E7012A03D0022A03D0002054
:100ECC0070470160FBE70B680360F8E7012A03D069
:100EDC00022A03D0002070470160FBE70B68036017
:100EEC00F8E7012A03D0022A03D0002070470160E2
:100EFC00FBE70B680360F8E7012A03D0022A03D052
:100F0C00002070470160FBE70B680360F8E7012ADB
:100F1C0003D0022A03D0002070470160FBE70B6866
:100F2C000360F8E7012A03D0022A03D0002070479F
:100F3C000160FBE70B680360F8E7012A03D0022A83
:100F4C0003D0002070470160FBE70B680360F8E7F3
:100F5C00012A03D0022A03D0002070470160FBE76E
:100F6C000B680360F8E7012A03D0022A03D00020A3
:100F7C0070470160FBE70B680360F8E7012A03D0B8
:100F8C00022A03D0002070470160FBE70B68036066
:100F9C00F8E7012A03D0022A03D000207047016031
:100FAC00FBE70B680360F8E7012A03D0022A03D0A1
:100FBC00002070470160FBE70B680360F8E7012A2B
:100FCC0003D0022A03D0002070470160FBE70B68B6
:100FDC000360F8E7012A03D0022A03D000207047EF
:100FEC000160FBE70B680360F8E7012A03D0022AD3
:100FFC0003D0002070470160FBE70B680360F8E743
:10100C00012A03D0022A03D0002070470160FBE7BD
:10101C000B680360F8E7012A03D0022A03D00020F2
:10102C0070470160FBE70B680360F8E7012A03D007
:10103C00022A03D0002070470160FBE70B680360B5
:10104C00F8E7012A03D0022A03D000207047016080
:10105C00FBE70B680360F8E7012A03D0022A03D0F0
:10106C00002070470160FBE70B680360F8E7012A7A
:10107C0003D0022A03D0002070470160FBE70B6805
:10108C000360F8E7012A03D0022A03D0002070473E
:10109C000160FBE70B680360F8E7012A03D0022A22
:1010AC0003D0002070470160FBE70B680360F8E792
:1010BC00012A03D0022A03D0002070470160FBE70D
:1010CC000B680360F8E7012A03D0022A03D0002042
:1010DC0070470160FBE70B680360F8E7012A03D057
:1010EC00022A03D0002070470160FBE70B68036005
:1010FC00F8E7012A03D0022A03D0002070470160D0
:10110C00FBE70B680360F8E7012A03D0022A03D03F
:10111C00002070470160FBE70B680360F8E7012AC9
:10112C0003D0022A03D0002070470160FBE70B6854
:10113C000360F8E7012A03D0022A03D0002070478D
:10114C000160FBE70B680360F8E7012A03D0022A71
:10115C0003D0002070470160FBE70B680360F8E7E1
:10116C00012A03D0022A03D0002070470160FBE75C
:10117C000B680360F8E7012A03D0022A03D0002091
:10118C0070470160FBE70B680360F8E7012A03D0A6
:10119C00022A03D0002070470160FBE70B68036054
:1011AC00F8E7012A03D0022A03D00020704701601F
:1011BC00FBE70B680360F8E7012A03D0022A03D08F
:1011CC00002070470160FBE70B680360F8E7012A19
:1011DC0003D0022A03D0002070470160FBE70B68A4
:1011EC000360F8E7012A03D0022A03D000207047DD
:1011FC000160FBE70B680360F8E7012A03D0022AC1
:10120C0003D0002070470160FBE70B680360F8E730
:10121C00012A03D0022A03D0002070470160FBE7AB
:10122C000B680360F8E7012A03D0022A03D00020E0
:10123C0070470160FBE70B680360F8E7012A03D0F5
:10124C00022A03D0002070470160FBE70B680360A3
:10125C00F8E7012A03D0022A03D00020704701606E
:10126C00FBE70B680360F8E7012A03D0022A03D0DE
:10127C00002070470160FBE70B680360F8E7012A68
:10128C0003D0022A03D0002070470160FBE70B68F3
:10129C000360F8E7012A03D0022A03D0002070472C
:1012AC000160FBE70B680360F8E7012A03D0022A10
:1012BC0003D0002070470160FBE70B680360F8E780
:1012CC0070B50C000500006803689B68984723689C
:1012DC002C601B682000984770BD006810B5010099
:1012EC003131FF318430FFF7EBFF10BD006810B5D2
:1012FC0001008430EC31FFF7E3FF10BD842310B5FF
:10130C0000689B00C1188430FFF7DAFF10BDC323BF
:10131C0010B500689B00C1188430FFF7D1FF10BDD9
:10132C0010B50068024BC1188430FFF7C9FF10BD1F
:10133C00FC04000010B50068024BC1188430FFF7A4
:10134C00BFFF10BD3C130000006810B50100313127
:10135C00FF318430FFF7B4FF10BDB62310B5006821
:10136C009B00C1188430FFF7ABFF10BD842310B570
:10137C0000689B00C1188430FFF7A2FF10BD006805
:10138C0010B501003131FF318430FFF799FF10BDEA
:10139C00F52310B500689B00C1188430FFF790FF4F
:1013AC0010BD10B50068C26F938A01339382F52388
:1013BC009B00C1188430FFF783FF10BD10B5036884
:1013CC001A1DD26F917C044A99500068034BC118C6
:1013DC008430FFF775FF10BD640400005C0400004E
:1013EC00C32310B500689B00C1188430FFF768FF59
:1013FC0010BDC32310B500689B00C1188430FFF7E3
:10140C005FFF10BD006810B501003131FF31843031
:10141C00FFF756FF10BD000010B50068024BC11855
:10142C008430FFF74DFF10BDDC050000CC2310B558
:10143C000068DB00C1188430FFF742FF10BD0000CC
:10144C0010B50068024BC1188430FFF739FF10BD8E
:10145C00FC06000010B50068024BC1188430FFF781
:10146C002FFF10BD140B000010B50068024BC11803
:10147C008430FFF725FF10BDFC04000010B5006898
:10148C00024BC1188430FFF71BFF10BDFC04000099
:10149C0010B50068024BC1188430FFF711FF10BD66
:1014AC00FC04000010B50068024BC1188430FFF733
:1014BC0007FF10BDF407000010B50068024BC118FF
:1014CC008430FFF7FDFE10BD9408000010B50068D5
:1014DC00024BC1188430FFF7F3FE10BD3409000035
:1014EC0010B50068024BC1188430FFF7E9FE10BD3F
:1014FC00D409000010B50068024BC1188430FFF706
:10150C00DFFE10BD740A000010B50068024BC11854
:10151C008430FFF7D5FE10BDFC06000010B5006846
:10152C00024BC1188430FFF7CBFE10BDFC06000047
:10153C00892310B51F2400681B01C16FC25C8B7816
:10154C005201234013438B70024BC1188430FFF7B8
:10155C00B7FE10BDFC06000010B50068024BC118A8
:10156C008430FFF7ADFE10BDFC060000932310B5D0
:10157C0000681B01C25C0124531E9A41C16F8B7819
:10158C00A34313438B70034BC1188430FFF798FEB1
:10159C0010BDC046FC06000010B50068024BC11817
:1015AC008430FFF78DFE10BDFC0600009D23012248
:1015BC0010B5022400681B01C16FC35C1A408B7804
:1015CC005200A34313438B70024BC1188430FFF7B6
:1015DC0077FE10BDFC06000010B50068024BC11868
:1015EC008430FFF76DFE10BDFC060000A72310B57C
:1015FC0000681B01C3581824013B5A1E9341C16F4C
:10160C005B008A78DB00A24313438B70024BC1183A
:10161C008430FFF755FE10BDFC06000010B50068C5
:10162C00024BC1188430FFF74BFE10BDFC040000C8
:10163C000368074A1800096810B58430914204D138
:10164C00044A9918FFF73CFE10BD034AF9E7C0465F
:10165C00B7040000B40B0000FC04000010B50068D7
:10166C00024BC1188430FFF72BFE10BDFC040000A8
:10167C0010B50068024BC1188430FFF721FE10BD75
:10168C000C0D000010B50068024BC1188430FFF738
:10169C0017FE10BDA80D0000BB230022016810B579
:1016AC001B01CA500068034BC1188430FFF708FEB9
:1016BC0010BDC046440E000010B50068024BC118A6
:1016CC008430FFF7FDFD10BDE40E0000F82310B5CB
:1016DC0000681B01C1188430FFF7F2FD10BD00003B
:1016EC0010B50068024BC1188430FFF7E9FD10BD3E
:1016FC001C100000BB230022016810B51B01CA504E
:10170C000068034BC1188430FFF7DAFD10BDC046EA
:10171C005411000010B50068024BC1188430FFF75B
:10172C00CFFD10BDF811000010B50068024BC118B8
:10173C008430FFF7C5FD10BD9C12000010B5006889
:10174C00024BC1188430FFF7BBFD10BDB40B000079
:10175C0010B50068024BC1188430FFF7B1FD10BD05
:10176C00B40B000010B50068024BC1188430FFF7B1
:10177C00A7FD10BDB40B0000BB2310B500681B0106
:10178C00C358002B02D00023C26F9381024BC118A7
:10179C008430FFF795FD10BDB40B000010B5006848
:1017AC00024BC1188430FFF78BFD10BDB40B000049
:1017BC0010B504680222231DD86FE16F1230093175
:1017CC0008F0F2FD2000034B8430E118FFF778FDA0
:1017DC0010BDC046B40B000010B50068024BC11818
:1017EC008430FFF76DFD10BDB40B000010B5006820
:1017FC00024BC1188430FFF763FD10BDB40B000021
:10180C0010B50068024BC1188430FFF759FD10BDAC
:10181C00B40B000010B50068024BC1188430FFF700
:10182C004FFD10BDB40B0000BB2310B500681B01AD
:10183C00C358002B0AD00023C26F5382C26F93820D
:10184C00C26FD382C26F138B01331383024BC11847
:10185C008430FFF735FD10BDB40B000010B50068E7
:10186C00024BC1188430FFF72BFD10BDB40B0000E8
:10187C0010B50068074B0124C258C16F531E9A4122
:10188C000B7CA34313430B74034BC1188430FFF739
:10189C0017FD10BDF4110000B40B000010B500686A
:1018AC00024BC1188430FFF70BFD10BDB40B0000C8
:1018BC0010B50068084B0224C358C16F5A1E9341DF
:1018CC005A000B7CA34313430B74044BC118843094
:1018DC00FFF7F6FC10BDC04698120000B40B0000D8
:1018EC00006810B501003131FF318430FFF7E8FC9E
:1018FC0010BD000010B50068C26FD38A0133D382CB
:10190C008B23DB00C258094B013A134004D502214A
:10191C00013B49420B430133D31A054A8350F5234B
:10192C009B00C1188430FFF7CBFC10BD0100008078
:10193C00540400000B1A9B10002B14DD0278002AB3
:10194C0003D04278002A01D1013070478278002AF6
:10195C0001D10230F9E7C278002A01D10330F4E753
:10196C000430013BE8E70B1A022B0CD0032B06D0FA
:10197C00012B02D10378002BE7D00800E5E70378B0
:10198C00002BE2D001300378002BDED00130F1E7E0
:10199C000B1A9B10002B14DD0278002A03D142781D
:1019AC00002A01D0013070478278002A01D0023021
:1019BC00F9E7C278002A01D00330F4E70430013B88
:1019CC00E8E70B1A022B0CD0032B06D0012B02D10B
:1019DC000378002BE7D10800E5E70378002BE2D170
:1019EC0001300378002BDED10130F1E710B5FEF7A2
:1019FC003DFD10BD0368002B02D1016004E0130013
:101A0C005A68002AFBD15960704710B50400002CAD
:101A1C0005D0236820001B6898476468F7E710BD61
:101A2C0013B50C0000911178019276394B42594153
:101A3C00CBB221000C240B2900D80C00E4189942DD
:101A4C0007D3C91AA14200D92100D3180160436001
:101A5C0016BD00220121014808F0ACFB35B400088A
:101A6C00482210B50300007A5143114A002807D0D0
:101A7C0090681860814201D3081A586000201872CF
:101A8C001C68A14208D892680120A41AA14202D86D
:101A9C00012200201A7210BD916801208C42FAD8E4
:101AAC00516892688A1A59688A42F1D2F3E7C046A3
:101ABC0010E000E0030010B50400883318683221F0
:101ACC00421C1A600834FEF7E1FB002903D1E06FD9
:101ADC0003685B68984710BD10B50A1A02D0202124
:101AEC0008F07EFC10BD704703691B0603D5024B42
:101AFC004360024B4360704723016745AB89EFCDD0
:101B0C0001220369934303610223026913430361B6
:101B1C0080239B02C9184023890241610269134347
:101B2C0003617047F8B505005535040046692878FF
:101B3C00C0B2052839D8FEF719FB06001A00390087
:101B4C007300BC00EF00220058321378E118F05CEF
:101B5C00097E884200D0FAE00133DBB2192B00D9A0
:101B6C00002313705A425341543423701DE02069F2
:101B7C00C368DB0719D403691B0616D5FFF7B4FF3E
:101B8C00022123691A698A431A61012218690243E6
:101B9C001A61230058331A78013BB05C18701B781B
:101BAC00206D1B02134303802970F8BD2369DA688A
:101BBC009206FAD52022D9680A43DA608022196984
:101BCC000A431A6121002300583157331A780B78D5
:101BDC00E3181A76236D981C636B2065DA00A21843
:101BEC00566C7700166C2200F6195632B04203D0B0
:101BFC001378DBB22B70D8E70126E01838309B192C
:101C0C000670B34200D900236363DB00E3181B6C3E
:101C1C00236500230B7001332B7004331370C4E75E
:101C2C002069C368DB07C0D403691B06BDD523003C
:101C3C00210038331E003A31CA1A9210002A20DDD6
:101C4C001F78002F03D15F78002F0DD001339942FC
:101C5C0021D09B1BE363FFF747FFE36B3D4AD15C4D
:101C6C00FFF74EFF0423C5E79F78002F01D0023306
:101C7C00EDE7DF78002F01D00333E8E70433013AB6
:101C8C00DCE7CA1A022A0DD0032A07D0012A0ED18A
:101C9C001A78002ADBD156342378AAE71A78002A5E
:101CAC00D5D101331A78002AD1D10133F0E70B00DA
:101CBC00CDE72369DA68920600D476E72022D9684A
:101CCC00254E0A43DA60802219690A431A61E16BD6
:101CDC00CB00E3181A6C5B6C5B00D31810009342BA
:101CEC0018D00232971E3F88B742F7D061180A000D
:101CFC001B1A2600591E8B41200038323A361370BD
:101D0C0038303100FFF744FE0323864200D071E7E0
:101D1C0000236FE71800E9E72200583213780133EB
:101D2C00DBB2192B10D900231370260020003A3691
:101D3C0031003830FFF72CFE0323864200D10023FC
:101D4C002B705634002310E71370002BEDD00123B9
:101D5C0050E7C0461BB50008FFFF000010B5046833
:101D6C00002C05D0236820001B689847A468F7E76F
:101D7C0010BD10B583680400002B02D003220100B3
:101D8C009847200010BD000070B506000500040047
:101D9C00074BCD360833ED350360FF36FF35AE42C9
:101DAC0004D0103D2800FFF7E4FFF8E7200070BDD9
:101DBC0020C5000810B504000830FFF7CFFF2069DC
:101DCC006169431C2361FEF761FA002902D12000EE
:101DDC00FFF7C4FF10BD000010B50248FFF7EAFF83
:101DEC0010BDC0464408002041690269002391429D
:101DFC0001D343610133180070470000037B002BB3
:101E0C000DD00023426803738368002A0ED0002B88
:101E1C0008D0936083685A600023436083607047E6
:101E2C000B60F8E7044993604A60F5E70249002B20
:101E3C00F6D10B604B60EFE744080020002310B58F
:101E4C004361FFF7DBFF10BD037B002B0CD101338B
:101E5C000373064B5A684260002A00D090601A68DF
:101E6C005860002A00D118607047C0464408002012
:101E7C0010B5036804005A1CC3180260597200683C
:101E8C005021FEF703FA2000216010BD10B514217B
:101E9C0004000068FEF7FAF9002903D12031200074
:101EAC00FFF7E6FF14212068FEF7F0F9002901D0B6
:101EBC002021F4E7200010BD10B504002368002B8E
:101ECC0004D020212000FFF7D3FFF7E7200010BD3E
:101EDC0070B5040000200D00814202D00800FEF70E
:101EEC0033F920606560200070BD70B504000D00F2
:101EFC0000681421FEF744F90300142058435021C4
:101F0C004019FEF7C3F92000216070BD70B505685B
:101F1C002A00C4321368002B1AD02E001424C036A9
:101F2C00013B136033686868634313210360FFF758
:101F3C00DCFF2021FFF79CFF33686868013B5C43A2
:101F4C00336013210460FFF7D0FF7E21FFF790FF71
:101F5C0070BD70B505682A00C4321368022B1AD004
:101F6C002E001424C0360133136033686868634351
:101F7C0013210360FFF7B9FF2021FFF779FF3368C6
:101F8C00686801335C43336013210460FFF7ADFFD5
:101F9C007E21FFF76DFF70BD70B505682A00DC323D
:101FAC001368002B1AD02E001424D836013B136072
:101FBC0033686868634313210360FFF796FF2021A1
:101FCC00FFF756FF33686868013B5C4333601321AD
:101FDC000460FFF78AFF7E21FFF74AFF70BD70B5E2
:101FEC0005682A00DC321368032B1AD02E00142447
:101FFC00D836013313603368686863431321036078
:10200C00FFF773FF2021FFF733FF33686868013354
:10201C005C43336013210460FFF767FF7E21FFF7F9
:10202C0027FF70BD012302684068116983400B4390
:10203C00136170470123426810B510329340016858
:10204C000C6923430B6110BD036810B5040098693B
:10205C00FFF7F0FFC8216068FFF702FD0028F9D1F7
:10206C0023689869FFF7DEFFC8216068FFF7F8FC6A
:10207C000028F9D110BD70B504000D000368ED0007
:10208C001869FFF7D7FF23686068DA699B6AEB5819
:10209C001361FFF7D9FF23686068DA699B6A5D19E1
:1020AC006B681361FFF7D0FF6421A068FFF7D8FCC1
:1020BC000028F9D170BD000070B5437B0400012BE2
:1020CC0020D0002B02D0022B27D070BD4069FFF727
:1020DC00B1FF2069FFF7A6FF606B5021431C6363BF
:1020EC00FEF7D4F8114B8900256ACB58626AEB5C79
:1020FC00DB00D3181968E2695B681161E3620123A4
:10210C006373E2E78069FFF78DFFA069FFF792FF29
:10211C00E369E26A1A610223F2E78069FFF782FF42
:10212C00A069FFF787FF0023EAE7C046B4AF0008B9
:10213C0003684268012090409B681840431E9841F8
:10214C00C0B2704770B5002405002600EB6B1B78FD
:10215C00A34209DDA300EB181869FFF7E9FFA040C3
:10216C000643B6B20134F1E7AB6B1E8070BD10B5FF
:10217C000C1E03D0FFF756FF200010BDFFF75AFFCF
:10218C00FAE770B50600437A04000C36002B05D034
:10219C000023C16143723000FFF756FE3000FFF799
:1021AC0023FE0125002804D03000FFF747FE65729E
:1021BC000025280070BD0000F0B500278FB005ADDC
:1021CC0004000C22390009A805976F6008F008F983
:1021DC0001236B722B726B46374EEF61EE602F62F0
:1021EC000094019502940393049564212800FFF751
:1021FC00C8FF0028F9D12069FFF71CFF6069FFF7C1
:10220C0019FFA069FFF70EFFA26AE369D26968465D
:10221C001A61FFF719FF05212800FFF7B2FF00280C
:10222C00F9D1A26AE369D26968461A61FFF70CFF1B
:10223C0064212800FFF714FC0028F9D1A26AE36995
:10224C00D26968461A61FFF7FFFE32212800FFF7BA
:10225C0007FC0028F9D1A26AE369526968461A6141
:10226C00FFF7F2FE32212800FFF7FAFB0028F9D124
:10227C00282102A8FFF7FFFE0C2102A8FFF7FBFEA6
:10228C00062102A8FFF7F7FE012102A8FFF7F3FED3
:10229C00802102A8FFF7EFFE01212800FFF771FF54
:1022AC000028F9D101233034237008A8EE60FFF721
:1022BC00A5FD0FB0F0BDC046C8AC000810B50400B9
:1022CC005030FFF756FD20004030FFF752FD200044
:1022DC003030FFF74EFD20002030FFF74AFD200084
:1022EC001030FFF746FD2000FFF743FD200010BD26
:1022FC0010B50400072A19D1204B5B689B045B0FB7
:10230C001CD0042B1CD0052B1CD0063B5A1E934111
:10231C001B4A5B4213401B4A9B1807291AD808001A
:10232C00FDF71AFF121A1C1F21242629083A002334
:10233C00012AF2D8114B5B685B05E0E7124BECE726
:10234C00124BEAE7124BE8E7962189011800FDF7DA
:10235C0017FFA060200010BDE121F6E79621C9010E
:10236C00F4E7E121FBE796210902EFE7E121FBE726
:10237C0096214902EAE7E121FBE7C0460010024042
:10238C00E055BBFF4054890000A24A0400512502CD
:10239C0080A812010123C9B2890003398B4000685F
:1023AC001840431E9841C0B27047FEE7FEE7FEE7B7
:1023BC00FEE7FEE7FEE70000044B10B51868FFF7D8
:1023CC0024FB0122024B5A6110BDC046A407002019
:1023DC0000040140044B10B51868FFF716FB0222ED
:1023EC00024B5A6110BDC046AC07002000040140EE
:1023FC00044B10B51868FFF708FB0422024B5A6116
:10240C0010BDC046E407002000040140044B10B589
:10241C001868FFF7FAFA0822024B5A6110BDC04641
:10242C00EC07002000040140044B10B51868FFF7BE
:10243C00ECFA1022024B5A6110BDC046F407002082
:10244C0000040140FEE7FEE7FEE7FEE7FEE70000C2
:10245C0010B5144C63699B0603D5134B1868FFF732
:10246C00D4FA63695B0603D5104B1868FFF7CDFAF5
:10247C0063691B0603D50E4B1868FFF7C6FA636930
:10248C00DB0503D50B4B1868FFF7BFFA63699B0597
:10249C0003D5094B1868FFF7B8FAF8239B00636162
:1024AC0010BDC04600040140FC07002004080020B9
:1024BC000C080020140800201C080020FEE7FEE792
:1024CC00FEE7FEE7FEE7FEE7FEE7FEE7FEE7FEE7D8
:1024DC00FEE7FEE7FEE7000010B5174C63695B05ED
:1024EC0003D5164B1868FFF790FA63691B0503D5E3
:1024FC00134B1868FFF789FA6369DB0403D5114B9A
:10250C001868FFF782FA63699B0403D50E4B1868B1
:10251C00FFF77BFA63695B0403D50C4B1868FFF774
:10252C0074FA63691B0403D5094B1868FFF76DFA3D
:10253C00FC231B02636110BD00040140B4070020A2
:10254C00BC070020C4070020CC070020D4070020C3
:10255C00DC070020FEE7FEE7044B10B51868FFF718
:10256C0054FA034B1A685B6810BDC0462C08002057
:10257C0000380140044B10B51868FFF746FA034BBE
:10258C001A685B6810BDC046340800200044004047
:10259C00044B10B51868FFF738FA034B1A685B68E0
:1025AC0010BDC0463C08002000480040044B10B54C
:1025BC001868FFF72AFA0122024B5A6010BDC04678
:1025CC006C07002000000240044B10B51868FFF7A0
:1025DC001CFA1022024B5A6010BDC0467407002032
:1025EC0000000240044B10B51868FFF70EFA802269
:1025FC00024B52005A6010BD7C07002000000240C4
:10260C00044B10B51868FFF700FA8022024B5201F8
:10261C005A6010BD8407002000000240044B10B526
:10262C001868FFF7F2F98022024B52025A6010BD73
:10263C008C07002000000240044B10B51868FFF70F
:10264C00E4F98022024B52035A6010BD940700201B
:10265C0000000240044B10B51868FFF7D6F9802231
:10266C00024B52045A6010BD9C070020000002402F
:10267C0010221F4B19680A4307211A601A688A43F3
:10268C00110002220A431A6080221A4B5202196866
:10269C000A431A601A689203FCD5F0215A688A43DF
:1026AC005A605A68144911408022D2000A435A6079
:1026BC005A6812490A405A608022596852020A43E9
:1026CC005A605A680E491140E02252030A435A607C
:1026DC008022196852040A431A601A689201FCD5C8
:1026EC0003215A688A43110002220A435A60704738
:1026FC000020024000100240FFF8FFFFFFC7FFFF61
:10270C00FFFFC3FFF8B50123614A624F12681A42FA
:10271C0060D1614A61481168194204D16049136063
:10272C000160092141600423BA69F0211343BB61A4
:10273C000123BA6905681A43BA616A688A431100B1
:10274C00A0220A436A60574A574915681D4204D1B2
:10275C00534D13600D600A254D600423BA69534D27
:10276C001343BB610123BA690E681A43BA617268DC
:10277C0015408022D2002A434D4D72602E684D4A7E
:10278C001E4204D1464E2B60166008265660042566
:10279C000F24BB692B43BB6116687368A3439C462B
:1027AC000223644623437360434B0026FC335A6177
:1027BC00424A5E609A61424A9E60DA61414AD86040
:1027CC001A62414A19615A620722DD629A62012338
:1027DC002F4A13608023384EBA693400DB0113434F
:1027EC000822BB61FC34E3698025D96804200A43C4
:1027FC00DA600422D9680A43DA605A692A435A61BA
:10280C00402259690A435A61304B1856FFF7EEF8CB
:10281C0001237A692E4913437B611027236A2D48C3
:10282C001A683A431A6062689219DA60E2690432F3
:10283C009A601A682A431A601A680A401A601A6861
:10284C0002401A600222042019680A431A60224BC3
:10285C001856FFF7CBF8636A1D491A681D48BA432E
:10286C001A6062689219DA60E26904329A60FF2297
:10287C005A601A6815431D601A680A401A601A6873
:10288C0002401A602022196830000A431A60F8BD11
:10289C009003002000100240D8040020DC0400202B
:1028AC0000080140CC040020D0040020FFF0FFFF02
:1028BC00C0040020C4040020940300200000024047
:1028CC000038014044000240580002402C0800200F
:1028DC00FFF3FFFFFFFCFFFF84070020F8B5012387
:1028EC00704A714F12681A427ED1704A7049106852
:1028FC00184204D16F48136008600A204860102207
:10290C000120BB696C4C1343BB61BB690D6803436D
:10291C00BB616B681C40A0231B0123436B603025FB
:10292C00664B5C68AC432243654C5A602568654A2B
:10293C00054204D15F4D206015600B2555601024B5
:10294C00B86926002043B8611068BC698446012030
:10295C000443BC6164465C4D646825408024E401FA
:10296C002C4365466C6030255C68AC4334435C603A
:10297C00564C2568054205D1554D564E20602E60AB
:10298C000F266E600420BC69514D20430124B861B0
:10299C00286826008446B8692043B86158684E4CB4
:1029AC0004408020800420435860634680205B688C
:1029BC0080051B011B09034360464360474B002005
:1029CC00FC331A61464A58609A61464A9860DA614B
:1029DC00454AD9601A62454A5D615A6209229A6277
:1029EC00073ADA622F4B1E6080233C4EFA693400A2
:1029FC00DB0213430822FB61FC34E3698025D968B0
:102A0C0004200A43DA600422D9680A43DA605A695E
:102A1C002A435A61402259690A435A61344B185669
:102A2C00FEF7E4FF01237A69324913437B611027D7
:102A3C00236A31481A683A431A6062689219DA605C
:102A4C00E26904329A601A682A431A601A680A40CA
:102A5C001A601A6802401A600222042019680A439C
:102A6C001A60264B1856FEF7C1FF636A21491A6893
:102A7C002148BA431A6062689219DA60E26904323A
:102A8C009A60FF225A601A6815431D601A680A4042
:102A9C001A601A6802401A602022196830000A4332
:102AAC001A60F8BD3C020020001002408403002094
:102ABC008803002000100140FFF0FFFF00000140E0
:102ACC00780300207C030020FF0FFFFF6C03002025
:102ADC007003002000080140FFFFFFF840020020B7
:102AEC0000000240004800401C0002403000024040
:102AFC003C080020FFF3FFFFFFFCFFFF74070020E2
:102B0C0070B515000C1A04D001002200280007F043
:102B1C0054FC281970BD0300F0B5093387B001933C
:102B2C00036816000293029A019B05009A18037A17
:102B3C000C00002B27D013291CD814277F1A7F08D0
:102B4C00D7197B18100039000393FEF7C5FF311914
:102B5C003A003000FFF7D4FF0299019B1431591849
:102B6C000398FEF7B9FF286814305021FDF78EFB4F
:102B7C00296016E0080014384008301801001431A0
:102B8C00FFF7BEFFEFE75021029BC91A33190293DE
:102B9C00A1420BD919003000FFF7B2FF2B681C19AA
:102BAC002C60002328002B7207B0F0BD2700711891
:102BBC003000FFF7A5FF2B68503FFF18E41B3619B8
:102BCC003000019A5036502F04D93100FFF798FF8E
:102BDC00503FF5E70299FFF793FF2B68F818C4E70D
:102BEC0030B5050089B00A0005A8104907F004FDAE
:102BFC0005A901A8FFF76CF96C68019B9C4207D9E9
:102C0C00E41A013C04D320212800FFF731F9F8E73E
:102C1C0005A903A8FFF75CF90399049A2800FFF7AC
:102C2C007AFF002328006B6009B030BDF2B40008B5
:102C3C00F8B53022070006000500436898371A6083
:102C4C0088366C68B74204D002CE2000FFF7C8FF6C
:102C5C00F7E73C232360386850214430FDF716FB1E
:102C6C00200021605E21FFF703F9FFF70FF9F8BD93
:102C7C0070B50568290098310B689B00EB188833F8
:102C8C001A6801321A600C680A21A4002C198834C5
:102C9C002068FDF7E5FB28002160FFF7C9FF70BD38
:102CAC00006810B5010098310B689B00C31888337D
:102CBC001A68013A1A600B689B00C31888331A68AB
:102CCC00002A01DA09221A60FFF7B2FF10BDF7B52E
:102CDC000022436804001A60031DDD6F03272B00DC
:102CEC00052608330193E36F60681B78AB4215DD52
:102CFC00013529004760FFF773FF3A21FFF7B8F859
:102D0C0060686B1E4660A26F5B00995AFFF768FF04
:102D1C002021FFF7ADF8019B9D42E4D16068FFF7DD
:102D2C00CBF8F7BD006810B5021DD36F002B03D094
:102D3C00023BD367FFF7CBFF10BD006810B5021D37
:102D4C00D36FC16F1C00097808348C4203DA02334C
:102D5C00D367FFF7BCFF10BDF7B50025436804002F
:102D6C001D60036B1B789B070FD401234568164924
:102D7C002B726846FFF7ACF80099019A2800FFF710
:102D8C00CAFE6068FFF798F8F7BD836A1B88002BB2
:102D9C0004D1456801332B720C49EAE72E00042755
:102DAC00E36A1B78AB42ECDDA36A01221B882B4142
:102DBC00134205D06068A9184760FFF711FF013670
:102DCC00142EDED00135EBE704B5000810B5000871
:102DDC001A2337B5040040680360636B1978FFF75A
:102DEC00FFFEFFF753F8E36B1B78DB071CD53C2386
:102DFC00656845492B606846FFF76AF8019A0099A7
:102E0C002800FFF788FE022360684360E36A198894
:102E1C00FFF7E6FE05003D496846FFF759F80099B3
:102E2C00019A2800FFF777FE07216068FFF75DF82D
:102E3C00A36B05001B7836499B0700D535496846BE
:102E4C00FFF746F80099019A2800FFF764FEE36B40
:102E5C001B789B0717D5A36B60681B780A219B070F
:102E6C003DD5FFF742F803234360236B1988FFF726
:102E7C00B7FE050028496846FFF72AF80099019A21
:102E8C002800FFF748FE10216068FFF72EF8A36BAF
:102E9C0005001B781E49DB0700D520496846FFF763
:102EAC0017F8019A00992800FFF735FE3022636865
:102EBC001A60A36B1B785A06D20F15D1190713D4BD
:102ECC00590711D4646816496846FFF701F8009950
:102EDC00019A2000FFF71FFEFEF7D8FF37BDFFF762
:102EEC0004F810490500C6E7190702D564680E49B5
:102EFC00EAE7002A02D064680C49E5E75B07EDD5E8
:102F0C0064680B49E0E7C04600B4000803B400084D
:102F1C0093C9000890C7000807B40008FDB3000867
:102F2C0009B4000891C900080DB4000816B40008D3
:102F3C001DB40008F0B500254368061D1D60F36F35
:102F4C0089B00400AB4213D145685C4906A8FEF772
:102F5C00BFFF079A06992800FFF7DDFD0323606881
:102F6C0001254360A36F1978FFF73AFEFEF78EFF39
:102F7C00F36F012B13DC6768514906A8FEF7A8FF15
:102F8C00079A06993800FFF7C6FD022360680135E1
:102F9C004360A36F5978FFF723FEFEF777FFF36FBB
:102FAC00022B16DC6768474906A8FEF791FF0699C5
:102FBC00079A3800FFF7AFFDE36F2B211B78DA0778
:102FCC0002D49B0700D40231FEF752FFFEF75EFFDE
:102FDC000135F36F032B16DC67683B4906A8FEF737
:102FEC0077FF0699079A3800FFF795FDE36F2B21C1
:102FFC001B78DB0700D40231FEF73AFF0135FEF7F0
:10300C0045FF042D58D0F36F042B16DC67682F494D
:10301C0006A8FEF75DFF0699079A3800FFF77BFDBF
:10302C00E36F2B211B789B0700D40231FEF720FFA6
:10303C000135FEF72BFF042D3ED0F36F052B1EDD63
:10304C00F36F052B38DC6468214902A8FEF740FFBA
:10305C00039A02992000FFF75EFD04001D4904A8A5
:10306C00FEF736FF0499059A06A8FEF7D9FC0699D7
:10307C00079A2000FFF74FFDFEF708FF1CE067687A
:10308C00154904A8FEF724FF059A04993800FFF7A8
:10309C0042FD0700114906A8FEF71AFF0699079A88
:1030AC006846FEF7BDFC0099019A3800FFF733FD26
:1030BC00FEF7ECFE032DC3D109B0F0BD83B40008BC
:1030CC0090B40008A2B40008B3B40008C2B400085D
:1030DC00E5B40008ECB40008CEB40008D5B4000880
:1030EC00006810B5021DD36F002B01DD013BD367C7
:1030FC00FFF720FF10BD006810B5021DD36F022B27
:10310C0001DC0133D367FFF715FF10BD002370B549
:10311C0083608B6804000D00002B05D002229847B9
:10312C00EB68E360AB68A360200070BD002370B552
:10313C0083608B6804000D00002B05D00222984799
:10314C00EB68E360AB68A360200070BD70B5050050
:10315C000C00FFF7DBFF2800210010301031FFF7C7
:10316C00D5FF2800210020302031FFF7CFFF2800A9
:10317C00210030303031FFF7C9FF280021004030EA
:10318C004031FFF7D3FF2800210050305031FFF7BA
:10319C00CDFF280070BD002370B583608B680400E0
:1031AC000D00002B05D002229847EB68E360AB685A
:1031BC00A360200070BD836810B5002B01D107F00F
:1031CC0017F8C368984710BD10B500681830FFF7A2
:1031DC00F2FF10BD10B500686830FFF7ECFF10BDB2
:1031EC0010B500686830FFF7E6FF10BD10B5006839
:1031FC006830FFF7E0FF10BD10B500681830FFF71E
:10320C00DAFF10BD10B500681830FFF7D4FF10BD01
:10321C00006810B503009C331A68043B1B681A60E5
:10322C00030088331B68002B03D08030FFF7C3FFEB
:10323C0010BD7030FAE710B500687030FFF7BBFFB7
:10324C0010BD006810B503009C331A68043B1B6862
:10325C001A60030088331B68002B03D08030FFF703
:10326C00AAFF10BD7030FAE710B500687030FFF798
:10327C00A2FF10BD006810B5030098331A88043BF8
:10328C001B681A8003000833DB6F002B03D07C30E3
:10329C00FFF791FF10BD6C30FAE710B500686C3089
:1032AC00FFF789FF10BD036810B51A0098339432EC
:1032BC001B7812681370006803000833DB6F002B57
:1032CC0003D07C30FFF777FF10BD6C30FAE710B5F8
:1032DC0000686C30FFF76FFF10BD00681822030008
:1032EC00FC339B6D10B55343C0188030FFF763FF60
:1032FC0010BD10B500686830FFF75DFF10BD0368A6
:10330C0010B51A00983394321B7812681370006849
:10331C0003000833DB6F002B03D07C30FFF74BFF2F
:10332C0010BD6C30FAE710B500686C30FFF743FF46
:10333C0010BD036810B51A00983394321B781268CC
:10334C001370006803000833DB6F002B03D07C3054
:10335C00FFF731FF10BD6C30FAE710B500686C3028
:10336C00FFF729FF10BD036810B51A00983394328B
:10337C001B7812681370006803000833DB6F002B96
:10338C0003D07C30FFF717FF10BD6C30FAE710B597
:10339C0000686C30FFF70FFF10BD006818220300A7
:1033AC00F4331B6810B55343C0188030FFF703FF8C
:1033BC0010BD10B500686830FFF7FDFE10BD036846
:1033CC0010B51A00983394321B7812681370006889
:1033DC0003000833DB6F002B03D07C30FFF7EBFED0
:1033EC0010BD6C30FAE710B500686C30FFF7E3FEE7
:1033FC0010BD006810B503009C331A68043B1B68B1
:10340C001A60030088331B68002B03D08030FFF751
:10341C00D2FE10BD7030FAE710B500687030FFF7BF
:10342C00CAFE10BD006818220300C4331B6810B517
:10343C005343C0188030FFF7BEFE10BD10B50068B6
:10344C006830FFF7B8FE10BD006818220300DC33AB
:10345C001B6810B55343C0188030FFF7ACFE10BD8D
:10346C0010B500686830FFF7A6FE10BD836810B574
:10347C00002B01D106F0BCFEC368984710BD1FB5E8
:10348C000023694608300293FFF7F0FF6846FEF709
:10349C0070FC05B000BD30B50025040085B0694650
:1034AC0008300295FFF7E2FF6846FEF762FC200049
:1034BC00694618300295FFF7D9FF6846FEF759FCAC
:1034CC002000694638300295FFF7D0FF6846FEF7BA
:1034DC0050FC2000694628300295FFF7C7FF68466C
:1034EC00FEF747FC05B030BD30B50025040085B0B3
:1034FC00694608300295FFF7B9FF6846FEF739FCBC
:10350C002000694618300295FFF7B0FF6846FEF7B9
:10351C0030FC2000694638300295FFF7A7FF68465B
:10352C00FEF727FC05B030BD30B50025040085B092
:10353C00694608300295FFF799FF6846FEF719FCBB
:10354C002000694618300295FFF790FF6846FEF799
:10355C0010FC2000694638300295FFF787FF68465B
:10356C00FEF707FC05B030BD1FB5002369460830D7
:10357C000293FFF77BFF6846FEF7FBFB05B000BD2F
:10358C001FB50023694608300293FFF76FFF6846AA
:10359C00FEF7EFFB05B000BD30B50025040085B08B
:1035AC00694608300295FFF761FF6846FEF7E1FBBC
:1035BC002000694618300295FFF758FF6846FEF761
:1035CC00D8FB2000694628300295FFF74FFF68466C
:1035DC00FEF7CFFB2000694638300295FFF746FF17
:1035EC006846FEF7C6FB05B030BD30B500250400BB
:1035FC0085B0694608300295FFF738FF6846FEF73C
:10360C00B8FB2000694618300295FFF72FFF68467B
:10361C00FEF7AFFB2000694628300295FFF726FF26
:10362C006846FEF7A6FB2000694638300295FFF786
:10363C001DFF6846FEF79DFB05B030BD30B500257B
:10364C00040085B0694608300295FFF70FFF684605
:10365C00FEF78FFB2000694618300295FFF706FF36
:10366C006846FEF786FB2000694628300295FFF776
:10367C00FDFE6846FEF77DFB20006946383002955A
:10368C00FFF7F4FE6846FEF774FB05B030BD30B5AD
:10369C000025040085B0694608300295FFF7E6FE68
:1036AC006846FEF766FB2000694618300295FFF766
:1036BC00DDFE6846FEF75DFB20006946283002956A
:1036CC00FFF7D4FE6846FEF754FB200069463830FD
:1036DC000295FFF7CBFE6846FEF74BFB05B030BDFD
:1036EC001FB5074B00900393064B694608300293B5
:1036FC00FFF7BCFE6846FEF73CFB05B000BDC046BC
:10370C0005320008B70400081FB50400144B6946C5
:10371C000393144B009008300293FFF7A7FE684602
:10372C00FEF727FB2000104B694603930F4B183014
:10373C0002930094FFF79AFE6846FEF71AFB2000EE
:10374C000B4B694603930B4B383002930094FFF7F5
:10375C008DFE6846FEF70DFB2000FFF7B8FA1FBD83
:10376C00312D0008CD040008472D0008E3040008A3
:10377C00F9310008F90400087FB5294B04000393C4
:10378C00284B6946009008300293FFF76FFE68469D
:10379C00FEF7EFFA0022636823491A6065686846F1
:1037AC00FEF796FB28000525019A0099FFF7B3F95F
:1037BC0060684560A36A1988FFF712FA66681B49AE
:1037CC006846FEF785FB019A00993000FFF7A3F9D4
:1037DC0060684560A36A5988FFF702FA6668144965
:1037EC006846FEF775FB019A00993000FFF793F9D4
:1037FC0060684560A36A9988FFF7F2F966680D491D
:10380C006846FEF765FB0099019A3000FFF783F9D3
:10381C0060684560A36AD988FFF7E2F97FBDC046AE
:10382C00D5310008A905000898B30008A8B3000812
:10383C00B8B30008C8B300087FB50400284B69462C
:10384C000393284B009008300293FFF70FFE684655
:10385C00FEF78FFA2000244B69460393234B183054
:10386C0002930094FFF702FE6846FEF782FA2000EE
:10387C001F4B694603931F4B383002930094FFF79C
:10388C00F5FD6846FEF775FA20001B4B694603935D
:10389C001A4B283002930094FFF7E8FD6846FEF7B8
:1038AC0068FA00250123666815493372356068464D
:1038BC00FEF70EFB019A00993000FFF72CF9FEF78A
:1038CC00FBFA2300220088339832934201D020C3A4
:1038DC00FBE7032220001A60FFF7AAF97FBDC04660
:1038EC007D2C000851050008AD2C00086705000868
:1038FC00E13100087D0500085F3A000893050008D7
:10390C00F5B400081FB50400144B69460393144B1F
:10391C00009008300293FFF7A9FD6846FEF729FADC
:10392C002000104B694603930F4B18300293009400
:10393C00FFF79CFD6846FEF71CFA20000B4B69460E
:10394C0003930B4B383002930094FFF78FFD6846BE
:10395C00FEF70FFA2000FFF7EDFA1FBDED3000085F
:10396C000F0500080331000825050008ED3100089B
:10397C003B05000830B50400234B85B00393234B63
:10398C006946009008300293FFF770FD6846FEF719
:10399C00F0F965682900280059310930FEF79CF8C8
:1039AC0000232B6065681A4A2B6001332B72A36AC3
:1039BC0068461B789B009958FEF78AFA019A009981
:1039CC002800FFF7A8F81423656812492B60684695
:1039DC00FEF77EFA019A00992800FFF79CF8636BBA
:1039EC001978FFF7FDF8282364680B4923606846B3
:1039FC00FEF76EFA0099019A2000FFF78CF8FEF79B
:103A0C0045FA05B030BDC04611320008A1040008CB
:103A1C00FCB2000825B400082CB40008002370B5D3
:103A2C0083608B6804000D00002B05D002229847A0
:103A3C00EB68E360AB68A360200070BD07B58368DA
:103A4C000191002B01D106F0D3FBC36801A9984763
:103A5C0007BD006870B5020098321368013B136013
:103A6C00002B0DDA030000210A2588339A4203D07B
:103A7C00694310CB0919F9E77830FFF7DFFF70BD08
:103A8C00FFF7D6F8FBE7000070B50C000978FC30A6
:103A9C00826A4909C069FEF72BFC01212278C368B0
:103AAC005208154D0A402B4052021A43C26023782B
:103ABC00C2689B080B4011491B030A401343C360A7
:103ACC0023780269DB060E499B0F1B030A40134344
:103ADC0003612378DB070AD58023C268DB0013431C
:103AEC00C3608023C2689B011343C36070BDC3686D
:103AFC00044A1340F4E7C046FFFDFFFFFFEFFFFF52
:103B0C00FFCFFFFFFFFBFFFF002310B5FC300400CD
:103B1C00436083604069FEF78DFA0123216A0A68CD
:103B2C009A430A60626A116899431160FF215160DF
:103B3C00626A11680B4313601368DB07FCD5102312
:103B4C00E269D1680B43D36010BD10B58468236B58
:103B5C00FC33D96A9869FEF71DFC002805D0206B50
:103B6C00FFF7D2FF2000FEF76FF910BD10B5846887
:103B7C002369FC33D96A9869FEF70CFC002802D043
:103B8C002069FFF7C1FF10BD036842791B889A4278
:103B9C0001D20122827102799A4201D900238371E8
:103BAC008079704710B504000068FFF7EDFF61687D
:103BBC000B78002803D0202293430B7010BD0122F8
:103BCC009806C00F42402020520183431343F4E770
:103BDC0010B504000068FFF7D7FF61680B78002868
:103BEC0003D0102293430B7010BD0122D806C00FD6
:103BFC0042401020120183431343F4E70B7810B5B5
:103C0C000400002B0AD00068FFF7BEFF002804D187
:103C1C001023626811780B43137010BD1021426899
:103C2C0013788B43F8E70B7810B50400002B0AD0FF
:103C3C000068FFF7A9FF002804D1202362681178DF
:103C4C000B43137010BD2021426813788B43F8E7A7
:103C5C00FF23F0B51D00064F064E0C7801315C4079
:103C6C003B5D6B40355D8A42F7D105704370F0BD0A
:103C7C00F4B00008F4B1000810B504000CC90CC075
:103C8C00FFF789FA200010BD70B504001D00134B1E
:103C9C004160036011000830FFF758FA200029003A
:103CAC006830FFF778FA200004997830FFF7E4FFCA
:103CBC00200005999030FFF7DFFF20000699A8300F
:103CCC00FFF7DAFF20000799C030FFF7D5FF22007D
:103CDC000023D83220001360536070BD4CAD000837
:103CEC0082B0F8B5040007930AAB18780BAB2071BF
:103CFC0020001B780F4F63712760A1600C301100FE
:103D0C00099EFFF723FA20000C996C30FFF743FA59
:103D1C0020000D997C30FFF73EFA230007AD8C3361
:103D2C0006CD06C31E60327820001A71F8BC08BCA0
:103D3C0002B0184788AD0008F7B501217C4A7D4CCC
:103D4C001368A4460B4004D165467B4C6B602C6019
:103D5C0011600422794B0F259969114399616146D1
:103D6C000C682168A9430A432260012274490C683B
:103D7C00144204D1734D704C6A602C600A600422AA
:103D8C0099690A43F0219A616E4A146822688A4341
:103D9C00110040220A43226001246B490D68254220
:103DAC0005D1654D694A0C601560022555600421EA
:103DBC009C69664A214399611568654C29680C40D9
:103DCC008021C900214329600125624C6249266883
:103DDC002E4204D1584E25600E6003264E600427F7
:103DEC009C695E4D3C439C610E6834682540802480
:103DFC00E4012C4334600126594D5A4C2A68324256
:103E0C0003D14D4A676022602E6004259E693543BC
:103E1C009D61276880243D68534EE40235402C4355
:103E2C003C600127514D00962A68514C3A4204D10E
:103E3C00414E2F6026600526666004259E69354339
:103E4C009D61276880243D684A4EE40335402C432D
:103E5C003C600127484D01962A68484C3A4204D1EF
:103E6C00354E2F6026600626666004259E69354314
:103E7C009D612668424D346825408024E4042C431F
:103E8C00012534603F4C22682A4204D107273E4E5C
:103E9C00294A256084C604279C6980253C439C6183
:103EAC00394CED0526683468BC40FC402C4334602A
:103EBC000126364D364C2A68324203D1354A6760AA
:103ECC0022602E6010259E6935439D6125688024F3
:103EDC002E68009AE402164026432E6001252E4CD3
:103EEC0022682A4204D105272C4E2A4A256084C612
:103EFC00102480269D69F6032C439C61274B019A64
:103F0C001C68256815402E4326600360204B816198
:103F1C0043601D4B8360194BC360154B0361114B00
:103F2C0043610A4BC361074B036263464362FEBDA8
:103F3C002001002024010020000801400010024054
:103F4C001401002018010020080100200C010020A1
:103F5C00FFF0FFFFFC00002000010020FF0FFFFF1F
:103F6C00F0000020F4000020FFFFF0FFE400002030
:103F7C00E8000020FFFF0FFFD8000020DC0000202D
:103F8C00FFFFFFF0CC000020D0000020C00000207C
:103F9C00C400002000100140B4000020B800002034
:103FAC00F0B501258BB0070068460E00FFF7C4FE84
:103FBC00124C23682B401ED111484360836003735D
:103FCC00104B87630360099BC6630361089B4361C5
:103FDC00079B8361069BC361059B0362049B436241
:103FEC00039B8362029BC362019B0363009B43633D
:103FFC00FDF72AFF256002480BB0F0BD8C010020B4
:10400C009001002050AE00080300FC339A68FE2A91
:10401C0003D881549A6801329A60704710B5FC300D
:10402C0004004069FDF7FEFF1021E269D3688B4361
:10403C00D3600122616A0B6893430B60216A0B68A1
:10404C0093430B60A3686068216A1B1A02339BB20E
:10405C004B60236A19680A431A601A68D207FCD5A8
:10406C0010BDF7B5002203690400FC335A609A6056
:10407C000E00431D871D012921D1D97F0069FFF74F
:10408C00C3FF8023F97F1943FFF7BEFF3100FFF711
:10409C00BBFF216901AD0B00FC339A685B688A1881
:1040AC002800C918FFF7D4FD69782069FFF7ACFF29
:1040BC002978FFF7A9FF2069FFF7B0FFF7BD80252E
:1040CC000069D97F6D42022E05D1FFF79DFFF97F64
:1040DC002943C9B2D8E7FFF797FFF97F2943C9B243
:1040EC00FFF792FF0321D2E7020010B5FC325368B0
:1040FC00946800219C4202D9591C5160C15C080093
:10410C0010BD73B56B4604001A0060CC60C20A0087
:10411C0030CA30C005CB05C173BD70B505000C00AD
:10412C00FFF7EFFFAB68A268AA60A360E268EB68D8
:10413C00EA60E36070BD1FB504006846FFF72BF81A
:10414C0021006846FFF7E9FF6846FDF712FE2000E4
:10415C0004B010BD10B54430FFF7EDFF10BD10B525
:10416C003430FFF7E8FF10BD10B52430FFF7E3FF44
:10417C0010BD10B51430FFF7DEFF10BD10B5443084
:10418C00FFF7D9FF10BD10B53430FFF7D4FF10BDC9
:10419C0010B52430FFF7CFFF10BD10B51430FFF76A
:1041AC00CAFF10BD10B54430FFF7C5FF10BD10B5E8
:1041BC003430FFF7C0FF10BD10B52430FFF7BBFF44
:1041CC0010BD10B51430FFF7B6FF10BD10B534306C
:1041DC00FFF7B1FF10BD10B53430FFF7ACFF10BDC9
:1041EC0010B54430FFF7A7FF10BD10B54430FFF7F2
:1041FC00A2FF10BD10B52430FFF79DFF10BD10B508
:10420C001430FFF798FF10BD10B52430FFF793FF63
:10421C0010BD10B51430FFF78EFF10BD30B5002364
:10422C00040089B0080069460293FFF776FF236803
:10423C0069469C6F04A823689D68FEF7ACFF04A92F
:10424C002000A84704A8FDF794FD6846FDF791FDF2
:10425C0009B030BD30B50023040089B008006946B0
:10426C000293FFF75AFF236869461C6F04A8236862
:10427C009D68FEF790FF04A92000A84704A8FDF74D
:10428C0078FD6846FDF775FD09B030BD30B50023EB
:10429C00040089B0080069460293FFF73EFF2368CB
:1042AC0069465C6F04A823689D68FEF774FF04A937
:1042BC002000A84704A8FDF75CFD6846FDF759FDF2
:1042CC0009B030BD30B50023040089B00800694640
:1042DC000293FFF722FF236869469C6F04A82368AA
:1042EC009D68FEF758FF04A92000A84704A8FDF715
:1042FC0040FD6846FDF73DFD09B030BD30B50023EB
:10430C00040089B0080069460293FFF706FF236892
:10431C0069469C6F04A82368DD68FEF73CFF04A97E
:10432C002000A84704A8FDF724FD6846FDF721FDF1
:10433C0009B030BD020010B5FC32536894689C4241
:10434C0004D95C1C5460C35C0B7010BD0023FBE7EC
:10435C00020070B5FC3253689268013304000D0002
:10436C009A420BD9FFF7C0FE06002000FFF7BCFEF7
:10437C003602C0B230432880200070BD00230B8071
:10438C00FAE7026BF0B51100C36BFC3104001D6839
:10439C0048682B79165C85B09E420DD00922A8691D
:1043AC002B181A7501300321FCF75AF8A961E36D3B
:1043BC000133E36505B0F0BD8B681E1A022E38D9A7
:1043CC000027984202D2013B8B60D75C216B002006
:1043DC000A00FC32019093685068834203D9013B78
:1043EC009360CB5C0193216B03AE0B00FC339A689A
:1043FC005B688A183000C918FFF72AFC3378BB4277
:10440C0017D17378019A934213D1206BFFF76CFE8E
:10441C0002ABDF1C3900206BFFF78CFF3B787F2B46
:10442C000BD93100206BFFF785FFA86932782B1868
:10443C00B7E7A86910222B18B3E72B7A032BB9D155
:10444C003100206BFFF776FFE968206BFFF780FFE8
:10445C00B0E770B50C000500090AFFF7D5FDE1B215
:10446C00FFF7D2FD280070BD0B1A1B11002B18DDB5
:10447C000268127C002A04D04268127C002A01D106
:10448C00043070478268127C002A01D10830F8E7AA
:10449C00C268127C002A01D10C30F2E71030013BCB
:1044AC00E4E70B1A9B10022B0ED0032B07D0012B29
:1044BC0003D103681B7C002BE3D00800E1E7036801
:1044CC001B7C002BDDD0043003681B7C002BD8D068
:1044DC000430EEE773B5437B0400012B06D0002BB0
:1044EC0000D17EE0022B00D1A7E073BD05000023B4
:1044FC003035C06B1A1C2900FFF7B6FFE06385420C
:10450C0003D123001033E363EFE70026236B056828
:10451C00FC335E609E602979206BFFF775FD297A6C
:10452C00206BFFF771FD3100206BFFF76DFDA97952
:10453C00206BFFF769FD2B7A032B01D0102B30D1A8
:10454C000021206BFFF760FD0121206BFFF75CFD64
:10455C002B7A102B07D10021206BFFF755FDEB6850
:10456C001978FFF751FDFD222B7AD91E114225D166
:10457C002B6801AE1B682900300098477178206BBE
:10458C00FFF742FD3178FFF73FFD0025E36C6565D1
:10459C006364236E206B01332366FFF73FFD657365
:1045AC00A3E7052BD4D1EB68206B19884B1E9941DE
:1045BC004942C9B2FFF728FD3100C6E7102BE4D100
:1045CC00216B01AD0B00FC339A685B688A182800DC
:1045DC00C918FFF73DFB6978206BFFF715FD2978AB
:1045EC00D1E7036BC16CFC339A685B68D31A426DDC
:1045FC009A4200D24164256CA94210DC1222E36B72
:10460C0003211E68B06933181A750130FBF728FFB7
:10461C00E36DB1610133E365022325656373636C5C
:10462C00ED1AA36C9D4200DA5FE72000FFF7A9FEAC
:10463C00236C23650223637357E7036C026D093BFC
:10464C00934200DC51E700230364FDF7D7FBE36BD7
:10465C000433E3630123EEE7F0B5354C1A22A5448D
:10466C005AAE0021300005F0BBFEA523DB003381E0
:10467C00802300225B00B381EC3BF373113B33745A
:10468C002C4B68AC083368932B4B802023612B4B4D
:10469C00800023647C937DAB1A70D6236064E06445
:1046AC00FF3308A81B181A70EB2325495B00F18017
:1046BC000891FF211B18234D1A707EAB6260A2601B
:1046CC00227362632287E263A5641A706661A31881
:1046DC00013219761A2AFAD1002161A805F080FE60
:1046EC002069FDF701FA002778AD6B6861A85A00C4
:1046FC002B689B1807932B68079A9A420ED019784F
:10470C00192907D85A7861180A7601221978425467
:10471C000233F1E719880C4A9142F9D17C932A684B
:10472C009A4213D167630835012F25D00127DCE7A6
:10473C0054E7FFFF2CC500080020024000FC0108D4
:10474C000137000000F80108FFFF0000696849000C
:10475C005218934201D102F0E6FEBF2308AA5B0077
:10476C009B181900676361A8FDF7E4F8BF2308AA3A
:10477C005B009B189842D6D1636BDA00A218516C7F
:10478C00126C49005218216D91420BD1F14A08A9C3
:10479C005218D318F04A9B1801221A700023636335
:1047AC00789B7C93BF2508AB6D00ED18290061A8A0
:1047BC00FDF7C0F80790A84201D002F0BAFE1A2209
:1047CC006EA9606905F0F0FD0023EB2108AA4900F1
:1047DC0052181370DC2208AB52009B181B78002B6C
:1047EC0014D1636B002B11D0636CDC485A00789B9E
:1047FC009A181900934201D002F0A7FE8A1A511E92
:10480C008A41DC2108AB49005B181A70BA2208AB4C
:10481C00FF329B181B78002B19D1636B012B16D020
:10482C00E36C7A9A5B00CD48D3181100934201D106
:10483C0002F094FE0232971E3F888742F5D05B1A35
:10484C00BA215A1E9341FF3108AA52181370DD2762
:10485C0008AB7F00FF18390076A8FDF799F8B8422D
:10486C0005D0D62308AAFF339B1803221A70802385
:10487C00226911690B431361079BAB4210D01A22BA
:10488C000021300005F0ACFD089BF380A523DB0074
:10489C00338180235B00B381EC3BF373113B3374A6
:1048AC0001272000FDF7D0FAB37908AA0793738883
:1048BC009383FDF727FFAA4EAA4C35683D4054D18F
:1048CC00A94B079A08332360A84B2061A361631D91
:1048DC00DA7723002C331D70A54BA6480833A3634D
:1048EC00A5496560A5602573E56324646061E56195
:1048FC002562E584258565852586FDF77BF89F4B2C
:10490C009F4908336364A069A564E464FDF772F8F9
:10491C00200026222900503005F062FD2000842260
:10492C0029005200763005F05BFD20007F302622F6
:10493C002900FF3005F054FD2000A5302622290067
:10494C00FF3005F04DFDEA2320005B00E550ED3013
:10495C00103313222900E550FF3005F041FD894A40
:10496C0089492000376005F01AFC08AB1B7F1F2219
:10497C00190091431B3A002908D0013A202905D08F
:10498C003C329343403B5A425A4101320FA92069B1
:10499C002262FFF779F82069FFF7B6F803260A2799
:1049AC0011940024FFADFFAB44356033FFA82F7189
:1049BC00EB6032002100EC802E722C74583005F024
:1049CC000FFD724BFFAA44321360FFAB4933DF7704
:1049DC000123EB84FFAB6C331E70FFAB8033EB62B7
:1049EC00FFAB7433FFA81C7032002100AC61AC83A8
:1049FC00783005F0F5FC0B22654BFFA82B62FFAB62
:104A0C0088331A70FFAB4C33023ADA87FFAB8C3326
:104A1C001E70A030FFAB9433E864FFA81C7032000A
:104A2C002100AC63AC87983005F0DAFC0B22594BB3
:104A3C0008A82B64584B2100C018FFABA8331A7080
:104A4C00FFABAA331F80FFAB0480AC33FFA81E70F2
:104A5C00C030FFABB433E866FFA81C703200AC6505
:104A6C00B83005F0BDFC0C224C4B08A82B664C4B07
:104A7C000137C018FFABC8331F70FFABCA331A80A5
:104A8C00FFAB0480CC33FFAAFFA81E70D032E030FD
:104A9C00FFAB1060D433FFA81C7032002100AC6750
:104AAC00D83005F09DFCFFAADC321460FFAB3D4A08
:104ABC004833DA67FFABE8331F70FFABEA331C8077
:104ACC00FFAB05373848EC331F7008AA374B121868
:104ADC00FFA8F0306B440360FFABF433FFA81480E5
:104AEC001C7032002100F83005F07AFC0B220121F9
:104AFC00FFA8FC3004602E4BFFA8E43003602D4B64
:104B0C0008A8C0182C4B04806B441A702B4B2748F8
:104B1C006B441980A123DB006B441F70284B08AA3F
:104B2C0080186B441860A2232648DB006B441C7071
:104B3C0032002100684405F053FCA320C0006844F7
:104B4C000460A020204BC00068440360174B08A8E9
:104B5C00C0183BE08818000030E9FFFFFFFF0000A1
:104B6C00E80400206805002020C500088407002008
:104B7C005CC500082C080020A005002050C50008CA
:104B8C00AC05002000000020951D00085CAE00085C
:104B9C0068AE000874AE00087C04000080AE00080B
:104BAC009C0400008CAE0008BC040000FC04000057
:104BBC0098AE0008DC0400000405000006050000A7
:104BCC000C05000014050000A4AE0008F44B08AA64
:104BDC009B180B221A70F34B08AA9B1817221A80E9
:104BEC00A12308AADB009B180480EF4AEF481F7032
:104BFC0008ABD218C018A2231060DB0008AA9B18BF
:104C0C00EB481C7008AB32002100C01805F0E8FB23
:104C1C00A32208ABD200D2181460A02208A9E34842
:104C2C00E44BD200521813600A18A62040001480DE
:104C3C000A18128801210892DF4A1268170007929D
:104C4C000F40A74200D09FE0FDF748FE089A08AB42
:104C5C00DA4C1A84DA4B0790236001236373D94B27
:104C6C0067606363D84BA760A36323001033E363CF
:104C7C0013062773206327645B0F0422002B09D0D3
:104C8C003200012B06D0043206331340063A93420D
:104C9C0000D801326423E364230000272100583339
:104CAC001F70CA4B64316366C648A766E466A2648B
:104CBC00E76527652766FCF79DFE2100C44B703124
:104CCC002367A06B6767A467FCF794FEA42308AA6C
:104CDC00DB009B181F60A423DB009B18290012A883
:104CEC0013931294FBF77BFC082212A914A805F06D
:104CFC005BFBFFA9643114A8FBF771FC082214A913
:104D0C0016A805F051FBFFA9843116A8FBF767FC28
:104D1C00082216A918A805F047FBFFA9A43118A86A
:104D2C00FBF75DFC082218A91AA805F03DFBFFA9AA
:104D3C00C4311AA8FBF753FC08221AA91CA805F0C9
:104D4C0033FBFFA9E4311CA8FBF749FC08221CA982
:104D5C001EA805F029FBA021C90069441EA8FBF779
:104D6C003EFC08221EA920A805F01EFBA02108ABC2
:104D7C00C900C91820A8FBF732FC10A90798FEF748
:104D8C0083FE01238C4A1360A4210824119B490043
:104D9C00763308AA1C805218119B128878331A801B
:104DAC00023108AA119B521812887A331A800431E6
:104DBC0008AA52185221119B12787C3311981A8030
:104DCC00FF3108ABC9180222883005F0EDFAD22366
:104DDC000F21119A5B00D1520122FF201199243B23
:104DEC00CA5211992633C85211991C3BCA521199B7
:104DFC002633F538C852002376497FAE7F91764929
:104E0C00B36071607549F360086833747374F3614F
:104E1C00F362F363F364F365714B104203D1714891
:104E2C005C6018600A6008226F4F0025B9699CAC61
:104E3C000A430F21BA61186842688A4311000422A0
:104E4C000A434260012073669BAB1D70674B08AA36
:104E5C009B18F06680A81D70B566FCF7F5FF012065
:104E6C00634B644A9C931168634BA5606360E56077
:104E7C0025746574E561E562E563E564E5650697AF
:104E8C005E4B014204D157491060196009215960E9
:104E9C00069A0025916908220A4306998A61F02135
:104EAC00186842688A43110040220A4342606366D4
:104EBC000123E366B8AB1D70514B08AA9B189DA843
:104ECC00A5661D70FCF7C0FFD594A4244D4AB9AB60
:104EDC00B9924D4A08A9BA92D3AA15704B4A1D74BF
:104EEC005218BAA81570BB95BC95C095C495C895B9
:104EFC00CC95D095D295D496FCF7A6FF119BE400E7
:104F0C007633079308ABE4184149424B424808AA50
:104F1C000833891880186560A56025732561656163
:104F2C0025762360FCF7D8FD01223C4B3C481B68DE
:104F3C003C498446134200D0CBE03B4B013518680A
:104F4C003A4A284204D13A481D6010600C20506047
:104F5C00069B986910230343069883611268354BAE
:104F6C005068184080239B02034301205360324A4F
:104F7C00324B1568054204D1314D10601D6002257D
:104F8C005D60069A906920220243069882611A6835
:104F9C002C4B1068184080239B000343136053E094
:104FAC0004050000060500000C0500001C050000AF
:104FBC0014050000B0AE0008E4040020EC0400204E
:104FCC00D4AE00083C08002074070020BCAE0008DA
:104FDC00C8AE0008E0AE000800AF0008F4010020E5
:104FEC00F8010020000C0140001002404D020000AE
:104FFC000CAF0008E80100202CAF0008EC010020E9
:10500C00C102000038AF000858AF00082D030000A3
:10501C008905000038C50008390500002C01002066
:10502C00FFFFFFF8000001408001002084010020F8
:10503C0000100140FFFFF0FF7401002078010020F8
:10504C0000140140FFF0FFFF0122F54B18681042DD
:10505C0004D10327F348F44D1A60A0C0069BF14D10
:10506C009A6908231343069A93610122069B2868C8
:10507C009B691343069A936163464A681A408023DE
:10508C009B0413434B600268E84B1A4080239B013E
:10509C0013430360E648E74B08301860E6489D610F
:1050AC001861E64808AD5861DF480022D861E44831
:1050BC005A6040191862E3489A605862E2481A73C1
:1050CC009862180030305A7302705A63DF4B013209
:1050DC001A600120DE4ADF4B1568054204D1D24D1F
:1050EC0010601D6004255D60069A906908220243D9
:1050FC00069882611868069B069D9A6901231A43DB
:10510C00AA6162464D681540802292042A434A6087
:10511C000168D14A1140802292020A43CF490260B1
:10512C000868CF4A184204D1BF480B6010600520B4
:10513C005060069B996908230B4306998B61116893
:10514C00C84A0B681A4080239B0313430B60012150
:10515C00C54BC64A1868084204D1B34819601060A0
:10516C0006205060069B996908230B4306998B61B6
:10517C0080231068BE4902689B040A4013430360F5
:10518C000120BC4B0A911968BB4A014204D1A649C3
:10519C001860116007215160069BA64D9969082380
:1051AC000B43069928008B618021126889051368CE
:1051BC001B011B090B431360FCF7FEFF2B7B002B21
:1051CC0024D101332B73AD4BDA686A60002A00D00E
:1051DC0095609A68DD60002A00D19D600221012251
:1051EC005961A74B186890431860A6485860002076
:1051FC0098601868844604206246104301221860A7
:10520C0018680143196019680A431A609CAB6367FC
:10521C00B9ABA3675AABE367B42308AADB009B18AE
:10522C00079A08A91A60984B08AA9B18974A22A8B3
:10523C0052181360B5230022DB005B181A60944BE4
:10524C0026A92993934BE566266726942893FDF7A8
:10525C005DFF914B30A93393904B2AA83094329335
:10526C00FDF754FF8E4B3CA93F938E4B36A83C94D4
:10527C003E93FDF74BFF8C4B48AE4894F3608B4B41
:10528C00310042A8B360FDF741FF894B54AD5494F3
:10529C00EB60884B29004EA8AB60FDF747FF864BAF
:1052AC00F3A9F693854BD6A8F394F593FDF73EFF3F
:1052BC00834B08AA9B1822A91800FDF727FF8148E9
:1052CC0008AB2AA9C018FDF721FF7F4808AB36A907
:1052DC00C018FDF71BFF7D4B08AA9B1842A91800AC
:1052EC00FDF714FF7A4808AB4EA9C018FDF71EFF56
:1052FC00784808ABD6A9C018FDF718FFD6A8FCF75C
:10530C0038FDF3A8FCF735FD4EA8FCF732FD28005C
:10531C00FCF72FFD42A8FCF72CFD3000FCF729FD13
:10532C0036A8FCF726FD3CA8FCF723FD2AA8FCF7C1
:10533C0020FD30A8FCF71DFD22A8FCF71AFD26A8BD
:10534C00FCF717FD644B5494EB60644B29004EA89A
:10535C00AB60FDF7DBFE624BF3A9F693614BD6A86D
:10536C00F394F593FDF717FFE36F08AA0893B423A2
:10537C00DB009B181B68444907935B4B89180B6037
:10538C00C223A621DB00C90058489B188918196054
:10539C0080184EA9FDF7BAFE554808ABD6A9C0181F
:1053AC00FDF7F9FE534B08AA9B18002208991A63C3
:1053BC000E3199610799D6A80A31D961079908AFBE
:1053CC000E311962079912315962079908319962A5
:1053DC0008991031D962FCF7CCFCF3A8FCF7C9FC96
:1053EC004EA8FCF7C6FC2800FCF7C3FC344B08AAFB
:1053FC009B181900F3A8FDF7A9FE3F4B42A9459352
:10540C003E4B3CA842944493FDF7C5FE06234893BB
:10541C003B4B0C2173603B4B4A94736174E0C04668
:10542C00680100206C010020000C0140FF0FFFFF01
:10543C0044C50008300100208401002078010020C0
:10544C003905000020B5000820BD00082C01002003
:10545C00A8000020AC000020FFFFF0FF9C00002003
:10546C00A0000020FFFF0FFF900000209400002000
:10547C00FFFFFFF08400002088000020440800207B
:10548C0010E000E09F8C00000C060000A40500005A
:10549C0061420008FF050008994200081506000843
:1054AC00D14200082B0600080943000841060008F9
:1054BC0085790008570600084D7900086D0600082C
:1054CC00AC050000BC050000CC050000DC050000AC
:1054DC00EC050000FC0500002942000883060008CA
:1054EC00E712000899060008D4AC00081406000066
:1054FC00240600001C060000F9120008AF06000884
:10550C0068C5000809130008FD4B0A203361092304
:10551C004E93FC4B54914F93FB4BD6905393FB4BB8
:10552C00D6A85293FA4B50946B60FA4B56946B611D
:10553C00F94BD8942B61F94B08A9D793F84BDB9313
:10554C00F84BDA9303904EA80190F3A80200A62022
:10555C00C00040180100CA20C0003CAB0295009668
:10556C00C019FEF791FBD8A8FCF703FC56A8FCF772
:10557C0000FC50A8FCF7FDFB4AA8FCF7FAFB3CA882
:10558C00FCF7F7FB42A8FCF7F4FBF3A8FCF796FE3C
:10559C00E54808ABC0180100F3A8FDF7D7FDE34BB5
:1055AC004894F360E24B310042A8B360FDF7F3FD81
:1055BC000F234E93D693DF4BDF49D793DF4B12204B
:1055CC00DB93DF4BDF4ADA9384239B00E150A62167
:1055DC004F92DD4A54905392DC4AC9005292DC4AF5
:1055EC0004336A60DB4A50946A61DB4A08AF2A6173
:1055FC0008AA8918E150E723DB009B18F3A91800CF
:10560C00FDF7A4FDF32308AADB009B1842A91800A0
:10561C00FDF7C1FDF52308AADB009B184EA9180065
:10562C00FEF72AFBF82308AADB009B1829001800B8
:10563C00FEF722FBFB2308AADB009B18D6A9180057
:10564C00FEF71AFBB42300229B00E2500433E25015
:10565C00D8AB1800FCF78DFB56AB1800FCF789FB98
:10566C0050AB1800FCF785FB42AB1800FCF781FB34
:10567C003000FCF77EFBF3AB1800FCF71FFEB74BBA
:10568C0008AA9B1819002800FDF740FD4EAB290015
:10569C001800FDF73BFDB24BF3A9F693B14BF39415
:1056AC00F593D6AB1800FDF776FDB42308AADB0002
:1056BC009B181B68A6210793B623AB4A9B00E250AC
:1056CC00C90008AA89180433E15080231B019B18D8
:1056DC004EA91800FDF71AFD812308AA1B019B187F
:1056EC00D6A91800FDF757FD079B16331A00C023E7
:1056FC009B00E250079B12331A00C1239B00E2501F
:10570C00079B08331A00C2239B00E250D6AB18004B
:10571C00FCF72FFBF3AB1800FCF72BFB4EAB180080
:10572C00FCF727FB2800FCF724FB7F4B08AA9B18EF
:10573C001900F3AB1800FDF709FD8C4B4894F3608E
:10574C008B4B3100B36042AB1800FDF724FD1220E7
:10575C00884B54904F93884B11215393874BD69180
:10576C005293874B74496B60864B56946B61864B96
:10577C0008AA2B61854B4E90D793854B5094DB93A5
:10578C00844BD894DA93C3239B00E150A621C90023
:10579C0089180433E150804BF3A99B181800FDF7CE
:1057AC00D5FC7E4B08AA9B1842A91800FDF7F3FC08
:1057BC007B4B08AA9B184EA91800FEF75DFA794B93
:1057CC0008AA9B1829001800FEF756FA764B08AA6F
:1057DC009B18D6A91800FEF74FFAF32300229B0062
:1057EC00E2500433E250D8AB1800FCF7C2FA56ABC7
:1057FC001800FCF7BEFA50AB1800FCF7BAFA42AB33
:10580C001800FCF7B6FA3000FCF7B3FAF3AB18004B
:10581C00FCF754FD444B08AA9B181900F3AB180075
:10582C00FDF794FC614BD6A9D993614B2800D69413
:10583C00D893FDF7B0FCB42308AADB009B181B68B7
:10584C00A6210793F5235B4A9B00E250C90008AAE6
:10585C0089180433E150584BF3A99B181800FDF735
:10586C0075FC564B08AA9B1829001800FDF793FCF1
:10587C00079A534B2C32E250079A04331232E250FF
:10588C000022504B2800E250FCF773FAD6AB1800FC
:10589C00FCF76FFAF3AB1800FCF710FD8B2301211A
:1058AC00DB00E150204B08AA9B181900F3AB180041
:1058BC00FDF74CFC42AB44491800FCF709FB434B89
:1058CC0030005193424B4E9450934EAB1900FDF760
:1058DC0062FC404B2800D9933F4BD694D893D6AB5F
:1058EC001900FDF758FC429B3C4A0893439B01214D
:1058FC0007933B4BE250A6220433E15072E0C046C2
:10590C00C50600086FC500081B130008DB0600085D
:10591C0079C500082D130008F106000886C500089B
:10592C004113000807070008AC05000055130008D8
:10593C001D070008B4C5000860AD0008F31A000884
:10594C005507000891C500086713000833070008C5
:10595C00A1C50008490700084B070008DC0500003A
:10596C00791300085F070008E8AC00088B130008E7
:10597C0075070008C4C500089D1300088B070008B4
:10598C00D7C50008AF130008A1070008EAC5000836
:10599C00C9130008B7070008340800009408000079
:1059AC00A4080000BC080000D4080000ED13000897
:1059BC00CD070008FCAC0008FC0800005C090000E6
:1059CC004C04000054040000FCC50008FF13000840
:1059DC00E307000801190008F907000874AD000876
:1059EC005C040000FE4BD200E15008A952180433AD
:1059FC00E250F3AB1900FB4B08AA9B181800FDF7FB
:105A0C00A5FBF94B08AA9B1831001800FDF7C3FB46
:105A1C00F64B08AA9B1829001800FDF7BCFBF44BA9
:105A2C0008AA9B18089A08A91A60A12308AA1B01A6
:105A3C009B18079A28001A60EE4AEF4B5218E25056
:105A4C00EC4A043352181268E250D6ACFCF791F9C8
:105A5C002000FCF78EF94EAC3000FCF78AF92000E0
:105A6C00F3ACFCF786F92000A424FCF727FCE40037
:105A7C0008ABE418E14B08AA9B181900F3AB18000B
:105A8C00FDF764FBDE4B42944593DE4B449342ABF3
:105A9C0019003CAB1800FDF77EFB11231020489336
:105AAC00D94B54907360D94B4A947361D84BA62050
:105ABC003361D84B0A224F93D74B08A95393D74B3A
:105ACC00C0005293D64B4E926B60D64B56946B6182
