:020000040800F2
:1000000000500020A1A80008E9A80008E9A80008FD
:10001000E9A80008E9A80008E9A800080000000015
:10002000000000000000000000000000E9A8000837
:10003000E9A8000800000000E9A800088D1A0008DF
:10004000C7200008C9200008CB200008CD200008E8
:10005000CF200008D1200008D5200008F12000089A
:100060000D2100082921000845210008C9220008A7
:10007000E5220008012300081D2300083923000899
:10008000552300087123000861210008632100083E
:100090006521000867210008692100086D2100081A
:1000A000D9210008DB210008DD210008DF2100083C
:1000B000E1210008E3210008E5210008E72100080C
:1000C000E9210008EB210008ED210008EF210008DC
:1000D000F12100087522000891220008AD220008D5
:1000E000F5210008712200087322000800000000BA
:1000F0000000000000000000000000000000000000
:0C01000000000000000000005FF808F1A3
:10010C0010B5064C2378002B07D1054B002B02D0E1
:10011C000448AFF300800123237010BD6800002059
:10012C000000000008B40008044B10B5002B03D0ED
:10013C0003490448AFF3008010BDC0460000000026
:10014C006C00002008B400080023C25C0133002AB4
:10015C00FBD1581E7047000002B471464908490093
:10016C00095C49008E4402BC7047C046002243081B
:10017C008B4274D303098B425FD3030A8B4244D363
:10018C00030B8B4228D3030C8B420DD3FF220902A5
:10019C0012BA030C8B4202D31212090265D0030B64
:1001AC008B4219D300E0090AC30B8B4201D3CB035A
:1001BC00C01A5241830B8B4201D38B03C01A52419C
:1001CC00430B8B4201D34B03C01A5241030B8B429E
:1001DC0001D30B03C01A5241C30A8B4201D3CB0289
:1001EC00C01A5241830A8B4201D38B02C01A52416E
:1001FC00430A8B4201D34B02C01A5241030A8B4271
:10020C0001D30B02C01A5241CDD2C3098B4201D388
:10021C00CB01C01A524183098B4201D38B01C01A06
:10022C00524143098B4201D34B01C01A524103097D
:10023C008B4201D30B01C01A5241C3088B4201D32C
:10024C00CB00C01A524183088B4201D38B00C01AD9
:10025C00524143088B4201D34B00C01A5241411A00
:10026C0000D20146524110467047FFE701B500200D
:10027C0000F0F0F802BDC0460029F7D076E77047D1
:10028C0003460B437FD4002243088B4274D30309EB
:10029C008B425FD3030A8B4244D3030B8B4228D38C
:1002AC00030C8B420DD3FF22090212BA030C8B42B2
:1002BC0002D31212090265D0030B8B4219D300E052
:1002CC00090AC30B8B4201D3CB03C01A5241830BD7
:1002DC008B4201D38B03C01A5241430B8B4201D387
:1002EC004B03C01A5241030B8B4201D30B03C01AB0
:1002FC005241C30A8B4201D3CB02C01A5241830A2A
:10030C008B4201D38B02C01A5241430A8B4201D358
:10031C004B02C01A5241030A8B4201D30B02C01A82
:10032C005241CDD2C3098B4201D3CB01C01A5241E9
:10033C0083098B4201D38B01C01A524143098B4272
:10034C0001D34B01C01A524103098B4201D30B015B
:10035C00C01A5241C3088B4201D3CB00C01A524180
:10036C0083088B4201D38B00C01A524143088B4245
:10037C0001D34B00C01A5241411A00D201465241DE
:10038C00104670475DE0CA0F00D04942031000D3FD
:10039C004042534000229C4603098B422DD3030A52
:1003AC008B4212D3FC22890112BA030A8B420CD362
:1003BC00890192118B4208D3890192118B4204D38B
:1003CC0089013AD0921100E08909C3098B4201D30B
:1003DC00CB01C01A524183098B4201D38B01C01A45
:1003EC00524143098B4201D34B01C01A52410309BC
:1003FC008B4201D30B01C01A5241C3088B4201D36B
:10040C00CB00C01A524183088B4201D38B00C01A17
:10041C005241D9D243088B4201D34B00C01A5241EE
:10042C00411A00D20146634652415B10104601D37B
:10043C004042002B00D54942704763465B1000D305
:10044C00404201B5002000F005F802BD0029F8D0AB
:10045C0016E770477047C0461F22430910401E3AEA
:10046C00824002499B005A507047C04600E100E0B0
:10047C007047436901334361704770477047704759
:10048C007047012A03D0022A03D000207047016074
:10049C00FBE70B680360F8E710B50368984710BDDD
:1004AC00012A03D0022A03D0002070470160FBE729
:1004BC000B680360F8E7012A03D0022A03D000205E
:1004CC0070470160FBE70B680360F8E7012A03D073
:1004DC00022A03D0002070470160FBE70B68036021
:1004EC00F8E7012A03D0022A03D0002070470160EC
:1004FC00FBE70B680360F8E7012A03D0022A03D05C
:10050C00002070470160FBE70B680360F8E7012AE5
:10051C0003D0022A03D0002070470160FBE70B6870
:10052C000360F8E7012A03D0022A03D000207047A9
:10053C000160FBE70B680360F8E7012A03D0022A8D
:10054C0003D0002070470160FBE70B680360F8E7FD
:10055C00012A03D0022A03D0002070470160FBE778
:10056C000B680360F8E7012A03D0022A03D00020AD
:10057C0070470160FBE70B680360F8E7012A03D0C2
:10058C00022A03D0002070470160FBE70B68036070
:10059C00F8E7012A03D0022A03D00020704701603B
:1005AC00FBE70B680360F8E7012A03D0022A03D0AB
:1005BC00002070470160FBE70B680360F8E7012A35
:1005CC0003D0022A03D0002070470160FBE70CC95E
:1005DC000CC0F8E7012A03D0022A03D00020704790
:1005EC000160FBE70CC90CC0F8E7012A03D0022A12
:1005FC0003D0002070470160FBE70B680360F8E74D
:10060C00012A03D0022A03D0002070470160FBE7C7
:10061C000B680360F8E7012A03D0022A03D00020FC
:10062C0070470160FBE70B680360F8E7012A03D011
:10063C00022A03D0002070470160FBE70B680360BF
:10064C00F8E7012A03D0022A03D00020704701608A
:10065C00FBE70B680360F8E7012A03D0022A03D0FA
:10066C00002070470160FBE70B680360F8E7012A84
:10067C0003D0022A03D0002070470160FBE70B680F
:10068C000360F8E7012A03D0022A03D00020704748
:10069C000160FBE70B680360F8E7012A03D0022A2C
:1006AC0003D0002070470160FBE70B680360F8E79C
:1006BC00012A03D0022A03D0002070470160FBE717
:1006CC000B680360F8E7012A03D0022A03D000204C
:1006DC0070470160FBE70B680360F8E7012A03D061
:1006EC00022A03D0002070470160FBE70B6803600F
:1006FC00F8E7012A03D0022A03D0002070470160DA
:10070C00FBE70B680360F8E77047012A00D1016032
:10071C0000207047012A00D1016000207047012A97
:10072C0003D0022A03D0002070470160FBE70B685E
:10073C000360F8E7012A03D0022A03D00020704797
:10074C000160FBE70B680360F8E7012A03D0022A7B
:10075C0003D0002070470160FBE70B680360F8E7EB
:10076C00012A03D0022A03D0002070470160FBE766
:10077C000B680360F8E7012A03D0022A03D000209B
:10078C0070470160FBE70B680360F8E7012A03D0B0
:10079C00022A03D0002070470160FBE70B6803605E
:1007AC00F8E7012A03D0022A03D000207047016029
:1007BC00FBE70B680360F8E7012A03D0022A03D099
:1007CC00002070470160FBE70B680360F8E7012A23
:1007DC0003D0022A03D0002070470160FBE70B68AE
:1007EC000360F8E7012A03D0022A03D000207047E7
:1007FC000160FBE70B680360F8E7012A03D0022ACB
:10080C0003D0002070470160FBE70B680360F8E73A
:10081C00012A03D0022A03D0002070470160FBE7B5
:10082C000B680360F8E7012A03D0022A03D00020EA
:10083C0070470160FBE70B680360F8E7012A03D0FF
:10084C00022A03D0002070470160FBE70B680360AD
:10085C00F8E7012A03D0022A03D000207047016078
:10086C00FBE70B680360F8E7012A03D0022A03D0E8
:10087C00002070470160FBE70B680360F8E7012A72
:10088C0003D0022A03D0002070470160FBE70B68FD
:10089C000360F8E7012A03D0022A03D00020704736
:1008AC000160FBE70B680360F8E7012A03D0022A1A
:1008BC0003D0002070470160FBE70B680360F8E78A
:1008CC00012A03D0022A03D0002070470160FBE705
:1008DC000B680360F8E7012A03D0022A03D000203A
:1008EC0070470160FBE70B680360F8E7012A03D04F
:1008FC00022A03D0002070470160FBE70B680360FD
:10090C00F8E7012A03D0022A03D0002070470160C7
:10091C00FBE70B680360F8E7012A03D0022A03D037
:10092C00002070470160FBE70B680360F8E7012AC1
:10093C0003D0022A03D0002070470160FBE70B684C
:10094C000360F8E7012A03D0022A03D00020704785
:10095C000160FBE70B680360F8E7012A03D0022A69
:10096C0003D0002070470160FBE70B680360F8E7D9
:10097C00012A03D0022A03D0002070470160FBE754
:10098C000B680360F8E7012A03D0022A03D0002089
:10099C0070470160FBE70B680360F8E7012A03D09E
:1009AC00022A03D0002070470160FBE70B6803604C
:1009BC00F8E7012A03D0022A03D000207047016017
:1009CC00FBE70B680360F8E7012A03D0022A03D087
:1009DC00002070470160FBE70B680360F8E7012A11
:1009EC0003D0022A03D0002070470160FBE70B689C
:1009FC000360F8E7012A03D0022A03D000207047D5
:100A0C000160FBE70B680360F8E7012A03D0022AB8
:100A1C0003D0002070470160FBE70B680360F8E728
:100A2C00012A03D0022A03D0002070470160FBE7A3
:100A3C000B680360F8E7012A03D0022A03D00020D8
:100A4C0070470160FBE70B680360F8E7012A03D0ED
:100A5C00022A03D0002070470160FBE70B6803609B
:100A6C00F8E7012A03D0022A03D000207047016066
:100A7C00FBE70B680360F8E7012A03D0022A03D0D6
:100A8C00002070470160FBE70B680360F8E7012A60
:100A9C0003D0022A03D0002070470160FBE70B68EB
:100AAC000360F8E7012A03D0022A03D00020704724
:100ABC000160FBE70B680360F8E7012A03D0022A08
:100ACC0003D0002070470160FBE70B680360F8E778
:100ADC00012A03D0022A03D0002070470160FBE7F3
:100AEC000B680360F8E7012A03D0022A03D0002028
:100AFC0070470160FBE70B680360F8E7012A03D03D
:100B0C00022A03D0002070470160FBE70B680360EA
:100B1C00F8E7012A03D0022A03D0002070470160B5
:100B2C00FBE70B680360F8E7012A03D0022A03D025
:100B3C00002070470160FBE70B680360F8E7012AAF
:100B4C0003D0022A03D0002070470160FBE70B683A
:100B5C000360F8E7012A03D0022A03D00020704773
:100B6C000160FBE70B680360F8E7012A03D0022A57
:100B7C0003D0002070470160FBE70B680360F8E7C7
:100B8C00012A03D0022A03D0002070470160FBE742
:100B9C000B680360F8E7012A03D0022A03D0002077
:100BAC0070470160FBE70B680360F8E7012A03D08C
:100BBC00022A03D0002070470160FBE70B6803603A
:100BCC00F8E7012A03D0022A03D000207047016005
:100BDC00FBE70B680360F8E7012A03D0022A03D075
:100BEC00002070470160FBE70B680360F8E7012AFF
:100BFC0003D0022A03D0002070470160FBE70B688A
:100C0C000360F8E7012A03D0022A03D000207047C2
:100C1C000160FBE70B680360F8E7012A03D0022AA6
:100C2C0003D0002070470160FBE70B680360F8E716
:100C3C00012A03D0022A03D0002070470160FBE791
:100C4C000CC90CC0F8E7012A03D0022A03D00020FB
:100C5C0070470160FBE70CC90CC0F8E7836A0133ED
:100C6C0083627047C3690133C36170477047704733
:100C7C0070477047704770477047704770477047B0
:100C8C00704770477047012A03D0022A03D0002016
:100C9C0070470160FBE70B680360F8E7012A03D09B
:100CAC00022A03D0002070470160FBE70B68036049
:100CBC00F8E7012A03D0022A03D000207047016014
:100CCC00FBE70B680360F8E7012A03D0022A03D084
:100CDC00002070470160FBE70B680360F8E7012A0E
:100CEC0003D0022A03D0002070470160FBE70B6899
:100CFC000360F8E7012A03D0022A03D000207047D2
:100D0C000160FBE70B680360F8E7012A03D0022AB5
:100D1C0003D0002070470160FBE70B680360F8E725
:100D2C00012A03D0022A03D0002070470160FBE7A0
:100D3C000B680360F8E7012A03D0022A03D00020D5
:100D4C0070470160FBE70B680360F8E7012A03D0EA
:100D5C00022A03D0002070470160FBE70B68036098
:100D6C00F8E7012A03D0022A03D000207047016063
:100D7C00FBE70B680360F8E7012A03D0022A03D0D3
:100D8C00002070470160FBE70B680360F8E7012A5D
:100D9C0003D0022A03D0002070470160FBE70B68E8
:100DAC000360F8E7012A03D0022A03D00020704721
:100DBC000160FBE70B680360F8E7012A03D0022A05
:100DCC0003D0002070470160FBE70B680360F8E775
:100DDC00012A03D0022A03D0002070470160FBE7F0
:100DEC000B680360F8E7012A03D0022A03D0002025
:100DFC0070470160FBE70B680360F8E7012A03D03A
:100E0C00022A03D0002070470160FBE70B680360E7
:100E1C00F8E7012A03D0022A03D0002070470160B2
:100E2C00FBE70B680360F8E7012A03D0022A03D022
:100E3C00002070470160FBE70B680360F8E7012AAC
:100E4C0003D0022A03D0002070470160FBE70B6837
:100E5C000360F8E7012A03D0022A03D00020704770
:100E6C000160FBE70B680360F8E7012A03D0022A54
:100E7C0003D0002070470160FBE70B680360F8E7C4
:100E8C00012A03D0022A03D0002070470160FBE73F
:100E9C000B680360F8E7012A03D0022A03D0002074
:100EAC0070470160FBE70B680360F8E7012A03D089
:100EBC00022A03D0002070470160FBE70B68036037
:100ECC00F8E7012A03D0022A03D000207047016002
:100EDC00FBE70B680360F8E7012A03D0022A03D072
:100EEC00002070470160FBE70B680360F8E7012AFC
:100EFC0003D0022A03D0002070470160FBE70B6887
:100F0C000360F8E7012A03D0022A03D000207047BF
:100F1C000160FBE70B680360F8E7012A03D0022AA3
:100F2C0003D0002070470160FBE70B680360F8E713
:100F3C00012A03D0022A03D0002070470160FBE78E
:100F4C000B680360F8E7012A03D0022A03D00020C3
:100F5C0070470160FBE70B680360F8E7012A03D0D8
:100F6C00022A03D0002070470160FBE70B68036086
:100F7C00F8E7012A03D0022A03D000207047016051
:100F8C00FBE70B680360F8E7012A03D0022A03D0C1
:100F9C00002070470160FBE70B680360F8E7012A4B
:100FAC0003D0022A03D0002070470160FBE70B68D6
:100FBC000360F8E7012A03D0022A03D0002070470F
:100FCC000160FBE70B680360F8E7012A03D0022AF3
:100FDC0003D0002070470160FBE70B680360F8E763
:100FEC00012A03D0022A03D0002070470160FBE7DE
:100FFC000B680360F8E7012A03D0022A03D0002013
:10100C0070470160FBE70B680360F8E7012A03D027
:10101C00022A03D0002070470160FBE70B680360D5
:10102C00F8E7012A03D0022A03D0002070470160A0
:10103C00FBE70B680360F8E7012A03D0022A03D010
:10104C00002070470160FBE70B680360F8E7012A9A
:10105C0003D0022A03D0002070470160FBE70B6825
:10106C000360F8E7012A03D0022A03D0002070475E
:10107C000160FBE70B680360F8E7012A03D0022A42
:10108C0003D0002070470160FBE70B680360F8E7B2
:10109C00012A03D0022A03D0002070470160FBE72D
:1010AC000B680360F8E7012A03D0022A03D0002062
:1010BC0070470160FBE70B680360F8E7012A03D077
:1010CC00022A03D0002070470160FBE70B68036025
:1010DC00F8E7012A03D0022A03D0002070470160F0
:1010EC00FBE70B680360F8E7012A03D0022A03D060
:1010FC00002070470160FBE70B680360F8E770B5F0
:10110C000C000500006803689B68984723682C60F6
:10111C001B682000984770BD006810B501001131A4
:10112C00FF318830FFF7EBFF10BD006810B50100F0
:10113C008830D031FFF7E3FF10BD006810B5010017
:10114C00D131FF318830FFF7DAFF10BDAB2310B57A
:10115C0000689B00C1188830FFF7D1FF10BD00005C
:10116C0010B50068024BC1188830FFF7C8FF10BDDE
:10117C003C04000010B50068024BC1188830FFF722
:10118C00BEFF10BDFC0F0000006810B5010011314E
:10119C00FF318830FFF7B3FF10BD9E2310B50068F8
:1011AC009B00C1188830FFF7AAFF10BD006810B56E
:1011BC000100D131FF318830FFF7A1FF10BD00686D
:1011CC0010B501001131FF318830FFF798FF10BDC9
:1011DC00D52310B500689B00C1188830FFF78FFF2E
:1011EC0010BD10B503681A1DD26F917CF1229200CC
:1011FC009950EF2300689B00C1188830FFF77FFFE0
:10120C0010BDAB2310B500689B00C1188830FFF7E8
:10121C0076FF10BDAB2310B500689B00C118883059
:10122C00FFF76DFF10BD006810B501001131FF31E3
:10123C008830FFF764FF10BD10B50068024BC11871
:10124C008830FFF75CFF10BD5C050000B82310B5BB
:10125C000068DB00C1188830FFF751FF10BD00009B
:10126C0010B50068024BC1188830FFF748FF10BD5D
:10127C003C06000010B50068024BC1188830FFF71F
:10128C003EFF10BDBC06000010B50068024BC11833
:10129C008830FFF734FF10BD3C07000010B5006824
:1012AC00024BC1188830FFF72AFF10BDBC070000A5
:1012BC0010B50068024BC1188830FFF720FF10BD35
:1012CC003C08000010B50068024BC1188830FFF7CD
:1012DC0016FF10BDBC08000010B50068024BC11809
:1012EC008830FFF70CFF10BD3C04000010B50068FF
:1012FC00024BC1188830FFF702FF10BD3C04000000
:10130C0010B50068024BC1188830FFF7F8FE10BD0D
:10131C003C04000010B50068024BC1188830FFF780
:10132C00EEFE10BD3C040000D72310B51F2400684E
:10133C00DB00C16FC25C8B785201234013438B706E
:10134C00024BC1188830FFF7DAFE10BD3C040000D8
:10135C0010B50068024BC1188830FFF7D0FE10BDE5
:10136C003C040000E72310B50068DB00C25C0124DC
:10137C00531E9A41C16F8B78A34313438B70034B5D
:10138C00C1188830FFF7BBFE10BDC0463C040000FE
:10139C0010B50068024BC1188830FFF7B0FE10BDC5
:1013AC003C040000F723012210B502240068DB0086
:1013BC00C16FC35C1A408B785200A34313438B70EC
:1013CC00024BC1188830FFF79AFE10BD3C04000098
:1013DC0010B50068024BC1188830FFF790FE10BDA5
:1013EC003C04000010B50068094B1824C358C16FA9
:1013FC00013B5A1E93418A785B00A243DB001343E6
:10140C008B70044BC1188830FFF779FE10BDC046B5
:10141C00380800003C04000010B50068024BC118ED
:10142C008830FFF76CFE10BD3C04000003680A68AE
:10143C00180010B58830D02A04D1034A9918FFF748
:10144C005EFE10BD014AF9E73C0900003C040000B7
:10145C0010B50068024BC1188830FFF750FE10BD64
:10146C003C04000010B50068024BC1188830FFF72F
:10147C0046FE10BD8C0A000010B50068024BC11866
:10148C008830FFF73CFE10BD080B000010B500685B
:10149C00024BC1188830FFF732FE10BD840B0000E0
:1014AC00C02310B500681B01C1188830FFF727FE58
:1014BC0010BD000010B50068024BC1188830FFF752
:1014CC001EFE10BD7C0C000010B50068024BC1184C
:1014DC008830FFF714FE10BDF80C000000220168E4
:1014EC00054B10B5CA50DF2300681B01C1188830AA
:1014FC00FFF705FE10BDC0463809000010B50068A6
:10150C00024BC1188830FFF7FAFD10BD740E0000B5
:10151C0010B50068024BC1188830FFF7F0FD10BD04
:10152C00F80E000010B50068024BC1188830FFF7A8
:10153C00E6FD10BD7C0F000010B50068024BC11811
:10154C008830FFF7DCFD10BD3C09000010B50068C9
:10155C00024BC1188830FFF7D2FD10BD3C090000CA
:10156C0010B50068024BC1188830FFF7C8FD10BDDC
:10157C003C09000010B504680222231DD86FE36FEC
:10158C001230D91D09F0BFFA2000034B8830E11846
:10159C00FFF7B5FD10BDC0463C09000010B5006852
:1015AC00024BC1188830FFF7AAFD10BD3C090000A2
:1015BC0010B504680222231DD86FE36F1230D91DB9
:1015CC0009F0A1FA2000034B8830E118FFF797FDD2
:1015DC0010BDC0463C09000010B50068024BC11894
:1015EC008830FFF78CFD10BD3C09000010B5006879
:1015FC00024BC1188830FFF782FD10BD3C0900007A
:10160C0010B50068024BC1188830FFF778FD10BD8B
:10161C003C09000010B50068024BC1188830FFF778
:10162C006EFD10BD3C09000010B500680A4BC35894
:10163C00002B0AD00023C26F1382C26F5382C26F79
:10164C009382C26FD38A0133D382044BC118883082
:10165C00FFF755FD10BDC046380900003C090000DD
:10166C0010B50068024BC1188830FFF748FD10BD5B
:10167C003C090000E72310B500681B01C258012487
:10168C00531E9A41C16F8B7BA34313438B73034B44
:10169C00C1188830FFF733FD10BDC0463C0900006F
:1016AC0010B50068024BC1188830FFF728FD10BD3B
:1016BC003C09000010B50068084B0224C358C16FE8
:1016CC005A1E93415A008B7BA34313438B73044BD9
:1016DC00C1188830FFF713FD10BDC046F40E000092
:1016EC003C09000010B50068024BC1188830FFF7A8
:1016FC0006FD10BD3C09000010B50068084B042421
:10170C00C358C16F5A1E93419A008B7BA34313435A
:10171C008B73044BC1188830FFF7F1FC10BDC04629
:10172C00780F00003C090000006810B50100113171
:10173C00FF318830FFF7E3FC10BD006810B50300E3
:10174C000833DB6F00241A00196C14323C3310C2BE
:10175C000C8002319A42FAD1C26F538A0133538200
:10176C00D5239B00C1188830FFF7C9FC10BD0000C1
:10177C000068EE21030070B5002408338900DD6F8A
:10178C004358013B9A00AA1854612A6C5B009C5286
:10179C00C26F938A0133938242580A4B013A134029
:1017AC00A34204DA0221013B49420B430133D31A11
:1017BC00ED2292008350D5239B00C1188830FFF78F
:1017CC009EFC70BD010000800B1A9B10002B14DDD9
:1017DC000278002A03D04278002A01D101307047E8
:1017EC008278002A01D10230F9E7C278002A01D1AF
:1017FC000330F4E70430013BE8E70B1A022B0CD062
:10180C00032B06D0012B02D10378002BE7D0080064
:10181C00E5E70378002BE2D001300378002BDED013
:10182C000130F1E70B1A9B10002B14DD0278002A13
:10183C0003D14278002A01D0013070478278002A07
:10184C0001D00230F9E7C278002A01D00330F4E766
:10185C000430013BE8E70B1A022B0CD0032B06D00B
:10186C00012B02D10378002BE7D10800E5E70378C0
:10187C00002BE2D101300378002BDED10130F1E7EF
:10188C0010B5FEF7E9FD10BD0368002B02D1016015
:10189C0004E013005A68002AFBD15960704710B558
:1018AC000400002C05D0236820001B68984764684E
:1018BC00F7E710BD13B50C00009111780192763941
:1018CC004B425941CBB221000C240B2900D80C00FF
:1018DC00E418994207D3C91AA14200D92100D318A0
:1018EC000160436016BD00220121014809F002F895
:1018FC00A1BB0008482210B50300007A5143114ADD
:10190C00002807D090681860814201D3081A5860EB
:10191C00002018721C68A14208D892680120A41AF1
:10192C00A14202D8012200201A7210BD9168012038
:10193C008C42FAD8516892688A1A59688A42F1D254
:10194C00F3E7C04610E000E00369F7B5104A013335
:10195C000500934219D100240600476C046114362B
:10196C003B78A34212DDEB6B01201B883C21234109
:10197C0098433368C0182B6C01C60193FEF7F6FB35
:10198C00019B6200D0520134EAE70361F7BDC04607
:10199C0060EA000003008C3310B504001868322193
:1019AC00421C1A60FEF768FC002904D188342068B8
:1019BC0003685B68984710BD10B50A1A02D0202145
:1019CC0009F0BDF810BD704703691B0603D5024B27
:1019DC004360024B4360704723016745AB89EFCDF1
:1019EC0001220369934303610223026913430361D8
:1019FC0080239B02C9184023890241610269134369
:101A0C000361704710B50468002C05D023682000D2
:101A1C001B689847A468F7E710BD10B583680400ED
:101A2C00002B02D0032201009847200010BD0000BB
:101A3C0070B5060005000400074BCD360833ED35B4
:101A4C000360FF36FF35AE4204D0103D2800FFF78F
:101A5C00E4FFF8E7200070BD90CC000810B504003E
:101A6C000830FFF7CFFF20696169431C2361FEF743
:101A7C0003FC002902D12000FFF7C4FF10BD0000B9
:101A8C0010B50248FFF7EAFF10BDC0462808002039
:101A9C00416902690023914201D34361013318006B
:101AAC0070470000037B002B0DD0002342680373AA
:101ABC008368002A0ED0002B08D0936083685A608C
:101ACC0000234360836070470B60F8E70449936020
:101ADC004A60F5E70249002BF6D10B604B60EFE74B
:101AEC0028080020002310B54361FFF7DBFF10BD71
:101AFC00037B002B0CD101330373064B5A684260F5
:101B0C00002A00D090601A685860002A00D1186032
:101B1C007047C0462808002070B58225AD00435997
:101B2C000400022B14D0032B24D0012B0FD1230043
:101B3C000021B0331A78103019708A4207D0FFF7A1
:101B4C00B1FF2000B830FFF7D3FF0223635170BD03
:101B5C00230000215933FF331A78B83019708A42A8
:101B6C00F5D0FFF79FFF20006130FF30FFF7C0FF7B
:101B7C000323EBE7802300219B00C3181A7819700C
:101B8C008A42E4D06130FF30FFF78CFF2000103028
:101B9C00FFF7AEFF0123D9E710B5036804005A1C08
:101BAC00C3180260597200685021FEF765FB2000D3
:101BBC00216010BD10B5142104000068FEF75CFB19
:101BCC00002903D120312000FFF7E6FF1421206803
:101BDC00FEF752FB002901D02021F4E7200010BDB4
:101BEC0010B504002368002B04D020212000FFF73F
:101BFC00D3FFF7E7200010BD70B5040000200D00E6
:101C0C00814202D00800FEF79FFA20606560200038
:101C1C0070BD70B504000D0000681421FEF7A6FA23
:101C2C0003001420584350214019FEF725FB2000D7
:101C3C00216070BD70B505682A00A4321368002BB2
:101C4C001AD02E001424A036013B13603368686848
:101C5C00634313210360FFF7DCFF2021FFF79CFF98
:101C6C0033686868013B5C43336013210460FFF701
:101C7C00D0FF7E21FFF790FF70BD70B505682A007C
:101C8C00A4321368022B1AD02E001424A036013370
:101C9C00136033686868634313210360FFF7B9FF6F
:101CAC002021FFF779FF3368686801335C433360A8
:101CBC0013210460FFF7ADFF7E21FFF76DFF70BDB0
:101CCC0070B505682A00BC321368002B1AD02E00A0
:101CDC001424B836013B13603368686863431321DE
:101CEC000360FFF796FF2021FFF756FF3368686803
:101CFC00013B5C43336013210460FFF78AFF7E21B4
:101D0C00FFF74AFF70BD70B505682A00BC32136836
:101D1C00032B1AD02E001424B83601331360336809
:101D2C006868634313210360FFF773FF2021FFF7FB
:101D3C0033FF3368686801335C43336013210460FC
:101D4C00FFF767FF7E21FFF727FF70BD01230268B5
:101D5C004068116983400B4313617047012342684B
:101D6C0010B51032934001680C6923430B6110BD10
:101D7C00036810B504009869FFF7F0FF64216068F0
:101D8C00FFF7B8FD0028F9D123689869FFF7DEFF4B
:101D9C0064216068FFF7AEFD0028F9D110BD70B565
:101DAC0004000D000368ED001869FFF7D7FF2368E6
:101DBC006068DA699B6AEB581361FFF7D9FF2368F7
:101DCC006068DA699B6A5D196B681361FFF7D0FF75
:101DDC003221A068FFF78EFD0028F9D170BD0000FC
:101DEC0070B5437B0400012B20D0002B02D0022BBA
:101DFC0027D070BD4069FFF7B1FF2069FFF7A6FF40
:101E0C00206B5021431C2363FEF736FA114B8900DB
:101E1C00256ACB58626AEB5CDB00D3181968E2695F
:101E2C005B681161E36201236373E2E78069FFF78A
:101E3C008DFFA069FFF792FFE369E26A1A61022342
:101E4C00F2E78069FFF782FFA069FFF787FF0023A5
:101E5C00EAE7C04624B700080368426801209040B6
:101E6C009B681840431E9841C0B2704770B500245F
:101E7C0005002600EB6B1B78A34209DDA300EB18D1
:101E8C001869FFF7E9FFA0400643B6B20134F1E749
:101E9C00AB6B1E8070BD10B50C1E03D0FFF756FF48
:101EAC00200010BDFFF75AFFFAE770B50600437A21
:101EBC0004000C36002B05D00023C16143723000A6
:101ECC00FFF716FE3000FFF7E3FD0125002804D0D4
:101EDC003000FFF707FE65720025280070BD00007A
:101EEC00F0B500268FB005AC05000C22310009A816
:101EFC000596666008F023FE0123637223726B461D
:101F0C00354FE661E76026620095019402950393D4
:101F1C00049414212000FFF7C8FF0028F9D1286988
:101F2C00FFF71CFF6869FFF719FFA869FFF70EFFA1
:101F3C00AA6AEB69D26968461A61FFF719FF052195
:101F4C002000FFF7B2FF0028F9D1AA6AEB69D26929
:101F5C0068461A61FFF70CFF64212000FFF7CAFCEA
:101F6C000028F9D1AA6AEB69D26968461A61FFF7B1
:101F7C00FFFE32212000FFF7BDFC0028F9D1AA6A30
:101F8C00EB69526968461A61FFF7F2FE32212000B4
:101F9C00FFF7B0FC0028F9D1282102A8FFF7FFFEBB
:101FAC000C2102A8FFF7FBFE062102A8FFF7F7FEA3
:101FBC00012102A8FFF7F3FE802102A8FFF7EFFE34
:101FCC0001212000FFF771FF0028F9D108A8E76074
:101FDC00FFF768FD0FB0F0BD28B4000810B5040081
:101FEC003030FFF71AFD20002030FFF716FD2000DF
:101FFC001030FFF712FD2000FFF70FFD200010BD81
:10200C0010B50400072A19D1204B5B689B045B0FA9
:10201C001CD0042B1CD0052B1CD0063B5A1E934104
:10202C001B4A5B4213401B4A9B1807291AD808000D
:10203C00FEF792F8121A1C1F21242629083A0023B5
:10204C00012AF2D8114B5B685B05E0E7124BECE719
:10205C00124BEAE7124BE8E7962189011800FEF7CC
:10206C0085F8A060200010BDE121F6E79621C9019A
:10207C00F4E7E121FBE796210902EFE7E121FBE719
:10208C0096214902EAE7E121FBE7C0460010024035
:10209C00E055BBFF4054890000A24A0400512502C0
:1020AC0080A812010123C9B2890003398B40006852
:1020BC001840431E9841C0B27047FEE7FEE7FEE7AA
:1020CC00FEE7FEE7FEE70000044B10B51868FFF7CB
:1020DC00E6FB0122024B5A6110BDC0468807002066
:1020EC0000040140044B10B51868FFF7D8FB02221E
:1020FC00024B5A6110BDC0469007002000040140FD
:10210C00044B10B51868FFF7CAFB0422024B5A6146
:10211C0010BDC046C807002000040140044B10B598
:10212C001868FFF7BCFB0822024B5A6110BDC04671
:10213C00D007002000040140044B10B51868FFF7CD
:10214C00AEFB1022024B5A6110BDC046D8070020CE
:10215C0000040140FEE7FEE7FEE7FEE7FEE70000B5
:10216C0010B5144C63699B0603D5134B1868FFF725
:10217C0096FB63695B0603D5104B1868FFF78FFB62
:10218C0063691B0603D50E4B1868FFF788FB636960
:10219C00DB0503D50B4B1868FFF781FB63699B05C7
:1021AC0003D5094B1868FFF77AFBF8239B00636192
:1021BC0010BDC04600040140E0070020E8070020E5
:1021CC00F0070020F807002000080020FEE7FEE7DB
:1021DC00FEE7FEE7FEE7FEE7FEE7FEE7FEE7FEE7CB
:1021EC00FEE7FEE7FEE7000010B5174C63695B05E0
:1021FC0003D5164B1868FFF752FB63691B0503D513
:10220C00134B1868FFF74BFB6369DB0403D5114BC9
:10221C001868FFF744FB63699B0403D50E4B1868E1
:10222C00FFF73DFB63695B0403D50C4B1868FFF7A4
:10223C0036FB63691B0403D5094B1868FFF72FFBAA
:10224C00FC231B02636110BD0004014098070020B1
:10225C00A0070020A8070020B0070020B807002026
:10226C00C0070020FEE7FEE7044B10B51868FFF727
:10227C0016FB034B1A685B6810BDC04610080020A3
:10228C0000380140044B10B51868FFF708FB034BEE
:10229C001A685B6810BDC046180800200044004056
:1022AC00044B10B51868FFF7FAFA034B1A685B6811
:1022BC0010BDC0462008002000480040044B10B55B
:1022CC001868FFF7ECFA0122024B5A6010BDC046A9
:1022DC005007002000000240044B10B51868FFF7AF
:1022EC00DEFA1022024B5A6010BDC046580700207F
:1022FC0000000240044B10B51868FFF7D0FA80229A
:10230C00024B52005A6010BD6007002000000240D2
:10231C00044B10B51868FFF7C2FA8022024B520129
:10232C005A6010BD6807002000000240044B10B535
:10233C001868FFF7B4FA8022024B52025A6010BDA3
:10234C007007002000000240044B10B51868FFF71E
:10235C00A6FA8022024B52035A6010BD7807002067
:10236C0000000240044B10B51868FFF798FA802261
:10237C00024B52045A6010BD80070020000002403E
:10238C00436800685B00C0187047000010221F4BA8
:10239C0019680A4307211A601A688A43110002223D
:1023AC000A431A6080221A4B520219680A431A60B7
:1023BC001A689203FCD5F0215A688A435A605A680D
:1023CC00144911408022D2000A435A605A681249BB
:1023DC000A405A608022596852020A435A605A686D
:1023EC000E491140E02252030A435A6080221968B8
:1023FC0052040A431A601A689201FCD503215A68E8
:10240C008A43110002220A435A607047002002409E
:10241C0000100240FFF8FFFFFFC7FFFFFFFFC3FFE5
:10242C00F8B50123614A624F12681A4260D1614AC1
:10243C0061481168194204D1604913600160092197
:10244C0041600423BA69F0211343BB610123BA69CB
:10245C0005681A43BA616A688A431100A0220A43CC
:10246C006A60574A574915681D4204D1534D136091
:10247C000D600A254D600423BA69534D1343BB61AB
:10248C000123BA690E681A43BA617268154080223A
:10249C00D2002A434D4D72602E684D4A1E4204D123
:1024AC00464E2B6016600826566004250F24BB6927
:1024BC002B43BB6116687368A3439C460223644696
:1024CC0023437360434B0026FC335A61424A5E60DF
:1024DC009A61424A9E60DA61414AD8601A62414A66
:1024EC0019615A620722DD629A6201232F4A136036
:1024FC008023384EBA693400DB0113430822BB61D8
:10250C00FC34E3698025D96804200A43DA6004228C
:10251C00D9680A43DA605A692A435A6140225969D8
:10252C000A435A61304B1856FFF7AAF901237A690E
:10253C002E4913437B611027236A2D481A683A43AE
:10254C001A6062689219DA60E26904329A601A6859
:10255C002A431A601A680A401A601A6802401A6004
:10256C000222042019680A431A60224B1856FFF7FE
:10257C0087F9636A1D491A681D48BA431A60626874
:10258C009219DA60E26904329A60FF225A601A6882
:10259C0015431D601A680A401A601A6802401A60D6
:1025AC002022196830000A431A60F8BD8C03002001
:1025BC0000100240D4040020D80400200008014080
:1025CC00C8040020CC040020FFF0FFFFBC04002056
:1025DC00C00400209003002000000240003801409D
:1025EC00440002405800024010080020FFF3FFFF97
:1025FC00FFFCFFFF68070020F8B50123704A714FFC
:10260C0012681A427ED1704A70491068184204D17F
:10261C006F48136008600A20486010220120BB69D3
:10262C006C4C1343BB61BB690D680343BB616B68A6
:10263C001C40A0231B0123436B603025664B5C6858
:10264C00AC432243654C5A602568654A054204D167
:10265C005F4D206015600B2555601024B86926006D
:10266C002043B8611068BC69844601200443BC61F6
:10267C0064465C4D646825408024E4012C43654627
:10268C006C6030255C68AC4334435C60564C256808
:10269C00054205D1554D564E20602E600F266E60BA
:1026AC000420BC69514D20430124B86128682600E0
:1026BC008446B8692043B86158684E4C0440802069
:1026CC00800420435860634680205B6880051B01B2
:1026DC001B09034360464360474B0020FC331A61DF
:1026EC00464A58609A61464A9860DA61454AD96010
:1026FC001A62454A5D615A6209229A62073ADA62A5
:10270C002F4B1E6080233C4EFA693400DB021343CE
:10271C000822FB61FC34E3698025D96804200A4354
:10272C00DA600422D9680A43DA605A692A435A618A
:10273C00402259690A435A61344B1856FFF7A0F8E6
:10274C0001237A69324913437B611027236A31488C
:10275C001A683A431A6062689219DA60E2690432C4
:10276C009A601A682A431A601A680A401A601A6832
:10277C0002401A600222042019680A431A60264B90
:10278C001856FFF77DF8636A21491A682148BA4345
:10279C001A6062689219DA60E26904329A60FF2268
:1027AC005A601A6815431D601A680A401A601A6844
:1027BC0002401A602022196830000A431A60F8BDE2
:1027CC003802002000100240800300208403002007
:1027DC0000100140FFF0FFFF0000014074030020D7
:1027EC0078030020FF0FFFFF680300206C0300201C
:1027FC0000080140FFFFFFF83C02002000000240EF
:10280C00004800401C00024030000240200800201C
:10281C00FFF3FFFFFFFCFFFF5807002070B515000A
:10282C000C1A04D001002200280008F075F92819B0
:10283C0070BD0300F0B5093387B00193036816002F
:10284C000293029A019B05009A18037A0C00002B44
:10285C0027D013291CD814277F1A7F08D7197B1867
:10286C00100039000393FFF7A7F831193A00300034
:10287C00FFF7D4FF0299019B143159180398FFF705
:10288C009BF8286814305021FDF7F6FC296016E0FF
:10289C00080014384008301801001431FFF7BEFF4F
:1028AC00EFE75021029BC91A33190293A1420BD9AD
:1028BC0019003000FFF7B2FF2B681C192C600023A5
:1028CC0028002B7207B0F0BD270071183000FFF7FD
:1028DC00A5FF2B68503FFF18E41B36193000019AF6
:1028EC005036502F04D93100FFF798FF503FF5E7D1
:1028FC000299FFF793FF2B68F818C4E730B5050071
:10290C0089B00A0005A8104908F026FA05A901A803
:10291C00FFF772F96C68019B9C4207D9E41A013CE1
:10292C0004D320212800FFF737F9F8E705A903A8FD
:10293C00FFF762F90399049A2800FFF77AFF002346
:10294C0028006B6009B030BD63BC0008F8B53022BC
:10295C00070006000400436878371A60683665681B
:10296C00B74204D002CE2800FFF7C8FFF7E73C239C
:10297C002B60A06F50214430FDF77EFC28002960AD
:10298C005E21FFF709F9FFF715F9F8BD70B5056879
:10299C000A21AB6F9B00EB189A6E01329A66AB6FF3
:1029AC009C002C19A06EFDF751FD2800A166FFF7C5
:1029BC00CDFF70BD006810B5836F9B00C3189A6E75
:1029CC00013A9A66836F9B00C3189A6E002A01DA4B
:1029DC0009229A66FFF7BAFF10BDF7B500224368CB
:1029EC0004001A60056E03272B000526083301939B
:1029FC00E36D60681B78AB4215DD0135290047603B
:102A0C00FFF77CFF3A21FFF7C7F860686B1E466042
:102A1C00A26D5B00995AFFF771FF2021FFF7BCF8FC
:102A2C00019B9D42E4D16068FFF7DAF8F7BD0068BE
:102A3C0010B5036E002B03D0023B0366FFF7CDFFEE
:102A4C0010BD006810B5036EC26D19001278083104
:102A5C00914203DA02330366FFF7BFFF10BD016832
:102A6C0010B50A007832138801339BB21380C888E2
:102A7C00984201D28B8813801423886803601188D4
:102A8C00FFF73CFFFFF796F810BD0000016810B58A
:102A9C000A0078321388013B9BB2138088889842D5
:102AAC0002D80748834201D1CB881380142388684D
:102ABC0003601188FFF722FFFFF77CF810BDC046BA
:102ACC00FFFF0000016810B50A007832137801335B
:102ADC00DBB213704879984201D20B79137014232E
:102AEC00886803601178FFF709FFFFF763F810BDE2
:102AFC00016810B50A0078321378013BDBB2137011
:102B0C000879984201D8FF2B01D14B79137014230B
:102B1C00886803601178FFF7F1FEFFF74BF810BDE2
:102B2C00036810B5DA6F99680132DA678A4201DD01
:102B3C005A68DA671422D8680260D96FFFF7DEFE94
:102B4C00FFF738F810BD036810B5DA6F5968013A11
:102B5C00DA678A4201DA9A68DA671422D868026066
:102B6C00D96FFFF7CBFEFFF725F810BDF7B50025A1
:102B7C00436804001D60036B1B789B070FD4012373
:102B8C00456816492B726846FFF736F80099019A8A
:102B9C002800FFF74EFE6068FFF722F8F7BD836A46
:102BAC001B88002B04D1456801332B720C49EAE7D2
:102BBC002E000427E36A1B78AB42ECDDA36A0122EA
:102BCC001B882B41134205D06068A9184760FFF79A
:102BDC0095FE0136142EDED00135EBE775BC0008EE
:102BEC0081BC00081A2337B5040040680360636B8E
:102BFC001978FFF783FEFEF7DDFFE36B1B789B076D
:102C0C0015D53C23656841492B606846FEF7F4FFF7
:102C1C000099019A2800FFF70CFE022360684360BC
:102C2C00E36A1988FFF76AFE4321FEF7B5FF072117
:102C3C006068FEF7EEFFA36B05001B7834499B0719
:102C4C0000D534496846FEF7D7FF0099019A280051
:102C5C00FFF7EFFDE36B1B785B0717D5A36B606881
:102C6C001B7809219B073DD5FEF7D3FF0323436057
:102C7C00236B1988FFF742FE050027496846FEF7CB
:102C8C00BBFF0099019A2800FFF7D3FD0F21606864
:102C9C00FEF7BFFFA36B05001B781D49DB0700D5B2
:102CAC001E496846FEF7A8FF019A00992800FFF715
:102CBC00C0FD302263681A60A36B1B785A06D20FD2
:102CCC0015D1190713D4590711D4646814496846EF
:102CDC00FEF792FF0099019A2000FFF7AAFDFEF77C
:102CEC0069FF37BDFEF795FF0E490500C6E71907CA
:102CFC0002D564680C49EAE7002A02D064680B49E3
:102D0C00E5E75B07EDD564680949E0E770BB0008AF
:102D1C0005D1000802CF000873BB00086DBB00088A
:102D2C0075BB000803D1000879BB000882BB000802
:102D3C0089BB000870B50025436888B01D60036E20
:102D4C000400AB4213D145685B4906A8FEF754FF5B
:102D5C00079A06992800FFF76CFD0323606801258C
:102D6C004360A36D1978FFF7C9FDFEF723FF236EAF
:102D7C00012B13DC6668514906A8FEF73DFF079A44
:102D8C0006993000FFF755FD02236068013543605A
:102D9C00A36D5978FFF7B2FDFEF70CFF236E022BE3
:102DAC0014DC6668464906A8FEF726FF0699079AC2
:102DBC003000FFF73EFDE36D2B211B78DB0700D4C1
:102DCC000231FEF7E9FEFEF7F5FE0135236E032B0B
:102DDC0016DC66683B4906A8FEF70EFF0699079AB3
:102DEC003000FFF726FDE36D2B211B789B0700D4E9
:102DFC000231FEF7D1FE0135FEF7DCFE042D58D072
:102E0C00236E042B16DC66682F4906A8FEF7F4FE29
:102E1C000699079A3000FFF70CFDE36D2B211B7808
:102E2C005B0700D40231FEF7B7FE0135FEF7C2FE98
:102E3C00042D3ED0236E052B1EDD236E052B38DCB6
:102E4C006468224902A8FEF7D7FE039A0299200073
:102E5C00FFF7EFFC04001E4904A8FEF7CDFE049911
:102E6C00059A06A8FEF726FD0699079A2000FFF79B
:102E7C00E0FCFEF79FFE1CE06668164904A8FEF70E
:102E8C00BBFE059A04993000FFF7D3FC06001249EB
:102E9C0006A8FEF7B1FE0699079A6846FEF70AFDEA
:102EAC000099019A3000FFF7C4FCFEF783FE032D56
:102EBC00C3D108B070BDC046EFBB0008FCBB000816
:102ECC000EBC00081FBC00082EBC000849BC000842
:102EDC0050BC00083ABC000841BC0008006810B5A2
:102EEC00036E002B01DD013B0366FFF723FF10BDD2
:102EFC00006810B5036E022B01DC01330366FFF78B
:102F0C0019FF10BD036813B5DA6F99680132DA67DF
:102F1C008A4201DD5A68DA671422DC68684622604E
:102F2C00DB6F064A9B009958FEF766FE0099019AE2
:102F3C002000FFF77EFCFEF73DFE13BD64BA0008CF
:102F4C00036813B5DA6F5968013ADA678A4201DA15
:102F5C009A68DA671422DC6868462260DB6F064ADE
:102F6C009B009958FEF748FE0099019A2000FFF744
:102F7C0060FCFEF71FFE13BD64BA0008036813B5AE
:102F8C00DA6F99680132DA678A4201DD5A68DA67CA
:102F9C001422DC6868462260DB6F064A9B00995855
:102FAC00FEF72AFE0099019A2000FFF742FCFEF77B
:102FBC0001FE13BDE0BA0008036813B5DA6F596857
:102FCC00013ADA678A4201DA9A68DA671422DC6815
:102FDC0068462260DB6F064A9B009958FEF70CFE90
:102FEC000099019A2000FFF724FCFEF7E3FD13BDC6
:102FFC00E0BA000813B501680A007832137801337F
:10300C00DBB213704879984201D20B7913701423F8
:10301C008C68684623601378064A9B009958FEF723
:10302C00EBFD0099019A2000FFF703FCFEF7C2FDAF
:10303C0013BDC0466CBA000813B501680A0078329B
:10304C001378013BDBB213700879984201D8FF2B3F
:10305C0001D14B79137014238C6868462360137864
:10306C00064A9B009958FEF7C7FD0099019A20006B
:10307C00FFF7DFFBFEF79EFD13BDC0466CBA0008E0
:10308C0013B501680A00783213780133DBB2137080
:10309C004879984201D20B79137014238C686846D6
:1030AC0023601378064A9B009958FEF7A5FD0099FA
:1030BC00019A2000FFF7BDFBFEF77CFD13BDC04657
:1030CC00D8BA000813B501680A0078321378013BAE
:1030DC00DBB213700879984201D8FF2B01D14B79E0
:1030EC00137014238C68684623601378064A9B007F
:1030FC009958FEF781FD0099019A2000FFF799FB82
:10310C00FEF758FD13BDC046D8BA000813B50168C8
:10311C000A00783213780133DBB213704879984285
:10312C0001D20B79137014238C68684623601378D2
:10313C00064A9B009958FEF75FFD0099019A200002
:10314C00FFF777FBFEF736FD13BDC04664BA0008E7
:10315C0013B501680A0078321378013BDBB21370A7
:10316C000879984201D8FF2B01D14B7913701423A5
:10317C008C68684623601378064A9B009958FEF7C2
:10318C003BFD0099019A2000FFF753FBFEF712FD5F
:10319C0013BDC04664BA000813B501680A00783242
:1031AC0013780133DBB213704879984201D20B7952
:1031BC00137014238C68684623601378064A9B00AE
:1031CC009958FEF719FD0099019A2000FFF731FB81
:1031DC00FEF7F0FC13BDC046E8BA000813B5016851
:1031EC000A0078321378013BDBB2137008799842ED
:1031FC0001D8FF2B01D14B79137014238C686846CE
:10320C0023601378064A9B009958FEF7F5FC009949
:10321C00019A2000FFF70DFBFEF7CCFC13BDC04656
:10322C00E8BA0008002370B583608B6804000D00B9
:10323C00002B05D002229847EB68E360AB68A360D3
:10324C00200070BD70B505000C00FFF7EBFF2800E7
:10325C00210010301031FFF7E5FF2800210020304D
:10326C002031FFF7DFFF2800210030303031FFF72D
:10327C00D9FF280070BD002370B583608B680400F3
:10328C000D00002B05D002229847EB68E360AB6879
:10329C00A360200070BD836810B5002B01D107F02E
:1032AC0047FBC368984710BD10B500681830FFF78E
:1032BC00F2FF10BD10B500684830FFF7ECFF10BDF1
:1032CC0010B500684830FFF7E6FF10BD10B5006878
:1032DC004830FFF7E0FF10BD10B500681830FFF75D
:1032EC00DAFF10BD10B500681830FFF7D4FF10BD21
:1032FC00006810B5836FC26F1A60836E002B03D009
:10330C006030FFF7C8FF10BD5030FAE710B5006809
:10331C005030FFF7C0FF10BD006810B5836FC26F4F
:10332C001A60836E002B03D06030FFF7B4FF10BD22
:10333C005030FAE710B500685030FFF7ACFF10BD05
:10334C00006810B5030078331B88426F1380436EFE
:10335C00002B03D05C30FFF79EFF10BD4C30FAE71A
:10336C0010B500684C30FFF796FF10BD10B5036820
:10337C005A6F78331B7813700068436E002B03D0A0
:10338C005C30FFF788FF10BD4C30FAE710B50068D1
:10339C004C30FFF780FF10BD006818220300FC338F
:1033AC001B6D10B55343C0186030FFF774FF10BD90
:1033BC0010B500684830FFF76EFF10BD10B50368FC
:1033CC005A6F78331B7813700068436E002B03D050
:1033DC005C30FFF760FF10BD4C30FAE710B50068A9
:1033EC004C30FFF758FF10BD10B503685A6F783397
:1033FC001B7813700068436E002B03D05C30FFF712
:10340C004AFF10BD4C30FAE710B500684C30FFF79E
:10341C0042FF10BD10B503685A6F78331B781370D8
:10342C000068436E002B03D05C30FFF734FF10BDF7
:10343C004C30FAE710B500684C30FFF72CFF10BD8C
:10344C0010B503685A6F78331B7813700068436E9D
:10345C00002B03D05C30FFF71EFF10BD4C30FAE799
:10346C0010B500684C30FFF716FF10BD006818222D
:10347C000300FC331B6A10B55343C0186030FFF7D0
:10348C000AFF10BD10B500684830FFF704FF10BDEF
:10349C00006810B5836FC26F1A60836E002B03D067
:1034AC006030FFF7F8FE10BD5030FAE710B5006839
:1034BC005030FFF7F0FE10BD006818220300A43353
:1034CC001B6810B55343C0186030FFF7E4FE10BD05
:1034DC0010B500684830FFF7DEFE10BD00681822FA
:1034EC000300BC331B6810B55343C0186030FFF7A2
:1034FC00D2FE10BD10B500684830FFF7CCFE10BDF1
:10350C00836810B5002B01D107F012FAC3689847F5
:10351C0010BD00001FB5074B69460093064B0830E1
:10352C000393064B0293FFF7EBFF6846FEF775FA21
:10353C0005B000BD7D040008A5040008AD0400081A
:10354C00F0B5040085B0184F184E194D6946083077
:10355C00009703960295FFF7D3FF6846FEF75DFAD6
:10356C00200069461830009703960295FFF7C8FFB4
:10357C006846FEF752FA20006946383000970396E9
:10358C000295FFF7BDFF6846FEF747FA2000694633
:10359C002830009703960295FFF7B2FF6846FEF7B6
:1035AC003CFA05B0F0BDC0467D040008A504000837
:1035BC00AD040008F0B5040085B0124F124E134D47
:1035CC0069460830009703960295FFF799FF684605
:1035DC00FEF723FA200069461830009703960295EF
:1035EC00FFF78EFF6846FEF718FA20006946383060
:1035FC00009703960295FFF783FF6846FEF70DFAD6
:10360C0005B0F0BD7D040008A5040008AD04000859
:10361C00F0B5040085B0124F124E134D69460830B8
:10362C00009703960295FFF76BFF6846FEF7F5F9D6
:10363C00200069461830009703960295FFF760FF4B
:10364C006846FEF7EAF92000694638300097039681
:10365C000295FFF755FF6846FEF7DFF905B0F0BDA0
:10366C007D040008A5040008AD0400081FB5074B35
:10367C0069460093064B08300393064B0293FFF701
:10368C003FFF6846FEF7C9F905B000BD7D04000890
:10369C00A5040008AD0400081FB5074B694600934C
:1036AC00064B08300393064B0293FFF729FF68463D
:1036BC00FEF7B3F905B000BD7D040008A5040008B1
:1036CC00AD040008F0B5040085B0184F184E194D24
:1036DC0069461030009703960295FFF711FF684674
:1036EC00FEF79BF92000694620300097039602955F
:1036FC00FFF706FF6846FEF790F920006946303068
:10370C00009703960295FFF7FBFE6846FEF785F9D6
:10371C00200069464030009703960295FFF7F0FEB3
:10372C006846FEF77AF905B0F0BDC0467D04000886
:10373C00A5040008AD040008F0B5040085B0184FCE
:10374C00184E194D69461030009703960295FFF7F5
:10375C00D7FE6846FEF761F92000694620300097D5
:10376C0003960295FFF7CCFE6846FEF756F920004B
:10377C0069463030009703960295FFF7C1FE684604
:10378C00FEF74BF9200069464030009703960295EE
:10379C00FFF7B6FE6846FEF740F905B0F0BDC0462F
:1037AC007D040008A5040008AD040008F0B5040071
:1037BC0085B0184F184E194D69460C30009703967A
:1037CC000295FFF79DFE6846FEF727F92000694633
:1037DC001C30009703960295FFF792FE6846FEF7A1
:1037EC001CF9200069462C30009703960295FFF7D0
:1037FC0087FE6846FEF711F9200069463C300097B9
:10380C0003960295FFF77CFE6846FEF706F905B0B5
:10381C00F0BDC0467D040008A5040008AD040008F6
:10382C00F0B5040085B0184F184E194D69460C3090
:10383C00009703960295FFF763FE6846FEF7EDF8D6
:10384C00200069461C30009703960295FFF758FE3E
:10385C006846FEF7E2F8200069462C300097039684
:10386C000295FFF74DFE6846FEF7D7F82000694633
:10387C003C30009703960295FFF742FE6846FEF730
:10388C00CCF805B0F0BDC0467D040008A5040008C6
:10389C00AD040008F0B5040085B0184F184E194D52
:1038AC0069460830009703960295FFF729FE684693
:1038BC00FEF7B3F82000694618300097039602957E
:1038CC00FFF71EFE6846FEF7A8F820006946283070
:1038DC00009703960295FFF713FE6846FEF79DF8D6
:1038EC00200069463830009703960295FFF708FED2
:1038FC006846FEF792F805B0F0BDC0467D0400089E
:10390C00A5040008AD040008F0B5040085B0184FFC
:10391C00184E194D69460C30009703960295FFF727
:10392C00EFFD6846FEF779F8200069461C300097D9
:10393C0003960295FFF7E4FD6846FEF76EF820004B
:10394C0069462C30009703960295FFF7D9FD68461F
:10395C00FEF763F8200069463C3000970396029509
:10396C00FFF7CEFD6846FEF758F805B0F0BDC0462F
:10397C007D040008A5040008AD040008F0B504009F
:10398C0085B0184F184E194D69460C3000970396A8
:10399C000295FFF7B5FD6846FEF73FF82000694633
:1039AC001C30009703960295FFF7AAFD6846FEF7B8
:1039BC0034F8200069462C30009703960295FFF7E7
:1039CC009FFD6846FEF729F8200069463C300097B9
:1039DC0003960295FFF794FD6846FEF71EF805B0B6
:1039EC00F0BDC0467D040008A5040008AD04000825
:1039FC00F0B5040085B0184F184E194D69460C30BF
:103A0C00009703960295FFF77BFD6846FEF705F8D5
:103A1C00200069461C30009703960295FFF770FD55
:103A2C006846FDF7FAFF200069462C300097039694
:103A3C000295FFF765FD6846FDF7EFFF200069462C
:103A4C003C30009703960295FFF75AFD6846FDF748
:103A5C00E4FF05B0F0BDC0467D040008A5040008D5
:103A6C00AD040008F0B5040085B0184F184E194D80
:103A7C0069460C30009703960295FFF741FD6846A6
:103A8C00FDF7CBFF200069461C300097039602958A
:103A9C00FFF736FD6846FDF7C0FF200069462C3065
:103AAC00009703960295FFF72BFD6846FDF7B5FFCF
:103ABC00200069463C30009703960295FFF720FDE5
:103ACC006846FDF7AAFF05B0F0BDC0467D040008AE
:103ADC00A5040008AD040008F0B5040085B0184F2B
:103AEC00184E194D69460830009703960295FFF75A
:103AFC0007FD6846FDF791FF2000694618300097D6
:103B0C0003960295FFF7FCFC6846FDF786FF200044
:103B1C0069462830009703960295FFF7F1FC68463A
:103B2C00FDF77BFF2000694638300097039602951D
:103B3C00FFF7E6FC6846FDF770FF05B0F0BDC04628
:103B4C007D040008A5040008AD040008F0B50400CD
:103B5C0085B0184F184E194D6946103000970396D2
:103B6C000295FFF7CDFC6846FDF757FF200069462C
:103B7C002030009703960295FFF7C2FC6846FDF7CC
:103B8C004CFF200069463030009703960295FFF7F2
:103B9C00B7FC6846FDF741FF2000694640300097AE
:103BAC0003960295FFF7ACFC6846FDF736FF05B0AF
:103BBC00F0BDC0467D040008A5040008AD04000853
:103BCC00F0B5040085B0184F184E194D69460830F1
:103BDC00009703960295FFF793FC6846FDF71DFFCF
:103BEC00200069461830009703960295FFF788FC71
:103BFC006846FDF712FF20006946283000970396AF
:103C0C000295FFF77DFC6846FDF707FF200069462B
:103C1C003830009703960295FFF772FC6846FDF763
:103C2C00FCFE05B0F0BDC0467D040008A5040008EC
:103C3C00AD040008F0B5040085B0184F184E194DAE
:103C4C0069460830009703960295FFF759FC6846C1
:103C5C00FDF7E3FE200069461830009703960295A5
:103C6C00FFF74EFC6846FDF7D8FE20006946283069
:103C7C00009703960295FFF743FC6846FDF7CDFECF
:103C8C00200069463830009703960295FFF738FC00
:103C9C006846FDF7C2FE05B0F0BDC0467D040008C5
:103CAC00A5040008AD0400081FB5074B0090039352
:103CBC00064B694608300293FFF722FC6846FDF775
:103CCC00ACFE05B000BDC046E5320008C3040008D8
:103CDC001FB50400144B69460393144B0090083035
:103CEC000293FFF70DFC6846FDF797FE2000104B82
:103CFC00694603930F4B183002930094FFF700FCB6
:103D0C006846FDF78AFE20000B4B694603930B4B6C
:103D1C00383002930094FFF7F3FB6846FDF77DFE05
:103D2C002000FEF75AFE1FBD3B2A0008D9040008EC
:103D3C004F2A0008EF040008D932000805050008D6
:103D4C007FB5294B04000393284B6946009008303B
:103D5C000293FFF7D5FB6846FDF75FFE0022636810
:103D6C0023491A6065686846FDF746FF280005255B
:103D7C00019A0099FEF75DFD60684560A36A198899
:103D8C00FEF7BCFD66681B496846FDF735FF019AD6
:103D9C0000993000FEF74DFD60684560A36A5988B4
:103DAC00FEF7ACFD666814496846FDF725FF019ADD
:103DBC0000993000FEF73DFD60684560A36A998864
:103DCC00FEF79CFD66680D496846FDF715FF0099E6
:103DDC00019A3000FEF72DFD60684560A36AD98812
:103DEC00FEF78CFD7FBDC046B5320008B505000856
:103DFC0008BB000818BB000828BB000838BB00082B
:103E0C007FB50400284B69460393284B009008307B
:103E1C000293FFF775FB6846FDF7FFFD2000244B6E
:103E2C0069460393234B183002930094FFF768FB09
:103E3C006846FDF7F2FD20001F4B694603931F4BAC
:103E4C00383002930094FFF75BFB6846FDF7E5FD05
:103E5C0020001B4B694603931A4B283002930094A5
:103E6C00FFF74EFB6846FDF7D8FD00250123666879
:103E7C001549337235606846FDF7BEFE019A00990C
:103E8C003000FEF7D6FCFDF7ABFE230022006833B2
:103E9C007832934201D020C3FBE703232000A367B1
:103EAC00FEF754FD7FBDC046992900085D0500084A
:103EBC00C129000873050008C132000889050008F3
:103ECC004F4B00089F05000866BC00081FB5040096
:103EDC00144B69460393144B009008300293FFF780
:103EEC000FFB6846FDF799FD2000104B69460393C4
:103EFC000F4B183002930094FFF702FB6846FDF756
:103F0C008CFD20000B4B694603930B4B383002930E
:103F1C000094FFF7F5FA6846FDF77FFD2000FEF7E9
:103F2C0009FF1FBDE92E00081B050008FD2E000827
:103F3C0031050008CD3200084705000830B50400F3
:103F4C00234B85B00393234B6946009008300293B2
:103F5C00FFF7D6FA6846FDF760FD65682900280072
:103F6C0059310930FDF728FD00232B6065681A4A8A
:103F7C002B6001332B72A36A68461B789B009958FF
:103F8C00FDF73AFE019A00992800FEF752FC142323
:103F9C00656812492B606846FDF72EFE019A009960
:103FAC002800FEF746FC636B1978FEF7A7FC282364
:103FBC0064680B4923606846FDF71EFE0099019A60
:103FCC002000FEF736FCFDF7F5FD05B030BDC04610
:103FDC00F13200088F0400086CBA000891BB00088D
:103FEC0098BB000830B50400424B89B00793424B94
:103FFC0004A9049010300693FFF782FA04A8FDF789
:10400C000CFD20003D4B04A907933D4B203006933B
:10401C000494FFF775FA04A8FDF7FFFC2000394B58
:10402C0004A90793384B303006930494FFF768FAD1
:10403C0004A8FDF7F2FC2000344B04A90793344B81
:10404C00403006930494FFF75BFA04A8FDF7E5FCF7
:10405C000023E0680360216F626FFEF7EAFBFDF757
:10406C00A9FDA36FE5681B682A4AE36714232B603C
:10407C00E36F04A89B009958FDF7BEFD059A0499BF
:10408C002800FEF7D6FBFDF795FDE568224968464A
:10409C00FDF7B2FD019A00992800FEF7CAFB7E21BC
:1040AC00FDF77AFD05001D4902A8FDF7A5FD039A51
:1040BC0002992800FEF7BDFBFDF77CFDE46818496A
:1040CC006846FDF799FD019A00992000FEF7B1FBB7
:1040DC007E21FDF761FD0400124902A8FDF78CFD5D
:1040EC000299039A2000FEF7A4FBFDF763FD09B0CB
:1040FC0030BDC046112F0008930C00084D2F00084E
:10410C00A90C0008FD320008BF0C00081933000888
:10411C00D50C000864BA000848BB000853BB000863
:10412C005BBB000866BB000830B50400424B89B08D
:10413C000793424B04A9049010300693FFF7E0F963
:10414C0004A8FDF76AFC20003D4B04A907933D4BE6
:10415C00203006930494FFF7D3F904A8FDF75DFC17
:10416C002000394B04A90793384B30300693049444
:10417C00FFF7C6F904A8FDF750FC2000344B04A946
:10418C000793344B403006930494FFF7B9F904A815
:10419C00FDF743FC0023E0680360216F626FFEF7BC
:1041AC0048FBFDF707FDA36FE5681B682A4AE36728
:1041BC0014232B60E36F04A89B009958FDF71CFD9A
:1041CC00059A04992800FEF734FBFDF7F3FCE5682B
:1041DC0022496846FDF710FD019A00992800FEF768
:1041EC0028FB7E21FDF7D8FC05001D4902A8FDF730
:1041FC0003FD039A02992800FEF71BFBFDF7DAFC7E
:10420C00E46818496846FDF7F7FC019A009920000C
:10421C00FEF70FFB7E21FDF7BFFC0400124902A83C
:10422C00FDF7EAFC0299039A2000FEF702FBFDF76A
:10423C00C1FC09B030BDC046892F0008EB0C00084A
:10424C00C52F0008010D000825330008170D0008C4
:10425C00413300082D0D0008E0BA000848BB0008E7
:10426C0053BB00085BBB000866BB000830B50400FC
:10427C003D4B87B005933D4B02A902900C30049343
:10428C00FFF73EF902A8FDF7C8FB2000384B02A946
:10429C000593384B1C3004930294FFF731F902A8B4
:1042AC00FDF7BBFB2000344B02A90593334B2C309C
:1042BC0004930294FFF724F902A8FDF7AEFB20004B
:1042CC002F4B02A905932F4B3C3004930294FFF71C
:1042DC0017F902A8FDF7A1FB0023A0680360226F69
:1042EC00E16EFEF7A6FAFDF765FC636FA06819880E
:1042FC00230078331980FEF701FBFDF75BFCA56802
:10430C0021496846FDF778FC019A00992800FEF7D0
:10431C0090FA7E21FDF740FC05001C4902A8FDF730
:10432C006BFC039A02992800FEF783FAFDF742FC16
:10433C00A46817496846FDF75FFC019A00992000B4
:10434C00FEF777FA7E21FDF727FC0400114902A83D
:10435C00FDF752FC0299039A2000FEF76AFAFDF76A
:10436C0029FC07B030BDC0466B2A0008430D00087D
:10437C00992A0008590D00084D3300086F0D0008EC
:10438C006D330008850D000848BB000853BB0008BE
:10439C005BBB000866BB000830B50400434B89B01A
:1043AC000793434B04A904900C300693FFF7A8F82D
:1043BC0004A8FDF732FB20003E4B04A907933E4BAB
:1043CC001C3006930494FFF79BF804A8FDF725FB1B
:1043DC0020003A4B04A90793394B2C3006930494D4
:1043EC00FFF78EF804A8FDF718FB2000354B04A945
:1043FC000793354B3C3006930494FFF781F804A8DF
:10440C00FDF70BFB0023A0680360E16E226FFEF743
:10441C0010FAFDF7CFFB636F04A81A7823007833EA
:10442C001A701422A5682A601B78284A9B00995898
:10443C00FDF7E2FB059A04992800FEF7FAF9FDF75F
:10444C00B9FBA56822496846FDF7D6FB019A00998D
:10445C002800FEF7EEF97E21FDF79EFB05001D49B5
:10446C0002A8FDF7C9FB039A02992800FEF7E1F9AF
:10447C00FDF7A0FBA46818496846FDF7BDFB019A3F
:10448C0000992000FEF7D5F97E21FDF785FB04008D
:10449C00124902A8FDF7B0FB0299039A2000FEF71F
:1044AC00C8F9FDF787FB09B030BDC04601300008E4
:1044BC009B0D000845300008B10D00087933000849
:1044CC00C70D000899330008DD0D00086CBA000810
:1044DC0048BB000853BB00085BBB000866BB000868
:1044EC0030B50400434B89B00793434B04A90490A7
:1044FC000C300693FFF704F804A8FDF78EFA2000A1
:10450C003E4B04A907933E4B1C3006930494FEF7D4
:10451C00F7FF04A8FDF781FA20003A4B04A9079392
:10452C00394B2C3006930494FEF7EAFF04A8FDF7F0
:10453C0074FA2000354B04A90793354B3C30069395
:10454C000494FEF7DDFF04A8FDF767FA0023A068CA
:10455C000360E16E226FFEF76CF9FDF72BFB636FC6
:10456C0004A81A78230078331A701422A5682A60DC
:10457C001B78284A9B009958FDF73EFB059A049935
:10458C002800FEF756F9FDF715FBA5682249684689
:10459C00FDF732FB019A00992800FEF74AF97E21BB
:1045AC00FDF7FAFA05001D4902A8FDF725FB039A51
:1045BC0002992800FEF73DF9FDF7FCFAA4681849AA
:1045CC006846FDF719FB019A00992000FEF731F9B6
:1045DC007E21FDF7E1FA0400124902A8FDF70CFB5D
:1045EC000299039A2000FEF724F9FDF7E3FA09B0CB
:1045FC0030BDC0468D3000084B0E0008D13000088D
:10460C00610E0008C9330008770E0008E933000872
:10461C008D0E0008D8BA000848BB000853BB000830
:10462C005BBB000866BB000830B50400434B89B087
:10463C000793434B04A904900C300693FEF760FFDC
:10464C0004A8FDF7EAF920003E4B04A907933E4B62
:10465C001C3006930494FEF753FF04A8FDF7DDF914
:10466C0020003A4B04A90793394B2C300693049441
:10467C00FEF746FF04A8FDF7D0F92000354B04A93E
:10468C000793354B3C3006930494FEF739FF04A88E
:10469C00FDF7C3F90023A0680360E16E226FFEF7FB
:1046AC00C8F8FDF787FA636F04A81A7823007833EB
:1046BC001A701422A5682A601B78284A9B00995806
:1046CC00FDF79AFA059A04992800FEF7B2F8FDF75F
:1046DC0071FAA56822496846FDF78EFA019A00998D
:1046EC002800FEF7A6F87E21FDF756FA05001D49B5
:1046FC0002A8FDF781FA039A02992800FEF799F8AF
:10470C00FDF758FAA46818496846FDF775FA019A3E
:10471C0000992000FEF78DF87E21FDF73DFA04008C
:10472C00124902A8FDF768FA0299039A2000FEF7D5
:10473C0080F8FDF73FFA09B030BDC04619310008CA
:10474C00A30E00085D310008B90E0008F53300080F
:10475C00CF0E000815340008E50E000864BA0008F6
:10476C0048BB000853BB00085BBB000866BB0008D5
:10477C0030B50400434B89B00793434B04A9049014
:10478C000C300693FEF7BCFE04A8FDF746F920009A
:10479C003E4B04A907933E4B1C3006930494FEF742
:1047AC00AFFE04A8FDF739F920003A4B04A9079392
:1047BC00394B2C3006930494FEF7A2FE04A8FDF7A7
:1047CC002CF92000354B04A90793354B3C3006934C
:1047DC000494FEF795FE04A8FDF71FF90023A068CA
:1047EC000360E16E226FFEF724F8FDF7E3F9636FC7
:1047FC0004A81A78230078331A701422A5682A604A
:10480C001B78284A9B009958FDF7F6F9059A0499EC
:10481C002800FEF70EF8FDF7CDF9A5682249684689
:10482C00FDF7EAF9019A00992800FEF702F87E21BB
:10483C00FDF7B2F905001D4902A8FDF7DDF9039A51
:10484C0002992800FDF7F5FFFDF7B4F9A4681849A3
:10485C006846FDF7D1F9019A00992000FDF7E9FFB0
:10486C007E21FDF799F90400124902A8FDF7C4F95D
:10487C000299039A2000FDF7DCFFFDF79BF909B0C4
:10488C0030BDC046A5310008FB0E0008E931000818
:10489C00110F000821340008270F000841340008CC
:1048AC003D0F0008E8BA000848BB000853BB0008DD
:1048BC005BBB000866BB000830B504003D4B87B0FD
:1048CC0005933D4B02A902900C300493FEF718FEA1
:1048DC0002A8FDF7A2F82000384B02A90593384B2B
:1048EC001C3004930294FEF70BFE02A8FDF795F81A
:1048FC002000344B02A90593334B2C3004930294C3
:10490C00FEF7FEFD02A8FDF788F820002F4B02A948
:10491C0005932F4B3C3004930294FEF7F1FD02A853
:10492C00FDF77BF80023A0680360226FE16EFDF7B2
:10493C0080FFFDF73FF9636F197823007833197006
:10494C00A068FDF7DBFFFDF735F9A568214968463E
:10495C00FDF752F9019A00992800FDF76AFF7E21B4
:10496C00FDF71AF905001C4902A8FDF745F9039A51
:10497C0002992800FDF75DFFFDF71CF9A4681749A3
:10498C006846FDF739F9019A00992000FDF751FFAF
:10499C007E21FDF701F90400114902A8FDF72CF95D
:1049AC000299039A2000FDF744FFFDF703F907B0C5
:1049BC0030BDC046D12A0008530F0008FD2A00085C
:1049CC00690F00084D3400087F0F00086D34000893
:1049DC00950F000848BB000853BB00085BBB0008E0
:1049EC0066BB000830B504003C4B87B005933C4BCC
:1049FC0002A9029010300493FEF782FD02A8FDF785
:104A0C000CF82000374B02A90593374B2030049348
:104A1C000294FEF775FD02A8FCF7FFFF2000334B54
:104A2C0002A90593324B303004930294FEF768FDD3
:104A3C0002A8FCF7F2FF20002E4B02A905932E4B87
:104A4C00403004930294FEF75BFD02A8FCF7E5FFEF
:104A5C000023E0680360626F216FFDF7EAFEFDF74B
:104A6C00A9F8A36FE0681968E167FDF747FFFDF748
:104A7C00A1F8E56821496846FDF7BEF8019A00994E
:104A8C002800FDF7D6FE7E21FDF786F805001C49AF
:104A9C0002A8FDF7B1F8039A02992800FDF7C9FEA8
:104AAC00FDF788F8E46817496846FDF7A5F8019A00
:104ABC0000992000FDF7BDFE7E21FDF76DF8040086
:104ACC00114902A8FDF798F80299039A2000FDF706
:104ADC00B0FEFDF76FF807B030BDC0462D2B0008B7
:104AEC0003100008532B0008191000089D3400080F
:104AFC002F100008B93400084510000848BB000806
:104B0C0053BB00085BBB000866BB0008002370B5F4
:104B1C0083608B6804000D00002B05D0022298479F
:104B2C00EB68E360AB68A360200070BD07B58368D9
:104B3C000191002B01D105F0FBFEC36801A9984738
:104B4C0007BD006870B5836F013B8367002B0FDADC
:104B5C000500030000210A24783568339D4203D0F8
:104B6C00614304CB8918F9E75830FFF7DFFF70BDBC
:104B7C00FDF7ECFEFBE71FB50C0001006846FFF7E4
:104B8C00C5FF029B002B03D021006846FFF7CEFF28
:104B9C006846FCF742FF1FBD70B50C000978FC306D
:104BAC00826A4909C069FDF72BFA01212278C36892
:104BBC005208154D0A402B4052021A43C26023780A
:104BCC00C2689B080B4011491B030A401343C36086
:104BDC0023780269DB060E499B0F1B030A40134323
:104BEC0003612378DB070AD58023C268DB001343FB
:104BFC00C3608023C2689B011343C36070BDC3684C
:104C0C00044A1340F4E7C046FFFDFFFFFFEFFFFF30
:104C1C00FFCFFFFFFFFBFFFF002310B5FC300400AC
:104C2C00436083604069FDF799F80123216A0A68A3
:104C3C009A430A60626A116899431160FF215160BE
:104C4C00626A11680B4313601368DB07FCD51023F1
:104C5C00E269D1680B43D36010BD10B58468A369B9
:104C6C00FC33D96A9869FDF71DFA002805D0A069B4
:104C7C00FFF7D2FF2000FCF73BFF10BD10B5846896
:104C8C002369FC33D96A9869FDF70CFA002802D025
:104C9C002069FFF7C1FF10BD10B5040043681A6806
:104CAC000368B8335A6143681A6803686133FF3389
:104CBC005A610068FCF71CFF20681030FCF718FFE5
:104CCC008223012122689B00D15010BD03684279D8
:104CDC001B889A4201D20122827102799A4201D92F
:104CEC00002383718079704710B504000068FFF7CA
:104CFC00EDFF61680B78002803D0202293430B70E2
:104D0C0010BD01229806C00F42402020520183435F
:104D1C001343F4E710B504000068FFF7D7FF616890
:104D2C000B78002803D0102293430B7010BD012286
:104D3C00D806C00F42401020120183431343F4E7FE
:104D4C000B7810B50400002B0AD00068FFF7BEFFEB
:104D5C00002804D11023626811780B43137010BD26
:104D6C001021426813788B43F8E70B7810B50400D8
:104D7C00002B0AD00068FFF7A9FF002804D12023DC
:104D8C00626811780B43137010BD202142681378B0
:104D9C008B43F8E7FF23F0B51D00064F064E0C7849
:104DAC0001315C403B5D6B40355D8A42F7D105704B
:104DBC004370F0BD64B8000864B9000810B5040075
:104DCC000CC90CC0FEF757FA200010BD82B0F8B524
:104DDC00040007930AAB18780BAB207120001B78EA
:104DEC000F4F63712760A1600C301100099EFEF714
:104DFC0029FA20000C994C30FEF73DFA20000D9951
:104E0C005C30FEF738FA230007AD6C3306CD06C3D1
:104E1C006667327820001A71F8BC08BC02B01847DB
:104E2C0008B50008F7B501217C4A7D4C1368A446EF
:104E3C000B4004D165467B4C6B602C6011600422E6
:104E4C00794B0F2599691143996161460C6821686A
:104E5C00A9430A432260012274490C68144204D10C
:104E6C00734D704C6A602C600A60042299690A4385
:104E7C00F0219A616E4A146822688A43110040221C
:104E8C000A43226001246B490D68254205D1654D0A
:104E9C00694A0C6015600225556004219C69664ABC
:104EAC00214399611568654C29680C408021C90023
:104EBC00214329600125624C624926682E4204D1A7
:104ECC00584E25600E6003264E6004279C695E4D8B
:104EDC003C439C610E68346825408024E4012C43DB
:104EEC0034600126594D5A4C2A68324203D14D4A3E
:104EFC00676022602E6004259E6935439D6127689A
:104F0C0080243D68534EE40235402C433C6001271D
:104F1C00514D00962A68514C3A4204D1414E2F60B3
:104F2C0026600526666004259E6935439D612768C9
:104F3C0080243D684A4EE40335402C433C600127F5
:104F4C00484D01962A68484C3A4204D1354E2F60A0
:104F5C0026600626666004259E6935439D61266899
:104F6C00424D346825408024E4042C4301253460F0
:104F7C003F4C22682A4204D107273E4E294A25601D
:104F8C0084C604279C6980253C439C61394CED0503
:104F9C0026683468BC40FC402C4334600126364DF6
:104FAC00364C2A68324203D1354A676022602E6043
:104FBC0010259E6935439D61256880242E68009AD2
:104FCC00E402164026432E6001252E4C22682A420C
:104FDC0004D105272C4E2A4A256084C6102480262D
:104FEC009D69F6032C439C61274B019A1C6825682C
:104FFC0015402E4326600360204B816143601D4B9E
:10500C008360194BC360154B0361114B43610A4B11
:10501C00C361074B036263464362FEBD200100205F
:10502C00240100200008014000100240140100205F
:10503C0018010020080100200C010020FFF0FFFFE8
:10504C00FC00002000010020FF0FFFFFF0000020FB
:10505C00F4000020FFFFF0FFE4000020E800002037
:10506C00FFFF0FFFD8000020DC000020FFFFFFF047
:10507C00CC000020D0000020C0000020C400002084
:10508C0000100140B4000020B8000020F0B501254C
:10509C008BB0070068460E00FFF7C4FE124C236865
:1050AC002B401ED11148436083600373104B876300
:1050BC000360099BC6630361089B4361079B836183
:1050CC00069BC361059B0362049B4362039B836243
:1050DC00029BC362019B0363009B4363FCF708FDC7
:1050EC00256002480BB0F0BD880100208C01002027
:1050FC00BCB500080300FC339A68FE2A03D881541F
:10510C009A6801329A60704710B5FC30040040690F
:10511C00FCF71CFE1021E269D3688B43D36001229B
:10512C00616A0B6893430B60216A0B6893430B60B5
:10513C00A3686068216A1B1A02339BB24B60236A16
:10514C0019680A431A601A68D207FCD510BD0022F0
:10515C00036973B5FC335A609A6004000D00431D5B
:10516C00861D012921D1D97F0069FFF7C3FF802358
:10517C00F17F1943FFF7BEFF2900FFF7BBFF216941
:10518C0001AD0B00FC339A685B688A182800C918BB
:10519C00FFF700FE69782069FFF7ACFF2978FFF76D
:1051AC00A9FF2069FFF7B0FF73BD0069D97F022DFD
:1051BC0003D1FFF79FFFF17FDCE7FFF79BFFF17F48
:1051CC00FFF798FF0321D8E7020010B5FC325368B3
:1051DC00946800219C4202D9591C5160C15C0800A2
:1051EC0010BD0068030028330278002A03D04278EF
:1051FC00002A05D10130181A43425841C0B27047F9
:10520C008278002A01D10230F5E7C278002A01D158
:10521C000330F0E704308342E6D1ECE703000100F1
:10522C00F0B5FF22050091B01833029340318B4248
:10523C0002D01A700133FAE706AC282200212000B4
:10524C0005F07DFC2F0028690594FCF7BDFB0024BC
:10525C0054372B003800543301933E68FDF790F817
:10526C005C4B06AA9C463100864219D03378272B1A
:10527C0007D87178EB18197601213378D15402369E
:10528C00F1E733886345FAD12E009C3631603B68D8
:10529C00994207D12C6401340837092CD9D10DE07F
:1052AC000100F1E73800FDF76BF8336898425CD0E9
:1052BC002C6405A8FFF795FF0028ECD02B6C376801
:1052CC00D800019B2C001818FDF75AF8443487427B
:1052DC0006D101232A6CA35400232B646B6D33601D
:1052EC0005A8FFF77EFF2E000390A236002841D0C0
:1052FC0028220299686905F006FC00230027337008
:10530C003B004433EB1802931B78002B16D12B6C0B
:10531C00BB4213D0019BF8001E581818FDF730F84B
:10532C002C4A3300864204D00236B11E09889142C1
:10533C00F7D0181A431E9841029B18700137092F99
:10534C00DED12A004D32131B9B10002B24DD21785B
:10535C00002903D16178002911D00134A24225D053
:10536C002B000322A1331A7020E0230001224433C6
:10537C00EA5490E701232A6CA3540433BEE7A178C6
:10538C00002901D00234E9E7E178002901D0033487
:10539C00E4E70434013BD8E7131B022B12D0032B98
:1053AC000CD0012B13D12378002BD7D180232A6961
:1053BC0011690B431361039811B0F0BD2378002BD6
:1053CC00CCD101342378002BC8D10134EBE7140085
:1053DC00C4E7C046FFFF00000068030028330278D2
:1053EC00002A03D04278002A05D10130181A434212
:1053FC005841C0B270478278002A01D10230F5E7DB
:10540C00C278002A01D10330F0E704308342E6D1A0
:10541C00ECE7000003000100F0B5FF22050091B09D
:10542C001833029340318B4202D01A700133FAE7E1
:10543C0006AC28220021200005F081FB2F002869F2
:10544C000594FCF7C1FA002454372B003800543370
:10545C0001933E68FCF794FF5C4B06AA9C46310016
:10546C00864219D03378272B07D87178EB18197628
:10547C0001213378D1540236F1E733886345FAD1F0
:10548C002E009C3631603B68994207D12C64013464
:10549C000837092CD9D10DE00100F1E73800FCF7F1
:1054AC006FFF336898425CD02C6405A8FFF794FF1B
:1054BC000028ECD02B6C3768D800019B2C001818F6
:1054CC00FCF75EFF4434874206D101232A6CA354B7
:1054DC0000232B646B6D336005A8FFF77DFF2E0056
:1054EC000390A236002841D028220299686905F061
:1054FC000AFB0023002733703B004433EB18029364
:10550C001B78002B16D12B6CBB4213D0019BF800DF
:10551C001E581818FCF734FF2C4A3300864204D06E
:10552C000236B11E09889142F7D0181A431E9841D1
:10553C00029B18700137092FDED12A004D32131B44
:10554C009B10002B24DD2178002903D161780029E0
:10555C0011D00134A24225D02B000322A1331A70A2
:10556C0020E0230001224433EA5490E701232A6C03
:10557C00A3540433BEE7A178002901D00234E9E733
:10558C00E178002901D00334E4E70434013BD8E787
:10559C00131B022B12D0032B0CD0012B13D123780D
:1055AC00002BD7D180232A6911690B43136103980F
:1055BC0011B0F0BD2378002BCCD101342378002B13
:1055CC00C8D10134EBE71400C4E7C046FFFF00006C
:1055DC000068030028330278002A03D04278002A9E
:1055EC0005D10130181A43425841C0B27047827835
:1055FC00002A01D10230F5E7C278002A01D103302C
:10560C00F0E704308342E6D1ECE700000300010030
:10561C00F0B5FF22050091B01833029340318B4254
:10562C0002D01A700133FAE706AC282200212000C0
:10563C0005F085FA2F0028690594FCF7C5F90024BC
:10564C0054372B003800543301933E68FCF798FE16
:10565C005C4B06AA9C463100864219D03378272B26
:10566C0007D87178EB18197601213378D1540236AA
:10567C00F1E733886345FAD12E009C3631603B68E4
:10568C00994207D12C6401340837092CD9D10DE08B
:10569C000100F1E73800FCF773FE336898425CD0E8
:1056AC002C6405A8FFF794FF0028ECD02B6C37680E
:1056BC00D800019B2C001818FCF762FE443487427A
:1056CC0006D101232A6CA35400232B646B6D336029
:1056DC0005A8FFF77DFF2E000390A236002841D0CD
:1056EC0028220299686905F00EFA0023002733700E
:1056FC003B004433EB1802931B78002B16D12B6C18
:10570C00BB4213D0019BF8001E581818FCF738FE4A
:10571C002C4A3300864204D00236B11E09889142CD
:10572C00F7D0181A431E9841029B18700137092FA5
:10573C00DED12A004D32131B9B10002B24DD217867
:10574C00002903D16178002911D00134A24225D05F
:10575C002B000322A1331A7020E0230001224433D2
:10576C00EA5490E701232A6CA3540433BEE7A178D2
:10577C00002901D00234E9E7E178002901D0033493
:10578C00E4E70434013BD8E7131B022B12D0032BA4
:10579C000CD0012B13D12378002BD7D180232A696D
:1057AC0011690B431361039811B0F0BD2378002BE2
:1057BC00CCD101342378002BC8D10134EBE7140091
:1057CC00C4E7C046FFFF000073B56B4604001A0027
:1057DC0060CC60C20A0030CA30C005CB05C173BDB5
:1057EC0070B505000C00FFF7EFFFAB68A268AA606C
:1057FC00A360E268EB68EA60E36070BD1FB504006B
:10580C006846FDF738FD21006846FFF7E9FF68465A
:10581C00FCF703F9200004B010BD10B54430FFF7BD
:10582C00EDFF10BD10B53430FFF7E8FF10BD10B51B
:10583C002430FFF7E3FF10BD10B51430FFF7DEFF87
:10584C0010BD10B54430FFF7D9FF10BD10B5343082
:10585C00FFF7D4FF10BD10B52430FFF7CFFF10BDFC
:10586C0010B51430FFF7CAFF10BD10B54430FFF768
:10587C00C5FF10BD10B53430FFF7C0FF10BD10B51B
:10588C002430FFF7BBFF10BD10B51430FFF7B6FF87
:10589C0010BD10B53430FFF7B1FF10BD10B534306A
:1058AC00FFF7ACFF10BD10B54430FFF7A7FF10BDDC
:1058BC0010B54430FFF7A2FF10BD10B52430FFF730
:1058CC009DFF10BD10B51430FFF798FF10BD10B53B
:1058DC002430FFF793FF10BD10B51430FFF78EFF87
:1058EC0010BD30B50023040089B00800694602934E
:1058FC00FFF776FF236869469C6F04A823689D68B0
:10590C00FDF7B9FC04A92000A84704A8FCF785F80A
:10591C006846FCF782F809B030BD30B500230400AE
:10592C0089B0080069460293FFF75AFF236869465D
:10593C001C6F04A823689D68FDF79DFC04A920003A
:10594C00A84704A8FCF769F86846FCF766F809B0A4
:10595C0030BD30B50023040089B0080069460293BD
:10596C00FFF73EFF236869465C6F04A823689D68B7
:10597C00FDF781FC04A92000A84704A8FCF74DF80A
:10598C006846FCF74AF809B030BD30B50023040076
:10599C0089B0080069460293FFF722FF2368694625
:1059AC009C6F04A823689D68FDF765FC04A9200082
:1059BC00A84704A8FCF731F86846FCF72EF809B0A4
:1059CC0030BD30B50023040089B00800694602934D
:1059DC00FFF706FF236869469C6F04A82368DD68FF
:1059EC00FDF749FC04A92000A84704A8FCF715F80A
:1059FC006846FCF712F809B030BD020010B5FC3255
:105A0C00536894689C4204D95C1C5460C35C0B7052
:105A1C0010BD0023FBE7020070B5FC32536892689E
:105A2C00013304000D009A420BD9FFF7CDFB0600A1
:105A3C002000FFF7C9FB3602C0B23043288020009B
:105A4C0070BD00230B80FAE78269F0B51100436A40
:105A5C00FC3104001D6848682B79165C85B09E42A9
:105A6C000DD00922A8692B181A7501300321FAF7F9
:105A7C00EDFCA961636C0133636405B0F0BD8B6808
:105A8C001E1A022E38D90027984202D2013B8B6095
:105A9C00D75CA16900200A00FC3201909368506821
:105AAC00834203D9013B9360CB5C0193A16903AEA4
:105ABC000B00FC339A685B688A183000C918FFF732
:105ACC0069F93378BB4217D17378019A934213D199
