:020000040800F2
:10000000005000205D910008A5910008A59100080E
:10001000A5910008A5910008A59100080000000026
:10002000000000000000000000000000A591000892
:10003000A591000800000000A59100082D1B0008F4
:10004000E7200008E9200008EB200008ED20000868
:10005000EF200008F1200008F52000081121000819
:100060002D2100084921000865210008E922000827
:1000700005230008212300083D2300085923000818
:1000800075230008912300088121000883210008BE
:100090008521000887210008892100088D2100089A
:1000A000F9210008FB210008FD210008FF210008BC
:1000B0000122000803220008052200080722000888
:1000C000092200080B2200080D2200080F22000858
:1000D0001122000895220008B1220008CD22000854
:1000E0001522000891220008932200080000000059
:1000F0000000000000000000000000000000000000
:0C01000000000000000000005FF808F1A3
:10010C0010B5064C2378002B07D1054B002B02D0E1
:10011C000448AFF300800123237010BD640000205D
:10012C0000000000789C0008044B10B5002B03D095
:10013C0003490448AFF3008010BDC0460000000026
:10014C0068000020789C00080023C25C0133002A60
:10015C00FBD1581E7047000002B471464908490093
:10016C00095C49008E4402BC7047C046002243081B
:10017C008B4274D303098B425FD3030A8B4244D363
:10018C00030B8B4228D3030C8B420DD3FF220902A5
:10019C0012BA030C8B4202D31212090265D0030B64
:1001AC008B4219D300E0090AC30B8B4201D3CB035A
:1001BC00C01A5241830B8B4201D38B03C01A52419C
:1001CC00430B8B4201D34B03C01A5241030B8B429E
:1001DC0001D30B03C01A5241C30A8B4201D3CB0289
:1001EC00C01A5241830A8B4201D38B02C01A52416E
:1001FC00430A8B4201D34B02C01A5241030A8B4271
:10020C0001D30B02C01A5241CDD2C3098B4201D388
:10021C00CB01C01A524183098B4201D38B01C01A06
:10022C00524143098B4201D34B01C01A524103097D
:10023C008B4201D30B01C01A5241C3088B4201D32C
:10024C00CB00C01A524183088B4201D38B00C01AD9
:10025C00524143088B4201D34B00C01A5241411A00
:10026C0000D20146524110467047FFE701B500200D
:10027C0000F0F0F802BDC0460029F7D076E77047D1
:10028C0003460B437FD4002243088B4274D30309EB
:10029C008B425FD3030A8B4244D3030B8B4228D38C
:1002AC00030C8B420DD3FF22090212BA030C8B42B2
:1002BC0002D31212090265D0030B8B4219D300E052
:1002CC00090AC30B8B4201D3CB03C01A5241830BD7
:1002DC008B4201D38B03C01A5241430B8B4201D387
:1002EC004B03C01A5241030B8B4201D30B03C01AB0
:1002FC005241C30A8B4201D3CB02C01A5241830A2A
:10030C008B4201D38B02C01A5241430A8B4201D358
:10031C004B02C01A5241030A8B4201D30B02C01A82
:10032C005241CDD2C3098B4201D3CB01C01A5241E9
:10033C0083098B4201D38B01C01A524143098B4272
:10034C0001D34B01C01A524103098B4201D30B015B
:10035C00C01A5241C3088B4201D3CB00C01A524180
:10036C0083088B4201D38B00C01A524143088B4245
:10037C0001D34B00C01A5241411A00D201465241DE
:10038C00104670475DE0CA0F00D04942031000D3FD
:10039C004042534000229C4603098B422DD3030A52
:1003AC008B4212D3FC22890112BA030A8B420CD362
:1003BC00890192118B4208D3890192118B4204D38B
:1003CC0089013AD0921100E08909C3098B4201D30B
:1003DC00CB01C01A524183098B4201D38B01C01A45
:1003EC00524143098B4201D34B01C01A52410309BC
:1003FC008B4201D30B01C01A5241C3088B4201D36B
:10040C00CB00C01A524183088B4201D38B00C01A17
:10041C005241D9D243088B4201D34B00C01A5241EE
:10042C00411A00D20146634652415B10104601D37B
:10043C004042002B00D54942704763465B1000D305
:10044C00404201B5002000F005F802BD0029F8D0AB
:10045C0016E770477047C0461F22430910401E3AEA
:10046C00824002499B005A507047C04600E100E0B0
:10047C007047436901334361704770477047704759
:10048C007047012A03D0022A03D000207047016074
:10049C00FBE70B680360F8E710B50368984710BDDD
:1004AC00012A03D0022A03D0002070470160FBE729
:1004BC000B680360F8E7012A03D0022A03D000205E
:1004CC0070470160FBE70B680360F8E7012A03D073
:1004DC00022A03D0002070470160FBE70B68036021
:1004EC00F8E7012A03D0022A03D0002070470160EC
:1004FC00FBE70B680360F8E7012A03D0022A03D05C
:10050C00002070470160FBE70B680360F8E7012AE5
:10051C0003D0022A03D0002070470160FBE70B6870
:10052C000360F8E7012A03D0022A03D000207047A9
:10053C000160FBE70B680360F8E7012A03D0022A8D
:10054C0003D0002070470160FBE70B680360F8E7FD
:10055C00012A03D0022A03D0002070470160FBE778
:10056C000B680360F8E7012A03D0022A03D00020AD
:10057C0070470160FBE70B680360F8E7012A03D0C2
:10058C00022A03D0002070470160FBE70B68036070
:10059C00F8E7012A03D0022A03D00020704701603B
:1005AC00FBE70B680360F8E7012A03D0022A03D0AB
:1005BC00002070470160FBE70B680360F8E7012A35
:1005CC0003D0022A03D0002070470160FBE70CC95E
:1005DC000CC0F8E7012A03D0022A03D00020704790
:1005EC000160FBE70CC90CC0F8E7012A03D0022A12
:1005FC0003D0002070470160FBE70B680360F8E74D
:10060C00012A03D0022A03D0002070470160FBE7C7
:10061C000B680360F8E7012A03D0022A03D00020FC
:10062C0070470160FBE70B680360F8E7012A03D011
:10063C00022A03D0002070470160FBE70B680360BF
:10064C00F8E7012A03D0022A03D00020704701608A
:10065C00FBE70B680360F8E7012A03D0022A03D0FA
:10066C00002070470160FBE70B680360F8E7012A84
:10067C0003D0022A03D0002070470160FBE70B680F
:10068C000360F8E7012A03D0022A03D00020704748
:10069C000160FBE70B680360F8E7012A03D0022A2C
:1006AC0003D0002070470160FBE70B680360F8E79C
:1006BC00012A03D0022A03D0002070470160FBE717
:1006CC000B680360F8E7012A03D0022A03D000204C
:1006DC0070470160FBE70B680360F8E7012A03D061
:1006EC00022A03D0002070470160FBE70B6803600F
:1006FC00F8E7012A03D0022A03D0002070470160DA
:10070C00FBE70B680360F8E77047012A00D1016032
:10071C0000207047012A00D1016000207047012A97
:10072C0003D0022A03D0002070470160FBE70B685E
:10073C000360F8E7012A03D0022A03D00020704797
:10074C000160FBE70B680360F8E7012A03D0022A7B
:10075C0003D0002070470160FBE70B680360F8E7EB
:10076C00012A03D0022A03D0002070470160FBE766
:10077C000B680360F8E7012A03D0022A03D000209B
:10078C0070470160FBE70B680360F8E7012A03D0B0
:10079C00022A03D0002070470160FBE70B6803605E
:1007AC00F8E7012A03D0022A03D000207047016029
:1007BC00FBE70B680360F8E7012A03D0022A03D099
:1007CC00002070470160FBE70B680360F8E7012A23
:1007DC0003D0022A03D0002070470160FBE70B68AE
:1007EC000360F8E7012A03D0022A03D000207047E7
:1007FC000160FBE70B680360F8E7012A03D0022ACB
:10080C0003D0002070470160FBE70B680360F8E73A
:10081C00012A03D0022A03D0002070470160FBE7B5
:10082C000B680360F8E7012A03D0022A03D00020EA
:10083C0070470160FBE70B680360F8E7012A03D0FF
:10084C00022A03D0002070470160FBE70B680360AD
:10085C00F8E7012A03D0022A03D000207047016078
:10086C00FBE70B680360F8E7012A03D0022A03D0E8
:10087C00002070470160FBE70B680360F8E7012A72
:10088C0003D0022A03D0002070470160FBE70B68FD
:10089C000360F8E7012A03D0022A03D00020704736
:1008AC000160FBE70B680360F8E7012A03D0022A1A
:1008BC0003D0002070470160FBE70B680360F8E78A
:1008CC00012A03D0022A03D0002070470160FBE705
:1008DC000B680360F8E7012A03D0022A03D000203A
:1008EC0070470160FBE70B680360F8E7012A03D04F
:1008FC00022A03D0002070470160FBE70B680360FD
:10090C00F8E7012A03D0022A03D0002070470160C7
:10091C00FBE70B680360F8E7012A03D0022A03D037
:10092C00002070470160FBE70B680360F8E7012AC1
:10093C0003D0022A03D0002070470160FBE70B684C
:10094C000360F8E7012A03D0022A03D00020704785
:10095C000160FBE70B680360F8E7012A03D0022A69
:10096C0003D0002070470160FBE70B680360F8E7D9
:10097C00012A03D0022A03D0002070470160FBE754
:10098C000B680360F8E7012A03D0022A03D0002089
:10099C0070470160FBE70B680360F8E7012A03D09E
:1009AC00022A03D0002070470160FBE70B6803604C
:1009BC00F8E7012A03D0022A03D000207047016017
:1009CC00FBE70B680360F8E7012A03D0022A03D087
:1009DC00002070470160FBE70B680360F8E7012A11
:1009EC0003D0022A03D0002070470160FBE70B689C
:1009FC000360F8E7012A03D0022A03D000207047D5
:100A0C000160FBE70B680360F8E7012A03D0022AB8
:100A1C0003D0002070470160FBE70B680360F8E728
:100A2C00012A03D0022A03D0002070470160FBE7A3
:100A3C000B680360F8E7012A03D0022A03D00020D8
:100A4C0070470160FBE70B680360F8E7012A03D0ED
:100A5C00022A03D0002070470160FBE70B6803609B
:100A6C00F8E7012A03D0022A03D000207047016066
:100A7C00FBE70B680360F8E7012A03D0022A03D0D6
:100A8C00002070470160FBE70B680360F8E7012A60
:100A9C0003D0022A03D0002070470160FBE70B68EB
:100AAC000360F8E7012A03D0022A03D00020704724
:100ABC000160FBE70B680360F8E7012A03D0022A08
:100ACC0003D0002070470160FBE70B680360F8E778
:100ADC00012A03D0022A03D0002070470160FBE7F3
:100AEC000B680360F8E7012A03D0022A03D0002028
:100AFC0070470160FBE70B680360F8E7012A03D03D
:100B0C00022A03D0002070470160FBE70B680360EA
:100B1C00F8E7012A03D0022A03D0002070470160B5
:100B2C00FBE70B680360F8E7012A03D0022A03D025
:100B3C00002070470160FBE70B680360F8E7012AAF
:100B4C0003D0022A03D0002070470160FBE70B683A
:100B5C000360F8E7012A03D0022A03D00020704773
:100B6C000160FBE70B680360F8E7012A03D0022A57
:100B7C0003D0002070470160FBE70B680360F8E7C7
:100B8C00012A03D0022A03D0002070470160FBE742
:100B9C000B680360F8E7012A03D0022A03D0002077
:100BAC0070470160FBE70B680360F8E7012A03D08C
:100BBC00022A03D0002070470160FBE70B6803603A
:100BCC00F8E7012A03D0022A03D000207047016005
:100BDC00FBE70B680360F8E7012A03D0022A03D075
:100BEC00002070470160FBE70B680360F8E7012AFF
:100BFC0003D0022A03D0002070470160FBE70B688A
:100C0C000360F8E7836A013383627047C369013379
:100C1C00C3617047704770477047704770477047A3
:100C2C007047704770477047704770477047012A8C
:100C3C0003D0022A03D0002070470160FBE70B6849
:100C4C000360F8E7012A03D0022A03D00020704782
:100C5C000160FBE70B680360F8E7012A03D0022A66
:100C6C0003D0002070470160FBE70B680360F8E7D6
:100C7C00012A03D0022A03D0002070470160FBE751
:100C8C000B680360F8E7012A03D0022A03D0002086
:100C9C0070470160FBE70B680360F8E7012A03D09B
:100CAC00022A03D0002070470160FBE70B68036049
:100CBC00F8E7012A03D0022A03D000207047016014
:100CCC00FBE70B680360F8E7012A03D0022A03D084
:100CDC00002070470160FBE70B680360F8E7012A0E
:100CEC0003D0022A03D0002070470160FBE70B6899
:100CFC000360F8E7012A03D0022A03D000207047D2
:100D0C000160FBE70B680360F8E7012A03D0022AB5
:100D1C0003D0002070470160FBE70B680360F8E725
:100D2C00012A03D0022A03D0002070470160FBE7A0
:100D3C000B680360F8E7012A03D0022A03D00020D5
:100D4C0070470160FBE70B680360F8E7012A03D0EA
:100D5C00022A03D0002070470160FBE70B68036098
:100D6C00F8E7012A03D0022A03D000207047016063
:100D7C00FBE70B680360F8E7012A03D0022A03D0D3
:100D8C00002070470160FBE70B680360F8E7012A5D
:100D9C0003D0022A03D0002070470160FBE70B68E8
:100DAC000360F8E7012A03D0022A03D00020704721
:100DBC000160FBE70B680360F8E7012A03D0022A05
:100DCC0003D0002070470160FBE70B680360F8E775
:100DDC00012A03D0022A03D0002070470160FBE7F0
:100DEC000B680360F8E7012A03D0022A03D0002025
:100DFC0070470160FBE70B680360F8E7012A03D03A
:100E0C00022A03D0002070470160FBE70B680360E7
:100E1C00F8E7012A03D0022A03D0002070470160B2
:100E2C00FBE70B680360F8E7012A03D0022A03D022
:100E3C00002070470160FBE70B680360F8E7012AAC
:100E4C0003D0022A03D0002070470160FBE70B6837
:100E5C000360F8E7012A03D0022A03D00020704770
:100E6C000160FBE70B680360F8E7012A03D0022A54
:100E7C0003D0002070470160FBE70B680360F8E7C4
:100E8C00012A03D0022A03D0002070470160FBE73F
:100E9C000B680360F8E7012A03D0022A03D0002074
:100EAC0070470160FBE70B680360F8E7012A03D089
:100EBC00022A03D0002070470160FBE70B68036037
:100ECC00F8E7012A03D0022A03D000207047016002
:100EDC00FBE70B680360F8E7012A03D0022A03D072
:100EEC00002070470160FBE70B680360F8E7012AFC
:100EFC0003D0022A03D0002070470160FBE70B6887
:100F0C000360F8E7012A03D0022A03D000207047BF
:100F1C000160FBE70B680360F8E7012A03D0022AA3
:100F2C0003D0002070470160FBE70B680360F8E713
:100F3C00012A03D0022A03D0002070470160FBE78E
:100F4C000B680360F8E7012A03D0022A03D00020C3
:100F5C0070470160FBE70B680360F8E7012A03D0D8
:100F6C00022A03D0002070470160FBE70B68036086
:100F7C00F8E7012A03D0022A03D000207047016051
:100F8C00FBE70B680360F8E7012A03D0022A03D0C1
:100F9C00002070470160FBE70B680360F8E7012A4B
:100FAC0003D0022A03D0002070470160FBE70B68D6
:100FBC000360F8E7012A03D0022A03D0002070470F
:100FCC000160FBE70B680360F8E7012A03D0022AF3
:100FDC0003D0002070470160FBE70B680360F8E763
:100FEC00012A03D0022A03D0002070470160FBE7DE
:100FFC000B680360F8E7012A03D0022A03D0002013
:10100C0070470160FBE70B680360F8E7012A03D027
:10101C00022A03D0002070470160FBE70B680360D5
:10102C00F8E7012A03D0022A03D0002070470160A0
:10103C00FBE70B680360F8E7012A03D0022A03D010
:10104C00002070470160FBE70B680360F8E7012A9A
:10105C0003D0022A03D0002070470160FBE70B6825
:10106C000360F8E7012A03D0022A03D0002070475E
:10107C000160FBE70B680360F8E7012A03D0022A42
:10108C0003D0002070470160FBE70B680360F8E7B2
:10109C00012A03D0022A03D0002070470160FBE72D
:1010AC000B680360F8E770B50C0005000068036876
:1010BC009B68984723682C601B682000984770BD7C
:1010CC0010B50068411DFF318430FFF7ECFF10BDF7
:1010DC00006810B501008430CC31FFF7E4FF10BD7F
:1010EC00006810B50100C531FF318430FFF7DBFF1C
:1010FC0010BDA82310B500689B00C1188430FFF701
:10110C00D2FF10BD862310B50068DB00C1188430F7
:10111C00FFF7C9FF10BDFF2310B500681B01C118F4
:10112C008430FFF7C0FF10BD10B50068411DFF31C2
:10113C008430FFF7B8FF10BD9B2310B500689B00EF
:10114C00C1188430FFF7AFFF10BD006810B5010067
:10115C00C531FF318430FFF7A6FF10BD10B5006814
:10116C00411DFF318430FFF79EFF10BDD22310B517
:10117C0000689B00C1188430FFF795FF10BD10B5B7
:10118C0003681A1DD26F917CEE2292009950EC23C9
:10119C0000689B00C1188430FFF785FF10BDA823A1
:1011AC0010B500689B00C1188430FFF77CFF10BDA0
:1011BC00A82310B500689B00C1188430FFF773FF9B
:1011CC0010BD10B50068411DFF318430FFF76BFF77
:1011DC0010BDAA2310B50068DB00C1188430FFF7DE
:1011EC0062FF10BD10B50068024BC1188430FFF7C8
:1011FC005AFF10BDB4050000C62310B50068DB0013
:10120C00C1188430FFF74FFF10BDD62310B500680E
:10121C00DB00C1188430FFF746FF10BDE62310B584
:10122C000068DB00C1188430FFF73DFF10BDF623CA
:10123C0010B50068DB00C1188430FFF734FF10BD17
:10124C00832310B500681B01C1188430FFF72BFFF6
:10125C0010BD8B2310B500681B01C1188430FFF73B
:10126C0022FF10BD862310B50068DB00C118843046
:10127C00FFF719FF10BD862310B50068DB00C118FD
:10128C008430FFF710FF10BD862310B50068DB001B
:10129C00C1188430FFF707FF10BD862310B5006816
:1012AC00DB00C1188430FFF7FEFE10BD10B51F2403
:1012BC000368084AD96F9A5C0B7C52012340134394
:1012CC000B7486230068DB00C1188430FFF7EBFE3B
:1012DC0010BDC046AC060000862310B50068DB00CC
:1012EC00C1188430FFF7DFFE10BD000010B5036895
:1012FC00084A01249A5CD96F531E9A410B7CA34374
:10130C0013430B7486230068DB00C1188430FFF78D
:10131C00CAFE10BD2C070000862310B50068DB0048
:10132C00C1188430FFF7BFFE10BD000010B5036874
:10133C00094AD96F9B5C012202241A400B7C520093
:10134C00A34313430B7486230068DB00C11884305D
:10135C00FFF7A9FE10BDC046AC070000862310B5F0
:10136C000068DB00C1188430FFF79DFE10BD000043
:10137C0010B502680A4B1824D358013B591E8B41F7
:10138C00D16F5B000A7CDB00A24313430B748623F2
:10139C000068DB00C1188430FFF785FE10BDC04625
:1013AC002C080000862310B50068DB00C1188430BF
:1013BC00FFF779FE10BD03680A68180010B5843079
:1013CC00D02A05D1932212019918FFF76CFE10BD9B
:1013DC008622D200F8E7862310B50068DB00C1181E
:1013EC008430FFF760FE10BDA82310B500681B0108
:1013FC00C1188430FFF757FE10BD000010B500680F
:10140C00024BC1188430FFF74EFE10BDFC0A0000E1
:10141C0010B50068024BC1188430FFF744FE10BDB4
:10142C00780B000010B50068024BC1188430FFF730
:10143C003AFE10BDF40B0000C72310B500681B0169
:10144C00C1188430FFF72FFE10BD000010B50068E6
:10145C00024BC1188430FFF726FE10BDEC0C0000C7
:10146C0000220168044B10B5CA500068034BC11828
:10147C008430FFF718FE10BD2C090000E40D0000AD
:10148C0010B50068024BC1188430FFF70CFE10BD7C
:10149C00680E000010B50068024BC1188430FFF7CD
:1014AC0002FE10BDEC0E0000F72310B500681B0106
:1014BC00C1188430FFF7F7FD10BD932310B50068F9
:1014CC001B01C1188430FFF7EEFD10BD932310B53E
:1014DC0000681B01C1188430FFF7E5FD10BD932394
:1014EC0010B500681B01C1188430FFF7DCFD10BD7E
:1014FC00932310B500681B01C1188430FFF7D3FD8E
:10150C0010BD932310B500681B01C1188430FFF780
:10151C00CAFD10BD932310B500681B01C11884309F
:10152C00FFF7C1FD10BD932310B500681B01C11856
:10153C008430FFF7B8FD10BD932310B500681B0174
:10154C00C1188430FFF7AFFD10BD000010B5036863
:10155C000C4A9A58002A0DD0DA6F0023D383026804
:10156C00D26F13840268D26F53840368DA6F938C42
:10157C0001339384932300681B01C1188430FFF757
:10158C0092FD10BD2C090000932310B500681B01BF
:10159C00C1188430FFF787FD10BD000010B503683B
:1015AC00084A01249A58D96F531E9A410B7FA343C2
:1015BC0013430B77932300681B01C1188430FFF78A
:1015CC0072FD10BD640E0000932310B500681B0162
:1015DC00C1188430FFF767FD10BD000010B503681B
:1015EC00094AD96F9B5802245A1E93415A000B7F0B
:1015FC00A34313430B77932300681B01C11884305A
:10160C00FFF751FD10BDC046E80E0000932310B546
:10161C0000681B01C1188430FFF745FD10BD0000A8
:10162C0010B50368094AD96F9B5804245A1E93417C
:10163C009A000B7FA34313430B77932300681B0182
:10164C00C1188430FFF72FFD10BDC0466C0F000091
:10165C0010B50068411DFF318430FFF724FD10BD2B
:10166C0010B5EB240268A400131DD96F1359013B6C
:10167C005B00CB1800219985D26F538C01335384B6
:10168C0000680A4B0259013A13408B4203DA013BC2
:10169C0002390B430133D31AEA2292008350D2232E
:1016AC009B00C1188430FFF7FEFC10BD01000080C8
:1016BC0010B5016800240B1DDA6F130009322C33AE
:1016CC00FF329A4202D01C800233FAE7CA6F138CA5
:1016DC0001331384D22300689B00C1188430FFF7B8
:1016EC00E2FC10BD0B1A9B10002B14DD0278002AB3
:1016FC0003D04278002A01D1013070478278002A49
:10170C0001D10230F9E7C278002A01D10330F4E7A5
:10171C000430013BE8E70B1A022B0CD0032B06D04C
:10172C00012B02D10378002BE7D00800E5E7037802
:10173C00002BE2D001300378002BDED00130F1E732
:10174C000B1A9B10002B14DD0278002A03D142786F
:10175C00002A01D0013070478278002A01D0023073
:10176C00F9E7C278002A01D00330F4E70430013BDA
:10177C00E8E70B1A022B0CD0032B06D0012B02D15D
:10178C000378002BE7D10800E5E70378002BE2D1C2
:10179C0001300378002BDED10130F1E710B5FEF7F4
:1017AC005BFE10BD0368002B02D1016004E0130046
:1017BC005A68002AFBD15960704710B50400002C00
:1017CC0005D0236820001B6898476468F7E710BDB4
:1017DC0013B50C0000911178019276394B425941A6
:1017EC00CBB221000C240B2900D80C00E418994230
:1017FC0007D3C91AA14200D92100D3180160436054
:10180C0016BD00220121014807F0CAFCA1A3000863
:10181C00482210B50300007A5143114A002807D022
:10182C0090681860814201D3081A58600020187221
:10183C001C68A14208D892680120A41AA14202D8BF
:10184C00012200201A7210BD916801208C42FAD836
:10185C00516892688A1A59688A42F1D2F3E7C046F5
:10186C0010E000E0030010B5040088331868322142
:10187C00421C1A600834FEF7FFFC002903D1E06F0C
:10188C0003685B68984710BD10B50A1A02D0202176
:10189C0007F08EFD10BD704703691B0603D5024B84
:1018AC004360024B4360704723016745AB89EFCD22
:1018BC000122036993430361022302691343036109
:1018CC0080239B02C918402389024161026913439A
:1018DC0003617047F8B50600643604003078C0B276
:1018EC00052815D8FEF738FC03153671BDD6220035
:1018FC0067321378E16AE4183034C85C2178884286
:10190C0000D0E3E00133DBB2172B00D900231370B6
:10191C00F8BDA06AC368DB07FAD403691B06F7D5C8
:10192C00FFF7BAFF0221A36A1A698A431A610122DE
:10193C00186902431A61230067331A78E36A985CCA
:10194C002300663318701B78206E1B021343038030
:10195C003170DDE7A36ADA689206D9D52022D968FE
:10196C000A43DA60802219690A431A6123002200B3
:10197C006633673219781378E31830331970236E95
:10198C00991CA36C2166D8002018456D6F00056D5D
:10199C002000ED196530A94203D00378DBB2337017
:1019AC00B6E70125E1184C315B190D70AB4200D93B
:1019BC000023A364DB00E3181B6D23660023137064
:1019CC000133337004330370A2E7A06AC368DB07EA
:1019DC009ED403691B069BD5230021004C331D00AC
:1019EC004E31CA1A9210002A23DD1F78002F03D122
:1019FC005F78002F10D00133994224D05D1BFFF784
:101A0C004BFF334B6419595DFFF752FF2300002243
:101A1C004C331A700423C2E79F78002F01D0023395
:101A2C00EAE7DF78002F01D00333E5E70433013A0E
:101A3C00D9E7CA1A022A0DD0032A07D0012A0ED1DF
:101A4C001A78002AD8D165342378A7E71A78002AA7
:101A5C00D2D101331A78002ACED10133F0E70B0032
:101A6C00CAE7A36ADA68920600D451E72022D96843
:101A7C0025000A43DA608022200019694E350A439A
:101A8C001A614C302900FFF75BFE0323854286D197
:101A9C00002384E72200673213780133DBB2172B63
:101AAC0011D900231370250020004E3529004C302D
:101ABC00FFF746FE0323854200D100233370002339
:101ACC006534237024E71370002BECD0012366E7F8
:101ADC008CB4000810B50468002C05D023682000D5
:101AEC001B689847A468F7E710BD10B5836804001D
:101AFC00002B02D0032201009847200010BD10B526
:101B0C0004000830FFF7E6FF20696169431C23617C
:101B1C00FEF7B2FB002902D12000FFF7DBFF10BD5E
:101B2C0010B50248FFF7EBFF10BDC046B40A002009
:101B3C00416902690023914201D3436101331800CA
:101B4C0070470000037B002B0DD000234268037309
:101B5C008368002A0ED0002B08D0936083685A60EB
:101B6C0000234360836070470B60F8E7044993607F
:101B7C004A60F5E70249002BF6D10B604B60EFE7AA
:101B8C00B40A0020002310B54361FFF7DBFF10BD42
:101B9C00037B002B0CD101330373064B5A68426054
:101BAC00002A00D090601A685860002A00D1186092
:101BBC007047C046B40A002010B5036804005A1CD4
:101BCC00C3180260597200685021FEF755FB2000C3
:101BDC00216010BD10B5142104000068FEF74CFB09
:101BEC00002903D120312000FFF7E6FF14212068E3
:101BFC00FEF742FB002901D02021F4E7200010BDA4
:101C0C0010B504002368002B04D020212000FFF71E
:101C1C00D3FFF7E7200010BD70B5040000200D00C5
:101C2C00814202D00800FEF78FFA20606560200028
:101C3C0070BD70B504000D0000681421FEF796FA13
:101C4C0003001420584350214019FEF715FB2000C7
:101C5C00216070BD70B505682A00A4321368002B92
:101C6C001AD02E001424A036013B13603368686828
:101C7C00634313210360FFF7DCFF2021FFF79CFF78
:101C8C0033686868013B5C43336013210460FFF7E1
:101C9C00D0FF7E21FFF790FF70BD70B505682A005C
:101CAC00A4321368022B1AD02E001424A036013350
:101CBC00136033686868634313210360FFF7B9FF4F
:101CCC002021FFF779FF3368686801335C43336088
:101CDC0013210460FFF7ADFF7E21FFF76DFF70BD90
:101CEC0070B505682A00BC321368002B1AD02E0080
:101CFC001424B836013B13603368686863431321BE
:101D0C000360FFF796FF2021FFF756FF33686868E2
:101D1C00013B5C43336013210460FFF78AFF7E2193
:101D2C00FFF74AFF70BD70B505682A00BC32136816
:101D3C00032B1AD02E001424B836013313603368E9
:101D4C006868634313210360FFF773FF2021FFF7DB
:101D5C0033FF3368686801335C43336013210460DC
:101D6C00FFF767FF7E21FFF727FF70BD0123026895
:101D7C004068116983400B4313617047012342682B
:101D8C0010B51032934001680C6923430B6110BDF0
:101D9C00036810B504009869FFF7F0FF64216068D0
:101DAC00FFF736FD0028F9D123689869FFF7DEFFAD
:101DBC0064216068FFF72CFD0028F9D110BD70B5C7
:101DCC0004000D000368ED001869FFF7D7FF2368C6
:101DDC006068DA699B6AEB581361FFF7D9FF2368D7
:101DEC006068DA699B6A5D196B681361FFF7D0FF55
:101DFC003221A068FFF70CFD0028F9D170BD00005E
:101E0C0070B5437B0400012B20D0002B02D0022B99
:101E1C0027D070BD4069FFF7B1FF2069FFF7A6FF1F
:101E2C00206B5021431C2363FEF726FA114B8900CB
:101E3C00256ACB58626AEB5CDB00D3181968E2693F
:101E4C005B681161E36201236373E2E78069FFF76A
:101E5C008DFFA069FFF792FFE369E26A1A61022322
:101E6C00F2E78069FFF782FFA069FFF787FF002385
:101E7C00EAE7C0463C9F0008036842680120904096
:101E8C009B681840431E9841C0B2704770B500243F
:101E9C0005002600EB6B1B78A34209DDA300EB18B1
:101EAC001869FFF7E9FFA0400643B6B20134F1E729
:101EBC00AB6B1E8070BD10B50C1E03D0FFF756FF28
:101ECC00200010BDFFF75AFFFAE770B50600437A01
:101EDC0004000C36002B05D00023C1614372300086
:101EEC00FFF756FE3000FFF723FE0125002804D033
:101EFC003000FFF747FE65720025280070BD00001A
:101F0C00F0B500268FB005AC05000C22310009A8F5
:101F1C000596666007F04CFA0123637223726B46D8
:101F2C00354FE661E76026620095019402950393B4
:101F3C00049414212000FFF7C8FF0028F9D1286968
:101F4C00FFF71CFF6869FFF719FFA869FFF70EFF81
:101F5C00AA6AEB69D26968461A61FFF719FF052175
:101F6C002000FFF7B2FF0028F9D1AA6AEB69D26909
:101F7C0068461A61FFF70CFF64212000FFF748FC4C
:101F8C000028F9D1AA6AEB69D26968461A61FFF791
:101F9C00FFFE32212000FFF73BFC0028F9D1AA6A92
:101FAC00EB69526968461A61FFF7F2FE3221200094
:101FBC00FFF72EFC0028F9D1282102A8FFF7FFFE1D
:101FCC000C2102A8FFF7FBFE062102A8FFF7F7FE83
:101FDC00012102A8FFF7F3FE802102A8FFF7EFFE14
:101FEC0001212000FFF771FF0028F9D108A8E76054
:101FFC00FFF7A8FD0FB0F0BD989C000810B50400C9
:10200C003030FFF772FD20002030FFF76EFD20000E
:10201C001030FFF76AFD2000FFF767FD200010BDB0
:10202C0010B50400072A19D1204B5B689B045B0F89
:10203C001CD0042B1CD0052B1CD0063B5A1E9341E4
:10204C001B4A5B4213401B4A9B1807291AD80800ED
:10205C00FEF782F8121A1C1F21242629083A0023A5
:10206C00012AF2D8114B5B685B05E0E7124BECE7F9
:10207C00124BEAE7124BE8E7962189011800FEF7AC
:10208C0075F8A060200010BDE121F6E79621C9018A
:10209C00F4E7E121FBE796210902EFE7E121FBE7F9
:1020AC0096214902EAE7E121FBE7C0460010024015
:1020BC00E055BBFF4054890000A24A0400512502A0
:1020CC0080A812010123C9B2890003398B40006832
:1020DC001840431E9841C0B27047FEE7FEE7FEE78A
:1020EC00FEE7FEE7FEE70000044B10B51868FFF7AB
:1020FC0064FB0122024B5A6110BDC046140A002039
:10210C0000040140044B10B51868FFF756FB02227F
:10211C00024B5A6110BDC0461C0A0020000401404D
:10212C00044B10B51868FFF748FB0422024B5A61A8
:10213C0010BDC046540A002000040140044B10B5E9
:10214C001868FFF73AFB0822024B5A6110BDC046D3
:10215C005C0A002000040140044B10B51868FFF71E
:10216C002CFB1022024B5A6110BDC046640A0020A1
:10217C0000040140FEE7FEE7FEE7FEE7FEE7000095
:10218C0010B5144C63699B0603D5134B1868FFF705
:10219C0014FB63695B0603D5104B1868FFF70DFB46
:1021AC0063691B0603D50E4B1868FFF706FB6369C2
:1021BC00DB0503D50B4B1868FFF7FFFA63699B052A
:1021CC0003D5094B1868FFF7F8FAF8239B006361F5
:1021DC0010BDC046000401406C0A0020740A0020A7
:1021EC007C0A0020840A00208C0A0020FEE7FEE70F
:1021FC00FEE7FEE7FEE7FEE7FEE7FEE7FEE7FEE7AB
:10220C00FEE7FEE7FEE7000010B5174C63695B05BF
:10221C0003D5164B1868FFF7D0FA63691B0503D575
:10222C00134B1868FFF7C9FA6369DB0403D5114B2C
:10223C001868FFF7C2FA63699B0403D50E4B186844
:10224C00FFF7BBFA63695B0403D50C4B1868FFF707
:10225C00B4FA63691B0403D5094B1868FFF7ADFA90
:10226C00FC231B02636110BD00040140240A002002
:10227C002C0A0020340A00203C0A0020440A0020CA
:10228C004C0A0020FEE7FEE7044B10B51868FFF778
:10229C0094FA034B1A685B6810BDC0469C0A002078
:1022AC0000380140044B10B51868FFF786FA034B51
:1022BC001A685B6810BDC046A40A002000440040A8
:1022CC00044B10B51868FFF778FA034B1A685B6873
:1022DC0010BDC046AC0A002000480040044B10B5AD
:1022EC001868FFF76AFA0122024B5A6010BDC0460B
:1022FC00DC09002000000240044B10B51868FFF701
:10230C005CFA1022024B5A6010BDC046E409002052
:10231C0000000240044B10B51868FFF74EFA8022FB
:10232C00024B52005A6010BDEC0900200000024024
:10233C00044B10B51868FFF740FA8022024B52018B
:10234C005A6010BDF409002000000240044B10B587
:10235C001868FFF732FA8022024B52025A6010BD05
:10236C00FC09002000000240044B10B51868FFF770
:10237C0024FA8022024B52035A6010BD040A00203A
:10238C0000000240044B10B51868FFF716FA8022C3
:10239C00024B52045A6010BD0C0A0020000002408F
:1023AC0010221F4B19680A4307211A601A688A43C6
:1023BC00110002220A431A6080221A4B5202196839
:1023CC000A431A601A689203FCD5F0215A688A43B2
:1023DC005A605A68144911408022D2000A435A604C
:1023EC005A6812490A405A608022596852020A43BC
:1023FC005A605A680E491140E02252030A435A604F
:10240C008022196852040A431A601A689201FCD59A
:10241C0003215A688A43110002220A435A6070470A
:10242C000020024000100240FFF8FFFFFFC7FFFF33
:10243C00FFFFC3FFF8B50123614A624F12681A42CD
:10244C0060D1614A61481168194204D16049136036
:10245C000160092141600423BA69F0211343BB6177
:10246C000123BA6905681A43BA616A688A43110084
:10247C00A0220A436A60574A574915681D4204D185
:10248C00534D13600D600A254D600423BA69534DFA
:10249C001343BB610123BA690E681A43BA617268AF
:1024AC0015408022D2002A434D4D72602E684D4A51
:1024BC001E4204D1464E2B60166008265660042539
:1024CC000F24BB692B43BB6116687368A3439C46FE
:1024DC000223644623437360434B0026FC335A614A
:1024EC00424A5E609A61424A9E60DA61414AD86013
:1024FC001A62414A19615A620722DD629A6201230B
:10250C002F4A13608023384EBA693400DB01134321
:10251C000822BB61FC34E3698025D96804200A4396
:10252C00DA600422D9680A43DA605A692A435A618C
:10253C00402259690A435A61304B1856FFF72EF95D
:10254C0001237A692E4913437B611027236A2D4896
:10255C001A683A431A6062689219DA60E2690432C6
:10256C009A601A682A431A601A680A401A601A6834
:10257C0002401A600222042019680A431A60224B96
:10258C001856FFF70BF9636A1D491A681D48BA43C0
:10259C001A6062689219DA60E26904329A60FF226A
:1025AC005A601A6815431D601A680A401A601A6846
:1025BC0002401A602022196830000A431A60F8BDE4
:1025CC008803002000100240D0040020D404002016
:1025DC0000080140C4040020C8040020FFF0FFFFE5
:1025EC00B8040020BC0400208C0300200000024032
:1025FC000038014044000240580002409C0A002070
:10260C00FFF3FFFFFFFCFFFFF4090020F8B50123E7
:10261C00704A714F12681A427ED1704A7049106824
:10262C00184204D16F48136008600A2048601022D9
:10263C000120BB696C4C1343BB61BB690D68034340
:10264C00BB616B681C40A0231B0123436B603025CE
:10265C00664B5C68AC432243654C5A602568654AFE
:10266C00054204D15F4D206015600B255560102488
:10267C00B86926002043B8611068BC698446012003
:10268C000443BC6164465C4D646825408024E401CD
:10269C002C4365466C6030255C68AC4334435C600D
:1026AC00564C2568054205D1554D564E20602E607E
:1026BC000F266E600420BC69514D20430124B86183
:1026CC00286826008446B8692043B86158684E4C87
:1026DC0004408020800420435860634680205B685F
:1026EC0080051B011B09034360464360474B0020D8
:1026FC00FC331A61464A58609A61464A9860DA611E
:10270C00454AD9601A62454A5D615A6209229A6249
:10271C00073ADA622F4B1E6080233C4EFA69340074
:10272C00DB0213430822FB61FC34E3698025D96882
:10273C0004200A43DA600422D9680A43DA605A6931
:10274C002A435A61402259690A435A61344B18563C
:10275C00FFF724F801237A69324913437B61102770
:10276C00236A31481A683A431A6062689219DA602F
:10277C00E26904329A601A682A431A601A680A409D
:10278C001A601A6802401A600222042019680A436F
:10279C001A60264B1856FFF701F8636A21491A682C
:1027AC002148BA431A6062689219DA60E26904320D
:1027BC009A60FF225A601A6815431D601A680A4015
:1027CC001A601A6802401A602022196830000A4305
:1027DC001A60F8BD34020020001002407C03002077
:1027EC008003002000100140FFF0FFFF00000140BB
:1027FC007003002074030020FF0FFFFF6403002010
:10280C006803002000080140FFFFFFF83802002099
:10281C0000000240004800401C0002403000024012
:10282C00AC0A0020FFF3FFFFFFFCFFFFE4090020D0
:10283C0070B515000C1A04D001002200280006F017
:10284C00A4FD281970BD0300F0B5093387B00193BE
:10285C00036816000293029A019B05009A18037AEA
:10286C000C00002B27D013291CD814277F1A7F08A3
:10287C00D7197B18100039000393FFF705F83119AD
:10288C003A003000FFF7D4FF0299019B143159181C
:10289C000398FEF7F9FF286814305021FDF7ECFC83
:1028AC00296016E008001438400830180100143173
:1028BC00FFF7BEFFEFE75021029BC91A33190293B1
:1028CC00A1420BD919003000FFF7B2FF2B681C197D
:1028DC002C60002328002B7207B0F0BD2700711864
:1028EC003000FFF7A5FF2B68503FFF18E41B36198B
:1028FC003000019A5036502F04D93100FFF798FF61
:10290C00503FF5E70299FFF793FF2B68F818C4E7DF
:10291C0030B5050089B00A0005A8104906F054FE30
:10292C0005A901A8FFF778F96C68019B9C4207D9AF
:10293C00E41A013C04D320212800FFF73DF9F8E705
:10294C0005A903A8FFF768F90399049A2800FFF773
:10295C007AFF002328006B6009B030BD62A4000828
:10296C003F22436810B51A603C3A5A60C26A18009C
:10297C001188FFF7CDFF10BDF8B530220700060017
:10298C000400436878371A6068366568B74204D02B
:10299C0002CE2800FFF7BCFFF7E73C232B60A06FAB
:1029AC0050214430FDF768FC280029605E21FFF7B8
:1029BC0003F9FFF70FF9F8BD70B505680A21AB6F85
:1029CC009B00EB189A6E01329A66AB6F9C002C1927
:1029DC00A06EFDF73BFD2800A166FFF7CDFF70BD93
:1029EC00006810B5836F9B00C3189A6E013A9A6603
:1029FC00836F9B00C3189A6E002A01DA09229A662B
:102A0C00FFF7BAFF10BDF7B50022436804001A6047
:102A1C00056E03272B00052608330193E36D6068D0
:102A2C001B78AB4215DD013529004760FFF770FFBD
:102A3C003A21FFF7C1F860686B1E4660A26D5B001F
:102A4C00995AFFF765FF2021FFF7B6F8019B9D42CD
:102A5C00E4D16068FFF7D4F8F7BD006810B5036ED9
:102A6C00002B03D0023B0366FFF7CDFF10BD0068BF
:102A7C0010B5036EC26D190012780831914203DA59
:102A8C0002330366FFF7BFFF10BD016810B50A00E3
:102A9C007832138801339BB21380C888984201D2D4
:102AAC008B8813801423886803601188FFF730FF2C
:102ABC00FFF790F810BD0000016810B50A007832DD
:102ACC001388013B9BB213808888984202D8074830
:102ADC00834201D1CB88138014238868036011884A
:102AEC00FFF716FFFFF776F810BDC046FFFF00009A
:102AFC00016810B50A00783213780133DBB2137019
:102B0C004879984201D20B791370142388680360BA
:102B1C001178FFF7FDFEFFF75DF810BD016810B5E9
:102B2C000A0078321378013BDBB2137008799842B3
:102B3C0001D8FF2B01D14B791370142388680360E3
:102B4C001178FFF7E5FEFFF745F810BD036810B5E7
:102B5C00DA6F99680132DA678A4201DD5A68DA67FE
:102B6C001422D8680260D96FFFF7D2FEFFF732F853
:102B7C0010BD036810B5DA6F5968013ADA678A42FA
:102B8C0001DA9A68DA671422D8680260D96FFFF705
:102B9C00BFFEFFF71FF810BD0023F7B54268050014
:102BAC001360026B1478A407E40F9C420BD0012134
:102BBC00C26A1078984216DDAA6A12881A4114402B
:102BCC000C400133F6E7012344681549237268462B
:102BDC00FFF722F80099019A2000FFF734FE68688D
:102BEC00FFF70EF8F7BD002C04D001236C680D49DB
:102BFC002372ECE726000427EB6A1B78A342EEDD78
:102C0C00AB6A01221B882341134205D1686821005D
:102C1C004760FFF77DFE0136142EE0D00134EBE760
:102C2C0074A4000880A4000870B50025436888B01F
:102C3C001D60036E0400AB4213D145685B4906A8C6
:102C4C00FEF7EAFF079A06992800FFF7FCFD03231D
:102C5C00606801254360A36D1978FFF759FEFEF7F4
:102C6C00B9FF236E012B13DC6668514906A8FEF7E9
:102C7C00D3FF079A06993000FFF7E5FD0223606841
:102C8C0001354360A36D5978FFF742FEFEF7A2FFB2
:102C9C00236E022B14DC6668464906A8FEF7BCFFBF
:102CAC000699079A3000FFF7CEFDE36D2B211B78B8
:102CBC00DB0700D40231FEF77FFFFEF78BFF0135F7
:102CCC00236E032B16DC66683B4906A8FEF7A4FFAF
:102CDC000699079A3000FFF7B6FDE36D2B211B78A0
:102CEC009B0700D40231FEF767FF0135FEF772FF38
:102CFC00042D58D0236E042B16DC66682F4906A8C9
:102D0C00FEF78AFF0699079A3000FFF79CFDE36DEA
:102D1C002B211B785B0700D40231FEF74DFF0135E8
:102D2C00FEF758FF042D3ED0236E052B1EDD236EBF
:102D3C00052B38DC6468224902A8FEF76DFF039A64
:102D4C0002992000FFF77FFD04001E4904A8FEF73E
:102D5C0063FF0499059A06A8FEF73AFD0699079AAF
:102D6C002000FFF770FDFEF735FF1CE06668164982
:102D7C0004A8FEF751FF059A04993000FFF763FD94
:102D8C000600124906A8FEF747FF0699079A6846FF
:102D9C00FEF71EFD0099019A3000FFF754FDFEF777
:102DAC0019FF032DC3D108B070BDC046EFA30008B6
:102DBC00FCA300080EA400081FA400082EA4000801
:102DCC0049A4000850A400083AA4000841A4000833
:102DDC00006810B5036E002B01DD013B0366FFF7A5
:102DEC0023FF10BD006810B5036E022B01DC01330C
:102DFC000366FFF719FF10BD036813B5DA6F996806
:102E0C000132DA678A4201DD5A68DA671422DC681B
:102E1C0068462260DB6F064A9B009958FEF7FCFE61
:102E2C000099019A2000FFF70EFDFEF7D3FE13BDAB
:102E3C007CA20008036813B5DA6F5968013ADA67A7
:102E4C008A4201DA9A68DA671422DC6868462260E2
:102E5C00DB6F064A9B009958FEF7DEFE0099019A3B
:102E6C002000FFF7F0FCFEF7B5FE13BD7CA20008B6
:102E7C00036813B5DA6F99680132DA678A4201DDAB
:102E8C005A68DA671422DC6868462260DB6F064AEF
:102E9C009B009958FEF7C0FE0099019A2000FFF79D
:102EAC00D2FCFEF797FE13BDF8A20008036813B519
:102EBC00DA6F5968013ADA678A4201DA9A68DA6796
:102ECC001422DC6868462260DB6F064A9B00995826
:102EDC00FEF7A2FE0099019A2000FFF7B4FCFEF762
:102EEC0079FE13BDF8A2000813B501680A00783208
:102EFC0013780133DBB213704879984201D20B7905
:102F0C00137014238C68684623601378064A9B0060
:102F1C009958FEF781FE0099019A2000FFF793FC67
:102F2C00FEF758FE13BDC04684A2000813B5016815
:102F3C000A0078321378013BDBB21370087998429F
:102F4C0001D8FF2B01D14B79137014238C68684680
:102F5C0023601378064A9B009958FEF75DFE009992
:102F6C00019A2000FFF76FFCFEF734FE13BDC0463C
:102F7C0084A2000813B501680A0078321378013373
:102F8C00DBB213704879984201D20B791370142379
:102F9C008C68684623601378064A9B009958FEF7A4
:102FAC003BFE0099019A2000FFF74DFCFEF712FE44
:102FBC0013BDC046F0A2000813B501680A007832B0
:102FCC001378013BDBB213700879984201D8FF2BC0
:102FDC0001D14B79137014238C68684623601378E5
:102FEC00064A9B009958FEF717FE0099019A20009B
:102FFC00FFF729FCFEF7EEFD13BDC046F0A200085A
:10300C0013B501680A00783213780133DBB2137000
:10301C004879984201D20B79137014238C68684656
:10302C0023601378064A9B009958FEF7F5FD00992A
:10303C00019A2000FFF707FCFEF7CCFD13BDC0463C
:10304C007CA2000813B501680A0078321378013BA2
:10305C00DBB213700879984201D8FF2B01D14B7960
:10306C00137014238C68684623601378064A9B00FF
:10307C009958FEF7D1FD0099019A2000FFF7E3FB68
:10308C00FEF7A8FD13BDC0467CA2000813B501686D
:10309C000A00783213780133DBB213704879984206
:1030AC0001D20B79137014238C6868462360137853
:1030BC00064A9B009958FEF7AFFD0099019A200033
:1030CC00FFF7C1FBFEF786FD13BDC04600A3000849
:1030DC0013B501680A0078321378013BDBB2137028
:1030EC000879984201D8FF2B01D14B791370142326
:1030FC008C68684623601378064A9B009958FEF743
:10310C008BFD0099019A2000FFF79DFBFEF762FDF5
:10311C0013BDC04600A30008002370B583608B6804
:10312C0004000D00002B05D002229847EB68E360E9
:10313C00AB68A360200070BD70B505000C00FFF7F4
:10314C00EBFF2800210010301031FFF7E5FF2800BD
:10315C00210020302031FFF7DFFF28002100303024
:10316C003031FFF7D9FF280070BD002370B58360A4
:10317C008B6804000D00002B05D002229847EB68E9
:10318C00E360AB68A360200070BD836810B5002BB2
:10319C0001D106F023F8C368984710BD10B500683C
:1031AC001830FFF7F2FF10BD10B500684830FFF77C
:1031BC00ECFF10BD10B500684830FFF7E6FF10BDFE
:1031CC0010B500684830FFF7E0FF10BD10B500687F
:1031DC001830FFF7DAFF10BD10B500681830FFF794
:1031EC00D4FF10BD006810B5836FC26F1A60836E78
:1031FC00002B03D06030FFF7C8FF10BD5030FAE74A
:10320C0010B500685030FFF7C0FF10BD006810B556
:10321C00836FC26F1A60836E002B03D06030FFF790
:10322C00B4FF10BD5030FAE710B500685030FFF70E
:10323C00ACFF10BD006810B5030078331B88426FDB
:10324C001380436E002B03D05C30FFF79EFF10BD44
:10325C004C30FAE710B500684C30FFF796FF10BD04
:10326C0010B503685A6F78331B7813700068436E7F
:10327C00002B03D05C30FFF788FF10BD4C30FAE711
:10328C0010B500684C30FFF780FF10BD00681822A5
:10329C000300FC331B6D10B55343C0186030FFF7AF
:1032AC0074FF10BD10B500684830FFF76EFF10BDFD
:1032BC0010B503685A6F78331B7813700068436E2F
:1032CC00002B03D05C30FFF760FF10BD4C30FAE7E9
:1032DC0010B500684C30FFF758FF10BD10B50368EF
:1032EC005A6F78331B7813700068436E002B03D031
:1032FC005C30FFF74AFF10BD4C30FAE710B50068A0
:10330C004C30FFF742FF10BD10B503685A6F78338D
:10331C001B7813700068436E002B03D05C30FFF7F2
:10332C0034FF10BD4C30FAE710B500684C30FFF795
:10333C002CFF10BD10B503685A6F78331B781370CF
:10334C000068436E002B03D05C30FFF71EFF10BDEE
:10335C004C30FAE710B500684C30FFF716FF10BD83
:10336C00006818220300FC331B6A10B55343C018C5
:10337C006030FFF70AFF10BD10B500684830FFF74A
:10338C0004FF10BD006810B5836FC26F1A60836EA6
:10339C00002B03D06030FFF7F8FE10BD5030FAE779
:1033AC0010B500685030FFF7F0FE10BD0068182211
:1033BC000300A4331B6810B55343C0186030FFF7EB
:1033CC00E4FE10BD10B500684830FFF7DEFE10BDFE
:1033DC00006818220300BC331B6810B55343C01897
:1033EC006030FFF7D2FE10BD10B500684830FFF713
:1033FC00CCFE10BD836810B5002B01D105F0EEFE9C
:10340C00C368984710BD00001FB5074B6946009371
:10341C00064B08300393064B0293FFF7EBFF68460D
:10342C00FEF763FB05B000BD7D040008A504000891
:10343C00AD040008F0B5040085B0184F184E194DB6
:10344C0069460830009703960295FFF7D3FF68464C
:10345C00FEF74BFB20006946183000970396029547
:10346C00FFF7C8FF6846FEF740FB2000694638307E
:10347C00009703960295FFF7BDFF6846FEF735FBF4
:10348C00200069462830009703960295FFF7B2FF9B
:10349C006846FEF72AFB05B0F0BDC0467D04000867
:1034AC00A5040008AD040008F0B5040085B0124F67
:1034BC00124E134D69460830009703960295FFF79C
:1034CC0099FF6846FEF711FB2000694618300097FB
:1034DC0003960295FFF78EFF6846FEF706FB200069
:1034EC0069463830009703960295FFF783FF6846CC
:1034FC00FEF7FBFA05B0F0BD7D040008A50400083A
:10350C00AD040008F0B5040085B0124F124E134DF7
:10351C0069460830009703960295FFF76BFF6846E3
:10352C00FEF7E3FA200069461830009703960295DF
:10353C00FFF760FF6846FEF7D8FA2000694638307E
:10354C00009703960295FFF755FF6846FEF7CDFAF4
:10355C0005B0F0BD7D040008A5040008AD0400080A
:10356C001FB5074B69460093064B08300393064B77
:10357C000293FFF73FFF6846FEF7B7FA05B000BDB0
:10358C007D040008A5040008AD0400081FB5074B16
:10359C0069460093064B08300393064B0293FFF7E2
:1035AC0029FF6846FEF7A1FA05B000BD7D040008AE
:1035BC00A5040008AD040008F0B5040085B0184F50
:1035CC00184E194D69461030009703960295FFF777
:1035DC0011FF6846FEF789FA2000694620300097F3
:1035EC0003960295FFF706FF6846FEF77EFA200069
:1035FC0069463030009703960295FFF7FBFE68464C
:10360C00FEF773FA20006946403000970396029546
:10361C00FFF7F0FE6846FEF768FA05B0F0BDC0464D
:10362C007D040008A5040008AD040008F0B50400F2
:10363C0085B0184F184E194D6946103000970396F7
:10364C000295FFF7D7FE6846FEF74FFA2000694651
:10365C002030009703960295FFF7CCFE6846FEF7E4
:10366C0044FA200069463030009703960295FFF724
:10367C00C1FE6846FEF739FA2000694640300097D3
:10368C0003960295FFF7B6FE6846FEF72EFA05B0D4
:10369C00F0BDC0467D040008A5040008AD04000878
:1036AC00F0B5040085B0184F184E194D69460C3012
:1036BC00009703960295FFF79DFE6846FEF715FAF4
:1036CC00200069461C30009703960295FFF792FE86
:1036DC006846FEF70AFA200069462C3000970396DC
:1036EC000295FFF787FE6846FEF7FFF92000694652
:1036FC003C30009703960295FFF77CFE6846FEF778
:10370C00F4F905B0F0BDC0467D040008A50400081E
:10371C00AD040008F0B5040085B0184F184E194DD3
:10372C0069460C30009703960295FFF763FE6846D6
:10373C00FEF7DBF9200069461C30009703960295D2
:10374C00FFF758FE6846FEF7D0F9200069462C308A
:10375C00009703960295FFF74DFE6846FEF7C5F9F4
:10376C00200069463C30009703960295FFF742FE15
:10377C006846FEF7BAF905B0F0BDC0467D040008F6
:10378C00A5040008AD040008F0B5040085B0184F7E
:10379C00184E194D69460830009703960295FFF7AD
:1037AC0029FE6846FEF7A1F92000694618300097FB
:1037BC0003960295FFF71EFE6846FEF796F9200069
:1037CC0069462830009703960295FFF713FE68466A
:1037DC00FEF78BF920006946383000970396029566
:1037EC00FFF708FE6846FEF780F905B0F0BDC0464D
:1037FC007D040008A5040008AD040008F0B5040021
:10380C0085B0184F184E194D69460C300097039629
:10381C000295FFF7EFFD6846FEF767F92000694651
:10382C001C30009703960295FFF7E4FD6846FEF7FF
:10383C005CF9200069462C30009703960295FFF73F
:10384C00D9FD6846FEF751F9200069463C300097D7
:10385C0003960295FFF7CEFD6846FEF746F905B0D4
:10386C00F0BDC0467D040008A5040008AD040008A6
:10387C00F0B5040085B0184F184E194D69460C3040
:10388C00009703960295FFF7B5FD6846FEF72DF9F4
:10389C00200069461C30009703960295FFF7AAFD9D
:1038AC006846FEF722F9200069462C3000970396F3
:1038BC000295FFF79FFD6846FEF717F92000694651
:1038CC003C30009703960295FFF794FD6846FEF78F
:1038DC000CF905B0F0BDC0467D040008A504000835
:1038EC00AD040008F0B5040085B0184F184E194D02
:1038FC0069460C30009703960295FFF77BFD6846EE
:10390C00FEF7F3F8200069461C30009703960295E9
:10391C00FFF770FD6846FEF7E8F8200069462C308A
:10392C00009703960295FFF765FD6846FEF7DDF8F4
:10393C00200069463C30009703960295FFF75AFD2C
:10394C006846FEF7D2F805B0F0BDC0467D0400080D
:10395C00A5040008AD040008F0B5040085B0184FAC
:10396C00184E194D69460C30009703960295FFF7D7
:10397C0041FD6846FEF7B9F8200069461C300097F7
:10398C0003960295FFF736FD6846FEF7AEF8200069
:10399C0069462C30009703960295FFF72BFD68467D
:1039AC00FEF7A3F8200069463C3000970396029579
:1039BC00FFF720FD6846FEF798F805B0F0BDC0464D
:1039CC007D040008A5040008AD040008F0B504004F
:1039DC0085B0184F184E194D69460830009703965C
:1039EC000295FFF707FD6846FEF77FF82000694651
:1039FC001830009703960295FFF7FCFC6846FEF71B
:103A0C0074F8200069462830009703960295FFF75A
:103A1C00F1FC6846FEF769F82000694638300097DB
:103A2C0003960295FFF7E6FC6846FEF75EF805B0D4
:103A3C00F0BDC0467D040008A5040008AD040008D4
:103A4C00F0B5040085B0184F184E194D694610306A
:103A5C00009703960295FFF7CDFC6846FEF745F8F4
:103A6C00200069462030009703960295FFF7C2FCB0
:103A7C006846FEF73AF82000694630300097039606
:103A8C000295FFF7B7FC6846FEF72FF82000694651
:103A9C004030009703960295FFF7ACFC6846FEF7A2
:103AAC0024F805B0F0BDC0467D040008A50400084C
:103ABC00AD040008F0B5040085B0184F184E194D30
:103ACC0069460830009703960295FFF793FC684609
:103ADC00FEF70BF820006946183000970396029504
:103AEC00FFF788FC6846FEF700F82000694628308E
:103AFC00009703960295FFF77DFC6846FDF7F5FFEE
:103B0C00200069463830009703960295FFF772FC47
:103B1C006846FDF7EAFF05B0F0BDC0467D0400081D
:103B2C00A5040008AD040008F0B5040085B0184FDA
:103B3C00184E194D69460830009703960295FFF709
:103B4C0059FC6846FDF7D1FF2000694618300097F4
:103B5C0003960295FFF74EFC6846FDF7C6FF200062
:103B6C0069462830009703960295FFF743FC684698
:103B7C00FDF7BBFF2000694638300097039602958D
:103B8C00FFF738FC6846FDF7B0FF05B0F0BDC04646
:103B9C007D040008A5040008AD0400081FB5074B00
:103BAC0000900393064B694608300293FFF722FC02
:103BBC006846FDF79AFF05B000BDC046D931000834
:103BCC00C30400081FB50400144B69460393144B3F
:103BDC00009008300293FFF70DFC6846FDF785FF57
:103BEC002000104B694603930F4B1830029300943E
:103BFC00FFF700FC6846FDF778FF20000B4B694689
:103C0C0003930B4B383002930094FFF7F3FB684699
:103C1C00FDF76BFF2000FEF7F6FE1FBD672A0008BC
:103C2C00D90400087B2A0008EF040008CD310008F5
:103C3C00050500087FB5294B04000393284B694602
:103C4C00009008300293FFF7D5FB6846FDF74DFF57
:103C5C000022636823491A6065686846FDF7DCFF3B
:103C6C0028000525019A0099FEF7EDFD6068456076
:103C7C00A36A1988FEF74CFE66681B496846FDF777
:103C8C00CBFF019A00993000FEF7DDFD60684560BE
:103C9C00A36A5988FEF73CFE666814496846FDF72E
:103CAC00BBFF019A00993000FEF7CDFD60684560BE
:103CBC00A36A9988FEF72CFE66680D496846FDF7E5
:103CCC00ABFF0099019A3000FEF7BDFD60684560BE
:103CDC00A36AD988FEF71CFE7FBDC046A931000837
:103CEC00B505000820A3000830A3000840A3000875
:103CFC0050A300087FB50400284B69460393284B5A
:103D0C00009008300293FFF775FB6846FDF7EDFE57
:103D1C002000244B69460393234B183002930094E4
:103D2C00FFF768FB6846FDF7E0FE20001F4B694675
:103D3C0003931F4B383002930094FFF75BFB6846EC
:103D4C00FDF7D3FE20001B4B694603931A4B28301A
:103D5C0002930094FFF74EFB6846FDF7C6FE002564
:103D6C00012366681549337235606846FDF754FFC8
:103D7C00019A00993000FEF766FDFDF741FF230024
:103D8C00220068337832934201D020C3FBE703232F
:103D9C002000A367FEF7F0FD7FBDC046C5290008D3
:103DAC005D050008ED29000873050008B531000811
:103DBC0089050008B74A00089F05000865A400089B
:103DCC001FB50400144B69460393144B0090083044
:103DDC000293FFF70FFB6846FDF787FE2000104BA0
:103DEC00694603930F4B183002930094FFF702FBC4
:103DFC006846FDF77AFE20000B4B694603930B4B8C
:103E0C00383002930094FFF7F5FA6846FDF76DFE23
:103E1C002000FEF709FF1FBDDD2D00081B05000863
:103E2C00F12D000831050008C131000847050008D4
:103E3C0030B504003C4B85B003933C4B6946009075
:103E4C0008300293FFF7D6FA6846FDF74EFE656818
:103E5C002900280059310930FDF716FD00232B608D
:103E6C006568334A2B6001332B72A36A68461B7852
:103E7C009B009958FDF7D0FE019A00992800FEF797
:103E8C00E2FC142365682B492B606846FDF7C4FEE1
:103E9C00019A00992800FEF7D6FC636B1978FEF79F
:103EAC0037FD2823656824492B606846FDF7B4FE6E
:103EBC00019A00992800FEF7C6FCFDF78BFE656899
:103ECC001E496846FDF7A8FE019A00992800FEF7E6
:103EDC00BAFC032360684360E36A1988FEF718FD97
:103EEC00050017496846FDF797FE019A00992800CE
:103EFC00FEF7A9FC4423656812492B606846FDF760
:103F0C008BFE019A00992800FEF79DFC4A236468F9
:103F1C000D4923606846FDF77FFE0099019A200049
:103F2C00FEF791FC05B030BDE53100088F040008A8
:103F3C0084A2000885A300088BA300089AA300089C
:103F4C009CA3000802B700089EA3000830B504002B
:103F5C00424B89B00793424B04A90490103006934E
:103F6C00FFF748FA04A8FDF7C0FD20003D4B04A95B
:103F7C0007933D4B203006930494FFF73BFA04A8BB
:103F8C00FDF7B3FD2000394B04A90793384B3030B3
:103F9C0006930494FFF72EFA04A8FDF7A6FD200063
:103FAC00344B04A90793344B403006930494FFF729
:103FBC0021FA04A8FDF799FD0023E0680360216F46
:103FCC00626FFEF740FCFDF705FEA36FE5681B680A
:103FDC002A4AE36714232B60E36F04A89B009958CB
:103FEC00FDF71AFE059A04992800FEF72CFCFDF744
:103FFC00F1FDE56822496846FDF70EFE019A00992D
:10400C002800FEF720FC7E21FDF7D6FD05001D499A
:10401C0002A8FDF701FE039A02992800FEF713FC93
:10402C00FDF7D8FDE46818496846FDF7F5FD019ADF
:10403C0000992000FEF707FC7E21FDF7BDFD040072
:10404C00124902A8FDF7E8FD0299039A2000FEF739
:10405C00FAFBFDF7BFFD09B030BDC046052E0008C8
:10406C003B0C0008412E0008510C0008F1310008EF
:10407C00670C00080D3200087D0C00087CA20008BB
:10408C0060A300086BA3000873A300087EA30008BC
:10409C0030B50400424B89B00793424B04A90490FD
:1040AC0010300693FFF7A6F904A8FDF71EFD2000BB
:1040BC003D4B04A907933D4B203006930494FFF726
:1040CC0099F904A8FDF711FD2000394B04A90793B9
:1040DC00384B303006930494FFF78CF904A8FDF7A5
:1040EC0004FD2000344B04A90793344B4030069355
:1040FC000494FFF77FF904A8FDF7F7FC0023E068B0
:10410C000360216F626FFEF79EFBFDF763FDA36FEB
:10411C00E5681B682A4AE36714232B60E36F04A845
:10412C009B009958FDF778FD059A04992800FEF735
:10413C008AFBFDF74FFDE56822496846FDF76CFDEB
:10414C00019A00992800FEF77EFB7E21FDF734FDD5
:10415C0005001D4902A8FDF75FFD039A029928008E
:10416C00FEF771FBFDF736FDE46818496846FDF76C
:10417C0053FD019A00992000FEF765FB7E21FDF7A7
:10418C001BFD0400124902A8FDF746FD0299039A93
:10419C002000FEF758FBFDF71DFD09B030BDC046F1
:1041AC007D2E0008930C0008B92E0008A90C0008FD
:1041BC0019320008BF0C000835320008D50C000875
:1041CC00F8A2000860A300086BA3000873A3000802
:1041DC007EA3000830B504003D4B87B005933D4BE2
:1041EC0002A902900C300493FFF704F902A8FDF722
:1041FC007CFC2000384B02A90593384B1C300493EF
:10420C000294FFF7F7F802A8FDF76FFC2000344B7F
:10421C0002A90593334B2C3004930294FFF7EAF870
:10422C0002A8FDF762FC20002F4B02A905932F4B2F
:10423C003C3004930294FFF7DDF802A8FDF755FC1F
:10424C000023A0680360226FE16EFEF7FCFAFDF715
:10425C00C1FC636FA0681988230078331980FEF7BE
:10426C0057FBFDF7B7FCA56821496846FDF7D4FC60
:10427C00019A00992800FEF7E6FA7E21FDF79CFCD6
:10428C0005001C4902A8FDF7C7FC039A02992800F7
:10429C00FEF7D9FAFDF79EFCA46817496846FDF7AE
:1042AC00BBFC019A00992000FEF7CDFA7E21FDF7A8
:1042BC0083FC0400114902A8FDF7AEFC0299039A95
:1042CC002000FEF7C0FAFDF785FC07B030BDC046F4
:1042DC00972A0008EB0C0008C52A0008010D0008FD
:1042EC0041320008170D0008613200082D0D00083E
:1042FC0060A300086BA3000873A300087EA300084A
:10430C0030B50400434B89B00793434B04A9049088
:10431C000C300693FFF76EF804A8FDF7E6FB2000BF
:10432C003E4B04A907933E4B1C3006930494FFF7B5
:10433C0061F804A8FDF7D9FB20003A4B04A90793B8
:10434C00394B2C3006930494FFF754F804A8FDF76E
:10435C00CCFB2000354B04A90793354B3C3006931E
:10436C000494FFF747F804A8FDF7BFFB0023A068EF
:10437C000360E16E226FFEF766FAFDF72BFC636FAC
:10438C0004A81A78230078331A701422A5682A60BE
:10439C001B78284A9B009958FDF73EFC059A049916
:1043AC002800FEF750FAFDF715FCA568224968466F
:1043BC00FDF732FC019A00992800FEF744FA7E21A1
:1043CC00FDF7FAFB05001D4902A8FDF725FC039A31
:1043DC0002992800FEF737FAFDF7FCFBA468184990
:1043EC006846FDF719FC019A00992000FEF72BFA9C
:1043FC007E21FDF7E1FB0400124902A8FDF70CFC3D
:10440C000299039A2000FEF71EFAFDF7E3FB09B0B0
:10441C0030BDC046F52E0008430D0008392F0008AA
:10442C00590D00086D3200086F0D00088D32000820
:10443C00850D000884A2000860A300086BA3000887
:10444C0073A300087EA3000830B50400434B89B069
:10445C000793434B04A904900C300693FEF7CAFF54
:10446C0004A8FDF742FB20003E4B04A907933E4BEA
:10447C001C3006930494FEF7BDFF04A8FDF735FB32
:10448C0020003A4B04A90793394B2C300693049423
:10449C00FEF7B0FF04A8FDF728FB2000354B04A95C
:1044AC000793354B3C3006930494FEF7A3FF04A806
:1044BC00FDF71BFB0023A0680360E16E226FFEF783
:1044CC00C2F9FDF787FB636F04A81A7823007833D1
:1044DC001A701422A5682A601B78284A9B009958E8
:1044EC00FDF79AFB059A04992800FEF7ACF9FDF745
:1044FC0071FBA56822496846FDF78EFB019A00996D
:10450C002800FEF7A0F97E21FDF756FB05001D499A
:10451C0002A8FDF781FB039A02992800FEF793F994
:10452C00FDF758FBA46818496846FDF775FB019A1E
:10453C0000992000FEF787F97E21FDF73DFB040072
:10454C00124902A8FDF768FB0299039A2000FEF7B6
:10455C007AF9FDF73FFB09B030BDC046812F00084A
:10456C00F30D0008C52F0008090E0008BD32000825
:10457C001F0E0008DD320008350E0008F0A20008FE
:10458C0060A300086BA3000873A300087EA30008B7
:10459C0030B50400434B89B00793434B04A90490F6
:1045AC000C300693FEF726FF04A8FDF79EFA2000B8
:1045BC003E4B04A907933E4B1C3006930494FEF724
:1045CC0019FF04A8FDF791FA20003A4B04A90793B0
:1045DC00394B2C3006930494FEF70CFF04A8FDF71E
:1045EC0084FA2000354B04A90793354B3C300693D5
:1045FC000494FEF7FFFE04A8FDF777FA0023A068E9
:10460C000360E16E226FFEF71EF9FDF7E3FA636FAC
:10461C0004A81A78230078331A701422A5682A602B
:10462C001B78284A9B009958FDF7F6FA059A0499CD
:10463C002800FEF708F9FDF7CDFAA568224968466F
:10464C00FDF7EAFA019A00992800FEF7FCF87E21A2
:10465C00FDF7B2FA05001D4902A8FDF7DDFA039A31
:10466C0002992800FEF7EFF8FDF7B4FAA468184990
:10467C006846FDF7D1FA019A00992000FEF7E3F89D
:10468C007E21FDF799FA0400124902A8FDF7C4FA3D
:10469C000299039A2000FEF7D6F8FDF79BFA09B0B1
:1046AC0030BDC0460D3000084B0E000851300008DC
:1046BC00610E0008E9320008770E00080933000883
:1046CC008D0E00087CA2000860A300086BA30008F4
:1046DC0073A300087EA3000830B50400434B89B0D7
:1046EC000793434B04A904900C300693FEF782FE0B
:1046FC0004A8FDF7FAF920003E4B04A907933E4BA2
:10470C001C3006930494FEF775FE04A8FDF7EDF932
:10471C0020003A4B04A90793394B2C300693049490
:10472C00FEF768FE04A8FDF7E0F92000354B04A95C
:10473C000793354B3C3006930494FEF75BFE04A8BC
:10474C00FDF7D3F90023A0680360E16E226FFEF73A
:10475C007AF8FDF73FFA636F04A81A7823007833D0
:10476C001A701422A5682A601B78284A9B00995855
:10477C00FDF752FA059A04992800FEF764F8FDF744
:10478C0029FAA56822496846FDF746FA019A00996C
:10479C002800FEF758F87E21FDF70EFA05001D499A
:1047AC0002A8FDF739FA039A02992800FEF74BF894
:1047BC00FDF710FAA46818496846FDF72DFA019A1E
:1047CC0000992000FEF73FF87E21FDF7F5F9040073
:1047DC00124902A8FDF720FA0299039A2000FEF76D
:1047EC0032F8FDF7F7F909B030BDC0469930000832
:1047FC00A30E0008DD300008B90E000815330008C0
:10480C00CF0E000835330008E50E000800A30008A1
:10481C0060A300086BA3000873A300087EA3000824
:10482C0030B504003D4B87B005933D4B02A9029077
:10483C000C300493FEF7DEFD02A8FDF756F92000BC
:10484C00384B02A90593384B1C3004930294FEF7A5
:10485C00D1FD02A8FDF749F92000344B02A90593BC
:10486C00334B2C3004930294FEF7C4FD02A8FDF7E1
:10487C003CF920002F4B02A905932F4B3C3004939D
:10488C000294FEF7B7FD02A8FDF72FF90023A068EC
:10489C000360226FE16EFDF7D6FFFDF79BF9636FA6
:1048AC001978230078331970A068FEF731F8FDF7FA
:1048BC0091F9A56821496846FDF7AEF9019A00996E
:1048CC002800FDF7C0FF7E21FDF776F905001C4995
:1048DC0002A8FDF7A1F9039A02992800FDF7B3FF8E
:1048EC00FDF778F9A46817496846FDF795F9019A20
:1048FC0000992000FDF7A7FF7E21FDF75DF904006C
:10490C00114902A8FDF788F90299039A2000FDF7D6
:10491C009AFFFDF75FF907B030BDC046FD2A0008CD
:10492C00FB0E0008292B0008110F0008413300086A
:10493C00270F0008613300083D0F000860A3000832
:10494C006BA3000873A300087EA3000830B5040015
:10495C003C4B87B005933C4B02A90290103004935A
:10496C00FEF748FD02A8FDF7C0F82000374B02A95E
:10497C000593374B203004930294FEF73BFD02A8BD
:10498C00FDF7B3F82000334B02A90593324B3030BE
:10499C0004930294FEF72EFD02A8FDF7A6F8200062
:1049AC002E4B02A905932E4B403004930294FEF734
:1049BC0021FD02A8FDF799F80023E0680360626FFF
:1049CC00216FFDF740FFFDF705F9A36FE06819684B
:1049DC00E167FDF79DFFFDF7FDF8E56821496846A5
:1049EC00FDF71AF9019A00992800FDF72CFF7E219A
:1049FC00FDF7E2F805001C4902A8FDF70DF9039A32
:104A0C0002992800FDF71FFFFDF7E4F8E468174949
:104A1C006846FDF701F9019A00992000FDF713FF94
:104A2C007E21FDF7C9F80400114902A8FDF7F4F83E
:104A3C000299039A2000FDF706FFFDF7CBF807B0AB
:104A4C0030BDC046592B0008AB0F00087F2B000867
:104A5C00C10F000891330008D70F0008AD330008D0
:104A6C00ED0F000860A300086BA3000873A30008F7
:104A7C007EA30008002370B583608B6804000D00D2
:104A8C00002B05D002229847EB68E360AB68A3606B
:104A9C00200070BD07B583680191002B01D104F093
:104AAC009DFBC36801A9984707BD006870B5836F6B
:104ABC00013B8367002B0FDA0500030000210A2459
:104ACC00783568339D4203D0614304CB8918F9E7EC
:104ADC005830FFF7DFFF70BDFDF74EFFFBE71FB54A
:104AEC000C0001006846FFF7C5FF029B002B03D0AA
:104AFC0021006846FFF7CEFF6846FCF7F6FF1FBDA6
:104B0C0070B50C000978FC30826A4909C069FDF760
:104B1C0087FA01212278C3685208154D0A402B40B0
:104B2C0052021A43C2602378C2689B080B40114999
:104B3C001B030A401343C36023780269DB060E494A
:104B4C009B0F1B030A40134303612378DB070AD531
:104B5C008023C268DB001343C3608023C2689B01BF
:104B6C001343C36070BDC368044A1340F4E7C046E6
:104B7C00FFFDFFFFFFEFFFFFFFCFFFFFFFFBFFFF7F
:104B8C00002310B5FC300400436083604069FDF7DE
:104B9C00F5F80123216A0A689A430A60626A11686F
:104BAC0099431160FF215160626A11680B431360D5
:104BBC001368DB07FCD51023E269D1680B43D36083
:104BCC0010BD10B58468A369FC33D96A9869FDF7E8
:104BDC0079FA002805D0A069FFF7D2FF2000FCF776
:104BEC00D7FF10BD10B584682369FC33D96A986966
:104BFC00FDF768FA002802D02069FFF7C1FF10BD4D
:104C0C00036842791B889A4201D20122827102798F
:104C1C009A4201D9002383718079704710B5040042
:104C2C000068FFF7EDFF61680B78002803D02022A5
:104C3C0093430B7010BD01229806C00F42402020F8
:104C4C00520183431343F4E710B504000068FFF7E7
:104C5C00D7FF61680B78002803D0102293430B70A8
:104C6C0010BD0122D806C00F424010201201834310
:104C7C001343F4E7FF23F0B51D00064F064E0C78E6
:104C8C0001315C403B5D6B40355D8A42F7D105706C
:104C9C004370F0BD7CA000087CA1000810B5040096
:104CAC000CC90CC0FEF761FA200010BD82B0F8B53B
:104CBC00040007930AAB18780BAB207120001B780B
:104CCC000F4F63712760A1600C301100099EFEF735
:104CDC0033FA20000C994C30FEF747FA20000D995E
:104CEC005C30FEF742FA230007AD6C3306CD06C3E9
:104CFC006667327820001A71F8BC08BC02B01847FD
:104D0C006C9D0008F7B501217C4A7D4C1368A446C4
:104D1C000B4004D165467B4C6B602C601160042207
:104D2C00794B0F2599691143996161460C6821688B
:104D3C00A9430A432260012274490C68144204D12D
:104D4C00734D704C6A602C600A60042299690A43A6
:104D5C00F0219A616E4A146822688A43110040223D
:104D6C000A43226001246B490D68254205D1654D2B
:104D7C00694A0C6015600225556004219C69664ADD
:104D8C00214399611568654C29680C408021C90044
:104D9C00214329600125624C624926682E4204D1C8
:104DAC00584E25600E6003264E6004279C695E4DAC
:104DBC003C439C610E68346825408024E4012C43FC
:104DCC0034600126594D5A4C2A68324203D14D4A5F
:104DDC00676022602E6004259E6935439D612768BB
:104DEC0080243D68534EE40235402C433C6001273F
:104DFC00514D00962A68514C3A4204D1414E2F60D5
:104E0C0026600526666004259E6935439D612768EA
:104E1C0080243D684A4EE40335402C433C60012716
:104E2C00484D01962A68484C3A4204D1354E2F60C1
:104E3C0026600626666004259E6935439D612668BA
:104E4C00424D346825408024E4042C430125346011
:104E5C003F4C22682A4204D107273E4E294A25603E
:104E6C0084C604279C6980253C439C61394CED0524
:104E7C0026683468BC40FC402C4334600126364D17
:104E8C00364C2A68324203D1354A676022602E6064
:104E9C0010259E6935439D61256880242E68009AF3
:104EAC00E402164026432E6001252E4C22682A422D
:104EBC0004D105272C4E2A4A256084C6102480264E
:104ECC009D69F6032C439C61274B019A1C6825684D
:104EDC0015402E4326600360204B816143601D4BBF
:104EEC008360194BC360154B0361114B43610A4B33
:104EFC00C361074B036263464362FEBD1C01002085
:104F0C002001002000080140001002401001002088
:104F1C00140100200401002008010020FFF0FFFF15
:104F2C00F8000020FC000020FF0FFFFFEC00002029
:104F3C00F0000020FFFFF0FFE0000020E400002064
:104F4C00FFFF0FFFD4000020D8000020FFFFFFF070
:104F5C00C8000020CC000020BC000020C0000020B5
:104F6C0000100140B0000020B4000020F0B5012575
:104F7C008BB0070068460E00FFF7C4FE124C236886
:104F8C002B401ED11148436083600373104B876321
:104F9C000360099BC6630361089B4361079B8361A4
:104FAC00069BC361059B0362049B4362039B836264
:104FBC00029BC362019B0363009B4363FCF7E8FD08
:104FCC00256002480BB0F0BD840100208801002050
:104FDC00209E00080300FC339A68FE2A03D88154F3
:104FEC009A6801329A60704710B5FC300400406931
:104FFC00FCF7BCFE1021E269D3688B43D36001221D
:10500C00616A0B6893430B60216A0B6893430B60D6
:10501C00A3686068216A1B1A02339BB24B60236A37
:10502C0019680A431A601A68D207FCD510BD002211
:10503C00036973B5FC335A609A6004000D00431D7C
:10504C00861D012921D1D97F0069FFF7C3FF802379
:10505C00F17F1943FFF7BEFF2900FFF7BBFF216962
:10506C0001AD0B00FC339A685B688A182800C918DC
:10507C00FFF700FE69782069FFF7ACFF2978FFF78E
:10508C00A9FF2069FFF7B0FF73BD0069D97F022D1E
:10509C0003D1FFF79FFFF17FDCE7FFF79BFFF17F69
:1050AC00FFF798FF0321D8E7020010B5FC325368D4
:1050BC00946800219C4202D9591C5160C15C0800C3
:1050CC0010BD020010B5FC32536894689C4204D9A0
:1050DC005C1C5460C35C0B7010BD0023FBE702002A
:1050EC0070B5FC3253689268013304000D009A428B
:1050FC000BD9FFF7D9FF06002000FFF7D5FF3602CA
:10510C00C0B230432880200070BD00230B80FAE72A
:10511C008269F0B51100436AFC3104001D684868CF
:10512C002B79165C85B09E420DD00922A8692B18EC
:10513C001A7501300321FBF789F9A961636C0133FE
:10514C00636405B0F0BD8B681E1A022E38D9002797
:10515C00984202D2013B8B60D75CA16900200A0007
:10516C00FC32019093685068834203D9013B9360F1
:10517C00CB5C0193A16903AE0B00FC339A685B68AE
:10518C008A183000C918FFF775FD3378BB4217D168
:10519C007378019A934213D1A069FFF785FF02AB94
:1051AC00DF1C3900A069FFF78CFF3B787F2B0BD9F4
:1051BC003100A069FFF785FFA86932782B18B7E793
:1051CC00A86910222B18B3E72B7A032BB9D1310025
:1051DC00A069FFF776FFE968A069FFF780FFB0E7E9
:1051EC0070B50C000500090AFFF7F4FEE1B2FFF7F9
:1051FC00F1FE280070BD73B56B4604001A0060CC3C
:10520C0060C20A0030CA30C005CB05C173BD70B591
:10521C0005000C00FFF7EFFFAB68A268AA60A36063
:10522C00E268EB68EA60E36070BD1FB50400684695
:10523C00FDF79BFF21006846FFF7E9FF6846FCF786
:10524C0054FC200004B010BD10B54430FFF7EDFF46
:10525C0010BD10B53430FFF7E8FF10BD10B5243089
:10526C00FFF7E3FF10BD10B51430FFF7DEFF10BDE4
:10527C0010B54430FFF7D9FF10BD10B53430FFF72F
:10528C00D4FF10BD10B52430FFF7CFFF10BD10B503
:10529C001430FFF7CAFF10BD10B54430FFF7C5FF3F
:1052AC0010BD10B53430FFF7C0FF10BD10B5243061
:1052BC00FFF7BBFF10BD10B51430FFF7B6FF10BDE4
:1052CC0010B53430FFF7B1FF10BD10B53430FFF717
:1052DC00ACFF10BD10B54430FFF7A7FF10BD10B5E3
:1052EC004430FFF7A2FF10BD10B52430FFF79DFF2F
:1052FC0010BD10B51430FFF798FF10BD10B5243059
:10530C00FFF793FF10BD10B51430FFF78EFF10BDE3
:10531C0030B50023040089B0080069460293FFF7FA
:10532C0076FF236869469C6F04A823689D68FDF787
:10533C001CFF04A92000A84704A8FCF7D6FB68466C
:10534C00FCF7D3FB09B030BD30B50023040089B0A5
:10535C00080069460293FFF75AFF236869461C6FE1
:10536C0004A823689D68FDF700FF04A92000A84746
:10537C0004A8FCF7BAFB6846FCF7B7FB09B030BDD4
:10538C0030B50023040089B0080069460293FFF78A
:10539C003EFF236869465C6F04A823689D68FDF78F
:1053AC00E4FE04A92000A84704A8FCF79EFB68466D
:1053BC00FCF79BFB09B030BD30B50023040089B06D
:1053CC00080069460293FFF722FF236869469C6F29
:1053DC0004A823689D68FDF7C8FE04A92000A8470F
:1053EC0004A8FCF782FB6846FCF77FFB09B030BDD4
:1053FC0030B50023040089B0080069460293FFF71A
:10540C0006FF236869469C6F04A82368DD68FDF7D6
:10541C00ACFE04A92000A84704A8FCF766FB68466C
:10542C00FCF763FB09B030BD0B1A1B11002B18DD08
:10543C000268127C002A04D04268127C002A01D136
:10544C00043070478268127C002A01D10830F8E7DA
:10545C00C268127C002A01D10C30F2E71030013BFB
:10546C00E4E70B1A9B10022B0ED0032B07D0012B59
:10547C0003D103681B7C002BE3D00800E1E7036831
:10548C001B7C002BDDD0043003681B7C002BD8D098
:10549C000430EEE773B5437B0400012B06D0002BE0
:1054AC0000D17BE0022B00D1A4E073BD05000023EA
:1054BC001835406A1A1C2900FFF7B6FF6062854256
:1054CC0003D1230010336362EFE70026A36905685C
:1054DC00FC335E609E602979A069FFF77BFD297A19
:1054EC00A069FFF777FD3100A069FFF773FDA9797B
:1054FC00A069FFF76FFD3100A069FFF76BFD2B7AF8
:10550C00032B01D0102B2CD10121A069FFF762FDD8
:10551C002B7A102B07D10021A069FFF75BFDEB68FC
:10552C001978FFF757FDFD222B7AD91E114222D193
:10553C002B6801AE1B682900300098477178A06970
:10554C00FFF748FD3178FFF745FD0025636BE563F8
:10555C00E362A36CA0690133A364FFF745FD657397
:10556C00A3E7052BD4D1EB68A0691B883100002B75
:10557C00CCD05521CAE7102BE7D1A16901AD0B00A6
:10558C00FC339A685B688A182800C918FFF772FB0D
:10559C006978A069FFF71EFD2978D4E78369416B10
:1055AC00FC339A685B68D31AC26B9A4200D2C16210
:1055BC00A56A8D4210DB1222636A03211E68B06952
:1055CC0033181A750130FAF741FF636CB16101337E
:1055DC0063640223A5636373E36AED1A236B9D4234
:1055EC0000DA62E72000FFF793FDA36AA3630223AE
:1055FC0063735AE7836A826B093B934200DC54E77E
:10560C0000238362FCF79EFA636A0433636201230E
:10561C00EEE70000A523CB20F0B50025364CDB00CF
:10562C00A54464ACA382354B354E6A93400006AB5F
:10563C0008222900C018E58125826682A575257788
:10564C0003F0B6FE2F4B06AA083364932E4B2F495A
:10565C00A362C3235B009B18E3621300E222520097
:10566C009B181D802A4B3C3223657C937DAB1D70AF
:10567C00DE236265E265FF3306AA9B181D70E023EA
:10568C00FF339B18A1652A00FF216560A560257377
:10569C00A5641D700896130001323033E154182AAA
:1056AC00F9D100214EA803F083FEA06AFCF7F4F8B0
:1056BC00002678AD6B684EA859002B685918994292
:1056CC000FD01A78172A08D85F78A21830321770C2
:1056DC0001271A7887540233F1E71A880D4FBA4222
:1056EC00F9D17C932A689A4216D1A6640835012E0A
:1056FC0021D00126DEE7C046B4EBFFFF0001001409
:10570C0001370000A8B400080020024000F801088E
:10571C0000FC0108FFFF0000696849005218934221
:10572C0001D102F07BFC54AFA66439004EA8FBF704
:10573C00D9FFB842DAD1A36CDA00A218516D126D00
:10574C0049005218216E91420BD1EC4A06A952180D
:10575C00D318EB4A9B1801221A700023A364789B80
:10576C007C9354AD29004EA8FBF7BCFF0600A84261
:10577C0001D002F059FC182270A9E06A03F0FCFD7C
:10578C000023DE2106AAFF3152181370E22206AB69
:10579C0052009B181B78002B14D1A36C002B11D03A
:1057AC00636DD8485A00789B9A181900934201D01F
:1057BC0002F046FC8A1A511E8A41E22106AB4900CE
:1057CC005B181A70C62206ABFF329B181B78002B95
:1057DC0019D1A36C012B16D0E36D7A9A5B00C948E2
:1057EC00D3181100934201D102F033FC0232971E00
:1057FC003F888742F5D05B1AC6215A1E9341FF3170
:10580C0006AA52181370E32706AB7F00FF18390065
:10581C0077A8FBF795FFB84202D003227DAB1A7034
:10582C008023A26A11690B431361AE4212D0C323C9
:10583C0006A85B001B1818001822002103F0B8FD05
:10584C00089B6382A523DB00A38280235B00238358
:10585C00EC3BE3762000FCF79BF9C52201275200B4
:10586C0006AB9B181B78023A089306AB9B181B8857
:10587C0006AA9383FCF7DEFDA34EA44C35683D408D
:10588C004AD1A34B089A08332360A24B2061A36131
:10589C00631DDA7723002C331D709F4B9F48083310
:1058AC00A3639F496560A5602573E563246460610B
:1058BC00E5612562E584258565852586FBF772FF04
:1058CC00984B994908336364A069A564E464FBF7B9
:1058DC0069FF2000EC222900503003F069FD200004
:1058EC0084223D3052002900FF3003F061FD9123EA
:1058FC009B00E018EC22290003F05AFDCC239B00FE
:10590C00E018EC22290003F053FD884B7622E018B6
:10591C00290003F04DFD376006AB1B7F1F221900D9
:10592C0091431B3A002908D0013A202905D03C327A
:10593C009343403B5A425A41013220690DA92262DD
:10594C00FFF7DEF82069FFF71BF908220F940F9B75
:10595C0064AEFE33DA879F23F1890F9A5B00D15234
:10596C00318A0F9A0233D152B17C0F9A0233D15241
:10597C00CC2201270F99433B92008B520F996C4A12
:10598C0000258F520F996B4A54AC8B520A210F9AF7
:10599C005233FF33D7520F9AEC33D15203230B37C8
:1059AC0023725BAB2771E36003222900E580257429
:1059BC0059A803F0FDFC604B06AA54933E23FF3319
:1059CC009B180322DF775EAB1A7063AB0B3FE3626D
:1059DC0060ABE7841D700322A561A583290061A833
:1059EC0003F0E6FC554BA5632362A587338A544E1E
:1059FC00099332683A401700AA424AD1FCF706FED6
:105A0C00099A06AB4F4D1A844F4B08902B6001231B
:105A1C006B734E4B6F60EB614D4BAF602B622B0089
:105A2C0010336B6213062F73A861AF625B0F0422F5
:105A3C00002B09D0013A012B06D004320633134057
:105A4C00063A934200D8013264236B632B00002783
:105A5C00290040331F703F4B4C31EB643B482F65A2
:105A6C006D652A636F64AF63AF64FBF79BFE29001F
:105A7C00394B5831AB65286AEF652D66FBF792FE02
:105A8C005CAB0EA908986B612C61FFF739F8012308
:105A9C0033600023314A7EAD7E92314AAB606A603E
:105AAC000122EB602B746B74EB61EB62EB63EB64C8
:105ABC00EB652C4B2C491868104204D12B481A600A
:105ACC000860082048600823294F0026BA699AAC60
