:020000040800F2
:100000000050002059AF0008A1AF0008A1AF0008C0
:10001000A1AF0008A1AF0008A1AF000800000000D8
:10002000000000000000000000000000A1AF000878
:10003000A1AF000800000000A1AF0008CD1B000820
:1000400017220008192200081B2200081D220008A0
:100050001F22000821220008252200084122000852
:100060005D22000879220008952200081924000862
:1000700035240008512400086D2400088924000854
:10008000A5240008C1240008B1220008B3220008FA
:10009000B5220008B7220008B9220008BD220008D6
:1000A000292300082B2300082D2300082F230008F4
:1000B00031230008332300083523000837230008C4
:1000C000392300083B2300083D2300083F23000894
:1000D00041230008C5230008E1230008FD23000890
:1000E00045230008C1230008C323000800000000C6
:1000F0000000000000000000000000000000000000
:0C01000000000000000000005FF808F1A3
:10010C0010B5064C2378002B07D1054B002B02D0E1
:10011C000448AFF300800123237010BD6800002059
:10012C0000000000C0BA0008044B10B5002B03D02F
:10013C0003490448AFF3008010BDC0460000000026
:10014C006C000020C0BA00080023C25C0133002AF6
:10015C00FBD1581E7047000002B471464908490093
:10016C00095C49008E4402BC7047C046002243081B
:10017C008B4274D303098B425FD3030A8B4244D363
:10018C00030B8B4228D3030C8B420DD3FF220902A5
:10019C0012BA030C8B4202D31212090265D0030B64
:1001AC008B4219D300E0090AC30B8B4201D3CB035A
:1001BC00C01A5241830B8B4201D38B03C01A52419C
:1001CC00430B8B4201D34B03C01A5241030B8B429E
:1001DC0001D30B03C01A5241C30A8B4201D3CB0289
:1001EC00C01A5241830A8B4201D38B02C01A52416E
:1001FC00430A8B4201D34B02C01A5241030A8B4271
:10020C0001D30B02C01A5241CDD2C3098B4201D388
:10021C00CB01C01A524183098B4201D38B01C01A06
:10022C00524143098B4201D34B01C01A524103097D
:10023C008B4201D30B01C01A5241C3088B4201D32C
:10024C00CB00C01A524183088B4201D38B00C01AD9
:10025C00524143088B4201D34B00C01A5241411A00
:10026C0000D20146524110467047FFE701B500200D
:10027C0000F0F0F802BDC0460029F7D076E77047D1
:10028C0003460B437FD4002243088B4274D30309EB
:10029C008B425FD3030A8B4244D3030B8B4228D38C
:1002AC00030C8B420DD3FF22090212BA030C8B42B2
:1002BC0002D31212090265D0030B8B4219D300E052
:1002CC00090AC30B8B4201D3CB03C01A5241830BD7
:1002DC008B4201D38B03C01A5241430B8B4201D387
:1002EC004B03C01A5241030B8B4201D30B03C01AB0
:1002FC005241C30A8B4201D3CB02C01A5241830A2A
:10030C008B4201D38B02C01A5241430A8B4201D358
:10031C004B02C01A5241030A8B4201D30B02C01A82
:10032C005241CDD2C3098B4201D3CB01C01A5241E9
:10033C0083098B4201D38B01C01A524143098B4272
:10034C0001D34B01C01A524103098B4201D30B015B
:10035C00C01A5241C3088B4201D3CB00C01A524180
:10036C0083088B4201D38B00C01A524143088B4245
:10037C0001D34B00C01A5241411A00D201465241DE
:10038C00104670475DE0CA0F00D04942031000D3FD
:10039C004042534000229C4603098B422DD3030A52
:1003AC008B4212D3FC22890112BA030A8B420CD362
:1003BC00890192118B4208D3890192118B4204D38B
:1003CC0089013AD0921100E08909C3098B4201D30B
:1003DC00CB01C01A524183098B4201D38B01C01A45
:1003EC00524143098B4201D34B01C01A52410309BC
:1003FC008B4201D30B01C01A5241C3088B4201D36B
:10040C00CB00C01A524183088B4201D38B00C01A17
:10041C005241D9D243088B4201D34B00C01A5241EE
:10042C00411A00D20146634652415B10104601D37B
:10043C004042002B00D54942704763465B1000D305
:10044C00404201B5002000F005F802BD0029F8D0AB
:10045C0016E770477047C0461F22430910401E3AEA
:10046C00824002499B005A507047C04600E100E0B0
:10047C004369013343617047704770477047704759
:10048C00012A03D0022A03D0002070470160FBE749
:10049C000B680360F8E7012A03D0022A03D000207E
:1004AC0070470160FBE70B680360F8E7012A03D093
:1004BC00022A03D0002070470160FBE70B68036041
:1004CC00F8E7012A03D0022A03D00020704701600C
:1004DC00FBE70B680360F8E7012A03D0022A03D07C
:1004EC00002070470160FBE70B680360F8E7012A06
:1004FC0003D0022A03D0002070470160FBE70B6891
:10050C000360F8E7012A03D0022A03D000207047C9
:10051C000160FBE70B680360F8E7012A03D0022AAD
:10052C0003D0002070470160FBE70B680360F8E71D
:10053C00012A03D0022A03D0002070470160FBE798
:10054C000B680360F8E7012A03D0022A03D00020CD
:10055C0070470160FBE70B680360F8E7012A03D0E2
:10056C00022A03D0002070470160FBE70B68036090
:10057C00F8E7012A03D0022A03D00020704701605B
:10058C00FBE70B680360F8E7012A03D0022A03D0CB
:10059C00002070470160FBE70B680360F8E7012A55
:1005AC0003D0022A03D0002070470160FBE70CC97E
:1005BC000CC0F8E7012A03D0022A03D000207047B0
:1005CC000160FBE70CC90CC0F8E7012A03D0022A32
:1005DC0003D0002070470160FBE70B680360F8E76D
:1005EC00012A03D0022A03D0002070470160FBE7E8
:1005FC000B680360F8E7012A03D0022A03D000201D
:10060C0070470160FBE70B680360F8E7012A03D031
:10061C00022A03D0002070470160FBE70B680360DF
:10062C00F8E7012A03D0022A03D0002070470160AA
:10063C00FBE70B680360F8E7012A03D0022A03D01A
:10064C00002070470160FBE70B680360F8E7012AA4
:10065C0003D0022A03D0002070470160FBE70B682F
:10066C000360F8E7012A03D0022A03D00020704768
:10067C000160FBE70B680360F8E7012A03D0022A4C
:10068C0003D0002070470160FBE70B680360F8E7BC
:10069C00012A03D0022A03D0002070470160FBE737
:1006AC000B680360F8E7012A03D0022A03D000206C
:1006BC0070470160FBE70B680360F8E7012A03D081
:1006CC00022A03D0002070470160FBE70B6803602F
:1006DC00F8E7012A03D0022A03D0002070470160FA
:1006EC00FBE70B680360F8E7012A03D0022A03D06A
:1006FC00002070470160FBE70B680360F8E7012AF4
:10070C0003D0022A03D0002070470160FBE70B687E
:10071C000360F8E77047012A00D1016000207047A0
:10072C00012A00D1016000207047012A03D0022A5F
:10073C0003D0002070470160FBE70B680360F8E70B
:10074C00012A03D0022A03D0002070470160FBE786
:10075C000B680360F8E7012A03D0022A03D00020BB
:10076C0070470160FBE70B680360F8E7012A03D0D0
:10077C00022A03D0002070470160FBE70B6803607E
:10078C00F8E7012A03D0022A03D000207047016049
:10079C00FBE70B680360F8E7012A03D0022A03D0B9
:1007AC00002070470160FBE70B680360F8E7012A43
:1007BC0003D0022A03D0002070470160FBE70B68CE
:1007CC000360F8E7012A03D0022A03D00020704707
:1007DC000160FBE70B680360F8E7012A03D0022AEB
:1007EC0003D0002070470160FBE70B680360F8E75B
:1007FC00012A03D0022A03D0002070470160FBE7D6
:10080C000B680360F8E7012A03D0022A03D000200A
:10081C0070470160FBE70B680360F8E7012A03D01F
:10082C00022A03D0002070470160FBE70B680360CD
:10083C00F8E7012A03D0022A03D000207047016098
:10084C00FBE70B680360F8E7012A03D0022A03D008
:10085C00002070470160FBE70B680360F8E7012A92
:10086C0003D0022A03D0002070470160FBE70B681D
:10087C000360F8E7012A03D0022A03D00020704756
:10088C000160FBE70B680360F8E7012A03D0022A3A
:10089C0003D0002070470160FBE70B680360F8E7AA
:1008AC00012A03D0022A03D0002070470160FBE725
:1008BC000B680360F8E7012A03D0022A03D000205A
:1008CC0070470160FBE70B680360F8E7012A03D06F
:1008DC00022A03D0002070470160FBE70B6803601D
:1008EC00F8E7012A03D0022A03D0002070470160E8
:1008FC00FBE70B680360F8E7012A03D0022A03D058
:10090C00002070470160FBE70B680360F8E7012AE1
:10091C0003D0022A03D0002070470160FBE70B686C
:10092C000360F8E7012A03D0022A03D000207047A5
:10093C000160FBE70B680360F8E7012A03D0022A89
:10094C0003D0002070470160FBE70B680360F8E7F9
:10095C00012A03D0022A03D0002070470160FBE774
:10096C000B680360F8E7012A03D0022A03D00020A9
:10097C0070470160FBE70B680360F8E7012A03D0BE
:10098C00022A03D0002070470160FBE70B6803606C
:10099C00F8E7012A03D0022A03D000207047016037
:1009AC00FBE70B680360F8E7012A03D0022A03D0A7
:1009BC00002070470160FBE70B680360F8E7012A31
:1009CC0003D0022A03D0002070470160FBE70B68BC
:1009DC000360F8E7012A03D0022A03D000207047F5
:1009EC000160FBE70B680360F8E7012A03D0022AD9
:1009FC0003D0002070470160FBE70B680360F8E749
:100A0C00012A03D0022A03D0002070470160FBE7C3
:100A1C000B680360F8E7012A03D0022A03D00020F8
:100A2C0070470160FBE70B680360F8E7012A03D00D
:100A3C00022A03D0002070470160FBE70B680360BB
:100A4C00F8E7012A03D0022A03D000207047016086
:100A5C00FBE70B680360F8E7012A03D0022A03D0F6
:100A6C00002070470160FBE70B680360F8E7012A80
:100A7C0003D0022A03D0002070470160FBE70B680B
:100A8C000360F8E7012A03D0022A03D00020704744
:100A9C000160FBE70B680360F8E7012A03D0022A28
:100AAC0003D0002070470160FBE70B680360F8E798
:100ABC00012A03D0022A03D0002070470160FBE713
:100ACC000B680360F8E7012A03D0022A03D0002048
:100ADC0070470160FBE70B680360F8E7012A03D05D
:100AEC00022A03D0002070470160FBE70B6803600B
:100AFC00F8E7012A03D0022A03D0002070470160D6
:100B0C00FBE70B680360F8E7012A03D0022A03D045
:100B1C00002070470160FBE70B680360F8E7012ACF
:100B2C0003D0022A03D0002070470160FBE70B685A
:100B3C000360F8E7012A03D0022A03D00020704793
:100B4C000160FBE70B680360F8E7012A03D0022A77
:100B5C0003D0002070470160FBE70B680360F8E7E7
:100B6C00012A03D0022A03D0002070470160FBE762
:100B7C000B680360F8E7012A03D0022A03D0002097
:100B8C0070470160FBE70B680360F8E7012A03D0AC
:100B9C00022A03D0002070470160FBE70B6803605A
:100BAC00F8E7012A03D0022A03D000207047016025
:100BBC00FBE70B680360F8E7012A03D0022A03D095
:100BCC00002070470160FBE70B680360F8E7012A1F
:100BDC0003D0022A03D0002070470160FBE70B68AA
:100BEC000360F8E7012A03D0022A03D000207047E3
:100BFC000160FBE70B680360F8E7012A03D0022AC7
:100C0C0003D0002070470160FBE70B680360F8E736
:100C1C00012A03D0022A03D0002070470160FBE7B1
:100C2C000B680360F8E7012A03D0022A03D00020E6
:100C3C0070470160FBE70CC90CC0F8E7012A03D030
:100C4C00022A03D0002070470160FBE70CC90CC0DE
:100C5C00F8E7836A013383627047C3690133C36168
:100C6C0070477047704770477047704770477047C0
:100C7C00704770477047704770477047012A03D020
:100C8C00022A03D0002070470160FBE70B68036069
:100C9C00F8E7012A03D0022A03D000207047016034
:100CAC00FBE70B680360F8E7012A03D0022A03D0A4
:100CBC00002070470160FBE70B680360F8E7012A2E
:100CCC0003D0022A03D0002070470160FBE70B68B9
:100CDC000360F8E7012A03D0022A03D000207047F2
:100CEC000160FBE70B680360F8E7012A03D0022AD6
:100CFC0003D0002070470160FBE70B680360F8E746
:100D0C00012A03D0022A03D0002070470160FBE7C0
:100D1C000B680360F8E7012A03D0022A03D00020F5
:100D2C0070470160FBE70B680360F8E7012A03D00A
:100D3C00022A03D0002070470160FBE70B680360B8
:100D4C00F8E7012A03D0022A03D000207047016083
:100D5C00FBE70B680360F8E7012A03D0022A03D0F3
:100D6C00002070470160FBE70B680360F8E7012A7D
:100D7C0003D0022A03D0002070470160FBE70B6808
:100D8C000360F8E7012A03D0022A03D00020704741
:100D9C000160FBE70B680360F8E7012A03D0022A25
:100DAC0003D0002070470160FBE70B680360F8E795
:100DBC00012A03D0022A03D0002070470160FBE710
:100DCC000B680360F8E7012A03D0022A03D0002045
:100DDC0070470160FBE70B680360F8E7012A03D05A
:100DEC00022A03D0002070470160FBE70B68036008
:100DFC00F8E7012A03D0022A03D0002070470160D3
:100E0C00FBE70B680360F8E7012A03D0022A03D042
:100E1C00002070470160FBE70B680360F8E7012ACC
:100E2C0003D0022A03D0002070470160FBE70B6857
:100E3C000360F8E7012A03D0022A03D00020704790
:100E4C000160FBE70B680360F8E7012A03D0022A74
:100E5C0003D0002070470160FBE70B680360F8E7E4
:100E6C00012A03D0022A03D0002070470160FBE75F
:100E7C000B680360F8E7012A03D0022A03D0002094
:100E8C0070470160FBE70B680360F8E7012A03D0A9
:100E9C00022A03D0002070470160FBE70B68036057
:100EAC00F8E7012A03D0022A03D000207047016022
:100EBC00FBE70B680360F8E7012A03D0022A03D092
:100ECC00002070470160FBE70B680360F8E7012A1C
:100EDC0003D0022A03D0002070470160FBE70B68A7
:100EEC000360F8E7012A03D0022A03D000207047E0
:100EFC000160FBE70B680360F8E7012A03D0022AC4
:100F0C0003D0002070470160FBE70B680360F8E733
:100F1C00012A03D0022A03D0002070470160FBE7AE
:100F2C000B680360F8E7012A03D0022A03D00020E3
:100F3C0070470160FBE70B680360F8E7012A03D0F8
:100F4C00022A03D0002070470160FBE70B680360A6
:100F5C00F8E7012A03D0022A03D000207047016071
:100F6C00FBE70B680360F8E7012A03D0022A03D0E1
:100F7C00002070470160FBE70B680360F8E7012A6B
:100F8C0003D0022A03D0002070470160FBE70B68F6
:100F9C000360F8E7012A03D0022A03D0002070472F
:100FAC000160FBE70B680360F8E7012A03D0022A13
:100FBC0003D0002070470160FBE70B680360F8E783
:100FCC00012A03D0022A03D0002070470160FBE7FE
:100FDC000B680360F8E7012A03D0022A03D0002033
:100FEC0070470160FBE70B680360F8E7012A03D048
:100FFC00022A03D0002070470160FBE70B680360F6
:10100C00F8E7012A03D0022A03D0002070470160C0
:10101C00FBE70B680360F8E7012A03D0022A03D030
:10102C00002070470160FBE70B680360F8E7012ABA
:10103C0003D0022A03D0002070470160FBE70B6845
:10104C000360F8E7012A03D0022A03D0002070477E
:10105C000160FBE70B680360F8E7012A03D0022A62
:10106C0003D0002070470160FBE70B680360F8E7D2
:10107C00012A03D0022A03D0002070470160FBE74D
:10108C000B680360F8E7012A03D0022A03D0002082
:10109C0070470160FBE70B680360F8E7012A03D097
:1010AC00022A03D0002070470160FBE70B68036045
:1010BC00F8E7012A03D0022A03D000207047016010
:1010CC00FBE70B680360F8E7012A03D0022A03D080
:1010DC00002070470160FBE70B680360F8E7012A0A
:1010EC0003D0022A03D0002070470160FBE70B6895
:1010FC000360F8E7012A03D0022A03D000207047CE
:10110C000160FBE70B680360F8E7012A03D0022AB1
:10111C0003D0002070470160FBE70B680360F8E721
:10112C00012A03D0022A03D0002070470160FBE79C
:10113C000B680360F8E7012A03D0022A03D00020D1
:10114C0070470160FBE70B680360F8E7012A03D0E6
:10115C00022A03D0002070470160FBE70B68036094
:10116C00F8E7012A03D0022A03D00020704701605F
:10117C00FBE70B680360F8E7012A03D0022A03D0CF
:10118C00002070470160FBE70B680360F8E7012A59
:10119C0003D0022A03D0002070470160FBE70B68E4
:1011AC000360F8E7012A03D0022A03D0002070471D
:1011BC000160FBE70B680360F8E7012A03D0022A01
:1011CC0003D0002070470160FBE70B680360F8E771
:1011DC00012A03D0022A03D0002070470160FBE7EC
:1011EC000B680360F8E7012A03D0022A03D0002021
:1011FC0070470160FBE70B680360F8E7012A03D036
:10120C00022A03D0002070470160FBE70B680360E3
:10121C00F8E7012A03D0022A03D0002070470160AE
:10122C00FBE70B680360F8E7012A03D0022A03D01E
:10123C00002070470160FBE70B680360F8E7012AA8
:10124C0003D0022A03D0002070470160FBE70B6833
:10125C000360F8E7012A03D0022A03D0002070476C
:10126C000160FBE70B680360F8E7012A03D0022A50
:10127C0003D0002070470160FBE70B680360F8E7C0
:10128C0070B50C000500006803689B6898472368DC
:10129C002C601B682000984770BD006810B50100D9
:1012AC003531FF318830FFF7EBFF10BD006810B50A
:1012BC0001008830F031FFF7E3FF10BD852310B536
:1012CC0000689B00C1188830FFF7DAFF10BDC423FB
:1012DC0010B500689B00C1188830FFF7D1FF10BD16
:1012EC00A02310B50068DB00C1188830FFF7C8FFD9
:1012FC0010BD000010B50068024BC1188830FFF714
:10130C00BFFF10BD3C130000006810B50100353163
:10131C00FF318830FFF7B4FF10BDB72310B500685C
:10132C009B00C1188830FFF7ABFF10BD852310B5AB
:10133C0000689B00C1188830FFF7A2FF10BD006841
:10134C0010B501003531FF318830FFF799FF10BD22
:10135C00F62310B500689B00C1188830FFF790FF8A
:10136C0010BD10B503681A1DD26F917C8D22D2006E
:10137C0099508C230068DB00C1188830FFF780FF80
:10138C0010BDC42310B500689B00C1188830FFF74E
:10139C0077FF10BDC42310B500689B00C1188830BE
:1013AC00FFF76EFF10BD006810B501003531FF313D
:1013BC008830FFF765FF10BDBC2310B50068DB005B
:1013CC00C1188830FFF75CFF10BD000010B5006835
:1013DC00024BC1188830FFF753FF10BD64060000A4
:1013EC00E02310B50068DB00C1188830FFF748FF18
:1013FC0010BD000010B50068024BC1188830FFF713
:10140C003FFF10BD180B0000A02310B50068DB00D7
:10141C00C1188830FFF734FF10BDA02310B5006849
:10142C00DB00C1188830FFF72BFF10BDA02310B5CF
:10143C000068DB00C1188830FFF722FF10BDFF23C6
:10144C0010B50068DB00C1188830FFF719FF10BD1C
:10145C0010B50068024BC1188830FFF711FF10BDA2
:10146C009808000010B50068024BC1188830FFF7CF
:10147C0007FF10BD3809000010B50068024BC118F9
:10148C008830FFF7FDFE10BDD809000010B50068CC
:10149C00024BC1188830FFF7F3FE10BD780A00002C
:1014AC00E02310B50068DB00C1188830FFF7E8FEB8
:1014BC0010BDE02310B50068DB00C1188830FFF7C1
:1014CC00DFFE10BD10B51F240068074BC16FC25C56
:1014DC008B785201234013438B70E023DB00C1183F
:1014EC008830FFF7CDFE10BD94080000E02310B546
:1014FC000068DB00C1188830FFF7C2FE10BD000089
:10150C0010B50068084B0124C25CC16F531E9A4190
:10151C008B78A34313438B70E023DB00C118883016
:10152C00FFF7AEFE10BDC04634090000E02310B535
:10153C000068DB00C1188830FFF7A2FE10BD000068
:10154C00012210B502240068074BC16FC35C1A401E
:10155C008B785200A34313438B70E023DB00C1183C
:10156C008830FFF78DFE10BDD4090000E02310B5C4
:10157C000068DB00C1188830FFF782FE10BD000048
:10158C0010B50068094B1824C358C16F013B5A1E93
:10159C0093418A785B00A243DB0013438B70E023FA
:1015AC00DB00C1188830FFF76BFE10BD740A000019
:1015BC00A02310B50068DB00C1188830FFF760FE6F
:1015CC0010BD000003680A68180010B58830D02AD6
:1015DC0004D1044A9918FFF753FE10BDA022D20083
:1015EC00F8E7C046B80B0000A02310B50068DB007C
:1015FC00C1188830FFF744FE10BDD12310B5006828
:10160C001B01C1188830FFF73BFE10BD10B50068F8
:10161C00024BC1188830FFF733FE10BDAC0D000033
:10162C0010B50068024BC1188830FFF729FE10BDB9
:10163C00480E000010B50068024BC1188830FFF747
:10164C001FFE10BDE40E0000F82310B500681B014E
:10165C00C1188830FFF714FE10BD000010B50068EB
:10166C00024BC1188830FFF70BFE10BD1C10000098
:10167C0000220168044B10B5CA500068034BC11816
:10168C008830FFF7FDFD10BDB40B000054110000B5
:10169C0010B50068024BC1188830FFF7F1FD10BD82
:1016AC00F811000010B50068024BC1188830FFF724
:1016BC00E7FD10BD9C12000010B50068024BC1186C
:1016CC008830FFF7DDFD10BDB80B000010B50068C9
:1016DC00024BC1188830FFF7D3FD10BDB80B0000CA
:1016EC0010B50068024BC1188830FFF7C9FD10BD5A
:1016FC00B80B000010B504680222231DD86FE36FED
:10170C001230D91D09F05BFD2000034B8830E11825
:10171C00FFF7B6FD10BDC046B80B000010B5006851
:10172C00024BC1188830FFF7ABFD10BDB80B0000A1
:10173C0010B504680222231DD86FE36F1230D91D37
:10174C0009F03DFD2000034B8830E118FFF798FDB0
:10175C0010BDC046B80B000010B50068024BC11894
:10176C008830FFF78DFD10BDB80B000010B5006878
:10177C00024BC1188830FFF783FD10BDB80B000079
:10178C0010B50068024BC1188830FFF779FD10BD09
:10179C00B80B000010B50068024BC1188830FFF779
:1017AC006FFD10BDB80B000010B500680A4BC35894
:1017BC00002B0AD00023C26F1382C26F5382C26FF8
:1017CC009382C26FD38A0133D382044BC118883001
:1017DC00FFF756FD10BDC046B40B0000B80B00005F
:1017EC0010B50068024BC1188830FFF749FD10BDD9
:1017FC00B80B000010B50068074B0124C258C16F2C
:10180C00531E9A418B7BA34313438B73034BC11819
:10181C008830FFF735FD10BDF4110000B80B000047
:10182C0010B50068024BC1188830FFF729FD10BDB8
:10183C00B80B000010B50068084B0224C358C16FE8
:10184C005A1E93415A008B7BA34313438B73044B57
:10185C00C1188830FFF714FD10BDC0469812000067
:10186C00B80B0000006810B501003531FF3188302D
:10187C00FFF706FD10BD006810B503000833DB6FE1
:10188C0000241A00196C14323C3310C20C80023143
:10189C009A42FAD1C26F538A01335382F6239B00CA
:1018AC00C1188830FFF7ECFC10BD0000006870B563
:1018BC000300002412490833DD6F4358013B9A00A2
:1018CC00AA1854612A6C5B009C52C26F938A013334
:1018DC00938242580B4B013A1340A34204DA022183
:1018EC00013B49420B430133D31A8B22D200835064
:1018FC00F6239B00C1188830FFF7C2FC70BDC046B0
:10190C005C040000010000800B1A9B10002B14DDFE
:10191C000278002A03D04278002A01D101307047A6
:10192C008278002A01D10230F9E7C278002A01D16D
:10193C000330F4E70430013BE8E70B1A022B0CD020
:10194C00032B06D0012B02D10378002BE7D0080023
:10195C00E5E70378002BE2D001300378002BDED0D2
:10196C000130F1E70B1A9B10002B14DD0278002AD2
:10197C0003D14278002A01D0013070478278002AC6
:10198C0001D00230F9E7C278002A01D00330F4E725
:10199C000430013BE8E70B1A022B0CD0032B06D0CA
:1019AC00012B02D10378002BE7D10800E5E703787F
:1019BC00002BE2D101300378002BDED10130F1E7AE
:1019CC0010B5FEF749FD10BD0368002B02D1016074
:1019DC0004E013005A68002AFBD15960704710B517
:1019EC000400002C05D0236820001B68984764680D
:1019FC00F7E710BD13B50C00009111780192763900
:101A0C004B425941CBB221000C240B2900D80C00BD
:101A1C00E418994207D3C91AA14200D92100D3185E
:101A2C000160436016BD00220121014809F0BEFA95
:101A3C0059C20008482210B50300007A5143114ADC
:101A4C00002807D090681860814201D3081A5860AA
:101A5C00002018721C68A14208D892680120A41AB0
:101A6C00A14202D8012200201A7210BD91680120F7
:101A7C008C42FAD8516892688A1A59688A42F1D213
:101A8C00F3E7C04610E000E00369F7B5104A0133F4
:101A9C000500934219D100240600476C04611436EA
:101AAC003B78A34212DDEB6B01201B883C212341C8
:101ABC0098433368C0182B6C01C60193FEF756FB94
:101ACC00019B6200D0520134EAE70361F7BDC046C6
:101ADC0060EA000003008C3310B504001868322152
:101AEC00421C1A60FEF7C8FB002904D18834206818
:101AFC0003685B68984710BD10B50A1A02D0202104
:101B0C0009F079FB10BD704703691B0603D5024B26
:101B1C004360024B4360704723016745AB89EFCDAF
:101B2C000122036993430361022302691343036196
:101B3C0080239B02C9184023890241610269134327
:101B4C000361704710B50468002C05D02368200091
:101B5C001B689847A468F7E710BD10B583680400AC
:101B6C00002B02D0032201009847200010BD00007A
:101B7C0070B5060005000400074BCD360833ED3573
:101B8C000360FF36FF35AE4204D0103D2800FFF74E
:101B9C00E4FFF8E7200070BD44D3000810B5040042
:101BAC000830FFF7CFFF20696169431C2361FEF702
:101BBC0063FB002902D12000FFF7C4FF10BD000019
:101BCC0010B50248FFF7EAFF10BDC04628080020F8
:101BDC00416902690023914201D34361013318002A
:101BEC0070470000037B002B0DD000234268037369
:101BFC008368002A0ED0002B08D0936083685A604B
:101C0C0000234360836070470B60F8E704499360DE
:101C1C004A60F5E70249002BF6D10B604B60EFE709
:101C2C0028080020002310B54361FFF7DBFF10BD2F
:101C3C00037B002B0CD101330373064B5A684260B3
:101C4C00002A00D090601A685860002A00D11860F1
:101C5C007047C0462808002070B58225AD00435956
:101C6C000400022B14D0032B24D0012B0FD1230002
:101C7C000021B0331A78103019708A4207D0FFF760
:101C8C00B1FF2000B830FFF7D3FF0223635170BDC2
:101C9C00230000215933FF331A78B83019708A4267
:101CAC00F5D0FFF79FFF20006130FF30FFF7C0FF3A
:101CBC000323EBE7802300219B00C3181A781970CB
:101CCC008A42E4D06130FF30FFF78CFF20001030E7
:101CDC00FFF7AEFF0123D9E710B5036804005A1CC7
:101CEC00C3180260597200685021FEF7C5FA200033
:101CFC00216010BD10B5142104000068FEF7BCFA79
:101D0C00002903D120312000FFF7E6FF14212068C1
:101D1C00FEF7B2FA002901D02021F4E7200010BD13
:101D2C0010B504002368002B04D020212000FFF7FD
:101D3C00D3FFF7E7200010BD70B5040000200D00A4
:101D4C00814202D00800FEF7FFF920606560200098
:101D5C0070BD70B504000D0000681421FEF706FA82
:101D6C0003001420584350214019FEF785FA200037
:101D7C00216070BD70B505682A00C4321368002B51
:101D8C001AD02E001424C036013B136033686868E7
:101D9C00634313210360FFF7DCFF2021FFF79CFF57
:101DAC0033686868013B5C43336013210460FFF7C0
:101DBC00D0FF7E21FFF790FF70BD70B505682A003B
:101DCC00C4321368022B1AD02E001424C0360133EF
:101DDC00136033686868634313210360FFF7B9FF2E
:101DEC002021FFF779FF3368686801335C43336067
:101DFC0013210460FFF7ADFF7E21FFF76DFF70BD6F
:101E0C0070B505682A00DC321368002B1AD02E003E
:101E1C001424D836013B136033686868634313217C
:101E2C000360FFF796FF2021FFF756FF33686868C1
:101E3C00013B5C43336013210460FFF78AFF7E2172
:101E4C00FFF74AFF70BD70B505682A00DC321368D5
:101E5C00032B1AD02E001424D836013313603368A8
:101E6C006868634313210360FFF773FF2021FFF7BA
:101E7C0033FF3368686801335C43336013210460BB
:101E8C00FFF767FF7E21FFF727FF70BD0123026874
:101E9C004068116983400B4313617047012342680A
:101EAC0010B51032934001680C6923430B6110BDCF
:101EBC00036810B504009869FFF7F0FF64216068AF
:101ECC00FFF7B8FD0028F9D123689869FFF7DEFF0A
:101EDC0064216068FFF7AEFD0028F9D110BD70B524
:101EEC0004000D000368ED001869FFF7D7FF2368A5
:101EFC006068DA699B6AEB581361FFF7D9FF2368B6
:101F0C006068DA699B6A5D196B681361FFF7D0FF33
:101F1C003221A068FFF78EFD0028F9D170BD0000BA
:101F2C0070B5437B0400012B20D0002B02D0022B78
:101F3C0027D070BD4069FFF7B1FF2069FFF7A6FFFE
:101F4C00206B5021431C2363FEF796F9114B89003B
:101F5C00256ACB58626AEB5CDB00D3181968E2691E
:101F6C005B681161E36201236373E2E78069FFF749
:101F7C008DFFA069FFF792FFE369E26A1A61022301
:101F8C00F2E78069FFF782FFA069FFF787FF002364
:101F9C00EAE7C046DCBD00080368426801209040B7
:101FAC009B681840431E9841C0B2704770B500241E
:101FBC0005002600EB6B1B78A34209DDA300EB1890
:101FCC001869FFF7E9FFA0400643B6B20134F1E708
:101FDC00AB6B1E8070BD10B50C1E03D0FFF756FF07
:101FEC00200010BDFFF75AFFFAE770B50600437AE0
:101FFC0004000C36002B05D00023C1614372300065
:10200C00FFF716FE3000FFF7E3FD0125002804D092
:10201C003000FFF707FE65720025280070BD000038
:10202C00F0B500268FB005AC05000C22310009A8D4
:10203C000596666009F0DFF80123637223726B4624
:10204C00354FE661E7602662009501940295039393
:10205C00049414212000FFF7C8FF0028F9D1286947
:10206C00FFF71CFF6869FFF719FFA869FFF70EFF60
:10207C00AA6AEB69D26968461A61FFF719FF052154
:10208C002000FFF7B2FF0028F9D1AA6AEB69D269E8
:10209C0068461A61FFF70CFF64212000FFF7CAFCA9
:1020AC000028F9D1AA6AEB69D26968461A61FFF770
:1020BC00FFFE32212000FFF7BDFC0028F9D1AA6AEF
:1020CC00EB69526968461A61FFF7F2FE3221200073
:1020DC00FFF7B0FC0028F9D1282102A8FFF7FFFE7A
:1020EC000C2102A8FFF7FBFE062102A8FFF7F7FE62
:1020FC00012102A8FFF7F3FE802102A8FFF7EFFEF3
:10210C0001212000FFF771FF0028F9D108A8E76032
:10211C00FFF768FD0FB0F0BDE0BA000810B5040081
:10212C005030FFF71AFD20004030FFF716FD20005D
:10213C003030FFF712FD20002030FFF70EFD20009D
:10214C001030FFF70AFD2000FFF707FD200010BD3F
:10215C0010B50400072A19D1204B5B689B045B0F58
:10216C001CD0042B1CD0052B1CD0063B5A1E9341B3
:10217C001B4A5B4213401B4A9B1807291AD80800BC
:10218C00FDF7EAFF121A1C1F21242629083A002306
:10219C00012AF2D8114B5B685B05E0E7124BECE7C8
:1021AC00124BEAE7124BE8E7962189011800FDF77C
:1021BC00DDFFA060200010BDE121F6E79621C901EA
:1021CC00F4E7E121FBE796210902EFE7E121FBE7C8
:1021DC0096214902EAE7E121FBE7C04600100240E4
:1021EC00E055BBFF4054890000A24A04005125026F
:1021FC0080A812010123C9B2890003398B40006801
:10220C001840431E9841C0B27047FEE7FEE7FEE758
:10221C00FEE7FEE7FEE70000044B10B51868FFF779
:10222C00DEFB0122024B5A6110BDC046880700201C
:10223C0000040140044B10B51868FFF7D0FB0222D4
:10224C00024B5A6110BDC0469007002000040140AB
:10225C00044B10B51868FFF7C2FB0422024B5A61FD
:10226C0010BDC046C807002000040140044B10B547
:10227C001868FFF7B4FB0822024B5A6110BDC04628
:10228C00D007002000040140044B10B51868FFF77C
:10229C00A6FB1022024B5A6110BDC046D807002085
:1022AC0000040140FEE7FEE7FEE7FEE7FEE7000064
:1022BC0010B5144C63699B0603D5134B1868FFF7D4
:1022CC008EFB63695B0603D5104B1868FFF787FB21
:1022DC0063691B0603D50E4B1868FFF780FB636917
:1022EC00DB0503D50B4B1868FFF779FB63699B057E
:1022FC0003D5094B1868FFF772FBF8239B00636149
:10230C0010BDC04600040140E0070020E807002093
:10231C00F0070020F807002000080020FEE7FEE789
:10232C00FEE7FEE7FEE7FEE7FEE7FEE7FEE7FEE779
:10233C00FEE7FEE7FEE7000010B5174C63695B058E
:10234C0003D5164B1868FFF74AFB63691B0503D5C9
:10235C00134B1868FFF743FB6369DB0403D5114B80
:10236C001868FFF73CFB63699B0403D50E4B186898
:10237C00FFF735FB63695B0403D50C4B1868FFF75B
:10238C002EFB63691B0403D5094B1868FFF727FB69
:10239C00FC231B02636110BD000401409807002060
:1023AC00A0070020A8070020B0070020B8070020D5
:1023BC00C0070020FEE7FEE7044B10B51868FFF7D6
:1023CC000EFB034B1A685B6810BDC046100800205A
:1023DC0000380140044B10B51868FFF700FB034BA5
:1023EC001A685B6810BDC046180800200044004005
:1023FC00044B10B51868FFF7F2FA034B1A685B68C8
:10240C0010BDC0462008002000480040044B10B509
:10241C001868FFF7E4FA0122024B5A6010BDC0465F
:10242C005007002000000240044B10B51868FFF75D
:10243C00D6FA1022024B5A6010BDC0465807002035
:10244C0000000240044B10B51868FFF7C8FA802250
:10245C00024B52005A6010BD600700200000024081
:10246C00044B10B51868FFF7BAFA8022024B5201E0
:10247C005A6010BD6807002000000240044B10B5E4
:10248C001868FFF7ACFA8022024B52025A6010BD5A
:10249C007007002000000240044B10B51868FFF7CD
:1024AC009EFA8022024B52035A6010BD780700201E
:1024BC0000000240044B10B51868FFF790FA802218
:1024CC00024B52045A6010BD8007002000000240ED
:1024DC00436800685B00C0187047000010221F4B57
:1024EC0019680A4307211A601A688A4311000222EC
:1024FC000A431A6080221A4B520219680A431A6066
:10250C001A689203FCD5F0215A688A435A605A68BB
:10251C00144911408022D2000A435A605A68124969
:10252C000A405A608022596852020A435A605A681B
:10253C000E491140E02252030A435A608022196866
:10254C0052040A431A601A689201FCD503215A6896
:10255C008A43110002220A435A607047002002404D
:10256C0000100240FFF8FFFFFFC7FFFFFFFFC3FF94
:10257C00F8B50123614A624F12681A4260D1614A70
:10258C0061481168194204D1604913600160092146
:10259C0041600423BA69F0211343BB610123BA697A
:1025AC0005681A43BA616A688A431100A0220A437B
:1025BC006A60574A574915681D4204D1534D136040
:1025CC000D600A254D600423BA69534D1343BB615A
:1025DC000123BA690E681A43BA61726815408022E9
:1025EC00D2002A434D4D72602E684D4A1E4204D1D2
:1025FC00464E2B6016600826566004250F24BB69D6
:10260C002B43BB6116687368A3439C460223644644
:10261C0023437360434B0026FC335A61424A5E608D
:10262C009A61424A9E60DA61414AD8601A62414A14
:10263C0019615A620722DD629A6201232F4A1360E4
:10264C008023384EBA693400DB0113430822BB6186
:10265C00FC34E3698025D96804200A43DA6004223B
:10266C00D9680A43DA605A692A435A614022596987
:10267C000A435A61304B1856FFF7A2F901237A69C5
:10268C002E4913437B611027236A2D481A683A435D
:10269C001A6062689219DA60E26904329A601A6808
:1026AC002A431A601A680A401A601A6802401A60B3
:1026BC000222042019680A431A60224B1856FFF7AD
:1026CC007FF9636A1D491A681D48BA431A6062682B
:1026DC009219DA60E26904329A60FF225A601A6831
:1026EC0015431D601A680A401A601A6802401A6085
:1026FC002022196830000A431A60F8BD8C030020B0
:10270C0000100240D4040020D8040020000801402E
:10271C00C8040020CC040020FFF0FFFFBC04002004
:10272C00C00400209003002000000240003801404B
:10273C00440002405800024010080020FFF3FFFF45
:10274C00FFFCFFFF68070020F8B50123704A714FAA
:10275C0012681A427ED1704A70491068184204D12E
:10276C006F48136008600A20486010220120BB6982
:10277C006C4C1343BB61BB690D680343BB616B6855
:10278C001C40A0231B0123436B603025664B5C6807
:10279C00AC432243654C5A602568654A054204D116
:1027AC005F4D206015600B2555601024B86926001C
:1027BC002043B8611068BC69844601200443BC61A5
:1027CC0064465C4D646825408024E4012C436546D6
:1027DC006C6030255C68AC4334435C60564C2568B7
:1027EC00054205D1554D564E20602E600F266E6069
:1027FC000420BC69514D20430124B861286826008F
:10280C008446B8692043B86158684E4C0440802017
:10281C00800420435860634680205B6880051B0160
:10282C001B09034360464360474B0020FC331A618D
:10283C00464A58609A61464A9860DA61454AD960BE
:10284C001A62454A5D615A6209229A62073ADA6253
:10285C002F4B1E6080233C4EFA693400DB0213437D
:10286C000822FB61FC34E3698025D96804200A4303
:10287C00DA600422D9680A43DA605A692A435A6139
:10288C00402259690A435A61344B1856FFF798F89D
:10289C0001237A69324913437B611027236A31483B
:1028AC001A683A431A6062689219DA60E269043273
:1028BC009A601A682A431A601A680A401A601A68E1
:1028CC0002401A600222042019680A431A60264B3F
:1028DC001856FFF775F8636A21491A682148BA43FC
:1028EC001A6062689219DA60E26904329A60FF2217
:1028FC005A601A6815431D601A680A401A601A68F3
:10290C0002401A602022196830000A431A60F8BD90
:10291C0038020020001002408003002084030020B5
:10292C0000100140FFF0FFFF000001407403002085
:10293C0078030020FF0FFFFF680300206C030020CA
:10294C0000080140FFFFFFF83C020020000002409D
:10295C00004800401C0002403000024020080020CB
:10296C00FFF3FFFFFFFCFFFF5807002070B51500B9
:10297C000C1A04D001002200280008F029FC2819A8
:10298C0070BD0300F0B5093387B0019303681600DE
:10299C000293029A019B05009A18037A0C00002BF3
:1029AC0027D013291CD814277F1A7F08D7197B1816
:1029BC00100039000393FFF79FF831193A003000EB
:1029CC00FFF7D4FF0299019B143159180398FFF7B4
:1029DC0093F8286814305021FDF74EFC296016E05E
:1029EC00080014384008301801001431FFF7BEFFFE
:1029FC00EFE75021029BC91A33190293A1420BD95C
:102A0C0019003000FFF7B2FF2B681C192C60002353
:102A1C0028002B7207B0F0BD270071183000FFF7AB
:102A2C00A5FF2B68503FFF18E41B36193000019AA4
:102A3C005036502F04D93100FFF798FF503FF5E77F
:102A4C000299FFF793FF2B68F818C4E730B505001F
:102A5C0089B00A0005A8104908F0DAFC05A901A8FC
:102A6C00FFF76AF96C68019B9C4207D9E41A013C98
:102A7C0004D320212800FFF72FF9F8E705A903A8B4
:102A8C00FFF75AF90399049A2800FFF77AFF0023FD
:102A9C0028006B6009B030BD16C30008F8B53022B1
:102AAC00070006000500436898371A6088366C6882
:102ABC00B74204D002CE2000FFF7C8FFF7E73C2353
:102ACC002360386850214430FDF7D6FB200021608C
:102ADC005E21FFF701F9FFF70DF9F8BD70B5056838
:102AEC00290098310B689B00EB1888331A68013267
:102AFC001A600C680A21A4002C1988342068FDF790
:102B0C00A5FC28002160FFF7C9FF70BD006810B557
:102B1C00010098310B689B00C31888331A68013A7E
:102B2C001A600B689B00C31888331A68002A01DAF4
:102B3C0009221A60FFF7B2FF10BDF7B500224368F7
:102B4C0004001A60031DDD6F03272B0005260833D4
:102B5C000193E36F60681B78AB4215DD01352900EA
:102B6C004760FFF773FF3A21FFF7B6F860686B1EFA
:102B7C004660A26F5B00995AFFF768FF2021FFF7B0
:102B8C00ABF8019B9D42E4D16068FFF7C9F8F7BD33
:102B9C00006810B5021DD36F002B03D0023BD36726
:102BAC00FFF7CBFF10BD006810B5021DD36FC16FCE
:102BBC001C00097808348C4203DA0233D367FFF720
:102BCC00BCFF10BDF7B50025436804001D60036B06
:102BDC001B789B070FD40123456816492B72684656
:102BEC00FFF7AAF80099019A2800FFF7CAFE60685F
:102BFC00FFF796F8F7BD836A1B88002B04D1456854
:102C0C0001332B720C49EAE72E000427E36A1B7888
:102C1C00AB42ECDDA36A01221B882B41134205D089
:102C2C006068A9184760FFF711FF0136142EDED03B
:102C3C000135EBE728C3000834C300081A2337B565
:102C4C00040040680360636B1978FFF7FFFEFFF721
:102C5C0051F8E36B1B78DB0715D53C2365684149BC
:102C6C002B606846FFF768F80099019A2800FFF777
:102C7C0088FE022360684360E36A1988FFF7E6FE6A
:102C8C004321FFF729F807216068FFF762F8A36B6F
:102C9C0005001B7834499B0700D534496846FFF77B
:102CAC004BF80099019A2800FFF76BFEE36B1B7839
:102CBC009B0717D5A36B60681B780A219B073DD532
:102CCC00FFF747F803234360236B1988FFF7BEFE19
:102CDC00050027496846FFF72FF80099019A28004C
:102CEC00FFF74FFE10216068FFF733F8A36B050068
:102CFC001B781D49DB0700D51E496846FFF71CF8F9
:102D0C00019A00992800FFF73CFE302263681A6094
:102D1C00A36B1B785A06D20F15D1190713D4590778
:102D2C0011D4646814496846FFF706F80099019AB3
:102D3C002000FFF726FEFEF7DDFF37BDFFF709F891
:102D4C000E490500C6E7190702D564680C49EAE785
:102D5C00002A02D064680B49E5E75B07EDD564688F
:102D6C000949E0E728C20008BBD70008B8D500081D
:102D7C002BC2000825C200082DC20008B9D70008D4
:102D8C0031C200083AC2000841C20008F0B5002563
:102D9C004368061D1D60F36F89B00400AB4213D16C
:102DAC0045685C4906A8FEF7C7FF079A06992800F4
:102DBC00FFF7E7FD0323606801254360A36F1978D3
:102DCC00FFF744FEFEF796FFF36F012B13DC6768E9
:102DDC00514906A8FEF7B0FF079A06993800FFF78D
:102DEC00D0FD0223606801354360A36F5978FFF76B
:102DFC002DFEFEF77FFFF36F022B16DC6768474949
:102E0C0006A8FEF799FF0699079A3800FFF7B9FD57
:102E1C00E36F2B211B78DA0702D49B0700D4023115
:102E2C00FEF75AFFFEF766FF0135F36F032B16DC36
:102E3C0067683B4906A8FEF77FFF0699079A38009A
:102E4C00FFF79FFDE36F2B211B78DB0700D40231CA
:102E5C00FEF742FF0135FEF74DFF042D58D0F36FFE
:102E6C00042B16DC67682F4906A8FEF765FF069948
:102E7C00079A3800FFF785FDE36F2B211B789B0722
:102E8C0000D40231FEF728FF0135FEF733FF042D85
:102E9C003ED0F36F052B1EDDF36F052B38DC646819
:102EAC00214902A8FEF748FF039A02992000FFF778
:102EBC0068FD04001D4904A8FEF73EFF0499059A1D
:102ECC0006A8FEF797FD0699079A2000FFF759FD13
:102EDC00FEF710FF1CE06768154904A8FEF72CFFED
:102EEC00059A04993800FFF74CFD0700114906A814
:102EFC00FEF722FF0699079A6846FEF77BFD0099BC
:102F0C00019A3800FFF73DFDFEF7F4FE032DC3D107
:102F1C0009B0F0BDA7C20008B4C20008C6C20008C0
:102F2C00D7C20008E6C2000809C3000810C3000895
:102F3C00F2C20008F9C20008006810B5021DD36F78
:102F4C00002B01DD013BD367FFF720FF10BD0068AC
:102F5C0010B5021DD36F022B01DC0133D367FFF7D1
:102F6C0015FF10BD002370B583608B6804000D0045
:102F7C00002B05D002229847EB68E360AB68A36096
:102F8C00200070BD002370B583608B6804000D00B9
:102F9C00002B05D002229847EB68E360AB68A36076
:102FAC00200070BD70B505000C00FFF7DBFF28009A
:102FBC00210010301031FFF7D5FF28002100203000
:102FCC002031FFF7CFFF2800210030303031FFF7E0
:102FDC00C9FF2800210040304031FFF7D3FF280003
:102FEC00210050305031FFF7CDFF280070BD002379
:102FFC0070B583608B6804000D00002B05D0022295
:10300C009847EB68E360AB68A360200070BD8368F1
:10301C0010B5002B01D107F0E7FFC368984710BD2E
:10302C0010B500681830FFF7F2FF10BD10B500683E
:10303C006830FFF7ECFF10BD10B500686830FFF783
:10304C00E6FF10BD10B500686830FFF7E0FF10BD5B
:10305C0010B500681830FFF7DAFF10BD10B5006826
:10306C001830FFF7D4FF10BD006810B503009C3377
:10307C001A68043B1B681A60030088331B68002B1A
:10308C0003D08030FFF7C3FF10BD7030FAE710B5E6
:10309C0000687030FFF7BBFF10BD006810B503006F
:1030AC009C331A68043B1B681A60030088331B6846
:1030BC00002B03D08030FFF7AAFF10BD7030FAE769
:1030CC0010B500687030FFF7A2FF10BD006810B596
:1030DC00030098331A88043B1B681A8003000833DA
:1030EC00DB6F002B03D07C30FFF791FF10BD6C30F1
:1030FC00FAE710B500686C30FFF789FF10BD036864
:10310C0010B51A00983394321B781268137000684B
:10311C0003000833DB6F002B03D07C30FFF777FF05
:10312C0010BD6C30FAE710B500686C30FFF76FFF1C
:10313C0010BD006818220300FC339B6D10B553437F
:10314C00C0188030FFF763FF10BD10B50068683001
:10315C00FFF75DFF10BD036810B51A009833943269
:10316C001B7812681370006803000833DB6F002BA8
:10317C0003D07C30FFF74BFF10BD6C30FAE710B575
:10318C0000686C30FFF743FF10BD036810B51A00E0
:10319C00983394321B78126813700068030008335C
:1031AC00DB6F002B03D07C30FFF731FF10BD6C3090
:1031BC00FAE710B500686C30FFF729FF10BD036803
:1031CC0010B51A00983394321B781268137000688B
:1031DC0003000833DB6F002B03D07C30FFF717FFA5
:1031EC0010BD6C30FAE710B500686C30FFF70FFFBC
:1031FC0010BD006818220300F4331B6810B553434C
:10320C00C0188030FFF703FF10BD10B500686830A0
:10321C00FFF7FDFE10BD036810B51A009833943209
:10322C001B7812681370006803000833DB6F002BE7
:10323C0003D07C30FFF7EBFE10BD6C30FAE710B515
:10324C0000686C30FFF7E3FE10BD006810B503009A
:10325C009C331A68043B1B681A60030088331B6894
:10326C00002B03D08030FFF7D2FE10BD7030FAE790
:10327C0010B500687030FFF7CAFE10BD0068182248
:10328C000300C4331B6810B55343C0188030FFF7DC
:10329C00BEFE10BD10B500686830FFF7B8FE10BD5B
:1032AC00006818220300DC331B6810B55343C018A8
:1032BC008030FFF7ACFE10BD10B500686830FFF72A
:1032CC00A6FE10BD836810B5002B01D107F08CFE53
:1032DC00C368984710BD1FB5002369460830029398
:1032EC00FFF7F0FF6846FEF738FC05B000BD30B5BF
:1032FC000025040085B0694608300295FFF7E2FF0F
:10330C006846FEF72AFC2000694618300295FFF744
:10331C00D9FF6846FEF721FC20006946383002953B
:10332C00FFF7D0FF6846FEF718FC200069462830EE
:10333C000295FFF7C7FF6846FEF70FFC05B030BDDE
:10334C0030B50025040085B0694608300295FFF7BA
:10335C00B9FF6846FEF701FC20006946183002955B
:10336C00FFF7B0FF6846FEF7F8FB200069463830DF
:10337C000295FFF7A7FF6846FEF7EFFB05B030BDDF
:10338C0030B50025040085B0694608300295FFF77A
:10339C0099FF6846FEF7E1FB20006946183002955C
:1033AC00FFF790FF6846FEF7D8FB200069463830DF
:1033BC000295FFF787FF6846FEF7CFFB05B030BDDF
:1033CC001FB50023694608300293FFF77BFF684660
:1033DC00FEF7C3FB05B000BD1FB5002369460830DE
:1033EC000293FFF76FFF6846FEF7B7FB05B000BD11
:1033FC0030B50025040085B0694608300295FFF70A
:10340C0061FF6846FEF7A9FB20006946183002955B
:10341C00FFF758FF6846FEF7A0FB200069462830EE
:10342C000295FFF74FFF6846FEF797FB20006946B1
:10343C0038300295FFF746FF6846FEF78EFB05B065
:10344C0030BD30B50025040085B0694608300295C2
:10345C00FFF738FF6846FEF780FB200069461830FE
:10346C000295FFF72FFF6846FEF777FB20006946B1
:10347C0028300295FFF726FF6846FEF76EFB20000A
:10348C00694638300295FFF71DFF6846FEF765FB6D
:10349C0005B030BD30B50025040085B06946083054
:1034AC000295FFF70FFF6846FEF757FB20006946B1
:1034BC0018300295FFF706FF6846FEF74EFB20001A
:1034CC00694628300295FFF7FDFE6846FEF745FB7E
:1034DC002000694638300295FFF7F4FE6846FEF787
:1034EC003CFB05B030BD30B50025040085B0694605
:1034FC0008300295FFF7E6FE6846FEF72EFB20002B
:10350C00694618300295FFF7DDFE6846FEF725FB8D
:10351C002000694628300295FFF7D4FE6846FEF776
:10352C001CFB2000694638300295FFF7CBFE68463D
:10353C00FEF713FB05B030BD1FB5074B009003938E
:10354C00064B694608300293FFF7BCFE6846FEF74F
:10355C0004FB05B000BDC0465D300008A3040008A4
:10356C001FB50400144B69460393144B00900830AC
:10357C000293FFF7A7FE6846FEF7EFFA2000104B08
:10358C00694603930F4B183002930094FFF79AFE91
:10359C006846FEF7E2FA20000B4B694603930B4B8F
:1035AC00383002930094FFF78DFE6846FEF7D5FA8B
:1035BC002000FFF7C2FA1FBD9D2B0008B9040008BC
:1035CC00B32B0008CF04000851300008E5040008B4
:1035DC007FB5294B04000393284B694600900830B3
:1035EC000293FFF76FFE6846FEF7B7FA0022636896
:1035FC0023491A6065686846FEF79EFB280005257E
:10360C00019A0099FFF7BDF960684560A36A1988B3
:10361C00FFF71CFA66681B496846FEF78DFB019A9A
:10362C0000993000FFF7ADF960684560A36A5988CE
:10363C00FFF70CFA666814496846FEF77DFB019AA1
:10364C0000993000FFF79DF960684560A36A99887E
:10365C00FFF7FCF966680D496846FEF76DFB0099AB
:10366C00019A3000FFF78DF960684560A36AD9882C
:10367C00FFF7ECF97FBDC0462D300008950500081A
:10368C00C0C10008D0C10008E0C10008F0C10008AA
:10369C007FB50400284B69460393284B00900830F3
:1036AC000293FFF70FFE6846FEF757FA2000244BF3
:1036BC0069460393234B183002930094FFF702FEE4
:1036CC006846FEF74AFA20001F4B694603931F4BCE
:1036DC00383002930094FFF7F5FD6846FEF73DFA8B
:1036EC0020001B4B694603931A4B2830029300941D
:1036FC00FFF7E8FD6846FEF730FA002501236668FF
:10370C001549337235606846FEF716FB019A00992D
:10371C003000FFF736F9FEF703FB23002200883355
:10372C009832934201D020C3FBE7032220001A6099
:10373C00FFF7B4F97FBDC046E92A00083D05000833
:10374C00192B0008530500083930000869050008DA
:10375C00B73800087F05000819C300081FB504001E
:10376C00144B69460393144B009008300293FFF7F7
:10377C00A9FD6846FEF7F1F92000104B694603934A
:10378C000F4B183002930094FFF79CFD6846FEF730
:10379C00E4F920000B4B694603930B4B3830029332
:1037AC000094FFF78FFD6846FEF7D7F92000FFF76E
:1037BC00EDFA1FBD452F0008FB0400085B2F000825
:1037CC0011050008453000082705000830B5040035
:1037DC00234B85B00393234B69460090083002932A
:1037EC00FFF770FD6846FEF7B8F9656829002800F8
:1037FC0059310930FEF780F900232B6065681A4AAD
:10380C002B6001332B72A36A68461B789B00995876
:10381C00FEF792FA019A00992800FFF7B2F81423E8
:10382C00656812492B606846FEF786FA019A009982
:10383C002800FFF7A6F8636B1978FFF707F9282320
:10384C0064680B4923606846FEF776FA0099019A82
:10385C002000FFF796F8FEF74DFA05B030BDC046D4
:10386C00693000088D04000824C1000849C2000812
:10387C0050C20008002370B583608B6804000D00F3
:10388C00002B05D002229847EB68E360AB68A3607D
:10389C00200070BD07B583680191002B01D107F0A2
:1038AC00A3FBC36801A9984707BD006870B5020067
:1038BC0098321368013B1360002B0DDA03000021D2
:1038CC000A2588339A4203D0694310CB0919F9E7CA
:1038DC007830FFF7DFFF70BDFFF7E0F8FBE7000083
:1038EC0070B50C000978FC30826A4909C069FEF792
:1038FC002FFC01212278C3685208154D0A402B4039
:10390C0052021A43C2602378C2689B080B401149CB
:10391C001B030A401343C36023780269DB060E497C
:10392C009B0F1B030A40134303612378DB070AD563
:10393C008023C268DB001343C3608023C2689B01F1
:10394C001343C36070BDC368044A1340F4E7C04618
:10395C00FFFDFFFFFFEFFFFFFFCFFFFFFFFBFFFFB1
:10396C00002310B5FC300400436083604069FEF70F
:10397C0095FA0123216A0A689A430A60626A1168FF
:10398C0099431160FF215160626A11680B43136007
:10399C001368DB07FCD51023E269D1680B43D360B5
:1039AC0010BD10B58468A369FC33D96A9869FEF719
:1039BC0021FC002805D0A069FFF7D2FF2000FEF7FC
:1039CC0037F910BD10B584682369FC33D96A98693E
:1039DC00FEF710FC002802D02069FFF7C1FF10BDD4
:1039EC0010B5040043681A680368B8335A61436819
:1039FC001A6803686133FF335A610068FEF718F9DF
:103A0C0020681030FEF714F98223012122689B00F4
:103A1C00D15010BD036842791B889A4201D2012211
:103A2C00827102799A4201D900238371807970479F
:103A3C0010B504000068FFF7EDFF61680B780028F3
:103A4C0003D0202293430B7010BD01229806C00FA7
:103A5C0042402020520183431343F4E710B5040085
:103A6C000068FFF7D7FF61680B78002803D010229D
:103A7C0093430B7010BD0122D806C00F424010209A
:103A8C00120183431343F4E70B7810B50400002BA9
:103A9C000AD00068FFF7BEFF002804D1102362682B
:103AAC0011780B43137010BD1021426813788B43AF
:103ABC00F8E70B7810B50400002B0AD00068FFF76C
:103ACC00A9FF002804D12023626811780B431370DE
:103ADC0010BD2021426813788B43F8E7FF23F0B523
:103AEC001D00064F064E0C7801315C403B5D6B406F
:103AFC00355D8A42F7D105704370F0BD1CBF0008DC
:103B0C001CC0000810B504000CC90CC0FFF76FFAFC
:103B1C00200010BD70B504001D00134B4160036004
:103B2C0011000830FFF73EFA200029006830FFF73B
:103B3C005EFA200004997830FFF7E4FF2000059925
:103B4C009030FFF7DFFF20000699A830FFF7DAFF6F
:103B5C0020000799C030FFF7D5FF22000023D83290
:103B6C0020001360536070BD70BB000882B0F8B5C4
:103B7C00040007930AAB18780BAB207120001B785C
:103B8C000F4F63712760A1600C301100099EFFF785
:103B9C0009FA20000C996C30FFF729FA20000D99D6
:103BAC007C30FFF724FA230007AD8C3306CD06C317
:103BBC001E60327820001A71F8BC08BC02B018479D
:103BCC00ACBB0008F7B501217C4A7D4C1368A446B8
:103BDC000B4004D165467B4C6B602C601160042259
:103BEC00794B0F2599691143996161460C682168DD
:103BFC00A9430A432260012274490C68144204D17F
:103C0C00734D704C6A602C600A60042299690A43F7
:103C1C00F0219A616E4A146822688A43110040228E
:103C2C000A43226001246B490D68254205D1654D7C
:103C3C00694A0C6015600225556004219C69664A2E
:103C4C00214399611568654C29680C408021C90095
:103C5C00214329600125624C624926682E4204D119
:103C6C00584E25600E6003264E6004279C695E4DFD
:103C7C003C439C610E68346825408024E4012C434D
:103C8C0034600126594D5A4C2A68324203D14D4AB0
:103C9C00676022602E6004259E6935439D6127680C
:103CAC0080243D68534EE40235402C433C60012790
:103CBC00514D00962A68514C3A4204D1414E2F6026
:103CCC0026600526666004259E6935439D6127683C
:103CDC0080243D684A4EE40335402C433C60012768
:103CEC00484D01962A68484C3A4204D1354E2F6013
:103CFC0026600626666004259E6935439D6126680C
:103D0C00424D346825408024E4042C430125346062
:103D1C003F4C22682A4204D107273E4E294A25608F
:103D2C0084C604279C6980253C439C61394CED0575
:103D3C0026683468BC40FC402C4334600126364D68
:103D4C00364C2A68324203D1354A676022602E60B5
:103D5C0010259E6935439D61256880242E68009A44
:103D6C00E402164026432E6001252E4C22682A427E
:103D7C0004D105272C4E2A4A256084C6102480269F
:103D8C009D69F6032C439C61274B019A1C6825689E
:103D9C0015402E4326600360204B816143601D4B10
:103DAC008360194BC360154B0361114B43610A4B84
:103DBC00C361074B036263464362FEBD20010020D2
:103DCC0024010020000801400010024014010020D2
:103DDC0018010020080100200C010020FFF0FFFF5B
:103DEC00FC00002000010020FF0FFFFFF00000206E
:103DFC00F4000020FFFFF0FFE4000020E8000020AA
:103E0C00FFFF0FFFD8000020DC000020FFFFFFF0B9
:103E1C00CC000020D0000020C0000020C4000020F6
:103E2C0000100140B4000020B8000020F0B50125BE
:103E3C008BB0070068460E00FFF7C4FE124C2368D7
:103E4C002B401ED11148436083600373104B876372
:103E5C000360099BC6630361089B4361079B8361F5
:103E6C00069BC361059B0362049B4362039B8362B5
:103E7C00029BC362019B0363009B4363FDF7D8FE67
:103E8C00256002480BB0F0BD880100208C01002099
:103E9C0074BC00080300FC339A68FE2A03D88154D2
:103EAC009A6801329A60704710B5FC300400406982
:103EBC00FDF7ECFF1021E269D3688B43D36001223C
:103ECC00616A0B6893430B60216A0B6893430B6028
:103EDC00A3686068216A1B1A02339BB24B60236A89
:103EEC0019680A431A601A68D207FCD510BD002263
:103EFC00036973B5FC335A609A6004000D00431DCE
:103F0C00861D012921D1D97F0069FFF7C3FF8023CA
:103F1C00F17F1943FFF7BEFF2900FFF7BBFF2169B3
:103F2C0001AD0B00FC339A685B688A182800C9182D
:103F3C00FFF7D4FD69782069FFF7ACFF2978FFF70C
:103F4C00A9FF2069FFF7B0FF73BD0069D97F022D6F
:103F5C0003D1FFF79FFFF17FDCE7FFF79BFFF17FBA
:103F6C00FFF798FF0321D8E7020010B5FC32536825
:103F7C00946800219C4202D9591C5160C15C080014
:103F8C0010BD0068030028330278002A03D0427861
:103F9C00002A05D10130181A43425841C0B270476B
:103FAC008278002A01D10230F5E7C278002A01D1CB
:103FBC000330F0E704308342E6D1ECE70300010064
:103FCC00F0B5FF22050091B01833029340318B42BB
:103FDC0002D01A700133FAE706AC28220021200027
:103FEC0007F009F92F0028690594FDF78DFD0024D1
:103FFC0054372B003800543301933E68FEF768FAAF
:10400C005C4B06AA9C463100864219D03378272B8C
:10401C0007D87178EB18197601213378D154023610
:10402C00F1E733886345FAD12E009C3631603B684A
:10403C00994207D12C6401340837092CD9D10DE0F1
:10404C000100F1E73800FEF743FA336898425CD080
:10405C002C6405A8FFF795FF0028ECD02B6C376873
:10406C00D800019B2C001818FEF732FA4434874212
:10407C0006D101232A6CA35400232B646B6D33608F
:10408C0005A8FFF77EFF2E000390A236002841D032
:10409C0028220299686907F092F8002300273370F0
:1040AC003B004433EB1802931B78002B16D12B6C7E
:1040BC00BB4213D0019BF8001E581818FEF708FAE3
:1040CC002C4A3300864204D00236B11E0988914234
:1040DC00F7D0181A431E9841029B18700137092F0C
:1040EC00DED12A004D32131B9B10002B24DD2178CE
:1040FC00002903D16178002911D00134A24225D0C6
:10410C002B000322A1331A7020E023000122443338
:10411C00EA5490E701232A6CA3540433BEE7A17838
:10412C00002901D00234E9E7E178002901D00334F9
:10413C00E4E70434013BD8E7131B022B12D0032B0A
:10414C000CD0012B13D12378002BD7D180232A69D3
:10415C0011690B431361039811B0F0BD2378002B48
:10416C00CCD101342378002BC8D10134EBE71400F7
:10417C00C4E7C046FFFF0000006803002833027844
:10418C00002A03D04278002A05D10130181A434284
:10419C005841C0B270478278002A01D10230F5E74D
:1041AC00C278002A01D10330F0E704308342E6D113
:1041BC00ECE7000003000100F0B5FF22050091B010
:1041CC001833029340318B4202D01A700133FAE754
:1041DC0006AC28220021200007F00DF82F002869DA
:1041EC000594FDF791FC002454372B003800543310
:1041FC0001933E68FEF76CF95C4B06AA9C463100B5
:10420C00864219D03378272B07D87178EB1819769A
:10421C0001213378D1540236F1E733886345FAD162
:10422C002E009C3631603B68994207D12C640134D6
:10423C000837092CD9D10DE00100F1E73800FEF761
:10424C0047F9336898425CD02C6405A8FFF794FFBB
:10425C000028ECD02B6C3768D800019B2C00181868
:10426C00FEF736F94434874206D101232A6CA35455
:10427C0000232B646B6D336005A8FFF77DFF2E00C8
:10428C000390A236002841D028220299686906F0D2
:10429C0096FF0023002733703B004433EB18029346
:1042AC001B78002B16D12B6CBB4213D0019BF80052
:1042BC001E581818FEF70CF92C4A3300864204D00D
:1042CC000236B11E09889142F7D0181A431E984144
:1042DC00029B18700137092FDED12A004D32131BB7
:1042EC009B10002B24DD2178002903D16178002953
:1042FC0011D00134A24225D02B000322A1331A7015
:10430C0020E0230001224433EA5490E701232A6C75
:10431C00A3540433BEE7A178002901D00234E9E7A5
:10432C00E178002901D00334E4E70434013BD8E7F9
:10433C00131B022B12D0032B0CD0012B13D123787F
:10434C00002BD7D180232A6911690B431361039881
:10435C0011B0F0BD2378002BCCD101342378002B85
:10436C00C8D10134EBE71400C4E7C046FFFF0000DE
:10437C000068030028330278002A03D04278002A10
:10438C0005D10130181A43425841C0B270478278A7
:10439C00002A01D10230F5E7C278002A01D103309E
:1043AC00F0E704308342E6D1ECE7000003000100A3
:1043BC00F0B5FF22050091B01833029340318B42C7
:1043CC0002D01A700133FAE706AC28220021200033
:1043DC0006F011FF2F0028690594FDF795FB0024CA
:1043EC0054372B003800543301933E68FEF770F8B5
:1043FC005C4B06AA9C463100864219D03378272B99
:10440C0007D87178EB18197601213378D15402361C
:10441C00F1E733886345FAD12E009C3631603B6856
:10442C00994207D12C6401340837092CD9D10DE0FD
:10443C000100F1E73800FEF74BF8336898425CD086
:10444C002C6405A8FFF794FF0028ECD02B6C376880
:10445C00D800019B2C001818FEF73AF84434874218
:10446C0006D101232A6CA35400232B646B6D33609B
:10447C0005A8FFF77DFF2E000390A236002841D03F
:10448C0028220299686906F09AFE002300273370EF
:10449C003B004433EB1802931B78002B16D12B6C8A
:1044AC00BB4213D0019BF8001E581818FEF710F8E9
:1044BC002C4A3300864204D00236B11E0988914240
:1044CC00F7D0181A431E9841029B18700137092F18
:1044DC00DED12A004D32131B9B10002B24DD2178DA
:1044EC00002903D16178002911D00134A24225D0D2
:1044FC002B000322A1331A7020E023000122443345
:10450C00EA5490E701232A6CA3540433BEE7A17844
:10451C00002901D00234E9E7E178002901D0033405
:10452C00E4E70434013BD8E7131B022B12D0032B16
:10453C000CD0012B13D12378002BD7D180232A69DF
:10454C0011690B431361039811B0F0BD2378002B54
:10455C00CCD101342378002BC8D10134EBE7140003
:10456C00C4E7C046FFFF000073B56B4604001A0099
:10457C0060CC60C20A0030CA30C005CB05C173BD27
:10458C0070B505000C00FFF7EFFFAB68A268AA60DE
:10459C00A360E268EB68EA60E36070BD1FB50400DD
:1045AC006846FEF724FD21006846FFF7E9FF6846E0
:1045BC00FDF7D3FA200004B010BD10B54430FFF75E
:1045CC00EDFF10BD10B53430FFF7E8FF10BD10B58E
:1045DC002430FFF7E3FF10BD10B51430FFF7DEFFFA
:1045EC0010BD10B54430FFF7D9FF10BD10B53430F5
:1045FC00FFF7D4FF10BD10B52430FFF7CFFF10BD6F
:10460C0010B51430FFF7CAFF10BD10B54430FFF7DA
:10461C00C5FF10BD10B53430FFF7C0FF10BD10B58D
:10462C002430FFF7BBFF10BD10B51430FFF7B6FFF9
:10463C0010BD10B53430FFF7B1FF10BD10B53430DC
:10464C00FFF7ACFF10BD10B54430FFF7A7FF10BD4E
:10465C0010B54430FFF7A2FF10BD10B52430FFF7A2
:10466C009DFF10BD10B51430FFF798FF10BD10B5AD
:10467C002430FFF793FF10BD10B51430FFF78EFFF9
:10468C0010BD30B50023040089B0080069460293C0
:10469C00FFF776FF236869469C6F04A823689D6822
:1046AC00FEF7A5FC04A92000A84704A8FDF755FABD
:1046BC006846FDF752FA09B030BD30B5002304004E
:1046CC0089B0080069460293FFF75AFF23686946D0
:1046DC001C6F04A823689D68FEF789FC04A92000C0
:1046EC00A84704A8FDF739FA6846FDF736FA09B071
:1046FC0030BD30B50023040089B008006946029330
:10470C00FFF73EFF236869465C6F04A823689D6829
:10471C00FEF76DFC04A92000A84704A8FDF71DFABC
:10472C006846FDF71AFA09B030BD30B50023040015
:10473C0089B0080069460293FFF722FF2368694697
:10474C009C6F04A823689D68FEF751FC04A9200007
:10475C00A84704A8FDF701FA6846FDF7FEF909B071
:10476C0030BD30B50023040089B0080069460293BF
:10477C00FFF706FF236869469C6F04A82368DD6871
:10478C00FEF735FC04A92000A84704A8FDF7E5F9BD
:10479C006846FDF7E2F909B030BD020010B5FC32F5
:1047AC00536894689C4204D95C1C5460C35C0B70C5
:1047BC0010BD0023FBE7020070B5FC325368926811
:1047CC00013304000D009A420BD9FFF7CDFB060014
:1047DC002000FFF7C9FB3602C0B23043288020000E
:1047EC0070BD00230B80FAE78269F0B51100436AB3
:1047FC00FC3104001D6848682B79165C85B09E421C
:10480C000DD00922A8692B181A7501300321FBF76A
:10481C001DFEA961636C0133636405B0F0BD8B6848
:10482C001E1A022E38D90027984202D2013B8B6007
:10483C00D75CA16900200A00FC3201909368506893
:10484C00834203D9013B9360CB5C0193A16903AE16
:10485C000B00FC339A685B688A183000C918FFF7A4
:10486C003DF93378BB4217D17378019A934213D137
:10487C00A069FFF779FB02ABDF1C3900A069FFF7D9
:10488C008CFF3B787F2B0BD93100A069FFF785FF9C
:10489C00A86932782B18B7E7A86910222B18B3E750
:1048AC002B7A032BB9D13100A069FFF776FFE968A9
:1048BC00A069FFF780FFB0E770B50C000500090A8E
:1048CC00FFF7E8FAE1B2FFF7E5FA280070BD10B582
:1048DC00282206F065FC43425841C0B210BD0000CE
:1048EC00F0B5002504008026B24BB34F0360B34BE8
:1048FC009BB04560856005734561856105770361F3
:10490C00076205650291039109222900543006F0D3
:10491C0072FCAB4AAB4BE266AB4AB6006267AB4A81
:10492C002566E267221D6366A6662667A667D667BC
:10493C00803293622300A64910331160A54901937C
:10494C009160A549A0331161A44956609161A449B5
:10495C00D66011625661D66156625D701D709D7095
:10496C001D71083300935D609D60009B009A1D7360
:10497C009C4B290013601761556115642200FC32B1
:10498C0017000922380006F036FC009A964B156584
:10499C0086225200A35022000D32FF3256608A222A
:1049AC0092495200A15022001532FF3256608E22DD
:1049BC008F495200A15022001D32FF3256609222C4
:1049CC008C495200A15022002532FF3256609622AB
:1049DC0089495200A15022002D32FF3256609A2292
:1049EC0086495200A15022003532FF3256609E2279
:1049FC0083495200A15022003D32FF325660A22260
:104A0C0080495200A15022004532FF325660A62246
:104A1C007D495200A15022004D32FF325660BB65D9
:104A2C0023005933FF335D701D711D709D70B223CF
:104A3C005B00E55023006533FF335D60B02320003D
:104A4C00143217001573714A5B00E250A5305A4BB3
:104A5C0029000922FF303B617D613D6406F0CBFBF0
:104A6C00DA226B4B52003D65A3502200B532FF3267
:104A7C005660DE2267495200A1502200BD32FF323F
:104A8C005660E22264495200A1502200C532FF3226
:104A9C005660E62261495200A1502200CD32FF320D
:104AAC005660EA225E495200A1502200D532FF32F4
:104ABC005660EE225B495200A1502200DD32FF32DB
:104ACC005660F22258495200A1502200E532FF32C2
:104ADC005660F62255495200A1502200ED32FF32A9
:104AEC005660FA2252495200A1502200F532FF3290
:104AFC005660FE225200A350A3191D704D4B019815
:104B0C00E3181D704C4BE3181D7081239B00E318B8
:104B1C001D70029D6562FFF751FA011E03D1282218
:104B2C00280006F068FB06AD00212822280006F0BC
:104B3C0062FB009B5D611800FFF73CFB011E03D17B
:104B4C002822280006F057FB10AE00212822300046
:104B5C0006F051FB7E613800FFF728FC011E03D1E3
:104B6C002822300006F047FB039F03AB29003800D6
:104B7C0004940593FFF7ABFE002805D004A8FEF7BC
:104B8C002FFF20001BB0F0BD31003800FFF79FFE57
:104B9C000028F3D131002800FFF799FE2822011ECE
:104BAC0004D02900380006F00AFBE7E7380006F0CD
:104BBC0022FBE3E7E0BC000800200240BCBC00087C
:104BCC000068010800640108006C0108007001080D
:104BDC000074010800780108007C010800800108BD
:104BEC0000840108C8BC000800880108008C01087A
:104BFC00009001080094010800980108009C01082D
:104C0C0000A0010800A4010800A80108D4BC0008F9
:104C1C0000AC010800B0010800B4010800B801089C
:104C2C0000BC010800C0010800C4010800C801084C
:104C3C0000CC010801020000020200000B1A1B113B
:104C4C00002B18DD0268127C002A04D04268127C0A
:104C5C00002A01D1043070478268127C002A01D1ED
:104C6C000830F8E7C268127C002A01D10C30F2E758
:104C7C001030013BE4E70B1A9B10022B0ED0032BD8
:104C8C0007D0012B03D103681B7C002BE3D0080059
:104C9C00E1E703681B7C002BDDD0043003681B7C30
:104CAC00002BD8D00430EEE773B5437B0400012B06
:104CBC0006D0002B00D17BE0022B00D1A4E073BD09
:104CCC00050000231835406A1A1C2900FFF7B6FFAF
:104CDC006062854203D1230010336362EFE7002644
:104CEC00A3690568FC335E609E602979A069FFF7B3
:104CFC00D1F8297AA069FFF7CDF83100A069FFF748
:104D0C00C9F8A979A069FFF7C5F83100A069FFF7C8
:104D1C00C1F82B7A032B01D0102B2CD10121A069C7
:104D2C00FFF7B8F82B7A102B07D10021A069FFF7F9
:104D3C00B1F8EB681978FFF7ADF8FD222B7AD91E84
:104D4C00114222D12B6801AE1B6829003000984714
:104D5C007178A069FFF79EF83178FFF79BF8002572
:104D6C00636BE563E362A36CA0690133A364FFF793
:104D7C009BF86573A3E7052BD4D1EB68A0691B885E
:104D8C003100002BCCD05521CAE7102BE7D1A169FB
:104D9C0001AD0B00FC339A685B688A182800C918AF
:104DAC00FEF79CFE6978A069FFF774F82978D4E7C0
:104DBC008369416BFC339A685B68D31AC26B9A4265
:104DCC0000D2C162A56A8D4210DB1222636A0321F4
:104DDC001E68B06933181A750130FBF737FB636C2A
:104DEC00B161013363640223A5636373E36AED1A53
:104DFC00236B9D4200DA62E72000FFF7F5FCA36A03
:104E0C00A363022363735AE7836A826B093B934261
:104E1C0000DC54E700238362FCF7E4FE636A04338E
:104E2C0063620123EEE70000F0B5384C1822A5446C
:104E3C0000211AA806F0DFF95220802308AA1218C4
:104E4C005B001380033008AA1218EC3B137001307E
:104E5C0008AA1218113B137000222D492D4B1B91DF
:104E6C000891FF21083378932B4B78AC23612B4BA3
:104E7C00AB30E3638B938CAB1A70FF30284B206400
:104E8C00A06408A81B181A70264B274D1B181A7003
:104E9C008DAB1A701AAB6260A26022732263A28679
:104EAC00A26365646361A31801321976182AFAD1DA
:104EBC00002120A806F09FF92069FCF725FE0027A9
:104ECC0087AE30003568FDF703FB184B20AA9C46D3
:104EDC002900854217D02B78172B07D86978E3184F
:104EEC00197601212B78D1540235F1E72B886345D3
:104EFC00FAD18B9133688B421AD127630836012F74
:104F0C0026D00127DDE70100F3E7C0460CE6FFFFE2
:104F1C000137280550D300080020024000FC01088E
:104F2C00110200001202000000F80108FFFF00004F
:104F3C003000FDF7CDFAE36C834201D102F0B6FDEF
:104F4C0026AD2763290020A8FCF7DEFCA842D5D1AA
:104F5C00236BE56CD8003C302018FDF7B9FA85427C
:104F6C000CD1E74B08AA9B18226B9B18E54A9B189F
:104F7C0001221A7000232363879B8B9326AE31008A
:104F8C0020A8FCF7C1FC0700B04201D002F094FD50
:104F9C0018227EA9606906F012F90023DA4908AAE2
:104FAC0052181370FA2208AB52009B181B78002B76
:104FBC0015D1236B002B12D087A8879DFDF788FA9B
:104FCC00D24A2B00A84201D002F082FD0300FA2144
:104FDC001B1A581E834108AA490052181370F62256
:104FEC0008ABFF329B181B78002B19D1236B012BBC
:104FFC0016D089A8899DFDF76BFAC44A2B0085420F
:10500C0001D102F06EFD0235A91E09889142F5D03E
:10501C00F622C01A431E9841FF3208AB9B18187039
:10502C00FB2508AB6D00ED18290085A8FCF79AFC50
:10503C00A84204D0B64B08AA9B1803221A708023EE
:10504C00226911690B431361B74216D01822002153
:10505C001AA806F0D0F8089B52211B93802308AAAB
:10506C0052185B001380033108AA5218EC3B1370E2
:10507C00013108AA113B521813702000FCF7D8FD1F
:10508C004C22012708AB9B181B78023A089308ABFB
:10509C009B181B8808AA9383FDF76AFA9D4E356806
:1050AC003D4055D19C4B9D4C083323609C4B089A3A
:1050BC00A361631DDA7723002C331D70994B20619B
:1050CC0008339948A36399496560A5602573E56326
:1050DC0024646061E5612562E58425856585258606
:1050EC00FCF772FC924B934908336364A069A56486
:1050FC00E464FCF769FC200026222900503006F0FD
:10510C007AF82000842229005200763006F073F8D9
:10511C0020007F3026222900FF3006F06CF820009A
:10512C00A53026222900FF3006F065F8EA2320007E
:10513C005B00E550ED30103313222900E550FF30B1
:10514C0006F059F87C4A7D492000376005F023FFB2
:10515C0008AB1B7F1F22190091431B3A002908D072
:10516C00013A202905D03C329343403B5A425A41E4
:10517C0001326A4C0FA920692262FEF7B1FB20694B
:10518C00FEF7EEFB03270A261194002456AD5DAB07
:10519C003A002E712F72EB602100EC802C745BA80E
:1051AC0006F029F8664B08AA56933E23FF339B184A
:1051BC00DE7760AB1F7065AB093EEB6262AB3A0009
:1051CC00EE841C70AC61AC83210063A806F013F86C
:1051DC004A225C4B5C4F2B6208AB9B18AC63AC87D0
:1051EC003A681B88324009931600A2424AD1FDF757
:1051FC00ABFA099A08AB554C1A84554B08902360AE
:10520C0001236373534B6660E361534BA6602362C7
:10521C0023001033636213062673A061A6625B0F32
:10522C000422002B09D0013A012B06D0043206339C
:10523C001340063A934200D801326423636323007F
:10524C000026210040331E70444B4C31E36441482E
:10525C002665646522636664A663A664FCF7B4FBEA
:10526C0021003F4B5831A365206AE6652466FCF7A4
:10527C00ABFB5EAB10A9089863612561FEF730FBB0
:10528C0001233B600024119F119E66AD354B2822F3
:10529C002100A2366C60AC602C736BA866932C61F9
:1052AC0005F0A9FF2E644F2608ABFFA8F6188C3723
:1052BC006BA98030EF636E64FFF712FB0822482164
:1052CC00119B3C2776331A8008AA119B521812881E
:1052DC0078331A80023108AA119B521812887A333B
:1052EC001A80023108AA119B5218127811987C333B
:1052FC001A8088300222310005F061FF34E0C0468C
:10530C00D019000024E8FFFF12020000FFFF00008C
:10531C0011020000E404002044D300084C050020D6
:10532C006807002080D300081008002084050020A6
:10533C0074D3000890050020000000207D1B00089D
:10534C0080BC00088CBC0008E0040020E8040020AD
:10535C00B0BC0008200800205807002098BC0008AA
:10536C00A4BC000864BB0008119B3900A23308934D
:10537C00A300EB185869FAF7F9FE089B6600013494
:10538C00F0520A2CF0D1D2230F21119A5B00D1528A
:10539C000122FF201199243BCA5211992633C8527D
:1053AC0011991C3BCA5211992633CC5200238EAE54
:1053BC00EF49B360F36033747374F361F362F363B6
:1053CC00F364F365EB4B8E911868EB497160EB4914
:1053DC00104204D1EA481A6008600820486008238B
:1053EC00E84F0025BA69ABAC13430F22BB610868C8
:1053FC00436893431A000423134343600120AAAB70
:10540C001D70E14B08AA9B18F0668FA871661D7081
:10541C00B566FCF70DFC0120DC4BDD4AAB93116843
:10542C00DC4BA5606360E56025746574E561E5623D
:10543C00E563E564E5650797D74B014204D1D04994
:10544C001060196009215960079A0025916908229A
:10545C000A4307998A61F021186842688A4311004F
:10546C0040220A43426063660123E366C7AB1D70AA
:10547C00CA4B08AA9B18ACA8A5661D70FCF7D8FBF4
:10548C00E494CD24C64AC8ABC892C64A08A9C992AE
:10549C00E2AA1570C44A1D745218C9A81570CA9591
:1054AC00CB95CF95D395D795DB95DF95E195E39685
:1054BC00FCF7BEFB119BE4007633089308ABE418B1
:1054CC00BA49BB4BBB4808AA0833891880186560D9
:1054DC00A56025732561656125762360FCF70CFBBF
:1054EC000122B54BB5481B68B5498446134273D1AC
:1054FC00B44B01351868B44A284204D1B3481D6036
:10550C0010600C205060079B986910230343079888
:10551C0083611268AE4B5068184080239B02034392
:10552C0001205360AB4AAC4B1568054204D1AB4D1E
:10553C0010601D6002255D60079A9069202202436D
:10554C00079882611A68A64B1068184080239B004C
:10555C00034313600122A34B1868104204D10327A4
:10556C00A148874D1A60A0C0079B9F4D9A690823DC
:10557C001343079A93610122079B28689B69134385
:10558C00079A936163464A681A4080239B0413432D
:10559C004B600268954B1A4080239B0113430022F9
:1055AC0003609348934B0830186087489D611861DD
:1055BC00894808AD586172485A60D8617D489A6034
:1055CC00401918628C481A7358628C485A73986246
:1055DC001A63794B01321A600120894A894B15688C
:1055EC00054204D1664D10601D6004255D60079A6C
:1055FC00906908220243079882611868079B079DEF
:10560C009A6901231A43AA6162464D6815408022AB
:10561C0092042A434A6001686D4A1140802292022A
:10562C000A43794902600868784A184204D1544800
:10563C000B60106005205060079B996908230B4391
:10564C0007998B611168724A0B681A4080239B037F
:10565C0013430B6001216F4B6F4A1868084204D149
:10566C0047481960106006205060079B9969082311
:10567C000B4307998B6180231068684902689B046F
:10568C000A40134303600120654B0B911968654A6E
:10569C00014204D13A491860116007215160079BFF
:1056AC00544D996908230B43079928008B6180217D
:1056BC001268890513681B011B090B431360FCF767
:1056CC00AFFC2B7B002B22D101332B73564BDA68AA
:1056DC006A60002A00D095609A68DD60002A00D1CB
:1056EC009D600A225A610123504A11689943116046
:1056FC004F495160002191601068043101431160E1
:10570C00022110680143116011680B431360ABABAD
:10571C006367C8ABA3671AABE367DD2308AADB009A
:10572C009B18089A08A91A60424A66AB5218136073
:10573C00EB23DE22DB00D2005B1852181360002230
:10574C003D4B12A85B181A603C4B16A919933C4BA5
:10575C00E566266716941893FDF704FC394B2CA9C3
:10576C002F93394B26A82C942E93FDF7FBFB6DE061
:10577C00ECBC0008F00100200CBD0008F401002076
:10578C00000C0140001002408902000018BD000806
:10579C00E401002038BD0008E8010020FD020000F3
:1057AC0044BD000864BD000869030000D106000078
:1057BC005CD30008810600002C010020FFFFFFF8DD
:1057CC00000001407C0100208001002000100140FD
:1057DC00FFFFF0FF70010020740100200014014055
:1057EC00FFF0FFFF6401002068010020FF0FFFFFA6
:1057FC0068D300083001002044C3000844CB0008E3
:10580C00A8000020AC0000209C000020A00000207C
:10581C00FFFF0FFF9000002094000020FFFFFFF01F
:10582C0084000020880000202808002010E000E000
:10583C001F1C0000EC060000F4060000C746000820
:10584C00D7050008FF460008ED050008FE4B38A9F7
:10585C003B93FE4B32A838943A93FDF783FBFC4BF9
:10586C0044AE4494F360FB4B31003EA8B360FDF7AB
:10587C0079FBF94B50AD5094EB60F84B29004AA8DA
:10588C00AB60FDF77FFBFFAB0C331C60FFAAF44B46
:10589C0018321360FFA9F34BFFAA14320C31E5A8A0
:1058AC001360FDF76FFBDF2308AADB009B1812A91E
:1058BC001800FDF757FBE12008ABC00026A9C01863
:1058CC00FDF750FBE32008ABC00032A9C018FDF770
:1058DC0049FBE52308AADB009B183EA91800FDF73D
:1058EC0041FBE72008ABC0004AA9C018FDF74AFBF2
:1058FC00E92008ABC000E5A9C018FDF743FBE5A8FB
:10590C00FCF72BF9FFA80C30FCF727F94AA8FCF799
:10591C0024F92800FCF721F93EA8FCF71EF9300009
:10592C00FCF71BF932A8FCF718F938A8FCF715F9A5
:10593C0026A8FCF712F92CA8FCF70FF912A8FCF713
:10594C000CF916A8FCF709F9C74B5094EB60C74B40
:10595C0029004AA8AB60FDF705FBFFAB0C331C60BC
:10596C00FFAAC34B18321360FFA9C24BFFAA143213
:10597C000C31E5A81360FDF73AFBE36FEB210993BB
:10598C00DD2308AADB009B181B68C9000893BA4BDF
:10599C0089180B60CF21EC20B84BC9009B188918D3
:1059AC00C000196080184AA9FDF7DCFAEE2008AB9C
:1059BC00C000E5A9C018FDF71AFBB14B08AA9B184B
:1059CC00002209995A630C31D9610899E5A80A316A
:1059DC001962089908AF0E3159620899123199620F
:1059EC0008990831D96209990E311963FCF7B5F899
:1059FC00FFA80C30FCF7B1F84AA8FCF7AEF8280069
:105A0C00FCF7ABF8DF2308AADB009B18FFA81900F2
:105A1C000C30FDF7C7FA9B4B3EA941939A4B38A823
:105A2C003E944093FDF7E3FA06234493974B0C21E5
:105A3C007360974B46947361964B50913361092375
:105A4C004A93954BE5A84B93944B4C944F93944BA2
:105A5C00E7944E93934B08A96B60934B52946B61F4
:105A6C00924B2B610A23E593914BE693914BEA936E
:105A7C00914BE99303904AA8019038A80300FFA822
:105A8C000C300200CF20C000401801008B4802955A
:105A9C000096C019FEF73EF8E7A8FCF75EF852A88E
:105AAC00FCF75BF84CA8FCF758F846A8FCF755F83F
:105ABC0038A8FCF752F83EA8FCF74FF8FFA80C30BA
:105ACC00FCF72CFBDF2008ABC000C0180100FFA8BE
