:020000040800F2
:10000000005000201D4C0008654C0008654C00089D
:10001000654C0008654C0008654C000800000000B5
:10002000000000000000000000000000654C000817
:10003000654C000800000000654C0008010D000838
:1000400063110008651100086711000869110008B4
:100050006B1100086D110008711100088D11000866
:10006000A9110008C5110008E11100086513000876
:1000700085130008A5130008C5130008E513000840
:100080000514000825140008FD110008FF110008E0
:1000900001120008031200080512000809120008E6
:1000A0007512000877120008791200087B12000808
:1000B0007D1200087F1200088112000883120008D8
:1000C0008512000887120008891200088B120008A8
:1000D0008D120008111300082D13000849130008A1
:1000E000911200080D1300080F1300080000000013
:1000F0000000000000000000000000000000000000
:0C01000000000000000000005FF808F1A3
:10010C0010B5064C2378002B07D1054B002B02D0E1
:10011C000448AFF300800123237010BD640000205D
:10012C000000000020560008044B10B5002B03D033
:10013C0003490448AFF3008010BDC0460000000026
:10014C0068000020205600080023C25C0133002AFE
:10015C00FBD1581E7047000002B471464908490093
:10016C00095C49008E4402BC7047C046002243081B
:10017C008B4274D303098B425FD3030A8B4244D363
:10018C00030B8B4228D3030C8B420DD3FF220902A5
:10019C0012BA030C8B4202D31212090265D0030B64
:1001AC008B4219D300E0090AC30B8B4201D3CB035A
:1001BC00C01A5241830B8B4201D38B03C01A52419C
:1001CC00430B8B4201D34B03C01A5241030B8B429E
:1001DC0001D30B03C01A5241C30A8B4201D3CB0289
:1001EC00C01A5241830A8B4201D38B02C01A52416E
:1001FC00430A8B4201D34B02C01A5241030A8B4271
:10020C0001D30B02C01A5241CDD2C3098B4201D388
:10021C00CB01C01A524183098B4201D38B01C01A06
:10022C00524143098B4201D34B01C01A524103097D
:10023C008B4201D30B01C01A5241C3088B4201D32C
:10024C00CB00C01A524183088B4201D38B00C01AD9
:10025C00524143088B4201D34B00C01A5241411A00
:10026C0000D20146524110467047FFE701B500200D
:10027C0000F006F802BDC0460029F7D076E77047BB
:10028C007047C0461F22430910401E3A8240024963
:10029C009B005A507047C04600E100E0704743692C
:1002AC00013343617047012A03D0022A03D0002096
:1002BC0070470160FBE70B680360F8E710B5036853
:1002CC00984710BD012A03D0022A03D000207047A2
:1002DC000160FBE70B680360F8E7012A03D0022AF0
:1002EC0003D0002070470160FBE70B680360F8E760
:1002FC00012A03D0022A03D0002070470160FBE7DB
:10030C000B680360F8E7012A03D0022A03D000200F
:10031C0070470160FBE70B680360F8E7012A03D024
:10032C00022A03D0002070470160FBE70B680360D2
:10033C00F8E7012A03D0022A03D00020704701609D
:10034C00FBE70B680360F8E7012A03D0022A03D00D
:10035C00002070470160FBE70B680360F8E7012A97
:10036C0003D0022A03D0002070470160FBE70B6822
:10037C000360F8E7012A03D0022A03D0002070475B
:10038C000160FBE70B680360F8E77047012A00D1B6
:10039C00016000207047012A03D0022A03D00020FC
:1003AC0070470160FBE70B680360F8E7012A00D196
:1003BC00016000207047012A03D0022A03D00020DC
:1003CC0070470160FBE70B680360F8E7012A00D176
:1003DC00016000207047012A00D1016000207047A5
:1003EC00012A00D1016000207047012A03D0022AA3
:1003FC0003D0002070470160FBE70B680360F8E74F
:10040C00012A00D1016000207047012A03D0022A82
:10041C0003D0002070470160FBE70B680360F8E72E
:10042C00012A03D0022A03D0002070470160FBE7A9
:10043C000B680360F8E7012A03D0022A03D00020DE
:10044C0070470160FBE70B680360F8E7012A03D0F3
:10045C00022A03D0002070470160FBE70B680360A1
:10046C00F8E7012A03D0022A03D00020704701606C
:10047C00FBE70B680360F8E7012A03D0022A03D0DC
:10048C00002070470160FBE70B680360F8E7012A66
:10049C0003D0022A03D0002070470160FBE70B68F1
:1004AC000360F8E7012A03D0022A03D0002070472A
:1004BC000160FBE70B680360F8E7012A03D0022A0E
:1004CC0003D0002070470160FBE70B680360F8E77E
:1004DC00012A03D0022A03D0002070470160FBE7F9
:1004EC000B680360F8E7012A03D0022A03D000202E
:1004FC0070470160FBE70B680360F8E7012A00D145
:10050C00016000207047012A00D101600020704773
:10051C00012A00D1016000207047012A03D0022A71
:10052C0003D0002070470160FBE70B680360F8E71D
:10053C00012A03D0022A03D0002070470160FBE798
:10054C000B680360F8E7012A03D0022A03D00020CD
:10055C0070470160FBE70B680360F8E7012A03D0E2
:10056C00022A03D0002070470160FBE70B68036090
:10057C00F8E7012A03D0022A03D00020704701605B
:10058C00FBE70B680360F8E7012A03D0022A03D0CB
:10059C00002070470160FBE70B680360F8E7012A55
:1005AC0003D0022A03D0002070470160FBE70B68E0
:1005BC000360F8E7C3690133C36170477047704744
:1005CC007047704770477047704770477047704767
:1005DC00012A03D0022A03D0002070470160FBE7F8
:1005EC000B680360F8E7012A03D0022A03D000202D
:1005FC0070470160FBE70B680360F8E703685A6E0D
:10060C001B6E1A607047012A03D0022A03D0002007
:10061C0070470160FBE70B680360F8E7012A03D021
:10062C00022A03D0002070470160FBE70B680360CF
:10063C00F8E7012A03D0022A03D00020704701609A
:10064C00FBE70B680360F8E7012A03D0022A03D00A
:10065C00002070470160FBE70B680360F8E7036854
:10066C005A6E1B6E1A607047012A03D0022A03D0FF
:10067C00002070470160FBE70B680360F8E7012A74
:10068C0003D0022A03D0002070470160FBE70B68FF
:10069C000360F8E7012A03D0022A03D00020704738
:1006AC000160FBE70B680360F8E7012A03D0022A1C
:1006BC0003D0002070470160FBE70B680360F8E78C
:1006CC0003681A6E64331B7813707047012A03D0C9
:1006DC00022A03D0002070470160FBE70B6803601F
:1006EC00F8E7012A03D0022A03D0002070470160EA
:1006FC00FBE70B680360F8E7012A03D0022A03D05A
:10070C00002070470160FBE70B680360F8E7012AE3
:10071C0003D0022A03D0002070470160FBE70B686E
:10072C000360F8E703681A6E64331B781370704724
:10073C00012A03D0022A03D0002070470160FBE796
:10074C000B680360F8E7012A03D0022A03D00020CB
:10075C0070470160FBE70B680360F8E7012A03D0E0
:10076C00022A03D0002070470160FBE70B6803608E
:10077C00F8E7012A03D0022A03D000207047016059
:10078C00FBE70B680360F8E703681A6E64331B78A9
:10079C0013707047012A03D0022A03D0002070473F
:1007AC000160FBE70B680360F8E7012A03D0022A1B
:1007BC0003D0002070470160FBE70B680360F8E78B
:1007CC00012A03D0022A03D0002070470160FBE706
:1007DC000B680360F8E7012A03D0022A03D000203B
:1007EC0070470160FBE70B680360F8E703681A6E5B
:1007FC0064331B7813707047012A03D0022A03D08C
:10080C00002070470160FBE70B680360F8E7012AE2
:10081C0003D0022A03D0002070470160FBE70B686D
:10082C000360F8E7012A03D0022A03D000207047A6
:10083C000160FBE70B680360F8E7012A03D0022A8A
:10084C0003D0002070470160FBE70B680360F8E7FA
:10085C0003685A6E1B6E1A607047012A03D0022A75
:10086C0003D0002070470160FBE70B680360F8E7DA
:10087C00012A03D0022A03D0002070470160FBE755
:10088C000B680360F8E7012A03D0022A03D000208A
:10089C0070470160FBE70B680360F8E7012A03D09F
:1008AC00022A03D0002070470160FBE70B6803604D
:1008BC00F8E7012A03D0022A03D000207047016018
:1008CC00FBE70B680360F8E7012A03D0022A03D088
:1008DC00002070470160FBE70B680360F8E7012A12
:1008EC0003D0022A03D0002070470160FBE70B689D
:1008FC000360F8E7012A03D0022A03D000207047D6
:10090C000160FBE70B680360F8E7012A03D0022AB9
:10091C0003D0002070470160FBE70B680360F8E729
:10092C00012A03D0022A03D0002070470160FBE7A4
:10093C000B680360F8E7012A03D0022A03D00020D9
:10094C0070470160FBE70B680360F8E7012A03D0EE
:10095C00022A03D0002070470160FBE70B6803609C
:10096C00F8E7012A03D0022A03D000207047016067
:10097C00FBE70B680360F8E7012A03D0022A03D0D7
:10098C00002070470160FBE70B680360F8E710B5C7
:10099C000400002C05D0236820001B68984764686D
:1009AC00F7E710BD482210B50300007A5143114AF5
:1009BC00002807D090681860814201D3081A58604B
:1009CC00002018721C68A14208D892680120A41A51
:1009DC00A14202D8012200201A7210BD9168012098
:1009EC008C42FAD8516892688A1A59688A42F1D2B4
:1009FC00F3E7C04610E000E070B50C00050000689D
:100A0C0003689B689847236820001B682C609847F4
:100A1C00042004F022F9094A136C99008850084903
:100A2C0001330B4004D51021013B49420B430133E8
:100A3C000421136404F02AF970BDC0467408002028
:100A4C000F00008010B50068411DFF318430FFF7A6
:100A5C00D3FF10BD006810B501008430CC31FFF716
:100A6C00CBFF10BD006810B50100C531FF318430DB
:100A7C00FFF7C2FF10BD9B2310B500689B00C11887
:100A8C008430FFF7B9FF10BD10B50068411DFF3170
:100A9C008430FFF7B1FF10BD10B50068411DFF3168
:100AAC008430FFF7A9FF10BD10B50068024BC118C8
:100ABC008430FFF7A1FF10BDC4040000CB2310B598
:100ACC0000689B00C1188430FFF796FF10BD000032
:100ADC0010B50068024BC1188430FFF78DFF10BDB4
:100AEC00040400009B2310B500689B00C1188430DF
:100AFC00FFF782FF10BD000010B50068024BC11853
:100B0C008430FFF779FF10BD34050000B42310B515
:100B1C000068DB00C1188430FFF76EFF10BD0000C9
:100B2C0010B50068024BC1188430FFF765FF10BD8B
:100B3C000C060000CF2310B50068DB00C118843010
:100B4C00FFF75AFF10BD000010B50068024BC1182A
:100B5C008430FFF751FF10BDE40600009B2310B555
:100B6C0000689B00C1188430FFF746FF10BD0000E1
:100B7C0010B50068024BC1188430FFF73DFF10BD63
:100B8C00540700009B2310B500689B00C1188430EB
:100B9C00FFF732FF10BDCB2310B500689B00C118C6
:100BAC008430FFF729FF10BD10B51F240068074BD8
:100BBC00C16FC25C8B785201234013438B70CB23E3
:100BCC009B00C1188430FFF717FF10BD9C05000077
:100BDC00C12310B50068DB00C25C0124531E9A418E
:100BEC00C16F8B78A34313438B70CB239B00C1182D
:100BFC008430FFF701FF10BD012210B502240068FC
:100C0C00074BC16FC35C1A408B785200A34313434C
:100C1C008B70CB239B00C1188430FFF7EDFE10BD09
:100C2C0074060000DC2310B50068DB00C3581824E0
:100C3C00013B5A1E9341C16F5B008A78DB00A243D3
:100C4C0013438B70CB239B00C1188430FFF7D4FE69
:100C5C0010BD9B2310B500689B00C1188430FFF7B2
:100C6C00CBFE10BD030010B5040088331868322188
:100C7C00421C1A600834FFF7FFFA002903D1E06F19
:100C8C0003685B68984710BD704710B50A1A02D00C
:100C9C00202104F058F810BD70477047704770471A
:100CAC0070477047704710B50468002C05D0236856
:100CBC0020001B689847A468F7E710BD10B583683F
:100CCC000400002B02D0032201009847200010BD25
:100CDC0010B504000830FFF7E6FF20696169431C7A
:100CEC002361FFF7C9FA002902D12000FFF7DBFFCF
:100CFC0010BD000010B50248FFF7EAFF10BDC0465A
:100D0C005C080020416902690023914201D34361D0
:100D1C000133180070470000037B002B0DD000231B
:100D2C00426803738368002A0ED0002B08D09360AE
:100D3C0083685A6000234360836070470B60F8E758
:100D4C00044993604A60F5E70249002BF6D10B6029
:100D5C004B60EFE75C080020002310B54361FFF700
:100D6C00DBFF10BD037B002B0CD101330373064B4F
:100D7C005A684260002A00D090601A685860002AB5
:100D8C0000D118607047C0465C08002010B5806820
:100D9C000369FC33DA691268D2060ED50021FF24F0
:100DAC005A6A5268596092B2A11AA14200D9210024
:100DBC009960FF2A01D0FFF7D5FF10BD03685A1CBC
:100DCC00C31802605972704710B5040014212068D2
:100DDC00FFF752FA002904D020212000FFF7EEFF84
:100DEC00F4E7200010BD70B5040000200D00814216
:100DFC0002D00800FFF7A8F920606560200070BDE4
:100E0C0070B504000D0000681421FFF7AFF9030062
:100E1C001420584350214019FFF72EFA200021606E
:100E2C0070BD012302684068116983400B43136154
:100E3C0070470123426810B51032934001680C6969
:100E4C0023430B6110BD036810B504009869FFF7CC
:100E5C00F0FF64216068FFF7A5FD0028F9D1236835
:100E6C009869FFF7DEFF64216068FFF79BFD00289F
:100E7C00F9D110BD70B504000D000368ED001869C0
:100E8C00FFF7D7FF23686068DA699B6AEB58136138
:100E9C00FFF7D9FF23686068DA699B6A5D196B6894
:100EAC001361FFF7D0FF3221A068FFF77BFD00280C
:100EBC00F9D170BD70B5437B0400012B20D0002B01
:100ECC0002D0022B27D070BD4069FFF7B2FF20691A
:100EDC00FFF7A7FF206B5021431C2363FFF7CCF9CE
:100EEC00114B8900256ACB58626AEB5CDB00D31886
:100EFC001968E2695B681161E36201236373E2E7DD
:100F0C008069FFF78EFFA069FFF793FFE369E26A40
:100F1C001A610223F2E78069FFF783FFA069FFF7EC
:100F2C0088FF0023EAE7C046BC5700080368426804
:100F3C00012090409B681840431E9841C0B27047F6
:100F4C0070B50600437A04000C36002B05D0002344
:100F5C00C16143723000FFF705FF3000FFF7D2FE8E
:100F6C000125002804D03000FFF7F6FE657200253D
:100F7C00280070BDF0B500268FB005AC05000C2222
:100F8C00310009A80596666003F0DDFE012363724B
:100F9C0023726B46354FE661E7602662009501943B
:100FAC0002950393049414212000FFF7C9FF002835
:100FBC00F9D12869FFF73DFF6869FFF73AFFA86987
:100FCC00FFF72FFFAA6AEB69D26968461A61FFF72F
:100FDC003AFF05212000FFF7B3FF0028F9D1AA6AD8
:100FEC00EB69D26968461A61FFF72DFF6421200076
:100FFC00FFF7D8FC0028F9D1AA6AEB69D2696846D8
:10100C001A61FFF720FF32212000FFF7CBFC0028EC
:10101C00F9D1AA6AEB69526968461A61FFF713FFA6
:10102C0032212000FFF7BEFC0028F9D1282102A8AC
:10103C00FFF720FF0C2102A8FFF71CFF062102A8D6
:10104C00FFF718FF012102A8FFF714FF802102A867
:10105C00FFF710FF01212000FFF772FF0028F9D1E4
:10106C0008A8E760FFF758FE0FB0F0BD585600080F
:10107C0010B50400072A19D1204B5B689B045B0F49
:10108C001CD0042B1CD0052B1CD0063B5A1E9341A4
:10109C001B4A5B4213401B4A9B1807291AD80800AD
:1010AC00FFF75AF8121A1C1F21242629083A00238C
:1010BC00012AF2D8114B5B685B05E0E7124BECE7B9
:1010CC00124BEAE7124BE8E7962189011800FFF76B
:1010DC004DF8A060200010BDE121F6E79621C90172
:1010EC00F4E7E121FBE796210902EFE7E121FBE7B9
:1010FC0096214902EAE7E121FBE7C04600100240D5
:10110C00E055BBFF4054890000A24A04005125025F
:10111C0080A812010300012902D10078800703E0A6
:10112C00022903D100788006C00F7047032901D132
:10113C004078F3E7042901D14078F4E7052901D17F
:10114C008078EBE7062901D18078ECE700200729AD
:10115C00EBD1D878E2E7FEE7FEE7FEE7FEE7FEE735
:10116C00FEE70000044B10B51868FFF710FC0122D5
:10117C00024B5A6110BDC046BC0700200004014060
:10118C00044B10B51868FFF702FC0222024B5A619F
:10119C0010BDC046C407002000040140044B10B52C
:1011AC001868FFF7F4FB0422024B5A6110BDC046CD
:1011BC00FC07002000040140044B10B51868FFF731
:1011CC00E6FB0822024B5A6110BDC0460408002001
:1011DC0000040140044B10B51868FFF7D8FB10222F
:1011EC00024B5A6110BDC0460C080020000401409F
:1011FC00FEE7FEE7FEE7FEE7FEE7000010B5144C45
:10120C0063699B0603D5134B1868FFF7C0FB636932
:10121C005B0603D5104B1868FFF7B9FB63691B0617
:10122C0003D50E4B1868FFF7B2FB6369DB0503D5DA
:10123C000B4B1868FFF7ABFB63699B0503D5094B98
:10124C001868FFF7A4FBF8239B00636110BDC04630
:10125C0000040140140800201C0800202408002071
:10126C002C08002034080020FEE7FEE7FEE7FEE72E
:10127C00FEE7FEE7FEE7FEE7FEE7FEE7FEE7FEE73A
:10128C00FEE7000010B5174C63695B0503D5164BE0
:10129C001868FFF77CFB63691B0503D5134B1868B3
:1012AC00FFF775FB6369DB0403D5114B1868FFF777
:1012BC006EFB63699B0403D50E4B1868FFF767FB45
:1012CC0063695B0403D50C4B1868FFF760FB63691B
:1012DC001B0403D5094B1868FFF759FBFC231B02B1
:1012EC00636110BD00040140CC070020D40700202E
:1012FC00DC070020E4070020EC070020F4070020A6
:10130C00FEE7FEE7044B10B51868FFF740FB034BF4
:10131C001A685B6810BDC0464408002000380140C4
:10132C00044B10B51868FFF732FB034B1A685B6867
:10133C0010BDC0464C08002000440040044B10B5C2
:10134C001868FFF724FB034B1A685B6810BDC04696
:10135C005408002000480040054B10B51868FFF7F2
:10136C0016FB0123034A51680B43536010BDC04662
:10137C008407002000000240054B10B51868FFF7E9
:10138C0006FB1023034A51680B43536010BDC04643
:10139C008C07002000000240054B10B51868FFF7C1
:1013AC00F6FA8023034A5B0051680B43536010BD6F
:1013BC009407002000000240054B10B51868FFF799
:1013CC00E6FA8023034A5B0151680B43536010BD5E
:1013DC009C07002000000240054B10B51868FFF771
:1013EC00D6FA8023034A5B0251680B43536010BD4D
:1013FC00A407002000000240054B10B51868FFF749
:10140C00C6FA8023034A5B0351680B43536010BD3B
:10141C00AC07002000000240054B10B51868FFF720
:10142C00B6FA8023034A5B0451680B43536010BD2A
:10143C00B40700200000024010221F4B19680A4319
:10144C0007211A601A688A43110002220A431A60A3
:10145C0080221A4B520219680A431A601A689203C6
:10146C00FCD5F0215A688A435A605A6814491140D5
:10147C008022D2000A435A605A6812490A405A60C4
:10148C008022596852020A435A605A680E49114028
:10149C00E02252030A435A608022196852040A431C
:1014AC001A601A689201FCD503215A688A4311000C
:1014BC0002220A435A60704700200240001002408A
:1014CC00FFF8FFFFFFC7FFFFFFFFC3FFF8B50123C6
:1014DC00614A624F12681A4260D1614A61481168D0
:1014EC00194204D160491360016009214160042351
:1014FC00BA69F0211343BB610123BA6905681A4329
:10150C00BA616A688A431100A0220A436A60574A8A
:10151C00574915681D4204D1534D13600D600A25BF
:10152C004D600423BA69534D1343BB610123BA695F
:10153C000E681A43BA6172681540A02212012A4340
:10154C004D4D72602E684D4A1E4204D1464E2B60A2
:10155C0016600826566004250F24BB692B43BB611B
:10156C0016687368A3439C46022364462343736046
:10157C00434B0026FC335A61424A5E609A61424AF0
:10158C009E60DA61414AD8601A62414A19615A6216
:10159C000722DD629A6201232F4A13608023384EA2
:1015AC00BA693400DB0113430822BB61FC34E369E4
:1015BC008025D96804200A43DA600422D9680A43DA
:1015CC00DA605A692A435A61402259690A435A61BE
:1015DC00304B1856FEF756FE01237A692E491343F9
:1015EC007B611027236A2D481A683A431A60626897
:1015FC009219DA60E26904329A601A682A431A6016
:10160C001A680A401A601A6802401A600222042002
:10161C0019680A431A60224B1856FEF733FE636AA8
:10162C001D491A681D48BA431A6062689219DA603B
:10163C00E26904329A60FF225A601A6815431D60F1
:10164C001A680A401A601A6802401A602022196847
:10165C0030000A431A60F8BD24010020001002403B
:10166C006C02002070020020000801406002002083
:10167C0064020020FFF0FFFF5402002058020020FB
:10168C0028010020000002400038014044000240C4
:10169C005800024044080020FFF3FFFFFFFCFFFF4F
:1016AC009C07002010B504003030FFF707FB20002A
:1016BC002030FFF703FB20001030FFF7FFFA20006B
:1016CC00FFF7FCFA200010BD70B515000C1A04D001
:1016DC0001002200280003F023FB281970BD030031
:1016EC00F0B5093387B00193036816000293029A90
:1016FC00019B05009A18037A0C00002B27D01329A4
:10170C001CD814277F1A7F08D7197B1810003900B2
:10171C000393FFF7BAFA31193A003000FFF7D4FF00
:10172C000299019B143159180398FFF7AEFA2868F7
:10173C0014305021FEF7A0FD296016E00800143883
:10174C004008301801001431FFF7BEFFEFE75021BD
:10175C00029BC91A33190293A1420BD9190030000C
:10176C00FFF7B2FF2B681C192C60002328002B728A
:10177C0007B0F0BD270071183000FFF7A5FF2B68EC
:10178C00503FFF18E41B36193000019A5036502F89
:10179C0004D93100FFF798FF503FF5E70299FFF7A6
:1017AC0093FF2B68F818C4E730B5050089B00A0020
:1017BC0005A8104903F0D4FB05A901A8FFF713FBFA
:1017CC006C68019B9C4207D9E41A013C04D320218C
:1017DC002800FFF7F3FAF8E705A903A8FFF703FBC6
:1017EC000399049A2800FFF77AFF002328006B6006
:1017FC0009B030BDD55900083F22436810B51A60B6
:10180C003C3A5A60C26A18001188FFF7CDFF10BD30
:10181C00016810B50A000800643213786630013391
:10182C00DBB213700078984203D20B0065331B783F
:10183C0013701423486803601178FFF7B5FFFFF7A6
:10184C00C3FA10BD016810B50A00080064321378A1
:10185C006530013BDBB213700078984203D90B0062
:10186C0066331B7813701423486803601178FFF7F4
:10187C009BFFFFF7A9FA10BD036810B55A6ED96E1D
:10188C0001325A668A4201DD9A6E5A6614225868F1
:10189C000260596EFFF788FFFFF796FA10BD0368D8
:1018AC0010B55A6E996E013A5A668A4201DADA6EAE
:1018BC005A66142258680260596EFFF775FFFFF7DD
:1018CC0083FA10BD036813B55A6ED96E01325A668D
:1018DC008A4201DD9A6E5A6614225C686846226060
:1018EC005B6E064A9B009958FFF77DFA0099019AA6
:1018FC002000FFF7F4FEFFF767FA13BD0459000848
:10190C00036813B55A6E996E013A5A668A4201DA27
:10191C00DA6E5A6614225C68684622605B6E064A70
:10192C009B009958FFF75FFA0099019A2000FFF786
:10193C00D6FEFFF749FA13BD04590008036813B526
:10194C005A6ED96E01325A668A4201DD9A6E5A6617
:10195C0014225C68684622605B6E064A9B009958AC
:10196C00FFF741FA0099019A2000FFF7B8FEFFF744
:10197C002BFA13BD70590008036813B55A6E996E93
:10198C00013A5A668A4201DADA6E5A6614225C68A7
:10199C00684622605B6E064A9B009958FFF723FA53
:1019AC000099019A2000FFF79AFEFFF70DFA13BD7C
:1019BC007059000813B501680A00080064321378E6
:1019CC0066300133DBB213700078984203D20B00FF
:1019DC0065331B78137014234C68684623601378A6
:1019EC00064A9B009958FFF7FEF90099019A2000CE
:1019FC00FFF775FEFFF7E8F913BDC04670590008F4
:101A0C0013B501680A000800643213786530013B95
:101A1C00DBB213700078984203D90B0066331B7845
:101A2C00137014234C68684623601378064A9B0095
:101A3C009958FFF7D8F90099019A2000FFF74FFE4B
:101A4C00FFF7C2F913BDC0467059000813B5016801
:101A5C000A0008006432137866300133DBB213706D
:101A6C000078984203D20B0065331B781370142353
:101A7C004C68684623601378064A9B009958FFF718
:101A8C00B2F90099019A2000FFF729FEFFF79CF9A3
:101A9C0013BDC046FC58000813B501680A000800C5
:101AAC00643213786530013BDBB2137000789842D6
:101ABC0003D90B0066331B78137014234C686846EB
:101ACC0023601378064A9B009958FFF78CF900990C
:101ADC00019A2000FFF703FEFFF776F913BDC0460D
:101AEC00FC58000813B501680A000800643213782A
:101AFC0066300133DBB213700078984203D20B00CE
:101B0C0065331B78137014234C6868462360137874
:101B1C00064A9B009958FFF766F90099019A200034
:101B2C00FFF7DDFDFFF750F913BDC04678590008EB
:101B3C0013B501680A000800643213786530013B64
:101B4C00DBB213700078984203D90B0066331B7814
:101B5C00137014234C68684623601378064A9B0064
:101B6C009958FFF740F90099019A2000FFF7B7FD4B
:101B7C00FFF72AF913BDC04678590008F7B5056878
:101B8C002A00A4321368002B28D02E001424A0366F
:101B9C00013B136033686868634313210360FFF7EC
:101BAC002FF907000E496846FFF71DF9019A0099B5
:101BBC003800FFF794FD33686868013B5C43336081
:101BCC0013210460FFF71CF9040006496846FFF76F
:101BDC000AF90099019A2000FFF781FDF7BDC04674
:101BEC009D590008D8690008F7B505682A00A43289
:101BFC001368022B28D02E001424A0360133136056
:101C0C0033686868634313210360FFF7F9F8070032
:101C1C000E496846FFF7E7F8019A00993800FFF77C
:101C2C005EFD3368686801335C43336013210460E4
:101C3C00FFF7E6F8040006496846FFF7D4F8009968
:101C4C00019A2000FFF74BFDF7BDC0469D590008D7
:101C5C00D8690008F7B505682A00BC321368002B58
:101C6C0028D02E001424B836013B13603368686802
:101C7C00634313210360FFF7C3F807000E4968465E
:101C8C00FFF7B1F8019A00993800FFF728FD336887
:101C9C006868013B5C43336013210460FFF7B0F8C4
:101CAC00040006496846FFF79EF80099019A200047
:101CBC00FFF715FDF7BDC0469D590008D86900080F
:101CCC00F7B505682A00BC321368032B28D02E0008
:101CDC001424B836013313603368686863431321E6
:101CEC000360FFF78DF807000E496846FFF77BF895
:101CFC00019A00993800FFF7F2FC336868680133E9
:101D0C005C43336013210460FFF77AF80400064942
:101D1C006846FFF768F80099019A2000FFF7DFFC8E
:101D2C00F7BDC0469D590008D8690008002370B55E
:101D3C0083608B6804000D00002B05D002229847AD
:101D4C00EB68E360AB68A360200070BD002370B546
:101D5C0083608B6804000D00002B05D0022298478D
:101D6C00EB68E360AB68A360200070BD836810B5BE
:101D7C00002B01D102F08EFFC368984710BD10B53F
:101D8C0000681830FFF7F2FF10BD10B5006848303E
:101D9C00FFF7ECFF10BD10B500684830FFF7E6FF09
:101DAC0010BD10B500684830FFF7E0FF10BD10B54E
:101DBC0000684830FFF7DAFF10BD10B500684830F6
:101DCC00FFF7D4FF10BD10B500684830FFF7CEFF09
:101DDC0010BD10B500684830FFF7C8FF10BD006893
:101DEC0018220300D4331B6810B55343C01860305D
:101DFC00FFF7BCFF10BD10B500684830FFF7B6FF09
:101E0C0010BD006818220300A4331B6810B553439F
:101E1C00C0186030FFF7AAFF10BD10B5006848303D
:101E2C00FFF7A4FF10BD006818220300BC331B6829
:101E3C0010B55343C0186030FFF798FF10BD10B5B4
:101E4C0000684830FFF792FF10BD836810B5002B77
:101E5C0001D102F01FFFC368984710BD1FB5074B97
:101E6C0069460093064B08300393064B0293FFF729
:101E7C00ECFF6846FEF722FF05B000BDA902000882
:101E8C00C9020008D1020008F0B5040085B0184F53
:101E9C00184E194D69460830009703960295FFF7C6
:101EAC00D4FF6846FEF70AFF2000694618300097F9
:101EBC0003960295FFF7C9FF6846FEF7FFFE200068
:101ECC0069462830009703960295FFF7BEFF6846D7
:101EDC00FEF7F4FE20006946383000970396029511
:101EEC00FFF7B3FF6846FEF7E9FE05B0F0BDC0464C
:101EFC00A9020008C9020008D1020008F0B50400CC
:101F0C0085B0184F184E194D694608300097039646
:101F1C000295FFF79AFF6846FEF7D0FE200069464F
:101F2C001830009703960295FFF78FFF6846FEF76F
:101F3C00C5FE200069462830009703960295FFF7EE
:101F4C0084FF6846FEF7BAFE2000694638300097D9
:101F5C0003960295FFF779FF6846FEF7AFFE05B0D2
:101F6C00F0BDC046A9020008C9020008D102000851
:101F7C00F0B5040085B0184F184E194D694608305D
:101F8C00009703960295FFF760FF6846FEF796FEF2
:101F9C00200069461830009703960295FFF755FF0D
:101FAC006846FEF78BFE20006946283000970396A2
:101FBC000295FFF74AFF6846FEF780FE200069464F
:101FCC003830009703960295FFF73FFF6846FEF7FF
:101FDC0075FE05B0F0BDC046A9020008C902000894
:101FEC00D1020008F0B5040085B0184F184E194DF9
:101FFC0069460830009703960295FFF726FF68465E
:10200C00FEF75CFE20006946183000970396029597
:10201C00FFF71BFF6846FEF751FE2000694628308B
:10202C00009703960295FFF710FF6846FEF746FEF1
:10203C00200069463830009703960295FFF705FF9C
:10204C006846FEF73BFE05B0F0BDC046A90200088D
:10205C00C9020008D1020008F0B5040085B0184F81
:10206C00184E194D69460830009703960295FFF7F4
:10207C00ECFE6846FEF722FE2000694618300097F9
:10208C0003960295FFF7E1FE6846FEF717FE200067
:10209C0069462830009703960295FFF7D6FE6846EE
:1020AC00FEF70CFE20006946383000970396029527
:1020BC00FFF7CBFE6846FEF701FE05B0F0BDC0464B
:1020CC00A9020008C9020008D1020008F0B50400FA
:1020DC0085B0184F184E194D694608300097039675
:1020EC000295FFF7B2FE6846FEF7E8FD2000694650
:1020FC001830009703960295FFF7A7FE6846FEF787
:10210C00DDFD200069462830009703960295FFF705
:10211C009CFE6846FEF7D2FD2000694638300097D9
:10212C0003960295FFF791FE6846FEF7C7FD05B0D2
:10213C00F0BDC046A9020008C9020008D10200087F
:10214C00F0B5040085B0184F184E194D694608308B
:10215C00009703960295FFF778FE6846FEF7AEFDF2
:10216C00200069461830009703960295FFF76DFE24
:10217C006846FEF7A3FD20006946283000970396B9
:10218C000295FFF762FE6846FEF798FD200069464F
:10219C003830009703960295FFF757FE6846FEF716
:1021AC008DFD05B0F0BDC046A9020008C9020008AB
:1021BC00D1020008F0B5040085B0184F184E194D27
:1021CC0069460830009703960295FFF73EFE684675
:1021DC00FEF774FD200069461830009703960295AF
:1021EC00FFF733FE6846FEF769FD2000694628308C
:1021FC00009703960295FFF728FE6846FEF75EFDF2
:10220C00200069463830009703960295FFF71DFEB3
:10221C006846FEF753FD05B0F0BDC046A9020008A4
:10222C00C9020008D1020008F0B5040085B0184FAF
:10223C00184E194D69460830009703960295FFF722
:10224C0004FE6846FEF73AFD2000694618300097F8
:10225C0003960295FFF7F9FD6846FEF72FFD200067
:10226C0069462830009703960295FFF7EEFD684605
:10227C00FEF724FD2000694638300097039602953E
:10228C00FFF7E3FD6846FEF719FD05B0F0BDC0464B
:10229C00A9020008C9020008D1020008F0B5040028
:1022AC0085B0184F184E194D6946083000970396A3
:1022BC000295FFF7CAFD6846FEF700FD200069464F
:1022CC001830009703960295FFF7BFFD6846FEF79E
:1022DC00F5FC200069462830009703960295FFF71D
:1022EC00B4FD6846FEF7EAFC2000694638300097DA
:1022FC0003960295FFF7A9FD6846FEF7DFFC05B0D3
:10230C00F0BDC046A9020008C9020008D1020008AD
:10231C0030B504003C4B85B003933C4B69460090B0
:10232C0008300293FFF791FD6846FEF7C7FC65681D
:10233C002900280059310930FEF7A7FC00232B6037
:10234C006568334A2B6001332B72A36A68461B689D
:10235C009B009958FEF747FD019A00992800FFF75A
:10236C00BEF9142365682B492B606846FEF73BFDCC
:10237C00019A00992800FFF7B2F9636B1988FFF7EF
:10238C0013FA2823656824492B606846FEF72BFD59
:10239C00019A00992800FFF7A2F9FEF715FD656870
:1023AC001E496846FEF71FFD019A00992800FFF7A9
:1023BC0096F9032360684360E36A1988FFF7F4F920
:1023CC00050017496846FEF70EFD019A0099280092
:1023DC00FFF785F94423656812492B606846FEF7C0
:1023EC0002FD019A00992800FFF779F94A236468E5
:1023FC000D4923606846FEF7F6FC0099019A20000F
:10240C00FFF76DF905B030BD8B1D0008B302000855
:10241C0004590008B9590008BF590008CE590008E2
:10242C00D05900088E6A0008D259000870B5040013
:10243C00424B88B00793424B04A904900830069392
:10244C00FFF703FD04A8FEF739FC20003D4B04A95F
:10245C0007933D4B183006930494FFF7F6FC04A841
:10246C00FEF72CFC2000394B04A90793384B28307D
:10247C0006930494FFF7E9FC04A8FEF71FFC200068
:10248C00344B04A90793344B383006930494FFF76C
:10249C00DCFC04A8FEF712FC002360680360E26D0C
:1024AC00A16DFFF71CF9FEF78FFC616E6068FFF7FA
:1024BC007BF9FEF789FC656828496846FEF793FCB2
:1024CC00019A00992800FFF70AF90600244D02A88A
:1024DC002900FEF788FC039A02993000FFF7FFF8F9
:1024EC000600204904A8FEF77EFC059A04993000EA
:1024FC00FFF7F5F8FEF768FC64681B496846FEF7C1
:10250C0072FC019A00992000FFF7E9F804002900F9
:10251C0002A8FEF768FC039A02992000FFF7DFF887
:10252C000400124904A8FEF75EFC0499059A2000E9
:10253C00FFF7D5F8FEF748FC08B070BDD1180008BD
:10254C00DD0500080D190008F30500080906000850
:10255C0013060008971D0008290600089459000866
:10256C00D86900089F590008A7590008B2590008FB
:10257C0070B50400424B88B00793424B04A90490F9
:10258C0008300693FFF761FC04A8FEF797FB2000C8
:10259C003D4B04A907933D4B183006930494FFF769
:1025AC0054FC04A8FEF78AFB2000394B04A90793BE
:1025BC00384B283006930494FFF747FC04A8FEF729
:1025CC007DFB2000344B04A90793344B3830069321
:1025DC000494FFF73AFC04A8FEF770FB0023606834
:1025EC000360E26DA16DFFF77AF8FEF7EDFB616E0B
:1025FC006068FFF7D9F8FEF7E7FB6568284968467D
:10260C00FEF7F1FB019A00992800FFF768F8060025
:10261C00244D02A82900FEF7E6FB039A029930002C
:10262C00FFF75DF80600204904A8FEF7DCFB059ACD
:10263C0004993000FFF753F8FEF7C6FB64681B499A
:10264C006846FEF7D0FB019A00992000FFF747F887
:10265C000400290002A8FEF7C6FB039A0299200089
:10266C00FFF73DF80400124904A8FEF7BCFB0499DF
:10267C00059A2000FFF733F8FEF7A6FB08B070BDF3
:10268C00491900083F06000885190008550600087E
:10269C006B06000875060008A31D00088B060008D1
:1026AC0094590008D86900089F590008A7590008D8
:1026BC00B259000870B50400434B88B00793434BE4
:1026CC0004A9049008300693FFF7BFFB04A8FEF79B
:1026DC00F5FA20003E4B04A907933E4B18300693A5
:1026EC000494FFF7B2FB04A8FEF7E8FA20003A4B7B
:1026FC0004A90793394B283006930494FFF7A5FBE4
:10270C0004A8FEF7DBFA2000354B04A90793354BE0
:10271C00383006930494FFF798FB04A8FEF7CEFA22
:10272C00002360680360E26DA16DFEF7D8FFFEF731
:10273C004BFB2300643319786068FFF735F8FEF71C
:10274C0043FB656828496846FEF74DFB019A0099E2
:10275C002800FEF7C4FF0600244D02A82900FEF74E
:10276C0042FB039A02993000FEF7B9FF060020499C
:10277C0004A8FEF738FB059A04993000FEF7AFFF6A
:10278C00FEF722FB64681B496846FEF72CFB019A96
:10279C0000992000FEF7A3FF0400290002A8FEF711
:1027AC0022FB039A02992000FEF799FF04001249BC
:1027BC0004A8FEF718FB0499059A2000FEF78FFF7A
:1027CC00FEF702FB08B070BDC1190008A106000895
:1027DC000D1A0008B7060008CD060008D906000837
:1027EC00AF1D0008EF06000894590008D8690008CE
:1027FC009F590008A7590008B259000870B5040089
:10280C00434B88B00793434B04A9049008300693BC
:10281C00FFF71BFB04A8FEF751FA20003E4B04A95E
:10282C0007933E4B183006930494FFF70EFB04A855
:10283C00FEF744FA20003A4B04A90793394B283091
:10284C0006930494FFF701FB04A8FEF737FA200067
:10285C00354B04A90793354B383006930494FFF796
:10286C00F4FA04A8FEF72AFA002360680360E26D0C
:10287C00A16DFEF734FFFEF7A7FA23006433197835
:10288C006068FEF791FFFEF79FFA65682849684675
:10289C00FEF7A9FA019A00992800FEF720FF06001E
:1028AC00244D02A82900FEF79EFA039A02993000E3
:1028BC00FEF715FF0600204904A8FEF794FA059AC6
:1028CC0004993000FEF70BFFFEF77EFA64681B4993
:1028DC006846FEF788FA019A00992000FEF7FFFE81
:1028EC000400290002A8FEF77EFA039A0299200040
:1028FC00FEF7F5FE0400124904A8FEF774FA0499D9
:10290C00059A2000FEF7EBFEFEF75EFA08B070BDEC
:10291C00591A000805070008A51A00081B0700082B
:10292C00310700083D070008BB1D000853070008CD
:10293C0094590008D86900089F590008A759000845
:10294C00B259000870B50400434B88B00793434B51
:10295C0004A9049008300693FFF777FA04A8FEF751
:10296C00ADF920003E4B04A907933E4B183006935B
:10297C000494FFF76AFA04A8FEF7A0F920003A4B7A
:10298C0004A90793394B283006930494FFF75DFA9A
:10299C0004A8FEF793F92000354B04A90793354B97
:1029AC00383006930494FFF750FA04A8FEF786F922
:1029BC00002360680360E26DA16DFEF790FEFEF7E8
:1029CC0003FA2300643319786068FEF7EDFEFEF716
:1029DC00FBF9656828496846FEF705FA019A0099E3
:1029EC002800FEF77CFE0600244D02A82900FEF705
:1029FC00FAF9039A02993000FEF771FE060020499D
:102A0C0004A8FEF7F0F9059A04993000FEF767FE6A
:102A1C00FEF7DAF964681B496846FEF7E4F9019A97
:102A2C0000992000FEF75BFE0400290002A8FEF7C7
:102A3C00DAF9039A02992000FEF751FE04001249BC
:102A4C0004A8FEF7D0F90499059A2000FEF747FE7A
:102A5C00FEF7BAF908B070BDF11A00086907000852
:102A6C003D1B00087F07000895070008A107000818
:102A7C00C71D0008B707000894590008D86900085A
:102A8C009F590008A7590008B259000870B50400F6
:102A9C00434B88B00793434B04A90490083006932A
:102AAC00FFF7D3F904A8FEF709F920003E4B04A95F
:102ABC0007933E4B183006930494FFF7C6F904A80D
:102ACC00FEF7FCF820003A4B04A90793394B283049
:102ADC0006930494FFF7B9F904A8FEF7EFF8200069
:102AEC00354B04A90793354B383006930494FFF704
:102AFC00ACF904A8FEF7E2F8002360680360E26D0D
:102B0C00A16DFEF7ECFDFEF75FF923006433197835
:102B1C006068FEF749FEFEF757F965682849684674
:102B2C00FEF761F9019A00992800FEF7D8FD06001E
:102B3C00244D02A82900FEF756F9039A0299300099
:102B4C00FEF7CDFD0600204904A8FEF74CF9059AC6
:102B5C0004993000FEF7C3FDFEF736F964681B4993
:102B6C006846FEF740F9019A00992000FEF7B7FD80
:102B7C000400290002A8FEF736F9039A02992000F6
:102B8C00FEF7ADFD0400124904A8FEF72CF90499D8
:102B9C00059A2000FEF7A3FDFEF716F908B070BDEC
:102BAC001D180008CD07000851180008E30700089D
:102BBC00F907000805080008D31D00081B080008C9
:102BCC0094590008D86900089F590008A7590008B3
:102BDC00B259000870B50400424B88B00793424BC1
:102BEC0004A9049008300693FFF72FF904A8FEF708
:102BFC0065F820003D4B04A907933D4B1830069314
:102C0C000494FFF722F904A8FEF758F82000394B7A
:102C1C0004A90793384B283006930494FFF715F951
:102C2C0004A8FEF74BF82000344B04A90793344B4F
:102C3C00383006930494FFF708F904A8FEF73EF821
:102C4C00002360680360E26DA16DFEF748FDFEF79E
:102C5C00BBF8616E6068FEF7A7FDFEF7B5F8656816
:102C6C0028496846FEF7BFF8019A00992800FEF73C
:102C7C0036FD0600244D02A82900FEF7B4F8039A8D
:102C8C0002993000FEF72BFD0600204904A8FEF740
:102C9C00AAF8059A04993000FEF721FDFEF794F886
:102CAC0064681B496846FEF79EF8019A009920005B
:102CBC00FEF715FD0400290002A8FEF794F8039A0C
:102CCC0002992000FEF70BFD0400124904A8FEF740
:102CDC008AF80499059A2000FEF701FDFEF774F8B6
:102CEC0008B070BD8518000831080008AB18000842
:102CFC00470800085D08000867080008DF1D000889
:102D0C007D08000894590008D86900089F590008EC
:102D1C00A7590008B2590008002310B5FC30040074
:102D2C00436083604069FEF784F80123216A0A68D6
:102D3C009A430A60626A116899431160FF215160DD
:102D4C00626A11680B4313601368DB07FCD5102310
:102D5C00E269D1680B43D36010BD10B58468236958
:102D6C00FC33D96A9869FEF7D5F9002802D020699E
:102D7C00FFF7D2FF10BD70B505000C00FEF7D6FFB3
:102D8C002800210010301031FEF7D0FF2800210060
:102D9C0020302031FEF7CAFF2800210030303031BE
:102DAC00FEF7C4FF280070BD10B504000CC90CC0A0
:102DBC00FEF7CCFF200010BD70B504001D00134BB6
:102DCC004160036011000830FFF7D5FF2000290097
:102DDC004830FEF7BBFF200004995830FFF7E4FFA2
:102DEC00200005997030FFF7DFFF2000069988302E
:102DFC00FFF7DAFF20000799A030FFF7D5FF22007C
:102E0C000023B83220001360536070BD7856000860
:102E1C00F0B5294C294BA54410AA110031CB31C176
:102E2C0031CB31C196785588F307DB0F05937307C7
:102E3C00DB0F0693F3069B0F0793FEF747FB01216D
:102E4C001F4BB7071B68FF0F76090B4076D11D4C43
:102E5C001D4A20611D480832A061601DC177210008
:102E6C002C316360A3602373E3612362E3842385C5
:102E7C0063850B702386E363154B2260154A083378
:102E8C00A363136862612464002B03D1124B13609B
:102E9C0005E013005A68002AFBD10F4A5A60002340
:102EAC00A3640E4B094A083363641368E464002B73
:102EBC0019D10B4B13601BE0D4F5FFFF38560008FB
:102ECC00780200207C020020DC6900089C070020AE
:102EDC000C6A000844080020B4020020006A0008B4
:102EEC00C002002013005A68002AFBD1F04A5A6035
:102EFC002000F0220021503001F025FF2000B822E4
:102F0C00413052000021FF3001F01DFFAC239B002B
:102F1C00E018F022002101F016FFE8239B00E018D6
:102F2C00F022002101F00FFF9223DB00E018782241
:102F3C00002101F008FF0122DE4B1A60EDB21F23C5
:102F4C002A009A431B3B002A08D0013B202A05D0BB
:102F5C003C339D43403D6B426B410133D64C3100B9
:102F6C0023622369FC339A6AD869FEF781F87B02E5
:102F7C00D24AC768D24917401F43C760069B1A0341
:102F8C00C3680B401343C360079BCE491A03036904
:102F9C000B4013430361059B002B01D100F0EAFFAA
:102FAC008023C268DB001343C3608023C2689B018B
:102FBC001343C3602069FFF7AFFEA0230820A122B2
:102FCC005B00E05210AB19885200A15259880232B2
:102FDC00A1521A79A3235B00E2520122BA4BBB49DE
:102FEC00E252EE33E150AF2100230A2589006352EF
:102FFC00F0316552B64944AD4491B649AB60696055
:10300C00B549EB600C682B746B74EB61EB62EB6392
:10301C00EB64EB65B14B144203D1B14C58601C60AE
:10302C000A600822AF4C0027A16960AE0A430F2149
:10303C00A261186842688A43110004220A43426064
:10304C006B665FAB1F706E2304AAFF339B1845A8F9
:10305C001F70AF66FDF786FE0121A34BA34A609358
:10306C001068A34BB7607360F76037747774F761BF
:10307C00F762F763F764F7659E4B084204D19848F2
:10308C0011601860092058600822A16900270A43C2
:10309C00F021A261186842688A43110040220A4359
:1030AC00426073667BAB1F70DE2304AAFF339B1850
:1030BC0061A8B7661F70FDF755FE8F4A7CAB7C92FA
:1030CC008E4A04A97D9296AA17708D4A1F745218C5
:1030DC007DA8989617707E977F97839787978B9785
:1030EC008F97939795979795FDF73CFE854B86495F
:1030FC000833999304ABC918844B04AA99AE9B1856
:10310C0018007760B7603773376177613776FDF7F2
:10311C00BCFD01227E4B7F491B6813426DD17E485A
:10312C007E4B0768174204D17D4F02601F600C274D
:10313C005F601022A0690243A2611868794B426853
:10314C001A4080239B02134343600120764A774B3D
:10315C001768074204D1764F10601F6002275F602A
:10316C002022A0690243A2611868724A03681A40BF
:10317C0080239B001343012203606F4B186810429D
:10318C0005D16E48564F1A60076003274760082325
:10319C00A26904AF13430122A361684B18689C46D3
:1031AC00A3691343A3614A68654B1A4080239B04AF
:1031BC0013434B600368634A1A4080239B011343FB
:1031CC0003606148614B0830186054480022186154
:1031DC0056485A6058616046986141489A60D86177
:1031EC004A481A73C019186259485A735862594898
:1031FC001A639862464B01321A600120564A574BAB
:10320C001768074204D1364F10601F6004275F60B7
:10321C000822A0690243A26101221868A369134322
:10322C00A3614F68464B1F4080239B043B434B607C
:10323C0001683C4B194080239B020B4348490360B7
:10324C000868484B104204D125480A6018600520D4
:10325C0058600822A1690A43A2611968424A0B68A6
:10326C001A4080239B0313430B6001213F4A404BC0
:10327C001068084204D11A48116018600620586082
:10328C000822A1690A43A26119683A4A0B681A40DC
:10329C0080239B0413430B600121374A374B106882
:1032AC0008426DD10E48116018600720586067E025
:1032BC00C0020020780200207C020020FFFDFFFFEE
:1032CC00FFEFFFFFFFCFFFFFB2020000FF00FF0088
:1032DC004057000860570008180100201C0100200E
:1032EC00000C0140001002406C5700080C0100203B
:1032FC008C5700081001002098570008B857000898
:10330C0049020000E8690008BD0200006D020000DF
:10331C00B00000200000014000010020040100204A
:10332C0000100140FFFFF0FFF4000020F800002027
:10333C0000140140FFF0FFFFE8000020EC0000202B
:10334C00FFFFFFF8FF0FFFFFF4690008B400002037
:10335C00D8590008D8610008A4000020A80000205B
:10336C00980000209C000020FFFF0FFF8C00002025
:10337C0090000020FFFFFFF0800000208400002060
:10338C000822A1690A43A26180221968FB4C0B68D0
:10339C0092051B011B0913430B602000FDF7EAFD8E
:1033AC00237B002B22D101332373F54BDA68626047
:1033BC00002A00D094609A68DC60002A00D19C60DE
:1033CC000A225A61EF4B093A196891431960EE4988
:1033DC005960002199601868043101431960022179
:1033EC0018680143196019680A431A60002260AB1F
:1033FC0073677CABB36710ABF367E44B0CA9B99361
:10340C00CCABBA93E24B08A80F93E24B3567BB9257
:10341C00F4660C960E93FEF789FCDF4B1CAC1C96E5
:10342C00E360DE4B210016A8A360FEF77FFCDC4BAB
:10343C0028AF2896FB60DB4B390022A8BB60FEF757
:10344C0075FCD94B2EAD3793D84B34A92800369345
:10345C003496FEF76BFC08A9BCA8FEF767FC16A90E
:10346C00C0A8FEF763FC22A9C4A8FEF75FFC2900E4
:10347C00C8A8FEF75BFC2800FDF720FC34A8FDF77C
:10348C001DFC22A8FDF71AFC3800FDF717FC16A846
:10349C00FDF714FC2000FDF711FC08A8FDF70EFC4D
:1034AC000CA8FDF70BFCC24B2896FB60C14B3900F6
:1034BC0022A8BB60FEF73AFCBF4B34A93793BF4B35
:1034CC00280034963693FEF741FCF36F22A9103393
:1034DC000693B99BCEA80593B94BCC939DABCD93DA
:1034EC00FEF724FC2900D2A8FEF730FC069B28002E
:1034FC00D693059B0A33D793059B0E33D893059B24
:10350C001233D993FDF7DAFB34A8FDF7D7FB22A8C9
:10351C00FDF7D4FB3800FDF7D1FBBCA934A8FFF7AD
:10352C002AFCA84B16A91993A74B0CA8169618930E
:10353C00FEF70CFC06231C93A44B0A206360A44BDF
:10354C001E966361A34B2E90236109232293A24BF9
:10355C0022A92393A14BDAA82793A14B26930C23E2
:10356C002893A04B7B60A04B2A967B619F4B3B61C1
:10357C009F4B6B609F4B6B619F4B2B61039502972D
:10358C0001910CA90B0034A90A0000949DA9FFF726
:10359C0013FC30A90800FDF791FB2AA90800FDF7E0
:1035AC008DFB24A90800FDF789FB1EA90800FDF777
:1035BC0085FB0CA90800FDF781FB16A90800FDF797
:1035CC007DFB34A90800FEF76DF8BCA934A8FFF701
:1035DC00D2FB8A4B1C96E360894B210016A8A36092
:1035EC00FEF7B4FB0F23874A2E932392864A22932D
:1035FC002792864A864B269212226B60854B289224
:10360C006B61854B854A2B61E2237A60844A5B00AF
:10361C007A61844A9DA93A61834AFFA8F250043327
:10362C00F150343034A9FFF7A6FBFFA816A974306B
:10363C00FEF78CFBFFA822A98430FFF7B5FBFFA88F
:10364C0039009C30FFF7B0FBFFA82900B430FFF71E
:10365C00ABFB992300229B00F25030A90433F250AB
:10366C000800FDF72BFB2AA90800FDF727FB24A96E
:10367C000800FDF723FB16A90800FDF71FFB20002F
:10368C00FDF71CFB34A90800FEF70CF8BCA934A804
:10369C00FFF771FB654B16A91993654B0CA8169691
:1036AC001893FEF753FB11231C93624B0A206360A3
:1036BC00614B624A6361624B7A602361614B624A7F
:1036CC002393624B2A962793614B229026930E23C9
:1036DC0028932E935F4B7A616B605F4B30965F4AF9
:1036EC006B615F4B22A83A612B612496039502977C
:1036FC0001900CA8030034A80200FFA89DA9009417
:10370C00D430FFF759FB30A8FDF7D8FA2AA8FDF7FB
:10371C00D5FA24A8FDF7D2FA1EA8FDF7CFFA0CA80B
:10372C00FDF7CCFA16A8FDF7C9FA34A8FDF7BAFFD5
:10373C00BCA934A8FFF71FFB4A4B0CA90F934A4BAB
:10374C0008A80C960E93FEF701FB05231693474B26
:10375C0009211793464B474A1B93474B62601A93B8
:10376C0008231C932293454B454A2393454B1E96A5
:10377C002793454B6261269388E0C046B400002035
:10378C005C08002010E000E01F1C0000BC030020BF
:10379C0075400008E7020008AD400008FD02000873
:1037AC00E5400008130300081D4100082903000828
:1037BC003D4000083F030008510A0008550300086B
:1037CC0064560008610A00086B030008186A0008B8
:1037DC00710A0008810300081F6A0008970300089B
:1037EC0099030008296A0008830A0008A30300084B
:1037FC00366A0008A70C0008B9030008950A0008EF
:10380C00C3030008416A0008A90C0008D90300088A
:10381C00646A0008AD0C0008ED030008516A00084A
:10382C00AB0C0008E30300088C560008A50A00083E
:10383C00F7030008746A0008AF0C0008916A0008CE
:10384C000D040008866A0008C90A0008B50A0008B9
:10385C0017040008A06A0008DD0A00082D040008FF
:10386C0043040008F10A000859040008AF6A000874
:10387C00050B0008B56A00086F040008BE6A000852
:10388C00190B00082D0B00089B0400080C2328932F
:10389C00FD4BFE4A7B60FE4B2A967B61FD4B226101
:1038AC00189624963B612E91FB4BB1206B60FB4B21
:1038BC0030966B61FA4BFB4A2B61CB239B00F25089
:1038CC009DA90433F150C00004AB34A9C018FFF714
:1038DC0052FAB92004ABC00008A9C018FEF736FA9A
:1038EC00BB2004ABC00016A9C018FFF75DFABE20C0
:1038FC0004ABC0002100C018FFF756FAC12004AB7E
:10390C00C00022A9C018FFF74FFAC42004ABC000B6
:10391C003900C018FFF748FAC72004ABC0002900D3
:10392C00C018FFF741FAFF2300229B00F25004332A
:10393C00F25030A8FDF7C2F92AA8FDF7BFF924A868
:10394C00FDF7BCF91EA8FDF7B9F918A8FDF7B6F9F3
:10395C0008A8FDF7B3F90CA8FDF7B0F934A8FDF7EA
:10396C00A1FEBCA934A8FFF706FACF4B16A91993F0
:10397C00CE4B0CA816961893FEF7E8F90C230422EC
:10398C00CB201C93CA4BCB496360CB4B1E96636117
:10399C00CA4B27912361CA49CA4B26917B606B6045
:1039AC00C9492393C94B28922E9279616B61C849FE
:1039BC00C84B39612B6134A922AB0094C00004AC14
:1039CC000019229201930A000CAB9DA90395029752
:1039DC00FFF7F2F930A8FDF771F92AA8FDF76EF997
:1039EC0024A8FDF76BF91EA8FDF768F90CA8FDF7E4
:1039FC0065F916A8FDF762F934A8FDF753FEBCA9CA
:103A0C0034A8FFF7B8F9B44B2E96EB60B34B2900F2
:103A1C003800AB60FEF79AF9B14922A8FDF7E3F93B
:103A2C00E420229BAF4A0693239B99AC0593AE4BA3
:103A3C009DA9E2500433E150C00004AB34A9C01876
:103A4C00E66FFFF798F9EC2004ABC0003900C01802
:103A5C00FEF77CF9EE2304AA0699DB009B1819608B
:103A6C00A24B05999B181960330008331A00A04B20
:103A7C000121E250B2680433E25064229D4B3800BD
:103A8C00E1500433E250FDF719F92800FDF716F95F
:103A9C0034A8FDF707FEBCAB190034A8FFF76BF98F
:103AAC00954B2E94EB60954B29003800AB60FEF7DC
:103ABC004DF9934922A8FDF796F9229B914A06935A
:103ACC00239B9DA80593904BE66FE2500433E05086
:103ADC00F22034AB1900C00004ABC018FFF74BF94F
:103AEC00FA2004ABC0003900C018FEF72FF9FC23F4
:103AFC0004AA0698DB009B181860844B05989B1849
:103B0C001860834B321DE250327901210433E254A8
:103B1C00FF22804B3800E1547F4B804EE254FDF77E
:103B2C00CDF82800FDF7CAF834A8FDF7BBFDE36F0C
:103B3C0034A89B785B09A355BCAB1900FFF71BF9A4
:103B4C00774B2E94EB60774B29003800AB60FEF777
:103B5C00FDF8754922A8FDF746F9229B734A059397
:103B6C00239B9DA80693B423DB00E250704BE050DE
:103B7C0034AB7048190004ABC018FFF7FCF86E4862
:103B8C0004AB3900C018FEF7E1F86C4B04AA059899
:103B9C009B181860852306981B019B181860FE2043
:103BAC00C023C0008018DB00E050A25D644B3800DD
:103BBC00E2540022634B6C36E254634B0732E254FE
:103BCC00FDF77CF82800FDF779F834A8FDF76AFDBD
:103BDC00E36F34A89B78DB07DB0FA355BCAB190054
:103BEC00FFF7C9F8594B2E94EB60594B290038005C
:103BFC00AB60FEF7ABF8574922A8FDF7F4F8229B0F
:103C0C00554A0593239B9DA80693544BE2500433CD
:103C1C00E05034AB5248190004ABC018FFF7ABF8B6
:103C2C00504804AB3900C018FEF790F84E4B04AA6C
:103C3C0005989B1818604D4B06989B1818604C48BB
:103C4C004C4B8018A25DE0500433E2540022022059
:103C5C00494B4A4EE2544A4BE0543800FDF72EF8DB
:103C6C002800FDF72BF834AB1800FDF71BFDE36FB4
:103C7C009B789B07DB0FA355BCAB190034AB18002A
:103C8C00FFF779F87EE0C046C76A00088504000893
:103C9C00410B0008B1040008D46A0008550B000859
:103CAC00C7040008A0560008690B0008DD040008D2
:103CBC00DE6A0008B10C00087D0B0008F304000854
:103CCC0009050008EB6A0008950C0008A50C000813
:103CDC00130500081D050008910B000827050008B6
:103CEC00F06A0008B4560008C40400007407000011
:103CFC00240500002C050000A30B00083D0500085E
:103D0C00FB6A0008C856000834050000E4070000F0
:103D1C0094050000990500009A0500009C05000020
:103D2C00B50B000853050008086B0008DC560008AA
:103D3C00A4050000FC0700003C0800004C08000033
:103D4C00040600000506000006060000DD0B000856
:103D5C0069050008196B0008F05600080C060000F5
:103D6C0068080000A8080000B8080000BC080000A3
:103D7C005C0800006C060000710600007406000070
:103D8C00720600007E4B2E94EB607E4B29003800AF
:103D9C00AB60FDF7DBFF22AB7B491800FDF723F886
:103DAC00229B7A4A0593239B9DA80693CF23DB0085
:103DBC00E250774B04AAE05034AB1900754B9B18BA
:103DCC001800FEF7D8FF744B04AA9B183900180092
:103DDC00FDF7BCFF714B04AA05989B181860704B3B
:103DEC0006989B181860DB236E4A04A95218DB0056
:103DFC00E250A25D6C4B0220E25400226B4BE25469
:103E0C006B4BE0543800FCF759FF2800FCF756FFC9
:103E1C0034AB1800FDF746FC1822E36F9B78134077
:103E2C005A1E9341DC220133D200A350BCAB1900C3
:103E3C0034AB1800FEF79FFF5E4B2E94EB605E4B8D
:103E4C0029003800AB60FDF781FF22AB5B491800FD
:103E5C00FCF7C9FF229B5A4A05935A4B9DA9E25085
:103E6C000433E15034AB1900942304AA1B019B18B2
:103E7C001800239EFEF77FFF982304AA1B019B18B2
:103E8C0039001800FDF762FF992304AA05991B015C
:103E9C009B181960012102204B4B9B181E604B4E46
:103EAC004B4BB618E650494E04AAB6183668043384
:103EBC00E650484BE1500433E0503800FCF7FEFE6E
:103ECC002800FCF7FBFE34A8FDF7ECFBBCA934A8DA
:103EDC00FEF751FF404B2E94EB60404B290038000D
:103EEC00AB60FDF733FF3E4922A8FCF77CFF9B201B
:103EFC00229B3C4A0593239B9DA906933A4B0001B8
:103F0C00E2500433E15004AB34A9C018E66FFEF75D
:103F1C0032FF9F2004AB00013900C018FDF716FFDB
:103F2C00A02304AA05991B019B1819602F4B069915
:103F3C009B181960330010331A002D4B3800E250D7
:103F4C0032690433E25000222A4BE25004331B3214
:103F5C00E250FCF7B3FE2800FCF7B0FE34A8FDF7E6
:103F6C00A1FB2000FCF7FEFEBA9803681B6898477B
:103F7C0030BFFDE7C368204A1340FFF715F8C04671
:103F8C00050C00087F0500082F6B0008045700087B
:103F9C007C060000D408000014090000240900006D
:103FAC0028090000C8080000DC060000DD0600003F
:103FBC00DE060000310C0008950500083B6B00087C
:103FCC0018570008E40600009409000034090000AA
:103FDC00440700004C0700005F0C0008AB0500080C
:103FEC004F6B00082C57000854070000040A00000F
:103FFC00B4070000BC070000FFFBFFFF73B56B4666
:10400C0004001A0060CC60C20A0030CA30C005CB74
:10401C0005C173BD70B505000C00FFF7EFFFAB6871
:10402C00A268AA60A360E268EB68EA60E36070BD16
:10403C0030B50023040089B0080069460293FFF7ED
:10404C00E9FF236869469C6F04A823689D68FDF707
:10405C007DFE04A92000A84704A8FCF72FFE6846A3
:10406C00FCF72CFE09B030BD30B50023040089B03C
:10407C00080069460293FFF7CDFF236869461C6F61
:10408C0004A823689D68FDF761FE04A92000A847D9
:10409C0004A8FCF713FE6846FCF710FE09B030BD0F
:1040AC0030B50023040089B0080069460293FFF77D
:1040BC00B1FF236869465C6F04A823689D68FDF70F
:1040CC0045FE04A92000A84704A8FCF7F7FD6846A4
:1040DC00FCF7F4FD09B030BD30B50023040089B005
:1040EC00080069460293FFF795FF236869469C6FA9
:1040FC0004A823689D68FDF729FE04A92000A847A1
:10410C0004A8FCF7DBFD6846FCF7D8FD09B030BD10
:10411C0030B50023040089B0080069460293FFF70C
:10412C0079FF236869469C6F04A82368DD68FDF756
:10413C000DFE04A92000A84704A8FCF7BFFD6846A3
:10414C00FCF7BCFD09B030BD1FB504006846FDF797
:10415C00FDFD21006846FFF75DFF6846FCF7AEFDEC
:10416C00200004B010BD10B54430FFF7EDFF10BDBA
:10417C0010B53430FFF7E8FF10BD10B52430FFF751
:10418C00E3FF10BD10B51430FFF7DEFF10BD10B506
:10419C004430FFF7D9FF10BD10B53430FFF7D4FF12
:1041AC0010BD10B52430FFF7CFFF10BD10B5143083
:1041BC00FFF7CAFF10BD10B54430FFF7C5FF10BDA7
:1041CC0010B53430FFF7C0FF10BD10B52430FFF729
:1041DC00BBFF10BD10B51430FFF7B6FF10BD8368E0
:1041EC0010B5002B01D0FDF7C1FD10BD1FB5002887
:1041FC0008D06846FDF7AAFD6846FFF7F0FF684651
:10420C00FCF75CFD05B000BD002370B583608B68C6
:10421C0004000D00002B05D002229847EB68E360E8
:10422C00AB68A360200070BD1FB504006846FFF7A3
:10423C00EBFF21006846FFF7E1FE029BA268A3603A
:10424C00039B0292E2686846E3600392FCF736FD3A
:10425C00200004B010BD10B55430FFF7E5FF10BDC1
:10426C0010B55430FFF7E0FF10BD10B55430FFF718
:10427C00DBFF10BDF7B50300060018240200D43391
:10428C00D0361B68316858325B1A5C43141927000E
:10429C0060370500B74200D9370000226B681A60FE
:1042AC006868A74207D021686268FDF718FAFCF726
:1042BC008BFD1834F4E700681421FBF757FF142426
:1042CC00070044436868032F09D82022631C03604D
:1042DC0003195A72FCF778FD01371434F2E71423F2
:1042EC003268132153430360FCF78AFD040005492F
:1042FC006846FCF778FD0099019A2000FDF7EFF96C
:10430C00F7BDC046D8690008F7B50200D43213686F
:10431C000400002B0AD00600013BD0361360326833
:10432C00012A04DC002B02D0FFF7A4FFF7BD1425F3
:10433C006A43606813210260FCF762FD07000E49B6
:10434C006846FCF750FD019A00993800FDF7C7F953
:10435C0033686068013B5D43336013210560FCF7F3
:10436C004FFD040005496846FCF73DFD0099019A94
:10437C002000FDF7B4F9D9E79D590008D869000869
:10438C0010B50068FFF7C0FF10BD0000F7B50200C4
:10439C00D43213680400042B2CD006000133D03621
:1043AC0013603268012A01DD042B24D114256A43E1
:1043BC00606813210260FCF723FD07000F49684673
:1043CC00FCF711FD019A00993800FDF788F9336864
:1043DC00606801335D43336013210560FCF710FD09
:1043EC00040007496846FCF7FEFC0099019A20007E
:1043FC00FDF775F9F7BDFFF73DFFFBE79D59000889
:10440C00D869000810B50068FFF7C0FF10BD0000A8
:10441C001FB504001B4B694603931B4B00900830DF
:10442C000293FDF712FD6846FCF748FC2000174B81
:10443C0069460393164B183002930094FDF705FD63
:10444C006846FCF73BFC2000124B69460393124B69
:10445C00283002930094FDF7F8FC6846FCF72EFC1C
:10446C0020000E4B694603930D4B38300293009499
:10447C00FDF7EBFC6846FCF721FC2000FFF7FAFE89
:10448C001FBDC0468D430008930800081144000866
:10449C00A9080008EB1D0008BF080008031E00084F
:1044AC00D5080008F7B50300060018240200A43351
:1044BC00A0361B68316858325B1A5C43141927000C
:1044CC0060370500B74200D9370000226B681A60CC
:1044DC006868A74207D021686268FDF700F9FCF70D
:1044EC0073FC1834F4E700681421FBF73FFE142426
:1044FC00070044436868032F09D82022631C03601B
:10450C0003195A72FCF760FC01371434F2E71423D8
:10451C003268132153430360FCF772FC0400054915
:10452C006846FCF760FC0099019A2000FDF7D7F86B
:10453C00F7BDC046D86900081FB504001B4B69467F
:10454C0003931B4B009008300293FDF77EFC6846EA
:10455C00FCF7B4FB2000174B69460393164B18303D
:10456C0002930094FDF771FC6846FCF7A7FB200052
:10457C00124B69460393124B283002930094FDF7BB
:10458C0064FC6846FCF79AFB20000E4B69460393CB
:10459C000D4B383002930094FDF757FC6846FCF73E
:1045AC008DFB2000FFF77EFF1FBDC046891B000856
:1045BC00EB080008F51B0008010900080F1E000895
:1045CC0017090008271E00082D090008F7B503007D
:1045DC00060018240200BC33B8361B683168583208
:1045EC005B1A5C431419270060370500B74200D9E9
:1045FC00370000226B681A606868A74207D02168F0
:10460C006268FDF76CF8FCF7DFFB1834F4E7006820
:10461C001421FBF7ABFD1424070044436868032FF7
:10462C0009D82022631C036003195A72FCF7CCFBD7
:10463C0001371434F2E71423326813215343036017
:10464C00FCF7DEFB040005496846FCF7CCFB00993F
:10465C00019A2000FDF743F8F7BDC046D869000861
:10466C001FB504001B4B694603931B4B009008308D
:10467C000293FDF7EAFB6846FCF720FB2000174B82
:10468C0069460393164B183002930094FDF7DDFB3B
:10469C006846FCF713FB2000124B69460393124B40
:1046AC00283002930094FDF7D0FB6846FCF706FB1C
:1046BC0020000E4B694603930D4B38300293009447
:1046CC00FDF7C3FB6846FCF7F9FA2000FFF77EFF05
:1046DC001FBDC046611C000843090008CD1C000822
:1046EC0059090008331E00086F0900084B1E00080A
:1046FC008509000807B583680191002B01D100F0F2
:10470C00C9FAC36801A9984707BD0000F0B5C36E8C
:10471C0085B00400586EFCF709FC002804D1636EC8
:10472C00002B07D105B0F0BD236F586EFCF7FEFBD4
:10473C000028F4D0E36E586EFCF7F8FB002834D058
:10474C00E36E586EFCF7F2FB002803D0236F586E13
:10475C00FCF7ECFB236F5874E36E5874636E0133F3
:10476C006366092BDED922006832117800294ED1FC
:10477C0001252100157014316846FDF7E7FA6846EB
:10478C00FFF72DFD6846FCF799FA21006846543175
:10479C00FFF73AFD029B002B03D029006846FFF778
:1047AC00A9FF6846FCF78AFABCE7236F586EFCF742
:1047BC00BDFB0028C4D12500210068352E7824319A
:1047CC006846FDF7C3FA300026006946FFF70EFD78
:1047DC006846FCF773FA2F786936002F02D0012750
:1047EC0033785F40210068463431FDF7AFFA6946F3
:1047FC003800FFF7FBFC6846FCF760FA0023E26E1A
:10480C0063662B7033705374226F53748AE70A4AB1
:10481C00934200D886E7230069331A78002A00D027
:10482C0080E7210001321A7044316846FDF78EFA98
:10483C006846FFF7D4FCB4E7E703000008B4024B6A
:10484C009C46043808BC6047194700081FB50C008B
:10485C0001006846FFF7D8FC029B002B03D0210017
:10486C006846FFF747FF6846FCF728FA1FBD0000B3
:10487C00F0B5040085B0406EFCF758FB002802D15F
:10488C00A36E002B32D0606EFCF750FB051E2FD1AF
:10489C002600637C6C360700002B00D13778210092
:1048AC0068462431FDF752FA380027006946FFF7B5
:1048BC009DFC6846FCF702FA637C6D37002B05D132
:1048CC003578002D02D001253B785D4021006846EB
:1048DC003431FDF73BFA69462800FFF787FC684640
:1048EC00FCF7ECF90023A36633703B7005B0F0BD08
:1048FC00A36E0133A366092BF8D922006C32117810
:10490C0000291FD1012521001570667C14316E40E1
:10491C006846FDF71BFA69463000FFF767FC6846EE
:10492C00FCF7CCF92100667C54316846FFF76CFC2F
:10493C00002E03D129006846FFF788FF6846FCF774
:10494C00BDF9D3E70A4A9342D0D922006D321378CD
:10495C00002BCBD1210001331370657C44315D40B9
:10496C006846FDF7F3F969462800FFF73FFCE5E7D9
:10497C00E703000008B4024B9C46043808BC6047AF
:10498C007D480008F0B5040085B0406EFCF7CEFA07
:10499C00002802D1A36E002B32D0606EFCF7C6FA51
:1049AC00051E2FD12600637C6C360700002B00D12E
:1049BC003778210068462431FDF7C8F93800270004
:1049CC006946FFF713FC6846FCF778F9637C6D3792
:1049DC00002B05D13578002D02D001253B785D40A8
:1049EC00210068463431FDF7B1F969462800FFF71C
:1049FC00FDFB6846FCF762F90023A36633703B703D
:104A0C0005B0F0BDA36E0133A366092BF8D92200C3
:104A1C006C32117800291FD1012521001570667C9C
:104A2C0014316E406846FDF791F969463000FFF786
:104A3C00DDFB6846FCF742F92100667C5431684680
:104A4C00FFF7E2FB002E03D129006846FFF7FEFEBC
:104A5C006846FCF733F9D3E70A4A9342D0D92200CF
:104A6C006D321378002BCBD1210001331370657C90
:104A7C0044315D406846FDF769F969462800FFF747
:104A8C00B5FBE5E7E703000008B4024B9C4604388D
:104A9C0008BC6047914900080023012110B53E4A2B
:104AAC00136053609360D360136151613B4A10688B
:104ABC00884310603A485060042093601468204387
:104ACC0010600220146820431060106801431160CC
:104ADC002321344A13601171334A0231136011716E
:104AEC00324A013113601171314A01311360117175
:104AFC00304A1C39136011712F4A01311360117146
:104B0C002E4A0131136011712D4A0131136011715C
:104B1C002C4A0131136011712B4A01311360117150
:104B2C002A4A013113601171294A0B391360117132
:104B3C00284A013113601171274A01311360117138
:104B4C00264A013113601171254A0131136011712C
:104B5C00172224490B600A7123490B600A712349FF
:104B6C000B600A7122490B600A7122490B600A71B1
:104B7C00214911320B600A7120490B600A712049DE
:104B8C000B600A711F490B600A711F490B600A7197
:104B9C001E490B600A7110BD5C08002010E000E09B
:104BAC003F1901003C080020440800204C0800205C
:104BBC0054080020840700208C0700209407002054
:104BCC009C070020A4070020AC070020B40700209D
:104BDC00BC070020C4070020FC07002004080020AC
:104BEC000C080020140800201C08002024080020B9
:104BFC002C08002034080020CC070020D40700200B
:104C0C00DC070020E4070020EC070020F40700205C
:104C1C00002103E00B4B5B58435004310A480B4B0B
:104C2C0042189A42F6D30A4A02E0002342F8043BA7
:104C3C00084B9A42F9D3FCF7FFFB00F039F8FEF76A
:104C4C00E7F87047246D0008000000206400002085
:104C5C0064000020CC080020FEE710B5041E00D133
:104C6C000134200000F048F8002807D100F008F8C3
:104C7C00002801D100F015F88047F2E710BD0000C4
:104C8C00014B18687047C046B808002010B500F0FA
:104C9C0004F810BD10B500F004F810B500F036F8AB
:104CAC0010BD10B5062000F03BF9012000F0B0FC5F
:104CBC0070B500260C4D0D4C641BA410A64209D1F6
:104CCC00002600F0A7FC0A4D0A4C641BA410A64257
:104CDC0005D170BDB300EB5898470136EEE7B30031
:104CEC00EB5898470136F2E7186D0008186D00086C
:104CFC00186D0008206D000810B5034B01001868F2
:104D0C0000F074F810BDC0460000002010B5034B35
:104D1C000100186800F020F810BDC046000000200B
:104D2C0010B5884202D98B18984203D3002307E0B0
:104D3C008B5C8354013AFBD210BDCC5CC454013360
:104D4C009A42FAD1F8E703001218934200D1704747
:104D5C0019700133F9E7000070B50500002910D077
:104D6C000C1F2368002B00DAE418280000F018F957
:104D7C001D4A1368002B05D163601460280000F0F5
:104D8C0010F970BDA34209D9216860188342F3D190
:104D9C0018685B6841182160EEE713005A68002A16
:104DAC0001D0A242F9D919685818A0420BD1206839
:104DBC000918581819608242E0D1106852684118DD
:104DCC0019605A60DAE7A04202D90C232B60D5E7B0
:104DDC0021686018824203D1106852684118216022
:104DEC0062605C60CAE7C046BC080020032370B553
:104DFC00CD1C9D43083506000C2D1ED20C25A94256
:104E0C001DD8300000F0CCF8254A14682100002988
:104E1C0019D1244C2368002B03D1300000F044F846
:104E2C0020602900300000F03FF8431C2BD10C23EC
:104E3C003000336000F0B5F803E0002DDFDA0C230E
:104E4C003360002070BD0B685B1B19D40B2B03D98E
:104E5C000B60CC18256003E04B688C420DD11360BD
:104E6C00300000F09EF8200007220B30231D9043E9
:104E7C00C31AE7D05A42E250E4E763600C00EFE754
:104E8C000C004968C3E70323C41C9C43A042E1D037
:104E9C00211A300000F008F8431CDBD1C7E7C046EC
:104EAC00BC080020C0080020002370B5064C05008B
:104EBC000800236000F09EFB431C03D12368002BE9
:104ECC0000D02B6070BDC046C808002070B504002F
:104EDC000D001F2904D9162303600120404270BD28
:104EEC00436C002B04D08A009B181A68002A08D146
:104EFC00200000F031F82A000100200000F01AF820
:104F0C00EDE70020012AEAD0511C03D11623013011
:104F1C002360E4E7002428001C6090472000DEE7B3
:104F2C0010B5034B01001868FFF7D0FF10BDC04649
:104F3C0000000020002370B5064C0500080011008D
:104F4C00236000F04FFB431C03D12368002B00D0DF
:104F5C002B6070BDC808002010B500F03BFB10BDE5
:104F6C000EB400B50B499CB01DAB02900690079196
:104F7C0004910948094904CB0591006802A90193E1
:104F8C0000F072F80023029A13701CB008BC03B036
:104F9C001847C046FFFFFF7F000000200802FFFFFC
:104FAC0070477047F0B58E6885B007000C0003920F
:104FBC0001939E423CD890238A89DB001A4234D05C
:104FCC000325096923685B1A0293636902985D43A0
:104FDC00EB0F5D19019B6D1001331B18AB4200D90F
:104FEC001D00530532D529003800FFF7FFFE061EC1
:104FFC0009D10C233B6040230120A289404213437A
:10500C00A38105B0F0BD029A216900F0ACFAA38926
:10501C00144A1A4080231343A381029B2661F6187D
:10502C0026606561019EED1AA560019B9E4200D928
:10503C00019E320003992068FFF772FEA3680020DE
:10504C009B1BA36023689E192660DAE72A003800B0
:10505C0000F092FA061EE0D121693800FFF77CFEC1
:10506C00C7E7C0467FFBFFFFF0B5A1B003901D0062
:10507C008B890F0016001B0611D50B69002B0ED166
:10508C004021FFF7B3FE38603861002805D10C23AE
:10509C00039A0138136021B0F0BD40237B610023DB
:1050AC0008AC6361203363761033A3760795350023
:1050BC002B78002B01D0252B46D1AB1B05930CD0A4
:1050CC00320039000398FFF76DFF431C00D1AEE0AE
:1050DC006269059B9446634463612B78002B00D175
:1050EC00A5E0012200235242626004A954325218F6
:1050FC006E1C2360E360A3601370A36531780522F6
:10510C00534800F025FA751C00281FD12268D306DD
:10511C0004D5532304A95B1820211970130704D557
:10512C00532304A95B182B21197033782A2B16D022
:10513C00350000210A20E3682A786E1C303A092ACF
:10514C004ED9002918D010E00135B1E7404B226848
:10515C00C01A01238340134323602E00CEE7079B24
:10516C00191D1B680791002B01DB0B9304E05B42BC
:10517C00E3600223134323602B782E2B0AD16B7828
:10518C002A2B35D1079B02351A1D1B680792002B61
:10519C002BDB09932F4E29780322300000F0D8F92D
:1051AC00002806D04023801B83402268013513431E
:1051BC0023602978062228486E1C217600F0C8F955
:1051CC0000283CD0254B002B25D10722079B073309
:1051DC009343083307936369049A9B18636166E7EA
:1051EC00434301219B183500A6E701235B42D0E71E
:1051FC0000230A201A000135636029786E1C3039AF
:10520C00092903D9002BC5D00992C3E742430123D6
:10521C0052183500F1E707AB00933A00104B210010
:10522C000398AFF300800490049B0133D3D1BB8966
:10523C000D985B0600D42EE7012040422BE707AB0C
:10524C0000933A00064B2100039800F079F8EAE746
:10525C00E36C0008E96C0008ED6C0008000000002D
:10526C00B14F0008F7B5150001938A680B690090DF
:10527C000C00934200DA130022002B6043321278A8
:10528C00002A01D001332B6023689B0602D52B68C2
:10529C0002332B60062723681F4027D0230043339B
:1052AC001B785A1E93412268920630D42200019931
:1052BC0043320098089EB047431C25D00623206833
:1052CC002A68E16803400025042B03D18D1AEB43B7
:1052DC00DB171D40A3682269934201DD9B1AED1870
:1052EC000027BD4220D1002010E00137E3682A6876
:1052FC009B1ABB42D2DD220001231932019900987E
:10530C00089EB047431CF0D101204042FEBD302026
:10531C00E1184331087021005A1C45310978A21854
:10532C00433202331170C1E7220001231A32019972
:10533C000098089EB047431CE6D00137D1E7000027
:10534C00F0B589B004920A0043320593039002929F
:10535C000A7E0C000E9B6E2A00D186E01FD8632AB1
:10536C0033D008D8002A00D18CE0582A4DD0250023
:10537C0042352A7030E0642A01D0692AF7D11968C5
:10538C0025680A1D280629D508681A60002803DA42
:10539C002D23029A404213706B4E0A274FE0732A5A
:1053AC0074D008D86F2A1FD0702AE0D12022096847
:1053BC000A43226003E0752A16D0782AD7D122003E
:1053CC00782145321170614E22E025001A68423571
:1053DC00111D196013682B70012365E008681A60B1
:1053EC006906D3D500B2D1E719682568081D186085
:1053FC0008682E0605D5544E08276F2A1BD00A279D
:10540C0019E06D06F7D580B2F5E745314E4E0A70BE
:10541C0018682268011D00681960150621D5D3078C
:10542C0002D520231A4322601027002803D1202301
:10543C0022689A4322602300002243331A70636867
:10544C00A360002B58DB04222168914321600028C3
:10545C0054D1029D002B5AD02500337842352B7045
:10546C0055E05506DBD580B2D9E71A680D68101DDA
:10547C004969186013682E0601D5196002E06D06A3
:10548C00FBD519800023029D23614FE01A68111D82
:10549C001960156800216268280000F059F800288E
:1054AC0001D0401B6060636823610023029A137073
:1054BC003CE023692A0004990398059DA847431CE6
:1054CC003ED023689B0715D4079BE068984239DAD5
:1054DC00180037E022000123193204990398059E25
:1054EC00B047431C2CD00135E368079A9B1AAB429A
:1054FC00F0DCE9E70025F7E70028ADD0029D390084
:10550C00FAF7BAFE735C013D2B700028F7D1082F17
:10551C0009D12368DB0706D563682269934202DC54
:10552C003023013D2B70029B5B1B2361059B07AA5B
:10553C0000932100049B0398FFF794FE431CB8D101
:10554C000120404209B0F0BDF46C0008056D000864
:10555C00C9B28218904201D10020704703788B4267
:10556C00FBD00130F6E7002310B59A4200D110BDF4
:10557C00CC5CC4540133F8E7F8B507000D001600F5
:10558C00002905D11100FFF731FC04002000F8BD03
:10559C00002A03D1FFF7E0FB3400F7E700F012F824
:1055AC002C00B042F2D231003800FFF71FFC041E71
:1055BC00ECD029003200FFF7D6FF29003800FFF7A6
:1055CC00CBFBE3E70B1F1B68181F002B01DA0B58F2
:1055DC00C018704758220120014B40421A60704796
:1055EC00C808002058220120014B40421A60704725
:1055FC00C8080020044A1368002B00D1034B18186C
:10560C00106018007047C046C4080020D008002065
:10561C00FEE7C046F8B5C046F8BC08BC9E467047CD
:0C562C00F8B5C046F8BC08BC9E467047AC
:1056380000000000010037002800000005000001FC
:10564800000000001400000000000000000000003E
:10565800AB02000800000000000000001D23000845
:1056680005180008691E000800000000000000007E
:105678006D460008DB050008A922000800000000AC
:105688000000000045450008D9050008352200083B
:1056980000000000000000001D440008D7050008B5
:1056A800C12100080000000000000000E12B0008F4
:1056B800D50500084D21000800000000000000008A
:1056C800992A0008D3050008D92000080000000026
:1056D8000000000051290008D105000865200008D5
:1056E800000000000000000009280008CF0500089D
:1056F800F11F00080000000000000000C12600089B
:10570800CD0500087D1F0008000000000000000013
:105718007D250008CB050008091F000800000000CF
:105728000000000039240008C9050008951E00087B
:1057380000000000000000009141000887410008B7
:105748007D41000873410008634200087D48000855
:10575800FCFFFFFF00000000814900080000000076
:1057680000000000B9410008AF410008A541000849
:105778009B4100086D42000891490008FCFFFFFFAB
:1057880000000000954A000800000000000000002A
:10579800E1410008D7410008CD410008C341000895
:1057A8007742000819470008FCFFFFFF00000000CF
:1057B8004948000800000000010000000200000045
:1057C80003000000040000000500000006000000BF
:1057D8000700000008000000090000000A0000009F
:1057E8000B0000000C0000000D0000000E0000007F
:1057F8000F0000001000000011000000120000005F
:105808001300000028000000290000002A00000002
:105818002B0000002C0000002D0000002E000000CE
:105828002F000000300000003100000032000000AE
:10583800330000003400000035000000360000008E
:105848003700000038000000390000003A0000006E
:105858003B000000140000001500000016000000C6
:105868001700000018000000190000001A000000CE
:105878001B0000001C0000001D0000001E000000AE
:105888001F0000002000000021000000220000008E
:10589800230000002400000025000000260000006E
:1058A800270000003C0000003D0000003E00000012
:1058B8003F000000400000004100000042000000DE
:1058C80043000000440000004500000046000000BE
:1058D8004700000048000000490000004A0000009E
:1058E8004B0000004C0000004D0000004E0000007E
:1058F8004F000000AB6B0008B76B0008C46B0008D2
:10590800CD6B0008D66B0008E06B0008EA6B000856
:10591800F46B0008FE6B0008096C0008146C0008A2
:105928001F6C00082A6C0008356C0008406C0008E1
:105938004C6C0008586C0008616C00086B6C00081F
:10594800756C00087F6C0008896C0008946C00086E
:105958009F6C0008AA6C0008B56C0008C06C0008B1
:10596800CB6C0008D76C0008666B0008716B0008E8
:105978007C6B0008816B00088C6B0008926B000838
:10598800986B00089E6B0008A46B0008CDE0E6E069
:10599800F2E8E520202000D1EEF5F0E0ED2E00D36E
:1059A800E4E5F0E6E0EDE8E52000CEF2ECE5EDE038
:1059B80000CBE0ECEF3A00C0E2E0F0E8FF3AEDE8B7
:1059C800EAE0EAE8F50074004300D3C70025640064
:1059D8000000F0000000F0000000F0001000E000FF
:1059E8000000F0002000D0000000F0003000C000EF
:1059F8000000F0004000B0000000F0005000A000DF
:105A08000000F000600090000000F00070008000CE
:105A18000000F000800070000000F00090006000BE
:105A28000000F000A00050000000F000B0004000AE
:105A38000000F000C00030000000F000D00020009E
:105A48000000F000E00010000000F000F00000008E
:105A58001000E0000000F0001000E0001000E0007E
:105A68001000E0002000D0001000E0003000C0006E
:105A78001000E0004000B0001000E0005000A0005E
:105A88001000E000600090001000E000700080004E
:105A98001000E000800070001000E000900060003E
:105AA8001000E000A00050001000E000B00040002E
:105AB8001000E000C00030001000E000D00020001E
:105AC8001000E000E00010001000E000F00000000E
