:020000040800F2
:10000000005000208DB50008D5B50008D5B5000812
:10001000D5B50008D5B50008D5B50008000000002A
:10002000000000000000000000000000D5B500083E
:10003000D5B5000800000000D5B50008B51C0008C3
:100040005B2300085D2300085F230008612300088C
:10005000632300086523000869230008852300083E
:10006000A1230008BD230008D92300085D2500084E
:100070007925000895250008B1250008CD25000840
:10008000E925000805260008F5230008F7230008E5
:10009000F9230008FB230008FD23000801240008C1
:1000A0006D2400086F2400087124000873240008E0
:1000B0007524000877240008792400087B240008B0
:1000C0007D2400087F240008812400088324000880
:1000D0008524000809250008252500084125000879
:1000E00089240008052500080725000800000000F5
:1000F0000000000000000000000000000000000000
:0C01000000000000000000005FF808F1A3
:10010C0010B5064C2378002B07D1054B002B02D0E1
:10011C000448AFF300800123237010BD6800002059
:10012C0000000000F4C00008044B10B5002B03D0F5
:10013C0003490448AFF3008010BDC0460000000026
:10014C006C000020F4C000080023C25C0133002ABC
:10015C00FBD1581E7047000002B471464908490093
:10016C00095C49008E4402BC7047C046002243081B
:10017C008B4274D303098B425FD3030A8B4244D363
:10018C00030B8B4228D3030C8B420DD3FF220902A5
:10019C0012BA030C8B4202D31212090265D0030B64
:1001AC008B4219D300E0090AC30B8B4201D3CB035A
:1001BC00C01A5241830B8B4201D38B03C01A52419C
:1001CC00430B8B4201D34B03C01A5241030B8B429E
:1001DC0001D30B03C01A5241C30A8B4201D3CB0289
:1001EC00C01A5241830A8B4201D38B02C01A52416E
:1001FC00430A8B4201D34B02C01A5241030A8B4271
:10020C0001D30B02C01A5241CDD2C3098B4201D388
:10021C00CB01C01A524183098B4201D38B01C01A06
:10022C00524143098B4201D34B01C01A524103097D
:10023C008B4201D30B01C01A5241C3088B4201D32C
:10024C00CB00C01A524183088B4201D38B00C01AD9
:10025C00524143088B4201D34B00C01A5241411A00
:10026C0000D20146524110467047FFE701B500200D
:10027C0000F0F0F802BDC0460029F7D076E77047D1
:10028C0003460B437FD4002243088B4274D30309EB
:10029C008B425FD3030A8B4244D3030B8B4228D38C
:1002AC00030C8B420DD3FF22090212BA030C8B42B2
:1002BC0002D31212090265D0030B8B4219D300E052
:1002CC00090AC30B8B4201D3CB03C01A5241830BD7
:1002DC008B4201D38B03C01A5241430B8B4201D387
:1002EC004B03C01A5241030B8B4201D30B03C01AB0
:1002FC005241C30A8B4201D3CB02C01A5241830A2A
:10030C008B4201D38B02C01A5241430A8B4201D358
:10031C004B02C01A5241030A8B4201D30B02C01A82
:10032C005241CDD2C3098B4201D3CB01C01A5241E9
:10033C0083098B4201D38B01C01A524143098B4272
:10034C0001D34B01C01A524103098B4201D30B015B
:10035C00C01A5241C3088B4201D3CB00C01A524180
:10036C0083088B4201D38B00C01A524143088B4245
:10037C0001D34B00C01A5241411A00D201465241DE
:10038C00104670475DE0CA0F00D04942031000D3FD
:10039C004042534000229C4603098B422DD3030A52
:1003AC008B4212D3FC22890112BA030A8B420CD362
:1003BC00890192118B4208D3890192118B4204D38B
:1003CC0089013AD0921100E08909C3098B4201D30B
:1003DC00CB01C01A524183098B4201D38B01C01A45
:1003EC00524143098B4201D34B01C01A52410309BC
:1003FC008B4201D30B01C01A5241C3088B4201D36B
:10040C00CB00C01A524183088B4201D38B00C01A17
:10041C005241D9D243088B4201D34B00C01A5241EE
:10042C00411A00D20146634652415B10104601D37B
:10043C004042002B00D54942704763465B1000D305
:10044C00404201B5002000F005F802BD0029F8D0AB
:10045C0016E770477047C0461F22430910401E3AEA
:10046C00824002499B005A507047C04600E100E0B0
:10047C004369013343617047704770477047704759
:10048C00012A03D0022A03D0002070470160FBE749
:10049C000B680360F8E7012A03D0022A03D000207E
:1004AC0070470160FBE70B680360F8E7012A03D093
:1004BC00022A03D0002070470160FBE70B68036041
:1004CC00F8E7012A03D0022A03D00020704701600C
:1004DC00FBE70B680360F8E7012A03D0022A03D07C
:1004EC00002070470160FBE70B680360F8E7012A06
:1004FC0003D0022A03D0002070470160FBE70B6891
:10050C000360F8E7012A03D0022A03D000207047C9
:10051C000160FBE70B680360F8E7012A03D0022AAD
:10052C0003D0002070470160FBE70B680360F8E71D
:10053C00012A03D0022A03D0002070470160FBE798
:10054C000B680360F8E7012A03D0022A03D00020CD
:10055C0070470160FBE70B680360F8E7012A03D0E2
:10056C00022A03D0002070470160FBE70B68036090
:10057C00F8E7012A03D0022A03D00020704701605B
:10058C00FBE70B680360F8E7012A03D0022A03D0CB
:10059C00002070470160FBE70B680360F8E7012A55
:1005AC0003D0022A03D0002070470160FBE70CC97E
:1005BC000CC0F8E7012A03D0022A03D000207047B0
:1005CC000160FBE70CC90CC0F8E7012A03D0022A32
:1005DC0003D0002070470160FBE70B680360F8E76D
:1005EC00012A03D0022A03D0002070470160FBE7E8
:1005FC000B680360F8E7012A03D0022A03D000201D
:10060C0070470160FBE70B680360F8E7012A03D031
:10061C00022A03D0002070470160FBE70B680360DF
:10062C00F8E7012A03D0022A03D0002070470160AA
:10063C00FBE70B680360F8E7012A03D0022A03D01A
:10064C00002070470160FBE70B680360F8E7012AA4
:10065C0003D0022A03D0002070470160FBE70B682F
:10066C000360F8E7012A03D0022A03D00020704768
:10067C000160FBE70B680360F8E7012A03D0022A4C
:10068C0003D0002070470160FBE70B680360F8E7BC
:10069C00012A03D0022A03D0002070470160FBE737
:1006AC000B680360F8E7012A03D0022A03D000206C
:1006BC0070470160FBE70B680360F8E7012A03D081
:1006CC00022A03D0002070470160FBE70B6803602F
:1006DC00F8E7012A03D0022A03D0002070470160FA
:1006EC00FBE70B680360F8E7012A03D0022A03D06A
:1006FC00002070470160FBE70B680360F8E7012AF4
:10070C0003D0022A03D0002070470160FBE70B687E
:10071C000360F8E7012A03D0022A03D000207047B7
:10072C000160FBE70B680360F8E7012A03D0022A9B
:10073C0003D0002070470160FBE70B680360F8E70B
:10074C00012A03D0022A03D0002070470160FBE786
:10075C000B680360F8E77047012A00D101600020A4
:10076C007047012A00D1016000207047012A03D094
:10077C00022A03D0002070470160FBE70B6803607E
:10078C00F8E7012A03D0022A03D000207047016049
:10079C00FBE70B680360F8E7012A03D0022A03D0B9
:1007AC00002070470160FBE70B680360F8E7012A43
:1007BC0003D0022A03D0002070470160FBE70B68CE
:1007CC000360F8E7012A03D0022A03D00020704707
:1007DC000160FBE70B680360F8E7012A03D0022AEB
:1007EC0003D0002070470160FBE70B680360F8E75B
:1007FC00012A03D0022A03D0002070470160FBE7D6
:10080C000B680360F8E7012A03D0022A03D000200A
:10081C0070470160FBE70B680360F8E7012A03D01F
:10082C00022A03D0002070470160FBE70B680360CD
:10083C00F8E7012A03D0022A03D000207047016098
:10084C00FBE70B680360F8E7012A03D0022A03D008
:10085C00002070470160FBE70B680360F8E7012A92
:10086C0003D0022A03D0002070470160FBE70B681D
:10087C000360F8E7012A03D0022A03D00020704756
:10088C000160FBE70B680360F8E7012A03D0022A3A
:10089C0003D0002070470160FBE70B680360F8E7AA
:1008AC00012A03D0022A03D0002070470160FBE725
:1008BC000B680360F8E7012A03D0022A03D000205A
:1008CC0070470160FBE70B680360F8E7012A03D06F
:1008DC00022A03D0002070470160FBE70B6803601D
:1008EC00F8E7012A03D0022A03D0002070470160E8
:1008FC00FBE70B680360F8E7012A03D0022A03D058
:10090C00002070470160FBE70B680360F8E7012AE1
:10091C0003D0022A03D0002070470160FBE70B686C
:10092C000360F8E7012A03D0022A03D000207047A5
:10093C000160FBE70B680360F8E7012A03D0022A89
:10094C0003D0002070470160FBE70B680360F8E7F9
:10095C00012A03D0022A03D0002070470160FBE774
:10096C000B680360F8E7012A03D0022A03D00020A9
:10097C0070470160FBE70B680360F8E7012A03D0BE
:10098C00022A03D0002070470160FBE70B6803606C
:10099C00F8E7012A03D0022A03D000207047016037
:1009AC00FBE70B680360F8E7012A03D0022A03D0A7
:1009BC00002070470160FBE70B680360F8E7012A31
:1009CC0003D0022A03D0002070470160FBE70B68BC
:1009DC000360F8E7012A03D0022A03D000207047F5
:1009EC000160FBE70B680360F8E7012A03D0022AD9
:1009FC0003D0002070470160FBE70B680360F8E749
:100A0C00012A03D0022A03D0002070470160FBE7C3
:100A1C000B680360F8E7012A03D0022A03D00020F8
:100A2C0070470160FBE70B680360F8E7012A03D00D
:100A3C00022A03D0002070470160FBE70B680360BB
:100A4C00F8E7012A03D0022A03D000207047016086
:100A5C00FBE70B680360F8E7012A03D0022A03D0F6
:100A6C00002070470160FBE70B680360F8E7012A80
:100A7C0003D0022A03D0002070470160FBE70B680B
:100A8C000360F8E7012A03D0022A03D00020704744
:100A9C000160FBE70B680360F8E7012A03D0022A28
:100AAC0003D0002070470160FBE70B680360F8E798
:100ABC00012A03D0022A03D0002070470160FBE713
:100ACC000B680360F8E7012A03D0022A03D0002048
:100ADC0070470160FBE70B680360F8E7012A03D05D
:100AEC00022A03D0002070470160FBE70B6803600B
:100AFC00F8E7012A03D0022A03D0002070470160D6
:100B0C00FBE70B680360F8E7012A03D0022A03D045
:100B1C00002070470160FBE70B680360F8E7012ACF
:100B2C0003D0022A03D0002070470160FBE70B685A
:100B3C000360F8E7012A03D0022A03D00020704793
:100B4C000160FBE70B680360F8E7012A03D0022A77
:100B5C0003D0002070470160FBE70B680360F8E7E7
:100B6C00012A03D0022A03D0002070470160FBE762
:100B7C000B680360F8E7012A03D0022A03D0002097
:100B8C0070470160FBE70B680360F8E7012A03D0AC
:100B9C00022A03D0002070470160FBE70B6803605A
:100BAC00F8E7012A03D0022A03D000207047016025
:100BBC00FBE70B680360F8E7012A03D0022A03D095
:100BCC00002070470160FBE70B680360F8E7012A1F
:100BDC0003D0022A03D0002070470160FBE70B68AA
:100BEC000360F8E7012A03D0022A03D000207047E3
:100BFC000160FBE70B680360F8E7012A03D0022AC7
:100C0C0003D0002070470160FBE70B680360F8E736
:100C1C00012A03D0022A03D0002070470160FBE7B1
:100C2C000B680360F8E7012A03D0022A03D00020E6
:100C3C0070470160FBE70B680360F8E7012A03D0FB
:100C4C00022A03D0002070470160FBE70B680360A9
:100C5C00F8E7012A03D0022A03D000207047016074
:100C6C00FBE70B680360F8E7012A03D0022A03D0E4
:100C7C00002070470160FBE70CC90CC0F8E7012AA3
:100C8C0003D0022A03D0002070470160FBE70CC997
:100C9C000CC0F8E7836A013383627047C369013380
:100CAC00C361704770477047704770477047704713
:100CBC007047704770477047704770477047704770
:100CCC00012A03D0022A03D0002070470160FBE701
:100CDC000B680360F8E7012A03D0022A03D0002036
:100CEC0070470160FBE70B680360F8E7012A03D04B
:100CFC00022A03D0002070470160FBE70B680360F9
:100D0C00F8E7012A03D0022A03D0002070470160C3
:100D1C00FBE70B680360F8E7012A03D0022A03D033
:100D2C00002070470160FBE70B680360F8E7012ABD
:100D3C0003D0022A03D0002070470160FBE70B6848
:100D4C000360F8E7012A03D0022A03D00020704781
:100D5C000160FBE70B680360F8E7012A03D0022A65
:100D6C0003D0002070470160FBE70B680360F8E7D5
:100D7C00012A03D0022A03D0002070470160FBE750
:100D8C000B680360F8E7012A03D0022A03D0002085
:100D9C0070470160FBE70B680360F8E7012A03D09A
:100DAC00022A03D0002070470160FBE70B68036048
:100DBC00F8E7012A03D0022A03D000207047016013
:100DCC00FBE70B680360F8E7012A03D0022A03D083
:100DDC00002070470160FBE70B680360F8E7012A0D
:100DEC0003D0022A03D0002070470160FBE70B6898
:100DFC000360F8E7012A03D0022A03D000207047D1
:100E0C000160FBE70B680360F8E7012A03D0022AB4
:100E1C0003D0002070470160FBE70B680360F8E724
:100E2C00012A03D0022A03D0002070470160FBE79F
:100E3C000B680360F8E7012A03D0022A03D00020D4
:100E4C0070470160FBE70B680360F8E7012A03D0E9
:100E5C00022A03D0002070470160FBE70B68036097
:100E6C00F8E7012A03D0022A03D000207047016062
:100E7C00FBE70B680360F8E7012A03D0022A03D0D2
:100E8C00002070470160FBE70B680360F8E7012A5C
:100E9C0003D0022A03D0002070470160FBE70B68E7
:100EAC000360F8E7012A03D0022A03D00020704720
:100EBC000160FBE70B680360F8E7012A03D0022A04
:100ECC0003D0002070470160FBE70B680360F8E774
:100EDC00012A03D0022A03D0002070470160FBE7EF
:100EEC000B680360F8E7012A03D0022A03D0002024
:100EFC0070470160FBE70B680360F8E7012A03D039
:100F0C00022A03D0002070470160FBE70B680360E6
:100F1C00F8E7012A03D0022A03D0002070470160B1
:100F2C00FBE70B680360F8E7012A03D0022A03D021
:100F3C00002070470160FBE70B680360F8E7012AAB
:100F4C0003D0022A03D0002070470160FBE70B6836
:100F5C000360F8E7012A03D0022A03D0002070476F
:100F6C000160FBE70B680360F8E7012A03D0022A53
:100F7C0003D0002070470160FBE70B680360F8E7C3
:100F8C00012A03D0022A03D0002070470160FBE73E
:100F9C000B680360F8E7012A03D0022A03D0002073
:100FAC0070470160FBE70B680360F8E7012A03D088
:100FBC00022A03D0002070470160FBE70B68036036
:100FCC00F8E7012A03D0022A03D000207047016001
:100FDC00FBE70B680360F8E7012A03D0022A03D071
:100FEC00002070470160FBE70B680360F8E7012AFB
:100FFC0003D0022A03D0002070470160FBE70B6886
:10100C000360F8E7012A03D0022A03D000207047BE
:10101C000160FBE70B680360F8E7012A03D0022AA2
:10102C0003D0002070470160FBE70B680360F8E712
:10103C00012A03D0022A03D0002070470160FBE78D
:10104C000B680360F8E7012A03D0022A03D00020C2
:10105C0070470160FBE70B680360F8E7012A03D0D7
:10106C00022A03D0002070470160FBE70B68036085
:10107C00F8E7012A03D0022A03D000207047016050
:10108C00FBE70B680360F8E7012A03D0022A03D0C0
:10109C00002070470160FBE70B680360F8E7012A4A
:1010AC0003D0022A03D0002070470160FBE70B68D5
:1010BC000360F8E7012A03D0022A03D0002070470E
:1010CC000160FBE70B680360F8E7012A03D0022AF2
:1010DC0003D0002070470160FBE70B680360F8E762
:1010EC00012A03D0022A03D0002070470160FBE7DD
:1010FC000B680360F8E7012A03D0022A03D0002012
:10110C0070470160FBE70B680360F8E7012A03D026
:10111C00022A03D0002070470160FBE70B680360D4
:10112C00F8E7012A03D0022A03D00020704701609F
:10113C00FBE70B680360F8E7012A03D0022A03D00F
:10114C00002070470160FBE70B680360F8E7012A99
:10115C0003D0022A03D0002070470160FBE70B6824
:10116C000360F8E7012A03D0022A03D0002070475D
:10117C000160FBE70B680360F8E7012A03D0022A41
:10118C0003D0002070470160FBE70B680360F8E7B1
:10119C00012A03D0022A03D0002070470160FBE72C
:1011AC000B680360F8E7012A03D0022A03D0002061
:1011BC0070470160FBE70B680360F8E7012A03D076
:1011CC00022A03D0002070470160FBE70B68036024
:1011DC00F8E7012A03D0022A03D0002070470160EF
:1011EC00FBE70B680360F8E7012A03D0022A03D05F
:1011FC00002070470160FBE70B680360F8E7012AE9
:10120C0003D0022A03D0002070470160FBE70B6873
:10121C000360F8E7012A03D0022A03D000207047AC
:10122C000160FBE70B680360F8E7012A03D0022A90
:10123C0003D0002070470160FBE70B680360F8E700
:10124C00012A03D0022A03D0002070470160FBE77B
:10125C000B680360F8E7012A03D0022A03D00020B0
:10126C0070470160FBE70B680360F8E7012A03D0C5
:10127C00022A03D0002070470160FBE70B68036073
:10128C00F8E7012A03D0022A03D00020704701603E
:10129C00FBE70B680360F8E7012A03D0022A03D0AE
:1012AC00002070470160FBE70B680360F8E7012A38
:1012BC0003D0022A03D0002070470160FBE70B68C3
:1012CC000360F8E7012A03D0022A03D000207047FC
:1012DC000160FBE70B680360F8E7012A03D0022AE0
:1012EC0003D0002070470160FBE70B680360F8E750
:1012FC00012A03D0022A03D0002070470160FBE7CB
:10130C000B680360F8E7012A03D0022A03D00020FF
:10131C0070470160FBE70B680360F8E7012A03D014
:10132C00022A03D0002070470160FBE70B680360C2
:10133C00F8E7012A03D0022A03D00020704701608D
:10134C00FBE70B680360F8E770B50C00050000685C
:10135C0003689B68984723682C601B68200098479B
:10136C0070BD006810B501003531FF318830FFF7D2
:10137C00EBFF10BD006810B501008830F031FFF7AD
:10138C00E3FF10BDB32310B500689B00C118883073
:10139C00FFF7DAFF10BDF22310B500689B00C118EF
:1013AC008830FFF7D1FF10BDB72310B50068DB0004
:1013BC00C1188830FFF7C8FF10BD000010B50068D9
:1013CC00024BC1188830FFF7BFFF10BDF4130000AB
:1013DC008C2310B500689B00C1188830FFF7B4FF50
:1013EC0010BD006810B501003531FF318830FFF7B2
:1013FC00ABFF10BD70B500680124031DD96F8B23A2
:10140C009B00C25C4B7A1500A34325402B434B72C7
:10141C000100C36F35311A76FF318830FFF794FF26
:10142C0070BD006810B501003531FF318830FFF711
:10143C008BFF10BDE52310B500689B00C1188830E8
:10144C00FFF782FF10BDB32310B500689B00C118D5
:10145C008830FFF779FF10BD006810B501003531F9
:10146C00FF318830FFF770FF10BD922310B5006874
:10147C00DB00C1188830FFF767FF10BD10B503689B
:10148C001A1DD26F917CA422D2009950A32300681C
:10149C00DB00C1188830FFF757FF10BDF22310B5E1
:1014AC0000689B00C1188830FFF74EFF10BDF22377
:1014BC0010B500689B00C1188830FFF745FF10BDC0
:1014CC00006810B501003531FF318830FFF73CFF63
:1014DC0010BDD32310B50068DB00C1188830FFF7AE
:1014EC0033FF10BD10B50068024BC1188830FFF7F0
:1014FC002BFF10BD1C070000F72310B50068DB00A4
:10150C00C1188830FFF720FF10BDBD2310B500684F
:10151C001B01C1188830FFF717FF10BDB72310B59A
:10152C000068DB00C1188830FFF70EFF10BDB72331
:10153C0010B50068DB00C1188830FFF705FF10BD3F
:10154C00B72310B50068DB00C1188830FFF7FCFE2C
:10155C0010BD8B2310B500681B01C1188830FFF734
:10156C00F3FE10BD952310B500681B01C11888301F
:10157C00FFF7EAFE10BD9F2310B500681B01C118D0
:10158C008830FFF7E1FE10BDA92310B500681B01E0
:10159C00C1188830FFF7D8FE10BDB32310B5006812
:1015AC001B01C1188830FFF7CFFE10BDF72310B513
:1015BC000068DB00C1188830FFF7C6FE10BDF723AA
:1015CC0010B50068DB00C1188830FFF7BDFE10BDF8
:1015DC0010B51F240068074BC16FC25C8B78520199
:1015EC00234013438B70F723DB00C1188830FFF7BF
:1015FC00ABFE10BD4C090000F72310B50068DB00F2
:10160C00C1188830FFF7A0FE10BD000010B50068AF
:10161C00084B0124C25CC16F531E9A418B78A343C3
:10162C0013438B70F723DB00C1188830FFF78CFE57
:10163C0010BDC046EC090000F72310B50068DB00B4
:10164C00C1188830FFF780FE10BD0000012210B5D4
:10165C0002240068074BC16FC35C1A408B785200A0
:10166C00A34313438B70F723DB00C1188830FFF7BB
:10167C006BFE10BD8C0A0000F72310B50068DB0070
:10168C00C1188830FFF760FE10BD000010B500686F
:10169C00094B1824C358C16F013B5A1E93418A78D9
:1016AC005B00A243DB0013438B70F723DB00C118F4
:1016BC008830FFF749FE10BD2C0B0000B72310B586
:1016CC000068DB00C1188830FFF73EFE10BD0368D0
:1016DC000A68180010B58830D02A05D1C72212012B
:1016EC009918FFF731FE10BDB722D200F8E7B723E7
:1016FC0010B50068DB00C1188830FFF725FE10BD5F
:10170C0010B50068024BC1188830FFF71DFE10BDE4
:10171C00C80D000010B50068024BC1188830FFF7E7
:10172C0013FE10BD640E0000F02310B500681B0101
:10173C00C1188830FFF708FE10BD000010B5006816
:10174C00024BC1188830FFF7FFFD10BD9C0F000045
:10175C0010B50068024BC1188830FFF7F5FD10BDBD
:10176C003810000010B50068024BC1188830FFF724
:10177C00EBFD10BDD410000000220168044B10B525
:10178C00CA500068034BC1188830FFF7DDFD10BD4F
:10179C006C0C00000C12000010B50068024BC11854
:1017AC008830FFF7D1FD10BDB012000010B50068F5
:1017BC00024BC1188830FFF7C7FD10BD5413000051
:1017CC00C72310B500681B01C1188830FFF7BCFD9A
:1017DC0010BDC72310B500681B01C1188830FFF776
:1017EC00B3FD10BDC72310B500681B01C1188830AC
:1017FC00FFF7AAFD10BD10B504680222231DD86F97
:10180C00E36F1230D91D09F0F4FFC72320001B0130
:10181C00E1188830FFF798FD10BDC72310B500689C
:10182C001B01C1188830FFF78FFD10BD10B504687F
:10183C000222231DD86FE36F1230D91D09F0D9FF96
:10184C00C72320001B01E1188830FFF77DFD10BD78
:10185C00C72310B500681B01C1188830FFF774FD51
:10186C0010BDC72310B500681B01C1188830FFF7E5
:10187C006BFD10BDC72310B500681B01C118883063
:10188C00FFF762FD10BDC72310B500681B01C1181E
:10189C008830FFF759FD10BD10B500680A4BC358CE
:1018AC00002B0AD00023C26F1382C26F5382C26F07
:1018BC009382C26FD38A0133D382C7231B01C11811
:1018CC008830FFF741FD10BD6C0C0000C72310B52C
:1018DC0000681B01C1188830FFF736FD10BD0000F1
:1018EC0010B50068084B0124C258C16F531E9A41B1
:1018FC008B7BA34313438B73C7231B01C118883005
:10190C00FFF722FD10BDC046AC120000C72310B576
:10191C0000681B01C1188830FFF716FD10BD0000D0
:10192C0010B50068084B0224C358C16F5A1E93416E
:10193C005A008B7BA34313438B73C7231B01C11822
:10194C008830FFF701FD10BD50130000006810B582
:10195C0001003531FF318830FFF7F6FC10BD00680F
:10196C0010B503000833DB6F00241A00996B143296
:10197C00343310C20C8002319A42FAD1C26F538AAE
:10198C00013353829223DB00C1188830FFF7DCFC53
:10199C0010BD0000006870B5030000241249083324
:1019AC00DD6F4358013B9A00AA185461AA6B5B0087
:1019BC009C52C26F938A0133938242580B4B013A6B
:1019CC001340A34204DA0221013B49420B43013389
:1019DC00D31AA222D20083509223DB00C118883084
:1019EC00FFF7B2FC70BDC04614050000010000807A
:1019FC000B1A9B10002B14DD0278002A03D04278BE
:101A0C00002A01D1013070478278002A01D10230BE
:101A1C00F9E7C278002A01D10330F4E70430013B26
:101A2C00E8E70B1A022B0CD0032B06D0012B02D1AA
:101A3C000378002BE7D00800E5E70378002BE2D011
:101A4C0001300378002BDED00130F1E70B1A9B102C
:101A5C00002B14DD0278002A03D14278002A01D031
:101A6C00013070478278002A01D00230F9E7C27841
:101A7C00002A01D00330F4E70430013BE8E70B1AED
:101A8C00022B0CD0032B06D0012B02D10378002B98
:101A9C00E7D10800E5E70378002BE2D101300378A9
:101AAC00002BDED10130F1E710B5FEF7D5FC10BDEF
:101ABC000368002B02D1016004E013005A68002A6D
:101ACC00FBD15960704710B50400002C05D0236879
:101ADC0020001B6898476468F7E710BD13B50C002D
:101AEC0000911178019276394B425941CBB22100C9
:101AFC000C240B2900D80C00E418994207D3C91AFE
:101B0C00A14200D92100D3180160436016BD002208
:101B1C000121014809F064FDB3C80008482210B542
:101B2C000300007A5143114A002807D090681860CE
:101B3C00814201D3081A5860002018721C68A14217
:101B4C0008D892680120A41AA14202D801220020D0
:101B5C001A7210BD916801208C42FAD851689268B3
:101B6C008A1A59688A42F1D2F3E7C04610E000E0C5
:101B7C000369F7B5104A01330500934219D10024CB
:101B8C000600C76B046114363B78A34212DD6B6B05
:101B9C0001201B883C21234198433368C018AB6B50
:101BAC0001C60193FEF7E2FA019B6200D0520134A8
:101BBC00EAE70361F7BDC04660EA000003008C331E
:101BCC0010B5040018683221421C1A60FEF754FB51
:101BDC00002904D18834206803685B68984710BDDD
:101BEC0010B50A1A02D0202109F01FFE10BD704753
:101BFC0003691B0603D5024B4360024B43607047DD
:101C0C0023016745AB89EFCD01220369934303613F
:101C1C00022302691343036180239B02C9184023EA
:101C2C0089024161026913430361704710B504686E
:101C3C00002C05D0236820001B689847A468F7E7A0
:101C4C0010BD10B583680400002B02D003220100E4
:101C5C009847200010BD000070B506000500040078
:101C6C00074BC9360833E9350360FF36FF35AE4202
:101C7C0004D0103D2800FFF7E4FFF8E7200070BD0A
:101C8C009CD9000810B504000830FFF7CFFF20697D
:101C9C006169431C2361FEF7EFFA002902D1200091
:101CAC00FFF7C4FF10BD000010B50248FFF7EAFFB4
:101CBC0010BDC046140800204169026900239142FE
:101CCC0001D343610133180070470000037B002BE4
:101CDC000DD00023426803738368002A0ED0002BBA
:101CEC0008D0936083685A60002343608360704718
:101CFC000B60F8E7044993604A60F5E70249002B52
:101D0C00F6D10B604B60EFE714080020002310B5F0
:101D1C004361FFF7DBFF10BD037B002B0CD10133BC
:101D2C000373064B5A684260002A00D090601A6810
:101D3C005860002A00D118607047C0461408002073
:101D4C0070B5F8256D0043590400022B14D0032BF9
:101D5C0024D0012B0FD103000021A8331A7819705D
:101D6C008A4208D01030FFF7B1FF2000B030FFF7E7
:101D7C00D3FF0223635170BD230000214933FF338D
:101D8C001A78B03019708A42F5D0FFF79FFF200007
:101D9C005130FF30FFF7C0FF0323EBE703000021B6
:101DAC00E933FF331A7819708A42E4D05130FF308E
:101DBC00FFF78CFF20001030FFF7AEFF0123D9E7AF
:101DCC0010B5036804005A1CC318026059720068ED
:101DDC005021FEF751FA2000216010BD10B51421DE
:101DEC0004000068FEF748FA002903D120312000D6
:101DFC00FFF7E6FF14212068FEF73EFA002901D018
:101E0C002021F4E7200010BD10B504002368002B3E
:101E1C0004D020212000FFF7D3FFF7E7200010BDEE
:101E2C0070B5040000200D00814202D00800FEF7BE
:101E3C008BF920606560200070BD70B504000D004A
:101E4C0000681421FEF792F9030014205843502126
:101E5C004019FEF711FA2000216070BD70B50568BD
:101E6C002A00DC321368002B1AD02E001424D8362A
:101E7C00013B136033686868634313210360FFF709
:101E8C00DCFF2021FFF79CFF33686868013B5C4353
:101E9C00336013210460FFF7D0FF7E21FFF790FF22
:101EAC0070BD70B505682A00DC321368032B1AD09C
:101EBC002E001424D83601331360336868686343EA
:101ECC0013210360FFF7B9FF2021FFF779FF336877
:101EDC00686801335C43336013210460FFF7ADFF86
:101EEC007E21FFF76DFF70BD70B505682A00C43206
:101EFC001368002B1AD02E001424C036013B13603B
:101F0C0033686868634313210360FFF796FF202151
:101F1C00FFF756FF33686868013B5C43336013215D
:101F2C000460FFF78AFF7E21FFF74AFF70BD70B592
:101F3C0005682A00C4321368022B1AD02E00142410
:101F4C00C036013313603368686863431321036040
:101F5C00FFF773FF2021FFF733FF33686868013305
:101F6C005C43336013210460FFF767FF7E21FFF7AA
:101F7C0027FF70BD012302684068116983400B4341
:101F8C00136170470123426810B510329340016809
:101F9C000C6923430B6110BD036810B504009869EC
:101FAC00FFF7F0FFC8216068FFF7B8FD0028F9D1F2
:101FBC0023689869FFF7DEFFC8216068FFF7AEFD64
:101FCC000028F9D110BD70B504000D000368ED00B8
:101FDC001869FFF7D7FF23686068DA699B6AEB58CA
:101FEC001361FFF7D9FF23686068DA699B6A5D1992
:101FFC006B681361FFF7D0FF6421A068FFF78EFDBB
:10200C000028F9D170BD000070B5437B0400012B92
:10201C0020D0002B02D0022B27D070BD4069FFF7D7
:10202C00B1FF2069FFF7A6FF606B5021431C63636F
:10203C00FEF722F9114B8900256ACB58626AEB5CDA
:10204C00DB00D3181968E2695B681161E362012354
:10205C006373E2E78069FFF78DFFA069FFF792FFDA
:10206C00E369E26A1A610223F2E78069FFF782FFF3
:10207C00A069FFF787FF0023EAE7C04624C40008E5
:10208C0003684268012090409B681840431E9841A9
:10209C00C0B2704770B50024050026006B6B1B782E
:1020AC00A34209DDA300EB181869FFF7E9FFA04074
:1020BC000643B6B20134F1E72B6B1E8070BD10B530
:1020CC000C1E03D0FFF756FF200010BDFFF75AFF80
:1020DC00FAE770B504000D1E00681CD0FFF7D0FFA6
:1020EC00002806D16268A068138A01331382FFF7B7
:1020FC0013FE0123022021692B405A000B788343E5
:10210C0013430B70E0682900FFF7D9FF010020682A
:10211C00FFF7D5FF70BDFFF7B3FF0028E9D0A0682B
:10212C00FFF7D4FDE5E770B50600437A04000C36E2
:10213C00002B05D00023C16143723000FFF7ECFD8A
:10214C003000FFF7B9FD0125002804D03000FFF75F
:10215C00DDFD65720025280070BD0000F0B500277C
:10216C008FB005AD04000C22390009A805976F60EB
:10217C0009F05BFB01236B722B726B46374EEF61E0
:10218C00EE602F62009401950294039304956421F0
:10219C002800FFF7C8FF0028F9D12069FFF7F2FEED
:1021AC006069FFF7EFFEA069FFF7E4FEA26AE3693E
:1021BC00D26968461A61FFF7EFFE05212800FFF788
:1021CC00B2FF0028F9D1A26AE369D26968461A61A4
:1021DC00FFF7E2FE64212800FFF7A0FC0028F9D1EC
:1021EC00A26AE369D26968461A61FFF7D5FE32210B
:1021FC002800FFF793FC0028F9D1A26AE369526921
:10220C0068461A61FFF7C8FE32212800FFF786FCEA
:10221C000028F9D1282102A8FFF7D5FE0C2102A82D
:10222C00FFF7D1FE062102A8FFF7CDFE012102A87F
:10223C00FFF7C9FE802102A8FFF7C5FE0121280087
:10224C00FFF771FF0028F9D101233034237008A85F
:10225C00EE60FFF73BFD0FB0F0BDC04614C10008A7
:10226C0010B504005030FFF7ECFC20004030FFF7B5
:10227C00E8FC20003030FFF7E4FC20002030FFF7B2
:10228C00E0FC20001030FFF7DCFC2000FFF7D9FC4D
:10229C00200010BD10B50400072A19D1204B5B6833
:1022AC009B045B0F1CD0042B1CD0052B1CD0063BB5
:1022BC005A1E93411B4A5B4213401B4A9B18072929
:1022CC001AD80800FDF748FF121A1C1F21242629D2
:1022DC00083A0023012AF2D8114B5B685B05E0E752
:1022EC00124BECE7124BEAE7124BE8E79621890117
:1022FC001800FDF73BFFA060200010BDE121F6E7C0
:10230C009621C901F4E7E121FBE796210902EFE7E9
:10231C00E121FBE796214902EAE7E121FBE7C04610
:10232C0000100240E055BBFF4054890000A24A0453
:10233C000051250280A812010123C9B2890003397A
:10234C008B4000681840431E9841C0B27047FEE7AE
:10235C00FEE7FEE7FEE7FEE7FEE70000044B10B5E4
:10236C001868FFF7B0FB0122024B5A6110BDC04642
:10237C007407002000040140044B10B51868FFF7E7
:10238C00A2FB0222024B5A6110BDC0467C07002002
:10239C0000040140044B10B51868FFF794FB0422AD
:1023AC00024B5A6110BDC046B40700200004014026
:1023BC00044B10B51868FFF786FB0822024B5A61D4
:1023CC0010BDC046BC07002000040140044B10B5F2
:1023DC001868FFF778FB1022024B5A6110BDC046FB
:1023EC00C407002000040140FEE7FEE7FEE7FEE71D
:1023FC00FEE7000010B5144C63699B0603D5134B24
:10240C001868FFF760FB63695B0603D5104B18680F
:10241C00FFF759FB63691B0603D50E4B1868FFF7D2
:10242C0052FB6369DB0503D50B4B1868FFF74BFBBD
:10243C0063699B0503D5094B1868FFF744FBF82328
:10244C009B00636110BDC04600040140CC07002016
:10245C00D4070020DC070020E4070020EC07002054
:10246C00FEE7FEE7FEE7FEE7FEE7FEE7FEE7FEE738
:10247C00FEE7FEE7FEE7FEE7FEE7000010B5174CAF
:10248C0063695B0503D5164B1868FFF71CFB636982
:10249C001B0503D5134B1868FFF715FB6369DB04A9
:1024AC0003D5114B1868FFF70EFB63699B0403D52A
:1024BC000E4B1868FFF707FB63695B0403D50C4BE5
:1024CC001868FFF700FB63691B0403D5094B1868F8
:1024DC00FFF7F9FAFC231B02636110BD00040140F5
:1024EC00840700208C070020940700209C07002004
:1024FC00A4070020AC070020FEE7FEE7044B10B554
:10250C001868FFF7E0FA034B1A685B6810BDC04609
:10251C00FC07002000380140044B10B51868FFF789
:10252C00D2FA034B1A685B6810BDC0460408002041
:10253C0000440040044B10B51868FFF7C4FA034B75
:10254C001A685B6810BDC0460C08002000480040AB
:10255C00044B10B51868FFF7B6FA0122024B5A600B
:10256C0010BDC0463C07002000000240044B10B5D3
:10257C001868FFF7A8FA1022024B5A6010BDC0462B
:10258C004407002000000240044B10B51868FFF708
:10259C009AFA8022024B52005A6010BD4C07002060
:1025AC0000000240044B10B51868FFF78CFA80222B
:1025BC00024B52015A6010BD54070020000002402B
:1025CC00044B10B51868FFF77EFA8022024B5202BA
:1025DC005A6010BD5C07002000000240044B10B58F
:1025EC001868FFF770FA8022024B52035A6010BD34
:1025FC006407002000000240044B10B51868FFF778
:10260C0062FA8022024B52045A6010BD6C07002003
:10261C0000000240436800685B00C018704700006F
:10262C0010221F4B19680A4307211A601A688A4343
:10263C00110002220A431A6080221A4B52021968B6
:10264C000A431A601A689203FCD5F0215A688A432F
:10265C005A605A68144911408022D2000A435A60C9
:10266C005A6812490A405A608022596852020A4339
:10267C005A605A680E491140E02252030A435A60CC
:10268C008022196852040A431A601A689201FCD518
:10269C0003215A688A43110002220A435A60704788
:1026AC000020024000100240FFF8FFFFFFC7FFFFB1
:1026BC00FFFFC3FFF8B50123614A624F12681A424B
:1026CC0060D1614A61481168194204D160491360B4
:1026DC000160092141600423BA69F0211343BB61F5
:1026EC000123BA6905681A43BA616A688A43110002
:1026FC00A0220A436A60574A574915681D4204D103
:10270C00534D13600D600A254D600423BA69534D77
:10271C001343BB610123BA690E681A43BA6172682C
:10272C0015408022D2002A434D4D72602E684D4ACE
:10273C001E4204D1464E2B601660082656600425B6
:10274C000F24BB692B43BB6116687368A3439C467B
:10275C000223644623437360434B0026FC335A61C7
:10276C00424A5E609A61424A9E60DA61414AD86090
:10277C001A62414A19615A620722DD629A62012388
:10278C002F4A13608023384EBA693400DB0113439F
:10279C000822BB61FC34E3698025D96804200A4314
:1027AC00DA600422D9680A43DA605A692A435A610A
:1027BC00402259690A435A61304B1856FFF774F995
:1027CC0001237A692E4913437B611027236A2D4814
:1027DC001A683A431A6062689219DA60E269043244
:1027EC009A601A682A431A601A680A401A601A68B2
:1027FC0002401A600222042019680A431A60224B14
:10280C001856FFF751F9636A1D491A681D48BA43F7
:10281C001A6062689219DA60E26904329A60FF22E7
:10282C005A601A6815431D601A680A401A601A68C3
:10283C0002401A602022196830000A431A60F8BD61
:10284C007C03002000100240C4040020C8040020B7
:10285C0000080140B8040020BC040020FFF0FFFF7A
:10286C00AC040020B00400208003002000000240D3
:10287C00003801404400024058000240FC07002090
:10288C00FFF3FFFFFFFCFFFF54070020F8B5012307
:10289C00704A714F12681A427ED1704A70491068A2
:1028AC00184204D16F48136008600A204860102257
:1028BC000120BB696C4C1343BB61BB690D680343BE
:1028CC00BB616B681C40A0231B0123436B6030254C
:1028DC00664B5C68AC432243654C5A602568654A7C
:1028EC00054204D15F4D206015600B255560102406
:1028FC00B86926002043B8611068BC698446012081
:10290C000443BC6164465C4D646825408024E4014A
:10291C002C4365466C6030255C68AC4334435C608A
:10292C00564C2568054205D1554D564E20602E60FB
:10293C000F266E600420BC69514D20430124B86100
:10294C00286826008446B8692043B86158684E4C04
:10295C0004408020800420435860634680205B68DC
:10296C0080051B011B09034360464360474B002055
:10297C00FC331A61464A58609A61464A9860DA619B
:10298C00454AD9601A62454A5D615A6209229A62C7
:10299C00073ADA622F4B1E6080233C4EFA693400F2
:1029AC00DB0213430822FB61FC34E3698025D96800
:1029BC0004200A43DA600422D9680A43DA605A69AF
:1029CC002A435A61402259690A435A61344B1856BA
:1029DC00FFF76AF801237A69324913437B611027A8
:1029EC00236A31481A683A431A6062689219DA60AD
:1029FC00E26904329A601A682A431A601A680A401B
:102A0C001A601A6802401A600222042019680A43EC
:102A1C001A60264B1856FFF747F8636A21491A6863
:102A2C002148BA431A6062689219DA60E26904328A
:102A3C009A60FF225A601A6815431D601A680A4092
:102A4C001A601A6802401A602022196830000A4382
:102A5C001A60F8BD2802002000100240700300200C
:102A6C007403002000100140FFF0FFFF0000014044
:102A7C006403002068030020FF0FFFFF58030020B1
:102A8C005C03002000080140FFFFFFF82C0200202F
:102A9C0000000240004800401C0002403000024090
:102AAC000C080020FFF3FFFFFFFCFFFF4407002092
:102ABC0070B515000C1A04D001002200280008F093
:102ACC00A1FE281970BD0300F0B5093387B001933E
:102ADC00036816000293029A019B05009A18037A68
:102AEC000C00002B27D013291CD814277F1A7F0821
:102AFC00D7197B18100039000393FFF771F83119BF
:102B0C003A003000FFF7D4FF0299019B1431591899
:102B1C000398FFF765F8286814305021FDF7ACFBDB
:102B2C00296016E0080014384008301801001431F0
:102B3C00FFF7BEFFEFE75021029BC91A331902932E
:102B4C00A1420BD919003000FFF7B2FF2B681C19FA
:102B5C002C60002328002B7207B0F0BD27007118E1
:102B6C003000FFF7A5FF2B68503FFF18E41B361908
:102B7C003000019A5036502F04D93100FFF798FFDE
:102B8C00503FF5E70299FFF793FF2B68F818C4E75D
:102B9C0030B5050089B00A0005A8104908F052FFAD
:102BAC0005A901A8FFF73CF96C68019B9C4207D969
:102BBC00E41A013C04D320212800FFF701F9F8E7BF
:102BCC0005A903A8FFF72CF90399049A2800FFF72D
:102BDC007AFF002328006B6009B030BD70C9000873
:102BEC00F8B53022070006000500436898371A60D4
:102BFC0088366C68B74204D002CE2000FFF7C8FFBD
:102C0C00F7E73C232360386850214430FDF734FB50
:102C1C00200021605E21FFF7D3F8FFF7DFF8F8BD45
:102C2C0070B50568290098310B689B00EB18883348
:102C3C001A6801321A600C680A21A4002C19883415
:102C4C002068FDF703FC28002160FFF7C9FF70BD69
:102C5C00006810B5010098310B689B00C3188833CD
:102C6C001A68013A1A600B689B00C31888331A68FB
:102C7C00002A01DA09221A60FFF7B2FF10BDF7B57E
:102C8C000022436804001A60031DDD6F03272B002C
:102C9C00052608330193E36F60681B78AB4215DDA2
:102CAC00013529004760FFF773FF3A21FFF788F8D9
:102CBC0060686B1E4660A26F5B00995AFFF768FF55
:102CCC002021FFF77DF8019B9D42E4D16068FFF75E
:102CDC009BF8F7BD006810B5021DD36F002B03D015
:102CEC00023BD367FFF7CBFF10BD006810B5021D88
:102CFC00D36FC16F1C00097808348C4203DA02339D
:102D0C00D367FFF7BCFF10BDF7B50025436804007F
:102D1C001D60036B1B789B070FD401234568164974
:102D2C002B726846FFF77CF80099019A2800FFF790
:102D3C00CAFE6068FFF768F8F7BD836A1B88002B32
:102D4C0004D1456801332B720C49EAE72E000427A5
:102D5C00E36A1B78AB42ECDDA36A01221B882B4192
:102D6C00134205D06068A9184760FFF711FF0136C0
:102D7C00142EDED00135EBE782C900088EC900089D
:102D8C001A2337B5040040680360636B1978FFF7AA
:102D9C00FFFEFFF723F8E36B1B78DB071CD53C2306
:102DAC00656847492B606846FFF73AF8019A009925
:102DBC002800FFF788FE022360684360E36A1988E5
:102DCC00FFF7E6FE05003F496846FFF729F8009932
:102DDC00019A2800FFF777FE07216068FFF72DF8AE
:102DEC00A36B05001B7838499B0700D5374968460B
:102DFC00FFF716F80099019A2800FFF764FEE36BC1
:102E0C001B789B0717D5A36B60681B780A219B075F
:102E1C003DD5FFF712F803234360236B1988FFF7A6
:102E2C00B7FE05002A496846FEF7FAFF0099019A99
:102E3C002800FFF748FE10216068FEF7FEFFA36B29
:102E4C0005001B782049DB0700D522496846FEF7B0
:102E5C00E7FF019A00992800FFF735FE30226368DE
:102E6C001A60A36B1B785A06D20F15D1190713D40D
:102E7C00590711D4646818496846FEF7D1FF0099C8
:102E8C00019A2000FFF71FFEFEF7A8FF37BDFEF7E3
:102E9C00D4FF12490500C6E7190702D5646810492A
:102EAC00EAE7002A02D064680E49E5E75A0702D522
:102EBC0064680D49E0E7DB09E8D064680B49DBE79F
:102ECC0078C800087BC8000836DE00081DDC000846
:102EDC007FC8000875C8000881C8000834DE0008E7
:102EEC0085C800088EC8000895C800089DC8000851
:102EFC00F0B500254368061D1D60F36F89B0040012
:102F0C00AB4213D145685C4906A8FEF789FF079AC6
:102F1C0006992800FFF7D7FD03236068012543605D
:102F2C00A36F1978FFF734FEFEF758FFF36F012BF0
:102F3C0013DC6768514906A8FEF772FF079A0699D9
:102F4C003800FFF7C0FD0223606801354360A36FB2
:102F5C005978FFF71DFEFEF741FFF36F022B16DCCD
:102F6C006768474906A8FEF75BFF0699079A380081
:102F7C00FFF7A9FDE36F2B211B78DA0702D49B071F
:102F8C0000D40231FEF71CFFFEF728FF0135F36F6A
:102F9C00032B16DC67683B4906A8FEF741FF069930
:102FAC00079A3800FFF78FFDE36F2B211B78DB07A7
:102FBC0000D40231FEF704FF0135FEF70FFF042D9C
:102FCC0058D0F36F042B16DC67682F4906A8FEF760
:102FDC0027FF0699079A3800FFF775FDE36F2B2141
:102FEC001B789B0700D40231FEF7EAFE0135FEF791
:102FFC00F5FE042D3ED0F36F052B1EDDF36F052B74
:10300C0038DC6468214902A8FEF70AFF039A02998A
:10301C002000FFF758FD04001D4904A8FEF700FF2F
:10302C000499059A06A8FEF759FD0699079A2000FF
:10303C00FFF749FDFEF7D2FE1CE06768154904A8AE
:10304C00FEF7EEFE059A04993800FFF73CFD0700E9
:10305C00114906A8FEF7E4FE0699079A6846FEF7A2
:10306C003DFD0099019A3800FFF72DFDFEF7B6FEE5
:10307C00032DC3D109B0F0BD01C900080EC9000869
:10308C0020C9000831C9000840C9000863C90008FC
:10309C006AC900084CC9000853C90008006810B57B
:1030AC00021DD36F002B01DD013BD367FFF720FF1F
:1030BC0010BD006810B5021DD36F022B01DC01336B
:1030CC00D367FFF715FF10BD002370B583608B68C5
:1030DC0004000D00002B05D002229847EB68E3603A
:1030EC00AB68A360200070BD002370B583608B6853
:1030FC0004000D00002B05D002229847EB68E3601A
:10310C00AB68A360200070BD70B505000C00FFF724
:10311C00DBFF2800210010301031FFF7D5FF28000D
:10312C00210020302031FFF7CFFF28002100303064
:10313C003031FFF7C9FF2800210040304031FFF744
:10314C00D3FF2800210050305031FFF7CDFF28006D
:10315C0070BD002370B583608B6804000D00002BDC
:10316C0005D002229847EB68E360AB68A3602000AF
:10317C0070BD836810B5002B01D108F04FFAC368FD
:10318C00984710BD10B500681830FFF7F2FF10BD5E
:10319C0010B500686830FFF7ECFF10BD10B5006883
:1031AC006830FFF7E6FF10BD10B500686830FFF718
:1031BC00E0FF10BD10B500681830FFF7DAFF10BD46
:1031CC0010B500681830FFF7D4FF10BD006810B5BB
:1031DC0003009C331A68043B1B681A600300883395
:1031EC001B68002B03D08030FFF7C3FF10BD70307D
:1031FC00FAE710B500687030FFF7BBFF10BD006830
:10320C0010B503009C331A68043B1B681A6003005A
:10321C0088331B68002B03D08030FFF7AAFF10BD4A
:10322C007030FAE710B500687030FFF7A2FF10BDE0
:10323C00006810B5030098331A88043B1B681A8089
:10324C0003000833DB6F002B03D07C30FFF791FFBA
:10325C0010BD6C30FAE710B500686C30FFF789FFD1
:10326C0010BD036810B51A00983394321B7812689D
:10327C001370006803000833DB6F002B03D07C3025
:10328C00FFF777FF10BD6C30FAE710B500686C30B3
:10329C00FFF76FFF10BD006818220300FC339B6D15
:1032AC0010B55343C0188030FFF763FF10BD10B545
:1032BC0000686830FFF75DFF10BD036810B51A0099
:1032CC00983394321B78126813700068030008332B
:1032DC00DB6F002B03D07C30FFF74BFF10BD6C3045
:1032EC00FAE710B500686C30FFF743FF10BD0368B8
:1032FC0010B51A00983394321B781268137000685A
:10330C0003000833DB6F002B03D07C30FFF731FF59
:10331C0010BD6C30FAE710B500686C30FFF729FF70
:10332C0010BD036810B51A00983394321B781268DC
:10333C001370006803000833DB6F002B03D07C3064
:10334C00FFF717FF10BD6C30FAE710B500686C3052
:10335C00FFF70FFF10BD036810B51A0098339432B5
:10336C001B7812681370006803000833DB6F002BA6
:10337C0003D07C30FFF7FDFE10BD6C30FAE710B5C2
:10338C0000686C30FFF7F5FE10BD006818220300D2
:10339C00DC331B6810B55343C0188030FFF7E9FECF
:1033AC0010BD10B500686830FFF7E3FE10BD006873
:1033BC0010B503009C331A68043B1B681A600300A9
:1033CC0088331B68002B03D08030FFF7D2FE10BD72
:1033DC007030FAE710B500687030FFF7CAFE10BD08
:1033EC00006818220300C4331B6810B55343C0187F
:1033FC008030FFF7BEFE10BD10B500686830FFF7D7
:10340C00B8FE10BD006810B5030098331A78043B61
:10341C001B681A7003000833DB6F002B03D07C3061
:10342C00FFF7A7FE10BD6C30FAE710B500686C30E2
:10343C00FFF79FFE10BD006818220300F4331B68D1
:10344C0010B55343C0188030FFF793FE10BD10B574
:10345C0000686830FFF78DFE10BD836810B5002B37
:10346C0001D108F0DBF8C368984710BD1FB50023E5
:10347C00694608300293FFF7F0FF6846FEF7E1FB60
:10348C0005B000BD30B50025040085B06946083094
:10349C000295FFF7E2FF6846FEF7D3FB2000694672
:1034AC0018300295FFF7D9FF6846FEF7CAFB2000DB
:1034BC00694638300295FFF7D0FF6846FEF7C1FB2E
:1034CC002000694628300295FFF7C7FF6846FEF7D3
:1034DC00B8FB05B030BD30B50025040085B0694699
:1034EC0008300295FFF7B9FF6846FEF7AAFB2000EB
:1034FC00694618300295FFF7B0FF6846FEF7A1FB4E
:10350C002000694638300295FFF7A7FF6846FEF7A2
:10351C0098FB05B030BD30B50025040085B0694678
:10352C0008300295FFF799FF6846FEF78AFB2000EA
:10353C00694618300295FFF790FF6846FEF781FB4D
:10354C002000694638300295FFF787FF6846FEF782
:10355C0078FB05B030BD1FB50023694608300293D7
:10356C00FFF77BFF6846FEF76CFB05B000BD1FB58F
:10357C000023694608300293FFF76FFF6846FEF799
:10358C0060FB05B000BD30B50025040085B0694670
:10359C0008300295FFF761FF6846FEF752FB2000EA
:1035AC00694618300295FFF758FF6846FEF749FB4D
:1035BC002000694628300295FFF74FFF6846FEF75A
:1035CC0040FB2000694638300295FFF746FF6846FD
:1035DC00FEF737FB05B030BD30B50025040085B0D3
:1035EC00694608300295FFF738FF6846FEF729FB5D
:1035FC002000694618300295FFF72FFF6846FEF74A
:10360C0020FB2000694628300295FFF726FF68460C
:10361C00FEF717FB2000694638300295FFF71DFFB7
:10362C006846FEF70EFB05B030BD30B50025040032
:10363C0085B0694608300295FFF70FFF6846FEF724
:10364C0000FB2000694618300295FFF706FF68461C
:10365C00FEF7F7FA2000694628300295FFF7FDFEC9
:10366C006846FEF7EEFA2000694638300295FFF7FF
:10367C00F4FE6846FEF7E5FA05B030BD30B500251E
:10368C00040085B0694608300295FFF7E6FE6846EF
:10369C00FEF7D7FA2000694618300295FFF7DDFED9
:1036AC006846FEF7CEFA2000694628300295FFF7EF
:1036BC00D4FE6846FEF7C5FA2000694638300295FC
:1036CC00FFF7CBFE6846FEF7BCFA05B030BD000034
:1036DC001FB5074B00900393064B694608300293C5
:1036EC00FFF7BBFE6846FEF7ACFA05B000BDC0465E
:1036FC00C1310008A30400081FB50400144B69462F
:10370C000393144B009008300293FFF7A6FE684613
:10371C00FEF797FA2000104B694603930F4B1830B5
:10372C0002930094FFF799FE6846FEF78AFA200090
:10373C000B4B694603930B4B383002930094FFF705
:10374C008CFE6846FEF77DFA2000FFF798FA1FBD45
:10375C00E12C0008B9040008F72C0008CF0400087D
:10376C00B5310008E50400087FB5294B040003932C
:10377C00284B6946009008300293FFF76EFE6846AE
:10378C00FEF75FFA0022636823491A606568684691
:10379C00FEF746FB28000525019A0099FFF793F9DF
:1037AC0060684560A36A1988FFF7F2F966681B49DF
:1037BC006846FEF735FB019A00993000FFF783F954
:1037CC0060684560A36A5988FFF7E2F96668144996
:1037DC006846FEF725FB019A00993000FFF773F954
:1037EC0060684560A36A9988FFF7D2F966680D494D
:1037FC006846FEF715FB0099019A3000FFF763F954
:10380C0060684560A36AD988FFF7C2F97FBDC046DE
:10381C00913100089505000810C8000820C8000860
:10382C0030C8000840C800087FB50400284B694622
:10383C000393284B009008300293FFF70EFE684666
:10384C00FEF7FFF92000244B69460393234B1830F5
:10385C0002930094FFF701FE6846FEF7F2F9200090
:10386C001F4B694603931F4B383002930094FFF7AC
:10387C00F4FD6846FEF7E5F920001B4B69460393FF
:10388C001A4B283002930094FFF7E7FD6846FEF7C9
:10389C00D8F90025012366681549337235606846EE
:1038AC00FEF7BEFA019A00993000FFF70CF9FEF70B
:1038BC00ABFA2300220088339832934201D020C304
:1038CC00FBE7032220001A60FFF78AF97FBDC04690
:1038DC002D2C00083D0500085D2C00085305000840
:1038EC009D310008690500084F3A00087F05000863
:1038FC0073C900081FB50400144B69460393144B9D
:10390C00009008300293FFF7A8FD6846FEF799F97E
:10391C002000104B694603930F4B18300293009410
:10392C00FFF79BFD6846FEF78CF920000B4B6946B0
:10393C0003930B4B383002930094FFF78EFD6846CF
:10394C00FEF77FF92000FFF7D3FA1FBDA93000085E
:10395C00FB040008BF30000811050008A93100085D
:10396C002705000830B50400234B85B00393234B87
:10397C006946009008300293FFF76FFD6846FEF72A
:10398C0060F965682900280059310930FEF728F9DB
:10399C0000232B6065681A4A2B6001332B72A36AD3
:1039AC0068461B789B009958FEF73AFA019A0099E1
:1039BC002800FFF788F81423656812492B606846C5
:1039CC00FEF72EFA019A00992800FFF77CF8636B3A
:1039DC001978FFF7DDF8282364680B4923606846E3
:1039EC00FEF71EFA0099019A2000FFF76CF8FEF71B
:1039FC00F5F905B030BDC046CD3100088D04000886
:103A0C0074C70008A3C80008AAC80008002370B532
:103A1C0083608B6804000D00002B05D002229847B0
:103A2C00EB68E360AB68A360200070BD07B58368EA
:103A3C000191002B01D107F0F1FDC36801A9984752
:103A4C0007BD006870B5020098321368013B136023
:103A5C00002B0DDA030000210A2588339A4203D08B
:103A6C00694310CB0919F9E77830FFF7DFFF70BD18
:103A7C00FFF7B6F8FBE7000070B50C000978FC30D6
:103A8C00826A4909C069FEF705FC01212278C368E6
:103A9C005208154D0A402B4052021A43C26023783B
:103AAC00C2689B080B4011491B030A401343C360B7
:103ABC0023780269DB060E499B0F1B030A40134354
:103ACC0003612378DB070AD58023C268DB0013432C
:103ADC00C3608023C2689B011343C36070BDC3687D
:103AEC00044A1340F4E7C046FFFDFFFFFFEFFFFF62
:103AFC00FFCFFFFFFFFBFFFF002310B5FC300400DE
:103B0C00436083604069FEF73DFA0123216A0A682D
:103B1C009A430A60626A116899431160FF215160EF
:103B2C00626A11680B4313601368DB07FCD5102322
:103B3C00E269D1680B43D36010BD10B58468A369EA
:103B4C00FC33D96A9869FEF7F7FB002805D0A06909
:103B5C00FFF7D2FF2000FEF7DFF810BD10B5846828
:103B6C002369FC33D96A9869FEF7E6FB002802D07A
:103B7C002069FFF7C1FF10BD10B5040043681A6837
:103B8C000368B0335A6143681A6803685133FF33D2
:103B9C005A610068FEF7C0F820681030FEF7BCF8D8
:103BAC00F823012122685B00D15010BD03684279D3
:103BBC001B889A4201D20122827102799A4201D960
:103BCC00002383718079704710B504000068FFF7FB
:103BDC00EDFF61680B78002803D0202293430B7013
:103BEC0010BD01229806C00F424020205201834391
:103BFC001343F4E710B504000068FFF7D7FF6168C2
:103C0C000B78002803D0102293430B7010BD0122B7
:103C1C00D806C00F42401020120183431343F4E72F
:103C2C000B7810B50400002B0AD00068FFF7BEFF1C
:103C3C00002804D11023626811780B43137010BD57
:103C4C001021426813788B43F8E70B7810B5040009
:103C5C00002B0AD00068FFF7A9FF002804D120230D
:103C6C00626811780B43137010BD202142681378E1
:103C7C008B43F8E7FF23F0B51D00064F064E0C787A
:103C8C0001315C403B5D6B40355D8A42F7D105707C
:103C9C004370F0BD64C5000864C6000810B504008C
:103CAC000CC90CC0FFF755FA200010BD70B504000C
:103CBC001D00164B4160036011000830FFF724FA19
:103CCC00200029006830FFF744FA2000049978306E
:103CDC00FFF7E4FF200005999030FFF7DFFF20008D
:103CEC000699A830FFF7DAFF20000799C030FFF7DC
:103CFC00D5FF20000899D830FFF7D0FF2200002311
:103D0C00F03220001360536070BDC046A4C100089F
:103D1C0082B0F8B5040007930AAB18780BAB20718E
:103D2C0020001B780F4F63712760A1600C301100CD
:103D3C00099EFFF7E9F920000C996C30FFF709FA9E
:103D4C0020000D997C30FFF704FA230007AD8C336B
:103D5C0006CD06C31E60327820001A71F8BC08BC70
:103D6C0002B0184708C200080121644AF0B5136874
:103D7C000B4004D1624D634C6B602C6011600422CB
:103D8C000F25614B9969114399615D490C68216854
:103D9C00A9430A43012122605C4C25680D4204D1E1
:103DAC005B4A584D51601560216004219C69584A4A
:103DBC002143F024996115682968A1430C00402126
:103DCC00214329600125534C534926682E4204D1C6
:103DDC004C4E25600E6002264E6004249D692C43D7
:103DEC009C610E684D4D346825408024E4002C43C2
:103DFC00346001264A4D4B4C2F68374204D1414F59
:103E0C002E6027600327676004269D6935439D61FA
:103E1C002768454E3D682E408025ED0135433D60B9
:103E2C000125AC466246414E414D3768174204D1DC
:103E3C00344F32602F6004276F6004269F693E4325
:103E4C009E612E683B4F35682F408025ED023D4327
:103E5C0001273560384E394D32683A4204D1294A2F
:103E6C0037602A6005226A6004269F693E439E6182
:103E7C002E68334F35682F408025ED033D430127D5
:103E8C003560304E304D32683A4204D11D4A3760AD
:103E9C002A6006226A6004269F693E439E612E6852
:103EAC002A4F35682F408025ED043D4335600126AF
:103EBC00274D2A68324205D1264F124A2E603A60AD
:103ECC0007227A60042580279E69FF0535439D6192
:103EDC00204D2E6833681B011B093B4333601A4B82
:103EEC0005604360154B04618360114B4161C360F5
:103EFC00074B8361024BC361F0BDC0460801002033
:103F0C000C0100200008014000100240FC000020C1
:103F1C0000010020F0000020F4000020FFF0FFFF63
:103F2C00E4000020E8000020FF0FFFFFD800002075
:103F3C00DC000020FFFFF0FFCC000020D0000020B0
:103F4C00FFFF0FFFC0000020C4000020FFFFFFF0A8
:103F5C00B4000020B8000020F0B5012589B007009E
:103F6C0068460E00FFF700FF104C23682B401AD157
:103F7C000F484360836003730E4B07630360079B1A
:103F8C0046630361069B4361059B8361049BC3618C
:103F9C00039B0362029B4362019B8362009BC3628F
:103FAC00FDF7BAFE2560024809B0F0BD740100208F
:103FBC0078010020BCC200080300FC339A68FE2A7A
:103FCC0003D881549A6801329A60704710B5FC305E
:103FDC0004004069FDF7CEFF1021E269D3688B43E2
:103FEC00D3600122616A0B6893430B60216A0B68F2
:103FFC0093430B60A3686068216A1B1A02339BB25F
:10400C004B60236A19680A431A601A68D207FCD5F8
:10401C0010BDF7B5002203690400FC335A609A60A6
:10402C000E00431D871D012921D1D97F0069FFF79F
:10403C00C3FF8023F97F1943FFF7BEFF3100FFF761
:10404C00BBFF216901AD0B00FC339A685B688A18D1
:10405C002800C918FFF70EFE69782069FFF7ACFF3E
:10406C002978FFF7A9FF2069FFF7B0FFF7BD80257E
:10407C000069D97F6D42022E05D1FFF79DFFF97FB4
:10408C002943C9B2D8E7FFF797FFF97F2943C9B293
:10409C00FFF792FF0321D2E7020010B5FC32536800
:1040AC00946800219C4202D9591C5160C15C0800E3
:1040BC0010BD0068030020330278002A03D0427838
:1040CC00002A05D10130181A43425841C0B270473A
:1040DC008278002A01D10230F5E7C278002A01D19A
:1040EC000330F0E704308342E6D1ECE70300010033
:1040FC00F0B5FF2205008FB01833029338318B4294
:10410C0002D01A700133FAE706AC202200212000FD
:10411C0007F08BFB2F0028690594FDF769FD00243F
:10412C004C372B0038004C3301933E68FEF772FA83
:10413C005C4B06AA9C463100864219D033781F2B63
:10414C0007D87178EB18197601213378D1540236DF
:10415C00F1E733886345FAD12E00943631603B6821
:10416C00994207D1AC6301340837092CD9D10DE041
:10417C000100F1E73800FEF74DFA336898425CD045
:10418C00AC6305A8FFF795FF0028ECD0AB6B376844
:10419C00D800019B2C001818FEF73CFA3C348742DF
:1041AC0006D10123AA6BA3540023AB63EB6C3360E1
:1041BC0005A8FFF77EFF2E0003909A36002841D009
:1041CC0020220299686907F014FB00230027337042
:1041DC003B003C33EB1802931B78002B16D1AB6BD6
:1041EC00BB4213D0019BF8001E581818FEF712FAA8
:1041FC002C4A3300864204D00236B11E0988914203
:10420C00F7D0181A431E9841029B18700137092FDA
:10421C00DED12A004532131B9B10002B24DD2178A4
:10422C00002903D16178002911D00134A24225D094
:10423C002B00032299331A7020E0230001223C3317
:10424C00EA5490E70123AA6BA3540433BEE7A17888
:10425C00002901D00234E9E7E178002901D00334C8
:10426C00E4E70434013BD8E7131B022B12D0032BD9
:10427C000CD0012B13D12378002BD7D180232A69A2
:10428C0011690B43136103980FB0F0BD2378002B19
:10429C00CCD101342378002BC8D10134EBE71400C6
:1042AC00C4E7C046FFFF000000680300203302781B
:1042BC00002A03D04278002A05D10130181A434253
:1042CC005841C0B270478278002A01D10230F5E71C
:1042DC00C278002A01D10330F0E704308342E6D1E2
:1042EC00ECE7000003000100F0B5FF2205008FB0E1
:1042FC001833029338318B4202D01A700133FAE72B
:10430C0006AC20220021200007F08FFA2F0028692C
:10431C000594FDF76DFC00244C372B0038004C3312
:10432C0001933E68FEF776F95C4B06AA9C46310079
:10433C00864219D033781F2B07D87178EB18197671
:10434C0001213378D1540236F1E733886345FAD131
:10435C002E00943631603B68994207D1AC6301342E
:10436C000837092CD9D10DE00100F1E73800FEF730
:10437C0051F9336898425CD0AC6305A8FFF794FF01
:10438C000028ECD0AB6B3768D800019B2C001818B8
:10439C00FEF740F93C34874206D10123AA6BA354A3
:1043AC000023AB63EB6C336005A8FFF77DFF2E0099
:1043BC0003909A36002841D020220299686907F0B0
:1043CC0018FA0023002733703B003C33EB180293A0
:1043DC001B78002B16D1AB6BBB4213D0019BF800A2
:1043EC001E581818FEF716F92C4A3300864204D0D2
:1043FC000236B11E09889142F7D0181A431E984113
:10440C00029B18700137092FDED12A004532131B8D
:10441C009B10002B24DD2178002903D16178002921
:10442C0011D00134A24225D02B00032299331A70EB
:10443C0020E0230001223C33EA5490E70123AA6BCD
:10444C00A3540433BEE7A178002901D00234E9E774
:10445C00E178002901D00334E4E70434013BD8E7C8
:10446C00131B022B12D0032B0CD0012B13D123784E
:10447C00002BD7D180232A6911690B431361039850
:10448C000FB0F0BD2378002BCCD101342378002B56
:10449C00C8D10134EBE71400C4E7C046FFFF0000AD
:1044AC000068030020330278002A03D04278002AE7
:1044BC0005D10130181A43425841C0B27047827876
:1044CC00002A01D10230F5E7C278002A01D103306D
:1044DC00F0E704308342E6D1ECE700000300010072
:1044EC00F0B5FF2205008FB01833029338318B42A0
:1044FC0002D01A700133FAE706AC2022002120000A
:10450C0007F093F92F0028690594FDF771FB00243F
:10451C004C372B0038004C3301933E68FEF77AF889
:10452C005C4B06AA9C463100864219D033781F2B6F
:10453C0007D87178EB18197601213378D1540236EB
:10454C00F1E733886345FAD12E00943631603B682D
:10455C00994207D1AC6301340837092CD9D10DE04D
:10456C000100F1E73800FEF755F8336898425CD04B
:10457C00AC6305A8FFF794FF0028ECD0AB6B376851
:10458C00D800019B2C001818FEF744F83C348742E5
:10459C0006D10123AA6BA3540023AB63EB6C3360ED
:1045AC0005A8FFF77DFF2E0003909A36002841D016
:1045BC0020220299686907F01CF900230027337048
:1045CC003B003C33EB1802931B78002B16D1AB6BE2
:1045DC00BB4213D0019BF8001E581818FEF71AF8AE
:1045EC002C4A3300864204D00236B11E098891420F
:1045FC00F7D0181A431E9841029B18700137092FE7
:10460C00DED12A004532131B9B10002B24DD2178B0
:10461C00002903D16178002911D00134A24225D0A0
:10462C002B00032299331A7020E0230001223C3323
:10463C00EA5490E70123AA6BA3540433BEE7A17894
:10464C00002901D00234E9E7E178002901D00334D4
:10465C00E4E70434013BD8E7131B022B12D0032BE5
:10466C000CD0012B13D12378002BD7D180232A69AE
:10467C0011690B43136103980FB0F0BD2378002B25
:10468C00CCD101342378002BC8D10134EBE71400D2
:10469C00C4E7C046FFFF000073B56B4604001A0068
:1046AC0060CC60C20A0030CA30C005CB05C173BDF6
:1046BC0070B505000C00FFF7EFFFAB68A268AA60AD
:1046CC00A360E268EB68EA60E36070BD1FB50400AC
:1046DC006846FEF73EFD21006846FFF7E9FF684695
:1046EC00FDF7AFFA200004B010BD10B54430FFF751
:1046FC00EDFF10BD10B53430FFF7E8FF10BD10B55D
:10470C002430FFF7E3FF10BD10B51430FFF7DEFFC8
:10471C0010BD10B54430FFF7D9FF10BD10B53430C3
:10472C00FFF7D4FF10BD10B52430FFF7CFFF10BD3D
:10473C0010B51430FFF7CAFF10BD10B54430FFF7A9
:10474C00C5FF10BD10B53430FFF7C0FF10BD10B55C
:10475C002430FFF7BBFF10BD10B51430FFF7B6FFC8
:10476C0010BD10B53430FFF7B1FF10BD10B53430AB
:10477C00FFF7ACFF10BD10B54430FFF7A7FF10BD1D
:10478C0010B54430FFF7A2FF10BD10B52430FFF771
:10479C009DFF10BD10B51430FFF798FF10BD10B57C
:1047AC002430FFF793FF10BD10B51430FFF78EFFC8
:1047BC0010BD30B50023040089B00800694602938F
:1047CC00FFF776FF236869469C6F04A823689D68F1
:1047DC00FEF7BFFC04A92000A84704A8FDF731FA96
:1047EC006846FDF72EFA09B030BD30B50023040041
:1047FC0089B0080069460293FFF75AFF236869469F
:10480C001C6F04A823689D68FEF7A3FC04A9200074
:10481C00A84704A8FDF715FA6846FDF712FA09B087
:10482C0030BD30B50023040089B0080069460293FE
:10483C00FFF73EFF236869465C6F04A823689D68F8
:10484C00FEF787FC04A92000A84704A8FDF7F9F996
:10485C006846FDF7F6F909B030BD30B50023040009
:10486C0089B0080069460293FFF722FF2368694666
:10487C009C6F04A823689D68FEF76BFC04A92000BC
:10488C00A84704A8FDF7DDF96846FDF7DAF909B089
:10489C0030BD30B50023040089B00800694602938E
:1048AC00FFF706FF236869469C6F04A82368DD6840
:1048BC00FEF74FFC04A92000A84704A8FDF7C1F996
:1048CC006846FDF7BEF909B030BD020010B5FC32E8
:1048DC00536894689C4204D95C1C5460C35C0B7094
:1048EC0010BD0023FBE7020070B5FC3253689268E0
:1048FC00013304000D009A420BD9FFF7CDFB0600E3
:10490C002000FFF7C9FB3602C0B2304328802000DC
:10491C0070BD00230B80FAE78269F0B51100436A81
:10492C00FC3104001D6848682B79165C85B09E42EA
:10493C000DD00922A8692B181A7501300321FBF739
:10494C0085FDA961636C0133636405B0F0BD8B68B0
:10495C001E1A022E38D90027984202D2013B8B60D6
:10496C00D75CA16900200A00FC3201909368506862
:10497C00834203D9013B9360CB5C0193A16903AEE5
:10498C000B00FC339A685B688A183000C918FFF773
:10499C0071F93378BB4217D17378019A934213D1D2
:1049AC00A069FFF779FB02ABDF1C3900A069FFF7A8
:1049BC008CFF3B787F2B0BD93100A069FFF785FF6B
:1049CC00A86932782B18B7E7A86910222B18B3E71F
:1049DC002B7A032BB9D13100A069FFF776FFE96878
:1049EC00A069FFF780FFB0E770B50C000500090A5D
:1049FC00FFF7E2FAE1B2FFF7DFFA280070BD10B55D
:104A0C00202206F0E7FE43425841C0B210BD000020
:104A1C00F0B5040000258026AF4B27000360AF4B98
:104A2C0097B00361AE4B4560856005734561856148
:104A3C0005770362856402910391092229004C30A9
:104A4C0006F0F3FE2000A74AA74B6266A74AB60001
:104A5C00E266A74AA7496267A74AA565E267221DD5
:104A6C00E3652666A6662667A667D6678032116060
:104A7C00A24956609160A24913621161A149D660A6
:104A8C0091615661D6612432157001321570013274
:104A9C0015709D4B02321570B03708321560556099
:104AAC003B608F4B29003D733B617D61BD630922E7
:104ABC00EC3006F0BAFE22008221FC32130093483F
:104ACC00934A4900BD641A605E60605061184E6084
:104ADC00862190484900605021000D31FF314E6015
:104AEC008A218D484900605021001531FF314E60FC
:104AFC008E218A484900605021001D31FF314E60E3
:104B0C00922187484900605021002531FF314E60C9
:104B1C00962184484900605021002D31FF314E60B0
:104B2C009A2181484900605021003531FF314E6097
:104B3C009E217E484900605021003D31FF314E607E
:104B4C009A642200AA234932FF3215700132157083
:104B5C0001321570023215705B000432E55001927F
:104B6C00E218A82320005560019A5B001573704A67
:104B7C008D30E250019A5A4B29001361FF30556178
:104B8C009563092206F051FECE22019B52009D64D2
:104B9C00684B6949A35022009D32FF325660D222E5
:104BAC005200A1502200A532FF325660D622634932
:104BBC005200A1502200AD32FF325660DA22604919
:104BCC005200A1502200B532FF325660DE225D4900
:104BDC005200A1502200BD32FF325660E2225A49E7
:104BEC005200A1502200C532FF325660E6225749CE
:104BFC005200A1502200CD32FF325660EA225449B5
:104C0C005200A1502200D532FF325660EE2251499B
:104C1C005200A1502200DD32FF325660F2225200C7
:104C2C00A35023002000E933FF335D701D709D708D
:104C3C001D71029D10306562FFF758FA011E03D1F9
:104C4C002022280006F0F1FD06AD002120222800CC
:104C5C0006F0EBFD7D613800FFF744FB011E03D12C
:104C6C002022280006F0E1FD0EAE002120223000AB
:104C7C0006F0DBFD019B5E611800FFF72FFC011EA7
:104C8C0003D12022300006F0D0FD039F03AB290096
:104C9C00380004940593FFF7B2FE002805D004A851
:104CAC00FEF76AFF200017B0F0BD31003800FFF7A7
:104CBC00A6FE0028F3D131002800FFF7A0FE202229
:104CCC00011E04D02900380006F093FDE7E73800F8
:104CDC0006F0ABFDE3E7C04628C3000804C3000898
:104CEC00002002400068010800640108006C010803
:104CFC00007001080078010800740108007C0108AC
:104D0C00008001080084010810C30008008C010811
:104D1C00008801080090010800940108009801081F
:104D2C00009C010800A0010800A4010800A80108CB
:104D3C001CC3000800AC010800B0010800B4010855
:104D4C0000B8010800BC010800C0010800C401083B
:104D5C0000C8010800CC01080B1A1B11002B18DD30
:104D6C000268127C002A04D04268127C002A01D10D
:104D7C00043070478268127C002A01D10830F8E7B1
:104D8C00C268127C002A01D10C30F2E71030013BD2
:104D9C00E4E70B1A9B10022B0ED0032B07D0012B30
:104DAC0003D103681B7C002BE3D00800E1E7036808
:104DBC001B7C002BDDD0043003681B7C002BD8D06F
:104DCC000430EEE773B5437B0400012B06D0002BB7
:104DDC0000D17EE0022B00D1A7E073BD05000023BB
:104DEC001835406A1A1C2900FFF7B6FF606285422D
:104DFC0003D1230010336362EFE70026A369056833
:104E0C00FC335E609E602979A069FFF7D5F8297A9A
:104E1C00A069FFF7D1F83100A069FFF7CDF8A979A7
:104E2C00A069FFF7C9F82B7A032B01D0102B30D1D6
:104E3C000021A069FFF7C0F80121A069FFF7BCF8B9
:104E4C002B7A102B07D10021A069FFF7B5F8EB687E
:104E5C001978FFF7B1F8FD222B7AD91E114225D112
:104E6C002B6801AE1B682900300098477178A06947
:104E7C00FFF7A2F83178FFF79FF80025636BE56325
:104E8C00E362A36CA0690133A364FFF79FF8657319
:104E9C00A3E7052BD4D1EB68A06919884B1E994167
:104EAC004942C9B2FFF788F83100C6E7102BE4D1AC
:104EBC00A16901AD0B00FC339A685B688A18280065
:104ECC00C918FEF7D7FE6978A069FFF775F829783D
:104EDC00D1E78369416BFC339A685B68D31AC26B68
:104EEC009A4200D2C162A56AA94210DC1222636AFE
:104EFC0003211E68B06933181A750130FBF7A6FA46
:104F0C00636CB161013363640223A5636373E36A69
:104F1C00ED1A236B9D4200DA5FE72000FFF7FCFCE3
:104F2C00A36AA3630223637357E7836A826B093B0B
:104F3C00934200DC51E700238362FCF7C7FE636AEF
:104F4C00043363620123EEE7F0B5374C1A22A54413
:104F5C0000214BA806F069FC8720802340000AAA98
:104F6C00121812205B001380FF300AAA1218EC3BB7
:104F7C00137001300AAA1218113B137000222B492E
:104F8C002B4B4C910791FF2108337993294B79AC2A
:104F9C002361294BEE3023648D938EAB1A70274B13
:104FAC006064E0640AA81B181A70254B254D1B1869
:104FBC001A708FAB1A704BAB6260A2602273626383
:104FCC002287E263A5646361A318013219761A2A59
:104FDC00FAD1002152A806F028FC2069FCF708FE43
:104FEC00002789AE30003568FDF714FB164B52AA2A
:104FFC009C4685420DD02B78192B07D86978E3187D
:10500C00197601212B78D1540235F2E72B886345B0
:10501C00FAD18D953368AB4218D167630836012FEE
:10502C0027D00127DEE7C04664E5FFFF01372805DE
:10503C00A8D900080020024000FC01081102000061
:10504C001202000000F80108FFFF00003000FDF71D
:10505C00E1FA236D834201D102F080FE9D250AAB5B
:10506C006D00ED186763290052A8FCF7C1FCA8423B
:10507C00D4D1606B256D0830C0002018FDF7CAFA3A
:10508C0085420CD1E94B0AAA9B18626B9B18E84A23
:10509C009B1801221A7000236363899B8D939D26B4
:1050AC000AAB7600F618310052A8FCF7A1FC0700F9
:1050BC00B04201D002F058FE1A227FA9606906F0B6
:1050CC0098FB0023DB490AAA52181370FA220AAB88
:1050DC0052009B181B78002B14D1636B002B11D042
:1050EC0089A8899DFDF796FAD34A2B00854201D0F9
:1050FC0002F046FEFA211B1A581E83410AAA4900E7
:10510C0052181370F6220AABFF329B181B78002B37
:10511C0019D1636B012B16D08BA88B9DFDF77AFAF6
:10512C00C54A2B00854201D102F033FE0235A91E7F
:10513C0009889142F5D0F622C01A431E9841FF32DD
:10514C000AAB9B181870FB250AAB6D00ED182900F3
:10515C0087A8FCF77BFCA84204D0B84B0AAA9B1882
:10516C0003221A708023226911690B431361B74221
:10517C0018D01A2200214BA806F057FB8721079B59
:10518C0049004C930AAA8023521812215B00138009
:10519C00FF310AAA5218EC3B137001310AAA113BD9
:1051AC00521813702000FCF7B7FD8422012752001F
:1051BC000AAB9B181B780AAA07930AAB0733FF3379
:1051CC001B881383FDF776FA9D4E35683D4055D10B
:1051DC009C4B9D4C083323609C4B079AA361631D29
:1051EC00DA7723002C331D70994B206108339948D2
:1051FC00A36399496560A5602573E56324646061C8
:10520C00E5612562E584258565852586FCF750FCDE
:10521C00924B934908336364A069A564E464FCF77A
:10522C0047FC200026222900503006F0FEFA200010
:10523C00822229005200763006F0F7FA20007B30EB
:10524C0026222900FF3006F0F0FA2000A130262299
:10525C002900FF3006F0E9FAE82320005B00E55056
:10526C00E930103313222900E550FF3006F0DDFA47
:10527C007C4A7D492000376006F0A7F90AAB1B7EFB
:10528C001F22190091431B3A002908D0013A20290A
:10529C0005D03C329343403B5A425A4101326A4C4E
:1052AC0010A920692262FEF7E7FB2069FEF724FCB7
:1052BC0003270A261294002459AD60AB3A002E71D4
:1052CC002F72EB602100EC802C745EA806F0ADFA16
:1052DC00664B0AAA59934223FF339B18DE7763ABC4
:1052EC001F7068AB093EEB6265AB3A00EE841C7034
:1052FC00AC61AC83210066A806F097FA5C4B5D4F5D
:10530C002B620AAB0733AC63AC87FF333A681B885C
:10531C00324008931600A2424AD1FDF7B7FA089A18
:10532C000AAB554C9A83554B07902360012363734A
:10533C00534B6660E361534BA6602362230010332A
:10534C00636213062673A061A6625B0F0422002B16
:10535C0009D0013A012B06D0043206331340063A29
:10536C00934200D80132642363632300002621009A
:10537C0040331E70444B4C31E364414826656465F0
:10538C0022636664A663A664FCF792FB21003F4B84
:10539C005831A365206AE6652466FCF789FB61AB8E
:1053AC0011A9079863612561FEF766FB01233B6039
:1053BC000024129F129E69AD354B20222100A2368B
:1053CC006C60AC602C736EA869932C6106F02DFA9E
:1053DC00AE630C260AABFF36FFA8F6188C376EA905
:1053EC0088306F63EE63FFF713FB08228421129B56
:1053FC00490076331A80129B4BAA128878331A8094
:10540C000AAA0732129BFF3212887A331A800AAA30
:10541C00129B5218127812987C331A808830022210
:10542C00310006F0E6F93C2734E0C046701A000063
:10543C0084E7FFFF12020000FFFF000011020000D2
:10544C00D40400209CD900083C05002054070020FF
:10545C00D8D90008FC07002074050020CCD900081E
:10546C008005002000000020651C0008C8C2000850
:10547C00D4C20008D0040020D8040020F8C20008D0
:10548C000C08002044070020E0C20008ECC2000811
:10549C0098C10008129B3900A2330793A300EB18A4
:1054AC005869FAF763FE079B66000134F052092C29
:1054BC00F0D1D0230F21129A5B00D1520122FF2090
:1054CC001299243BCA5212992633C85212991C3B8A
:1054DC00CA5212992633F538C852002390AEF049BF
:1054EC00B360F36033747374F361F362F363F36466
:1054FC00F365EC4B90911868EB497160EB491042E5
:10550C0004D1EB481A600860082048600823E94F72
:10551C000025BA69ADAC13430F22BB610868436820
:10552C0093431A000423134343600120ACAB1D705A
:10553C00E14B0AAA9B18F06691A871661D70B566BE
:10554C00FCF7EAFB0120DD4BDD4AAD931168DD4B26
:10555C00A5606360E56025746574E561E562E563EB
:10556C00E564E5650697D84B014204D1D04910603B
:10557C00196009215960069A0025916908220A438D
:10558C0006998A61F021186842688A43110040220A
:10559C000A43426063660123E366C9AB1D70CB4BC3
:1055AC000AAA9B18AEA8A5661D70FCF7B5FBE6947D
:1055BC00CA24C74ACAABCA92C64A0AA9CB92E4AA61
:1055CC001570C54A1D745218CBA81570CC95CD9585
:1055DC00D195D595D995DD95E195E395E596FCF7B3
:1055EC009BFB129BE400763307930AABE418BB4990
:1055FC00BB4BBC480AAA0833891880186560A560A3
:10560C0025732561656125762360FCF7E9FA012293
:10561C00B54BB6481B68B6498446134276D1B54B98
:10562C0001351868B44A284204D1B4481D60106092
:10563C000C205060069B98691023034306988361E5
:10564C001268AF4B5068184080239B020343012023
:10565C005360AC4AAC4B1568054204D1AB4D10609D
:10566C001D6002255D60069A90692022024306980F
:10567C0082611A68A64B1068184080239B00034374
:10568C0013600122A34B1868104204D10327A248CF
:10569C00874D1A60A0C0069B9F4D9A69082313433F
:1056AC00069A93610122069B28689B691343069A0C
:1056BC00936163464A681A4080239B0413434B60F2
:1056CC000268964B1A4080239B0113430360944855
:1056DC00944B0830186088489D6118618A480AAD5F
:1056EC00586173480022D8617E485A60401918628C
:1056FC008D489A6058628D481A7398621800303041
:10570C005A7302705A63784B01321A600120884A2E
:10571C00884B1568054204D1654D10601D60042549
:10572C005D60069A906908220243069882611868A7
:10573C00069B069D9A6901231A43AA6162464D682D
:10574C001540802292042A434A6001686C4A114039
:10575C00802292020A43784902600868774A18420C
:10576C0004D153480B60106005205060069B99696A
:10577C0008230B4306998B618023106870490268DB
:10578C009B030A401343036001206E4B0E91196872
:10579C006D4A014204D146491860116006215160DE
:1057AC00069B996908230B4306998B61802310682B
:1057BC00664902689B040A40134303600120644B52
:1057CC000F911968634A014204D13949186011607C
:1057DC0007215160069B534D996908230B43069989
:1057EC0028008B6180211268890513681B011B0935
:1057FC000B431360FCF7B2FC2B7B002B24D1013341
:10580C002B73554BDA686A60002A00D095609A6851
:10581C00DD60002A00D19D600221012259614F4BAD
:10582C001868904318604E485860002098601868BB
:10583C008446042062461043012218601868014314
:10584C00196019680A431A60ADAB6367CAABA367EA
:10585C004BABE367DA230AAADB009B18079A0AA969
:10586C001A60404A69AB52181360E823DB22DB0054
:10587C00D20052185B183C4913600AABC9180023BC
:10588C000B603A4B17A91A93394B13A82667E56698
:10589C0017941993FDF718FC364B21A924936BE050
:1058AC0034C30008D401002054C30008D8010020E0
:1058BC00000C0140001002408902000060C3000887
:1058CC00C801002080C30008CC010020FD020000AC
:1058DC008CC30008ACC3000869030000B9060000C3
:1058EC00B4D900086906000014010020FFFFFFF87E
:1058FC0000000140680100206C01002000100140F4
:10590C00FFFFF0FF5C01002060010020001401404B
:10591C00FFF0FFFF5001002054010020FF0FFFFF9C
:10592C00C0D90008180100209CC900089CD10008AF
:10593C00A8000020AC0000209C000020A00000204B
:10594C00FFFF0FFF9000002094000020FFFFFFF0EE
:10595C0084000020880000201408002010E000E0E3
:10596C009F8C0000D4060000DC060000F7470008FE
:10597C00D70500082F480008FD4B1BA82194239342
:10598C00FDF7A2FBFB4B2DA93093FB4B27A82D94C5
:10599C002F93FDF799FBF94B39A93C93F84B33A89E
:1059AC0039943B93FDF790FBF64B45AE4594F36071
:1059BC00F54B31003FA8B360FDF796FBFFAB1433FA
:1059CC001C60FFAAF14B20321360FFA9F04BFFAA19
:1059DC001C321431E7A81360FDF786FBDC200AAB00
:1059EC00C00013A9C018FDF76FFBDE200AABC00086
:1059FC001BA9C018FDF768FBE0200AABC00027A963
:105A0C00C018FDF761FBE2200AABC00033A9C01837
:105A1C00FDF75AFBE4200AABC0003FA9C018FDF704
:105A2C0063FBE6200AABC000E7A9C018FDF75CFBDE
:105A3C00E7A8FCF706F9FFA81430FCF702F93FA819
:105A4C00FCF7FFF83000FCF7FCF833A8FCF7F9F88A
:105A5C0039A8FCF7F6F827A8FCF7F3F82DA8FCF703
:105A6C00F0F81BA8FCF7EDF821A8FCF7EAF813A84E
:105A7C00FCF7E7F817A8FCF7E4F8C64B4594F3607D
:105A8C00C54B31003FA8B360FDF71EFBFFAB1433D1
:105A9C001C60FFAAC14B20321360FFA9C04BFFAAA8
:105AAC001C321431E7A81360FDF753FBE16F0AAB0E
:105ABC000791DA21C900C9180D68E821CC200AAA7F
:105ACC00B84BC90089180B60B749C00089188018F9
