:020000040800F2
:100000000050002049830008918300089183000874
:10001000918300089183000891830008000000008C
:1000200000000000000000000000000091830008B4
:100030009183000800000000918300085D13000810
:10004000BF190008C1190008C3190008C519000824
:10005000C7190008C9190008CD190008E9190008D6
:10006000051A0008211A00083D1A0008C11B0008E3
:10007000DD1B0008F91B0008151C0008311C0008D6
:100080004D1C0008691C0008591A00085B1A00087A
:100090005D1A00085F1A0008611A0008651A000856
:1000A000D11A0008D31A0008D51A0008D71A000878
:1000B000D91A0008DB1A0008DD1A0008DF1A000848
:1000C000E11A0008E31A0008E51A0008E71A000818
:1000D000E91A00086D1B0008891B0008A51B000811
:1000E000ED1A0008691B00086B1B000800000000E7
:1000F0000000000000000000000000000000000000
:0C01000000000000000000005FF808F1A3
:10010C0010B5064C2378002B07D1054B002B02D0E1
:10011C000448AFF300800123237010BD640000205D
:10012C00000000004C8D0008044B10B5002B03D0D0
:10013C0003490448AFF3008010BDC0460000000026
:10014C00680000204C8D00080023C25C0133002A9B
:10015C00FBD1581E7047000002B471464908490093
:10016C00095C49008E4402BC7047C046002243081B
:10017C008B4274D303098B425FD3030A8B4244D363
:10018C00030B8B4228D3030C8B420DD3FF220902A5
:10019C0012BA030C8B4202D31212090265D0030B64
:1001AC008B4219D300E0090AC30B8B4201D3CB035A
:1001BC00C01A5241830B8B4201D38B03C01A52419C
:1001CC00430B8B4201D34B03C01A5241030B8B429E
:1001DC0001D30B03C01A5241C30A8B4201D3CB0289
:1001EC00C01A5241830A8B4201D38B02C01A52416E
:1001FC00430A8B4201D34B02C01A5241030A8B4271
:10020C0001D30B02C01A5241CDD2C3098B4201D388
:10021C00CB01C01A524183098B4201D38B01C01A06
:10022C00524143098B4201D34B01C01A524103097D
:10023C008B4201D30B01C01A5241C3088B4201D32C
:10024C00CB00C01A524183088B4201D38B00C01AD9
:10025C00524143088B4201D34B00C01A5241411A00
:10026C0000D20146524110467047FFE701B500200D
:10027C0000F0F0F802BDC0460029F7D076E77047D1
:10028C0003460B437FD4002243088B4274D30309EB
:10029C008B425FD3030A8B4244D3030B8B4228D38C
:1002AC00030C8B420DD3FF22090212BA030C8B42B2
:1002BC0002D31212090265D0030B8B4219D300E052
:1002CC00090AC30B8B4201D3CB03C01A5241830BD7
:1002DC008B4201D38B03C01A5241430B8B4201D387
:1002EC004B03C01A5241030B8B4201D30B03C01AB0
:1002FC005241C30A8B4201D3CB02C01A5241830A2A
:10030C008B4201D38B02C01A5241430A8B4201D358
:10031C004B02C01A5241030A8B4201D30B02C01A82
:10032C005241CDD2C3098B4201D3CB01C01A5241E9
:10033C0083098B4201D38B01C01A524143098B4272
:10034C0001D34B01C01A524103098B4201D30B015B
:10035C00C01A5241C3088B4201D3CB00C01A524180
:10036C0083088B4201D38B00C01A524143088B4245
:10037C0001D34B00C01A5241411A00D201465241DE
:10038C00104670475DE0CA0F00D04942031000D3FD
:10039C004042534000229C4603098B422DD3030A52
:1003AC008B4212D3FC22890112BA030A8B420CD362
:1003BC00890192118B4208D3890192118B4204D38B
:1003CC0089013AD0921100E08909C3098B4201D30B
:1003DC00CB01C01A524183098B4201D38B01C01A45
:1003EC00524143098B4201D34B01C01A52410309BC
:1003FC008B4201D30B01C01A5241C3088B4201D36B
:10040C00CB00C01A524183088B4201D38B00C01A17
:10041C005241D9D243088B4201D34B00C01A5241EE
:10042C00411A00D20146634652415B10104601D37B
:10043C004042002B00D54942704763465B1000D305
:10044C00404201B5002000F005F802BD0029F8D0AB
:10045C0016E770477047C0461F22430910401E3AEA
:10046C00824002499B005A507047C04600E100E0B0
:10047C00704743690133436170477047012A03D0C9
:10048C00022A03D0002070470160FBE70B68036071
:10049C00F8E710B50368984710BD012A03D0022A6B
:1004AC0003D0002070470160FBE70B680360F8E79E
:1004BC00012A03D0022A03D0002070470160FBE719
:1004CC000B680360F8E7012A03D0022A03D000204E
:1004DC0070470160FBE70B680360F8E7012A03D063
:1004EC00022A03D0002070470160FBE70B68036011
:1004FC00F8E7012A03D0022A03D0002070470160DC
:10050C00FBE70B680360F8E70268406810B5036806
:10051C005C1C9B00D3180460196110BD012A03D028
:10052C00022A03D0002070470160FBE70B680360D0
:10053C00F8E7012A03D0022A03D00020704701609B
:10054C00FBE70B680360F8E7012A03D0022A03D00B
:10055C00002070470160FBE70B680360F8E7012A95
:10056C0003D0022A03D0002070470160FBE70B6820
:10057C000360F8E7012A03D0022A03D00020704759
:10058C000160FBE70B680360F8E7012A03D0022A3D
:10059C0003D0002070470160FBE70B680360F8E7AD
:1005AC00012A03D0022A03D0002070470160FBE728
:1005BC000B680360F8E7012A03D0022A03D000205D
:1005CC0070470160FBE70B680360F8E7012A03D072
:1005DC00022A03D0002070470160FBE70B68036020
:1005EC00F8E7012A03D0022A03D0002070470160EB
:1005FC00FBE70B680360F8E77047012A00D1016044
:10060C0000207047012A03D0022A03D00020704733
:10061C000160FBE70B680360F8E7012A03D0022AAC
:10062C0003D0002070470160FBE70B680360F8E71C
:10063C00012A00D1016000207047012A00D101601D
:10064C0000207047012A03D0022A03D000207047F3
:10065C000160FBE70B680360F8E7012A03D0022A6C
:10066C0003D0002070470160FBE70B680360F8E7DC
:10067C00012A03D0022A03D0002070470160FBE757
:10068C000B680360F8E7012A03D0022A03D000208C
:10069C0070470160FBE70B680360F8E7012A03D0A1
:1006AC00022A03D0002070470160FBE70B6803604F
:1006BC00F8E7012A03D0022A03D00020704701601A
:1006CC00FBE70B680360F8E7012A00D1016000200A
:1006DC007047012A03D0022A03D000207047016022
:1006EC00FBE70B680360F8E7012A03D0022A03D06A
:1006FC00002070470160FBE70B680360F8E7012AF4
:10070C0003D0022A03D0002070470160FBE70B687E
:10071C000360F8E7012A03D0022A03D000207047B7
:10072C000160FBE70B680360F8E7012A03D0022A9B
:10073C0003D0002070470160FBE70B680360F8E70B
:10074C00012A03D0022A03D0002070470160FBE786
:10075C000B680360F8E7012A03D0022A03D00020BB
:10076C0070470160FBE70B680360F8E7012A03D0D0
:10077C00022A03D0002070470160FBE70B6803607E
:10078C00F8E7012A03D0022A03D000207047016049
:10079C00FBE70B680360F8E7012A03D0022A03D0B9
:1007AC00002070470160FBE70B680360F8E7012A43
:1007BC0003D0022A03D0002070470160FBE70B68CE
:1007CC000360F8E7012A00D1016000207047012A7C
:1007DC0000D1016000207047012A00D10160002087
:1007EC007047012A03D0022A03D000207047016011
:1007FC00FBE70B680360F8E7012A03D0022A03D059
:10080C00002070470160FBE70B680360F8E7012AE2
:10081C0003D0022A03D0002070470160FBE70B686D
:10082C000360F8E7012A03D0022A03D000207047A6
:10083C000160FBE70B680360F8E7012A03D0022A8A
:10084C0003D0002070470160FBE70B680360F8E7FA
:10085C00012A03D0022A03D0002070470160FBE775
:10086C000B680360F8E7012A03D0022A03D00020AA
:10087C0070470160FBE70B680360F8E79C30036886
:10088C00013303607047C3690133C361704770471C
:10089C007047704770477047704770477047704794
:1008AC007047012A03D0022A03D000207047016050
:1008BC00FBE70B680360F8E7012A03D0022A03D098
:1008CC00002070470160FBE70B680360F8E7012A22
:1008DC0003D0022A03D0002070470160FBE70B68AD
:1008EC000360F8E7012A03D0022A03D000207047E6
:1008FC000160FBE70B680360F8E7012A03D0022ACA
:10090C0003D0002070470160FBE70B680360F8E739
:10091C00012A03D0022A03D0002070470160FBE7B4
:10092C000B680360F8E7012A03D0022A03D00020E9
:10093C0070470160FBE70B680360F8E7012A03D0FE
:10094C00022A03D0002070470160FBE70B680360AC
:10095C00F8E7012A03D0022A03D000207047016077
:10096C00FBE70B680360F8E7012A03D0022A03D0E7
:10097C00002070470160FBE70B680360F8E7012A71
:10098C0003D0022A03D0002070470160FBE70B68FC
:10099C000360F8E7012A03D0022A03D00020704735
:1009AC000160FBE70B680360F8E7012A03D0022A19
:1009BC0003D0002070470160FBE70B680360F8E789
:1009CC00012A03D0022A03D0002070470160FBE704
:1009DC000B680360F8E7012A03D0022A03D0002039
:1009EC0070470160FBE70B680360F8E7012A03D04E
:1009FC00022A03D0002070470160FBE70B680360FC
:100A0C00F8E7012A03D0022A03D0002070470160C6
:100A1C00FBE70B680360F8E7012A03D0022A03D036
:100A2C00002070470160FBE70B680360F8E7012AC0
:100A3C0003D0022A03D0002070470160FBE70B684B
:100A4C000360F8E7012A03D0022A03D00020704784
:100A5C000160FBE70B680360F8E7012A03D0022A68
:100A6C0003D0002070470160FBE70B680360F8E7D8
:100A7C00012A03D0022A03D0002070470160FBE753
:100A8C000B680360F8E7012A03D0022A03D0002088
:100A9C0070470160FBE70B680360F8E7012A03D09D
:100AAC00022A03D0002070470160FBE70B6803604B
:100ABC00F8E7012A03D0022A03D000207047016016
:100ACC00FBE70B680360F8E7012A03D0022A03D086
:100ADC00002070470160FBE70B680360F8E7012A10
:100AEC0003D0022A03D0002070470160FBE70B689B
:100AFC000360F8E7012A03D0022A03D000207047D4
:100B0C000160FBE70B680360F8E7012A03D0022AB7
:100B1C0003D0002070470160FBE70B680360F8E727
:100B2C00012A03D0022A03D0002070470160FBE7A2
:100B3C000B680360F8E7012A03D0022A03D00020D7
:100B4C0070470160FBE70B680360F8E7012A03D0EC
:100B5C00022A03D0002070470160FBE70B6803609A
:100B6C00F8E7012A03D0022A03D000207047016065
:100B7C00FBE70B680360F8E7012A03D0022A03D0D5
:100B8C00002070470160FBE70B680360F8E7012A5F
:100B9C0003D0022A03D0002070470160FBE70B68EA
:100BAC000360F8E7012A03D0022A03D00020704723
:100BBC000160FBE70B680360F8E7012A03D0022A07
:100BCC0003D0002070470160FBE70B680360F8E777
:100BDC00012A03D0022A03D0002070470160FBE7F2
:100BEC000B680360F8E7012A03D0022A03D0002027
:100BFC0070470160FBE70B680360F8E7012A03D03C
:100C0C00022A03D0002070470160FBE70B680360E9
:100C1C00F8E770B50C000500006803689B689847FE
:100C2C0023682C601B682000984770BD10B50068C5
:100C3C00411DFF318430FFF7ECFF10BD006810B58B
:100C4C0001008430CC31FFF7E4FF10BD006810B513
:100C5C000100C531FF318430FFF7DBFF10BDA72346
:100C6C0010B500689B00C1188430FFF7D2FF10BD8F
:100C7C00E42310B500689B00C1188430FFF7C9FF4E
:100C8C0010BD10B50068411DFF318430FFF7C1FF66
:100C9C0010BD9B2310B500689B00C1188430FFF772
:100CAC00B8FF10BD006810B50100C531FF318430AC
:100CBC00FFF7AFFF10BD10B50068411DFF31843048
:100CCC00FFF7A7FF10BDCB2310B500689B00C11820
:100CDC008430FFF79EFF10BDA72310B500689B0062
:100CEC00C1188430FFF795FF10BD10B50068411D89
:100CFC00FF318430FFF78DFF10BDBD2310B50068A8
:100D0C00DB00C1188430FFF784FF10BD8A2310B5B7
:100D1C000068DB00C1188430FFF77BFF10BDA523F2
:100D2C0010B50068DB00C1188430FFF772FF10BDEE
:100D3C00E42310B500689B00C1188430FFF769FFED
:100D4C0010BDCB2310B50068DB00C1188430FFF751
:100D5C0060FF10BD10B50068024BC1188430FFF75E
:100D6C0058FF10BDC4060000E62310B50068DB0078
:100D7C00C1188430FFF74DFF10BD000010B500689E
:100D8C00024BC1188430FFF744FF10BD9C070000D4
:100D9C0010B50068024BC1188430FFF73AFF10BD44
:100DAC0008080000E42310B500689B00C1188430CB
:100DBC00FFF72FFF10BD000010B50068024BC118E3
:100DCC008430FFF726FF10BD78080000E42310B52F
:100DDC0000689B00C1188430FFF71BFF10BD8A23ED
:100DEC0010B50068DB00C1188430FFF712FF10BD8E
:100DFC00D82210B51F240368D200D96F9A5C8B7C63
:100E0C005201234013438B748A230068DB00C11802
:100E1C008430FFF7FEFE10BD10B50368084A0124AC
:100E2C009A5CD96F531E9A418B7CA34313438B74EA
:100E3C008A230068DB00C1188430FFF7EAFE10BD7E
:100E4C002C070000F32210B50368D200D96F9B5C0D
:100E5C00012202241A408B7C5200A34313438B744F
:100E6C008A230068DB00C1188430FFF7D2FE10BD66
:100E7C0010B502680A4B1824D358013B591E8B41FC
:100E8C00D16F5B008A7CDB00A24313438B748A23F3
:100E9C000068DB00C1188430FFF7BBFE10BDC046F4
:100EAC0004080000A52310B50068DB00C1188430CD
:100EBC00FFF7AFFE10BD10B500680022031DDB6FFD
:100ECC0019007131FF319033994202D01A800233EC
:100EDC00FAE7CB239B00C1188430FFF79AFE10BDB4
:100EEC000B1A9B10002B14DD0278002A03D04278D9
:100EFC00002A01D1013070478278002A01D10230DA
:100F0C00F9E7C278002A01D10330F4E70430013B41
:100F1C00E8E70B1A022B0CD0032B06D0012B02D1C5
:100F2C000378002BE7D00800E5E70378002BE2D02C
:100F3C0001300378002BDED00130F1E70B1A9B1047
:100F4C00002B14DD0278002A03D14278002A01D04C
:100F5C00013070478278002A01D00230F9E7C2785C
:100F6C00002A01D00330F4E70430013BE8E70B1A08
:100F7C00022B0CD0032B06D0012B02D10378002BB3
:100F8C00E7D10800E5E70378002BE2D101300378C4
:100F9C00002BDED10130F1E770B50500022A07D035
:100FAC00032A0ED0012A01D10B680360002070BD0A
:100FBC000C200C6807F0E7F9030046CC46C3286008
:100FCC00F4E70C21006807F0F7F9EFE770B50500BE
:100FDC00022A07D0032A0ED0012A01D10B68036024
:100FEC00002070BD0C200C6807F0CDF9030046CC36
:100FFC0046C32860F4E70C21006807F0DDF9EFE741
:10100C0010B5FFF729FA10BD0368002B02D101605F
:10101C0004E013005A68002AFBD15960704710B5E0
:10102C000400002C05D0236820001B6898476468D6
:10103C00F7E710BD482210B50300007A5143114A5E
:10104C00002807D090681860814201D3081A5860B4
:10105C00002018721C68A14208D892680120A41ABA
:10106C00A14202D8012200201A7210BD9168012001
:10107C008C42FAD8516892688A1A59688A42F1D21D
:10108C00F3E7C04610E000E0030010B5040088331D
:10109C0018683221421C1A600834FFF7EDF8002959
:1010AC0003D1E06F03685B68984710BD704710B5BB
:1010BC000A1A02D0202107F0E5F910BD70477047DD
:1010CC00704770477047000003691B0603D5024B3D
:1010DC004360024B4360704723016745AB89EFCDFA
:1010EC0001220369934303610223026913430361E1
:1010FC0080239B02C9184023890241610269134372
:10110C0003617047F8B50600643604003078C0B24D
:10111C00052815D8FFF720F803153671BDD6220027
:10112C0067321378E16AE4183034C85C217888425D
:10113C0000D0E3E00133DBB2172B00D9002313708E
:10114C00F8BDA06AC368DB07FAD403691B06F7D5A0
:10115C00FFF7BAFF0221A36A1A698A431A610122B6
:10116C00186902431A61230067331A78E36A985CA2
:10117C002300663318701B78206E1B021343038008
:10118C003170DDE7A36ADA689206D9D52022D968D6
:10119C000A43DA60802219690A431A61230022008B
:1011AC006633673219781378E31830331970236E6D
:1011BC00991CA36C2166D8002018456D6F00056D35
:1011CC002000ED196530A94203D00378DBB23370EF
:1011DC00B6E70125E1184C315B190D70AB4200D913
:1011EC000023A364DB00E3181B6D2366002313703C
:1011FC000133337004330370A2E7A06AC368DB07C2
:10120C009ED403691B069BD5230021004C331D0083
:10121C004E31CA1A9210002A23DD1F78002F03D1F9
:10122C005F78002F10D00133994224D05D1BFFF75B
:10123C004BFF334B6419595DFFF752FF230000221B
:10124C004C331A700423C2E79F78002F01D002336D
:10125C00EAE7DF78002F01D00333E5E70433013AE6
:10126C00D9E7CA1A022A0DD0032A07D0012A0ED1B7
:10127C001A78002AD8D165342378A7E71A78002A7F
:10128C00D2D101331A78002ACED10133F0E70B000A
:10129C00CAE7A36ADA68920600D451E72022D9681B
:1012AC0025000A43DA608022200019694E350A4372
:1012BC001A614C302900FFF741FE0323854286D189
:1012CC00002384E72200673213780133DBB2172B3B
:1012DC0011D900231370250020004E3529004C3005
:1012EC00FFF72CFE0323854200D10023337000232B
:1012FC006534237024E71370002BECD0012366E7D0
:10130C0010A5000810B50468002C05D02368200037
:10131C001B689847A468F7E710BD10B583680400F4
:10132C00002B02D0032201009847200010BD10B5FD
:10133C0004000830FFF7E6FF20696169431C236154
:10134C00FEF79AFF002902D12000FFF7DBFF10BD4A
:10135C0010B50248FFF7EBFF10BDC046E00A0020B5
:10136C00416902690023914201D3436101331800A2
:10137C0070470000037B002B0DD0002342680373E1
:10138C008368002A0ED0002B08D0936083685A60C3
:10139C0000234360836070470B60F8E70449936057
:1013AC004A60F5E70249002BF6D10B604B60EFE782
:1013BC00E00A0020002310B54361FFF7DBFF10BDEE
:1013CC00037B002B0CD101330373064B5A6842602C
:1013DC00002A00D090601A685860002A00D118606A
:1013EC007047C046E00A002010B5036804005A1C80
:1013FC00C3180260597200685021FEF73DFF2000AF
:10140C00216010BD10B5142104000068FEF734FFF4
:10141C00002903D120312000FFF7E6FF14212068BA
:10142C00FEF72AFF002901D02021F4E7200010BD8F
:10143C0010B504002368002B04D020212000FFF7F6
:10144C00D3FFF7E7200010BD70B5040000200D009D
:10145C00814202D00800FEF777FE20606560200014
:10146C0070BD70B504000D0000681421FEF77EFEFF
:10147C0003001420584350214019FEF7FDFE2000B4
:10148C00216070BD70B505682A008C321368002B82
:10149C001AD02E0014248836013B13603368686818
:1014AC00634313210360FFF7DCFF2021FFF79CFF50
:1014BC0033686868013B5C43336013210460FFF7B9
:1014CC00D0FF7E21FFF790FF70BD70B505682A0034
:1014DC008C321368012B1AD02E0014248836013359
:1014EC00136033686868634313210360FFF7B9FF27
:1014FC002021FFF779FF3368686801335C43336060
:10150C0013210460FFF7ADFF7E21FFF76DFF70BD67
:10151C0070B505682A00A4321368002B1AD02E006F
:10152C001424A036013B13603368686863431321AD
:10153C000360FFF796FF2021FFF756FF33686868BA
:10154C00013B5C43336013210460FFF78AFF7E216B
:10155C00FFF74AFF70BD70B505682A00A432136806
:10156C00022B1AD02E001424A036013313603368DA
:10157C006868634313210360FFF773FF2021FFF7B3
:10158C0033FF3368686801335C43336013210460B4
:10159C00FFF767FF7E21FFF727FF70BD70B5056869
:1015AC002A00BC321368002B1AD02E001424B83633
:1015BC00013B136033686868634313210360FFF7D2
:1015CC0050FF2021FFF710FF33686868013B5C4334
:1015DC00336013210460FFF744FF7E21FFF704FF03
:1015EC0070BD70B505682A00BC321368032B1AD085
:1015FC002E001424B83601331360336868686343D3
:10160C0013210360FFF72DFF2021FFF7EDFE336858
:10161C00686801335C43336013210460FFF721FFDA
:10162C007E21FFF7E1FE70BD01230268406811695D
:10163C0083400B43136170470123426810B510328D
:10164C00934001680C6923430B6110BD036810B50E
:10165C0004009869FFF7F0FF64216068FFF7EAFC6B
:10166C000028F9D123689869FFF7DEFF64216068D0
:10167C00FFF7E0FC0028F9D110BD70B504000D0097
:10168C000368ED001869FFF7D7FF23686068DA6913
:10169C009B6AEB581361FFF7D9FF23686068DA691E
:1016AC009B6A5D196B681361FFF7D0FF3221A0684C
:1016BC00FFF7C0FC0028F9D170BD000070B5437B6A
:1016CC000400012B20D0002B02D0022B27D070BDA0
:1016DC004069FFF7B1FF2069FFF7A6FF206B50218F
:1016EC00431C2363FEF7C8FD114B8900256ACB58B8
:1016FC00626AEB5CDB00D3181968E2695B68116104
:10170C00E36201236373E2E78069FFF78DFFA06951
:10171C00FFF792FFE369E26A1A610223F2E780693C
:10172C00FFF782FFA069FFF787FF0023EAE7C046B7
:10173C00F490000803684268012090409B681840B0
:10174C00431E9841C0B2704710B50C1E03D0FFF772
:10175C006BFF200010BDFFF76FFFFAE770B58268D2
:10176C0004000D0001201378054083432B431370B4
:10177C006068FFF7E9FF01002068FFF7E5FF70BD27
:10178C0070B5826804000D00012013780540834376
:10179C002B4313706068FFF7D7FF01002068FFF739
:1017AC00D3FF70BD70B50600437A04000C36002BD5
:1017BC0005D00023C16143723000FFF701FE3000F9
:1017CC00FFF7CEFD0125002804D03000FFF7F2FD15
:1017DC0065720025280070BDF0B500268FB005ACF1
:1017EC0005000C22310009A80596666006F04AFE39
:1017FC000123637223726B46354FE661E760266204
:10180C000095019402950393049414212000FFF792
:10181C00C9FF0028F9D12869FFF70EFF6869FFF7A7
:10182C000BFFA869FFF700FFAA6AEB69D26968464B
:10183C001A61FFF70BFF05212000FFF7B3FF00280B
:10184C00F9D1AA6AEB69D26968461A61FFF7FEFE04
:10185C0064212000FFF7EEFB0028F9D1AA6AEB699E
:10186C00D26968461A61FFF7F1FE32212000FFF7BA
:10187C00E1FB0028F9D1AA6AEB69526968461A6142
:10188C00FFF7E4FE32212000FFF7D4FB0028F9D14A
:10189C00282102A8FFF7F1FE0C2102A8FFF7EDFEAC
:1018AC00062102A8FFF7E9FE012102A8FFF7E5FED9
:1018BC00802102A8FFF7E1FE01212000FFF772FF53
:1018CC000028F9D108A8E760FFF754FD0FB0F0BD70
:1018DC00848D000810B504003030FFF71EFD200089
:1018EC002030FFF71AFD20001030FFF716FD200006
:1018FC00FFF713FD200010BD10B50400072A19D105
:10190C00204B5B689B045B0F1CD0042B1CD0052B5D
:10191C001CD0063B5A1E93411B4A5B4213401B4A88
:10192C009B1807291AD80800FEF716FC121A1C1F60
:10193C0021242629083A0023012AF2D8114B5B688E
:10194C005B05E0E7124BECE7124BEAE7124BE8E7DA
:10195C00962189011800FEF709FCA060200010BD3B
:10196C00E121F6E79621C901F4E7E121FBE7962195
:10197C000902EFE7E121FBE796214902EAE7E121C1
:10198C00FBE7C04600100240E055BBFF4054890005
:10199C0000A24A040051250280A812010123C9B2F9
:1019AC00890003398B4000681840431E9841C0B22F
:1019BC007047FEE7FEE7FEE7FEE7FEE7FEE7000006
:1019CC00044B10B51868FFF72AFB0122024B5A6131
:1019DC0010BDC046400A002000040140044B10B565
:1019EC001868FFF71CFB0222024B5A6110BDC0465F
:1019FC00480A002000040140044B10B51868FFF79A
:101A0C000EFB0422024B5A6110BDC046800A002016
:101A1C0000040140044B10B51868FFF700FB0822C6
:101A2C00024B5A6110BDC046880A002000040140D8
:101A3C00044B10B51868FFF7F2FA1022024B5A61EA
:101A4C0010BDC046900A002000040140FEE7FEE7EE
:101A5C00FEE7FEE7FEE7000010B5144C63699B0639
:101A6C0003D5134B1868FFF7DAFA63695B0603D5E5
:101A7C00104B1868FFF7D3FA63691B0603D50E4B9E
:101A8C001868FFF7CCFA6369DB0503D50B4B1868B4
:101A9C00FFF7C5FA63699B0503D5094B1868FFF777
:101AAC00BEFAF8239B00636110BDC04600040140E0
:101ABC00980A0020A00A0020A80A0020B00A0020E2
:101ACC00B80A0020FEE7FEE7FEE7FEE7FEE7FEE7CA
:101ADC00FEE7FEE7FEE7FEE7FEE7FEE7FEE70000B7
:101AEC0010B5174C63695B0503D5164B1868FFF7E7
:101AFC0096FA63691B0503D5134B1868FFF78FFA29
:101B0C006369DB0403D5114B1868FFF788FA636926
:101B1C009B0403D50E4B1868FFF781FA63695B04CD
:101B2C0003D50C4B1868FFF77AFA63691B0403D5CD
:101B3C00094B1868FFF773FAFC231B02636110BD95
:101B4C0000040140500A0020580A0020600A0020BE
:101B5C00680A0020700A0020780A0020FEE7FEE7E1
:101B6C00044B10B51868FFF75AFA034B1A685B68F8
:101B7C0010BDC046C80A002000380140044B10B507
:101B8C001868FFF74CFA034B1A685B6810BDC04627
:101B9C00D00A002000440040044B10B51868FFF731
:101BAC003EFA034B1A685B6810BDC046D80A002089
:101BBC0000480040044B10B51868FFF730FA0122BA
:101BCC00024B5A6010BDC046080A002000000240BB
:101BDC00044B10B51868FFF722FA1022024B5A601A
:101BEC0010BDC046100A002000000240044B10B586
:101BFC001868FFF714FA8022024B52005A6010BD8D
:101C0C00180A002000000240044B10B51868FFF7BA
:101C1C0006FA8022024B52015A6010BD200A0020A5
:101C2C0000000240044B10B51868FFF7F8F9802249
:101C3C00024B52025A6010BD280A002000000240DC
:101C4C00044B10B51868FFF7EAF98022024B5203D7
:101C5C005A6010BD300A002000000240044B10B541
:101C6C001868FFF7DCF98022024B52045A6010BD51
:101C7C00380A00200000024010221F4B19680A434A
:101C8C0007211A601A688A43110002220A431A605B
:101C9C0080221A4B520219680A431A601A6892037E
:101CAC00FCD5F0215A688A435A605A68144911408D
:101CBC008022D2000A435A605A6812490A405A607C
:101CCC008022596852020A435A605A680E491140E0
:101CDC00E02252030A435A608022196852040A43D4
:101CEC001A601A689201FCD503215A688A431100C4
:101CFC0002220A435A607047002002400010024042
:101D0C00FFF8FFFFFFC7FFFFFFFFC3FFF8B501237D
:101D1C00614A624F12681A4260D1614A6148116887
:101D2C00194204D160491360016009214160042308
:101D3C00BA69F0211343BB610123BA6905681A43E0
:101D4C00BA616A688A431100A0220A436A60574A42
:101D5C00574915681D4204D1534D13600D600A2577
:101D6C004D600423BA69534D1343BB610123BA6917
:101D7C000E681A43BA61726815408022D2002A4359
:101D8C004D4D72602E684D4A1E4204D1464E2B605A
:101D9C0016600826566004250F24BB692B43BB61D3
:101DAC0016687368A3439C460223644623437360FE
:101DBC00434B0026FC335A61424A5E609A61424AA8
:101DCC009E60DA61414AD8601A62414A19615A62CE
:101DDC000722DD629A6201232F4A13608023384E5A
:101DEC00BA693400DB0113430822BB61FC34E3699C
:101DFC008025D96804200A43DA600422D9680A4392
:101E0C00DA605A692A435A61402259690A435A6175
:101E1C00304B1856FFF7F4F801237A692E49134317
:101E2C007B611027236A2D481A683A431A6062684E
:101E3C009219DA60E26904329A601A682A431A60CD
:101E4C001A680A401A601A6802401A6002220420BA
:101E5C0019680A431A60224B1856FFF7D1F8636AC7
:101E6C001D491A681D48BA431A6062689219DA60F3
:101E7C00E26904329A60FF225A601A6815431D60A9
:101E8C001A680A401A601A6802401A6020221968FF
:101E9C0030000A431A60F8BDCC020020001002404A
:101EAC00140400201804002000080140080400203D
:101EBC000C040020FFF0FFFFFC03002000040020B6
:101ECC00D0020020000002400038014044000240D3
:101EDC0058000240C80A0020FFF3FFFFFFFCFFFF81
:101EEC00200A0020F8B50123704A714F12681A427B
:101EFC007ED1704A70491068184204D16F48136043
:101F0C0008600A20486010220120BB696C4C134306
:101F1C00BB61BB690D680343BB616B681C40A023AC
:101F2C001B0123436B603025664B5C68AC4322433A
:101F3C00654C5A602568654A054204D15F4D2060A6
:101F4C0015600B2555601024B86926002043B86134
:101F5C001068BC69844601200443BC6164465C4D36
:101F6C00646825408024E4012C4365466C60302570
:101F7C005C68AC4334435C60564C2568054205D123
:101F8C00554D564E20602E600F266E600420BC69A5
:101F9C00514D20430124B861286826008446B86955
:101FAC002043B86158684E4C044080208004204384
:101FBC005860634680205B6880051B011B09034346
:101FCC0060464360474B0020FC331A61464A586018
:101FDC009A61464A9860DA61454AD9601A62454A64
:101FEC005D615A6209229A62073ADA622F4B1E60CF
:101FFC0080233C4EFA693400DB0213430822FB6158
:10200C00FC34E3698025D96804200A43DA60042291
:10201C00D9680A43DA605A692A435A6140225969DD
:10202C000A435A61344B1856FEF7EAFF01237A69CA
:10203C00324913437B611027236A31481A683A43AB
:10204C001A6062689219DA60E26904329A601A685E
:10205C002A431A601A680A401A601A6802401A6009
:10206C000222042019680A431A60264B1856FEF700
:10207C00C7FF636A21491A682148BA431A6062682B
:10208C009219DA60E26904329A60FF225A601A6887
:10209C0015431D601A680A401A601A6802401A60DB
:1020AC002022196830000A431A60F8BD780100201C
:1020BC0000100240C0020020C402002000100140A9
:1020CC00FFF0FFFF00000140B4020020B802002026
:1020DC00FF0FFFFFA8020020AC0200200008014007
:1020EC00FFFFFFF87C010020000002400048004088
:1020FC001C00024030000240D80A0020FFF3FFFF12
:10210C00FFFCFFFF100A002070B515000C1A04D05C
:10211C0001002200280006F0A2F9281970BD030066
:10212C00F0B5093387B00193036816000293029A45
:10213C00019B05009A18037A0C00002B27D0132959
:10214C001CD814277F1A7F08D7197B181000390068
:10215C000393FEF7ACFF31193A003000FFF7D4FFC0
:10216C000299019B143159180398FEF7A0FF2868B7
:10217C0014305021FEF780F8296016E0080014385E
:10218C004008301801001431FFF7BEFFEFE7502173
:10219C00029BC91A33190293A1420BD919003000C2
:1021AC00FFF7B2FF2B681C192C60002328002B7240
:1021BC0007B0F0BD270071183000FFF7A5FF2B68A2
:1021CC00503FFF18E41B36193000019A5036502F3F
:1021DC0004D93100FFF798FF503FF5E70299FFF75C
:1021EC0093FF2B68F818C4E730B5050089B00A00D6
:1021FC0005A8104906F052FA05A901A8FFF724F921
:10220C006C68019B9C4207D9E41A013C04D3202141
:10221C002800FFF7E9F8F8E705A903A8FFF714F978
:10222C000399049A2800FFF77AFF002328006B60BB
:10223C0009B030BD0D950008F8B500240500260046
:10224C00042743681C60EB6A1B88A3420FDD6F2CCC
:10225C0003DCAB6A1B5D002B05D06868210047606E
:10226C00FFF7C2FF0136142E01D00134EBE768688A
:10227C00FFF7DEF8F8BD3F22436810B51A603C3A10
:10228C005A60C26A18001188FFF7AEFF10BDF7B58F
:10229C000022436804001A60056E03272B000526F4
:1022AC0008330193E36D60681B88AB4215DD013583
:1022BC0029004760FFF798FF3A21FFF795F860680F
:1022CC006B1E4660A26D5B00995AFFF78DFF2021B3
:1022DC00FFF78AF8019B9D42E4D16068FFF7A8F8EC
:1022EC00F7BD006810B5036E002B03D0023B0366EC
:1022FC00FFF7CDFF10BD006810B5036EC26D19005D
:10230C0012880831914203DA02330366FFF7BFFFEC
:10231C0010BD016810B50A000800643213786630ED
:10232C000133DBB213700078984203D20B00653393
:10233C001B7813701423486803601178FFF754FF5F
:10234C00FFF760F810BD016810B50A000800643290
:10235C0013786530013BDBB213700078984203D9D7
:10236C000B0066331B7813701423486803601178D4
:10237C00FFF73AFFFFF746F810BD036810B55A6E29
:10238C00D96E01325A668A4201DD9A6E5A6614225F
:10239C0058680260596EFFF727FFFFF733F810BD3E
:1023AC00036810B55A6E996E013A5A668A4201DA80
:1023BC00DA6E5A66142258680260596EFFF714FFE1
:1023CC00FFF720F810BD0000036813B55A6ED96EE4
:1023DC0001325A668A4201DD9A6E5A6614225C6892
:1023EC00684622605B6E064A9B009958FFF72CF8F2
:1023FC000099019A2000FFF792FEFFF703F813BD36
:10240C003C940008036813B55A6E996E013A5A66EB
:10241C008A4201DADA6E5A6614225C6868462260D7
:10242C005B6E064A9B009958FFF70EF80099019ACB
:10243C002000FFF774FEFEF7E5FF13BD3C94000887
:10244C0013B501680A000800643213786630013352
:10245C00DBB213700078984203D20B0065331B7803
:10246C00137014234C68684623601378064A9B004B
:10247C009958FEF7E9FF0099019A2000FFF74FFEEB
:10248C00FEF7C0FF13BDC046A894000813B5016841
:10249C000A000800643213786530013BDBB213701C
:1024AC000078984203D90B0066331B781370142301
:1024BC004C68684623601378064A9B009958FEF7CF
:1024CC00C3FF0099019A2000FFF729FEFEF79AFF3F
:1024DC0013BDC046A894000813B501680A00080093
:1024EC006432137866300133DBB213700078984293
:1024FC0003D20B0065331B78137014234C686846A9
:10250C0023601378064A9B009958FEF79DFF0099AB
:10251C00019A2000FFF703FEFEF774FF13BDC046BF
:10252C003494000813B501680A000800643213786B
:10253C006530013BDBB213700078984203D90B0075
:10254C0066331B78137014234C6868462360137829
:10255C00064A9B009958FEF777FF0099019A2000D4
:10256C00FFF7DDFDFEF74EFF13BDC04634940008A7
:10257C0013B501680A000800643213786630013321
:10258C00DBB213700078984203D20B0065331B78D2
:10259C00137014234C68684623601378064A9B001A
:1025AC009958FEF751FF0099019A2000FFF7B7FDEB
:1025BC00FEF728FF13BDC046B094000813B50168A0
:1025CC000A000800643213786530013BDBB21370EB
:1025DC000078984203D90B0066331B7813701423D0
:1025EC004C68684623601378064A9B009958FEF79E
:1025FC002BFF0099019A2000FFF791FDFEF702FFD7
:10260C0013BDC046B0940008002370B583608B687E
:10261C0004000D00002B05D002229847EB68E36004
:10262C00AB68A360200070BD70B505000C00FFF70F
:10263C00EBFF2800210010301031FFF7E5FF2800D8
:10264C00210020302031FFF7DFFF2800210030303F
:10265C003031FFF7D9FF280070BD002370B58360BF
:10266C008B6804000D00002B05D002229847EB6804
:10267C00E360AB68A360200070BD836810B5002BCD
:10268C0001D105F09DFEC368984710BD10B50068D8
:10269C004830FFF7F2FF10BD10B500681830FFF797
:1026AC00ECFF10BD10B500681830FFF7E6FF10BD49
:1026BC00006810B5036E426E48301A60FFF7DDFFFC
:1026CC0010BD10B500684830FFF7D7FF10BD10B52E
:1026DC0003681A6E64331B78137000684830FFF778
:1026EC00CCFF10BD10B500684830FFF7C6FF10BD19
:1026FC0010B503681A6E64331B7813700068483089
:10270C00FFF7BBFF10BD10B500684830FFF7B5FFF1
:10271C0010BD10B503681A6E64331B781370006813
:10272C004830FFF7AAFF10BD10B500684830FFF71E
:10273C00A4FF10BD10B503681A6E64331B781370B8
:10274C0000684830FFF799FF10BD10B5006848309D
:10275C00FFF793FF10BD006810B5036E426E483052
:10276C001A60FFF78AFF10BD10B500684830FFF7FC
:10277C0084FF10BD006818220300D4331B6810B509
:10278C005343C0186030FFF778FF10BD10B50068D8
:10279C004830FFF772FF10BD0068182203008C331D
:1027AC001B6810B55343C0186030FFF766FF10BDAF
:1027BC0010B500684830FFF760FF10BD00681822A4
:1027CC000300A4331B6810B55343C0186030FFF7E7
:1027DC0054FF10BD10B500684830FFF74EFF10BD18
:1027EC00006818220300BC331B6810B55343C01893
:1027FC006030FFF742FF10BD10B500684830FFF79E
:10280C003CFF10BD836810B5002B01D105F0D8FD3D
:10281C00C368984710BD0000F0B5040085B0124F96
:10282C00124E134D69460830009703960295FFF738
:10283C00E9FF6846FEF771FD2000694618300097E5
:10284C0003960295FFF7DEFF6846FEF766FD200053
:10285C0069463830009703960295FFF7D3FF684618
:10286C00FEF75BFD05B0F0BD7D0400089F04000879
:10287C00A70400081FB5074B69460093064B0830A8
:10288C000393064B0293FFF7BDFF6846FEF745FD29
:10289C0005B000BD7D0400089F040008A7040008D3
:1028AC001FB5074B69460093064B08300393064B44
:1028BC000293FFF7A7FF6846FEF72FFD05B000BD9A
:1028CC007D0400089F040008A7040008F0B504006C
:1028DC0085B0184F184E194D69460830009703966D
:1028EC000295FFF78FFF6846FEF717FD200069463B
:1028FC001830009703960295FFF784FF6846FEF7A1
:10290C000CFD200069462830009703960295FFF7CE
:10291C0079FF6846FEF701FD2000694638300097C4
:10292C0003960295FFF76EFF6846FEF7F6FC05B0BE
:10293C00F0BDC0467D0400089F040008A7040008F1
:10294C00F0B5040085B0184F184E194D6946083083
:10295C00009703960295FFF755FF6846FEF7DDFCDE
:10296C00200069461830009703960295FFF74AFF3E
:10297C006846FEF7D2FC2000694628300097039683
:10298C000295FFF73FFF6846FEF7C7FC200069463B
:10299C003830009703960295FFF734FF6846FEF730
:1029AC00BCFC05B0F0BDC0467D0400089F040008C7
:1029BC00A7040008F0B5040085B0184F184E194D47
:1029CC0069460830009703960295FFF71BFF68468F
:1029DC00FEF7A3FC20006946183000970396029579
:1029EC00FFF710FF6846FEF798FC20006946283078
:1029FC00009703960295FFF705FF6846FEF78DFCDE
:102A0C00200069463830009703960295FFF7FAFECE
:102A1C006846FEF782FC05B0F0BDC0467D04000898
:102A2C009F040008A7040008F0B5040085B0184FF7
:102A3C00184E194D69460830009703960295FFF71A
:102A4C00E1FE6846FEF769FC2000694618300097E5
:102A5C0003960295FFF7D6FE6846FEF75EFC200053
:102A6C0069462830009703960295FFF7CBFE68461F
:102A7C00FEF753FC20006946383000970396029508
:102A8C00FFF7C0FE6846FEF748FC05B0F0BDC04637
:102A9C007D0400089F040008A7040008F0B504009A
:102AAC0085B0184F184E194D69460830009703969B
:102ABC000295FFF7A7FE6846FEF72FFC200069463B
:102ACC001830009703960295FFF79CFE6846FEF7B8
:102ADC0024FC200069462830009703960295FFF7E6
:102AEC0091FE6846FEF719FC2000694638300097C5
:102AFC0003960295FFF786FE6846FEF70EFC05B0BE
:102B0C00F0BDC0467D0400089F040008A70400081F
:102B1C00F0B5040085B0184F184E194D69460830B1
:102B2C00009703960295FFF76DFE6846FEF7F5FBDE
:102B3C00200069461830009703960295FFF762FE55
:102B4C006846FEF7EAFB200069462830009703969A
:102B5C000295FFF757FE6846FEF7DFFB200069463B
:102B6C003830009703960295FFF74CFE6846FEF747
:102B7C00D4FB05B0F0BDC0467D0400089F040008DE
:102B8C00A7040008F0B5040085B0184F184E194D75
:102B9C0069460830009703960295FFF733FE6846A6
:102BAC00FEF7BBFB20006946183000970396029590
:102BBC00FFF728FE6846FEF7B0FB20006946283078
:102BCC00009703960295FFF71DFE6846FEF7A5FBDE
:102BDC00200069463830009703960295FFF712FEE5
:102BEC006846FEF79AFB05B0F0BDC0467D040008B0
:102BFC009F040008A7040008F0B5040085B0184F26
:102C0C00184E194D69460830009703960295FFF748
:102C1C00F9FD6846FEF781FB2000694618300097E5
:102C2C0003960295FFF7EEFD6846FEF776FB200053
:102C3C0069462830009703960295FFF7E3FD684636
:102C4C00FEF76BFB2000694638300097039602951F
:102C5C00FFF7D8FD6846FEF760FB05B0F0BDC04637
:102C6C007D0400089F040008A7040008F0B50400C8
:102C7C0085B0184F184E194D6946083000970396C9
:102C8C000295FFF7BFFD6846FEF747FB200069463B
:102C9C001830009703960295FFF7B4FD6846FEF7CF
:102CAC003CFB200069462830009703960295FFF7FD
:102CBC00A9FD6846FEF731FB2000694638300097C5
:102CCC0003960295FFF79EFD6846FEF726FB05B0BE
:102CDC00F0BDC0467D0400089F040008A70400084E
:102CEC00F0B5040085B0184F184E194D69460830E0
:102CFC00009703960295FFF785FD6846FEF70DFBDE
:102D0C00200069461830009703960295FFF77AFD6C
:102D1C006846FEF702FB20006946283000970396B0
:102D2C000295FFF76FFD6846FEF7F7FA200069463B
:102D3C003830009703960295FFF764FD6846FEF75E
:102D4C00ECFA05B0F0BDC0467D0400089F040008F5
:102D5C00A70400081FB5074B00900393064B694668
:102D6C0008300293FFF74EFD6846FEF7D6FA05B021
:102D7C0000BDC046A5260008BD0400081FB5040010
:102D8C00144B69460393144B009008300293FFF7E1
:102D9C0039FD6846FEF7C1FA2000104B69460393D3
:102DAC000F4B183002930094FFF72CFD6846FEF78A
:102DBC00B4FA20000B4B694603930B4B383002934B
:102DCC000094FFF71FFD6846FEF7A7FA2000FFF7F7
:102DDC005EFA1FBDEF220008D3040008032300088D
:102DEC00E904000899260008FF04000830B5040027
:102DFC003C4B85B003933C4B6946009008300293E2
:102E0C00FFF700FD6846FEF788FA65682900280080
:102E1C0059310930FEF74BF900232B606568334AB2
:102E2C002B6001332B72A36A68461B689B00995870
:102E3C00FEF70AFB019A00992800FFF770F914239A
:102E4C0065682B492B606846FEF7FEFA019A0099DB
:102E5C002800FFF764F9636B1988FFF7C5F928237D
:102E6C00656824492B606846FEF7EEFA019A0099D2
:102E7C002800FFF754F9FEF7C5FA65681E49684645
:102E8C00FEF7E2FA019A00992800FFF748F90323AC
:102E9C0060684360E36A1988FFF7A6F905001749D3
:102EAC006846FEF7D1FA019A00992800FFF737F926
:102EBC004423656812492B606846FEF7C5FA019AEF
:102ECC0000992800FFF72BF94A2364680D49236009
:102EDC006846FEF7B9FA0099019A2000FFF71FF92E
:102EEC0005B030BDB1260008890400083C940008E8
:102EFC00F1940008F794000806950008089500085E
:102F0C00F8A500080A95000830B50400404B89B0BC
:102F1C000793404B04A9049008300693FFF772FC0A
:102F2C0004A8FEF7FAF920003B4B04A907933B4B8E
:102F3C00183006930494FFF765FC04A8FEF7EDF92E
:102F4C002000374B04A90793364B28300693049482
:102F5C00FFF758FC04A8FEF7E0F92000324B04A957
:102F6C000793324B383006930494FFF74BFC04A8BC
:102F7C00FEF7D3F9002360680360A16DE26DFFF7E3
:102F8C00CEF8FEF73FFA14236568294A2B60636E6E
:102F9C0004A89B009958FEF757FA059A0499280043
:102FAC00FFF7BDF8FEF72EFA656822496846FEF772
:102FBC004BFA019A00992800FFF7B1F87E21FEF731
:102FCC0013FA05001C4902A8FEF73EFA039A02996F
:102FDC002800FFF7A4F8FEF715FA6468174968464D
:102FEC00FEF732FA019A00992000FFF798F87E213B
:102FFC00FEF7FAF90400124902A8FEF725FA029925
:10300C00039A2000FFF78BF8FEF7FCF909B030BDEE
:10301C00D5230008AF08000811240008C5080008D3
:10302C00BD260008DB080008CF260008F1080008C0
:10303C003C940008CC940008D7940008DF94000856
:10304C00EA94000830B50400414B89B00793414B1A
:10305C0004A9049008300693FFF7D4FB04A8FEF7EC
:10306C005CF920003C4B04A907933C4B18300693A9
:10307C000494FFF7C7FB04A8FEF74FF92000384B68
:10308C0004A90793374B283006930494FFF7BAFB37
:10309C0004A8FEF742F92000334B04A90793334BE5
:1030AC00383006930494FFF7ADFB04A8FEF735F90E
:1030BC00002360680360A16DE26DFFF730F8FEF746
:1030CC00A1F9142365682A4A2B60230064331B780A
:1030DC0004A89B009958FEF7B7F9059A04992800A3
:1030EC00FFF71DF8FEF78EF9656822496846FEF772
:1030FC00ABF9019A00992800FFF711F87E21FEF731
:10310C0073F905001C4902A8FEF79EF9039A02996F
:10311C002800FFF704F8FEF775F96468174968464C
:10312C00FEF792F9019A00992000FEF7F8FF7E2134
:10313C00FEF75AF90400124902A8FEF785F9029924
:10314C00039A2000FEF7EBFFFEF75CF909B030BDE7
:10315C004D24000807090008992400081D090008DF
:10316C00DB26000833090008F1260008490900088D
:10317C00A8940008CC940008D7940008DF940008A9
:10318C00EA94000830B50400414B89B00793414BD9
:10319C0004A9049008300693FFF734FB04A8FEF74B
:1031AC00BCF820003C4B04A907933C4B1830069309
:1031BC000494FFF727FB04A8FEF7AFF82000384B68
:1031CC0004A90793374B283006930494FFF71AFB96
:1031DC0004A8FEF7A2F82000334B04A90793334B45
:1031EC00383006930494FFF70DFB04A8FEF795F80E
:1031FC00002360680360A16DE26DFEF790FFFEF79F
:10320C0001F9142365682A4A2B60230064331B7868
:10321C0004A89B009958FEF717F9059A0499280001
:10322C00FEF77DFFFEF7EEF8656822496846FEF76B
:10323C000BF9019A00992800FEF771FF7E21FEF729
:10324C00D3F805001C4902A8FEF7FEF8039A029970
:10325C002800FEF764FFFEF7D5F864681749684646
:10326C00FEF7F2F8019A00992000FEF758FF7E2134
:10327C00FEF7BAF80400124902A8FEF7E5F8029925
:10328C00039A2000FEF74BFFFEF7BCF809B030BDE7
:10329C00E52400085F0900083125000875090008BD
:1032AC00FD2600088B09000813270008A109000857
:1032BC0034940008CC940008D7940008DF940008DC
:1032CC00EA94000830B50400414B89B00793414B98
:1032DC0004A9049008300693FFF794FA04A8FEF7AB
:1032EC001CF820003C4B04A907933C4B1830069368
:1032FC000494FFF787FA04A8FEF70FF82000384B68
:10330C0004A90793374B283006930494FFF77AFAF5
:10331C0004A8FEF702F82000334B04A90793334BA3
:10332C00383006930494FFF76DFA04A8FDF7F5FF07
:10333C00002360680360A16DE26DFEF7F0FEFEF7FE
:10334C0061F8142365682A4A2B60230064331B78C8
:10335C0004A89B009958FEF777F8059A0499280061
:10336C00FEF7DDFEFEF74EF8656822496846FEF76B
:10337C006BF8019A00992800FEF7D1FE7E21FEF72A
:10338C0033F805001C4902A8FEF75EF8039A02996F
:10339C002800FEF7C4FEFEF735F864681749684646
:1033AC00FEF752F8019A00992000FEF7B8FE7E2134
:1033BC00FEF71AF80400124902A8FEF745F8029924
:1033CC00039A2000FEF7ABFEFEF71CF809B030BDE7
:1033DC007D250008B7090008C9250008CD0900089B
:1033EC001F270008E309000835270008F909000821
:1033FC00B0940008CC940008D7940008DF9400081F
:10340C00EA94000830B504003C4B87B005933C4B64
:10341C0002A9029008300493FFF7F4F902A8FDF713
:10342C007CFF2000374B02A90593374B18300493CF
:10343C000294FFF7E7F902A8FDF76FFF2000334B6A
:10344C0002A90593324B283004930294FFF7DAF962
:10345C0002A8FDF762FF20002E4B02A905932E4B0C
:10346C00383004930294FFF7CDF902A8FDF755FF0D
:10347C00002360680360E26DA16DFEF750FEFDF75E
:10348C00C1FF2300643319786068FEF7ADFEFDF7C9
:10349C00B9FF656821496846FDF7D6FF019A009986
:1034AC002800FEF73CFE7E21FDF79EFF05001C491F
:1034BC0002A8FDF7C9FF039A02992800FEF72FFE18
:1034CC00FDF7A0FF646817496846FDF7BDFF019A38
:1034DC0000992000FEF723FE7E21FDF785FF0400F6
:1034EC00114902A8FDF7B0FF0299039A2000FEF7DC
:1034FC0016FEFDF787FF07B030BDC0461F2300083E
:10350C000F0A000853230008250A00084127000869
:10351C003B0A000857270008510A0008CC94000801
:10352C00D7940008DF940008EA94000830B5040032
:10353C003B4B87B005933B4B02A902900830049398
:10354C00FFF760F902A8FDF7E8FE2000364B02A950
:10355C000593364B183004930294FFF753F902A8E5
:10356C00FDF7DBFE2000324B02A90593314B2830CE
:10357C0004930294FFF746F902A8FDF7CEFE200053
:10358C002D4B02A905932D4B383004930294FFF771
:10359C0039F902A8FDF7C1FE002360680360E26DF3
:1035AC00A16DFEF7BCFDFDF72DFF616E6068FEF7A7
:1035BC001BFEFDF727FF656821496846FDF744FFB0
:1035CC00019A00992800FEF7AAFD7E21FDF70CFF59
:1035DC0005001C4902A8FDF737FF039A0299280041
:1035EC00FEF79DFDFDF70EFF646817496846FDF771
:1035FC002BFF019A00992000FEF791FD7E21FDF72B
:10360C00F3FE0400114902A8FDF71EFF0299039A6C
:10361C002000FEF784FDFDF7F5FE07B030BDC04677
:10362C0087230008670A0008AD2300087D0A0008FC
:10363C0063270008930A000875270008A90A0008E8
:10364C00CC940008D7940008DF940008EA94000892
:10365C0070B50C000978FC30826A4909C069FEF724
:10366C004BF901212278C3685208154D0A402B40B2
:10367C0052021A43C2602378C2689B080B4011495E
:10368C001B030A401343C36023780269DB060E490F
:10369C009B0F1B030A40134303612378DB070AD5F6
:1036AC008023C268DB001343C3608023C2689B0184
:1036BC001343C36070BDC368044A1340F4E7C046AB
:1036CC00FFFDFFFFFFEFFFFFFFCFFFFFFFFBFFFF44
:1036DC00002310B5FC300400436083604069FDF7A3
:1036EC00ABFF0123216A0A689A430A60626A116877
:1036FC0099431160FF215160626A11680B4313609A
:10370C001368DB07FCD51023E269D1680B43D36047
:10371C0010BD70B5846825008C352B68FC33D96AD4
:10372C009869FEF73BF9002805D02868FFF7D0FF11
:10373C002000FDF745FE70BD10B584682369FC338D
:10374C00D96A9869FEF72AF9002802D02069FFF798
:10375C00BFFF10BD0368C2881B889A4201D20122A8
:10376C00027282889A4201D900230372007A704750
:10377C0010B5046823681B789B0705D46068FFF7B5
:10378C00E9FF0121002804D023681B789B0703D58F
:10379C000021A068FDF7F4FF10BD10B50468236884
:1037AC001B78DB0705D46068FFF7D4FF01210028E4
:1037BC0004D023681B78DB0703D50021A068FDF734
:1037CC00CDFF10BDFF23F0B51D00064F064E0C7843
:1037DC0001315C403B5D6B40355D8A42F7D1057031
:1037EC004370F0BD349200083493000810B5040007
:1037FC000CC90CC0FEF731FF200010BD70B50400E1
:10380C001D00134B4160036011000830FEF70CFFE4
:10381C00200029004830FEF720FF20000499583082
:10382C00FFF7E4FF200005997030FFF7DFFF200061
:10383C0006998830FFF7DAFF20000799A030FFF7D0
:10384C00D5FF22000023B83220001360536070BDF6
:10385C00CC8D00080300FC339A68FE2A03D88154EF
:10386C009A6801329A60704710B5FC3004004069C8
:10387C00FDF7DAFE1021E269D3688B43D360012295
:10388C00616A0B6893430B60216A0B6893430B606E
:10389C00A3686068216A1B1A02339BB24B60236ACF
:1038AC0019680A431A601A68D207FCD510BD0022A9
:1038BC00036973B5FC335A609A6004000D00431D14
:1038CC00861D012921D1D97F0069FFF7C3FF802311
:1038DC00F17F1943FFF7BEFF2900FFF7BBFF2169FA
:1038EC0001AD0B00FC339A685B688A182800C91874
:1038FC00FFF768FF69782069FFF7ACFF2978FFF7BD
:10390C00A9FF2069FFF7B0FF73BD0069D97F022DB5
:10391C0003D1FFF79FFFF17FDCE7FFF79BFFF17F00
:10392C00FFF798FF0321D8E7020010B5FC3253686B
:10393C00946800219C4202D9591C5160C15C08005A
:10394C0010BD020010B5FC32536894689C4204D937
:10395C005C1C5460C35C0B7010BD0023FBE70200C1
:10396C0070B5FC3253689268013304000D009A4222
:10397C000BD9FFF7D9FF06002000FFF7D5FF360261
:10398C00C0B230432880200070BD00230B80FAE7C2
:10399C00F0B505008C3503002A68983311001B68BC
:1039AC0085B0FC3100901C6848682379165C9E42F7
:1039BC000FD00922A06923181A7501300321FCF7D6
:1039CC0045FD009AA161B83213680133136005B04C
:1039DC00F0BD8B681E1A022E43D90027984202D2E2
:1039EC00013B8B60D75C296800200A00FC320190F7
:1039FC0093685068834203D9013B9360CB5C01937D
:103A0C00296803AE0B00FC339A685B688A18300097
:103A1C00C918FFF7D7FE3378BB4222D17378019ACD
:103A2C0093421ED12868FFF77FFF02ABDF1C3900E1
:103A3C002868FFF786FF3B787F2B16D93100286862
:103A4C00FFF77FFFA069327823181A750130032124
:103A5C00FCF7FCFC009BA161B8331A6801321A60B8
:103A6C00B5E7A06910222318A6E7237A032BAED161
:103A7C0031002868FFF765FFE1682868FFF76FFFE2
:103A8C00A5E770B50C000500090AFFF7E3FEE1B2EB
:103A9C00FFF7E0FE280070BD73B56B4604001A00FA
:103AAC0060CC60C20A0030CA30C005CB05C173BD02
:103ABC0070B505000C00FFF7EFFFAB68A268AA60B9
:103ACC00A360E268EB68EA60E36070BD1FB50400B8
:103ADC006846FEF7C2FD21006846FFF7E9FF68461D
:103AEC00FDF71BFC200004B010BD10B54430FFF7EF
:103AFC00EDFF10BD10B53430FFF7E8FF10BD10B569
:103B0C002430FFF7E3FF10BD10B51430FFF7DEFFD4
:103B1C0010BD10B54430FFF7D9FF10BD10B53430CF
:103B2C00FFF7D4FF10BD10B52430FFF7CFFF10BD49
:103B3C0010B51430FFF7CAFF10BD10B54430FFF7B5
:103B4C00C5FF10BD10B53430FFF7C0FF10BD10B568
:103B5C002430FFF7BBFF10BD10B51430FFF7B6FFD4
:103B6C0010BD10B53430FFF7B1FF10BD10B53430B7
:103B7C00FFF7ACFF10BD10B54430FFF7A7FF10BD29
:103B8C0010B54430FFF7A2FF10BD10B52430FFF77D
:103B9C009DFF10BD10B51430FFF798FF10BD10B588
:103BAC002430FFF793FF10BD10B51430FFF78EFFD4
:103BBC0010BD30B50023040089B00800694602939B
:103BCC00FFF776FF236869469C6F04A82368DD68BD
:103BDC00FEF743FD04A92000A84704A8FDF79DFBB0
:103BEC006846FDF79AFB09B030BD30B500230400E0
:103BFC0089B0080069460293FFF75AFF23686946AB
:103C0C009C6F04A823689D68FEF727FD04A920007B
:103C1C00A84704A8FDF781FB6846FDF77EFB09B0B9
:103C2C0030BD30B50023040089B00800694602930A
:103C3C00FFF73EFF236869461C6F04A823689D6844
:103C4C00FEF70BFD04A92000A84704A8FDF765FBAF
:103C5C006846FDF762FB09B030BD30B500230400A7
:103C6C0089B0080069460293FFF722FF2368694672
:103C7C005C6F04A823689D68FEF7EFFC04A9200084
:103C8C00A84704A8FDF749FB6846FDF746FB09B0B9
:103C9C0030BD30B50023040089B00800694602939A
:103CAC00FFF706FF236869469C6F04A823689D688C
:103CBC00FEF7D3FC04A92000A84704A8FDF72DFBB0
:103CCC006846FDF72AFB09B030BD0B1A1B11002BFF
:103CDC0018DD0268127C002A04D04268127C002A8B
:103CEC0001D1043070478268127C002A01D108305F
:103CFC00F8E7C268127C002A01D10C30F2E71030D0
:103D0C00013BE4E70B1A9B10022B0ED0032B07D0C0
:103D1C00012B03D103681B7C002BE3D00800E1E7E7
:103D2C0003681B7C002BDDD0043003681B7C002B4C
:103D3C00D8D00430EEE7F0B5437B85B00400012BFE
:103D4C0007D0002B00D183E0022B00D1C3E005B0DB
:103D5C00F0BD06000500002398368C3530681A1C1F
:103D6C002900FFF7B2FF3060854202D11034346075
:103D7C00EDE700272B680668FC335F609F603179A4
:103D8C002868FFF767FD317A2868FFF763FD390073
:103D9C002868FFF75FFDB1792868FFF75BFD3900F4
:103DAC002868FFF757FD337A032B01D0102B32D143
:103DBC0001212868FFF74EFD337A102B07D1002123
:103DCC002868FFF747FDF3681978FFF743FDFD22DC
:103DDC00337AD91E114228D1336803AF1B683100E6
:103DEC003800984779782868FFF734FD3978FFF761
:103DFC0031FD22002300A8321268A0331A60220081
:103E0C000026BC321E611368286801331360FFF76B
:103E1C002BFD66739BE7052BCED1F36828681B88B6
:103E2C003900002BC6D05521C4E7102BE1D12968ED
:103E3C0003AE0B00FC339A685B688A183000C91813
:103E4C00FFF7C0FC71782868FFF704FD3178CEE7E6
:103E5C00030002008C331B68A832FC3311689A688B
:103E6C005B680700D31A0200B0321268A0379A427E
:103E7C0000D2396026009C36336801938B4217DBE5
:103E8C002300122298331B6803211D68A8692B1884
:103E9C001A750130FCF7DAFA2200B8321368A961FE
:103EAC00013313602300019AAC331A60022363734D
:103EBC00019A3B68D31A2200A4321268934200DAAA
:103ECC0045E72000FFF764FD23003268AC331A602D
:103EDC00022363733BE7020001009C321368AC3190
:103EEC000968093B8B4200DC31E700231360FDF7C6
:103EFC0041FA220098321368043313600123E8E777
:103F0C000123FC210022F0B5324C4900A54475ACCC
:103F1C0023753633E3820F3BA361233BA383FB332F
:103F2C00E383EC3BA3842C4B2C48083375932C4B2C
:103F3C002282A36279ABE3620AAB5B181A80294B2D
:103F4C00083123658D938EAB1A70274B6165E16543
:103F5C000AA95B181A70254B62825B18FF2122623A
:103F6C006260A2602273A264A0651A701300013211
:103F7C003033E154182AF9D100216FA804F082FAE9
:103F8C00A06AFDF7A1F80026012789AD6B686FA820
:103F9C0059002B685B1805932B68059A9A420ED032
:103FAC001A78172A07D85978A218303211701A7853
:103FBC0087540233F1E71A880D498A42F9D18D935F
:103FCC002A689A4216D1A6640835012E20D03E00EC
:103FDC00DCE7C04614EEFFFF2CA5000800F8010832
:103FEC000020024000FC0108110200001302000036
:103FFC00FFFF0000696849005218934201D102F09A
:10400C0020FBA66421006FA8FCF76AFFA042DBD15D
:10401C00A36CDA00A218516D126D49005218216E72
:10402C0091420CD18E220AA952015218D318F14A8E
:10403C009B1801221A700023A364899B8D93210085
:10404C006FA8FCF74DFF0500A04201D002F0FEFA6C
:10405C00182281A9E06A04F0F9F90023E6490AAABA
:10406C0052181370FC220AAB52009B181B78002BC1
:10407C0014D1A36C002B11D0636DE0485A00899BBE
:10408C009A181900934201D002F0EDFA8A1A511EC7
:10409C008A41FC210AAB49005B181A70FA220AAB60
:1040AC00FF329B181B78002B19D1A36C012B16D057
:1040BC00E36D8B9A5B00D148D3181100934201D168
:1040CC0002F0DAFA0232961E36888642F5D05B1A76
:1040DC00FA215A1E9341FF310AAA52181370FD2679
:1040EC000AAB7600F618310088A8FCF727FFB0421F
:1040FC0002D003228EAB1A708023A26A11690B4383
:10410C001361A54205D0BE4B79AA23CB23C223CB86
:10411C0023C22000FDF754F9E022012752000AAB1C
:10412C009B181B78023A05930AAB9B181B880AAAAA
:10413C001382FDF7EBFDB34EB34C35683D404BD1CC
:10414C00B24B059A08332360B14B2061A361631D08
:10415C00DA7723002C331D70AE4BAF480833A363C2
:10416C00AE496560A5602573E56324646061E56113
:10417C002562E584258565852586FCF745FFA84BDA
:10418C00A84908336364A069A564E464FCF73CFFA8
:10419C002000F0222900503004F074F92000B822DD
:1041AC00413052002900FF3004F06CF9AC239B0025
:1041BC00E018F022290004F065F9E8239B00E018D0
:1041CC00F022290004F05EF99223DB00E01878223B
:1041DC00290004F057F937600AAB1B7C1F22190029
:1041EC0091431B3A002908D0013A202905D03C32D2
:1041FC009343403B5A425A4101320EA92069226234
:10420C00FFF726FA2069FFF763FAA0230826DE21C0
:10421C001094109A5B00D65249000AAB5B181988AF
:10422C00A123109A5B00D152DF220AA952008918EF
:10423C000A88E024A221109B490064000AA85A5263
:10424C0000190278A320109B40001A52FF23AF27BD
:10425C000025109AE134FF3413531099724A4638F2
:10426C00FF3888521099714ABF008B520A22109B5A
:10427C000C34DD530327109B29001A53FFAC743404
:10428C00FFAB90332071FFA8E580E36025743A0002
:10429C002772883004F0F6F8654BFFA974310B6077
:1042AC000221FFAB7933D977FFAB9C331F70FFAB87
:1042BC00B033E362FFABA433FFA81D702900A561E6
:1042CC00A583E5843A00A83004F0DCF8594BFFAA2A
:1042DC002362FFABB8331F70FFAB7C33DD87FFABC2
:1042EC00BC331F70FFABC433D032FFA81D70290044
:1042FC00A563A587E264C8303A0004F0C3F84E49C0
:10430C000AAA5218158004224C4BFFA82364FFAB59
:10431C00D8331A70FFABDA331D80FFABDC331F7060
:10432C00FFAAFFABE433F0321D702900A565E266ED
:10433C00E8303A0004F0A6F841480AAA1218158091
:10434C000522404B40482366FFABF8331A70FFAB95
:10435C00FA331D80FFABFC331F703C4B68446B443D
:10436C000360A0233A48DB006B441D702900A5674D
:10437C003A00684404F086F8A120364AFFAB783343
:10438C00C000DA676844344B05600AA8C018058081
:10439C000620324B324A6B441870324B0AA96B44DC
:1043AC001D80A323DB006B441F70294B6A445B18F0
:1043BC001360A423DB006B441D70234B0AA81B184D
:1043CC0029003A00180004F05DF8A0230AAADB00CB
:1043DC009B18A2221D60D200234B6A4413601C4A16
:1043EC000AAB9B181D80194B0AAA9B1807221A703E
:1043FC003CE0C04638F0FFFF11020000FFFF000058
:10440C00648D0008240400200005002014A5000879
:10441C00200A002050A50008C80A002038050020FA
:10442C0044A5000844050020B2020000A2030000CD
:10443C00948E0008A08E0008A4040000AC8E000826
:10444C00C4040000B88E0008FC0400000C05000039
:10445C0004050000C48E0008E404000014050000EC
:10446C001C05000016050000D08E0008FD4B0AAAA2
:10447C009B181D80A223DB009B181F70FA4B0AA906
:10448C009B18FA4A0AA852181A60A323DB005B187F
:10449C001D70F74B29001B183A00180003F0F2FFAF
:1044AC00A4230AAADB009B18A1220AA91D60D20032
:1044BC00F04B52181360ED4A0AA88B181D80EE4B76
:1044CC003A005B181E70ED4EED4B76183580A62623
:1044DC00F60076183770EB4E5B1876181E60A72323
:1044EC00DB005B181D70E84B29001B18180003F04B
:1044FC00C9FFA823A5200AAADB009B181D60C000D9
:10450C00E24B801803600920E14BE2499B180AAA90
:10451C005218587115805D745F72DF4ADF4B0AA91F
:10452C000AA852181B183580326129003A0018006D
:10453C0003F0A8FFDA4BD84A73600AAB9B181D80B6
:10454C0092230A215B00D74AE1540AAB9B181D80C9
:10455C0094235B00E754D44B0AAA9B18336398232B
:10456C005B00E554D14B0AA81B18F56129003A00F1
:10457C00180003F087FFCE4BCB4A73620AAB9B1833
:10458C001D80A2230B225B00E2540233E55202335E
:10459C00E754C84B0AAA9B183365A8235B00E55463
:1045AC00C54B0AA81B18F56329003A00180003F044
:1045BC0069FFC24B0C227364AE235B00E5520833D7
:1045CC00E2540233E5520233E754BD4B0AAA9B185E
:1045DC003367B8235B00E554BA4B0AA81B18F56582
:1045EC0029003A00180003F04DFFB74BF5677366CE
:1045FC00BE230D265B00E5520833E6540233B34E5E
:10460C00E5520AAA0233E754B6180433E6500433D1
:10461C00AF4EE5540AABF61829003A00300003F00F
:10462C0031FFCC230E26AB4A5B00E550183BE25021
:10463C001C33E5520833E6540233A74EE5520AAA5E
:10464C000233E754B6180433E6500433E554A34B55
:10465C000AA81B1829003A00180003F013FFDC23EA
:10466C000F269F4A5B00E550183BE2501C33E55285
:10467C000833E6549B480233E5520AAA0233E75446
:10468C0080180433E0500433E554974B0AA81B18E8
:10469C0029003A00180003F0F5FEEC230120934AA0
:1046AC005B00E550183BE2501C33E5520833E054F4
:1046BC000233E0528E4802330AAAE75480180433BE
:1046CC00E0500433E5548B4B0AA81B1829003A0020
:1046DC00180003F0D7FEFC2302210120864A5B0060
:1046EC00E550183BE2501C33E5521833E154834B30
:1046FC000AAAE05282485B18E75480180433E05051
:10470C000433E5547F4B0AA81B1829003A00180003
:10471C0003F0B8FE8A2301207B4A9B00E550183B2E
:10472C00E2501C33E5521833E754784B0AAAE05296
:10473C0077480233E75480180433E0500433E554CF
:10474C00744B0AA81B1829003A00180003F09AFEB3
:10475C00962304210120704A9B00E550183BE2503F
:10476C001C33E5521833E1546C4B0AAAE0526C48E6
:10477C000233E75480185B18E0505B18E554694B22
:10478C000AA81B1829003A00180003F07BFEA2238C
:10479C0005210120644A9B00E550183BE2501C3374
:1047AC00E5521833E154614B6149E0520AAA0233D5
:1047BC00E75489180433E1500433E5545D4B0AA8DF
:1047CC001B1829003A00180003F05CFEAE230620EB
:1047DC00594A9B00E550183BE2501C33E552183304
:1047EC00E0540120554B0AAAE05255480233E754D5
:1047FC0080180433E0500433E554524B0AA81B18BC
:10480C0029003A00180003F03DFEBA2307210120CD
:10481C004D4A9B00E550183BE2501C33E5521833CF
:10482C00E1544A4B0AAAE05249480233E754801833
:10483C000433E0500433E554464B0AA81B182900F6
:10484C003A00180003F01EFEC623434A9B00E550B5
:10485C00183BE250082201201C33E5521833E25475
:10486C007CE0C0460E050000140500002405000085
:10487C001C050000DC8E00082C0500002E05000035
:10488C0034050000440500003C050000E88E0008DB
:10489C00470500004E050000640500005C050000A3
:1048AC00F48E00086E050000840500007C050000F5
:1048BC00008F0008A40500009C0500000C8F000868
:1048CC00C4050000BC050000188F0008E4050000BA
:1048DC00DC050000248F000804060000FC05000025
:1048EC00308F0008240600001C0600003C8F0008D6
:1048FC00440600003C060000488F00081602000029
:10490C00740600006C060000548F0008460200007C
:10491C00A40600009C060000608F000876020000D0
:10492C00D4060000CC0600006C8F0008A602000024
:10493C0004070000FC060000788F0008D602000077
:10494C00340700002C070000848F000806030000C9
:10495C00640700005C070000908F0008F94BFA4ACE
:10496C00E0520AA90233E75452180433E2500433DC
:10497C00E554F64B0AA81B1829003A00180003F05E
:10498C0081FDD2230920F24A9B00E550183BE250EE
:10499C001C33E5521833E0540120EE4B0AAAE052C6
:1049AC00ED480233E75480180433E0500433EB48ED
:1049BC00E5540AAB29003A00C01803F063FDDE236E
:1049CC000A210120E64A9B00E550183BE2501C33BB
:1049DC00E5521833E154E34B0AAAE052E2480233A1
:1049EC00E75480180433E0500433E554DF4B0AA835
:1049FC001B1829003A00180003F044FDEA230B2190
:104A0C000120DB4A9B00E550183BE2501C33E55279
:104A1C001833E154D74BD849E0520AAA0233E75471
:104A2C0089180433E1500433E554D44B0AA81B18FD
:104A3C0029003A00180003F025FDF6230D21012072
:104A4C00CF4A9B00E550183BE2501C33E55218331B
:104A5C00E154CC4BCC49E0520AAA0233E7548918F2
:104A6C000433E1500433E554C84B0AA81B18290041
:104A7C003A00180003F006FD81230E210120C44AE0
:104A8C00DB00E550183BE250C24B0AAAE552C24B80
:104A9C00E154C24BC249E0520233E754C14B89186E
:104AAC00E1500433E554C04B0AA81B1829003A0006
:104ABC00180003F0E7FC85230120BC4ADB00E5501D
:104ACC00183BE250BA4BBB49E552BB4B0AAAE65421
:104ADC00BA4B8918E0520233E754B94B0AA8E1509B
:104AEC000433E554B74B29001B183A00180003F0A7
:104AFC00C9FC8923B44ADB00E550183BE2500C2278
:104B0C00B24BB349E552B34B0AA8E254B24B0AAAD2
:104B1C00E5520233E754B14B8918E1500433E554A4
:104B2C00AF4B29001B183A00180003F0ABFC8D2387
:104B3C000C220120AB49DB00E550183BE150AA4B9D
:104B4C00AA49E254AA4B0AAAE0520233E754A94BF1
:104B5C008918E1500433E554A74BA84E0AA81B183A
:104B6C002900A5533A00180003F08CFC9123A44AA9
:104B7C00DB00E550183BE250DF220120A14B0AA9D3
:104B8C005200E5528A1812880B9606929E4A0C9394
:104B9C001568904A0540059200D022E2FDF7A2F973
:104BAC00069A0AAB994E9A82994B05903360012371
:104BBC00737333008C33186033009648903318604D
:104BCC003300954994331960320033001032983316
:104BDC001A6033009C331D60069B75601B06B56024
:104BEC0035735B0F0422002B09D03A00012B06D041
:104BFC00043206331340063A934200D80132330094
:104C0C00A4331A603300FA22A83352001A6033001E
:104C1C000025AC331D603300B4331D703300B83342
:104C2C001D603300BC331D6033003100C4331D6084
:104C3C007A4BC0310B603300C8331E60FCF7E4F9CB
:104C4C0033003100D0331D60754BCC310B60330019
:104C5C00D4331E60330094331868FCF7D5F9714BCC
:104C6C000AAA9B181D606F4B11AD9B1821002800E0
:104C7C0013AC12931196FBF747FC230006CD06C329
:104C8C00FFA99431200015ADFBF73EFC2B0006CCA0
:104C9C0006C3FFA9B431280017ACFBF735FC230081
:104CAC0006CD06C3FFA9D431200019ADFBF72CFCAF
:104CBC002B0006CC06C3FFA9F43128001BACFBF774
:104CCC0023FC230006CD06C3A221C90069442000A1
:104CDC001DADFBF719FC2B0006CC06C3A1210AABBA
:104CEC00C900C91828001FACFBF70EFC230006CD29
:104CFC0006C3A5210AABC900C918200021ADFBF7DA
:104D0C0003FC2B0006CC06C3A9210AABC900C918A9
:104D1C00280023ACFBF7F8FB230006CD06C3AD211E
:104D2C000AABC900C918200025ADFBF7EDFB2B0021
:104D3C0006CC06C3B1210AABC900C918280027ACA0
:104D4C0072E0C04636030000940700008C07000098
:104D5C009C8F000866030000C4070000BC0700001D
:104D6C00A88F000896030000F4070000EC07000071
:104D7C00B48F0008C6030000240800001C080000C3
:104D8C00C08F0008F6030000540800004C08000017
:104D9C00CC8F00080C040000140400001604000062
:104DAC00740800001C0400006C080000D88F000878
:104DBC002C040000940800003404000036040000A9
:104DCC003C0400008C080000E48F00084C04000038
:104DDC00B408000054040000560400005C040000F9
:104DEC00AC080000188F000874040000D408000000
:104DFC00760400007C040000CC0800006C04000069
:104E0C00F08F00088C0400002004002028040020EF
:104E1C0014900008D80A0020100A0020FC8F00080B
:104E2C0008900008D8080000FBF76EFB230006CDA5
:104E3C0006C3B5210AABC900C918200029ADFBF780
:104E4C0063FB2B0006CC06C3B9210AABC900C918F9
:104E5C0028002BACFBF758FB230006CD06C3BD2165
:104E6C000AABC900C91820002DADFBF74DFB2B0078
:104E7C0006CC06C3C1210AABC900C91828002FAC47
:104E8C00FBF742FB230006CD06C3C5210AABC900C4
:104E9C00C918200031ADFBF737FB2B0006CC06C33D
:104EAC00CB210AABC900C918280033ACFBF72CFB8B
:104EBC00230006CD06C3D1210AABC900C9182000B6
:104ECC0035ADFBF721FB2B0006CC06C3D7210AAB73
:104EDC00C900C918280037ACFBF716FB230006CD18
:104EEC0006C3DD210AABC900C918200039ADFBF798
:104EFC000BFB2B0006CC06C3E3210AABC900C91877
:104F0C0028003BACFBF700FB230006CD06C3E921D0
:104F1C000AABC900C91820003DADFBF7F5FA2B0010
:104F2C0006CC06C3EF210AABC900C91828003FAC58
:104F3C00FBF7EAFA230006CD06C3F5210AABC9003C
:104F4C00C918200041ADFBF7DFFA2B0006CC06C3D5
:104F5C00FB210AABC900C918280043ACFBF7D4FAF3
:104F6C00230006CD06C3F2490AABC918200045AD93
:104F7C00FBF7CAFA2B0006CC06C3EE490AABC918DC
:104F8C00280047ACFBF7C0FA230006CD06C3EA495C
:104F9C000AABC918200049ADFBF7B6FA2B0006CCBA
:104FAC0006C3E6490AABC91828004BACFBF7ACFAB0
:104FBC00230006CD06C3E2490AABC9182000FBF753
:104FCC00A3FA4DA8030006CC06C3DE490AABC918E8
:104FDC00FBF79AFA0FA90598FEF73AFB0122DA4B78
:104FEC001A6000230121D94A8FAC8F92D84AA36052
:104FFC006260D84AE360106823746374E361E3620F
:10500C00E363E364E365D44B084204D1D3481160F5
:10501C001860082058600822D14F0025B969ABAE42
:10502C000A430F21BA61186842688A4311000422AE
:10503C000A4342606366AAAB1D70CA4B0AAA9B184E
:10504C0090A81D70A566FCF7BBF90121C64BC74A99
:10505C00AB931068C64BB5607360F56035747574AE
:10506C00F561F562F563F564F5650597C14B08428A
:10507C0004D1BA481160186009205860059A0025BF
:10508C00916908220A430599BB4F8A61F02118687F
:10509C0042688A43110040220A4342607366C6ABE1
:1050AC001D70B64B0AAA9B18ACA8B5661D70FCF710
:1050BC0087F9B34AFFABFF92B24AFFA85A60FFAA26
:1050CC0068321570FFAA69329D60DD601D74DD6168
:1050DC00DD62DD63DD64DD65043015701E675D66C1
:1050EC00DC66FCF76DF9109BA7494133FF3306933F
:1050FC000AABFF18A54BA64808333B600AABC9188E
:10510C00C0187D60BD603D733D617D613D76FBF7F0
:10511C00CEFF01229F4BA0491B68A04E134274D1B5
:10512C009F48A04B0568154204D19F4D02601D603D
:10513C000C255D60059A90691022024305988261E6
:10514C001A689A4B5068184080239B020343012035
:10515C005360974A974B1568054204D1964D1060E1
:10516C001D6002255D60059A906920220243059816
:10517C0082611A68914B1068184080239B0003438E
:10518C00136001228E4B1868104205D18D48734D67
:10519C001A60056003254560059B0AAD9A690823D2
:1051AC001343059A93610122864B18689C46059B14
:1051BC009B691343059A936180234A689B04324090
:1051CC0013434B600268804B1A4080239B011343AE
:1051DC0003607E487E4B08301860724800221861CC
:1051EC0074485A605861604698615C489A60D8610E
:1051FC0067481A734019186276485A735862764891
:10520C0098621A63634B01321A600120734A744B23
:10521C001568054204D1514D10601D6004255D6078
:10522C00059A906908220243059882611868059BCB
:10523C00059D9A6901231A43AA6180224D68920444
:10524C0035402A434A600168584A11408022920234
:10525C000A43644902600868634A184204D13F4813
:10526C000B60106005205060059B996908230B4367
:10527C0005998B6111685D4A0B681A4080239B036A
:10528C0013430B6001215A4B5A4A1868084204D147
:10529C0032481960106006205060059B99690823FC
:1052AC000B4305998B6180231068534902689B045A
:1052BC000A40134303600120504B0D911968504A6A
:1052CC00014204D125491860116007215160059BEA
:1052DC003F4D996908230B43059928008B61802168
:1052EC001268890513681B011B090B431360FCF73B
:1052FC0073FA2B7B002B00D094E001332B73414BC2
:10530C00DA686A60002A00D095609A68DD60002A2D
:10531C0000D19D600A225A613B4B093A19689143AE
:10532C0019603A49596000219960186870E0C046CC
:10533C000808000038080000580800007808000031
:10534C0098080000B80800002004002020900008F5
:10535C00409000083001002034010020000C014076
:10536C0000100240810200004C9000082401002033
:10537C006C90000828010020D8080000F102000001
:10538C0078900008989000084109000020A50008BA
:10539C00F1080000B000002000000140FFFFFFF802
:1053AC00000100200401002000100140FFFFF0FF6D
:1053BC00F4000020F800002000140140FFF0FFFF73
:1053CC00E8000020EC000020FF0FFFFF38A50008CC
:1053DC00B400002010950008109D0008A4000020C7
:1053EC00A8000020980000209C000020FFFF0FFF69
:1053FC008C00002090000020FFFFFFF080000020B8
:10540C0084000020E00A002010E000E01F1C0000D7
:10541C0004310143196002211868014319601968AD
:10542C000A431A60ABAB7B67FFABBB6775ABFB6723
:10543C00FE4B0AAA9B18069A0AA91A60FC4B0AAAE8
:10544C009B18FC4A4FA852181360962300221B018C
:10545C005B181A60F84B53A95693F84BFD663C67E2
:10546C0053975593FDF7D0F8F54B5DA96093F54B29
:10547C0057A85D975F93FDF7C7F8F34B69AE699733
:10548C00F360F24B310063A8B360FDF7BDF8F04B4D
:10549C00C7ADE693EF4BE3A92800E397E593FDF73F
:1054AC00B3F8ED4B0AAA9B184FA91800FDF7ACF8FE
:1054BC00EA480AAB57A9C018FDF7A6F8E8480AABAA
:1054CC0063A9C018FDF7A0F8E64B0AAA9B1829009F
:1054DC001800FDF799F82800FBF71FFFE3A8FBF76E
:1054EC001CFF63A8FBF719FF3000FBF716FF57A84A
:1054FC00FBF713FF5DA8FBF710FF4FA8FBF70DFFA1
:10550C0053A8FBF70AFFD84B6997F360D74B3100D0
:10551C0063A8B360FDF778F8D54BE3A9E693D54BB8
:10552C002800E397E593FDF798F8FB6F0AAA203360
:10553C000693BE4BBE499B181C68CF4B89180B6059
:10554C00CE4BCF49CF489B1889181960801863A996
:10555C00FDF75AF8CC480AAB2900C018FDF77DF8C6
:10556C00CA4B0AAA06999B1819609D2123000901B0
:10557C0089180A330B60C649043389180B60C54B74
:10558C0012349B181C602800FBF7C7FEE3A8FBF73E
:10559C00C4FE63A8FBF7C1FE3000FBF7BEFEAE4BAA
:1055AC000AAA9B181900E3A8FDF73EF8BA4B57A9B5
:1055BC005A93BA4B53A857975993FDF74EF80623B5
:1055CC005D93B74B0A245E93B64B09216293B64B9D
:1055DC00C7946193B54B63A86493B54B5F9768937D
:1055EC00B44B639167930C236993B34B65977360CA
:1055FC00B24B6B977361B24B0AA93361B14B0AACD6
:10560C006B60B14B6B61B14B2B61039502960190B2
:10561C005DA80090E3A80200994853AB4018010024
:10562C00AB480019FEF7EAF8C9A8FBF776FE6BA8A1
:10563C00FBF773FE65A8FBF770FE5FA8FBF76DFE2A
:10564C0053A8FBF76AFE57A8FBF767FEE3A8FCF725
:10565C0041F981480AABC0180100E3A8FCF7E4FF4C
:10566C009C4B5DA960939C4B57A85D975F93FCF78F
:10567C00F4FF0F23C7936393984B12216B60984BE5
:10568C00984A6B61984B64922B61E223974A69911B
:10569C006892974A5B006792964A79487260964A7C
:1056AC0065977261954A3261954AFA500AAA801838
:1056BC000433F850E3A8010092488018FCF7B4FFBB
:1056CC0057A8010090480AABC018FCF7C6FF63A8A6
:1056DC0001008E480AABC018FEF788F88C480AAB5C
:1056EC003100C018FEF782F88A480AAB2900C018AE
:1056FC00FEF77CF8992300229B00FA500433FA50F1
:10570C00C9A8FBF70AFE6BA8FBF707FE65A8FBF719
:10571C0004FE57A8FBF701FE5DA8FBF7FEFDE3A80E
:10572C00FCF7D8F84F480AABC01801003000FCF762
:10573C006BFF310063A8FCF767FF774BE3A8E69398
:10574C00764B01002800E397E593FCF786FF37487A
:10575C000AABC0189B23724A04689B004848FA5055
:10576C000AAA80180433F85063A801006D48801809
:10577C00FCF74AFF6C480AAB2900C018FCF76DFF18
:10578C002000A52318309B00F85012340433FC5031
:10579C002800FBF7C2FDE3A8FBF7BFFD63A8FBF7EE
:1057AC00BCFD3000FBF7B9FD2B480AABC01801005B
:1057BC00E3A8FCF739FF5D4B63A866935C4B0100D3
:1057CC005DA863976593FCF748FF1221594B6991CB
:1057DC007360594B6B977361584BC7913361584B3E
:1057EC00584A6B60584BC9976B61584B24482B61D6
:1057FC00A7239B00FA500AAA80180433F850544887
:10580C00E3A98018FCF710FF52480AAB5DA9C01839
:10581C00FCF723FF50480AAB3100C018FDF7E6FF38
:10582C004E480AAB2900C0189AE0C046580900003F
:10583C00A40900005C0900002F3C000829050008A1
:10584C00673C00083F0500089F3C00085505000810
:10585C00BF3B00086B0500086409000074090000D8
:10586C008409000094090000F73B0008810500083A
:10587C00390C000897050008908D0008A809000055
:10588C00E8080000AC090000BC090000CC090000CD
:10589C00D4090000D8090000490C0008AD05000827
:1058AC005CA50008590C0008C305000863A5000896
:1058BC006B0C0008D90500086DA500087D0C0008CC
:1058CC00EF0500087AA50008050600080706000881
:1058DC00DC0900008F0C000811060008A8A50008C0
:1058EC00CD10000885A50008470600089F0C00088D
:1058FC002706000895A50008CB1000083D060008F7
:10590C00E08D0008A40A0000E40A0000F40A00007C
:10591C000C0B0000240B0000B10C00085106000811
:10592C00A48D00084C0B00005C0B0000C30C00089D
:10593C0067060008B8A50008D30C00087D0600080F
:10594C00CBA50008F48D0008C30E000893060008D0
:10595C007C0B0000BC0B0000CC0B0000E40B000027
:10596C00FDF744FFC92300229B00FA500433FA5080
:10597C00C9A8FBF7D2FC6BA8FBF7CFFC5DA8FBF723
:10598C00CCFC63A8FBF7C9FCE3A8FBF7A3FFFD481D
:10599C000AABC0180100E3A8FCF746FEFA4BC79708
:1059AC00EB60FA4B29003000AB60FCF756FEF84870
:1059BC000AABC018CB23F74A04689B00F648FA5090
:1059CC000AAA80180433F850F448E3A98018FCF7AD
:1059DC002BFEF3480AAB3100C018FCF73EFE20004A
:1059EC00E123002290309B00F85012340433FC5019
:1059FC000433FA503000FBF790FC2800FBF78DFCC9
:105A0C00E3A8FBF767FFDF480AABC0180100E3A867
:105A1C00FCF70AFEE34B57A95A93E34B53A857974D
:105A2C005993FCF71AFE11235D93E04B0A245E9305
:105A3C00DF4BE04A6293E04B72606193DF4BE04ACC
:105A4C006493E04B6B976893DF4B639467930E23DF
:105A5C006993C793DD4B72616B60DD4BC997DD4A6F
:105A6C006B61DD4B63AC32612B61659703950296DC
:105A7C0001945DAC009453AC2300E3AC2200C64C03
:105A8C000AA96418D54821000AAC0019FDF7B6FE26
:105A9C00C9A8FBF742FC6BA8FBF73FFC65A8FBF71A
:105AAC003CFC5FA8FBF739FC53A8FBF736FC57A866
:105ABC00FBF733FCB34CE3A8FBF70CFF0AABE41881
:105ACC002100E3A8FCF7B0FDC54B53AC5693C54B76
