:020000040800F2
:100000000050002029C0000871C0000871C000081D
:1000100071C0000871C0000871C000080000000035
:1000200000000000000000000000000071C0000897
:1000300071C000080000000071C000084D300008C9
:100040009F360008A1360008A3360008A536000830
:10005000A7360008A9360008AD360008C9360008E2
:10006000E5360008013700081D370008A1380008F0
:10007000BD380008D9380008F538000811390008E3
:100080002D39000849390008393700083B37000886
:100090003D3700083F370008413700084537000862
:1000A000B1370008B3370008B5370008B737000884
:1000B000B9370008BB370008BD370008BF37000854
:1000C000C1370008C3370008C5370008C737000824
:1000D000C93700084D38000869380008853800081D
:1000E000CD370008493800084B38000800000000F0
:1000F0000000000000000000000000000000000000
:0C01000000000000000000005FF808F1A3
:10010C000448054B10B5834203D0044B002B00D0A0
:10011C00984710BD68000020680000200000000017
:10012C0006480749091A8B10C90FC91810B5491090
:10013C0003D0044B002B00D0984710BD6800002062
:10014C00680000200000000010B5074C2378002B3D
:10015C0009D1FFF7D5FF054B002B02D00448AFF3B4
:10016C0000800123237010BD6800002000000000F7
:10017C000CC20008054B10B5002B03D004490548F0
:10018C00AFF30080FFF7CCFF10BDC04600000000AD
:10019C006C0000200CC2000810B5062000F0ACFA70
:1001AC00012001F00DFAC04670B5064C0500002088
:1001BC00002C05D0130002300A00290000F052FB7D
:1001CC0070BDC0467108000870B50C4D0C4E761B06
:1001DC00B61005D0002408CD01349847A642FAD1B8
:1001EC000CF00EF8074D084E761BB61005D0002407
:1001FC0008CD01349847A642FAD170BDB8E000088A
:10020C00B8E00008B8E00008C0E0000810B5034BE7
:10021C000100186800F06AF910BDC0460400002007
:10022C0010B5034B0100186800F00AF910BDC04668
:10023C0004000020F0B5C64600B50F2A43D90B00C8
:10024C00032603431E400C000300002E40D1150072
:10025C00103D2D09AC462D01A846804400E03B0022
:10026C00676825685F60E7681D60DF601F00A56830
:10027C0010379D6010344345F1D165460F230C2493
:10028C0001352D01491913404519144223D08C59BD
:10029C00AC5104369C1B032CF9D80324043B9B085B
:1002AC0001339B002240ED18C918561E002A07D0B6
:1002BC00002300E02300CA5C5C1CEA549E42F9D186
:1002CC0004BC9046F0BD0500561E002AF0D1F7E79D
:1002DC00561E0500ECE71A00F6E7C046F0B5C64618
:1002EC0000B588420CD98B18984209D2531E002AAB
:1002FC0003D0CA5CC254013BFBD204BC9046F0BD97
:10030C000F2A0CD80500561E002AF6D0002300E058
:10031C002300CA5C5C1CEA549E42F9D1EDE70B0049
:10032C00032603431E400C000300002E2ED11500A3
:10033C00103D2D09AC462D01A846804400E02B0051
:10034C001D00276810351F6067685F60A7689F6095
:10035C00E7681034DF604345F1D165460F230C2468
:10036C0001352D01491913404519144211D08C59EE
:10037C00AC5104369C1B032CF9D80324043B9B087A
:10038C0001339B00ED18C9182240BCE7561E05002E
:10039C00BCE71A00B7E7C046F0B5050083074AD0A2
:1003AC00541E002A44D0CEB20300032202E00135D1
:1003BC00013C3DD301332E701342F8D1032C2FD9BD
:1003CC00FF220A40150215432A0415430F2C35D978
:1003DC002700103F3F093E01B4461E001A0010369C
:1003EC006644156055609560D5601032B242F8D104
:1003FC000F260C2201373F012640DB193700224221
:10040C0017D03E1FB608B400A4461A001C1D644445
:10041C0020C2A242FCD103240136B6009B193C40F9
:10042C00002C05D0C9B21C19197001339C42FBD1A8
:10043C00F0BD3400F4E714000300BFE72700E0E749
:10044C0070B50500002915D00C1F2368002B27DB85
:10045C00280000F075FA244B1A68002A05D0A24235
:10046C000CD921686018824224D0626028001C607C
:10047C0000F068FA70BDA34203D81A005368002B31
:10048C00F9D111685018A0421BD027D821686018E8
:10049C00834207D063605460280000F053FAE9E708
:1004AC00E418D5E718685B68844661442160636092
:1004BC005460F1E7106852688446614421606260C0
:1004CC00D4E720680918501811608342E4D11868E9
:1004DC005B688446614411605360DDE70C2328009F
:1004EC002B6000F02FFAC5E784000020F8B5032339
:1004FC00CD1C9D43083506000C2D2AD20C25A94293
:10050C0029D8300000F01CFA2A4F3A68002A0AD089
:10051C0013685B1B04D441E023685B1B1FD52200CE
:10052C005468002CF8D17B68002B3DD0290030009A
:10053C0000F042F8431C2AD00323C41C9C43A04265
:10054C0005D0211A300000F037F8431C1FD025606D
:10055C0010E0002DD3DA0C2300203360F8BD0B2BF8
:10056C0005D86368A2421DD0536003E014002360D9
:10057C00E4182560300000F0E5F9200007220B306C
:10058C00231D9043C21AE9D01B1AA350E6E70C2393
:10059C003000336000F0D6F90020DFE70B2BE5D8F4
:1005AC00140053683B60E5E70021300000F004F8CC
:1005BC007860BBE784000020002370B5064C050072
:1005CC000800236000F0EEFF431C00D070BD2368D0
:1005DC00002BFBD02B60F9E7F409002010B580212B
:1005EC000400FFF783FF6064002807D0020000239B
:1005FC00803208C09042FCD1002010BD0120404246
:10060C00FBE7C046426C10B50023002A01D018004D
:10061C0010BDFFF7E3FF0300F9E7C04670B5050016
:10062C000C0016001F2907D8436C002B09D0A4001E
:10063C001B1918681E6070BD162303600120404210
:10064C00F9E7FFF7CBFF002801D16B6CEFE7012036
:10065C004042F0E770B505000C001F2920D8436C10
:10066C00002B0ED08A009B181A68002A09D0012A88
:10067C0014D0511C0ED0002120001960904700208E
:10068C0070BD280000F07AF822000100280000F06C
:10069C0061F8F5E7162303600120F1E70020EFE78E
:1006AC001623036001204042EAE7C04670B50500FE
:1006BC000C001F291DD8436C002B10D0A2009B18D6
:1006CC001A68002A09D0511C11D0012A0DD0002122
:1006DC00200019609047002070BD0120FCE7FFF757
:1006EC007DFF002805D16B6CE8E70320F4E70220BE
:1006FC00F2E701204042EFE710B5034B0100186808
:10070C00FFF7A8FF10BDC0460400002010B5044B35
:10071C000A001B6801001800FFF780FF10BDC046DF
:10072C0004000020054B10B51B6800205A6C002AF1
:10073C0000D010BD1800FFF751FFFAE704000020AD
:10074C0010B5034B01001868FFF7B0FF10BDC04691
:10075C0004000020002370B5074C050008001100B0
:10076C00236000F017FF431C00D070BD2368002BE2
:10077C00FBD02B60F9E7C046F409002010B500F05F
:10078C0001FF10BD0CB400B59DB002910691094952
:10079C001EAB07910491084904CB059102A9019362
:1007AC0000F0C4F90023029A13701DB008BC02B00B
:1007BC001847C046FFFFFF7F0802FFFF0EB400B5CD
:1007CC000B499CB0079104910A491DAB05910A494C
:1007DC0004CB02900690086802A9019300F0A6F9D8
:1007EC000023029A13701CB008BC03B01847C04613
:1007FC00FFFFFF7F0802FFFF0400002010B58307F6
:10080C0027D00378002B26D00300032102E01A78AE
:10081C00002A1CD001330B42F9D119680F4A104C35
:10082C008A188A4322420FD1043319680B4A8A185A
:10083C008A43224208D104331968084A8A188A4329
:10084C002242F1D000E001331A78002AFBD1181AA9
:10085C0010BD0300E1E70020FAE7C046FFFEFEFEF4
:10086C0080808080F0B546464F46D646C0B51F0006
:10087C002F4B82B01C6805000E009046002C2DD02A
:10088C0063681F2B50DC002D1CD08822A058914689
:10089C00002834D07832825894469A00914681448C
:1008AC00424649460A600121624699400A439446F1
:1008BC0080228A466146520081504946803A8F50C8
:1008CC00022D16D000205A1C02339B0062601E5170
:1008DC0002B01CBC90469946A246F0BD154C1C605B
:1008EC00154B002BCCD01B6801938823019AE25046
:1008FC00C6E75546843281580D438550E2E70F4BCD
:10090C00002B11D084204000FFF780FC00280BD076
:10091C008022002352008350043283504B46002225
:10092C00E05094466368B8E701204042D0E7C046E7
:10093C00200200209401002024C2000819020008A3
:10094C007047C0467047C046F0B546464F46D6463F
:10095C00C0B58E6881460C0090461D0008689E420A
:10096C0039D890228B89D200134211D135002A003C
:10097C004146FFF7B3FCA36800209E1B2368A660CA
:10098C009C46654425601CBC90469946A246F0BD29
:10099C000969421A92466269681C5700BF18FA0F1F
:1009AC00D7197F1050443A00B84201D90700020011
:1009BC005B0512D511004846FFF798FD061E1FD0A7
:1009CC0052462169FFF736FCA389124A1340802254
:1009DC001343A38106E01E00C9E7484600F020FC43
:1009EC00061E09D03000534650446761FF1A266139
:1009FC0020602E00A760BAE721694846FFF720FD6A
:100A0C000C234A46136040220120A3894042134321
:100A1C00A381B8E77FFBFFFFF0B54E464546DE46A7
:100A2C005746E0B5936883B001900D009146002BBA
:100A3C006BD0176808688C6844E09022AB89D200B0
:100A4C0013422ED02969421A934668694200121843
:100A5C00D00F8218701C521058449046904201D905
:100A6C00804602008020C000034237D0110001985C
:100A7C00FFF73CFD041E53D05A462969FFF7DAFBF9
:100A8C00AB89294A134080221343AB814346200093
:100A9C005A462C61B046340058446B619B1A28604E
:100AAC00AB6042465146FFF719FCAB681C1B2B6828
:100ABC00AC6043442B6018004B469B689E1B4B4616
:100ACC009E6022D03B687E689A460837A046002E6E
:100ADC00F8D0A642B1D23400B046E2E7019800F05B
:100AEC009FFB041ED2D1019C29692000FFF7A8FCB2
:100AFC000C2323604022AB8901201343AB814A466F
:100B0C00002340429360536003E000234A460020D8
:100B1C00536003B03CBC90469946A246AB46F0BD30
:100B2C000C23019A1360E5E77FFBFFFFF0B54E46FF
:100B3C00DE4657464546E0B5A1B0049003911C0033
:100B4C008B8991461B0604D50B690593002B00D1AC
:100B5C0019E1002308AD6B6120336B761033AB7653
:100B6C002F3B98464B461B780794924F002B00D195
:100B7C0086E0252B00D104E14E4603E0252B00D165
:100B8C008BE026007378741C002BF7D14B46E31ACC
:100B9C009A4675D053464A4603990498FFF7D4FEFB
:100BAC00431C6DD06B6953446B617378002B67D019
:100BBC000122002352426A60443201342B60EB6004
:100BCC00AB60AB54AB6506E04346C01B83403400BE
:100BDC002A6813432B6021780522380000F0E0FAD4
:100BEC00661C0028F0D12B68B246DA0602D54322E7
:100BFC002021A9541A0702D543222B21A95421786C
:100C0C002A2950D1079A111D12680791002A00DA7F
:100C1C009AE0EA606178A61C2E295CD0664B032210
:100C2C001800994600F0BCFA002800D171E04B4640
:100C3C00C01A402383402A68317813432B60062264
:100C4C00731C5E489946297600F0AAFA00286AD0EF
:100C5C005B4B002B00D170E007AB0093039A594B10
:100C6C0029000498AFF3008083465B46013307D01C
:100C7C006B695B446B614B461B78002B00D078E7AB
:100C8C00039B9B895B0600D58CE0686921B03CBC5A
:100C9C0090469946A246AB46F0BD4B46E31A9A469F
:100CAC0000D185E776E70A00303AA246092AB3D884
:100CBC00EB68180001E03400013683001B18317812
:100CCC005B0098180A00303A092AF4D9B246E86059
:100CDC00A61C2E29A2D1534659782A293AD1079B12
:100CEC001A1D079252469178D61C022294461B6814
:100CFC00E2446B60002B00DB90E701235B426B60EE
:100D0C002D4B03221800994600F04AFA002800D017
:100D1C008DE7B1465646317806222848297600F0F0
:100D2C003FFA002894D107AB0093039A254B290076
:100D3C00049800F0E1F8834697E70722079B0733F6
:100D4C0093430833079393E75242EA60022213431A
:100D5C002B605FE70A000023303A6B601800092A09
:100D6C0001D91CE01E0083001B1871785B009818D9
:100D7C000A00303A731C092AF4D99A460236686084
:100D8C004CE74C4614E74021FFF7B0FB039B18607F
:100D9C001861002809D04023039A5361D9E6B24662
:100DAC0001363BE70120404270E70C23049A0138DE
:100DBC0013606BE77CE0000884E0000888E0000822
:100DCC000000000055090008F0B54F464646D646CF
:100DDC00C0B51F00089B914698468A680B690600AF
:100DEC000C00934200DA13004A4613604322A25CC3
:100DFC00002A02D04A460133136023689A065AD55A
:100E0C004B461B6806209A1C4B461A602368190037
:100E1C00184208D1E16800258A1A19218A4619005E
:100E2C00A244002A3FDC4323E35C5A1E93418A060A
:100E3C000AD53020E1184331087045215A1C615CF9
:100E4C00A2184332023311702200390043323000B1
:100E5C00C047431C19D006232068A26821690340AF
:100E6C00042B30D08A423ADD00239946521A914421
:100E7C001A34002502E001354D4530DA01232200F9
:100E8C0039003000C047431CF5D1012040421CBC46
:100E9C0090469946A246F0BD4B46E2681B68013568
:100EAC00D31AAB4220DD0123524639003000C04733
:100EBC00431CF1D1E9E706221A4212D04323E35C2A
:100ECC005A1E9341C0E74B46E0681B68C31AD843CF
:100EDC00C017184081468A42C8DC002BC8DC0020B1
:100EEC00D5E74A46126895E743232168E35C5A1E0E
:100EFC0093418A069DD4A7E7F0B557469A464323FB
:100F0C009C464E464546DE468C446346E0B587B06B
:100F1C0003930B7E914680460C00109A6E2B00D1E9
:100F2C00D8E000D871E0732B00D11AE100D881E031
:100F3C00752B00D1FFE0782B00D00BE10B687820EB
:100F4C004521605494498B46116840C911601806BC
:100F5C0003D4580601D53604360CDA0702D5202204
:100F6C00134323601027002E00D1C2E0432300223C
:100F7C00E2546368A360002B00DAC5E00422216808
:100F8C0091432160002E00D083E0002B00D0BDE007
:100F9C00039D082F00D18CE0039B5B1B2361534600
:100FAC0005AA009321004B464046FFF70DFF431C5A
:100FBC0022D023692A0049464046D047431C1BD007
:100FCC0022680598E368920700D47FE01A1A002A79
:100FDC0000DC7BE026000025193606E0E368059866
:100FEC0001351A1AAA4200DC70E00123320049468E
:100FFC004046D047431CF1D10120404207B03CBCD5
:10100C0090469946A246AB46F0BD632B00D184E0D6
:10101C001FD8002B69D0582B00D09BE0452163547E
:10102C005E4923688B46116840C91160180600D4CC
:10103C008FE792E76F2B7ED0702B00D08AE02023B5
:10104C00096878200B4345212360605452498B4634
:10105C007AE7642B01D0692B7CD111682368081DB9
:10106C0010601D064AD50A681600002A03DB4B4B9C
:10107C000A279B467DE743222D21A15462687642C4
:10108C00A260002A02DB042293432360434B0A270D
:10109C009B46039D00E006003900300000F082F909
:1010AC005B465B5C013D2B70BE42F4D2082F00D036
:1010BC0072E72368DB0700D46EE76368226993420A
:1010CC0000DD69E73023013D2B7065E7984295DA26
:1010DC00180093E7136809681D1D606915601B688B
:1010EC000E0601D449064BD418600023039D2361DE
:1010FC0055E7202322689A43226037E75D06B2D574
:10110C0000228E5E3200B0E7002EC2D15B46250075
:10111C001A7842234235E2543BE713682500191D27
:10112C0011601A684223E254413B42352361432348
:10113C000022E25433E7116820680D1D1560060685
:10114C0001D440061ED40E686F2B1DD0134B0A27FA
:10115C009B460BE742222500A35401234235236111
:10116C00E5E71368191D11601D68626800212800ED
:10117C0000F016F800280BD0401B60602061D6E709
:10118C001880B2E70E88DFE7044B08279B46EDE694
:10119C0060682061CBE7C046A4E0000890E000083E
:1011AC0070B5CDB2830734D0531E002A1BD0027801
:1011BC00AA4219D0032404E0013B14D30278AA42BA
:1011CC0012D001302042F7D1032B0ED8002B0AD0BD
:1011DC000278AA4208D0C31802E00278AA4203D0CF
:1011EC0001308342F9D1002070BDFF220C06240C83
:1011FC00114021430C04084E0C430268074962401D
:10120C00511891433142E3D1043B0430032BF4D801
:10121C00DCE71300D8E7C04680808080FFFEFEFE2E
:10122C00F8B507000C00150000291BD0002A15D0BA
:10123C0000F01EF82600A84201D33000F8BD2900AA
:10124C003800FFF753F9061EF7D021002A00FEF7ED
:10125C00F1FF21003800FFF7F3F8EEE7FFF7F0F8A5
:10126C000026EAE71100FFF741F90600E5E7C04662
:10127C000B1F1B68181F002B00DB70470B58C01886
:10128C00FBE7C04602B4714649084900095C4900B5
:10129C008E4402BC7047C046002243088B4274D374
:1012AC0003098B425FD3030A8B4244D3030B8B425B
:1012BC0028D3030C8B420DD3FF22090212BA030C64
:1012CC008B4202D31212090265D0030B8B4219D345
:1012DC0000E0090AC30B8B4201D3CB03C01A524165
:1012EC00830B8B4201D38B03C01A5241430B8B42AD
:1012FC0001D34B03C01A5241030B8B4201D30B0396
:10130C00C01A5241C30A8B4201D3CB02C01A5241BC
:10131C00830A8B4201D38B02C01A5241430A8B427F
:10132C0001D34B02C01A5241030A8B4201D30B0268
:10133C00C01A5241CDD2C3098B4201D3CB01C01A82
:10134C00524183098B4201D38B01C01A524143098C
:10135C008B4201D34B01C01A524103098B4201D37A
:10136C000B01C01A5241C3088B4201D3CB00C01AE7
:10137C00524183088B4201D38B00C01A524143085F
:10138C008B4201D34B00C01A5241411A00D2014684
:10139C00524110467047FFE701B5002000F0F0F80D
:1013AC0002BDC0460029F7D076E7704703460B43D1
:1013BC007FD4002243088B4274D303098B425FD342
:1013CC00030A8B4244D3030B8B4228D3030C8B426E
:1013DC000DD3FF22090212BA030C8B4202D3121254
:1013EC00090265D0030B8B4219D300E0090AC30B29
:1013FC008B4201D3CB03C01A5241830B8B4201D3D6
:10140C008B03C01A5241430B8B4201D34B03C01ABE
:10141C005241030B8B4201D30B03C01A5241C30A36
:10142C008B4201D3CB02C01A5241830A8B4201D3A7
:10143C008B02C01A5241430A8B4201D34B02C01A91
:10144C005241030A8B4201D30B02C01A5241CDD236
:10145C00C3098B4201D3CB01C01A524183098B4281
:10146C0001D38B01C01A524143098B4201D34B016A
:10147C00C01A524103098B4201D30B01C01A5241CD
:10148C00C3088B4201D3CB00C01A524183088B4254
:10149C0001D38B00C01A524143088B4201D34B003D
:1014AC00C01A5241411A00D20146524110467047AF
:1014BC005DE0CA0F00D04942031000D340425340B4
:1014CC0000229C4603098B422DD3030A8B4212D374
:1014DC00FC22890112BA030A8B420CD389019211A6
:1014EC008B4208D3890192118B4204D389013AD0E3
:1014FC00921100E08909C3098B4201D3CB01C01AB8
:10150C00524183098B4201D38B01C01A52414309CA
:10151C008B4201D34B01C01A524103098B4201D3B8
:10152C000B01C01A5241C3088B4201D3CB00C01A25
:10153C00524183088B4201D38B00C01A5241D9D23D
:10154C0043088B4201D34B00C01A5241411A00D2BE
:10155C000146634652415B10104601D34042002BBA
:10156C0000D54942704763465B1000D3404201B539
:10157C00002000F005F802BD0029F8D016E77047EE
:10158C007047C04658220120014B40421A607047F8
:10159C00F409002058220120014B40421A60704788
:1015AC00F4090020044A1368002B03D018181060AB
:1015BC0018007047014BF9E724020020F8090020BD
:1015CC00FEE7C0461F22430910401E3A82400249E2
:1015DC009B005A507047C04600E100E0436901335C
:1015EC0043617047704770477047704710B5836907
:1015FC001C7800231A009C4206DD0169C95C9940E5
:10160C000A4392B20133F6E743691A8010BD022AED
:10161C0006D0032A02D0012A00D1016000207047B5
:10162C000B680360FAE7022A06D0032A02D0012ACB
:10163C0000D10160002070470B680360FAE7022AB2
:10164C0006D0032A02D0012A00D101600020704785
:10165C000B680360FAE7022A06D0032A02D0012A9B
:10166C0000D10160002070470B680360FAE7022A82
:10167C0006D0032A02D0012A00D101600020704755
:10168C000B680360FAE7022A06D0032A02D0012A6B
:10169C0000D10160002070470B680360FAE7022A52
:1016AC0006D0032A02D0012A00D101600020704725
:1016BC000B680360FAE7022A06D0032A02D0012A3B
:1016CC0000D10160002070470B680360FAE7022A22
:1016DC0006D0032A02D0012A00D1016000207047F5
:1016EC000B680360FAE7022A06D0032A02D0012A0B
:1016FC0000D10160002070470B680360FAE7022AF2
:10170C0006D0032A02D0012A00D1016000207047C4
:10171C000B680360FAE7022A06D0032A02D0012ADA
:10172C0000D10160002070470B680360FAE7022AC1
:10173C0006D0032A02D0012A00D101600020704794
:10174C000B680360FAE7022A06D0032A02D0012AAA
:10175C0000D10160002070470CC90CC0FAE7022AC6
:10176C0006D0032A02D0012A00D101600020704764
:10177C000CC90CC0FAE70268406810B503685C1C21
:10178C009B00D3180460196110BD022A06D0032AED
:10179C0002D0012A00D10160002070470B68036061
:1017AC00FAE7022A06D0032A02D0012A00D10160EE
:1017BC00002070470B680360FAE7022A06D0032A60
:1017CC0002D0012A00D10160002070470B68036031
:1017DC00FAE7022A06D0032A02D0012A00D10160BE
:1017EC00002070470B680360FAE7022A06D0032A30
:1017FC0002D0012A00D10160002070470B68036001
:10180C00FAE7022A06D0032A02D0012A00D101608D
:10181C00002070470B680360FAE7022A06D0032AFF
:10182C0002D0012A00D10160002070470B680360D0
:10183C00FAE7022A06D0032A02D0012A00D101605D
:10184C00002070470B680360FAE7022A06D0032ACF
:10185C0002D0012A00D10160002070470B680360A0
:10186C00FAE7022A06D0032A02D0012A00D101602D
:10187C00002070470B680360FAE7022A06D0032A9F
:10188C0002D0012A00D10160002070470B68036070
:10189C00FAE7022A06D0032A02D0012A00D10160FD
:1018AC00002070470B680360FAE7022A06D0032A6F
:1018BC0002D0012A00D10160002070470B68036040
:1018CC00FAE7022A06D0032A02D0012A00D10160CD
:1018DC00002070470B680360FAE7022A06D0032A3F
:1018EC0002D0012A00D10160002070470B68036010
:1018FC00FAE77047012A00D1016000207047012AE5
:10190C0000D1016000207047022A06D0032A02D0C1
:10191C00012A00D10160002070470B680360FAE7D0
:10192C00022A06D0032A02D0012A00D1016000202D
:10193C0070470B680360FAE7022A06D0032A02D02C
:10194C00012A00D10160002070470B680360FAE7A0
:10195C00022A06D0032A02D0012A00D101600020FD
:10196C0070470B680360FAE7022A06D0032A02D0FC
:10197C00012A00D10160002070470B680360FAE770
:10198C00022A06D0032A02D0012A00D101600020CD
:10199C0070470B680360FAE7022A06D0032A02D0CC
:1019AC00012A00D10160002070470B680360FAE740
:1019BC00022A06D0032A02D0012A00D1016000209D
:1019CC0070470B680360FAE7022A06D0032A02D09C
:1019DC00012A00D10160002070470B680360FAE710
:1019EC00022A06D0032A02D0012A00D1016000206D
:1019FC0070470B680360FAE7022A06D0032A02D06C
:101A0C00012A00D10160002070470B680360FAE7DF
:101A1C00022A06D0032A02D0012A00D1016000203C
:101A2C0070470B680360FAE7022A06D0032A02D03B
:101A3C00012A00D10160002070470B680360FAE7AF
:101A4C00022A06D0032A02D0012A00D1016000200C
:101A5C0070470B680360FAE7022A06D0032A02D00B
:101A6C00012A00D10160002070470B680360FAE77F
:101A7C00022A06D0032A02D0012A00D101600020DC
:101A8C0070470B680360FAE7022A06D0032A02D0DB
:101A9C00012A00D10160002070470B680360FAE74F
:101AAC00022A06D0032A02D0012A00D101600020AC
:101ABC0070470B680360FAE7022A06D0032A02D0AB
:101ACC00012A00D10160002070470B680360FAE71F
:101ADC00022A06D0032A02D0012A00D1016000207C
:101AEC0070470B680360FAE7022A06D0032A02D07B
:101AFC00012A00D10160002070470B680360FAE7EF
:101B0C00022A06D0032A02D0012A00D1016000204B
:101B1C0070470B680360FAE7022A06D0032A02D04A
:101B2C00012A00D10160002070470B680360FAE7BE
:101B3C00022A06D0032A02D0012A00D1016000201B
:101B4C0070470B680360FAE7022A06D0032A02D01A
:101B5C00012A00D10160002070470B680360FAE78E
:101B6C00022A06D0032A02D0012A00D101600020EB
:101B7C0070470B680360FAE7022A06D0032A02D0EA
:101B8C00012A00D10160002070470B680360FAE75E
:101B9C00022A06D0032A02D0012A00D101600020BB
:101BAC0070470B680360FAE7022A06D0032A02D0BA
:101BBC00012A00D10160002070470B680360FAE72E
:101BCC00022A06D0032A02D0012A00D1016000208B
:101BDC0070470B680360FAE7022A06D0032A02D08A
:101BEC00012A00D10160002070470B680360FAE7FE
:101BFC00022A06D0032A02D0012A00D1016000205B
:101C0C0070470B680360FAE7022A06D0032A02D059
:101C1C00012A00D10160002070470B680360FAE7CD
:101C2C00022A06D0032A02D0012A00D1016000202A
:101C3C0070470B680360FAE7022A06D0032A02D029
:101C4C00012A00D10160002070470B680360FAE79D
:101C5C00022A06D0032A02D0012A00D101600020FA
:101C6C0070470B680360FAE7022A06D0032A02D0F9
:101C7C00012A00D10160002070470B680360FAE76D
:101C8C00022A06D0032A02D0012A00D101600020CA
:101C9C0070470B680360FAE7022A06D0032A02D0C9
:101CAC00012A00D10160002070470B680360FAE73D
:101CBC00022A06D0032A02D0012A00D1016000209A
:101CCC0070470B680360FAE7022A06D0032A02D099
:101CDC00012A00D10160002070470B680360FAE70D
:101CEC00022A06D0032A02D0012A00D1016000206A
:101CFC0070470B680360FAE7022A06D0032A02D069
:101D0C00012A00D10160002070470B680360FAE7DC
:101D1C00022A06D0032A02D0012A00D10160002039
:101D2C0070470B680360FAE7022A06D0032A02D038
:101D3C00012A00D10160002070470B680360FAE7AC
:101D4C00022A06D0032A02D0012A00D10160002009
:101D5C0070470B680360FAE7022A06D0032A02D008
:101D6C00012A00D10160002070470B680360FAE77C
:101D7C00022A06D0032A02D0012A00D101600020D9
:101D8C0070470B680360FAE7022A06D0032A02D0D8
:101D9C00012A00D10160002070470B680360FAE74C
:101DAC00022A06D0032A02D0012A00D101600020A9
:101DBC0070470B680360FAE7022A06D0032A02D0A8
:101DCC00012A00D10160002070470B680360FAE71C
:101DDC00022A06D0032A02D0012A00D10160002079
:101DEC0070470B680360FAE7022A06D0032A02D078
:101DFC00012A00D10160002070470B680360FAE7EC
:101E0C00022A06D0032A02D0012A00D10160002048
:101E1C0070470B680360FAE7022A06D0032A02D047
:101E2C00012A00D10160002070470B680360FAE7BB
:101E3C00022A06D0032A02D0012A00D10160002018
:101E4C0070470B680360FAE7022A06D0032A02D017
:101E5C00012A00D10160002070470B680360FAE78B
:101E6C00022A06D0032A02D0012A00D101600020E8
:101E7C0070470B680360FAE7022A06D0032A02D0E7
:101E8C00012A00D10160002070470CC90CC0FAE790
:101E9C00022A06D0032A02D0012A00D101600020B8
:101EAC0070470CC90CC0FAE7B83003680133036003
:101EBC007047002303704370704700230370437016
:101ECC007047002303704370704700230370437006
:101EDC0070470023037043707047002303704370F6
:101EEC0070470023037043707047002303704370E6
:101EFC0070470023037043707047002303704370D6
:101F0C0070470023037043707047002303704370C5
:101F1C0070470023037043707047002303704370B5
:101F2C0070470023037043707047002303704370A5
:101F3C007047002303704370704700230370437095
:101F4C007047002303704370704700230370437085
:101F5C007047002303704370704700230370437075
:101F6C007047002303704370704700230370437065
:101F7C007047C3690133C36170477047704770473E
:101F8C00704770477047704770477047704770478D
:101F9C00704770477047022A06D0032A02D0012AE4
:101FAC0000D10160002070470B680360FAE7022A39
:101FBC0006D0032A02D0012A00D10160002070470C
:101FCC000B680360FAE7022A06D0032A02D0012A22
:101FDC0000D10160002070470B680360FAE7022A09
:101FEC0006D0032A02D0012A00D1016000207047DC
:101FFC000B680360FAE7022A06D0032A02D0012AF2
:10200C0000D10160002070470B680360FAE7022AD8
:10201C0006D0032A02D0012A00D1016000207047AB
:10202C000B680360FAE7022A06D0032A02D0012AC1
:10203C0000D10160002070470B680360FAE7022AA8
:10204C0006D0032A02D0012A00D10160002070477B
:10205C000B680360FAE7022A06D0032A02D0012A91
:10206C0000D10160002070470B680360FAE7022A78
:10207C0006D0032A02D0012A00D10160002070474B
:10208C000B680360FAE7022A06D0032A02D0012A61
:10209C0000D10160002070470B680360FAE7022A48
:1020AC0006D0032A02D0012A00D10160002070471B
:1020BC000B680360FAE7022A06D0032A02D0012A31
:1020CC0000D10160002070470B680360FAE7022A18
:1020DC0006D0032A02D0012A00D1016000207047EB
:1020EC000B680360FAE7022A06D0032A02D0012A01
:1020FC0000D10160002070470B680360FAE7022AE8
:10210C0006D0032A02D0012A00D1016000207047BA
:10211C000B680360FAE7022A06D0032A02D0012AD0
:10212C0000D10160002070470B680360FAE7022AB7
:10213C0006D0032A02D0012A00D10160002070478A
:10214C000B680360FAE7022A06D0032A02D0012AA0
:10215C0000D10160002070470B680360FAE7022A87
:10216C0006D0032A02D0012A00D10160002070475A
:10217C000B680360FAE7022A06D0032A02D0012A70
:10218C0000D10160002070470B680360FAE7022A57
:10219C0006D0032A02D0012A00D10160002070472A
:1021AC000B680360FAE7022A06D0032A02D0012A40
:1021BC0000D10160002070470B680360FAE7022A27
:1021CC0006D0032A02D0012A00D1016000207047FA
:1021DC000B680360FAE7022A06D0032A02D0012A10
:1021EC0000D10160002070470B680360FAE7022AF7
:1021FC0006D0032A02D0012A00D1016000207047CA
:10220C000B680360FAE7022A06D0032A02D0012ADF
:10221C0000D10160002070470B680360FAE7022AC6
:10222C0006D0032A02D0012A00D101600020704799
:10223C000B680360FAE7022A06D0032A02D0012AAF
:10224C0000D10160002070470B680360FAE7022A96
:10225C0006D0032A02D0012A00D101600020704769
:10226C000B680360FAE7022A06D0032A02D0012A7F
:10227C0000D10160002070470B680360FAE7022A66
:10228C0006D0032A02D0012A00D101600020704739
:10229C000B680360FAE7022A06D0032A02D0012A4F
:1022AC0000D10160002070470B680360FAE7022A36
:1022BC0006D0032A02D0012A00D101600020704709
:1022CC000B680360FAE7022A06D0032A02D0012A1F
:1022DC0000D10160002070470B680360FAE7022A06
:1022EC0006D0032A02D0012A00D1016000207047D9
:1022FC000B680360FAE7022A06D0032A02D0012AEF
:10230C0000D10160002070470B680360FAE7022AD5
:10231C0006D0032A02D0012A00D1016000207047A8
:10232C000B680360FAE7022A06D0032A02D0012ABE
:10233C0000D10160002070470B680360FAE7022AA5
:10234C0006D0032A02D0012A00D101600020704778
:10235C000B680360FAE7022A06D0032A02D0012A8E
:10236C0000D10160002070470B680360FAE7022A75
:10237C0006D0032A02D0012A00D101600020704748
:10238C000B680360FAE7022A06D0032A02D0012A5E
:10239C0000D10160002070470B680360FAE7022A45
:1023AC0006D0032A02D0012A00D101600020704718
:1023BC000B680360FAE7022A06D0032A02D0012A2E
:1023CC0000D10160002070470B680360FAE7022A15
:1023DC0006D0032A02D0012A00D1016000207047E8
:1023EC000B680360FAE7022A06D0032A02D0012AFE
:1023FC0000D10160002070470B680360FAE7022AE5
:10240C0006D0032A02D0012A00D1016000207047B7
:10241C000B680360FAE7022A06D0032A02D0012ACD
:10242C0000D10160002070470B680360FAE7022AB4
:10243C0006D0032A02D0012A00D101600020704787
:10244C000B680360FAE7022A06D0032A02D0012A9D
:10245C0000D10160002070470B680360FAE7022A84
:10246C0006D0032A02D0012A00D101600020704757
:10247C000B680360FAE7022A06D0032A02D0012A6D
:10248C0000D10160002070470B680360FAE7022A54
:10249C0006D0032A02D0012A00D101600020704727
:1024AC000B680360FAE7022A06D0032A02D0012A3D
:1024BC0000D10160002070470B680360FAE7022A24
:1024CC0006D0032A02D0012A00D1016000207047F7
:1024DC000B680360FAE7022A06D0032A02D0012A0D
:1024EC0000D10160002070470B680360FAE7022AF4
:1024FC0006D0032A02D0012A00D1016000207047C7
:10250C000B680360FAE7022A06D0032A02D0012ADC
:10251C0000D10160002070470B680360FAE7022AC3
:10252C0006D0032A02D0012A00D101600020704796
:10253C000B680360FAE7022A06D0032A02D0012AAC
:10254C0000D10160002070470B680360FAE7022A93
:10255C0006D0032A02D0012A00D101600020704766
:10256C000B680360FAE7022A06D0032A02D0012A7C
:10257C0000D10160002070470B680360FAE7022A63
:10258C0006D0032A02D0012A00D101600020704736
:10259C000B680360FAE7022A06D0032A02D0012A4C
:1025AC0000D10160002070470B680360FAE7022A33
:1025BC0006D0032A02D0012A00D101600020704706
:1025CC000B680360FAE7022A06D0032A02D0012A1C
:1025DC0000D10160002070470B680360FAE7022A03
:1025EC0006D0032A02D0012A00D1016000207047D6
:1025FC000B680360FAE7022A06D0032A02D0012AEC
:10260C0000D10160002070470B680360FAE7022AD2
:10261C0006D0032A02D0012A00D1016000207047A5
:10262C000B680360FAE7022A06D0032A02D0012ABB
:10263C0000D10160002070470B680360FAE7022AA2
:10264C0006D0032A02D0012A00D101600020704775
:10265C000B680360FAE7022A06D0032A02D0012A8B
:10266C0000D10160002070470B680360FAE7022A72
:10267C0006D0032A02D0012A00D101600020704745
:10268C000B680360FAE7026809781378002904D014
:10269C00802149420B43137070477F210B40FAE7AE
:1026AC0070B50C000500006803689B6898472368A8
:1026BC002C6020001B68984770BD006810B50100A5
:1026CC003531FF318830FFF7EBFF10BD006810B5D6
:1026DC0001008830F031FFF7E3FF10BD852310B502
:1026EC0000689B00C1188830FFF7DAFF10BDC423C7
:1026FC0010B500689B00C1188830FFF7D1FF10BDE2
:10270C009D2310B50068DB00C1188830FFF7C8FFA7
:10271C0010BD000010B50068024BC1188830FFF7DF
:10272C00BFFF10BD28130000B72310B500689B0035
:10273C00C1188830FFF7B4FF10BD10B50400006855
:10274C0001003531FF318830FFF7AAFFDC2101226F
:10275C00236889000833DB6F5A5420395A5460318E
:10276C005A5420395A5460315A5420395A546031D1
:10277C005A5420395A5460315A5420395A546031C1
:10278C005A5420395A54A42189005A5420315A548D
:10279C0020315A5420315A5420315A5420315A5431
:1027AC0010BDF02310B500689B00C1188830FFF7EE
:1027BC0077FF10BDB92310B50068DB00C118883055
:1027CC00FFF76EFF10BD000010B50068024BC1187A
:1027DC008830FFF765FF10BD4C060000DD2310B5F7
:1027EC000068DB00C1188830FFF75AFF10BDB0231A
:1027FC0010B500681B01C1188830FFF751FF10BDE0
:10280C00FC2310B50068DB00C1188830FFF748FFC7
:10281C0010BD882310B500681B01C1188830FFF764
:10282C003FFF10BD922310B500681B01C118883002
:10283C00FFF736FF10BD9C2310B500681B01C118B3
:10284C008830FFF72DFF10BDA62310B500681B01C3
:10285C00C1188830FFF724FF10BD000010B51F24ED
:10286C000068074BC16FC25C8B7852012340134345
:10287C008B70DD23DB00C1188830FFF711FF10BD12
:10288C007C08000010B50068084B0124C25CC16FC5
:10289C00531E9A418B78A34313438B70DD23DB00CB
:1028AC00C1188830FFF7FCFE10BDC0461C090000A3
:1028BC00012210B502240068074BC16FC35C1A409B
:1028CC008B785200A34313438B70DD23DB00C118BC
:1028DC008830FFF7E5FE10BDBC09000000680A4B0C
:1028EC0010B5C3581824013B5A1E9341C16F5B00AD
:1028FC008A78DB00A24313438B70DD23DB00C11805
:10290C008830FFF7CDFE10BD5C0A00000368084A52
:10291C001800096810B58830914205D1BA2212010D
:10292C009918FFF7BDFE10BD9D22D200F8E7C046F6
:10293C00B704000010B50068024BC1188830FFF7CF
:10294C00AFFE10BDF80C000010B50068024BC118AA
:10295C008830FFF7A5FE10BD940D00000022006822
:10296C00044B10B5C250E3231B01C1188830FFF78C
:10297C0097FE10BD9C0B0000ED2310B500681B01E9
:10298C00C1188830FFF78CFE10BD000010B5006830
:10299C00024BC1188830FFF783FE10BD6C0F00008E
:1029AC0010B50068024BC1188830FFF779FE10BDD6
:1029BC000810000000220068044B10B5C2508A2396
:1029CC005B01C1188830FFF76BFE10BD9C0B00003B
:1029DC0010B50068024BC1188830FFF761FE10BDBE
:1029EC00E411000010B50068024BC1188830FFF7E5
:1029FC0057FE10BD88120000BA2310B51B01C11878
:102A0C008830FFF74DFE10BD10B50068FFF7F4FFDE
:102A1C0010BD10B50068FFF7EFFF10BD10B50068D2
:102A2C00FFF7EAFF10BD00000068074B10B5C35854
:102A3C00002B02D00023C26F9381BA231B01C11853
:102A4C008830FFF72DFE10BD9C0B000010B5006800
:102A5C00FFF7D2FF10BD10B504680222231DD86FFA
:102A6C00E16F12300931FDF7E5FBBA2320001B01A1
:102A7C00E1188830FFF714FE10BD10B50068FFF7A1
:102A8C00BBFF10BD10B50068FFF7B6FF10BD10B549
:102A9C000068FFF7B1FF10BD10B50068FFF7ACFF81
:102AAC0010BD000000680A4B10B5C358002B07D0AE
:102ABC000022C36F5A829A82DA821A8B01321A83ED
:102ACC00BA231B01C1188830FFF7EAFD10BDC046C0
:102ADC009C0B000010B50068FFF78EFF10BD8F2314
:102AEC0000685B01C25810B50124531E9A41C16F96
:102AFC000B7CA34313430B74BA231B01C1188830FE
:102B0C00FFF7CEFD10BD10B50068FFF775FF10BDC7
:102B1C000068094B10B5C35802245A1E9341C16F6B
:102B2C005A000B7CA34313430B74BA231B01C1182B
:102B3C008830FFF7B5FD10BD841200000B1A9B10F6
:102B4C00002B14DD0278002A03D04278002A01D130
:102B5C00013070478278002A01D10230F9E7C2783F
:102B6C00002A01D10330F4E70430013BE8E70B1AEB
:102B7C00022B09D0032B03D0012B09D00800E8E766
:102B8C000378002BE5D001300378002BE1D0013025
:102B9C000378002BF2D1DCE70B1A9B10002B14DD11
:102BAC000278002A03D14278002A01D00130704704
:102BBC008278002A01D00230F9E7C278002A01D0CD
:102BCC000330F4E70430013BE8E70B1A022B09D081
:102BDC00032B03D0012B09D00800E8E70378002B66
:102BEC00E5D101300378002BE1D101300378002BC3
:102BFC00F2D0DCE710B5FEF7E5FC10BD0368002B46
:102C0C0005D01A005B68002BFBD151607047016046
:102C1C00FCE710B50400002C05D0236820001B68CD
:102C2C0098476468F7E710BD13B514780091763CAB
:102C3C0063425C410192E3B20C000B2900D90C24D5
:102C4C00E418994205D2002301220649064809F0EE
:102C5C0015FAC91AA14200D92100D21801604260AC
:102C6C0016BDC04628C2000842C20008482210B552
:102C7C000300007A5143114A002807D0906818606D
:102C8C00814201D3081A5860002018721C68A142B6
:102C9C0008D892680120A41AA14202D8012200206F
:102CAC001A7210BD916801208C42FAD85168926852
:102CBC008A1A59688A42F1D2F3E7C04610E000E064
:102CCC000068D02203000833DB6F1949920070B5FD
:102CDC009A18D42491830022A4001A5530341C195C
:102CEC00A183E424A4001A5530341C19A183F424C4
:102CFC00A4001A5530341C19A1838224E4001A55FF
:102D0C0030341C199025A1838A24ED005D19E40050
:102D1C001A55A9839221C9005A54031DDB6F9B7C61
:102D2C0003518923DB00C1188830FFF7B9FC70BD53
:102D3C008976000010B50068C26FD38A0133D38244
:102D4C00354BC25803000833DB6F012A36D1A02261
:102D5C00324992009A189183A4220021920099542E
:102D6C00D8222F4992009A18DC2491830022A400C7
:102D7C001A5530341C19A183EC24A4001A55303494
:102D8C001C19A183FC24A4001A5530341C19A183EE
:102D9C008624E4001A5530341C19A1838E24E400D7
:102DAC001A5530341C19A1839621C9005A54F023AA
:102DBC009B00C1188830FFF773FC10BD022A06D1A6
:102DCC00A822164992009A189183AC22C5E7032ACF
:102DDC0006D1B022114992009A189183B422BCE713
:102DEC00042A06D1B8220D4992009A189183BC226C
:102DFC00B3E7052A06D1C022084992009A1891839C
:102E0C00C422AAE7062AABD1C822044992009A1818
:102E1C009183CC22A1E7C046440400005557000022
:102E2C007856000003008C331A6810B5511C1960D9
:102E3C00064B53430122D341054A934204D88830B0
:102E4C00006803685B68984710BDC046295C8FC258
:102E5C0051B81E0510B50A1A884202D02021FDF780
:102E6C009BFA10BD7047006810B501003531FF3179
:102E7C008830FFF715FC10BD852310B500689B004A
:102E8C00C1188830FFF70CFC10BDC42310B50068C6
:102E9C009B00C1188830FFF703FC10BD9D2310B5B3
:102EAC000068DB00C1188830FFF7FAFB10BD006822
:102EBC0010B501003531FF318830FFF7F1FB10BD43
:102ECC00006810B501003531FF318830FFF7E8FBA1
:102EDC0010BDDD2310B50068DB00C1188830FFF78A
:102EEC00DFFB10BD9D2310B50068DB00C1188830D6
:102EFC00FFF7D6FB10BD9D2310B50068DB00C11891
:102F0C008830FFF7CDFB10BD9D2310B50068DB00AA
:102F1C00C1188830FFF7C4FB10BDC42310B500687E
:102F2C009B00C1188830FFF7BBFB10BDDD2310B52B
:102F3C000068DB00C1188830FFF7B2FB10BDDD2341
:102F4C0010B50068DB00C1188830FFF7A9FB10BD75
:102F5C00DD2310B50068DB00C1188830FFF7A0FB3B
:102F6C0010BDDD2310B50068DB00C1188830FFF7F9
:102F7C0097FB10BD9D2310B50068DB00C11888308D
:102F8C00FFF78EFB10BD000003691B0603D5024B37
:102F9C004360024B4360704723016745AB89EFCD1B
:102FAC000122036993430361022302691343036102
:102FBC0080239B02C9184023890241610269134393
:102FCC0003617047836810B50400002B02D0032204
:102FDC0001009847200010BD10B50400094B0833C0
:102FEC000360ED30FF30FFF7EDFF2000DD30FF30E8
:102FFC00FFF7E8FF2000CD30FF30FFF7E3FF2000A4
:10300C0010BDC046C0DF000810B50468002C05D008
:10301C00236820001B689847A468F7E710BD10B51B
:10302C0004000830FFF7F0FF20696169431C23613D
:10303C00FEF7B8F9002902D12000FFF7E5FF10BD1B
:10304C0010B50248FFF7EBFF10BDC046DC090020AD
:10305C004169026903000020914201D3586101309B
:10306C0070470000037B002B0DD0002342680373D4
:10307C008368002A0ED0002B08D0936083685A60B6
:10308C0000234360836070470B60F8E7044993604A
:10309C004A60F5E70249002BF6D10B604B60EFE775
:1030AC00DC090020002310B54361FFF7DBFF10BDE6
:1030BC00037B002B0CD101330373064B5A6842601F
:1030CC00002A00D090601A685860002A00D118605D
:1030DC007047C046DC090020036810B55A1CC318A1
:1030EC0002605972040050210068FEF75BF9200061
:1030FC00216010BD0222F8B50B4D03680B4E6B43DB
:10310C00D3410400B34202D82021FFF7E5FF022788
:10311C0023686B43FB41B34204D920212000FFF705
:10312C00DBFFF5E72000F8BDCDCCCCCCCCCCCC0C67
:10313C0010B504002368002B04D020212000FFF7D9
:10314C00CBFFF7E7200010BD70B5040008000D00A0
:10315C00FDF754FB20606560200070BD70B5040065
:10316C000D0000681421FEF797F8142358435021E2
:10317C004019FEF717F92000216070BD70B5056885
:10318C002A00AC321368002B1AD02E001424A83657
:10319C00013B136033686868634313210360FFF7D6
:1031AC00DDFF2021FFF798FF33686868013B5C4323
:1031BC00132133600460FFF7D1FF7E21FFF78CFFF2
:1031CC0070BD70B505682A00AC321368012B1AD09B
:1031DC002E001424A83601331360336868686343E7
:1031EC0013210360FFF7BAFF2021FFF775FF336847
:1031FC00686801335C43132133600460FFF7AEFF52
:10320C007E21FFF769FF70BD70B505682A00C432D6
:10321C001368002B1AD02E001424C036013B136007
:10322C0033686868634313210360FFF797FF20211D
:10323C00FFF752FF33686868013B5C43132133602E
:10324C000460FFF78BFF7E21FFF746FF70BD70B562
:10325C0005682A00C4321368022B1AD02E001424DD
:10326C00C03601331360336868686343132103600D
:10327C00FFF774FF2021FFF72FFF336868680133D5
:10328C005C43132133600460FFF768FF7E21FFF776
:10329C0023FF70BD70B505682A00DC321368002B63
:1032AC001AD02E001424D836013B1360336868689A
:1032BC00634313210360FFF751FF2021FFF70CFF3D
:1032CC0033686868013B5C43132133600460FFF78B
:1032DC0045FF7E21FFF700FF70BD70B505682A0021
:1032EC00DC321368032B1AD02E001424D836013389
:1032FC00136033686868634313210360FFF72EFF84
:10330C002021FFF7E9FE3368686801335C43132121
:10331C0033600460FFF722FF7E21FFF7DDFE70BDF6
:10332C00012302684068116983400B4313617047A5
:10333C000123426810B51032934001680C69234395
:10334C000B6110BD036810B504009869FFF7F0FF1E
:10335C00C8216068FFF78AFC0028F9D123689869B6
:10336C00FFF7DEFFC8216068FFF780FC0028F9D169
:10337C0010BD70B504000D000368ED001869FFF76F
:10338C00D7FF23686068DA699B6AEB581361FFF713
:10339C00D9FF23686068996ADA694D196B68136103
:1033AC00FFF7D0FF6421A068FFF760FC0028F9D17B
:1033BC0070BD000037B5437B0400012B22D0022BDB
:1033CC002BD0002B1DD14069FFF7B2FF2069FFF70E
:1033DC00A7FF606B5021431C6363FDF7E3FF134BA6
:1033EC008900CB58256AEA5C6B46DA7107331B7887
:1033FC00626ADB00D318E2690ACB1161E362012334
:10340C00637337BD8069FFF78BFFA069FFF790FFEF
:10341C00E369E26A1A610223F2E78069FFF780FF31
:10342C00A069FFF785FF0023EAE7C046D8CB000868
:10343C000300026890685A68012393401840431EA9
:10344C009841C0B2704710B50C1E03D0FFF768FF4F
:10345C00200010BDFFF76CFFFAE770B50600437A49
:10346C0004000C36002B05D00023C16143723000E0
:10347C00FFF71EFE3000FFF7EBFD0125002804D0FE
:10348C003000FFF70FFE65720025280070BD0000AC
:10349C0070B5002504002D208EB00322290068444D
:1034AC0005950695FCF778FF2C226B469B181D7032
:1034BC0002236A46FF333A4E938305AB019305AB67
:1034CC000C9509950A9508960D9500940294039213
:1034DC000493642105A8FFF7C0FF0028F9D12069E7
:1034EC00FFF726FF6069FFF723FFA069FFF718FFBE
:1034FC00A26AE369D26968461A61FFF723FF0521C6
:10350C0005A8FFF7AAFF0028F9D1A26AE369D269DE
:10351C0068461A61FFF716FF642105A8FFF7A6FBA2
:10352C000028F9D1A26AE369D26968461A61FFF7EB
:10353C0009FF322105A8FFF799FB0028F9D1A26AEF
:10354C00E369526968461A61FFF7FCFE322105A84F
:10355C00FFF78CFB0028F9D1282102A8FFF709FFFF
:10356C000C2102A8FFF705FF062102A8FFF701FFB7
:10357C00012102A8FFF7FDFE802102A8FFF7F9FE4A
:10358C00012105A8FFF769FF0028F9D10123303488
:10359C00237008A80896FFF765FD0EB070BDC046F5
:1035AC00ECC5000810B504005030FFF70BFD2000EF
:1035BC004030FFF707FD20003030FFF703FD2000FF
:1035CC002030FFF7FFFC20001030FFF7FBFC200041
:1035DC00FFF7F8FC200010BD10B504000800092A04
:1035EC0018D1204B5B689B045B0F1BD0042B1BD0AA
:1035FC00052B1BD0063B5A1E93411B4A5B421340C2
:10360C001A4A9B18072819D8FDF73CFE121A1C1FE2
:10361C00212426290A3A0023012AF3D8114B5B688E
:10362C005B05E1E7124BEDE7124BEBE7124BE9E7D9
:10363C00962189011800FDF72FFEA060200010BD17
:10364C00E121F6E79621C901F4E7E121FBE7962198
:10365C000902EFE7E121FBE796214902EAE7E121C4
:10366C00FBE7C04600100240E055BBFF4054890008
:10367C0000A24A040051250280A812010123C9B2FC
:10368C00890003398B4000681840431E9841C0B232
:10369C007047FEE7FEE7FEE7FEE7FEE7FEE7000009
:1036AC00044B10B51868FFF7B4FA0122024B5A61AB
:1036BC0010BDC0463409002000040140044B10B575
:1036CC001868FFF7A6FA0222024B5A6110BDC046D9
:1036DC003C09002000040140044B10B51868FFF7AA
:1036EC0098FA0422024B5A6110BDC046740900209E
:1036FC0000040140044B10B51868FFF78AFA082241
:10370C00024B5A6110BDC0467C09002000040140E8
:10371C00044B10B51868FFF77CFA1022024B5A6163
:10372C0010BDC0468409002000040140FEE7FEE7FE
:10373C00FEE7FEE7FEE7000010B5144C63699B063C
:10374C0003D5134B1868FFF764FA63695B0603D55E
:10375C00104B1868FFF75DFA63691B0603D50E4B17
:10376C001868FFF756FA6369DB0503D50B4B18682D
:10377C00FFF74FFA63699B0503D5094B1868FFF7F0
:10378C0048FAF8239B00636110BDC0460004014059
:10379C008C090020940900209C090020A409002019
:1037AC00AC090020FEE7FEE7FEE7FEE7FEE7FEE7DA
:1037BC00FEE7FEE7FEE7FEE7FEE7FEE7FEE70000BA
:1037CC0010B5174C63695B0503D5164B1868FFF7EA
:1037DC0020FA63691B0503D5134B1868FFF719FA18
:1037EC006369DB0403D5114B1868FFF712FA6369A0
:1037FC009B0403D50E4B1868FFF70BFA63695B0447
:10380C0003D50C4B1868FFF704FA63691B0403D546
:10381C00094B1868FFF7FDF9FC231B02636110BD0F
:10382C0000040140440900204C09002054090020E8
:10383C005C090020640900206C090020FEE7FEE70B
:10384C00044B10B51868FFF7E4F9034B1A685B6872
:10385C0010BDC046C409002000380140044B10B50F
:10386C001868FFF7D6F9034B1A685B6810BDC046A1
:10387C00CC09002000440040044B10B51868FFF739
:10388C00C8F9034B1A685B6810BDC046D409002008
:10389C0000480040044B10B51868FFF7BAF9012234
:1038AC00024B5A6010BDC046FC08002000000240CC
:1038BC00044B10B51868FFF7ACF91022024B5A6094
:1038CC0010BDC0460409002000000240044B10B596
:1038DC001868FFF79EF98022024B52005A6010BD07
:1038EC000C09002000000240044B10B51868FFF7CB
:1038FC0090F98022024B52015A6010BD140900202D
:10390C0000000240044B10B51868FFF782F98022C2
:10391C00024B52025A6010BD1C09002000000240EC
:10392C00044B10B51868FFF774F98022024B520350
:10393C005A6010BD2409002000000240044B10B551
:10394C001868FFF766F98022024B52045A6010BDCA
:10395C002C0900200000024010221F4B19680A435A
:10396C0007211A601A688A43110002220A431A605E
:10397C0080221A4B520219680A431A601A68920381
:10398C00FCD5F0215A688A435A605A681449114090
:10399C008022D2000A435A605A6812490A405A607F
:1039AC008022596852020A435A605A680E491140E3
:1039BC00E02252030A435A608022196852040A43D7
:1039CC001A601A689201FCD503215A688A431100C7
:1039DC0002220A435A607047002002400010024045
:1039EC00FFF8FFFFFFC7FFFFFFFFC3FFF8B5012381
:1039FC00614A624F12681A4260D1614A614811688B
:103A0C00194204D16049136001600921416004230B
:103A1C00BA69F0211343BB610123BA6905681A43E3
:103A2C00BA616A688A431100A0220A436A60574A45
:103A3C00574915681D4204D1534D13600D600A257A
:103A4C004D600423BA69534D1343BB610123BA691A
:103A5C000E681A43BA61726815408022D2002A435C
:103A6C004D4D72602E684D4A1E4204D1464E2B605D
:103A7C0016600826566004250F24BB692B43BB61D6
:103A8C0016687368A3439C46022364462343736001
:103A9C00434B0026FC335A61424A5E609A61424AAB
:103AAC009E60DA61414AD8601A62414A19615A62D1
:103ABC000922DD629A6201232F4A13608023384E5B
:103ACC00BA693400DB0113430822BB61FC34E3699F
:103ADC008025D96804200A43DA600422D9680A4395
:103AEC00DA605A692A435A61402259690A435A6179
:103AFC00304B1856FFF77EF801237A692E49134391
:103B0C007B611027236A2D481A683A431A60626851
:103B1C009219DA60E26904329A601A682A431A60D0
:103B2C001A680A401A601A6802401A6002220420BD
:103B3C0019680A431A60224B1856FFF75BF8636A40
:103B4C001D491A681D48BA431A6062689219DA60F6
:103B5C00E26904329A60FF225A601A6815431D60AC
:103B6C001A680A401A601A6802401A602022196802
:103B7C0030000A431A60F8BD78040020001002409F
:103B8C00C0050020C405002000080140B405002039
:103B9C00B8050020FFF0FFFFA8050020AC050020B1
:103BAC007C04002000000240003801404400024028
:103BBC0058000240C4090020FFF3FFFFFFFCFFFF89
:103BCC0014090020F8B50123704A714F12681A428B
:103BDC007ED1704A70491068184204D16F48136046
:103BEC0008600A20486010220120BB696C4C13430A
:103BFC00BB61BB690D680343BB616B681C40A023B0
:103C0C001B0123436B603025664B5C68AC4322433D
:103C1C00654C5A602568654A054204D15F4D2060A9
:103C2C0015600B2555601024B86926002043B86137
:103C3C001068BC69844601200443BC6164465C4D39
:103C4C00646825408024E4012C4365466C60302573
:103C5C005C68AC4334435C60564C2568054205D126
:103C6C00554D564E20602E600F266E600420BC69A8
:103C7C00514D20430124B861286826008446B86958
:103C8C002043B86158684E4C044080208004204387
:103C9C005860634680205B6880051B011B09034349
:103CAC0060464360474B0020FC331A61464A58601B
:103CBC009A61464A9860DA61454AD9601A62454A67
:103CCC005D615A620B229A62093ADA622F4B1E60CE
:103CDC0080233C4EFA693400DB0213430822FB615B
:103CEC00FC34E3698025D96804200A43DA60042295
:103CFC00D9680A43DA605A692A435A6140225969E1
:103D0C000A435A61344B1856FEF774FF01237A6943
:103D1C00324913437B611027236A31481A683A43AE
:103D2C001A6062689219DA60E26904329A601A6861
:103D3C002A431A601A680A401A601A6802401A600C
:103D4C000222042019680A431A60264B1856FEF703
:103D5C0051FF636A21491A682148BA431A606268A4
:103D6C009219DA60E26904329A60FF225A601A688A
:103D7C0015431D601A680A401A601A6802401A60DE
:103D8C002022196830000A431A60F8BD2403002071
:103D9C00001002406C040020700400200010014050
:103DAC00FFF0FFFF000001406004002064040020CD
:103DBC00FF0FFFFF540400205804002000080140AE
:103DCC00FFFFFFF8280300200000024000480040DD
:103DDC001C00024030000240D4090020FFF3FFFF1A
:103DEC00FFFCFFFF0409002070B514000D1A884277
:103DFC0004D001002A002000FCF770FA601970BD95
:103E0C000300F0B5093387B00193036815000293E2
:103E1C00029A019B04009A18037A0F00002B27D0FA
:103E2C0013291CD81426761A7608961973181000C4
:103E3C0031000393FFF70EF8E91932002800FFF761
:103E4C00D3FF0299019B143103985918FFF702F81C
:103E5C00206814305021FDF7A5FA216016E0080007
:103E6C0014384008281801001431FFF7BDFFEFE7A4
:103E7C005021029BC91AEB190293B9420BD91900B4
:103E8C002800FFF7B1FF2368DF192760002320000B
:103E9C00237207B0F0BD3E0069182800FFF7A4FF9D
:103EAC002368503EF618B91B6D182800019A50353E
:103EBC00502E04D92900FFF797FF503EF5E70299E1
:103ECC00FFF792FF2368F018C4E7000030B5040038
:103EDC0089B00A0005A81149FCF770FC05A901A8D6
:103EEC00FFF732F96268019B00259A4200D9D51A76
:103EFC00013D04D320212000FFF7EEF8F8E705A9D7
:103F0C0003A8FFF721F920000399049AFFF778FF23
:103F1C0000232000636009B030BDC04673C20008A6
:103F2C00F8B53022060007000400436888361A6092
:103F3C0098376568B74204D0280002CEFFF7C6FF59
:103F4C00F7E73C232B60386850214430FDF72AFA00
:103F5C00280029605E21FFF7BFF8FFF7CBF8F8BD0A
:103F6C0070B50568290098310B689B00EB188833F5
:103F7C001A6801321A600C680A21A4002C198834C2
:103F8C002068FDF7F9FA28002160FFF7C9FF70BD22
:103F9C00006810B5010098310B689B00C31888337A
:103FAC001A68013A1A600B689B00C31888331A68A8
:103FBC00002A01DA09221A60FFF7B2FF10BDF7B52B
:103FCC000022436804001A60031DDD6F05272B00D7
:103FDC0008330193E36F60681B78AB4203DC6068C5
:103FEC00FFF7A6F8F7BD03236E1C43603100FFF703
:103FFC006DFF3A21FFF770F8A36F60686D00E95A06
:10400C004760FFF763FF2021FFF766F8019B9E4294
:10401C00E5D03500DEE7006810B5021DD36F002B2C
:10402C0003D0023BD367FFF7CAFF10BD006810B581
:10403C00021DD36FC16F1C00097808348C4203DA5F
:10404C000233D367FFF7BBFF10BD0000F7B50025A7
:10405C00036B46681B78040035609B070ED4012364
:10406C00154933726846FFF76FF830000099019AD2
:10407C00FFF7C6FE6068FFF75BF8F7BD836A1B8825
:10408C00002B03D101330D493372EBE72E000427CB
:10409C00E36A1B78AB42EDDDA36A01221B882B413E
:1040AC00134205D06068A9184760FFF70FFF01366F
:1040BC00142EDFD00135EBE776C2000882C200086F
:1040CC0037B51A23040040680360636B1978FFF757
:1040DC00FDFEFFF70FF8E36B1B78DB071CD53C23C9
:1040EC00656848492B606846FFF72EF8019A28004E
:1040FC000099FFF785FE022360684360E36A198824
:10410C00FFF7E4FE050040496846FFF71DF828005C
:10411C000099019AFFF774FE432365683B492B60B5
:10412C00A36B1B789B0700D439496846FFF70CF842
:10413C0028000099019AFFF763FEE36B1B789B073D
:10414C0017D5A36B09211B7860689B0746D5FFF731
:10415C0005F803234360236B1988FFF7B7FE0500AE
:10416C002C496846FEF7F0FF28000099019AFFF7EA
:10417C0047FE0F216068FEF7F1FFA36B05001B786B
:10418C002549DB0700D422496846FEF7DDFF2800ED
:10419C000099019AFFF734FE12216068FEF7DEFFEA
:1041AC00A36B05001B781D49DB0900D11849684633
:1041BC00FEF7CAFF2800019A0099FFF721FE302371
:1041CC0065682B60A36B1B781A0759060BD4002A61
:1041DC000CDB13495B070AD5124908E0FEF7BEFF5A
:1041EC0011490500BDE71149002A00DA104968465B
:1041FC00FEF7AAFF28000099019AFFF701FEFEF7CF
:10420C0079FF37BD93C2000896C20008B9C20008F6
:10421C006EE000089AC200088DC2000890C2000827
:10422C009CC20008B0C200086CE00008A9C20008DB
:10423C00A0C20008F0B500254768061D3D60F36F6D
:10424C00040089B0AB4212D15B4906A8FEF77CFF93
:10425C00079A06993800FFF7D3FD032360680135F0
:10426C004360A36F1978FFF731FEFEF743FFF36F3E
:10427C00012B13DC6768514906A8FEF765FF079A06
:10428C0006993800FFF7BCFD0223606801354360D6
:10429C00A36F5978FFF71AFEFEF72CFFF36F022B72
:1042AC0016DC6768464906A8FEF74EFF06993800EB
:1042BC00079AFFF7A5FDE36F2B211B78DA0702D4D1
:1042CC009B0700D40231FEF707FFFEF713FF013501
:1042DC00F36F032B16DC67683A4906A8FEF734FF28
:1042EC0006993800079AFFF78BFDE36F2B211B789B
:1042FC00DB0700D40231FEF7EFFE0135FEF7FAFEC4
:10430C00042D57D0F36F042B16DC67682E4906A8D2
:10431C00FEF71AFF06993800079AFFF771FDE36F55
:10432C002B211B789B0700D40231FEF7D5FE0135FB
:10433C00FEF7E0FE042D3DD0F36F052B3ADC6768E9
:10434C00224904A8FEF700FF059A38000499FFF7EC
:10435C0057FD07001E4906A8FEF7F6FE68460699AB
:10436C00079AFEF761FC0099019A3800FFF748FDA7
:10437C00FEF7C0FE032D1DD0F36F052B1ADC64680D
:10438C00144902A8FEF7E0FE039A20000299FFF7F9
:10439C0037FD0400104904A8FEF7D6FE0499059ACF
:1043AC0006A8FEF741FC0699079A2000FFF728FDA6
:1043BC00FEF7A0FE09B0F0BDBCC20008C9C20008DF
:1043CC00DBC20008ECC20008FBC2000807C30008EF
:1043DC000EC300081FC3000826C30008006810B5F0
:1043EC00021DD36F002B01DD013BD367FFF722FFCA
:1043FC0010BD006810B5021DD36F022B01DC013318
:10440C00D367FFF717FF10BD002370B583608B686F
:10441C0004000D00002B05D002229847EB68E360E6
:10442C00AB68A360200070BD002370B583608B68FF
:10443C0004000D00002B05D002229847EB68E360C6
:10444C00AB68A360200070BD70B505000C00FFF7D1
:10445C00DBFF2800210010301031FFF7D5FF2800BA
:10446C00210020302031FFF7CFFF28002100303011
:10447C003031FFF7C9FF2800210040304031FFF7F1
:10448C00D3FF2800210050305031FFF7CDFF28001A
:10449C0070BD002370B583608B6804000D00002B89
:1044AC0005D002229847EB68E360AB68A36020005C
:1044BC0070BD30B5846F85B0236868469D68FFF782
:1044CC00E8FF69462000A8476846FEF77BFD05B06B
:1044DC0030BD836810B5002B01D107F0EDFDC3682A
:1044EC00984710BD10B500681830FFF7F2FF10BDEB
:1044FC0010B500681830FFF7ECFF10BD10B5006860
:10450C006830FFF7E6FF10BD10B500686830FFF7A4
:10451C00E0FF10BD10B500686830FFF7DAFF10BD82
:10452C0010B500681830FFF7D4FF10BD006810B547
:10453C0003009C331A68043B1B681A600300883321
:10454C001B68002B03D08030FFF7C3FF10BD703009
:10455C00FAE7006810B503009C331A68043B1B682B
:10456C001A60030088331B68002B03D08030FFF7E0
:10457C00B0FF10BD7030FAE7006810B50300983337
:10458C001A88043B1B681A8003000833DB6F002B6E
:10459C0003D07C30FFF79DFF10BD6C30FAE7036849
:1045AC0010B51A00983394321B7812681370006897
:1045BC0003000833DB6F002B03D07C30FFF789FF3F
:1045CC0010BD6C30FAE7006818220300FC339B6DB9
:1045DC0010B55343C0188030FFF77BFF10BD036844
:1045EC0010B51A00983394321B7812681370006857
:1045FC0003000833DB6F002B03D07C30FFF769FF1F
:10460C0010BD6C30FAE7036810B51A009833943279
:10461C001B7812681370006803000833DB6F002BE3
:10462C0003D07C30FFF755FF10BD6C30FAE7036800
:10463C0010B51A00983394321B7812681370006806
:10464C0003000833DB6F002B03D07C30FFF741FFF6
:10465C0010BD6C30FAE7006818220300F4331B68B5
:10466C0010B55343C0188030FFF733FF10BD0368FB
:10467C0010B51A00983394321B78126813700068C6
:10468C0003000833DB6F002B03D07C30FFF721FFD6
:10469C0010BD6C30FAE7006810B503009C331A6843
:1046AC00043B1B681A60030088331B68002B03D083
:1046BC008030FFF70EFF10BD7030FAE7006818224B
:1046CC000300AC331B6810B55343C0188030FFF7A0
:1046DC0000FF10BD006818220300C4331B6810B51E
:1046EC005343C0188030FFF7F4FE10BD0068182249
:1046FC000300DC331B6810B55343C0188030FFF740
:10470C00E8FE10BD10B500687030FFF7E2FE10BD7A
:10471C0010B500687030FFF7DCFE10BD10B50068F6
:10472C006C30FFF7D6FE10BD10B500686C30FFF78B
:10473C00D0FE10BD10B500686830FFF7CAFE10BD82
:10474C0010B500686C30FFF7C4FE10BD10B50068E2
:10475C006C30FFF7BEFE10BD10B500686C30FFF773
:10476C00B8FE10BD10B500686830FFF7B2FE10BD82
:10477C0010B500686C30FFF7ACFE10BD10B50068CA
:10478C007030FFF7A6FE10BD10B500686830FFF75B
:10479C00A0FE10BD10B500686830FFF79AFE10BD82
:1047AC0010B500686830FFF794FE10BD836810B533
:1047BC00002B01D107F080FCC368984710BD1FB5D2
:1047CC000023694608300293FFF7F0FF6846FEF7B6
:1047DC00F9FB05B000BD30B50025040085B0694675
:1047EC0008300295FFF7E2FF6846FEF7EBFB20006E
:1047FC00694618300295FFF7D9FF6846FEF7E2FBD1
:10480C002000694638300295FFF7D0FF6846FEF766
:10481C00D9FB2000694628300295FFF7C7FF684690
:10482C00FEF7D0FB05B030BD30B50025040085B0D7
:10483C00694608300295FFF7B9FF6846FEF7C2FBE0
:10484C002000694618300295FFF7B0FF6846FEF766
:10485C00B9FB2000694638300295FFF7A7FF684680
:10486C00FEF7B0FB05B030BD30B50025040085B0B7
:10487C00694608300295FFF799FF6846FEF7A2FBE0
:10488C002000694618300295FFF790FF6846FEF746
:10489C0099FB2000694638300295FFF787FF684680
:1048AC00FEF790FB05B030BD1FB5002369460830FC
:1048BC000293FFF77BFF6846FEF784FB05B000BD53
:1048CC001FB50023694608300293FFF76FFF684657
:1048DC00FEF778FB05B000BD30B50025040085B0AF
:1048EC00694608300295FFF761FF6846FEF76AFBE0
:1048FC002000694618300295FFF758FF6846FEF70E
:10490C0061FB2000694628300295FFF74FFF68468F
:10491C00FEF758FB2000694638300295FFF746FF3A
:10492C006846FEF74FFB05B030BD30B500250400DE
:10493C0085B0694608300295FFF738FF6846FEF7E8
:10494C0041FB2000694618300295FFF72FFF68469F
:10495C00FEF738FB2000694628300295FFF726FF4A
:10496C006846FEF72FFB2000694638300295FFF7AA
:10497C001DFF6846FEF726FB05B030BD30B500259F
:10498C00040085B0694608300295FFF70FFF6846B2
:10499C00FEF718FB2000694618300295FFF706FF5A
:1049AC006846FEF70FFB2000694628300295FFF79A
:1049BC00FDFE6846FEF706FB20006946383002957E
:1049CC00FFF7F4FE6846FEF7FDFA05B030BD30B5D2
:1049DC000025040085B0694608300295FFF7E6FE15
:1049EC006846FEF7EFFA2000694618300295FFF78B
:1049FC00DDFE6846FEF7E6FA20006946283002958F
:104A0C00FFF7D4FE6846FEF7DDFA20006946383021
:104A1C000295FFF7CBFE6846FEF7D4FA05B030BD21
:104A2C0030B50025040085B0694608300295FFF7C3
:104A3C00BDFE6846FEF7C6FA20006946183002959E
:104A4C00FFF7B4FE6846FEF7BDFA20006946283031
:104A5C000295FFF7ABFE6846FEF7B4FA20006946F4
:104A6C0038300295FFF7A2FE6846FEF7ABFA05B0A8
:104A7C0030BD00001FB5074B69460393064B0090F1
:104A8C0008300293FFF792FE6846FEF79BFA05B0DA
:104A9C0000BDC046FD440008331600081FB50400D5
:104AAC00144B69460393144B009008300293FFF7A4
:104ABC007DFE6846FEF786FA2000104B694603938C
:104ACC000F4B183002930094FFF770FE6846FEF708
:104ADC0079FA20000B4B694603930B4B3830029349
:104AEC000094FFF763FE6846FEF76CFA2000FFF7B0
:104AFC0066FA1FBD234000084B1600083940000819
:104B0C0063160008094500087B1600087FB5284B82
:104B1C0004000393274B6946009008300293FFF77B
:104B2C0045FE6846FEF74EFA0023656868462B6022
:104B3C002149FEF709FB28000525019A0099FFF78A
:104B4C005FF9A36A606819884560FFF7BFF966686A
:104B5C0068461A49FEF7F8FA019A00993000FFF7F7
:104B6C004FF96068A36A45605988FFF7AFF966682A
:104B7C0068461349FEF7E8FA019A00993000FFF7EE
:104B8C003FF96068A36A45609988FFF79FF96668EA
:104B9C0068460C49FEF7D8FA30000099019AFFF7E5
:104BAC002FF96068A36A4560D988FFF78FF97FBD3C
:104BBC002D4500083B17000838C3000848C30008FF
:104BCC0058C3000868C300087FB50400274B69462A
:104BDC000393274B009008300293FFF7E7FD6846DC
:104BEC00FEF7F0F92000234B69460393224B183053
:104BFC0002930094FFF7DAFD6846FEF7E3F9200014
:104C0C001E4B694603931E4B383002930094FFF7FA
:104C1C00CDFD6846FEF7D6F920001A4B6946039382
:104C2C00194B283002930094FFF7C0FD6846FEF73D
:104C3C00C9F900250123666868463372356013494B
:104C4C00FEF782FA0099019A3000FFF7D9F8FEF7C7
:104C5C006FFA2300032288331D605D609D60DD6068
:104C6C0020001A61FFF75CF97FBDC0466D3F00085C
:104C7C00DB1600089D3F0008F316000821450008CC
:104C8C000B170008EB4D00082317000878C3000829
:104C9C001FB50400144B69460393144B0090083065
:104CAC000293FFF783FD6846FEF78CF92000104B4A
:104CBC00694603930F4B183002930094FFF776FD6F
:104CCC006846FEF77FF920000B4B694603930B4BAC
:104CDC00383002930094FFF769FD6846FEF772F9CD
:104CEC002000FFF7A7FA1FBDE94300089316000840
:104CFC00FF430008AB16000815450008C316000852
:104D0C0030B50400234B85B00393234B69460090C8
:104D1C0008300293FFF74AFD6846FEF753F96568C1
:104D2C002900280059310930FEF794F800232B6034
:104D3C0065681A4A2B6001332B72A36A68461B788C
:104D4C009B009958FEF700FA019A00992800FFF78A
:104D5C0057F81423656868462B601149FEF7F4F97F
:104D6C00019A00992800FFF74BF8636B1978FFF74D
:104D7C00ADF828236468684623600A49FEF7E4F915
:104D8C000099019A2000FFF73BF8FEF7B3F905B044
:104D9C0030BDC046F14400081B16000820CF0008A7
:104DAC0087C300088EC30008002370B583608B682E
:104DBC0004000D00002B05D002229847EB68E3603D
:104DCC00AB68A360200070BD07B583680191002B10
:104DDC0001D107F071F9C36801A9984707BD0068B4
:104DEC0070B5020098321368013B1360002B0DDA8A
:104DFC00030000210A2588339A4203D0694310CB63
:104E0C000919F9E77830FFF7DFFF70BDFFF788F875
:104E1C00FBE7000070B50C000978FC30826A490988
:104E2C00C069FEF7D9FB01212278C368154D5208E1
:104E3C000A402B4052021A43C2602378C2689B0876
:104E4C000B4011491B030A401343C36023780269CA
:104E5C000E49DB069B0F1B030A40134303612378A7
:104E6C00DB070AD58023C268DB001343C3608023B1
:104E7C00C2689B011343C36070BDC368044A1340EE
:104E8C00F4E7C046FFFDFFFFFFEFFFFFFFCFFFFF83
:104E9C00FFFBFFFF0023FC3010B504004360836070
:104EAC004069FEF745FA0122216A0B6893430B60B7
:104EBC00636A196891431960FF21596019680A43A4
:104ECC001A601A68D207FCD51023E269D1680B432B
:104EDC00D36010BD70B584682500A8352B68FC33F1
:104EEC00D96A9869FEF7CAFB002805D02868FFF735
:104EFC00D1FF2000FEF7DCF870BD10B58468236983
:104F0C00FC33D96A9869FEF7B9FB002802D02069F6
:104F1C00FFF7C0FF10BD036842791B889A4201D28B
:104F2C000122827102799A4201D90023837180791E
:104F3C007047036810B51B780400DB0909D1406881
:104F4C00FFF7E9FF2168002804D020220B78934357
:104F5C000B7010BD01200A789306DB0F4340034011
:104F6C001F305B0182431343F2E7036810B51B78D3
:104F7C000400DB0909D14068FFF7CDFF2168002848
:104F8C0004D010220B7893430B7010BD01200A78CB
:104F9C00D306DB0F434003400F301B018243134306
:104FAC00F2E7026810B513780400D8090CD0097820
:104FBC0000290AD06068FFF7AEFF002804D1102347
:104FCC00226811780B43137010BD10218B43FAE744
:104FDC00026810B513780400D8090CD009780029A0
:104FEC000AD06068FFF797FF002804D120232268BD
:104FFC0011780B43137010BD20218B43FAE700008E
:10500C00FF23F0B51D00064F064E0C7801315C40B5
:10501C003B5D6B40355D8A42F7D105704370F0BD46
:10502C0018CD000818CE0008F7B50120814D01916C
:10503C002968814B814A824C01426BD1814E824955
:10504C003768074204D1814F30600F600C274F60E6
:10505C0010209E69304398610E687D497068084045
:10506C00802189020143716001267A487A490768D8
:10507C00374204D1794F06600F6002274F60202021
:10508C009E69304398610E687548316808408021EC
:10509C00890001430120316072490E68064205D136
:1050AC00714E724F08603760032777600821012624
:1050BC0098696D4F0143996139688C469969314300
:1050CC00996150686A490840802189040143516004
:1050DC00614668480968084080218901014360469F
:1050EC0001605948644920615B48083160615F4840
:1050FC002160E0610198002120626048616060627B
:10510C005F48A160A06220003030A181A7610170CE
:10511C0061632E6001255B485B4906682E4204D111
:10512C00524E05600E6004264E6008209D6928438F
:10513C009861086801219D690D439D6156684C4D2D
:10514C002E408025AD04354355600568404A154016
:10515C00802292022A4302604C484D4A05680D4257
:10516C0004D1424D016015600525556008219869F0
:10517C0001439961106847490268114080229203EB
:10518C000A43026001204449444A0D68054204D197
:10519C00364D086015600625556008219869014355
:1051AC00996110683E4902681140802292040A43BA
:1051BC00026001203B493C4A0D68054204D12B4D4D
:1051CC0008601560072555600821986901439961AD
:1051DC00116880220B6892051B011B0913430B609D
:1051EC002000FEF755F9237B002B21D101332373CB
:1051FC002E4BDA686260002A00D094609A68DC60FA
:10520C00002A00D19C60022101225961284B1868A8
:10521C009043186027485860002098601D6804303F
:10522C002843186018680143196019680A431A600A
:10523C002000FEBD5802002000100240000001407A
:10524C005C020020AC020020B002002000100140E3
:10525C00FFFFF0FFA0020020A40200200014014078
:10526C00FFF0FFFF9402002098020020000C014088
:10527C00FFFFFFF8FF0FFFFFE4DF0008C0CF0008BF
:10528C00C0D700084C020020500200204002002031
:10529C0044020020FFFF0FFF3402002038020020E0
:1052AC00FFFFFFF0280200202C020020DC09002068
:1052BC0010E000E09F8C000010B504000CC90CC07D
:1052CC00FFF7E7F8200010BD70B504001D00134B6C
:1052DC004160036011000830FFF7B6F82000290088
:1052EC006830FFF7D6F8200004997830FFF7E4FF18
:1052FC00200005999030FFF7DFFF20000699A830B9
:10530C00FFF7DAFF20000799C030FFF7D5FF220026
:10531C000023D83220001360536070BD70C60008A3
:10532C0082B0F8B5040007930AAB18780BAB207168
:10533C0020001B780F4F63712760A1600C301100A7
:10534C00099EFFF781F820000C996C30FFF7A1F84B
:10535C0020000D997C30FFF79CF8230007AD8C33AF
:10536C0006CD06C3327820001E601A71F8BC08BC4A
:10537C0002B01847C0C60008F0B51C00FE4BE7B0E1
:10538C000700083315000891002203600100030098
:10539C000600193742608260027310330261426169
:1053AC000276693138000793FDF754FD390000206F
:1053BC00FFF73AFE089B6D9933676C9B7567F36733
:1053CC00331DF066B467D9676E990433D967310021
:1053DC0000228033F0315A60196008330893E74B90
:1053EC0048AD4896EB60E64B4EACAB6009912000A3
:1053FC002900FFF709F8E34B42AF3F93E24B3CA97E
:10540C0038003E933C96FEF7FFFFE04B30A93393F8
:10541C00DF4B36A832933096FEF7F6FFDD4B24A90E
:10542C002793DD4B2AA826932496FEF7EDFFDB4B42
:10543C0018A91B93DA4B1EA81A931896FEF7F4FFC3
:10544C00D84B10A91393D84B14A812931096FEF7AF
:10545C00EBFF21000898FEF7D7FF30003900A03091
:10546C00FEF7D2FF300036A9B030FEF7CDFF330087
:10547C00C03318002AA90C93FEF7C6FF30001EA9F2
:10548C00D030FEF7D1FF300014A9E030FEF7CCFF8E
:10549C0014A8FDF797FD10A8FDF794FD1EA8FDF7C5
:1054AC0091FD18A8FDF78EFD2AA8FDF78BFD24A809
:1054BC00FDF788FD36A8FDF785FD30A8FDF782FDC8
:1054CC003800FDF77FFD3CA8FDF77CFD2000FDF7C3
:1054DC0079FD2800FDF776FDB44B4896EB60B44B94
:1054EC002900AB602000FEF78FFFB24B3CA93F9325
:1054FC00B14B38003E933C96FEF7CBFFF36F099906
:10550C000B93331DDB6F30000A93AC4BF8300B6000
:10551C000B00079959602100FEF776FF3000093027
:10552C003900FF30FEF7B5FF00220B9B09990E33B3
:10553C008B620A9B0A640A33CB620A9B38000E33D7
:10554C000B630A9B12334B630A9B08338B630B9BD5
:10555C001033CB63FDF736FD3CA8FDF733FD20007F
:10556C00FDF730FD2800FDF72DFD08992000FEF712
:10557C006BFF934B2AA92D93924B30A82C932A9610
:10558C00FEF787FF28009049FDF7DEFD8F4B4A960A
:10559C006B618F4B38002B618E49FDF7D5FD8E4B1F
:1055AC0044967B618D4B8E493B613CA8FDF7CCFD4D
:1055BC008C4B8D4941938D4B36A840933E96FDF70D
:1055CC00C3FD30008A4B35303B938A4B22003A9313
:1055DC0036AB03933CAB009507990293019730AB24
:1055EC00FF303896FFF770FE38A8FDF7EBFC3EA8AD
:1055FC00FDF7E8FC44A8FDF7E5FC4AA8FDF7E2FC42
:10560C0030A8FDF7DFFC2AA8FDF7DCFC2000FDF735
:10561C00C9FF08992000FEF717FF774B30A9339389
:10562C00764B36A832933096FEF733FF2800744938
:10563C00FDF78AFD734B4A966B61734B38002B61F7
:10564C007249FDF781FD724B72497B61724B3CA82C
:10565C003B61FDF779FD714B714A4193714B079991
:10566C00409385239B00F250F318596087239B00CD
:10567C002100F018FEF7E8FE9F239B00F01836A9D6
:10568C00FEF707FFA3239B002900F018FFF714FE79
:10569C00A9239B003900F018FFF70EFEAF239B00E7
:1056AC003CA9F018FFF708FEB52300229B00F31865
:1056BC001A60B6239B00F3181A603EA8FDF782FC13
:1056CC0044A8FDF77FFC4AA8FDF77CFC36A8FDF743
:1056DC0079FC30A8FDF776FC2000FDF763FF28006D
:1056EC000C99FEF791FE29002000FEF78DFE4E4B23
:1056FC003CA93F934D4B38003E933C96FEF7C9FEB8
:10570C00331DDB6F4A4A0A93B72307999B00F2506B
:10571C00F31809935960B9239B002100F018FEF788
:10572C0073FEBD239B003900F018FEF7B2FE0A9BF6
:10573C00099916338B620A9B38001233CB620A9B91
:10574C0008330B63FDF73EFC3CA8FDF73BFC200047
:10575C00FDF738FC2800FDF735FC08992000FEF712
:10576C0073FE344B36A93993334B3CA83893369699
:10577C00FEF78FFE62E0C046D8DF00085F700008BD
:10578C0097170008AF6F0008AF170008E76F000805
:10579C00C717000807700008DF170008959200086B
:1057AC00F71700085D9200080F1800083F700008FA
:1057BC0027180008732E00083F180008F8C50008C9
:1057CC00D92600085718000897C30008852E000832
:1057DC006F1800089EC30008972E00088718000851
:1057EC00A8C30008A92E0008B5C300089F1800081C
:1057FC0021270008B7180008BB2E0008CF18000896
:10580C00C0C3000835270008E7180008D0C30008FB
:10581C00FF180008E3C3000801190008712E0008E6
:10582C0084C600080B190008E926000815190008A1
:10583C000CC60008472700082D1900082800FE494F
:10584C00FDF782FCFD4B4A966B61FD4B38002B61DA
:10585C00FC49FDF779FCFC4B44967B61FB4BFC4A05
:10586C003B61C42307999B00F250F3185960C6237F
:10587C009B002100F018FEF7E7FDDE239B00F018DB
:10588C003CA9FEF706FEE2239B002900F018FFF767
:10589C0013FDE8239B003900F018FFF70DFDEE23F4
:1058AC0000229B00F3181A60EF239B00F3181A6078
:1058BC0044A8FDF787FB4AA8FDF784FB3CA8FDF73D
:1058CC0081FB36A8FDF77EFB2000FDF76BFE0899E7
:1058DC002000FEF7B9FDDF4B4296FB60DE4B280043
:1058EC003900BB60FEF7D5FD331DDB6FDB4A0A9335
:1058FC00F02307999B00F250F31809935960F22397
:10590C009B002100F018FEF79FFD8523DB0029008A
:10591C00F018FEF7BEFD0A9B09992C338B670A9B86
:10592C0000221233CB67F1239B00F3182800DA67AF
:10593C00FDF748FB3800FDF745FB2000FDF732FE74
:10594C000123C748089933502000FEF77DFD30AB8A
:10595C001800C449FDF7F8FBC34B4296FB60C34BE0
:10596C0028003900BB60FEF794FDC14B36A9399372
:10597C00C04B369638933CAB1800FEF78AFD309B33
:10598C0001210993319BBC4A0A938923DB00F25015
:10599C00F318596099600799D9608B23DB002100BB
:1059AC00F018FEF751FD9723DB002900F018FEF7E5
:1059BC0070FD9923DB00F0183CAB1900FEF769FD74
:1059CC009B230999DB00F1500A99AC4BA448F15088
:1059DC0004333218F3181A60A94B3058F3181860B6
:1059EC003CA8FDF7EFFA36A8FDF7ECFA2800FDF716
:1059FC00E9FA3800FDF7E6FA2000FDF7D3FD089927
:105A0C002000FEF721FD9F4B2AA82D939E4B0100F1
:105A1C0030A82C932A96FEF73CFD28009B49FDF7F5
:105A2C0093FB9B4B4A966B619A4B38002B619A49BE
:105A3C00FDF78AFB994B44967B61994B99493B61E5
:105A4C003CA8FDF781FB984B98494193984B36A89D
:105A5C0040933E96FDF778FB9D20964BC0003B9300
:105A6C00954B00953A9336AB03933CAB22000799C8
:105A7C000293019730AB30183896FFF725FC38A805
:105A8C00FDF7A0FA3EA8FDF79DFA44A8FDF79AFA97
:105A9C004AA8FDF797FA30A8FDF794FA2AA8FDF763
:105AAC0091FA2000FDF77EFD08992000FEF7CCFC52
:105ABC00824B4296FB60824B28003900BB60FEF79C
:105ACC00E8FC301DC36FF06F12330A93B9237D4A83
