:020000040800F2
:10000000005000200139000849390008493900082A
:100010004939000849390008493900080000000042
:100020000000000000000000000000004939000846
:10003000493900080000000049390008B10A0008E9
:10004000FD0D0008FF0D0008010E0008030E00085A
:10005000050E0008070E0008090E0008250E00080E
:10006000410E00085D0E0008790E0008FD0F000823
:100070001D1000083D1000085D1000087D100008EC
:100080009D100008BD100008950E0008970E00088E
:10009000990E00089B0E00089D0E0008A10E000896
:1000A0000D0F00080F0F0008110F0008130F0008B4
:1000B000150F0008170F0008190F00081B0F000884
:1000C0001D0F00081F0F0008210F0008230F000854
:1000D000250F0008A90F0008C50F0008E10F000850
:1000E000290F0008A50F0008A70F00080000000056
:1000F0000000000000000000000000000000000000
:0C01000000000000000000005FF808F1A3
:10010C0010B5064C2378002B07D1054B002B02D0E1
:10011C000448AFF300800123237010BD7C00002045
:10012C000000000004430008044B10B5002B03D062
:10013C0003490448AFF3008010BDC0460000000026
:10014C0080000020044300080023C25C0133002A15
:10015C00FBD1581E70470000002243088B4274D319
:10016C0003098B425FD3030A8B4244D3030B8B42AC
:10017C0028D3030C8B420DD3FF22090212BA030CB5
:10018C008B4202D31212090265D0030B8B4219D396
:10019C0000E0090AC30B8B4201D3CB03C01A5241B6
:1001AC00830B8B4201D38B03C01A5241430B8B42FE
:1001BC0001D34B03C01A5241030B8B4201D30B03E7
:1001CC00C01A5241C30A8B4201D3CB02C01A52410E
:1001DC00830A8B4201D38B02C01A5241430A8B42D1
:1001EC0001D34B02C01A5241030A8B4201D30B02BA
:1001FC00C01A5241CDD2C3098B4201D3CB01C01AD4
:10020C00524183098B4201D38B01C01A52414309DD
:10021C008B4201D34B01C01A524103098B4201D3CB
:10022C000B01C01A5241C3088B4201D3CB00C01A38
:10023C00524183088B4201D38B00C01A52414308B0
:10024C008B4201D34B00C01A5241411A00D20146D5
:10025C00524110467047FFE701B5002000F006F848
:10026C0002BDC0460029F7D076E770477047C046FC
:10027C0070474369013343617047012A03D0022A56
:10028C0003D0002070470160FBE70B680360F8E7C0
:10029C0010B50368984710BD012A03D0022A03D079
:1002AC00002070470160FBE70B680360F8E7012A48
:1002BC0003D0022A03D0002070470160FBE70B68D3
:1002CC000360F8E7012A03D0022A03D0002070470C
:1002DC000160FBE70B680360F8E7012A03D0022AF0
:1002EC0003D0002070470160FBE70B680360F8E760
:1002FC00012A03D0022A03D0002070470160FBE7DB
:10030C000B680360F8E7012A03D0022A03D000200F
:10031C0070470160FBE70B680360F8E7012A03D024
:10032C00022A03D0002070470160FBE70B680360D2
:10033C00F8E7012A03D0022A03D00020704701609D
:10034C00FBE70B680360F8E7012A03D0022A03D00D
:10035C00002070470160FBE70B680360F8E770470B
:10036C00012A00D1016000207047012A03D0022A23
:10037C0003D0002070470160FBE70B680360F8E7CF
:10038C007047012A00D1016000207047012A03D078
:10039C00022A03D0002070470160FBE70B68036062
:1003AC00F8E7012A03D0022A03D00020704701602D
:1003BC00FBE70B680360F8E7012A03D0022A03D09D
:1003CC00002070470160FBE70B680360F8E7012A27
:1003DC0003D0022A03D0002070470160FBE70B68B2
:1003EC000360F8E7012A03D0022A03D000207047EB
:1003FC000160FBE70B680360F8E77047012A00D146
:10040C000160002070477047012A00D10160002074
:10041C0070477047012A00D1016000207047012A03
:10042C0003D0022A03D0002070470160FBE70B6861
:10043C000360F8E7012A03D0022A03D0002070479A
:10044C000160FBE70B680360F8E7012A03D0022A7E
:10045C0003D0002070470160FBE70B680360F8E7EE
:10046C00012A03D0022A03D0002070470160FBE769
:10047C000B680360F8E7012A03D0022A03D000209E
:10048C0070470160FBE70B680360F8E77047012ACF
:10049C0000D1016000207047012A03D0022A03D04A
:1004AC00002070470160FBE70B680360F8E7012A46
:1004BC0003D0022A03D0002070470160FBE70B68D1
:1004CC000360F8E7012A03D0022A03D0002070470A
:1004DC000160FBE70B680360F8E7012A03D0022AEE
:1004EC0003D0002070470160FBE70B680360F8E75E
:1004FC00012A03D0022A03D0002070470160FBE7D9
:10050C000B680360F8E7012A03D0022A03D000200D
:10051C0070470160FBE70B680360F8E7012A03D022
:10052C00022A03D0002070470160FBE70B680360D0
:10053C00F8E7012A03D0022A03D00020704701609B
:10054C00FBE70B680360F8E77047012A00D10160F4
:10055C00002070477047012A00D1016000207047CD
:10056C007047012A00D10160002070477047012AB2
:10057C0000D1016000207047012A03D0022A03D069
:10058C00002070470160FBE70B680360F8E7012A65
:10059C0003D0022A03D0002070470160FBE70B68F0
:1005AC000360F8E7012A03D0022A03D00020704729
:1005BC000160FBE70B680360F8E7012A03D0022A0D
:1005CC0003D0002070470160FBE70B680360F8E77D
:1005DC00012A03D0022A03D0002070470160FBE7F8
:1005EC000B680360F8E7012A03D0022A03D000202D
:1005FC0070470160FBE70B680360F8E77047012A5E
:10060C0000D10160002070477047012A00D10160C1
:10061C00002070477047012A00D10160002070470C
:10062C00012A03D0022A03D0002070470160FBE7A7
:10063C000B680360F8E7012A03D0022A03D00020DC
:10064C0070470160FBE70B680360F8E7012A03D0F1
:10065C00022A03D0002070470160FBE70B6803609F
:10066C00F8E7012A03D0022A03D00020704701606A
:10067C00FBE70B680360F8E7012A03D0022A03D0DA
:10068C00002070470160FBE70B680360F8E7012A64
:10069C0003D0022A03D0002070470160FBE70B68EF
:1006AC000360F8E7012A03D0022A03D00020704728
:1006BC000160FBE70B680360F8E7012A03D0022A0C
:1006CC0003D0002070470160FBE70B680360F8E77C
:1006DC00012A03D0022A03D0002070470160FBE7F7
:1006EC000B680360F8E7012A03D0022A03D000202C
:1006FC0070470160FBE70B680360F8E770477047D1
:10070C00704770470300083310B50400D86F3221CE
:10071C00421CDA67FFF7A6FD002904D10434E06F10
:10072C0003685B68984710BD012A03D0022A03D0E6
:10073C00002070470160FBE70B680360F8E7012AB3
:10074C0003D0022A03D0002070470160FBE70B683E
:10075C000360F8E703685A6E1B6E1A607047012A33
:10076C0003D0022A03D0002070470160FBE70B681E
:10077C000360F8E7012A03D0022A03D00020704757
:10078C000160FBE70B680360F8E7012A03D0022A3B
:10079C0003D0002070470160FBE70B680360F8E7AB
:1007AC00012A03D0022A03D0002070470160FBE726
:1007BC000B680360F8E703685A6E1B6E1A6070478B
:1007CC00012A03D0022A03D0002070470160FBE706
:1007DC000B680360F8E7012A03D0022A03D000203B
:1007EC0070470160FBE70B680360F8E7012A03D050
:1007FC00022A03D0002070470160FBE70B680360FE
:10080C00F8E7012A03D0022A03D0002070470160C8
:10081C00FBE70B680360F8E7012A03D0022A03D038
:10082C00002070470160FBE70B680360F8E7012AC2
:10083C0003D0022A03D0002070470160FBE70B684D
:10084C000360F8E7012A03D0022A03D00020704786
:10085C000160FBE70B680360F8E7012A03D0022A6A
:10086C0003D0002070470160FBE70B680360F8E7DA
:10087C00012A03D0022A03D0002070470160FBE755
:10088C000B680360F8E7012A03D0022A03D000208A
:10089C0070470160FBE70B680360F8E710B50400D4
:1008AC00002C05D0236820001B6898476468F7E784
:1008BC0010BD0000482210B50300007A5143114AC4
:1008CC00002807D090681860814201D3081A58603C
:1008DC00002018721C68A14208D892680120A41A42
:1008EC00A14202D8012200201A7210BD9168012089
:1008FC008C42FAD8516892688A1A59688A42F1D2A5
:10090C00F3E7C04610E000E070B50C00050000688D
:10091C0003689B689847236820001B682C609847E5
:10092C00042003F00CF8094A136C9900885008490C
:10093C0001330B4004D51021013B49420B430133D9
:10094C000421136403F014F870BDC0462C0200207F
:10095C000F000080006810B501008030B831FFF73F
:10096C00D3FF10BD006810B5010080308831FFF74F
:10097C00CBFF10BD006810B501007931FF3180301C
:10098C00FFF7C2FF10BD882310B500689B00C1188B
:10099C008030FFF7B9FF10BD006810B50100803042
:1009AC00B831FFF7B1FF10BD006810B50100803001
:1009BC00B831FFF7A9FF10BD8C2310B50068DB0020
:1009CC00C1188030FFF7A0FF10BDB82310B5006828
:1009DC009B00C1188030FFF797FF10BDE82310B5BE
:1009EC0000689B00C1188030FFF78EFF10BD882374
:1009FC0010B500689B00C1188030FFF785FF10BD53
:100A0C00882310B500689B00C1188030FFF77CFF6D
:100A1C0010BD9A2310B50068DB00C1188030FFF7B9
:100A2C0073FF10BD882310B500689B00C11880307F
:100A3C00FFF76AFF10BD882310B500689B00C11832
:100A4C008030FFF761FF10BD10B50A1A02D02021CB
:100A5C0002F0EBFF10BD10B50468002C05D0236824
:100A6C0020001B689847A468F7E710BD10B5836891
:100A7C000400002B02D0032201009847200010BD77
:100A8C0010B504000830FFF7E6FF20696169431CCC
:100A9C002361FFF7E7FB002902D12000FFF7DBFF02
:100AAC0010BD000010B50248FFF7EAFF10BDC046AC
:100ABC0014020020416902690023914201D3436171
:100ACC000133180070470000037B002B0DD000236E
:100ADC00426803738368002A0ED0002B08D0936001
:100AEC0083685A6000234360836070470B60F8E7AB
:100AFC00044993604A60F5E70249002BF6D10B607C
:100B0C004B60EFE714020020002310B54361FFF7A0
:100B1C00DBFF10BD037B002B0CD101330373064BA1
:100B2C005A684260002A00D090601A685860002A07
:100B3C0000D118607047C0461402002003685A1C8C
:100B4C00C31802605972704710B504001421206854
:100B5C00FFF788FB002904D020212000FFF7EEFFCF
:100B6C00F4E7200010BD70B5040000200D00814298
:100B7C0002D00800FFF7E8FA20606560200070BD25
:100B8C0070B504000D0000681421FFF7E5FA0300AE
:100B9C001420584350214019FFF764FB20002160BA
:100BAC0070BD012302684068116983400B431361D7
:100BBC0070470123426810B51032934001680C69EC
:100BCC0023430B6110BD036810B504009869FFF74F
:100BDC00F0FF64216068FFF76DFE0028F9D12368EF
:100BEC009869FFF7DEFF64216068FFF763FE002859
:100BFC00F9D110BD70B504000D000368ED00186943
:100C0C00FFF7D7FF23686068DA699B6AEB581361BA
:100C1C00FFF7D9FF23686068DA699B6A5D196B6816
:100C2C001361FFF7D0FF3221A068FFF743FE0028C5
:100C3C00F9D170BD70B5437B0400012B20D0002B83
:100C4C0002D0022B27D070BD4069FFF7B2FF20699C
:100C5C00FFF7A7FF206B5021431C2363FFF702FB18
:100C6C00114B8900256ACB58626AEB5CDB00D31808
:100C7C001968E2695B681161E36201236373E2E75F
:100C8C008069FFF78EFFA069FFF793FFE369E26AC3
:100C9C001A610223F2E78069FFF783FFA069FFF76F
:100CAC0088FF0023EAE7C0461C440008036842683A
:100CBC00012090409B681840431E9841C0B2704779
:100CCC0070B50600437A04000C36002B05D00023C7
:100CDC00C16143723000FFF71DFF3000FFF7EAFEE1
:100CEC000125002804D03000FFF70EFF65720025A7
:100CFC00280070BDF0B500268FB005AC05000C22A5
:100D0C00310009A80596666002F08FFE012363721C
:100D1C0023726B46354FE661E760266200950194BD
:100D2C0002950393049414212000FFF7C9FF0028B7
:100D3C00F9D12869FFF73DFF6869FFF73AFFA86909
:100D4C00FFF72FFFAA6AEB69D26968461A61FFF7B1
:100D5C003AFF05212000FFF7B3FF0028F9D1AA6A5A
:100D6C00EB69D26968461A61FFF72DFF64212000F8
:100D7C00FFF7A0FD0028F9D1AA6AEB69D269684691
:100D8C001A61FFF720FF32212000FFF793FD0028A6
:100D9C00F9D1AA6AEB69526968461A61FFF713FF29
:100DAC0032212000FFF786FD0028F9D1282102A866
:100DBC00FFF720FF0C2102A8FFF71CFF062102A859
:100DCC00FFF718FF012102A8FFF714FF802102A8EA
:100DDC00FFF710FF01212000FFF772FF0028F9D167
:100DEC0008A8E760FFF770FE0FB0F0BD24430008C1
:100DFC00FEE7FEE7FEE7FEE7FEE7FEE7044B10B575
:100E0C001868FFF74BFD0122024B5A6110BDC0461A
:100E1C007401002000040140044B10B51868FFF762
:100E2C003DFD0222024B5A6110BDC0467C010020E0
:100E3C0000040140044B10B51868FFF72FFD042285
:100E4C00024B5A6110BDC046B401002000040140A1
:100E5C00044B10B51868FFF721FD0822024B5A61AC
:100E6C0010BDC046BC01002000040140044B10B56D
:100E7C001868FFF713FD1022024B5A6110BDC046D3
:100E8C00C401002000040140FEE7FEE7FEE7FEE798
:100E9C00FEE7000010B5144C63699B0603D5134B99
:100EAC001868FFF7FBFC63695B0603D5104B1868E9
:100EBC00FFF7F4FC63691B0603D50E4B1868FFF7AC
:100ECC00EDFC6369DB0503D50B4B1868FFF7E6FCFB
:100EDC0063699B0503D5094B1868FFF7DFFCF82302
:100EEC009B00636110BDC04600040140CC01002092
:100EFC00D4010020DC010020E4010020EC010020E2
:100F0C00FEE7FEE7FEE7FEE7FEE7FEE7FEE7FEE7AD
:100F1C00FEE7FEE7FEE7FEE7FEE7000010B5174C24
:100F2C0063695B0503D5164B1868FFF7B7FC63695B
:100F3C001B0503D5134B1868FFF7B0FC6369DB0482
:100F4C0003D5114B1868FFF7A9FC63699B0403D503
:100F5C000E4B1868FFF7A2FC63695B0403D50C4BBE
:100F6C001868FFF79BFC63691B0403D5094B1868D1
:100F7C00FFF794FCFC231B02636110BD00040140CD
:100F8C00840100208C010020940100209C01002091
:100F9C00A4010020AC010020FEE7FEE7044B10B5D5
:100FAC001868FFF77BFC034B1A685B6810BDC046E2
:100FBC00FC01002000380140044B10B51868FFF705
:100FCC006DFC034B1A685B6810BDC0460402002020
:100FDC0000440040044B10B51868FFF75FFC034B4E
:100FEC001A685B6810BDC0460C0200200048004027
:100FFC00054B10B51868FFF751FC0123034A5168E3
:10100C000B43536010BDC0463C0100200000024061
:10101C00054B10B51868FFF741FC1023034A5168C3
:10102C000B43536010BDC046440100200000024039
:10103C00054B10B51868FFF731FC8023034A5B00A1
:10104C0051680B43536010BD4C010020000002405E
:10105C00054B10B51868FFF721FC8023034A5B0190
:10106C0051680B43536010BD540100200000024036
:10107C00054B10B51868FFF711FC8023034A5B027F
:10108C0051680B43536010BD5C010020000002400E
:10109C00054B10B51868FFF701FC8023034A5B036E
:1010AC0051680B43536010BD6401002000000240E6
:1010BC00054B10B51868FFF7F1FB8023034A5B045E
:1010CC0051680B43536010BD6C01002000000240BE
:1010DC0010221F4B19680A4307211A601A688A43A9
:1010EC00110002220A431A6080221A4B520219681C
:1010FC000A431A601A689203FCD5F0215A688A4395
:10110C005A605A68144911408022D2000A435A602E
:10111C005A6812490A405A608022596852020A439E
:10112C005A605A680E491140E02252030A435A6031
:10113C008022196852040A431A601A689201FCD57D
:10114C0003215A688A43110002220A435A607047ED
:10115C000020024000100240FFF8FFFFFFC7FFFF16
:10116C00FFFFC3FF70B515000C1A04D0010022005C
:10117C00280002F047FC281970BD0300F0B50933B4
:10118C0087B00193036816000293029A019B050035
:10119C009A18037A0C00002B27D013291CD814277B
:1011AC007F1A7F08D7197B18100039000393FFF7BB
:1011BC004BFC31193A003000FFF7D4FF0299019B28
:1011CC00143159180398FFF73FFC2868143050214C
:1011DC00FFF748F8296016E008001438400830186A
:1011EC0001001431FFF7BEFFEFE75021029BC91A33
:1011FC0033190293A1420BD919003000FFF7B2FF4B
:10120C002B681C192C60002328002B7207B0F0BD32
:10121C00270071183000FFF7A5FF2B68503FFF180F
:10122C00E41B36193000019A5036502F04D9310086
:10123C00FFF798FF503FF5E70299FFF793FF2B68F4
:10124C00F818C4E730B5050089B00A0005A81049A4
:10125C0002F0F8FC05A901A8FFF785FC6C68019B5E
:10126C009C4207D9E41A013C04D320212800FFF743
:10127C0065FCF8E705A903A8FFF775FC0399049A28
:10128C002800FFF77AFF002328006B6009B030BDFF
:10129C00F445000828220300406810B50260D96AA2
:1012AC004A1CDA62FFF7CEFF10BD036810B55A6E08
:1012BC00D96E01325A668A4201DD9A6E5A66142240
:1012CC0058680260596EFFF7BDFFFFF73DFC10BD7B
:1012DC00036810B55A6E996E013A5A668A4201DA61
:1012EC00DA6E5A66142258680260596EFFF7AAFF2C
:1012FC00FFF72AFC10BD0000036813B55A6ED96EB7
:10130C0001325A668A4201DD9A6E5A6614225C6872
:10131C00684622605B6E064A9B009958FFF723FCD7
:10132C000099019A2000FFF728FFFFF70DFC13BD71
:10133C005C450008036813B55A6E996E013A5A66FB
:10134C008A4201DADA6E5A6614225C6868462260B8
:10135C005B6E064A9B009958FFF705FC0099019AB1
:10136C002000FFF70AFFFFF7EFFB13BD5C450008F9
:10137C00F7B505682A00A4321368002B28D02E007C
:10138C001424A036013B136033686868634313214F
:10139C000360FFF7F5FB07000E496846FFF7E3FB18
:1013AC00019A00993800FFF7E8FE33686868013B42
:1013BC005C43336013210460FFF7E2FB0400064931
:1013CC006846FFF7D0FB0099019A2000FFF7D5FE85
:1013DC00F7BDC046FE560008E4560008F7B5056890
:1013EC002A00A4321368022B28D02E001424A03615
:1013FC000133136033686868634313210360FFF79C
:10140C00BFFB07000E496846FFF7ADFB019A009938
:10141C003800FFF7B2FE3368686801335C43336011
:10142C0013210460FFF7ACFB040006496846FFF784
:10143C009AFB0099019A2000FFF79FFEF7BDC0466A
:10144C00FE560008E4560008F7B505682A00BC32C1
:10145C001368002B28D02E001424B836013B1360DF
:10146C0033686868634313210360FFF789FB070047
:10147C000E496846FFF777FB019A00993800FFF791
:10148C007CFE33686868013B5C4333601321046065
:10149C00FFF776FB040006496846FFF764FB0099EA
:1014AC00019A2000FFF769FEF7BDC046FE56000802
:1014BC00E4560008F7B505682A00BC321368032B04
:1014CC0028D02E001424B8360133136033686868B2
:1014DC00634313210360FFF753FB07000E49684673
:1014EC00FFF741FB019A00993800FFF746FE33687D
:1014FC00686801335C43336013210460FFF740FBE1
:10150C00040006496846FFF72EFB0099019A20005B
:10151C00FFF733FEF7BDC046FE560008E456000840
:10152C00002370B583608B6804000D00002B05D080
:10153C0002229847EB68E360AB68A360200070BDA3
:10154C00002370B583608B6804000D00002B05D060
:10155C0002229847EB68E360AB68A360200070BD83
:10156C00836810B5002B01D102F006FAC3689847C6
:10157C0010BD10B500681830FFF7F2FF10BD10B5A4
:10158C0000684830FFF7ECFF10BD10B5006848301C
:10159C00FFF7E6FF10BD006818220300A4331B6898
:1015AC0010B55343C0186030FFF7DAFF10BD10B50B
:1015BC0000684830FFF7D4FF10BD00681822030004
:1015CC00BC331B6810B55343C0186030FFF7C8FF1D
:1015DC0010BD10B500684830FFF7C2FF10BD83681E
:1015EC0010B5002B01D102F0C7F9C368984710BDA4
:1015FC001FB5074B69460093064B08300393064B07
:10160C000293FFF7ECFF6846FFF730FA05B000BD18
:10161C007D0200089D020008A5020008F0B5040038
:10162C0085B0184F184E194D69460830009703962F
:10163C000295FFF7D4FF6846FFF718FA20006946B9
:10164C001830009703960295FFF7C9FF6846FFF71D
:10165C000DFA200069462830009703960295FFF793
:10166C00BEFF6846FFF702FA200069463830009743
:10167C0003960295FFF7B3FF6846FFF7F7F905B03D
:10168C00F0BDC0467D0200089D020008A5020008BE
:10169C00F0B5040085B0184F184E194D6946083046
:1016AC00009703960295FFF79AFF6846FFF7DEF95D
:1016BC00200069461830009703960295FFF78FFFBC
:1016CC006846FFF7D3F92000694628300097039647
:1016DC000295FFF784FF6846FFF7C8F920006946BA
:1016EC003830009703960295FFF779FF6846FFF7AD
:1016FC00BDF905B0F0BDC0467D0200089D02000892
:10170C00A5020008F0B5040085B0184F184E194D0D
:10171C0069460830009703960295FFF760FF68460C
:10172C00FFF7A4F92000694618300097039602953C
:10173C00FFF755FF6846FFF799F9200069462830F6
:10174C00009703960295FFF74AFF6846FFF78EF95C
:10175C00200069463830009703960295FFF73FFF4B
:10176C006846FFF783F905B0F0BDC0467D0200085E
:10177C009D020008A5020008F0B5040085B0184FC2
:10178C00184E194D69460830009703960295FFF7DD
:10179C0026FF6846FFF76AF9200069461830009763
:1017AC0003960295FFF71BFF6846FFF75FF92000D1
:1017BC0069462830009703960295FFF710FF68469C
:1017CC00FFF754F9200069463830009703960295CC
:1017DC00FFF705FF6846FFF749F905B0F0BDC046B5
:1017EC007D0200089D020008A502000830B5040027
:1017FC001A4B85B003931A4B69460090083002933C
:10180C00FFF7EDFE6846FFF731F9656829002800FF
:10181C0059310930FFF718F900232B606568114A1C
:10182C002B6001332B72A36A68461B689B00995886
:10183C00FFF799F9019A00992800FFF79EFC64685C
:10184C0009496846FFF78FF90099019A2000FFF7C4
:10185C0094FCFFF779F905B030BDC0467F15000840
:10186C00870200085C450008ED45000870B50400CF
:10187C00424B88B00793424B04A90490083006935E
:10188C00FFF7ADFE04A8FFF7F1F820003D4B04A9CB
:10189C0007933D4B183006930494FFF7A0FE04A861
:1018AC00FFF7E4F82000394B04A90793384B283094
:1018BC0006930494FFF793FE04A8FFF7D7F82000D3
:1018CC00344B04A90793344B383006930494FFF738
:1018DC0086FE04A8FFF7CAF8002360680360E26D77
:1018EC00A16DFFF74AFCFFF72FF9616E6068FFF7F7
:1018FC00A9FCFFF729F9656828496846FFF733F911
:10190C00019A00992800FFF738FC0600244D02A824
:10191C002900FFF728F9039A02993000FFF72DFCF4
:10192C000600204904A8FFF71EF9059A0499300017
:10193C00FFF723FCFFF708F964681B496846FFF7BB
:10194C0012F9019A00992000FFF717FC04002900F6
:10195C0002A8FFF708F9039A02992000FFF70DFC83
:10196C000400124904A8FFF7FEF80499059A200018
:10197C00FFF703FCFFF7E8F808B070BD051300088B
:10198C0035070008411300084B07000861070008E1
:10199C006B0700088B15000881070008C845000874
:1019AC00E4560008D3450008DB450008E64500086E
:1019BC0070B50400424B88B00793424B04A90490C5
:1019CC0008300693FFF70BFE04A8FFF74FF8200032
:1019DC003D4B04A907933D4B183006930494FFF735
:1019EC00FEFD04A8FFF742F82000394B04A9079329
:1019FC00384B283006930494FFF7F1FD04A8FFF749
:101A0C0035F82000344B04A90793344B3830069337
:101A1C000494FFF7E4FD04A8FFF728F8002360689E
:101A2C000360E26DA16DFFF7A8FBFFF78DF8616E07
:101A3C006068FFF707FCFFF787F865682849684678
:101A4C00FFF791F8019A00992800FFF796FB060022
:101A5C00244D02A82900FFF786F8039A029930005A
:101A6C00FFF78BFB0600204904A8FFF77CF8059ACA
:101A7C0004993000FFF781FBFFF766F864681B4997
:101A8C006846FFF770F8019A00992000FFF775FB84
:101A9C000400290002A8FFF766F8039A02992000B7
:101AAC00FFF76BFB0400124904A8FFF75CF80499DC
:101ABC00059A2000FFF761FBFFF746F808B070BDF0
:101ACC00B712000897070008DD120008AD070008E0
:101ADC00C3070008CD07000897150008E3070008A6
:101AEC00C8450008E4560008D3450008DB4500084B
:101AFC00E645000810B504000CC90CC0FFF720FD2A
:101B0C00200010BD70B504001D001B4B416003602C
:101B1C0011000830FFF704FD200029001830FFF7F2
:101B2C00FFFC200004992830FFF7FAFC20000599EF
:101B3C003830FFF7F5FC200006994830FFF700FD20
:101B4C00200007995830FFF7D5FF20000899703016
:101B5C00FFF7D0FF200009998830FFF7CBFF20005A
:101B6C000A99A030FFF7C6FF22000023B8322000EC
:101B7C001360536070BDC04644430008F0B5CFB04D
:101B8C000C9300230B92F34A43608360037303614D
:101B9C004361037603000260010002001933103226
:101BAC0069310400180009920A93FEF74DFF0121D8
:101BBC00E94BEA481A68EA4B0A4269D1E94DEA4A0C
:101BCC002E680E4204D1E94E296016600C26566030
:101BDC0010219D69294399611568E54A696811408E
:101BEC00802292020A436A600125E249E24A0E68A9
:101BFC002E4204D1E14E0D60166002265660202163
:101C0C009D69DF4F294399611568DE492A681140A7
:101C1C00802292000A4301212A60DB4A15680D429A
:101C2C0004D10326D94D11602F606E600822012665
:101C3C0099690A439A61D54A156894469A69324360
:101C4C009A614168D24A1140802292040A43426050
:101C5C002A68D0491140802292010A432A60CE4D55
:101C6C00CE4A08351560C04D00211561C24D51603A
:101C7C005561654695610A9D91601562C84D117359
:101C8C005562C84D5173D76195621163B24A1660A3
:101C9C000121C54A15680D4204D10427C34DB84E25
:101CAC001160C0C5082299690A439A61BF4A9969B3
:101CBC0015680122114399614668B5490E4080218F
:101CCC008904314341602868A94908408021890270
:101CDC000143B74829600568B649154204D1A84D9F
:101CEC0002600D6005254D600822986902439A61D7
:101CFC000868B14902681140802292030A430260CD
:101D0C000120AE49AE4A0D68054204D19C4D0860D5
:101D1C001560062555600821986901439961106882
:101D2C00A84902681140802292040A4302600120F3
:101D3C00A549A64A0D68054204D1914D086015606D
:101D4C000725556008219869944D014399618021BC
:101D5C0012688905136828001B011B090B431360CB
:101D6C00FEF7C8FF2B7B002B22D101332B73984B32
:101D7C00DA686A60002A00D095609A68DD60002AF3
:101D8C0000D19D600A225A61924B093A196891431D
:101D9C001960914959600021996018680431014318
:101DAC001960022118680143196019680A431A6006
:101DBC000B9BE56623670C9B3CAF6367549B3C9481
:101DCC00A367559B3900E367230088330A930A9A6B
:101DDC00231DDA6700220433DA67804B36A8FB60D8
:101DEC007F4B48ADBB60FFF79BFB7E4B42AE4894EC
:101DFC00EB607D4B29003000AB60FFF7A1FBE36F7C
:101E0C000A9910330B93794B20000B600B00099946
:101E1C009030596036A9FFF783FB20003100A030C9
:101E2C00FFF78EFB00220A9B0B99DA629962300055
:101E3C00FEF71CFE2800FEF719FE36A8FEF716FE6C
:101E4C003800FEF713FE6A4B12A91593694B0EA8C6
:101E5C0014931294FFF764FB674B1AA91D93674BFD
:101E6C0016A81C931A94FFF75BFB654B22A92593CC
:101E7C00644B1EA824932294FFF752FB624B2AA9B1
:101E8C002D93624B26A82C932A94FFF749FB604BA9
:101E9C0032A935935F4B2EA834933294FFF750FB45
:101EAC0006230A2036935C4B0C2137935B4B4890EE
:101EBC003B935B4B20003A9309233C93594B429143
:101ECC007B60594B38947B61584B0EAA3B61584B45
:101EDC00B8307360574B44947361574B3361574B15
:101EEC006B60574B6B61574B2B6136AB0695059668
:101EFC00049703932EAB029326AB01931EAB099967
:101F0C00009316ABFFF7FEFD4AA8FEF7AFFD44A801
:101F1C00FEF7ACFD3EA8FEF7A9FD38A8FEF7A6FD1E
:101F2C002EA8FEF7A3FD32A8FEF7A0FD26A8FEF70B
:101F3C009DFD2AA8FEF79AFD1EA8FEF797FD22A884
:101F4C00FEF794FD16A8FEF791FD1AA8FEF78EFD7C
:101F5C007AE0C04618440008C80000200000014088
:101F6C0000100240180100201C010020001001404C
:101F7C00FFFFF0FF0C0100201001002000140140B5
:101F8C00000C0140FFF0FFFF0001002004010020C5
:101F9C00FFFFFFF8FF0FFFFFE8560008CC00002002
:101FAC00E4460008E44E0008BC000020C0000020FD
:101FBC00B0000020B4000020FFFF0FFFA4000020A1
:101FCC00A8000020FFFFFFF0980000209C000020DC
:101FDC001402002010E000E01F1C0000AF2A0008D3
:101FEC00BB02000861090008D10200083043000858
:101FFC00E12A0008E7020008132B0008FD02000884
:10200C00452B000813030008772B00082903000850
:10201C00710900083F030008F74500088109000812
:10202C0055030008FE4500086B0300086D0300080B
:10203C0008460008930900087703000815460008B5
:10204C008D0300088F0300080EA8FEF70FFD12A8E1
:10205C00FEF70CFDFD4B16A91993FD4B12A8189316
:10206C001694FFF75DFAFB4B1EA92193FA4B1AA8A5
:10207C0020931E94FFF754FAF84B26A92993F84B9A
:10208C0022A828932694FFF74BFAF64B2EA93193EE
:10209C00F54B2AA830932E94FFF742FAF34B36A94E
:1020AC003993F34B32A838933694FFF749FA0F2340
:1020BC00F04A3C937A60F04A48937A61EF4AF04BCD
:1020CC003A6112226B60EF4B42926B61EE4BEF4A1E
:1020DC002B61BC237260EE4A5B007261ED4A2000FA
:1020EC003261ED4A0999E25023007933FF33813094
:1020FC005960FF3012A9FFF713FA200091301AA98A
:10210C00FF30FFF70DFA2000A13022A9FF30FFF7B6
:10211C0007FA2000B1302AA9FF30FFF701FA20009E
:10212C00C13032A9FF30FFF70BFA2000D130390053
:10213C00FF30FFF7DFFC2000E9303100FF30FFF704
:10214C00D9FC80239B002900E018FFF7D3FC8623E1
:10215C0000229B00E3181A6087239B00E3181A6087
:10216C004AA8FEF783FC44A8FEF780FC3EA8FEF7C5
:10217C007DFC32A8FEF77AFC36A8FEF777FC2AA87D
:10218C00FEF774FC2EA8FEF771FC22A8FEF76EFC7D
:10219C0026A8FEF76BFC1AA8FEF768FC1EA8FEF733
:1021AC0065FC12A8FEF762FC16A8FEF75FFCBB4BA1
:1021BC0012A91593BA4B0EA814931294FFF7B0F909
:1021CC00B84B1AA91D93B84B16A81C931A94FFF779
:1021DC00A7F9B64B22A92593B54B1EA8249322949C
:1021EC00FFF79EF9B34B2AA92D93B34B26A82C933A
:1021FC002A94FFF795F9B14B32A93593B04B2EA821
:10220C0034933294FFF79CF911230A203693AD4B8B
:10221C003C903793AC4B88203B93AC4BAC4A3A93F5
:10222C00AC4B72607B60AC4B3E947B61AB4BAC4A6D
:10223C003B610E2342934893AA4B44946B60AA4B88
:10224C004A946B61A94B7261A94A2B6136AB32611E
:10225C000695059603932EAB029326AB0193800053
:10226C001EAB0EAA09990093201816AB0497FFF722
:10227C0049FC4AA8FEF7FAFB44A8FEF7F7FB3EA878
:10228C00FEF7F4FB38A8FEF7F1FB2EA8FEF7EEFBE9
:10229C0032A8FEF7EBFB26A8FEF7E8FB2AA8FEF710
:1022AC00E5FB1EA8FEF7E2FB22A8FEF7DFFB16A853
:1022BC00FEF7DCFB1AA8FEF7D9FB0EA8FEF7D6FB3F
:1022CC0012A8FEF7D3FB8B4B12A815938A4B010077
:1022DC000EA814931294FFF723F9884B1AA81D9398
:1022EC00874B010016A81C931A94FFF719F9854B1C
:1022FC0022A82593844B01001EA824932294FFF757
:10230C000FF9824B2AA82D93814B010026A82C9300
:10231C002A94FFF705F97F4B32A835937E4B0100C9
:10232C002EA834933294FFF70BF9052336937B4B8D
:10233C007B4A37937B4B7A603B937B4B7B4A3A933C
:10234C0008233C9342937A4B7A617360794B7A4AB7
:10235C0073617A4B3A61336109234893784B0EAA27
:10236C006B60784B6B61784B2B61B8239B00E0184A
:10237C0036AB03932EAB069505960497029326ABCA
:10238C0001931EAB0999009316ABFFF7BBFB4AA850
:10239C00FEF76CFB44A8FEF769FB3EA8FEF766FB54
:1023AC0038A8FEF763FB2EA8FEF760FB32A8FEF7F9
:1023BC005DFB26A8FEF75AFB2AA8FEF757FB1EA8C2
:1023CC00FEF754FB22A8FEF751FB16A8FEF74EFBB6
:1023DC001AA8FEF74BFB0EA8FEF748FB12A8FEF757
:1023EC0045FB5A4B0EA81593594B1294149312ABF0
:1023FC001900FFF795F8574B16A81D93564B1A94D6
:10240C001C931AAB1900FFF78BF8544B1EA825939D
:10241C00534B2294249322AB1900FFF781F8514BB4
:10242C0026A82D93504B2A942C932AAB1900FFF716
:10243C0077F84E4B2EA835934D4B3294349332ABE8
:10244C001900FFF77DF8042294E0C046A92B000880
:10245C0099030008DB2B0008AF0300080D2C0008C3
:10246C00C50300083F2C0008DB030008A509000881
:10247C00F1030008204600080704000809040008BE
:10248C00434600081F0400082104000830460008D9
:10249C00130400081504000858430008712C0008A8
:1024AC002B040008A32C000841040008D52C0008BC
:1024BC0057040008072D00086D040008B509000832
:1024CC008304000853460008990400089B04000884
:1024DC007046000865460008C5090008A5040008F8
:1024EC00D70900087F460008E9090008D104000854
:1024FC00BB040008392D0008E70400086B2D000808
:10250C00FD0400089D2D000813050008CF2D0008C0
:10251C0029050008FB0900083F0500088E46000845
:10252C009446000855050008570500086105000889
:10253C009D4600086D050008630500086F0500083E
:10254C00A6460008790500087B050008012E000846
:10255C0085050008332E00089B050008652E000831
:10256C00B1050008972E0008C70500080D0A0008E1
:10257C00DD050008C34B0C213793C34B48923B93AA
:10258C00C24B36913A93C24BC2497B6073606B600D
:10259C00C14B3C926B61C14B79612B61E823C04903
:1025AC0042923961BF499B007161BF49E01836AB5B
:1025BC00316103932EAB029326AB0EA9389406958A
:1025CC000596049701931EAB0A000093099916AB6C
:1025DC00FFF798FA4AA8FEF749FA44A8FEF746FA1C
:1025EC003EA8FEF743FA38A8FEF740FA2EA8FEF7ED
:1025FC003DFA32A8FEF73AFA26A8FEF737FA2AA8CF
:10260C00FEF734FA1EA8FEF731FA22A8FEF72EFACE
:10261C0016A8FEF72BFA1AA8FEF728FA0EA8FEF752
:10262C0025FA12A8FEF722FAA04B22A92593A04B5B
:10263C001EA824932294FEF773FF9E4B2AA92D9378
:10264C009D4B26A82C932A94FEF76AFF9B4B32A92C
:10265C0035939B4B2EA834933294FEF761FF994B24
:10266C003C94FB60984B390036A8BB60FEF758FFD2
:10267C00964B4894EB60964B29003000AB60FEF70C
:10268C005FFF94491AA8FEF76EFAE36F924A0B9318
:10269C001A9B09990C931B9B0D938C23DB00E25026
:1026AC00E3180A9359608D23DB00E0181EA9FEF78E
:1026BC0037FF8F23DB00E01826A9FEF731FF9123AB
:1026CC00DB00E0182EA9FEF72BFF9323DB00E018AC
:1026DC0036A9FEF725FF9523DB00E0183100FEF745
:1026EC002FFF97230C99DB00E1500D997B4B3000A9
:1026FC00E1500B9B0A9908330B660B9B9B680B9361
:10270C000B000B99596601230A998B666333CB66D0
:10271C00FEF7ACF92800FEF7A9F936A8FEF7A6F9E2
:10272C003800FEF7A3F92EA8FEF7A0F932A8FEF7A1
:10273C009DF926A8FEF79AF92AA8FEF797F91EA884
:10274C00FEF794F922A8FEF791F9654B22A925937F
:10275C00644B1EA824932294FEF7E2FE624B2AA936
:10276C002D93624B26A82C932A94FEF7D9FE604B2E
:10277C0032A935935F4B2EA834933294FEF7D0FEDA
:10278C005D4B3C94FB605D4B390036A8BB60FEF79B
:10279C00C7FE5B4B4894EB605A4B29003000AB6092
:1027AC00FEF7CEFE58491AA8FEF7DDF9E36F574A3B
:1027BC000B931A9B09990C931B9B0D939A23DB008B
:1027CC00E250E3180A9359609B23DB00E0181EA922
:1027DC00FEF7A6FE9D23DB00E01826A9FEF7A0FE5F
:1027EC009F23DB00E0182EA9FEF79AFEA123DB0045
:1027FC00E01836A9FEF794FEA323DB00E0183100A5
:10280C00FEF79EFEA5230C99DB00E1500D99404B81
:10281C000022E1500B9B0A9910330B660B9B300086
:10282C001B6909930B0009999A6659661B230A9A2E
:10283C00D366FEF71BF92800FEF718F936A8FEF749
:10284C0015F93800FEF712F92EA8FEF70FF932A889
:10285C00FEF70CF926A8FEF709F92AA8FEF706F9E7
:10286C001EA8FEF703F922A8FEF700F92000FEF7D8
:10287C0051F9231DD86F03681B68984720004FB08F
:10288C00F0BDC046B04600081F0A0008F30500085A
:10289C00BD460008090600082106000823060008AA
:1028AC000B0600081506000817060008C92E0008BC
:1028BC002D060008FB2E0008430600082D2F0008EB
:1028CC00590600085F2F00086F060008310A00083F
:1028DC0085060008C24600086C430008BC040000D2
:1028EC00912F00089B060008C32F0008B1060008B2
:1028FC00F52F0008C706000827300008DD06000881
:10290C00430A0008F3060008CD460008804300087F
:10291C002C05000000230121F0B5444C444AA54489
:10292C000392444A03AC6260434AA3601068E360BC
:10293C0023746374E361E362E363E364E3653F4B35
:10294C00084204D13E4811601860082058600822E3
:10295C003C4F0026B9691FAD0A430F21BA611868B4
:10296C0042688A43110004220A43426063661EAB2C
:10297C001E70792304A86B441E70A666FEF7CAF875
:10298C000121314B314A1F931068314BAE606B60A3
:10299C00EE602E746E74EE61EE62EE63EE64EE65C4
:1029AC002C4B084204D1264811601860092058604D
:1029BC000822B96900260A43F021BA6118684268F6
:1029CC008A43110040220A4342606B663AAB1E7088
:1029DC00E92320A86B441E70AE66FEF79BF8FC2220
:1029EC006B469B181E701C4B3CA83B931B4B3D9697
:1029FC003C9355AB1E705623FF336B441E703E96B2
:102A0C00429646964A964E9652965496569457959A
:102A1C00FEF780F8124B220001933BAB0093002190
:102A2C002B0058A8FFF7AAF830BFFDE75CF9FFFFB1
:102A3C0094430008B4430008300100203401002006
:102A4C00000C014000100240C0430008240100208B
:102A5C00E043000828010020EC4300080C44000867
:102A6C000000002073B56B4604001A0060CC60C2F5
:102A7C000A0030CA30C005CB05C173BD70B5002348
:102A8C000D000400836001002800FFF7EBFFAB682A
:102A9C00A2682000AA60A360E268EB68EA60E360C9
:102AAC0070BD30B5040089B06846FFF7E7FF2368B6
:102ABC0069469C6F04A823689D68FEF741FD04A934
:102ACC002000A84704A8FDF7D1FF6846FDF7CEFF0C
:102ADC0009B030BD30B5040089B06846FFF7CEFFB1
:102AEC00236869461C6F04A823689D68FEF728FDBF
:102AFC0004A92000A84704A8FDF7B8FF6846FDF715
:102B0C00B5FF09B030BD30B5040089B06846FFF799
:102B1C00B5FF236869465C6F04A823689D68FEF7BF
:102B2C000FFD04A92000A84704A8FDF79FFF6846E5
:102B3C00FDF79CFF09B030BD30B5040089B0684684
:102B4C00FFF79CFF236869469C6F04A823689D6867
:102B5C00FEF7F6FC04A92000A84704A8FDF786FFA1
:102B6C006846FDF783FF09B030BD30B5040089B06D
:102B7C006846FFF783FF236869469C6F04A82368A7
:102B8C00DD68FEF7DDFC04A92000A84704A8FDF7CA
:102B9C006DFF6846FDF76AFF09B030BD30B5040023
:102BAC0089B06846FFF76AFF236869461C6F04A862
:102BBC0023689D68FEF7C4FC04A92000A84704A85C
:102BCC00FDF754FF6846FDF751FF09B030BD30B535
:102BDC00040089B06846FFF751FF236869465C6FB3
:102BEC0004A823689D68FEF7ABFC04A92000A84745
:102BFC0004A8FDF73BFF6846FDF738FF09B030BD70
:102C0C0030B5040089B06846FFF738FF2368694681
:102C1C009C6F04A823689D68FEF792FC04A9200011
:102C2C00A84704A8FDF722FF6846FDF71FFF09B06F
:102C3C0030BD30B5040089B06846FFF71FFF23682C
:102C4C0069469C6F04A82368DD68FEF779FC04A92B
:102C5C002000A84704A8FDF709FF6846FDF706FF0A
:102C6C0009B030BD30B5040089B06846FFF706FFE7
:102C7C00236869461C6F04A823689D68FEF760FCF6
:102C8C0004A92000A84704A8FDF7F0FE6846FDF74C
:102C9C00EDFE09B030BD30B5040089B06846FFF7D1
:102CAC00EDFE236869465C6F04A823689D68FEF7F7
:102CBC0047FC04A92000A84704A8FDF7D7FE6846E6
:102CCC00FDF7D4FE09B030BD30B5040089B06846BC
:102CDC00FFF7D4FE236869469C6F04A823689D689F
:102CEC00FEF72EFC04A92000A84704A8FDF7BEFEA1
:102CFC006846FDF7BBFE09B030BD30B5040089B0A5
:102D0C006846FFF7BBFE236869469C6F04A82368DE
:102D1C00DD68FEF715FC04A92000A84704A8FDF700
:102D2C00A5FE6846FDF7A2FE09B030BD30B5040023
:102D3C0089B06846FFF7A2FE236869461C6F04A899
:102D4C0023689D68FEF7FCFB04A92000A84704A893
:102D5C00FDF78CFE6846FDF789FE09B030BD30B535
:102D6C00040089B06846FFF789FE236869465C6FEA
:102D7C0004A823689D68FEF7E3FB04A92000A8477C
:102D8C0004A8FDF773FE6846FDF770FE09B030BD70
:102D9C0030B5040089B06846FFF770FE23686946B9
:102DAC009C6F04A823689D68FEF7CAFB04A9200049
:102DBC00A84704A8FDF75AFE6846FDF757FE09B070
:102DCC0030BD30B5040089B06846FFF757FE236864
:102DDC0069469C6F04A82368DD68FEF7B1FB04A963
:102DEC002000A84704A8FDF741FE6846FDF73EFE0B
:102DFC0009B030BD30B5040089B06846FFF73EFE1F
:102E0C00236869461C6F04A823689D68FEF798FB2D
:102E1C0004A92000A84704A8FDF728FE6846FDF782
:102E2C0025FE09B030BD30B5040089B06846FFF707
:102E3C0025FE236869465C6F04A823689D68FEF72D
:102E4C007FFB04A92000A84704A8FDF70FFE6846E5
:102E5C00FDF70CFE09B030BD30B5040089B06846F2
:102E6C00FFF70CFE236869469C6F04A823689D68D5
:102E7C00FEF766FB04A92000A84704A8FDF7F6FDA1
:102E8C006846FDF7F3FD09B030BD30B5040089B0DC
:102E9C006846FFF7F3FD236869469C6F04A8236816
:102EAC00DD68FEF74DFB04A92000A84704A8FDF738
:102EBC00DDFD6846FDF7DAFD09B030BD30B5040024
:102ECC0089B06846FFF7DAFD236869461C6F04A8D1
:102EDC0023689D68FEF734FB04A92000A84704A8CA
:102EEC00FDF7C4FD6846FDF7C1FD09B030BD30B536
:102EFC00040089B06846FFF7C1FD236869465C6F22
:102F0C0004A823689D68FEF71BFB04A92000A847B2
:102F1C0004A8FDF7ABFD6846FDF7A8FD09B030BD70
:102F2C0030B5040089B06846FFF7A8FD23686946F0
:102F3C009C6F04A823689D68FEF702FB04A920007F
:102F4C00A84704A8FDF792FD6846FDF78FFD09B070
:102F5C0030BD30B5040089B06846FFF78FFD23689B
:102F6C0069469C6F04A82368DD68FEF7E9FA04A99A
:102F7C002000A84704A8FDF779FD6846FDF776FD0B
:102F8C0009B030BD30B5040089B06846FFF776FD56
:102F9C00236869461C6F04A823689D68FEF7D0FA65
:102FAC0004A92000A84704A8FDF760FD6846FDF7BA
:102FBC005DFD09B030BD30B5040089B06846FFF73F
:102FCC005DFD236869465C6F04A823689D68FEF765
:102FDC00B7FA04A92000A84704A8FDF747FD6846E6
:102FEC00FDF744FD09B030BD30B5040089B068462A
:102FFC00FFF744FD236869469C6F04A823689D680D
:10300C00FEF79EFA04A92000A84704A8FDF72EFDA0
:10301C006846FDF72BFD09B030BD30B5040089B012
:10302C006846FFF72BFD236869469C6F04A823684C
:10303C00DD68FEF785FA04A92000A84704A8FDF76F
:10304C0015FD6846FDF712FD09B030BD1FB5040033
:10305C006846FEF775FA21006846FFF703FD029BF0
:10306C00A268A360039B0292E2686846E360039245
:10307C00FDF7FCFC200004B010BD10B54430FFF788
:10308C00E5FF10BD10B53430FFF7E0FF10BD10B5F3
:10309C002430FFF7DBFF10BD10B51430FFF7D6FF5F
:1030AC0010BD10B54430FFF7D1FF10BD10B5343052
:1030BC00FFF7CCFF10BD10B52430FFF7C7FF10BDD4
:1030CC0010B51430FFF7C2FF10BD10B54430FFF738
:1030DC00BDFF10BD10B53430FFF7B8FF10BD10B5F3
:1030EC002430FFF7B3FF10BD10B51430FFF7AEFF5F
:1030FC0010BD836810B5002B01D0FEF731FA10BD5E
:10310C001FB5002808D06846FEF71AFA6846FFF784
:10311C00F0FF6846FDF7AAFC05B000BD002370B5B2
:10312C0083608B6804000D00002B05D002229847A9
:10313C00EB68E360AB68A360200070BD1FB50400B2
:10314C006846FFF7EBFF21006846FFF78BFC029BFC
:10315C00A268A360039B0292E2686846E360039254
:10316C00FDF784FC200004B010BD10B55430FFF7FF
:10317C00E5FF10BD10B55430FFF7E0FF10BD10B5E2
:10318C005430FFF7DBFF10BDF7B503000600182421
:10319C000200A433A0361B68316858325B1A5C43BA
:1031AC001419270060370500B74200D937000022F8
:1031BC006B681A606868A74207D021686268FDF7DF
:1031CC00DCFFFDF7C1FC1834F4E700681421FCF7B0
:1031DC00C3FF1424070044436868032F09D8202236
:1031EC00631C036003195A72FDF7AEFC01371434EB
:1031FC00F2E714233268132153430360FDF7C0FC3C
:10320C00040005496846FDF7AEFC0099019A2000C0
:10321C00FDF7B3FFF7BDC046E45600081FB5040028
:10322C001B4B694603931B4B009008300293FEF72F
:10323C00D6F96846FDF71AFC2000174B6946039334
:10324C00164B183002930094FEF7C9F96846FDF747
:10325C000DFC2000124B69460393124B283002934D
:10326C000094FEF7BCF96846FDF700FC20000E4BFD
:10327C00694603930D4B383002930094FEF7AFF977
:10328C006846FDF7F3FB2000FFF77EFF1FBDC0462D
:10329C007D130008F9070008E91300080F0800085F
:1032AC00A315000825080008BB1500083B080008FA
:1032BC00F7B50300060018240200BC33B8361B68AF
:1032CC00316858325B1A5C431419270060370500CB
:1032DC00B74200D9370000226B681A606868A742B1
:1032EC0007D021686268FDF748FFFDF72DFC183404
:1032FC00F4E700681421FCF72FFF14240700444363
:10330C006868032F09D82022631C036003195A72C2
:10331C00FDF71AFC01371434F2E714233268132139
:10332C0053430360FDF72CFC040005496846FDF788
:10333C001AFC0099019A2000FDF71FFFF7BDC0464B
:10334C00E45600081FB504001B4B694603931B4B46
:10335C00009008300293FEF742F96846FDF786FBB1
:10336C002000174B69460393164B183002930094B8
:10337C00FEF735F96846FDF779FB2000124B6946DC
:10338C000393124B283002930094FEF728F96846F9
:10339C00FDF76CFB20000E4B694603930D4B383048
:1033AC0002930094FEF71BF96846FDF75FFB2000C3
:1033BC00FFF77EFF1FBDC0465514000851080008DA
:1033CC00C114000867080008C71500087D0800082C
:1033DC00DF1500089308000807B583680191002BDE
:1033EC0001D100F0C9FAC36801A9984707BD0000D4
:1033FC00F0B5C36E85B00400586EFDF757FC00287D
:10340C0004D1636E002B07D105B0F0BD236F586E4D
:10341C00FDF74CFC0028F4D0E36E586EFDF746FC2B
:10342C00002834D0E36E586EFDF740FC002803D022
:10343C00236F586EFDF73AFC236F5874E36E587483
:10344C00636E01336366092BDED922006832117872
:10345C0000294ED101252100157014316846FEF764
:10346C006FF86846FFF745FE6846FDF7FFFA210046
:10347C0068465431FFF752FE029B002B03D0290003
:10348C006846FFF7A9FF6846FDF7F0FABCE7236F23
:10349C00586EFDF70BFC0028C4D1250021006835BF
:1034AC002E7824316846FEF74BF83000260069462A
:1034BC00FFF726FE6846FDF7D9FA2F786936002FFC
:1034CC0002D0012733785F40210068463431FEF783
:1034DC0037F869463800FFF713FE6846FDF7C6FA61
:1034EC000023E26E63662B7033705374226F537437
:1034FC008AE70A4A934200D886E7230069331A7890
:10350C00002A00D080E7210001321A70443168464D
:10351C00FEF716F86846FFF7ECFDB4E7E70300008A
:10352C0008B4024B9C46043808BC6047FD330008C5
:10353C001FB50C0001006846FFF7F0FD029B002B45
:10354C0003D021006846FFF747FF6846FDF78EFA67
:10355C001FBD0000F0B5040085B0406EFDF7A6FB62
:10356C00002802D1A36E002B32D0606EFDF79EFBBB
:10357C00051E2FD12600637C6C360700002B00D172
:10358C003778210068462431FDF7DAFF3800270030
:10359C006946FFF7B5FD6846FDF768FA637C6D3741
:1035AC00002B05D13578002D02D001253B785D40EC
:1035BC00210068463431FDF7C3FF69462800FFF748
:1035CC009FFD6846FDF752FA0023A36633703B70EB
:1035DC0005B0F0BDA36E0133A366092BF8D9220008
:1035EC006C32117800291FD1012521001570667CE1
:1035FC0014316E406846FDF7A3FF69463000FFF7B3
:10360C007FFD6846FDF732FA2100667C543168462E
:10361C00FFF784FD002E03D129006846FFF788FFD1
:10362C006846FDF723FAD3E70A4A9342D0D9220021
:10363C006D321378002BCBD1210001331370657CD4
:10364C0044315D406846FDF77BFF69462800FFF773
:10365C0057FDE5E7E703000008B4024B9C4604382D
:10366C0008BC604761350008F0B5040085B0406EB9
:10367C00FDF71CFB002802D1A36E002B32D0606E2C
:10368C00FDF714FB051E2FD12600637C6C3607005A
:10369C00002B00D13778210068462431FDF750FF0C
:1036AC00380027006946FFF72BFD6846FDF7DEF969
:1036BC00637C6D37002B05D13578002D02D00125A8
:1036CC003B785D40210068463431FDF739FF69468F
:1036DC002800FFF715FD6846FDF7C8F90023A3661F
:1036EC0033703B7005B0F0BDA36E0133A366092B9C
:1036FC00F8D922006C32117800291FD10125210044
:10370C001570667C14316E406846FDF719FF6946EA
:10371C003000FFF7F5FC6846FDF7A8F92100667C40
:10372C0054316846FFF7FAFC002E03D12900684695
:10373C00FFF7FEFE6846FDF799F9D3E70A4A934274
:10374C00D0D922006D321378002BCBD1210001335C
:10375C001370657C44315D406846FDF7F1FE6946A7
:10376C002800FFF7CDFCE5E7E703000008B4024BA7
:10377C009C46043808BC60477536000800230121BC
:10378C0010B53E4A136053609360D360136151616E
:10379C003B4A1068884310603A485060042093609C
:1037AC0014682043106002201468204310601068D5
:1037BC00014311602321344A13601171334A0231E1
:1037CC0013601171324A013113601171314A0131A8
:1037DC0013601171304A1C39136011712F4A013179
:1037EC00136011712E4A0131136011712D4A013190
:1037FC00136011712C4A0131136011712B4A013184
:10380C00136011712A4A013113601171294A0B3965
:10381C0013601171284A013113601171274A01316B
:10382C0013601171264A013113601171254A01315F
:10383C0013601171172224490B600A7123490B6024
:10384C000A7123490B600A7122490B600A712249E3
:10385C000B600A71214911320B600A7120490B600F
:10386C000A7120490B600A711F490B600A711F49CC
:10387C000B600A711E490B600A7110BD1402002006
:10388C0010E000E03F190100F4010020FC010020D1
:10389C00040200200C0200203C0100204401002006
:1038AC004C010020540100205C0100206401002028
:1038BC006C010020740100207C010020B401002068
:1038CC00BC010020C4010020CC010020D401002048
:1038DC00DC010020E4010020EC0100208401002028
:1038EC008C010020940100209C010020A4010020E8
:1038FC00AC010020002103E00B4B5B58435004311A
:10390C000A480B4B42189A42F6D30A4A02E00023AB
:10391C0042F8043B084B9A42F9D3FDF7D9FB00F06F
:10392C0039F8FEF7F7FF70477858000800000020C0
:10393C007C0000207C00002084020020FEE710B5F3
:10394C00041E00D10134200000F048F8002807D1F3
:10395C0000F008F8002801D100F015F88047F2E7D4
:10396C0010BD0000014B18687047C0467002002063
:10397C0010B500F004F810BD10B500F004F810B547
:10398C0000F036F810BD10B5062000F03BF9012010
:10399C0000F0B0FC70B500260C4D0D4C641BA4104F
:1039AC00A64209D1002600F0A7FC0A4D0A4C641B64
:1039BC00A410A64205D170BDB300EB589847013650
:1039CC00EEE7B300EB5898470136F2E76C58000865
:1039DC006C5800086C5800087458000810B5034B5C
:1039EC000100186800F074F810BDC04618000020E3
:1039FC0010B5034B0100186800F020F810BDC0464C
:103A0C001800002010B5884202D98B18984203D3B5
:103A1C00002307E08B5C8354013AFBD210BDCC5CD5
:103A2C00C45401339A42FAD1F8E7030012189342B6
:103A3C0000D1704719700133F9E7000070B505002B
:103A4C00002910D00C1F2368002B00DAE418280082
:103A5C0000F018F91D4A1368002B05D1636014603F
:103A6C00280000F010F970BDA34209D92168601834
:103A7C008342F3D118685B6841182160EEE71300AC
:103A8C005A68002A01D0A242F9D919685818A042E4
:103A9C000BD120680918581819608242E0D11068BF
:103AAC005268411819605A60DAE7A04202D90C2317
:103ABC002B60D5E721686018824203D110685268E8
:103ACC004118216062605C60CAE7C0467402002045
:103ADC00032370B5CD1C9D43083506000C2D1ED25A
:103AEC000C25A9421DD8300000F0CCF8254A1468EA
:103AFC002100002919D1244C2368002B03D130005C
:103B0C0000F044F820602900300000F03FF8431C1E
:103B1C002BD10C233000336000F0B5F803E0002DFE
:103B2C00DFDA0C233360002070BD0B685B1B19D4EB
:103B3C000B2B03D90B60CC18256003E04B688C422F
:103B4C000DD11360300000F09EF8200007220B30DE
:103B5C00231D9043C31AE7D05A42E250E4E7636056
:103B6C000C00EFE70C004968C3E70323C41C9C431B
:103B7C00A042E1D0211A300000F008F8431CDBD140
:103B8C00C7E7C0467402002078020020002370B5FD
:103B9C00064C05000800236000F09EFB431C03D17B
:103BAC002368002B00D02B6070BDC0468002002023
:103BBC0070B504000D001F2904D9162303600120E1
:103BCC00404270BD436C002B04D08A009B181A68CD
:103BDC00002A08D1200000F031F82A000100200052
:103BEC0000F01AF8EDE70020012AEAD0511C03D1AD
:103BFC00162301302360E4E7002428001C60904762
:103C0C002000DEE710B5034B01001868FFF7D0FF6A
:103C1C0010BDC04618000020002370B5064C0500EE
:103C2C0008001100236000F04FFB431C03D12368F4
:103C3C00002B00D02B6070BD8002002010B500F06E
:103C4C003BFB10BD0EB400B50B499CB01DAB0290F4
:103C5C000690079104910948094904CB0591006825
:103C6C0002A9019300F072F80023029A13701CB0A1
:103C7C0008BC03B01847C046FFFFFF7F18000020A8
:103C8C000802FFFF70477047F0B58E6885B00700DB
:103C9C000C00039201939E423CD890238A89DB004E
:103CAC001A4234D00325096923685B1A02936369AD
:103CBC0002985D43EB0F5D19019B6D1001331B18CE
:103CCC00AB4200D91D00530532D529003800FFF74F
:103CDC00FFFE061E09D10C233B6040230120A28964
:103CEC0040421343A38105B0F0BD029A216900F054
:103CFC00ACFAA389144A1A4080231343A381029B74
:103D0C002661F61826606561019EED1AA560019B7F
:103D1C009E4200D9019E320003992068FFF772FE83
:103D2C00A36800209B1BA36023689E192660DAE71A
:103D3C002A00380000F092FA061EE0D12169380002
:103D4C00FFF77CFEC7E7C0467FFBFFFFF0B5A1B0D5
:103D5C0003901D008B890F0016001B0611D50B69F3
:103D6C00002B0ED14021FFF7B3FE386038610028DC
:103D7C0005D10C23039A0138136021B0F0BD402308
:103D8C007B61002308AC6361203363761033A37628
:103D9C00079535002B78002B01D0252B46D1AB1B7A
:103DAC0005930CD0320039000398FFF76DFF431CCC
:103DBC0000D1AEE06269059B9446634463612B7845
:103DCC00002B00D1A5E0012200235242626004A91D
:103DDC00543252186E1C2360E360A3601370A36509
:103DEC0031780522534800F025FA751C00281FD1A4
:103DFC002268D30604D5532304A95B18202119701B
:103E0C00130704D5532304A95B182B21197033789D
:103E1C002A2B16D0350000210A20E3682A786E1C64
:103E2C00303A092A4ED9002918D010E00135B1E7F3
:103E3C00404B2268C01A01238340134323602E0099
:103E4C00CEE7079B191D1B680791002B01DB0B9319
:103E5C0004E05B42E3600223134323602B782E2B98
:103E6C000AD16B782A2B35D1079B02351A1D1B689A
:103E7C000792002B2BDB09932F4E2978032230005D
:103E8C0000F0D8F9002806D04023801B834022681C
:103E9C000135134323602978062228486E1C2176AD
:103EAC0000F0C8F900283CD0254B002B25D1072267
:103EBC00079B07339343083307936369049A9B1852
:103ECC00636166E7434301219B183500A6E7012394
:103EDC005B42D0E700230A201A0001356360297881
:103EEC006E1C3039092903D9002BC5D00992C3E7C0
:103EFC004243012352183500F1E707AB00933A0017
:103F0C00104B21000398AFF300800490049B013305
:103F1C00D3D1BB890D985B0600D42EE7012040421B
:103F2C002BE707AB00933A00064B2100039800F0F7
:103F3C0079F8EAE7385800083E580008425800085B
:103F4C0000000000953C0008F7B5150001938A6845
:103F5C000B6900900C00934200DA130022002B60D6
:103F6C0043321278002A01D001332B6023689B0660
:103F7C0002D52B6802332B60062723681F4027D0FD
:103F8C00230043331B785A1E93412268920630D487
:103F9C002200019943320098089EB047431C25D05B
:103FAC00062320682A68E16803400025042B03D10E
:103FBC008D1AEB43DB171D40A3682269934201DD88
:103FCC009B1AED180027BD4220D1002010E00137CC
:103FDC00E3682A689B1ABB42D2DD22000123193206
:103FEC0001990098089EB047431CF0D10120404233
:103FFC00FEBD3020E1184331087021005A1C4531B8
:10400C000978A218433202331170C1E72200012350
:10401C001A3201990098089EB047431CE6D001372C
:10402C00D1E70000F0B589B004920A004332059341
:10403C00039002920A7E0C000E9B6E2A00D186E041
:10404C001FD8632A33D008D8002A00D18CE0582A14
:10405C004DD0250042352A7030E0642A01D0692AFF
:10406C00F7D1196825680A1D280629D508681A6031
:10407C00002803DA2D23029A404213706B4E0A2754
:10408C004FE0732A74D008D86F2A1FD0702AE0D161
:10409C00202209680A43226003E0752A16D0782A88
:1040AC00D7D12200782145321170614E22E02500D3
:1040BC001A684235111D196013682B70012365E0D5
:1040CC0008681A606906D3D500B2D1E7196825686B
:1040DC00081D186008682E0605D5544E08276F2A4F
:1040EC001BD00A2719E06D06F7D580B2F5E74531EC
:1040FC004E4E0A7018682268011D0068196015067A
:10410C0021D5D30702D520231A432260102700287B
:10411C0003D1202322689A432260230000224333D8
:10412C001A706368A360002B58DB0422216891434A
:10413C002160002854D1029D002B5AD025003378E1
:10414C0042352B7055E05506DBD580B2D9E71A689D
:10415C000D68101D4969186013682E0601D5196089
:10416C0002E06D06FBD519800023029D23614FE010
:10417C001A68111D1960156800216268280000F08A
:10418C0059F8002801D0401B60606368236100234C
:10419C00029A13703CE023692A0004990398059D48
:1041AC00A847431C3ED023689B0715D4079BE068A7
:1041BC00984239DA180037E02200012319320499A9
:1041CC000398059EB047431C2CD00135E368079A31
:1041DC009B1AAB42F0DCE9E70025F7E70028ADD0ED
:1041EC00029D3900FCF73EF8735C013D2B700028F2
:1041FC00F7D1082F09D12368DB0706D5636822693C
:10420C00934202DC3023013D2B70029B5B1B23612C
:10421C00059B07AA00932100049B0398FFF794FECB
:10422C00431CB8D10120404209B0F0BD49580008E8
:10423C005A580008C9B28218904201D10020704728
:10424C0003788B42FBD00130F6E7002310B59A427D
:10425C0000D110BDCC5CC4540133F8E7F8B50700AD
:10426C000D001600002905D11100FFF731FC0400E8
:10427C002000F8BD002A03D1FFF7E0FB3400F7E77C
:10428C0000F012F82C00B042F2D231003800FFF7E7
:10429C001FFC041EECD029003200FFF7D6FF2900CA
:1042AC003800FFF7CBFBE3E70B1F1B68181F002B35
:1042BC0001DA0B58C018704758220120014B4042BC
:1042CC001A6070478002002058220120014B4042A6
:1042DC001A60704780020020044A1368002B00D13A
:1042EC00034B1818106018007047C0467C02002061
:1042FC0088020020FEE7C046F8B5C046F8BC08BCF2
:10430C009E467047F8B5C046F8BC08BC9E46704740
:10431C0000000000000000007F0200080000000008
:10432C0000000000F9170008A1120008FD15000894
:10433C000000000000000000513300080F070008C7
:10434C00851700080000000000000000293200085A
:10435C000D07000811170008000000000000000005
:10436C00BD1900080B0700089D160008000000008E
:10437C000000000079180008090700082916000839
:10438C000000000000000000A53000089B30000871
:10439C00913000088730000877310008613500083B
:1043AC00FCFFFFFF00000000653600080000000065
:1043BC0000000000CD300008C3300008B930000800
:1043CC00AF3000088131000875360008FCFFFFFF94
:1043DC000000000079370008000000000000000019
:1043EC00F5300008EB300008E1300008D730000849
:1043FC008B310008FD330008FCFFFFFF00000000BC
:10440C002D35000800000000000000001107000816
:10441C00000000000100000002000000030000008A
:10442C00040000000500000006000000070000006A
:10443C0008000000090000000A0000000B0000004A
:10444C000C0000000D0000000E0000000F0000002A
:10445C00100000001100000012000000130000000A
:10446C0028000000290000002A0000002B0000009A
:10447C002C0000002D0000002E0000002F0000007A
:10448C00300000003100000032000000330000005A
:10449C00340000003500000036000000370000003A
:1044AC0038000000390000003A0000003B0000001A
:1044BC00140000001500000016000000170000009A
:1044CC0018000000190000001A0000001B0000007A
:1044DC001C0000001D0000001E0000001F0000005A
:1044EC00200000002100000022000000230000003A
:1044FC00240000002500000026000000270000001A
:10450C003C0000003D0000003E0000003F000000A9
:10451C004000000041000000420000004300000089
:10452C004400000045000000460000004700000069
:10453C0048000000490000004A0000004B00000049
:10454C004C0000004D0000004E0000004F00000029
:10455C00F4560008005700080C57000818570008BC
:10456C0024570008305700083C57000848570008EB
:10457C0054570008605700086C570008785700081B
:10458C0084570008905700089C570008A85700084B
:10459C00B4570008C0570008CC570008D85700087B
:1045AC00E4570008F0570008FC57000808580008AA
:1045BC0014580008205800082C580008CDE0E6E0FC
:1045CC00F2E8E520202000D1EEF5F0E0ED2E00D34E
:1045DC00E4E5F0E6E0EDE8E52000CEF2ECE5EDE018
:1045EC0000F1F7E5F23A2000256400C0E2E0F0E8C3
:1045FC00E800CDE0F0E0E1EEF2EAE000CAEEEDF426
:10460C00E8E3F3F0E0F6E8FF00CBEEE320F0E0E1C6
:10461C00EEF2FB00CDE5F0E0E1EEF7E8E520EBE0B3
:10462C00ECEFFB00CEF8E8E1EAE820EBE8EDE8E897
:10463C0020525334383500D1E1F0EEF1E8F2FC2091
:10464C00E0E2E0F0E8E800CFF0EEF1ECEEF2F02082
:10465C00EAEEEDF42E2DE8E800D2F0E5E2EEE3E030
:10466C0020D3D400CDE0F1F2F0EEE9EAE020F1E560
:10467C00F2E800D2E5F52E20EDE0F1F2F0EEE9EAF9
:10468C00E800C0E4F0E5F100D1EAEEF0EEF1F2FC66
:10469C0000CFF0EEE2E5F0EAE000D1F2EEEF20E13F
:1046AC00E8F2FB00CDE0E8ECE5EDEEE2E0EDE8E56C
:1046BC0000F2F3E4F300F3F0EEE2E5EDFC20D3D4EA
:1046CC0000CDE0E8ECE5EDEEE2E0EDE8E520F3F11D
:1046DC00F2E0EDEEE2EAE8000000F0000000F0008D
:1046EC000000F0001000E0000000F0002000D000FE
:1046FC000000F0003000C0000000F0004000B000EE
:10470C000000F0005000A0000000F00060009000DD
:10471C000000F000700080000000F00080007000CD
:10472C000000F000900060000000F000A0005000BD
:10473C000000F000B00040000000F000C0003000AD
:10474C000000F000D00020000000F000E00010009D
:10475C000000F000F00000001000E0000000F0008D
:10476C001000E0001000E0001000E0002000D0007D
:10477C001000E0003000C0001000E0004000B0006D
:10478C001000E0005000A0001000E000600090005D
:10479C001000E000700080001000E000800070004D
:1047AC001000E000900060001000E000A00050003D
:1047BC001000E000B00040001000E000C00030002D
:1047CC001000E000D00020001000E000E00010001D
:1047DC001000E000F00000002000D0000000F0000D
:1047EC002000D0001000E0002000D0002000D000FD
:1047FC002000D0003000C0002000D0004000B000ED
:10480C002000D0005000A0002000D00060009000DC
:10481C002000D000700080002000D00080007000CC
:10482C002000D000900060002000D000A0005000BC
:10483C002000D000B00040002000D000C0003000AC
:10484C002000D000D00020002000D000E00010009C
:10485C002000D000F00000003000C0000000F0008C
:10486C003000C0001000E0003000C0002000D0007C
:10487C003000C0003000C0003000C0004000B0006C
:10488C003000C0005000A0003000C000600090005C
:10489C003000C000700080003000C000800070004C
:1048AC003000C000900060003000C000A00050003C
:1048BC003000C000B00040003000C000C00030002C
:1048CC003000C000D00020003000C000E00010001C
:1048DC003000C000F00000004000B0000000F0000C
:1048EC004000B0001000E0004000B0002000D000FC
:1048FC004000B0003000C0004000B0004000B000EC
:10490C004000B0005000A0004000B00060009000DB
:10491C004000B000700080004000B00080007000CB
:10492C004000B000900060004000B000A0005000BB
:10493C004000B000B00040004000B000C0003000AB
:10494C004000B000D00020004000B000E00010009B
:10495C004000B000F00000005000A0000000F0008B
:10496C005000A0001000E0005000A0002000D0007B
:10497C005000A0003000C0005000A0004000B0006B
:10498C005000A0005000A0005000A000600090005B
:10499C005000A000700080005000A000800070004B
:1049AC005000A000900060005000A000A00050003B
:1049BC005000A000B00040005000A000C00030002B
:1049CC005000A000D00020005000A000E00010001B
:1049DC005000A000F0000000600090000000F0000B
:1049EC00600090001000E000600090002000D000FB
:1049FC00600090003000C000600090004000B000EB
:104A0C00600090005000A0006000900060009000DA
:104A1C0060009000700080006000900080007000CA
:104A2C00600090009000600060009000A0005000BA
:104A3C0060009000B000400060009000C0003000AA
:104A4C0060009000D000200060009000E00010009A
:104A5C0060009000F0000000700080000000F0008A
:104A6C00700080001000E000700080002000D0007A
:104A7C00700080003000C000700080004000B0006A
:104A8C00700080005000A00070008000600090005A
:104A9C00700080007000800070008000800070004A
:104AAC00700080009000600070008000A00050003A
:104ABC0070008000B000400070008000C00030002A
:104ACC0070008000D000200070008000E00010001A
:104ADC0070008000F0000000800070000000F0000A
:104AEC00800070001000E000800070002000D000FA
:104AFC00800070003000C000800070004000B000EA
:104B0C00800070005000A0008000700060009000D9
:104B1C0080007000700080008000700080007000C9
:104B2C00800070009000600080007000A0005000B9
:104B3C0080007000B000400080007000C0003000A9
:104B4C0080007000D000200080007000E000100099
:104B5C0080007000F0000000900060000000F00089
:104B6C00900060001000E000900060002000D00079
:104B7C00900060003000C000900060004000B00069
:104B8C00900060005000A000900060006000900059
:104B9C009000600070008000900060008000700049
:104BAC00900060009000600090006000A000500039
:104BBC0090006000B000400090006000C000300029
:104BCC0090006000D000200090006000E000100019
:104BDC0090006000F0000000A00050000000F00009
:104BEC00A00050001000E000A00050002000D000F9
:104BFC00A00050003000C000A00050004000B000E9
:104C0C00A00050005000A000A000500060009000D8
:104C1C00A000500070008000A000500080007000C8
:104C2C00A000500090006000A0005000A0005000B8
:104C3C00A0005000B0004000A0005000C0003000A8
:104C4C00A0005000D0002000A0005000E000100098
:104C5C00A0005000F0000000B00040000000F00088
:104C6C00B00040001000E000B00040002000D00078
:104C7C00B00040003000C000B00040004000B00068
:104C8C00B00040005000A000B00040006000900058
:104C9C00B000400070008000B00040008000700048
:104CAC00B000400090006000B0004000A000500038
:104CBC00B0004000B0004000B0004000C000300028
:104CCC00B0004000D0002000B0004000E000100018
:104CDC00B0004000F00000004000B0001000E00008
:104CEC00A00050000000F0004000B0002000D000F8
:104CFC00A00050001000E000E00010000000F000E8
:104D0C004000B0005000A000A00050003000C000D7
:104D1C00A00050004000B000A00050005000A000C7
:104D2C00A0005000600090004000B000B0004000B7
:104D3C00A0005000700080004000B000D0002000A7
:104D4C004000B000800070004000B000F000000097
:104D5C00A0005000800070005000A0000000F00087
:104D6C004000B0003000C0005000A0004000B00077
:104D7C00A000500090006000A0005000A000500067
:104D8C005000A00080007000E00010001000E00057
:104D9C00A0005000B0004000A0005000C000300047
:104DAC00E00010002000D000A0005000D000200037
:104DBC00A0005000E0001000A0005000D000200027
:104DCC00A0005000F0000000B00040000000F00017
:104DDC00B00040001000E000600090001000E00007
:104DEC00B00040002000D000B00040003000C000F7
:104DFC00B00040004000B000E00010003000C000E7
:104E0C00600090005000A000B000400060009000D6
:104E1C00B000400070008000B000400080007000C6
:104E2C00B000400090006000B0004000A0005000B6
:104E3C00B0004000B0004000B0004000C0003000A6
:104E4C00B0004000D000200060009000F000000096
:104E5C00B0004000E0001000700080000000F00086
:104E6C00600090003000C000B0004000F000000076
:104E7C007000800090006000E00010004000B00066
:104E8C007000800080007000E00010005000A00056
:104E9C00C00030000000F000C00030001000E00046
:104EAC00E000100060009000C00030002000D00036
:104EBC00C00030003000C000C00030004000B00026
:104ECC00C00030005000A000C00030006000900016
:104EDC00C0003000700080000000F0000000F00006
:104EEC000000F0001000E0000000F0002000D000F6
:104EFC000000F0003000C0000000F0004000B000E6
:104F0C000000F0005000A0000000F00060009000D5
:104F1C000000F000700080000000F00080007000C5
:104F2C000000F000900060000000F000A0005000B5
:104F3C000000F000B00040000000F000C0003000A5
:104F4C000000F000D00020000000F000E000100095
:104F5C000000F000F00000001000E0000000F00085
:104F6C001000E0001000E0001000E0002000D00075
:104F7C001000E0003000C0001000E0004000B00065
:104F8C001000E0005000A0001000E0006000900055
:104F9C001000E000700080001000E0008000700045
:104FAC001000E000900060001000E000A000500035
:104FBC001000E000B00040001000E000C000300025
:104FCC001000E000D00020001000E000E000100015
:104FDC001000E000F00000002000D0000000F00005
:104FEC002000D0001000E0002000D0002000D000F5
:104FFC002000D0003000C0002000D0004000B000E5
:10500C002000D0005000A0002000D00060009000D4
:10501C002000D000700080002000D00080007000C4
:10502C002000D000900060002000D000A0005000B4
:10503C002000D000B00040002000D000C0003000A4
:10504C002000D000D00020002000D000E000100094
:10505C002000D000F00000003000C0000000F00084
:10506C003000C0001000E0003000C0002000D00074
:10507C003000C0003000C0003000C0004000B00064
:10508C003000C0005000A0003000C0006000900054
:10509C003000C000700080003000C0008000700044
:1050AC003000C000900060003000C000A000500034
:1050BC003000C000B00040003000C000C000300024
:1050CC003000C000D00020003000C000E000100014
:1050DC003000C000F00000004000B0000000F00004
:1050EC004000B0001000E0004000B0002000D000F4
:1050FC004000B0003000C0004000B0004000B000E4
:10510C004000B0005000A0004000B00060009000D3
:10511C004000B000700080004000B00080007000C3
:10512C004000B000900060004000B000A0005000B3
:10513C004000B000B00040004000B000C0003000A3
:10514C004000B000D00020004000B000E000100093
:10515C004000B000F00000005000A0000000F00083
:10516C005000A0001000E0005000A0002000D00073
:10517C005000A0003000C0005000A0004000B00063
:10518C005000A0005000A0005000A0006000900053
:10519C005000A000700080005000A0008000700043
:1051AC005000A000900060005000A000A000500033
:1051BC005000A000B00040005000A000C000300023
:1051CC005000A000D00020005000A000E000100013
:1051DC005000A000F0000000600090000000F00003
:1051EC00600090001000E000600090002000D000F3
:1051FC00600090003000C000600090004000B000E3
:10520C00600090005000A0006000900060009000D2
:10521C0060009000700080006000900080007000C2
:10522C00600090009000600060009000A0005000B2
:10523C0060009000B000400060009000C0003000A2
:10524C0060009000D000200060009000E000100092
:10525C0060009000F0000000700080000000F00082
:10526C00700080001000E000700080002000D00072
:10527C00700080003000C000700080004000B00062
:10528C00700080005000A000700080006000900052
:10529C007000800070008000700080008000700042
:1052AC00700080009000600070008000A000500032
:1052BC0070008000B000400070008000C000300022
:1052CC0070008000D000200070008000E000100012
:1052DC0070008000F0000000800070000000F00002
:1052EC00800070001000E000800070002000D000F2
:1052FC00800070003000C000800070004000B000E2
:10530C00800070005000A0008000700060009000D1
:10531C0080007000700080008000700080007000C1
:10532C00800070009000600080007000A0005000B1
:10533C0080007000B000400080007000C0003000A1
:10534C0080007000D000200080007000E000100091
:10535C0080007000F0000000900060000000F00081
:10536C00900060001000E000900060002000D00071
:10537C00900060003000C000900060004000B00061
:10538C00900060005000A000900060006000900051
:10539C009000600070008000900060008000700041
:1053AC00900060009000600090006000A000500031
:1053BC0090006000B000400090006000C000300021
:1053CC0090006000D000200090006000E000100011
:1053DC0090006000F0000000A00050000000F00001
:1053EC00A00050001000E000A00050002000D000F1
:1053FC00A00050003000C000A00050004000B000E1
:10540C00A00050005000A000A000500060009000D0
:10541C00A000500070008000A000500080007000C0
:10542C00A000500090006000A0005000A0005000B0
:10543C00A0005000B0004000A0005000C0003000A0
:10544C00A0005000D0002000A0005000E000100090
:10545C00A0005000F0000000B00040000000F00080
:10546C00B00040001000E000B00040002000D00070
:10547C00B00040003000C000B00040004000B00060
:10548C00B00040005000A000B00040006000900050
:10549C00B000400070008000B00040008000700040
:1054AC00B000400090006000B0004000A000500030
:1054BC00B0004000B0004000B0004000C000300020
:1054CC00B0004000D0002000B0004000E000100010
:1054DC00B0004000F0000000C00030000000F00000
:1054EC00C00030001000E000C00030002000D000F0
:1054FC00C00030003000C000C00030004000B000E0
:10550C00C00030005000A000C000300060009000CF
:10551C00C000300070008000C000300080007000BF
:10552C00C000300090006000C0003000A0005000AF
:10553C00C0003000B0004000C0003000C00030009F
:10554C00C0003000D0002000C0003000E00010008F
:10555C00C0003000F0000000D00020000000F0007F
:10556C00D00020001000E000D00020002000D0006F
:10557C00D00020003000C000D00020004000B0005F
:10558C00D00020005000A000D0002000600090004F
:10559C00D000200070008000D0002000800070003F
:1055AC00D000200090006000D0002000A00050002F
:1055BC00D0002000B0004000D0002000C00030001F
:1055CC00D0002000D0002000D0002000E00010000F
:1055DC00D0002000F0000000E00010000000F000FF
:1055EC00E00010001000E000E00010002000D000EF
:1055FC00E00010003000C000E00010004000B000DF
:10560C00E00010005000A000E000100060009000CE
:10561C00E000100070008000E000100080007000BE
:10562C00E000100090006000E0001000A0005000AE
:10563C00E0001000B0004000E0001000C00030009E
:10564C00E0001000D0002000E0001000E00010008E
:10565C00E0001000F0000000F00000000000F0007E
:10566C00F00000001000E000F00000002000D0006E
:10567C00F00000003000C000F00000004000B0005E
:10568C00F00000005000A000F0000000600090004E
:10569C00F000000070008000F0000000800070003E
:1056AC00F000000090006000F0000000A00050002E
:1056BC00F0000000B0004000F0000000C00030001E
:1056CC00F0000000D0002000F0000000E00010000E
:1056DC00F0000000F00000007E0000000000000060
:1056EC0000000000410C0008D3CEC22DCFC22D31DA
:1056FC0020202000D3CEC22DCFC22D35202020005B
:10570C00D3CEC22DCFC22D3130202000D3CEC22D0E
:10571C00CFC22D3135202000D3CEC22DCFC22D3398
:10572C0030202000D3CEC22DCFC22D35302020000A
:10573C00D3CEC22DCFC22D3130302000D3CEC22DCE
:10574C00CFC22D3135302000D3CEC22DCFC22D3259
:10575C0030302000D3CEC22DCFC22D3330302000BC
:10576C00D3CEC22DCFC22D3530302000D3CEC22D9A
:10577C00CFC22D3730302000D3CEC22DCFC22D3129
:10578C0030303000D3CEC22DCFC22D313530300069
:10579C00D3CEC22DD1C22D3520202000D3CEC22D88
:1057AC00D1C22D3130202000D3CEC22DD1C22D310B
:1057BC0035202000D3CEC22DD1C22D333020200075
:1057CC00D3CEC22DD1C22D3530202000D3CEC22D48
:1057DC00D1C22D3130302000D3CEC22DD1C22D31CB
:1057EC0035302000D3CEC22DD1C22D323030200026
:1057FC00D3CEC22DD1C22D3330302000D3CEC22D0A
:10580C00D1C22D3530302000D3CEC22DD1C22D3790
:10581C0030302000D3CEC22DD1C22D3130303000EB
:10582C00D3CEC22DD1C22D3135303000232D302BAB
:10583C002000686C4C006566674546470030313285
:10584C0033343536373839414243444546003031DC
:10585C00323334353637383961626364656600003B
:08586C0035010008893700082E
:045874000D0100081A
:1058780000000000010037002800000005000001BA
:1058880000000000140000001C00002000000000C0
:105898000000000000000000000000000000000000
:1058A80000000000000000000000000000000000F0
:1058B80000000000000000000000000000000000E0
:1058C80000000000000000000000000000000000D0
:1058D80000000000000000000000000000000000C0
:0C58E800000000000000000000000000B4
:0400000508003901B5
:00000001FF
