:020000040800F2
:100000000050002055B200089DB200089DB20008C3
:100010009DB200089DB200089DB2000800000000DB
:100020000000000000000000000000009DB2000879
:100030009DB20008000000009DB20008ED1B000802
:100040003F22000841220008432200084522000800
:1000500047220008492200084D22000869220008B2
:1000600085220008A1220008BD22000841240008C2
:100070005D2400087924000895240008B1240008B4
:10008000CD240008E9240008D9220008DB2200085A
:10009000DD220008DF220008E1220008E522000836
:1000A0005123000853230008552300085723000854
:1000B000592300085B2300085D2300085F23000824
:1000C00061230008632300086523000867230008F4
:1000D00069230008ED2300080924000825240008EE
:1000E0006D230008E9230008EB230008000000004E
:1000F0000000000000000000000000000000000000
:0C01000000000000000000005FF808F1A3
:10010C0010B5064C2378002B07D1054B002B02D0E1
:10011C000448AFF300800123237010BD6800002059
:10012C0000000000BCBD0008044B10B5002B03D030
:10013C0003490448AFF3008010BDC0460000000026
:10014C006C000020BCBD00080023C25C0133002AF7
:10015C00FBD1581E7047000002B471464908490093
:10016C00095C49008E4402BC7047C046002243081B
:10017C008B4274D303098B425FD3030A8B4244D363
:10018C00030B8B4228D3030C8B420DD3FF220902A5
:10019C0012BA030C8B4202D31212090265D0030B64
:1001AC008B4219D300E0090AC30B8B4201D3CB035A
:1001BC00C01A5241830B8B4201D38B03C01A52419C
:1001CC00430B8B4201D34B03C01A5241030B8B429E
:1001DC0001D30B03C01A5241C30A8B4201D3CB0289
:1001EC00C01A5241830A8B4201D38B02C01A52416E
:1001FC00430A8B4201D34B02C01A5241030A8B4271
:10020C0001D30B02C01A5241CDD2C3098B4201D388
:10021C00CB01C01A524183098B4201D38B01C01A06
:10022C00524143098B4201D34B01C01A524103097D
:10023C008B4201D30B01C01A5241C3088B4201D32C
:10024C00CB00C01A524183088B4201D38B00C01AD9
:10025C00524143088B4201D34B00C01A5241411A00
:10026C0000D20146524110467047FFE701B500200D
:10027C0000F0F0F802BDC0460029F7D076E77047D1
:10028C0003460B437FD4002243088B4274D30309EB
:10029C008B425FD3030A8B4244D3030B8B4228D38C
:1002AC00030C8B420DD3FF22090212BA030C8B42B2
:1002BC0002D31212090265D0030B8B4219D300E052
:1002CC00090AC30B8B4201D3CB03C01A5241830BD7
:1002DC008B4201D38B03C01A5241430B8B4201D387
:1002EC004B03C01A5241030B8B4201D30B03C01AB0
:1002FC005241C30A8B4201D3CB02C01A5241830A2A
:10030C008B4201D38B02C01A5241430A8B4201D358
:10031C004B02C01A5241030A8B4201D30B02C01A82
:10032C005241CDD2C3098B4201D3CB01C01A5241E9
:10033C0083098B4201D38B01C01A524143098B4272
:10034C0001D34B01C01A524103098B4201D30B015B
:10035C00C01A5241C3088B4201D3CB00C01A524180
:10036C0083088B4201D38B00C01A524143088B4245
:10037C0001D34B00C01A5241411A00D201465241DE
:10038C00104670475DE0CA0F00D04942031000D3FD
:10039C004042534000229C4603098B422DD3030A52
:1003AC008B4212D3FC22890112BA030A8B420CD362
:1003BC00890192118B4208D3890192118B4204D38B
:1003CC0089013AD0921100E08909C3098B4201D30B
:1003DC00CB01C01A524183098B4201D38B01C01A45
:1003EC00524143098B4201D34B01C01A52410309BC
:1003FC008B4201D30B01C01A5241C3088B4201D36B
:10040C00CB00C01A524183088B4201D38B00C01A17
:10041C005241D9D243088B4201D34B00C01A5241EE
:10042C00411A00D20146634652415B10104601D37B
:10043C004042002B00D54942704763465B1000D305
:10044C00404201B5002000F005F802BD0029F8D0AB
:10045C0016E770477047C0461F22430910401E3AEA
:10046C00824002499B005A507047C04600E100E0B0
:10047C004369013343617047704770477047704759
:10048C00012A03D0022A03D0002070470160FBE749
:10049C000B680360F8E7012A03D0022A03D000207E
:1004AC0070470160FBE70B680360F8E7012A03D093
:1004BC00022A03D0002070470160FBE70B68036041
:1004CC00F8E7012A03D0022A03D00020704701600C
:1004DC00FBE70B680360F8E7012A03D0022A03D07C
:1004EC00002070470160FBE70B680360F8E7012A06
:1004FC0003D0022A03D0002070470160FBE70B6891
:10050C000360F8E7012A03D0022A03D000207047C9
:10051C000160FBE70B680360F8E7012A03D0022AAD
:10052C0003D0002070470160FBE70B680360F8E71D
:10053C00012A03D0022A03D0002070470160FBE798
:10054C000B680360F8E7012A03D0022A03D00020CD
:10055C0070470160FBE70B680360F8E7012A03D0E2
:10056C00022A03D0002070470160FBE70B68036090
:10057C00F8E7012A03D0022A03D00020704701605B
:10058C00FBE70B680360F8E7012A03D0022A03D0CB
:10059C00002070470160FBE70B680360F8E7012A55
:1005AC0003D0022A03D0002070470160FBE70CC97E
:1005BC000CC0F8E7012A03D0022A03D000207047B0
:1005CC000160FBE70CC90CC0F8E70268406810B585
:1005DC0003685C1C9B00D3180460196110BD012AD0
:1005EC0003D0022A03D0002070470160FBE70B68A0
:1005FC000360F8E7012A03D0022A03D000207047D9
:10060C000160FBE70B680360F8E7012A03D0022ABC
:10061C0003D0002070470160FBE70B680360F8E72C
:10062C00012A03D0022A03D0002070470160FBE7A7
:10063C000B680360F8E7012A03D0022A03D00020DC
:10064C0070470160FBE70B680360F8E7012A03D0F1
:10065C00022A03D0002070470160FBE70B6803609F
:10066C00F8E7012A03D0022A03D00020704701606A
:10067C00FBE70B680360F8E7012A03D0022A03D0DA
:10068C00002070470160FBE70B680360F8E7012A64
:10069C0003D0022A03D0002070470160FBE70B68EF
:1006AC000360F8E7012A03D0022A03D00020704728
:1006BC000160FBE70B680360F8E7012A03D0022A0C
:1006CC0003D0002070470160FBE70B680360F8E77C
:1006DC00012A03D0022A03D0002070470160FBE7F7
:1006EC000B680360F8E7012A03D0022A03D000202C
:1006FC0070470160FBE70B680360F8E7012A03D041
:10070C00022A03D0002070470160FBE70B680360EE
:10071C00F8E7012A03D0022A03D0002070470160B9
:10072C00FBE70B680360F8E77047012A00D1016012
:10073C0000207047012A00D1016000207047012A77
:10074C0003D0022A03D0002070470160FBE70B683E
:10075C000360F8E7012A03D0022A03D00020704777
:10076C000160FBE70B680360F8E7012A03D0022A5B
:10077C0003D0002070470160FBE70B680360F8E7CB
:10078C00012A03D0022A03D0002070470160FBE746
:10079C000B680360F8E7012A03D0022A03D000207B
:1007AC0070470160FBE70B680360F8E7012A03D090
:1007BC00022A03D0002070470160FBE70B6803603E
:1007CC00F8E7012A03D0022A03D000207047016009
:1007DC00FBE70B680360F8E7012A03D0022A03D079
:1007EC00002070470160FBE70B680360F8E7012A03
:1007FC0003D0022A03D0002070470160FBE70B688E
:10080C000360F8E7012A03D0022A03D000207047C6
:10081C000160FBE70B680360F8E7012A03D0022AAA
:10082C0003D0002070470160FBE70B680360F8E71A
:10083C00012A03D0022A03D0002070470160FBE795
:10084C000B680360F8E7012A03D0022A03D00020CA
:10085C0070470160FBE70B680360F8E7012A03D0DF
:10086C00022A03D0002070470160FBE70B6803608D
:10087C00F8E7012A03D0022A03D000207047016058
:10088C00FBE70B680360F8E7012A03D0022A03D0C8
:10089C00002070470160FBE70B680360F8E7012A52
:1008AC0003D0022A03D0002070470160FBE70B68DD
:1008BC000360F8E7012A03D0022A03D00020704716
:1008CC000160FBE70B680360F8E7012A03D0022AFA
:1008DC0003D0002070470160FBE70B680360F8E76A
:1008EC00012A03D0022A03D0002070470160FBE7E5
:1008FC000B680360F8E7012A03D0022A03D000201A
:10090C0070470160FBE70B680360F8E7012A03D02E
:10091C00022A03D0002070470160FBE70B680360DC
:10092C00F8E7012A03D0022A03D0002070470160A7
:10093C00FBE70B680360F8E7012A03D0022A03D017
:10094C00002070470160FBE70B680360F8E7012AA1
:10095C0003D0022A03D0002070470160FBE70B682C
:10096C000360F8E7012A03D0022A03D00020704765
:10097C000160FBE70B680360F8E7012A03D0022A49
:10098C0003D0002070470160FBE70B680360F8E7B9
:10099C00012A03D0022A03D0002070470160FBE734
:1009AC000B680360F8E7012A03D0022A03D0002069
:1009BC0070470160FBE70B680360F8E7012A03D07E
:1009CC00022A03D0002070470160FBE70B6803602C
:1009DC00F8E7012A03D0022A03D0002070470160F7
:1009EC00FBE70B680360F8E7012A03D0022A03D067
:1009FC00002070470160FBE70B680360F8E7012AF1
:100A0C0003D0022A03D0002070470160FBE70B687B
:100A1C000360F8E7012A03D0022A03D000207047B4
:100A2C000160FBE70B680360F8E7012A03D0022A98
:100A3C0003D0002070470160FBE70B680360F8E708
:100A4C00012A03D0022A03D0002070470160FBE783
:100A5C000B680360F8E7012A03D0022A03D00020B8
:100A6C0070470160FBE70B680360F8E7012A03D0CD
:100A7C00022A03D0002070470160FBE70B6803607B
:100A8C00F8E7012A03D0022A03D000207047016046
:100A9C00FBE70B680360F8E7012A03D0022A03D0B6
:100AAC00002070470160FBE70B680360F8E7012A40
:100ABC0003D0022A03D0002070470160FBE70B68CB
:100ACC000360F8E7012A03D0022A03D00020704704
:100ADC000160FBE70B680360F8E7012A03D0022AE8
:100AEC0003D0002070470160FBE70B680360F8E758
:100AFC00012A03D0022A03D0002070470160FBE7D3
:100B0C000B680360F8E7012A03D0022A03D0002007
:100B1C0070470160FBE70B680360F8E7012A03D01C
:100B2C00022A03D0002070470160FBE70B680360CA
:100B3C00F8E7012A03D0022A03D000207047016095
:100B4C00FBE70B680360F8E7012A03D0022A03D005
:100B5C00002070470160FBE70B680360F8E7012A8F
:100B6C0003D0022A03D0002070470160FBE70B681A
:100B7C000360F8E7012A03D0022A03D00020704753
:100B8C000160FBE70B680360F8E7012A03D0022A37
:100B9C0003D0002070470160FBE70B680360F8E7A7
:100BAC00012A03D0022A03D0002070470160FBE722
:100BBC000B680360F8E7012A03D0022A03D0002057
:100BCC0070470160FBE70B680360F8E7012A03D06C
:100BDC00022A03D0002070470160FBE70B6803601A
:100BEC00F8E7012A03D0022A03D0002070470160E5
:100BFC00FBE70B680360F8E7012A03D0022A03D055
:100C0C00002070470160FBE70B680360F8E7012ADE
:100C1C0003D0022A03D0002070470160FBE70B6869
:100C2C000360F8E7012A03D0022A03D000207047A2
:100C3C000160FBE70B680360F8E7012A03D0022A86
:100C4C0003D0002070470160FBE70CC90CC0F8E72B
:100C5C00012A03D0022A03D0002070470160FBE771
:100C6C000CC90CC0F8E7436B013343637047C3698D
:100C7C000133C361704770477047704770477047C6
:100C8C0070477047704770477047704770477047A0
:100C9C00012A03D0022A03D0002070470160FBE731
:100CAC000B680360F8E7012A03D0022A03D0002066
:100CBC0070470160FBE70B680360F8E7012A03D07B
:100CCC00022A03D0002070470160FBE70B68036029
:100CDC00F8E7012A03D0022A03D0002070470160F4
:100CEC00FBE70B680360F8E7012A03D0022A03D064
:100CFC00002070470160FBE70B680360F8E7012AEE
:100D0C0003D0022A03D0002070470160FBE70B6878
:100D1C000360F8E7012A03D0022A03D000207047B1
:100D2C000160FBE70B680360F8E7012A03D0022A95
:100D3C0003D0002070470160FBE70B680360F8E705
:100D4C00012A03D0022A03D0002070470160FBE780
:100D5C000B680360F8E7012A03D0022A03D00020B5
:100D6C0070470160FBE70B680360F8E7012A03D0CA
:100D7C00022A03D0002070470160FBE70B68036078
:100D8C00F8E7012A03D0022A03D000207047016043
:100D9C00FBE70B680360F8E7012A03D0022A03D0B3
:100DAC00002070470160FBE70B680360F8E7012A3D
:100DBC0003D0022A03D0002070470160FBE70B68C8
:100DCC000360F8E7012A03D0022A03D00020704701
:100DDC000160FBE70B680360F8E7012A03D0022AE5
:100DEC0003D0002070470160FBE70B680360F8E755
:100DFC00012A03D0022A03D0002070470160FBE7D0
:100E0C000B680360F8E7012A03D0022A03D0002004
:100E1C0070470160FBE70B680360F8E7012A03D019
:100E2C00022A03D0002070470160FBE70B680360C7
:100E3C00F8E7012A03D0022A03D000207047016092
:100E4C00FBE70B680360F8E7012A03D0022A03D002
:100E5C00002070470160FBE70B680360F8E7012A8C
:100E6C0003D0022A03D0002070470160FBE70B6817
:100E7C000360F8E7012A03D0022A03D00020704750
:100E8C000160FBE70B680360F8E7012A03D0022A34
:100E9C0003D0002070470160FBE70B680360F8E7A4
:100EAC00012A03D0022A03D0002070470160FBE71F
:100EBC000B680360F8E7012A03D0022A03D0002054
:100ECC0070470160FBE70B680360F8E7012A03D069
:100EDC00022A03D0002070470160FBE70B68036017
:100EEC00F8E7012A03D0022A03D0002070470160E2
:100EFC00FBE70B680360F8E7012A03D0022A03D052
:100F0C00002070470160FBE70B680360F8E7012ADB
:100F1C0003D0022A03D0002070470160FBE70B6866
:100F2C000360F8E7012A03D0022A03D0002070479F
:100F3C000160FBE70B680360F8E7012A03D0022A83
:100F4C0003D0002070470160FBE70B680360F8E7F3
:100F5C00012A03D0022A03D0002070470160FBE76E
:100F6C000B680360F8E7012A03D0022A03D00020A3
:100F7C0070470160FBE70B680360F8E7012A03D0B8
:100F8C00022A03D0002070470160FBE70B68036066
:100F9C00F8E7012A03D0022A03D000207047016031
:100FAC00FBE70B680360F8E7012A03D0022A03D0A1
:100FBC00002070470160FBE70B680360F8E7012A2B
:100FCC0003D0022A03D0002070470160FBE70B68B6
:100FDC000360F8E7012A03D0022A03D000207047EF
:100FEC000160FBE70B680360F8E7012A03D0022AD3
:100FFC0003D0002070470160FBE70B680360F8E743
:10100C00012A03D0022A03D0002070470160FBE7BD
:10101C000B680360F8E7012A03D0022A03D00020F2
:10102C0070470160FBE70B680360F8E7012A03D007
:10103C00022A03D0002070470160FBE70B680360B5
:10104C00F8E7012A03D0022A03D000207047016080
:10105C00FBE70B680360F8E7012A03D0022A03D0F0
:10106C00002070470160FBE70B680360F8E7012A7A
:10107C0003D0022A03D0002070470160FBE70B6805
:10108C000360F8E7012A03D0022A03D0002070473E
:10109C000160FBE70B680360F8E7012A03D0022A22
:1010AC0003D0002070470160FBE70B680360F8E792
:1010BC00012A03D0022A03D0002070470160FBE70D
:1010CC000B680360F8E7012A03D0022A03D0002042
:1010DC0070470160FBE70B680360F8E7012A03D057
:1010EC00022A03D0002070470160FBE70B68036005
:1010FC00F8E7012A03D0022A03D0002070470160D0
:10110C00FBE70B680360F8E7012A03D0022A03D03F
:10111C00002070470160FBE70B680360F8E7012AC9
:10112C0003D0022A03D0002070470160FBE70B6854
:10113C000360F8E7012A03D0022A03D0002070478D
:10114C000160FBE70B680360F8E7012A03D0022A71
:10115C0003D0002070470160FBE70B680360F8E7E1
:10116C00012A03D0022A03D0002070470160FBE75C
:10117C000B680360F8E7012A03D0022A03D0002091
:10118C0070470160FBE70B680360F8E7012A03D0A6
:10119C00022A03D0002070470160FBE70B68036054
:1011AC00F8E7012A03D0022A03D00020704701601F
:1011BC00FBE70B680360F8E7012A03D0022A03D08F
:1011CC00002070470160FBE70B680360F8E7012A19
:1011DC0003D0022A03D0002070470160FBE70B68A4
:1011EC000360F8E7012A03D0022A03D000207047DD
:1011FC000160FBE70B680360F8E7012A03D0022AC1
:10120C0003D0002070470160FBE70B680360F8E730
:10121C00012A03D0022A03D0002070470160FBE7AB
:10122C000B680360F8E7012A03D0022A03D00020E0
:10123C0070470160FBE70B680360F8E7012A03D0F5
:10124C00022A03D0002070470160FBE70B680360A3
:10125C00F8E7012A03D0022A03D00020704701606E
:10126C00FBE70B680360F8E7012A03D0022A03D0DE
:10127C00002070470160FBE70B680360F8E7012A68
:10128C0003D0022A03D0002070470160FBE70B68F3
:10129C000360F8E770B50C000500006803689B68F4
:1012AC00984723682C601B682000984770BD006825
:1012BC0010B501003531FF318830FFF7EBFF10BD61
:1012CC00006810B501008830F031FFF7E3FF10BD66
:1012DC00852310B500689B00C1188830FFF7DAFF32
:1012EC0010BDC42310B500689B00C1188830FFF7EF
:1012FC00D1FF10BDA02310B50068DB00C1188830E9
:10130C00FFF7C8FF10BD9A2310B500685B01C11828
:10131C008830FFF7BFFF10BD006810B501003531F4
:10132C00FF318830FFF7B6FF10BDB72310B500684A
:10133C009B00C1188830FFF7ADFF10BD852310B599
:10134C0000689B00C1188830FFF7A4FF10BD00682F
:10135C0010B501003531FF318830FFF79BFF10BD10
:10136C00F62310B500689B00C1188830FFF792FF78
:10137C0010BD10B503681A1DD26F917C8D22D2005E
:10138C0099508C230068DB00C1188830FFF782FF6E
:10139C0010BDC42310B500689B00C1188830FFF73E
:1013AC0079FF10BDC42310B500689B00C1188830AC
:1013BC00FFF770FF10BD006810B501003531FF312B
:1013CC008830FFF767FF10BDBC2310B50068DB0049
:1013DC00C1188830FFF75EFF10BD000010B5006823
:1013EC00024BC1188830FFF755FF10BD6406000092
:1013FC00E02310B50068DB00C1188830FFF74AFF06
:10140C0010BD000010B50068024BC1188830FFF702
:10141C0041FF10BD180B0000A02310B50068DB00C5
:10142C00C1188830FFF736FF10BDA02310B5006837
:10143C00DB00C1188830FFF72DFF10BDA02310B5BD
:10144C000068DB00C1188830FFF724FF10BDFF23B4
:10145C0010B50068DB00C1188830FFF71BFF10BD0A
:10146C0010B50068024BC1188830FFF713FF10BD90
:10147C009808000010B50068024BC1188830FFF7BF
:10148C0009FF10BD3809000010B50068024BC118E7
:10149C008830FFF7FFFE10BDD809000010B50068BA
:1014AC00024BC1188830FFF7F5FE10BD780A00001A
:1014BC00E02310B50068DB00C1188830FFF7EAFEA6
:1014CC0010BDE02310B50068DB00C1188830FFF7B1
:1014DC00E1FE10BD10B51F240068074BC16FC25C44
:1014EC008B785201234013438B70E023DB00C1182F
:1014FC008830FFF7CFFE10BD94080000E02310B534
:10150C000068DB00C1188830FFF7C4FE10BD000076
:10151C0010B50068084B0124C25CC16F531E9A4180
:10152C008B78A34313438B70E023DB00C118883006
:10153C00FFF7B0FE10BDC04634090000E02310B523
:10154C000068DB00C1188830FFF7A4FE10BD000056
:10155C00012210B502240068074BC16FC35C1A400E
:10156C008B785200A34313438B70E023DB00C1182C
:10157C008830FFF78FFE10BDD4090000E02310B5B2
:10158C000068DB00C1188830FFF784FE10BD000036
:10159C0010B50068094B1824C358C16F013B5A1E83
:1015AC0093418A785B00A243DB0013438B70E023EA
:1015BC00DB00C1188830FFF76DFE10BD740A000007
:1015CC00A02310B50068DB00C1188830FFF762FE5D
:1015DC0010BD00000368074A1800096810B5883070
:1015EC00914204D1044A9918FFF754FE10BDA02271
:1015FC00D200F8E7B7040000B80B0000A02310B528
:10160C000068DB00C1188830FFF744FE10BDD12301
:10161C0010B500681B01C1188830FFF73BFE10BDE8
:10162C0010B50068024BC1188830FFF733FE10BDAF
:10163C00AC0D000000220168044B10B5CA500068C4
:10164C00034BC1188830FFF725FE10BDB40B00000A
:10165C00480E000010B50068024BC1188830FFF727
:10166C0019FE10BDE80E000010B50068024BC11841
:10167C008830FFF70FFE10BD840F0000812310B5DA
:10168C0000685B01C1188830FFF704FE10BD000034
:10169C0000220168044B10B5CA500068034BC118F6
:1016AC008830FFF7F7FD10BDB40B00005811000097
:1016BC0010B50068024BC1188830FFF7EBFD10BD68
:1016CC00FC110000952310B500685B01C11888302F
:1016DC00FFF7E0FD10BD000010B50068024BC1180B
:1016EC008830FFF7D7FD10BDB80B000010B50068AF
:1016FC00024BC1188830FFF7CDFD10BDB80B0000B0
:10170C0010B50068024BC1188830FFF7C3FD10BD3F
:10171C00B80B000010B50068064BC358002B02D064
:10172C000023C26F9381044BC1188830FFF7B2FDC0
:10173C0010BDC046B40B0000B80B000010B500681B
:10174C00024BC1188830FFF7A5FD10BDB80B000087
:10175C0010B504680222231DD86FE16F12300931D5
:10176C0009F0ABFE2000034B8830E118FFF792FD27
:10177C0010BDC046B80B000010B50068024BC11874
:10178C008830FFF787FD10BDB80B000010B500685E
:10179C00024BC1188830FFF77DFD10BDB80B00005F
:1017AC0010B50068024BC1188830FFF773FD10BDEF
:1017BC00B80B000010B50068024BC1188830FFF759
:1017CC0069FD10BDB80B000010B500680A4BC3587A
:1017DC00002B0AD00023C26F5382C26F9382C26F58
:1017EC00D382C26F138B01331383044BC11888301F
:1017FC00FFF750FD10BDC046B40B0000B80B000045
:10180C0010B50068024BC1188830FFF743FD10BDBE
:10181C00B80B000010B50068074B0124C258C16F0B
:10182C00531E9A410B7CA34313430B74034BC118F7
:10183C008830FFF72FFD10BDF8110000B80B000029
:10184C0010B50068024BC1188830FFF723FD10BD9E
:10185C00B80B000010B50068084B0224C358C16FC8
:10186C005A1E93415A000B7CA34313430B74044B35
:10187C00C1188830FFF70EFD10BDC0469C12000049
:10188C00B80B0000006810B501003531FF3188300D
:10189C00FFF700FD10BD006810B503000833DB6FC7
:1018AC0000241A00196C14323C3310C20C80023123
:1018BC009A42FAD1C26F938A01339382F6239B002A
:1018CC00C1188830FFF7E6FC10BD0000006870B549
:1018DC000300002412490833DD6F4358013B9A0082
:1018EC00AA1854612A6C5B009C52C26FD38A0133D4
:1018FC00D38242580B4B013A1340A34204DA022123
:10190C00013B49420B430133D31A8B22D200835043
:10191C00F6239B00C1188830FFF7BCFC70BDC04695
:10192C005C040000010000800B1A9B10002B14DDDE
:10193C000278002A03D04278002A01D10130704786
:10194C008278002A01D10230F9E7C278002A01D14D
:10195C000330F4E70430013BE8E70B1A022B0CD000
:10196C00032B06D0012B02D10378002BE7D0080003
:10197C00E5E70378002BE2D001300378002BDED0B2
:10198C000130F1E70B1A9B10002B14DD0278002AB2
:10199C0003D14278002A01D0013070478278002AA6
:1019AC0001D00230F9E7C278002A01D00330F4E705
:1019BC000430013BE8E70B1A022B0CD0032B06D0AA
:1019CC00012B02D10378002BE7D10800E5E703785F
:1019DC00002BE2D101300378002BDED10130F1E78E
:1019EC0010B5FEF739FD10BD0368002B02D1016064
:1019FC0004E013005A68002AFBD15960704710B5F7
:101A0C000400002C05D0236820001B6898476468EC
:101A1C00F7E710BD13B50C000091117801927639DF
:101A2C004B425941CBB221000C240B2900D80C009D
:101A3C00E418994207D3C91AA14200D92100D3183E
:101A4C000160436016BD00220121014809F02CFC05
:101A5C007DC50008482210B50300007A5143114A95
:101A6C00002807D090681860814201D3081A58608A
:101A7C00002018721C68A14208D892680120A41A90
:101A8C00A14202D8012200201A7210BD91680120D7
:101A9C008C42FAD8516892688A1A59688A42F1D2F3
:101AAC00F3E7C04610E000E00369F7B5104A0133D4
:101ABC000500934219D100240600476C04611436CA
:101ACC003B78A34212DDEB6B01201B883C212341A8
:101ADC0098433368C0182B6C01C60193FEF746FB84
:101AEC00019B6200D0520134EAE70361F7BDC046A6
:101AFC0060EA000003008C3310B504001868322132
:101B0C00421C1A60FEF7B8FB002904D18834206807
:101B1C0003685B68984710BD10B50A1A02D02021E3
:101B2C0009F0E7FC10BD704703691B0603D5024B97
:101B3C004360024B4360704723016745AB89EFCD8F
:101B4C000122036993430361022302691343036176
:101B5C0080239B02C9184023890241610269134307
:101B6C000361704710B50468002C05D02368200071
:101B7C001B689847A468F7E710BD10B5836804008C
:101B8C00002B02D0032201009847200010BD00005A
:101B9C0070B5060005000400074BCD360833ED3553
:101BAC000360FF36FF35AE4204D0103D2800FFF72E
:101BBC00E4FFF8E7200070BD68D6000810B50400FB
:101BCC000830FFF7CFFF20696169431C2361FEF7E2
:101BDC0053FB002902D12000FFF7C4FF10BD000009
:101BEC0010B50248FFF7EAFF10BDC04638080020C8
:101BFC00416902690023914201D34361013318000A
:101C0C0070470000037B002B0DD000234268037348
:101C1C008368002A0ED0002B08D0936083685A602A
:101C2C0000234360836070470B60F8E704499360BE
:101C3C004A60F5E70249002BF6D10B604B60EFE7E9
:101C4C0038080020002310B54361FFF7DBFF10BDFF
:101C5C00037B002B0CD101330373064B5A68426093
:101C6C00002A00D090601A685860002A00D11860D1
:101C7C007047C0463808002070B58225AD00435926
:101C8C000400022B14D0032B24D0012B0FD12300E2
:101C9C000021B0331A78103019708A4207D0FFF740
:101CAC00B1FF2000B830FFF7D3FF0223635170BDA2
:101CBC00230000215933FF331A78B83019708A4247
:101CCC00F5D0FFF79FFF20006130FF30FFF7C0FF1A
:101CDC000323EBE7802300219B00C3181A781970AB
:101CEC008A42E4D06130FF30FFF78CFF20001030C7
:101CFC00FFF7AEFF0123D9E710B5036804005A1CA7
:101D0C00C3180260597200685021FEF7B5FA200022
:101D1C00216010BD10B5142104000068FEF7ACFA68
:101D2C00002903D120312000FFF7E6FF14212068A1
:101D3C00FEF7A2FA002901D02021F4E7200010BD03
:101D4C0010B504002368002B04D020212000FFF7DD
:101D5C00D3FFF7E7200010BD70B5040000200D0084
:101D6C00814202D00800FEF7EFF920606560200088
:101D7C0070BD70B504000D0000681421FEF7F6F973
:101D8C0003001420584350214019FEF775FA200027
:101D9C00216070BD70B505682A00C4321368002B31
:101DAC001AD02E001424C036013B136033686868C7
:101DBC00634313210360FFF7DCFF2021FFF79CFF37
:101DCC0033686868013B5C43336013210460FFF7A0
:101DDC00D0FF7E21FFF790FF70BD70B505682A001B
:101DEC00C4321368022B1AD02E001424C0360133CF
:101DFC00136033686868634313210360FFF7B9FF0E
:101E0C002021FFF779FF3368686801335C43336046
:101E1C0013210460FFF7ADFF7E21FFF76DFF70BD4E
:101E2C0070B505682A00DC321368002B1AD02E001E
:101E3C001424D836013B136033686868634313215C
:101E4C000360FFF796FF2021FFF756FF33686868A1
:101E5C00013B5C43336013210460FFF78AFF7E2152
:101E6C00FFF74AFF70BD70B505682A00DC321368B5
:101E7C00032B1AD02E001424D83601331360336888
:101E8C006868634313210360FFF773FF2021FFF79A
:101E9C0033FF3368686801335C433360132104609B
:101EAC00FFF767FF7E21FFF727FF70BD0123026854
:101EBC004068116983400B431361704701234268EA
:101ECC0010B51032934001680C6923430B6110BDAF
:101EDC00036810B504009869FFF7F0FFC82160682B
:101EEC00FFF7B8FD0028F9D123689869FFF7DEFFEA
:101EFC00C8216068FFF7AEFD0028F9D110BD70B5A0
:101F0C0004000D000368ED001869FFF7D7FF236884
:101F1C006068DA699B6AEB581361FFF7D9FF236895
:101F2C006068DA699B6A5D196B681361FFF7D0FF13
:101F3C006421A068FFF78EFD0028F9D170BD000068
:101F4C0070B5437B0400012B20D0002B02D0022B58
:101F5C0027D070BD4069FFF7B1FF2069FFF7A6FFDE
:101F6C00606B5021431C6363FEF786F9114B8900AB
:101F7C00256ACB58626AEB5CDB00D3181968E269FE
:101F8C005B681161E36201236373E2E78069FFF729
:101F9C008DFFA069FFF792FFE369E26A1A610223E1
:101FAC00F2E78069FFF782FFA069FFF787FF002344
:101FBC00EAE7C046FCC00008036842680120904074
:101FCC009B681840431E9841C0B2704770B50024FE
:101FDC0005002600EB6B1B78A34209DDA300EB1870
:101FEC001869FFF7E9FFA0400643B6B20134F1E7E8
:101FFC00AB6B1E8070BD10B50C1E03D0FFF756FFE7
:10200C00200010BDFFF75AFFFAE770B50600437ABF
:10201C0004000C36002B05D00023C1614372300044
:10202C00FFF716FE3000FFF7E3FD0125002804D072
:10203C003000FFF707FE65720025280070BD000018
:10204C00F0B500278FB005AD04000C22390009A8AB
:10205C0005976F6009F04DFA01236B722B726B467A
:10206C00374EEF61EE602F6200940195029403935A
:10207C00049564212800FFF7C8FF0028F9D12069D6
:10208C00FFF71CFF6069FFF719FFA069FFF70EFF50
:10209C00A26AE369D26968461A61FFF719FF052144
:1020AC002800FFF7B2FF0028F9D1A26AE369D269D0
:1020BC0068461A61FFF70CFF64212800FFF7CAFC81
:1020CC000028F9D1A26AE369D26968461A61FFF760
:1020DC00FFFE32212800FFF7BDFC0028F9D1A26ACF
:1020EC00E369526968461A61FFF7F2FE3221280053
:1020FC00FFF7B0FC0028F9D1282102A8FFF7FFFE5A
:10210C000C2102A8FFF7FBFE062102A8FFF7F7FE41
:10211C00012102A8FFF7F3FE802102A8FFF7EFFED2
:10212C0001212800FFF771FF0028F9D10123303479
:10213C00237008A8EE60FFF765FD0FB0F0BDC04638
:10214C00DCBD000810B504005030FFF716FD200070
:10215C004030FFF712FD20003030FFF70EFD20005D
:10216C002030FFF70AFD20001030FFF706FD20009D
:10217C00FFF703FD200010BD10B50400072A19D18C
:10218C00204B5B689B045B0F1CD0042B1CD0052BD5
:10219C001CD0063B5A1E93411B4A5B4213401B4A00
:1021AC009B1807291AD80800FDF7D6FF121A1C1F16
:1021BC0021242629083A0023012AF2D8114B5B6806
:1021CC005B05E0E7124BECE7124BEAE7124BE8E752
:1021DC00962189011800FDF7C9FFA060200010BDF1
:1021EC00E121F6E79621C901F4E7E121FBE796210D
:1021FC000902EFE7E121FBE796214902EAE7E12139
:10220C00FBE7C04600100240E055BBFF405489007C
:10221C0000A24A040051250280A812010123C9B270
:10222C00890003398B4000681840431E9841C0B2A6
:10223C007047FEE7FEE7FEE7FEE7FEE7FEE700007D
:10224C00044B10B51868FFF7DAFB0122024B5A61F8
:10225C0010BDC0469807002000040140044B10B587
:10226C001868FFF7CCFB0222024B5A6110BDC04626
:10227C00A007002000040140044B10B51868FFF7BC
:10228C00BEFB0422024B5A6110BDC046D807002089
:10229C0000040140044B10B51868FFF7B0FB08228E
:1022AC00024B5A6110BDC046E007002000040140FB
:1022BC00044B10B51868FFF7A2FB1022024B5A61B1
:1022CC0010BDC046E807002000040140FEE7FEE711
:1022DC00FEE7FEE7FEE7000010B5144C63699B06B1
:1022EC0003D5134B1868FFF78AFB63695B0603D5AC
:1022FC00104B1868FFF783FB63691B0603D50E4B65
:10230C001868FFF77CFB6369DB0503D50B4B18687A
:10231C00FFF775FB63699B0503D5094B1868FFF73D
:10232C006EFBF8239B00636110BDC04600040140A6
:10233C00F0070020F8070020000800200808002003
:10234C0010080020FEE7FEE7FEE7FEE7FEE7FEE7EB
:10235C00FEE7FEE7FEE7FEE7FEE7FEE7FEE700002E
:10236C0010B5174C63695B0503D5164B1868FFF75E
:10237C0046FB63691B0503D5134B1868FFF73FFB3E
:10238C006369DB0403D5114B1868FFF738FB6369ED
:10239C009B0403D50E4B1868FFF731FB63695B0494
:1023AC0003D50C4B1868FFF72AFB63691B0403D594
:1023BC00094B1868FFF723FBFC231B02636110BD5C
:1023CC0000040140A8070020B0070020B807002037
:1023DC00C0070020C8070020D0070020FEE7FEE75A
:1023EC00044B10B51868FFF70AFB034B1A685B68BF
:1023FC0010BDC0462008002000380140044B10B529
:10240C001868FFF7FCFA034B1A685B6810BDC046EE
:10241C002808002000440040044B10B51868FFF752
:10242C00EEFA034B1A685B6810BDC04630080020FA
:10243C0000480040044B10B51868FFF7E0FA012281
:10244C00024B5A6010BDC0466007002000000240DD
:10245C00044B10B51868FFF7D2FA1022024B5A60E1
:10246C0010BDC0466807002000000240044B10B5A8
:10247C001868FFF7C4FA8022024B52005A6010BD54
:10248C007007002000000240044B10B51868FFF7DD
:10249C00B6FA8022024B52015A6010BD7807002018
:1024AC0000000240044B10B51868FFF7A8FA802210
:1024BC00024B52025A6010BD8007002000000240FF
:1024CC00044B10B51868FFF79AFA8022024B52039E
:1024DC005A6010BD8807002000000240044B10B564
:1024EC001868FFF78CFA8022024B52045A6010BD18
:1024FC009007002000000240436800685B00C01891
:10250C007047000010221F4B19680A4307211A60FC
:10251C001A688A43110002220A431A6080221A4B5D
:10252C00520219680A431A601A689203FCD5F0210A
:10253C005A688A435A605A68144911408022D20062
:10254C000A435A605A6812490A405A6080225968F4
:10255C0052020A435A605A680E491140E022520353
:10256C000A435A608022196852040A431A601A6896
:10257C009201FCD503215A688A43110002220A43B6
:10258C005A6070470020024000100240FFF8FFFF25
:10259C00FFC7FFFFFFFFC3FFF8B50123614A624F7E
:1025AC0012681A4260D1614A61481168194204D11B
:1025BC00604913600160092141600423BA69F0216C
:1025CC001343BB610123BA6905681A43BA616A688F
:1025DC008A431100A0220A436A60574A574915687A
:1025EC001D4204D1534D13600D600A254D60042328
:1025FC00BA69534D1343BB610123BA690E681A4380
:10260C00BA61726815408022D2002A434D4D726027
:10261C002E684D4A1E4204D1464E2B601660082689
:10262C00566004250F24BB692B43BB611668736885
:10263C00A3439C460223644623437360434B00260A
:10264C00FC335A61424A5E609A61424A9E60DA618A
:10265C00414AD8601A62414A19615A620722DD6206
:10266C009A6201232F4A13608023384EBA693400D2
:10267C00DB0113430822BB61FC34E3698025D96874
:10268C0004200A43DA600422D9680A43DA605A69E2
:10269C002A435A61402259690A435A61304B1856F1
:1026AC00FFF79EF901237A692E4913437B611027AA
:1026BC00236A2D481A683A431A6062689219DA60E4
:1026CC00E26904329A601A682A431A601A680A404E
:1026DC001A601A6802401A600222042019680A4320
:1026EC001A60224B1856FFF77BF9636A1D491A686A
:1026FC001D48BA431A6062689219DA60E2690432C2
:10270C009A60FF225A601A6815431D601A680A40C5
:10271C001A601A6802401A602022196830000A43B5
:10272C001A60F8BD9003002000100240D80400206D
:10273C00DC04002000080140CC040020D004002060
:10274C00FFF0FFFFC0040020C4040020940300200D
:10275C000000024000380140440002405800024092
:10276C0020080020FFF3FFFFFFFCFFFF780700208D
:10277C00F8B50123704A714F12681A427ED1704A23
:10278C0070491068184204D16F48136008600A2021
:10279C00486010220120BB696C4C1343BB61BB69C0
:1027AC000D680343BB616B681C40A0231B012343D2
:1027BC006B603025664B5C68AC432243654C5A60B9
:1027CC002568654A054204D15F4D206015600B25D4
:1027DC0055601024B86926002043B8611068BC69A4
:1027EC00844601200443BC6164465C4D646825400A
:1027FC008024E4012C4365466C6030255C68AC4356
:10280C0034435C60564C2568054205D1554D564EF7
:10281C0020602E600F266E600420BC69514D204351
:10282C000124B861286826008446B8692043B86141
:10283C0058684E4C04408020800420435860634606
:10284C0080205B6880051B011B09034360464360C5
:10285C00474B0020FC331A61464A58609A61464A3D
:10286C009860DA61454AD9601A62454A5D615A62DC
:10287C0009229A62073ADA622F4B1E6080233C4E83
:10288C00FA693400DB0213430822FB61FC34E36970
:10289C008025D96804200A43DA600422D9680A43E7
:1028AC00DA605A692A435A61402259690A435A61CB
:1028BC00344B1856FFF794F801237A6932491343C5
:1028CC007B611027236A31481A683A431A606268A0
:1028DC009219DA60E26904329A601A682A431A6023
:1028EC001A680A401A601A6802401A600222042010
:1028FC0019680A431A60264B1856FFF771F8636A79
:10290C0021491A682148BA431A6062689219DA6040
:10291C00E26904329A60FF225A601A6815431D60FE
:10292C001A680A401A601A6802401A602022196854
:10293C0030000A431A60F8BD3C020020001002402F
:10294C00840300208803002000100140FFF0FFFFEB
:10295C0000000140780300207C030020FF0FFFFFE4
:10296C006C0300207003002000080140FFFFFFF8FB
:10297C004002002000000240004800401C000240C1
:10298C003000024030080020FFF3FFFFFFFCFFFF88
:10299C006807002070B515000C1A04D00100220045
:1029AC00280008F093FD281970BD0300F0B5093319
:1029BC0087B00193036816000293029A019B0500ED
:1029CC009A18037A0C00002B27D013291CD8142733
:1029DC007F1A7F08D7197B18100039000393FFF773
:1029EC009BF831193A003000FFF7D4FF0299019B94
:1029FC00143159180398FFF78FF8286814305021B8
:102A0C00FDF73AFC296016E008001438400830182D
:102A1C0001001431FFF7BEFFEFE75021029BC91AEA
:102A2C0033190293A1420BD919003000FFF7B2FF02
:102A3C002B681C192C60002328002B7207B0F0BDEA
:102A4C00270071183000FFF7A5FF2B68503FFF18C7
:102A5C00E41B36193000019A5036502F04D931003E
:102A6C00FFF798FF503FF5E70299FFF793FF2B68AC
:102A7C00F818C4E730B5050089B00A0005A810495C
:102A8C0008F044FE05A901A8FFF766F96C68019BE4
:102A9C009C4207D9E41A013C04D320212800FFF7FB
:102AAC002BF9F8E705A903A8FFF756F90399049A3F
:102ABC002800FFF77AFF002328006B6009B030BDB7
:102ACC003AC60008F8B53022070006000500436836
:102ADC0098371A6088366C68B74204D002CE200052
:102AEC00FFF7C8FFF7E73C232360386850214430D8
:102AFC00FDF7C2FB200021605E21FFF7FDF8FFF718
:102B0C0009F9F8BD70B50568290098310B689B0070
:102B1C00EB1888331A6801321A600C680A21A40079
:102B2C002C1988342068FDF791FC28002160FFF7F0
:102B3C00C9FF70BD006810B5010098310B689B008F
:102B4C00C31888331A68013A1A600B689B00C318C3
:102B5C0088331A68002A01DA09221A60FFF7B2FFDB
:102B6C0010BDF7B50022436804001A60031DDD6F29
:102B7C0003272B00052608330193E36F60681B784D
:102B8C00AB4215DD013529004760FFF773FF3A2191
:102B9C00FFF7B2F860686B1E4660A26F5B00995A33
:102BAC00FFF768FF2021FFF7A7F8019B9D42E4D1B6
:102BBC006068FFF7C5F8F7BD006810B5021DD36F4C
:102BCC00002B03D0023BD367FFF7CBFF10BD00688F
:102BDC0010B5021DD36FC16F1C00097808348C42EC
:102BEC0003DA0233D367FFF7BCFF10BDF7B500253E
:102BFC00436804001D60036B1B789B070FD40123F3
:102C0C00456816492B726846FFF7A6F80099019A99
:102C1C002800FFF7CAFE6068FFF792F8F7BD836AD9
:102C2C001B88002B04D1456801332B720C49EAE751
:102C3C002E000427E36A1B78AB42ECDDA36A012269
:102C4C001B882B41134205D06068A9184760FFF719
:102C5C0011FF0136142EDED00135EBE74CC600080F
:102C6C0058C600081A2337B5040040680360636B2C
:102C7C001978FFF7FFFEFFF74DF8E36B1B78DB07C6
:102C8C001CD53C23656845492B606846FFF764F802
:102C9C00019A00992800FFF788FE022360684360C0
:102CAC00E36A1988FFF7E6FE05003D496846FFF721
:102CBC0053F80099019A2800FFF777FE0721606806
:102CCC00FFF757F8A36B05001B7836499B0700D517
:102CDC0035496846FFF740F80099019A2800FFF73C
:102CEC0064FEE36B1B789B0717D5A36B60681B789E
:102CFC000A219B073DD5FFF73CF803234360236B68
:102D0C001988FFF7B7FE050028496846FFF724F835
:102D1C000099019A2800FFF748FE10216068FFF720
:102D2C0028F8A36B05001B781E49DB0700D520494A
:102D3C006846FFF711F8019A00992800FFF735FE55
:102D4C00302263681A60A36B1B785A06D20F15D118
:102D5C00190713D4590711D4646816496846FEF74D
:102D6C00FBFF0099019A2000FFF71FFEFEF7D2FF30
:102D7C0037BDFEF7FEFF10490500C6E7190702D55F
:102D8C0064680E49EAE7002A02D064680C49E5E75A
:102D9C005B07EDD564680B49E0E7C04648C5000801
:102DAC004BC50008DBDA0008D8D800084FC500086E
:102DBC0045C5000851C50008D9DA000855C50008FA
:102DCC005EC5000865C50008F0B500254368061D02
:102DDC001D60F36F89B00400AB4213D145685C49A8
:102DEC0006A8FEF7B9FF079A06992800FFF7DDFD44
:102DFC000323606801254360A36F1978FFF73AFE3F
:102E0C00FEF788FFF36F012B13DC6768514906A8A6
:102E1C00FEF7A2FF079A06993800FFF7C6FD0223BA
:102E2C00606801354360A36F5978FFF723FEFEF706
:102E3C0071FFF36F022B16DC6768474906A8FEF793
:102E4C008BFF0699079A3800FFF7AFFDE36F2B2134
:102E5C001B78DA0702D49B0700D40231FEF74CFF33
:102E6C00FEF758FF0135F36F032B16DC67683B49FF
:102E7C0006A8FEF771FF0699079A3800FFF795FD33
:102E8C00E36F2B211B78DB0700D40231FEF734FFF4
:102E9C000135FEF73FFF042D58D0F36F042B16DCE1
:102EAC0067682F4906A8FEF757FF0699079A38005E
:102EBC00FFF77BFDE36F2B211B789B0700D40231BE
:102ECC00FEF71AFF0135FEF725FF042D3ED0F36FF8
:102EDC00052B1EDDF36F052B38DC6468214902A835
:102EEC00FEF73AFF039A02992000FFF75EFD0400FB
:102EFC001D4904A8FEF730FF0499059A06A8FEF7B1
:102F0C0089FD0699079A2000FFF74FFDFEF702FF97
:102F1C001CE06768154904A8FEF71EFF059A049982
:102F2C003800FFF742FD0700114906A8FEF714FF11
:102F3C000699079A6846FEF76DFD0099019A3800CC
:102F4C00FFF733FDFEF7E6FE032DC3D109B0F0BD4C
:102F5C00CBC50008D8C50008EAC50008FBC50008A9
:102F6C000AC600082DC6000834C6000816C600089C
:102F7C001DC60008006810B5021DD36F002B01DDC3
:102F8C00013BD367FFF720FF10BD006810B5021D91
:102F9C00D36F022B01DC0133D367FFF715FF10BD94
:102FAC00002370B583608B6804000D00002B05D0E6
:102FBC0002229847EB68E360AB68A360200070BD09
:102FCC00002370B583608B6804000D00002B05D0C6
:102FDC0002229847EB68E360AB68A360200070BDE9
:102FEC0070B505000C00FFF7DBFF28002100103046
:102FFC001031FFF7D5FF2800210020302031FFF7DA
:10300C00CFFF2800210030303031FFF7C9FF2800F6
:10301C00210040304031FFF7D3FF28002100503011
:10302C005031FFF7CDFF280070BD002370B58360D1
:10303C008B6804000D00002B05D002229847EB682A
:10304C00E360AB68A360200070BD836810B5002BF3
:10305C0001D108F047F9C368984710BD10B5006856
:10306C001830FFF7F2FF10BD10B500686830FFF79D
:10307C00ECFF10BD10B500686830FFF7E6FF10BD1F
:10308C0010B500686830FFF7E0FF10BD10B50068A0
:10309C001830FFF7DAFF10BD10B500681830FFF7D5
:1030AC00D4FF10BD006810B503009C331A68043BB4
:1030BC001B681A60030088331B68002B03D0803018
:1030CC00FFF7C3FF10BD7030FAE710B50068703021
:1030DC00FFF7BBFF10BD006810B503009C331A68E6
:1030EC00043B1B681A60030088331B68002B03D059
:1030FC008030FFF7AAFF10BD7030FAE710B50068FA
:10310C007030FFF7A2FF10BD006810B503009833B4
:10311C001A88043B1B681A8003000833DB6F002BF2
:10312C0003D07C30FFF791FF10BD6C30FAE710B57F
:10313C0000686C30FFF789FF10BD036810B51A00EA
:10314C00983394321B7812681370006803000833AC
:10315C00DB6F002B03D07C30FFF777FF10BD6C309A
:10316C00FAE710B500686C30FFF76FFF10BD006810
:10317C0018220300FC339B6D10B55343C0188030EC
:10318C00FFF763FF10BD10B500686830FFF75DFFF7
:10319C0010BD036810B51A00983394321B7812686E
:1031AC001370006803000833DB6F002B03D07C30F6
:1031BC00FFF74BFF10BD6C30FAE710B500686C30B0
:1031CC00FFF743FF10BD036810B51A009833943213
:1031DC001B7812681370006803000833DB6F002B38
:1031EC0003D07C30FFF731FF10BD6C30FAE710B51F
:1031FC0000686C30FFF729FF10BD036810B51A008A
:10320C00983394321B7812681370006803000833EB
:10321C00DB6F002B03D07C30FFF717FF10BD6C3039
:10322C00FAE710B500686C30FFF70FFF10BD0068AF
:10323C0018220300F4331B6810B55343C0188030B8
:10324C00FFF703FF10BD10B500686830FFF7FDFEF7
:10325C0010BD036810B51A00983394321B781268AD
:10326C001370006803000833DB6F002B03D07C3035
:10327C00FFF7EBFE10BD6C30FAE710B500686C3050
:10328C00FFF7E3FE10BD006810B503009C331A680D
:10329C00043B1B681A60030088331B68002B03D0A7
:1032AC008030FFF7D2FE10BD7030FAE710B5006821
:1032BC007030FFF7CAFE10BD006818220300C4333B
:1032CC001B6810B55343C0188030FFF7BEFE10BD0D
:1032DC0010B500686830FFF7B8FE10BD0068182202
:1032EC000300DC331B6810B55343C0188030FFF764
:1032FC00ACFE10BD10B500686830FFF7A6FE10BD1F
:10330C00836810B5002B01D107F0ECFFC368984718
:10331C0010BD1FB50023694608300293FFF7F0FF7C
:10332C006846FEF72AFC05B000BD30B50025040048
:10333C0085B0694608300295FFF7E2FF6846FEF754
:10334C001CFC2000694618300295FFF7D9FF68462F
:10335C00FEF713FC2000694638300295FFF7D0FFCA
:10336C006846FEF70AFC2000694628300295FFF7F4
:10337C00C7FF6846FEF701FC05B030BD30B500252F
:10338C00040085B0694608300295FFF7B9FF68461E
:10339C00FEF7F3FB2000694618300295FFF7B0FFEB
:1033AC006846FEF7EAFB2000694638300295FFF7C5
:1033BC00A7FF6846FEF7E1FB05B030BD30B5002530
:1033CC00040085B0694608300295FFF799FF6846FE
:1033DC00FEF7D3FB2000694618300295FFF790FFEB
:1033EC006846FEF7CAFB2000694638300295FFF7A5
:1033FC0087FF6846FEF7C1FB05B030BD1FB5002343
:10340C00694608300293FFF77BFF6846FEF7B5FB71
:10341C0005B000BD1FB50023694608300293FFF7C5
:10342C006FFF6846FEF7A9FB05B000BD30B500255F
:10343C00040085B0694608300295FFF761FF6846C5
:10344C00FEF79BFB2000694618300295FFF758FFEA
:10345C006846FEF792FB2000694628300295FFF77C
:10346C004FFF6846FEF789FB20006946383002950D
:10347C00FFF746FF6846FEF780FB05B030BD30B560
:10348C000025040085B0694608300295FFF738FF27
:10349C006846FEF772FB2000694618300295FFF76C
:1034AC002FFF6846FEF769FB20006946283002951D
:1034BC00FFF726FF6846FEF760FB200069463830B0
:1034CC000295FFF71DFF6846FEF757FB05B030BDB0
:1034DC0030B50025040085B0694608300295FFF729
:1034EC000FFF6846FEF749FB20006946183002952D
:1034FC00FFF706FF6846FEF740FB200069462830C0
:10350C000295FFF7FDFE6846FEF737FB2000694683
:10351C0038300295FFF7F4FE6846FEF72EFB05B037
:10352C0030BD30B50025040085B0694608300295E1
:10353C00FFF7E6FE6846FEF720FB200069461830D0
:10354C000295FFF7DDFE6846FEF717FB2000694683
:10355C0028300295FFF7D4FE6846FEF70EFB2000DC
:10356C00694638300295FFF7CBFE6846FEF705FB3F
:10357C0005B030BD1FB5074B00900393064B694651
:10358C0008300293FFF7BCFE6846FEF7F6FA05B06A
:10359C0000BDC04699300008A30400081FB5040004
:1035AC00144B69460393144B009008300293FFF7B9
:1035BC00A7FE6846FEF7E1FA2000104B694603931C
:1035CC000F4B183002930094FFF79AFE6846FEF7F3
:1035DC00D4FA20000B4B694603930B4B3830029303
:1035EC000094FFF78DFE6846FEF7C7FA2000FFF740
:1035FC00B8FA1FBDC52B0008B9040008DB2B000866
:10360C00CF0400088D300008E50400087FB5294B75
:10361C0004000393284B6946009008300293FFF78F
:10362C006FFE6846FEF7A9FA0022636823491A6008
:10363C0065686846FEF790FB28000525019A0099FD
:10364C00FFF7B3F960684560A36A1988FFF712FAAF
:10365C0066681B496846FEF77FFB019A00993000AB
:10366C00FFF7A3F960684560A36A5988FFF702FA6F
:10367C00666814496846FEF76FFB019A00993000A2
:10368C00FFF793F960684560A36A9988FFF7F2F930
:10369C0066680D496846FEF75FFB0099019A300099
:1036AC00FFF783F960684560A36AD988FFF7E2F9F0
:1036BC007FBDC0466930000895050008E0C40008CD
:1036CC00F0C4000800C5000810C500087FB5040050
:1036DC00284B69460393284B009008300293FFF760
:1036EC000FFE6846FEF749FA2000244B6946039307
:1036FC00234B183002930094FFF702FE6846FEF746
:10370C003CFA20001F4B694603931F4B3830029341
:10371C000094FFF7F5FD6846FEF72FFA20001B4BCF
:10372C00694603931A4B283002930094FFF7E8FD87
:10373C006846FEF722FA00250123666815493372A4
:10374C0035606846FEF708FB019A00993000FFF7D8
:10375C002CF9FEF7F5FA23002200883398329342B5
:10376C0001D020C3FBE7032220001A60FFF7AAF95F
:10377C007FBDC046112B00083D050008412B0008F9
:10378C00530500087530000869050008F338000877
:10379C007F0500083DC600081FB50400144B6946A0
:1037AC000393144B009008300293FFF7A9FD684671
:1037BC00FEF7E3F92000104B694603930F4B1830CA
:1037CC0002930094FFF79CFD6846FEF7D6F92000A3
:1037DC000B4B694603930B4B383002930094FFF765
:1037EC008FFD6846FEF7C9F92000FFF7EDFA1FBD03
:1037FC00812F0008FB040008972F00081105000812
:10380C00813000082705000830B50400234B85B033
:10381C000393234B6946009008300293FFF770FD29
:10382C006846FEF7AAF96568290028005931093065
:10383C00FEF772F900232B6065681A4A2B6001337E
:10384C002B72A36A68461B789B009958FEF784FA82
:10385C00019A00992800FFF7A8F81423656812490B
:10386C002B606846FEF778FA019A00992800FFF75A
:10387C009CF8636B1978FFF7FDF8282364680B49F3
:10388C0023606846FEF768FA0099019A2000FFF75A
:10389C008CF8FEF73FFA05B030BDC046A5300008E5
:1038AC008D04000844C400086DC5000874C50008E8
:1038BC00002370B583608B6804000D00002B05D0CD
:1038CC0002229847EB68E360AB68A360200070BDF0
:1038DC0007B583680191002B01D107F003FDC36884
:1038EC0001A9984707BD006870B5020098321368AB
:1038FC00013B1360002B0DDA030000210A258833ED
:10390C009A4203D0694310CB0919F9E77830FFF7D5
:10391C00DFFF70BDFFF7D6F8FBE7000070B50C00B9
:10392C000978FC30826A4909C069FEF725FC01213F
:10393C002278C3685208154D0A402B4052021A4394
:10394C00C2602378C2689B080B4011491B030A40D4
:10395C001343C36023780269DB060E499B0F1B03DC
:10396C000A40134303612378DB070AD58023C2681E
:10397C00DB001343C3608023C2689B011343C36005
:10398C0070BDC368044A1340F4E7C046FFFDFFFF57
:10399C00FFEFFFFFFFCFFFFFFFFBFFFF002310B583
:1039AC00FC300400436083604069FEF787FA012312
:1039BC00216A0A689A430A60626A11689943116025
:1039CC00FF215160626A11680B4313601368DB07B7
:1039DC00FCD51023E269D1680B43D36010BD10B540
:1039EC008468636AFC33D96A9869FEF717FC00286F
:1039FC0005D0606AFFF7D2FF2000FEF729F910BD51
:103A0C0010B584682369FC33D96A9869FEF706FC03
:103A1C00002802D02069FFF7C1FF10BD10B50400CB
:103A2C0043681A680368B8335A6143681A680368B4
:103A3C006133FF335A610068FEF70AF920681030D1
:103A4C00FEF706F98223012122689B00D15010BD9C
:103A5C00036842791B889A4201D201228271027951
:103A6C009A4201D9002383718079704710B5040004
:103A7C000068FFF7EDFF61680B78002803D0202267
:103A8C0093430B7010BD01229806C00F42402020BA
:103A9C00520183431343F4E710B504000068FFF7A9
:103AAC00D7FF61680B78002803D0102293430B706A
:103ABC0010BD0122D806C00F4240102012018343D2
:103ACC001343F4E70B7810B50400002B0AD0006800
:103ADC00FFF7BEFF002804D11023626811780B4356
:103AEC00137010BD1021426813788B43F8E70B78E4
:103AFC0010B50400002B0AD00068FFF7A9FF0028BE
:103B0C0004D12023626811780B43137010BD20215F
:103B1C00426813788B43F8E7FF23F0B51D00064F7E
:103B2C00064E0C7801315C403B5D6B40355D8A4242
:103B3C00F7D105704370F0BD3CC200083CC30008CF
:103B4C0010B504000CC90CC0FFF76FFA200010BDB3
:103B5C0070B504001D00134B416003601100083068
:103B6C00FFF73EFA200029006830FFF75EFA2000CC
:103B7C0004997830FFF7E4FF200005999030FFF7A7
:103B8C00DFFF20000699A830FFF7DAFF2000079925
:103B9C00C030FFF7D5FF22000023D832200013607D
:103BAC00536070BD6CBE000882B0F8B5040007937A
:103BBC000AAB18780BAB207120001B780F4F637188
:103BCC002760A1600C301100099EFFF709FA200054
:103BDC000C996C30FFF729FA20000D997C30FFF717
:103BEC0024FA230007AD8C3306CD06C31E60327851
:103BFC0020001A71F8BC08BC02B01847A8BE000817
:103C0C00F7B501217C4A7D4C1368A4460B4004D1C6
:103C1C0065467B4C6B602C6011600422794B0F2540
:103C2C0099691143996161460C682168A9430A435B
:103C3C002260012274490C68144204D1734D704CFB
:103C4C006A602C600A60042299690A43F0219A6127
:103C5C006E4A146822688A43110040220A4322608B
:103C6C0001246B490D68254205D1654D694A0C60EC
:103C7C0015600225556004219C69664A21439961AF
:103C8C001568654C29680C408021C90021432960C6
:103C9C000125624C624926682E4204D1584E25609B
:103CAC000E6003264E6004279C695E4D3C439C616C
:103CBC000E68346825408024E4012C4334600126CE
:103CCC00594D5A4C2A68324203D14D4A67602260E2
:103CDC002E6004259E6935439D61276880243D68CC
:103CEC00534EE40235402C433C600127514D009665
:103CFC002A68514C3A4204D1414E2F602660052669
:103D0C00666004259E6935439D61276880243D6863
:103D1C004A4EE40335402C433C600127484D019644
:103D2C002A68484C3A4204D1354E2F60266006264C
:103D3C00666004259E6935439D612668424D346852
:103D4C0025408024E4042C43012534603F4C226838
:103D5C002A4204D107273E4E294A256084C60427EF
:103D6C009C6980253C439C61394CED052668346880
:103D7C00BC40FC402C4334600126364D364C2A683E
:103D8C00324203D1354A676022602E6010259E694D
:103D9C0035439D61256880242E68009AE402164004
:103DAC0026432E6001252E4C22682A4204D1052779
:103DBC002C4E2A4A256084C6102480269D69F60361
:103DCC002C439C61274B019A1C68256815402E4397
:103DDC0026600360204B816143601D4B8360194B4F
:103DEC00C360154B0361114B43610A4BC361074B15
:103DFC00036263464362FEBD2001002024010020C3
:103E0C00000801400010024014010020180100209D
:103E1C00080100200C010020FFF0FFFFFC00002037
:103E2C0000010020FF0FFFFFF0000020F400002035
:103E3C00FFFFF0FFE4000020E8000020FFFF0FFF71
:103E4C00D8000020DC000020FFFFFFF0CC00002099
:103E5C00D0000020C0000020C40000200010014051
:103E6C00B4000020B8000020F0B501258BB007008D
:103E7C0068460E00FFF7C4FE124C23682B401ED17F
:103E8C001148436083600373104B87630360099B85
:103E9C00C6630361089B4361079B8361069BC361F7
:103EAC00059B0362049B4362039B8362029BC36278
:103EBC00019B0363009B4363FDF7CAFE2560024828
:103ECC000BB0F0BD8C0100209001002070BF0008E9
:103EDC000300FC339A68FE2A03D881549A68013295
:103EEC009A60704710B5FC3004004069FDF7DEFFA6
:103EFC001021E269D3688B43D3600122616A0B689D
:103F0C0093430B60216A0B6893430B60A368606852
:103F1C00216A1B1A02339BB24B60236A19680A434D
:103F2C001A601A68D207FCD510BDF7B500220369D8
:103F3C000400FC335A609A600E00431D871D012952
:103F4C0021D1D97F0069FFF7C3FF8023F97F194383
:103F5C00FFF7BEFF3100FFF7BBFF216901AD0B007E
:103F6C00FC339A685B688A182800C918FFF7D4FDDF
:103F7C0069782069FFF7ACFF2978FFF7A9FF206962
:103F8C00FFF7B0FFF7BD80250069D97F6D42022E87
:103F9C0005D1FFF79DFFF97F2943C9B2D8E7FFF799
:103FAC0097FFF97F2943C9B2FFF792FF0321D2E7AC
:103FBC00020010B5FC325368946800219C4202D96F
:103FCC00591C5160C15C080010BD00680300283307
:103FDC000278002A03D04278002A05D10130181A41
:103FEC0043425841C0B270478278002A01D1023056
:103FFC00F5E7C278002A01D10330F0E704308342A0
:10400C00E6D1ECE703000100F0B5FF22050091B00A
:10401C001833029340318B4202D01A700133FAE705
:10402C0006AC28220021200007F063FA2F00286933
:10403C000594FDF779FD002454372B0038005433D8
:10404C0001933E68FEF758FA5C4B06AA9C46310079
:10405C00864219D03378272B07D87178EB1819764C
:10406C0001213378D1540236F1E733886345FAD114
:10407C002E009C3631603B68994207D12C64013488
:10408C000837092CD9D10DE00100F1E73800FEF713
:10409C0033FA336898425CD02C6405A8FFF795FF7F
:1040AC000028ECD02B6C3768D800019B2C0018181A
:1040BC00FEF722FA4434874206D101232A6CA3541A
:1040CC0000232B646B6D336005A8FFF77EFF2E0079
:1040DC000390A236002841D028220299686907F083
:1040EC00ECF90023002733703B004433EB180293A8
:1040FC001B78002B16D12B6CBB4213D0019BF80004
:10410C001E581818FEF7F8F92C4A3300864204D0D2
:10411C000236B11E09889142F7D0181A431E9841F5
:10412C00029B18700137092FDED12A004D32131B68
:10413C009B10002B24DD2178002903D16178002904
:10414C0011D00134A24225D02B000322A1331A70C6
:10415C0020E0230001224433EA5490E701232A6C27
:10416C00A3540433BEE7A178002901D00234E9E757
:10417C00E178002901D00334E4E70434013BD8E7AB
:10418C00131B022B12D0032B0CD0012B13D1237831
:10419C00002BD7D180232A6911690B431361039833
:1041AC0011B0F0BD2378002BCCD101342378002B37
:1041BC00C8D10134EBE71400C4E7C046FFFF000090
:1041CC000068030028330278002A03D04278002AC2
:1041DC0005D10130181A43425841C0B27047827859
:1041EC00002A01D10230F5E7C278002A01D1033050
:1041FC00F0E704308342E6D1ECE700000300010055
:10420C00F0B5FF22050091B01833029340318B4278
:10421C0002D01A700133FAE706AC282200212000E4
:10422C0007F067F92F0028690594FDF77DFC002441
:10423C0054372B003800543301933E68FEF75CF979
:10424C005C4B06AA9C463100864219D03378272B4A
:10425C0007D87178EB18197601213378D1540236CE
:10426C00F1E733886345FAD12E009C3631603B6808
:10427C00994207D12C6401340837092CD9D10DE0AF
:10428C000100F1E73800FEF737F9336898425CD04B
:10429C002C6405A8FFF794FF0028ECD02B6C376832
:1042AC00D800019B2C001818FEF726F944348742DD
:1042BC0006D101232A6CA35400232B646B6D33604D
:1042CC0005A8FFF77DFF2E000390A236002841D0F1
:1042DC0028220299686907F0F0F800230027337050
:1042EC003B004433EB1802931B78002B16D12B6C3C
:1042FC00BB4213D0019BF8001E581818FEF7FCF8AF
:10430C002C4A3300864204D00236B11E09889142F1
:10431C00F7D0181A431E9841029B18700137092FC9
:10432C00DED12A004D32131B9B10002B24DD21788B
:10433C00002903D16178002911D00134A24225D083
:10434C002B000322A1331A7020E0230001224433F6
:10435C00EA5490E701232A6CA3540433BEE7A178F6
:10436C00002901D00234E9E7E178002901D00334B7
:10437C00E4E70434013BD8E7131B022B12D0032BC8
:10438C000CD0012B13D12378002BD7D180232A6991
:10439C0011690B431361039811B0F0BD2378002B06
:1043AC00CCD101342378002BC8D10134EBE71400B5
:1043BC00C4E7C046FFFF0000006803002833027802
:1043CC00002A03D04278002A05D10130181A434242
:1043DC005841C0B270478278002A01D10230F5E70B
:1043EC00C278002A01D10330F0E704308342E6D1D1
:1043FC00ECE7000003000100F0B5FF22050091B0CE
:10440C001833029340318B4202D01A700133FAE711
:10441C0006AC28220021200007F06BF82F00286939
:10442C000594FDF781FB002454372B0038005433DE
:10443C0001933E68FEF760F85C4B06AA9C4631007F
:10444C00864219D03378272B07D87178EB18197658
:10445C0001213378D1540236F1E733886345FAD120
:10446C002E009C3631603B68994207D12C64013494
:10447C000837092CD9D10DE00100F1E73800FEF71F
:10448C003BF8336898425CD02C6405A8FFF794FF86
:10449C000028ECD02B6C3768D800019B2C00181826
:1044AC00FEF72AF84434874206D101232A6CA35420
:1044BC0000232B646B6D336005A8FFF77DFF2E0086
:1044CC000390A236002841D028220299686906F090
:1044DC00F4FF0023002733703B004433EB180293A6
:1044EC001B78002B16D12B6CBB4213D0019BF80010
:1044FC001E581818FEF700F82C4A3300864204D0D8
:10450C000236B11E09889142F7D0181A431E984101
:10451C00029B18700137092FDED12A004D32131B74
:10452C009B10002B24DD2178002903D16178002910
:10453C0011D00134A24225D02B000322A1331A70D2
:10454C0020E0230001224433EA5490E701232A6C33
:10455C00A3540433BEE7A178002901D00234E9E763
:10456C00E178002901D00334E4E70434013BD8E7B7
:10457C00131B022B12D0032B0CD0012B13D123783D
:10458C00002BD7D180232A6911690B43136103983F
:10459C0011B0F0BD2378002BCCD101342378002B43
:1045AC00C8D10134EBE71400C4E7C046FFFF00009C
:1045BC0073B56B4604001A0060CC60C20A0030CAA6
:1045CC0030C005CB05C173BD70B505000C00FFF7FD
:1045DC00EFFFAB68A268AA60A360E268EB68EA60D0
:1045EC00E36070BD1FB504006846FEF71EFD210098
:1045FC006846FFF7E9FF6846FDF7BFFA200004B0F4
:10460C0010BD10B54430FFF7EDFF10BD10B53430C0
:10461C00FFF7E8FF10BD10B52430FFF7E3FF10BD26
:10462C0010B51430FFF7DEFF10BD10B54430FFF7A6
:10463C00D9FF10BD10B53430FFF7D4FF10BD10B545
:10464C002430FFF7CFFF10BD10B51430FFF7CAFFB1
:10465C0010BD10B54430FFF7C5FF10BD10B5343098
:10466C00FFF7C0FF10BD10B52430FFF7BBFF10BD26
:10467C0010B51430FFF7B6FF10BD10B53430FFF78E
:10468C00B1FF10BD10B53430FFF7ACFF10BD10B545
:10469C004430FFF7A7FF10BD10B54430FFF7A2FF61
:1046AC0010BD10B52430FFF79DFF10BD10B51430B0
:1046BC00FFF798FF10BD10B52430FFF793FF10BD26
:1046CC0010B51430FFF78EFF10BD30B50023040079
:1046DC0089B0080069460293FFF776FF23686946A4
:1046EC009C6F04A823689D68FEF79FFC04A920001A
:1046FC00A84704A8FDF741FA6846FDF73EFA09B051
:10470C0030BD30B50023040089B00800694602931F
:10471C00FFF75AFF236869461C6F04A823689D683D
:10472C00FEF783FC04A92000A84704A8FDF725FA8E
:10473C006846FDF722FA09B030BD30B500230400FD
:10474C0089B0080069460293FFF73EFF236869466B
:10475C005C6F04A823689D68FEF767FC04A9200021
:10476C00A84704A8FDF709FA6846FDF706FA09B050
:10477C0030BD30B50023040089B0080069460293AF
:10478C00FFF722FF236869469C6F04A823689D6885
:10479C00FEF74BFC04A92000A84704A8FDF7EDF98F
:1047AC006846FDF7EAF909B030BD30B500230400C6
:1047BC0089B0080069460293FFF706FF2368694633
:1047CC009C6F04A82368DD68FEF72FFC04A9200069
:1047DC00A84704A8FDF7D1F96846FDF7CEF909B052
:1047EC0030BD020010B5FC32536894689C4204D969
:1047FC005C1C5460C35C0B7010BD0023FBE7020013
:10480C0070B5FC3253689268013304000D009A4273
:10481C000BD9FFF7CDFB06002000FFF7C9FB3602D2
:10482C00C0B230432880200070BD00230B80FAE713
:10483C00426AF0B51100036BFC3104001D68486836
:10484C002B79165C85B09E420DD00922A8692B18D5
:10485C001A7501300321FBF7F9FDA961236D0133B2
:10486C00236505B0F0BD8B681E1A022E38D90027BF
:10487C00984202D2013B8B60D75C616A00200A002F
:10488C00FC32019093685068834203D9013B9360DA
:10489C00CB5C0193616A03AE0B00FC339A685B68D6
:1048AC008A183000C918FFF737F93378BB4217D193
:1048BC007378019A934213D1606AFFF779FB02ABCC
:1048CC00DF1C3900606AFFF78CFF3B787F2B0BD91C
:1048DC003100606AFFF785FFA86932782B18B7E7BB
:1048EC00A86910222B18B3E72B7A032BB9D131000E
:1048FC00606AFFF776FFE968606AFFF780FFB0E750
:10490C0070B50C000500090AFFF7E2FAE1B2FFF7F7
:10491C00DFFA280070BD10B5282206F0BFFD434217
:10492C005841C0B210BD0000F0B50025040080262F
:10493C00B24BB34F0360B34B9BB0456085600573BE
:10494C0045618561057703610762056502910391F5
:10495C0009222900543006F0CCFDAB4AAB4BE26681
:10496C00AB4AB6006267AB4A2566E267221D6366F6
:10497C00A6662667A667D667803293622300A6498F
:10498C0010331160A54901939160A549A0331161C1
:10499C00A44956609161A449D66011625661D661F2
:1049AC0056625D701D709D701D71083300935D60C3
:1049BC009D60009B009A1D739C4B2900136017612E
:1049CC00556115642200FC3217000922380006F0EC
:1049DC0090FD009A964B156586225200A35022003A
:1049EC000D32FF3256608A2292495200A1502200A9
:1049FC001532FF3256608E228F495200A150220090
:104A0C001D32FF32566092228C495200A150220076
:104A1C002532FF325660962289495200A15022005D
:104A2C002D32FF3256609A2286495200A150220044
:104A3C003532FF3256609E2283495200A15022002B
:104A4C003D32FF325660A22280495200A150220012
:104A5C004532FF325660A6227D495200A1502200F9
:104A6C004D32FF325660BB6523005933FF335D7006
:104A7C001D711D709D70B2235B00E55023006533E2
:104A8C00FF335D60B0232000143217001573714A98
:104A9C005B00E250A5305A4B29000922FF303B61E4
:104AAC007D613D6406F025FDDA226B4B52003D65BD
:104ABC00A3502200B532FF325660DE226749520005
:104ACC00A1502200BD32FF325660E22264495200EE
:104ADC00A1502200C532FF325660E62261495200D5
:104AEC00A1502200CD32FF325660EA225E495200BC
:104AFC00A1502200D532FF325660EE225B495200A3
:104B0C00A1502200DD32FF325660F2225849520089
:104B1C00A1502200E532FF325660F6225549520070
:104B2C00A1502200ED32FF325660FA225249520057
:104B3C00A1502200F532FF325660FE225200A350E3
:104B4C00A3191D704D4B0198E3181D704C4BE318C5
:104B5C001D7081239B00E3181D70029D6562FFF799
:104B6C0051FA011E03D12822280006F0C2FC06AD22
:104B7C0000212822280006F0BCFC009B5D61180077
:104B8C00FFF73CFB011E03D12822280006F0B1FCE4
:104B9C0010AE00212822300006F0ABFC7E613800FC
:104BAC00FFF728FC011E03D12822300006F0A1FCDF
:104BBC00039F03AB2900380004940593FFF7ABFE69
:104BCC00002805D004A8FEF729FF20001BB0F0BD7B
:104BDC0031003800FFF79FFE0028F3D13100280088
:104BEC00FFF799FE2822011E04D02900380006F098
:104BFC0064FCE7E7380006F07CFCE3E700C0000843
:104C0C0000200240DCBF00080068010800640108B5
:104C1C00006C01080070010800740108007801089C
:104C2C00007C01080080010800840108E8BF00082E
:104C3C0000880108008C010800900108009401080C
:104C4C0000980108009C010800A0010800A40108BC
:104C5C0000A80108F4BF000800AC010800B001086E
:104C6C0000B4010800B8010800BC010800C001082C
:104C7C0000C4010800C8010800CC010801020000B2
:104C8C00020200000B1A1B11002B18DD0268127CAB
:104C9C00002A04D04268127C002A01D104307047EB
:104CAC008268127C002A01D10830F8E7C268127CB5
:104CBC00002A01D10C30F2E71030013BE4E70B1A6B
:104CCC009B10022B0ED0032B07D0012B03D10368B2
:104CDC001B7C002BE3D00800E1E703681B7C002B56
:104CEC00DDD0043003681B7C002BD8D00430EEE7F9
:104CFC0073B5437B0400012B06D0002B00D17EE062
:104D0C00022B00D1A7E073BD050000232435006BF6
:104D1C001A1C2900FFF7B6FF2063854203D123003C
:104D2C0010332363EFE70026636A0568FC335E608B
:104D3C009E602979606AFFF7CBF8297A606AFFF7E1
:104D4C00C7F83100606AFFF7C3F8A979606AFFF70A
:104D5C00BFF82B7A032B01D0102B30D10021606AC5
:104D6C00FFF7B6F80121606AFFF7B2F82B7A102B27
:104D7C0007D10021606AFFF7ABF8EB681978FFF7F1
:104D8C00A7F8FD222B7AD91E114225D12B6801AE32
:104D9C001B682900300098477178606AFFF798F813
:104DAC003178FFF795F80025236CA564A363636D38
:104DBC00606A01336365FFF795F86573A3E7052B0C
:104DCC00D4D1EB68606A19884B1E99414942C9B22B
:104DDC00FFF77EF83100C6E7102BE4D1616A01AD14
:104DEC000B00FC339A685B688A182800C918FEF718
:104DFC0093FE6978606AFFF76BF82978D1E7436A0C
:104E0C00016CFC339A685B68D31A826C9A4200D2AC
:104E1C008163656BA94210DC1222236B03211E688F
:104E2C00B06933181A750130FBF710FB236DB161B3
:104E3C0001332365022365646373A36BED1AE36B83
:104E4C009D4200DA5FE72000FFF7F2FC636B6364BE
:104E5C000223637357E7436B426C093B934200DCBC
:104E6C0051E700234363FCF7CDFE236B043323632C
:104E7C000123EEE7F0B5354C1A22A54454AF0021BE
:104E8C00380006F036FBA523DB003B818023002293
:104E9C0080202F495B00F9800991FF21BB81EC3BFD
:104EAC00FB73113B3B742B4B74AC083374932A4B40
:104EBC0080002361294B60642364889389AB1A704A
:104ECC00274BE06408A81B181A70264B264D1B189C
:104EDC001A708AAB6260A260227362632287E263FB
:104EEC00A5641A706761A318013219761A2AFAD1CF
:104EFC0000215BA806F0FDFA2069FCF715FE0023E3
:104F0C0084AE300008933568FDF7F6FA174B5BAAB0
:104F1C009C4685420DD02B78192B07D86978E3185D
:104F2C00197601212B78D1540235F2E72B88634591
:104F3C00FAD188953368AB421AD1089B6363089BFE
:104F4C000836012B28D00123DBE7C04674E5FFFFB0
:104F5C000137000074D600080020024000FC010854
:104F6C00050200000602000000F80108FFFF000027
:104F7C003000FDF7C1FA236D834201D102F098FE97
:104F8C00B325089B6D00636308ABED1829005BA883
:104F9C00FCF7CAFCA842D2D1606B256D0830C0006A
:104FAC002018FDF7A9FA85420CD1ED4B08AA9B18E5
:104FBC00626B9B18EB4A9B1801221A7000236363E7
:104FCC00849B8893B32608AB7600F61831005BA857
:104FDC00FCF7AAFC0890B04201D002F06FFE1A2236
:104FEC007AA9606906F069FA0023DF4908AA521809
:104FFC001370F42208AB52009B181B78002B14D1B1
:10500C00636B002B11D084A8849DFDF775FAD74AE9
:10501C002B00854201D002F05DFEF4211B1A581EB4
:10502C00834108AA490052181370EA2208ABFF32D8
:10503C009B181B78002B19D1636B012B16D086A8FB
:10504C00869DFDF759FAC94A2B00854201D102F021
:10505C004AFE0235A91E09889142F5D0EA22C01AEF
:10506C00431E9841FF3208AB9B181870F52508AB0E
:10507C006D00ED18290082A8FCF784FCA84204D02E
:10508C00BB4B08AA9B1803221A7080232269116952
:10509C000B431361089BB34210D01A220021380035
:1050AC0006F027FA099BFB80A523DB003B818023BC
:1050BC005B00BB81EC3BFB73113B3B742000FCF7AA
:1050CC00C7FDBB7908AA08937B8801271383FDF7DA
:1050DC0063FAA84EA84C35683D4054D1A74B089AAA
:1050EC0008332360A64B2061A361631DDA7723008C
:1050FC002C331D70A34BA4480833A363A3496560EC
:10510C00A5602573E56324646061E5612562E5842F
:10511C00258565852586FCF767FC9D4B9D490833E5
:10512C006364A069A564E464FCF75EFC200026229D
:10513C002900503006F0DDF92000842229005200AD
:10514C00763006F0D6F920007F3026222900FF3079
:10515C0006F0CFF92000A53026222900FF3006F0FA
:10516C00C8F9EA2320005B00E550ED301033132220
:10517C002900E550FF3006F0BCF9874A874920002A
:10518C00376006F086F808AB1B7E1F22190091438E
:10519C001B3A002908D0013A202905D03C32934310
:1051AC00403B5A425A4101320EA920692262FEF755
:1051BC00B5FB2069FEF7F2FB03270A2610940024A6
:1051CC00FFADFFAB74359033FFA821002E71EC803E
:1051DC00EB602C743A002F72883006F08AF9704B11
:1051EC00FFAA74321360FFAB7933DE770123EB84B3
:1051FC00FFAB9C331F70FFABB033EB62FFABA43340
:10520C00FFA81C702100AC61AC833A00A83006F0FA
:10521C0070F90922634B01362B62FFABB8331E7059
:10522C00FFAB7C33DA87FFABBC331F70FFA9FFAB3E
:10523C00C433D031FFA81C70AC63AC87E9643A006E
:10524C002100C83006F055F90A22574B57482B64F9
:10525C00FFABD8331E70FFABDA331A80FFABDC33F5
:10526C001F7008A9FFAAFFAB0918E433F032FFA89E
:10527C000C801C702100AC65EA66E8303A0006F040
:10528C0038F94B4908AA521814800C22494B4A4948
:10529C002B66FFABF8331E70FFABFA331A80FFABF3
:1052AC00FC331F7002ABC918A023444ADB006B44CB
:1052BC0042481C706A4402AB1160AC6721003A0092
:1052CC00C01806F016F9A02202ABD200D218146056
:1052DC00FFAB3B4A78333B49DA6708AA52189A214C
:1052EC0001231480490008AA52181288364E0A92DB
:1052FC003268364C1A40089200D0BDE0FDF738FAFF
:10530C000A9A0FAB1A80089B09906360A360237301
:10531C002F4B60622360012363732E4BA3622E4BD1
:10532C00E362230010332363089B636313065B0F54
:10533C000422002B09D03A00012B06D0043206338C
:10534C001340063A934200D80132642323642300AD
:10535C00002721004C331F70204B5831A3653FE0D0
:10536C00681A000080E7FFFF06020000FFFF000044
:10537C0005020000E80400205C05002068D6000847
:10538C0078070020A4D600082008002094050020EF
:10539C0098D60008A0050020000000209D1B0008E6
:1053AC007CBF000888BF000894BF0008AC04000054
:1053BC00CC040000A0BF000804050000FC040000A1
:1053CC00ACBF0008EC040000E4040020EC04002056
:1053DC00D0BF00083008002068070020B8BF0008C4
:1053EC00EA48E7652466E263276567646765FCF74E
:1053FC00FBFA2100E64B64316366E06AA766E4665B
:10540C00FCF7F2FAE34B08AA9B181F60E14B29004A
:10541C009B1812A813931294FBF7D7F8082212A921
:10542C0014A806F04AF8FFA9943114A8FBF7CDF89C
:10543C00082214A916A806F040F8FFA9B43116A842
:10544C00FBF7C3F8082216A918A806F036F8FFA92E
:10545C00D43118A8FBF7B9F8082218A91AA806F035
:10546C002CF8FFA9F4311AA8FBF7AFF80FA909988B
:10547C00FEF754FA012333601194109F109B002403
:10548C001E0062ADC44B282221006C60AC602C73F2
:10549C0067A862938C372C6106F02BF83300EF630E
:1054AC003A27A120A2332B64FF3708ABFF18C000AA
:1054BC0002AB67A9C0186F64FFF736FA082298216F
:1054CC00109B490076331A8008AA109B5218128838
:1054DC0078331A80023108AA109B521812887A333A
:1054EC001A80043108AA109B5218127810987C3339
:1054FC001A8039008830022205F0DFFF3C27109B10
:10550C003900A2330893A300EB185869FAF72EFE62
:10551C00089B66000134F0520A2CF0D1D2230F21E3
:10552C00109A5B00D1520122FF201099243BCA52E1
:10553C0010992633C85210991C3BCA521099263325
:10554C00CC5200238BAE9549B360F3603374737403
:10555C00F361F362F363F364F365914B8B91186819
:10556C00904971609049104204D190481A600860CB
:10557C000820486008238E4F0025BA69A8AC134355
:10558C000F22BB610868436893431A00042313433A
:10559C0043600120A7AB1D70864B08AA9B18F066D0
:1055AC008CA871661D70B566FCF752FB0120824B0E
:1055BC00824AA8931168824BA5606360E5602574EC
:1055CC006574E561E562E563E564E56507977D4B28
:1055DC00014204D175491060196009215960079A7C
:1055EC000025916908220A4307998A61F0211868FD
:1055FC0042688A43110040220A43426063660123D9
:10560C00E366C4AB1D70704B08AA9B18A9A8A566CD
:10561C001D70FCF71DFB6D4AC5ABC5926C4A08A901
:10562C00C692DFAA15706B4A1D745218C6A8157065
:10563C00E194C795C895CC95D095D495D895DC9523
:10564C00DE95E096FCF704FB109B524C76330893E6
:10565C0008ABE4186049614B614808AA0833891803
:10566C0080186560A56025732561656125762360CA
:10567C00FCF752FA01225B4B5B481B685B49844682
:10568C00134276D15A4B013518685A4A284204D134
:10569C0059481D6010600C205060079B98691023BE
:1056AC000343079883611268544B50681840802359
:1056BC009B02034301205360514A524B156805422B
:1056CC0004D1514D10601D6002255D60079A9069F0
:1056DC0020220243079882611A684C4B10681840CC
:1056EC0080239B00034313600122494B186810422E
:1056FC0004D1032747482D4D1A60A0C0079B454D88
:10570C009A6908231343079A93610122079B28681F
:10571C009B691343079A936163464A681A40802336
:10572C009B0413434B6002683B4B1A4080239B0144
:10573C001343036039483A4B083018602D489D617B
:10574C001861304808AD586118480022D8612448C7
:10575C005A604019186233489A60586232481A737A
:10576C009862180030305A7302705A631D4B013224
:10577C001A6001202D4A2E4B156805425AD10B4D4B
:10578C0010601D6004255D6054E0C04630080020A8
:10579C00C4BF0008FC06000060BE00080CC0000876
:1057AC00F40100202CC00008F8010020000C01407E
:1057BC00001002407D02000038C00008E801002003
:1057CC0058C00008EC010020F102000064C0000881
:1057DC0084C000085D0300006507000080D6000847
:1057EC00150700002C010020FFFFFFF8000001400E
:1057FC00800100208401002000100140FFFFF0FF19
:10580C00740100207801002000140140FFF0FFFF1C
:10581C00680100206C010020FF0FFFFF8CD60008F0
:10582C003001002068C6000868CE0008A8000020DF
:10583C00AC000020079A9069082202430798826105
:10584C001868079B079D9A6901231A43AA6162464F
:10585C004D681540802292042A434A600168F84A38
:10586C001140802292020A43F64902600868F64A07
:10587C00184204D1F5480B60106005205060079B5E
:10588C00996908230B4307998B611168F04A0B68DF
:10589C001A4080239B0313430B600121ED4BEE4A0E
:1058AC001868084204D1E94819601060062050605D
:1058BC00079B996908230B4307998B618023106818
:1058CC00E64902689B040A40134303600120E44B41
:1058DC000C911968E34A014204D1DC49186011604B
:1058EC0007215160079BE04D996908230B430799E9
:1058FC0028008B6180211268890513681B011B0924
:10590C000B431360FCF79CFB2B7B002B24D1013346
:10591C002B73D64BDA686A60002A00D095609A68BF
:10592C00DD60002A00D19D6002225A610123D0491A
:10593C00086898430860CF48486000208860086871
:10594C008446042063461843012308600868024318
:10595C000A600A6813430B60A8AB6367C5ABA36707
:10596C0054ABE367C44B08AA9B18089A08A91A60A1
:10597C00F022D200521862AB1360C04BC04A5B18C5
:10598C0052181360F1230022DB005B181A60BD4B28
:10599C0020A92393BC4B1CA8E56626672094229370
:1059AC00FDF7FEFAB94B2AA92D93B94B24A82A94DA
:1059BC002C93FDF7F5FAB74B36A93993B64B30A8B3
:1059CC0036943893FDF7ECFAB44B42AE4294F36044
:1059DC00B34B31003CA8B360FDF7E2FAB14B4EADCE
:1059EC004E94EB60B04B290048A8AB60FDF7E8FA89
:1059FC00AE4BFFAA0C32FF941360AD4BFFAA0832DA
:105A0C00FFA9E2A81360FDF7DBFAAA4B08AA9B18C2
:105A1C001CA91800FDF7C4FAA74808AB24A9C018A4
:105A2C00FDF7BEFAA54808AB30A9C018FDF7B8FAC7
:105A3C00A34B08AA9B183CA91800FDF7B1FAA14882
:105A4C0008AB48A9C018FDF7BBFA9F4808ABE2A900
:105A5C00C018FDF7B5FAE2A8FCF78FF8FFA8FCF721
:105A6C008CF848A8FCF789F82800FCF786F83CA8C5
:105A7C00FCF783F83000FCF780F830A8FCF77DF8D1
:105A8C0036A8FCF77AF824A8FCF777F82AA8FCF7D4
:105A9C0074F81CA8FCF771F820A8FCF76EF88B4B77
:105AAC004E94EB608A4B290048A8AB60FDF778FA5E
:105ABC00884BFFAA0C32FF941360874BFFAA083265
:105ACC00FFA9E2A81360FDF7B0FAE36F08AA0993E7
