:020000040800F2
:1000000000500020ADCD0008F5CD0008F5CD00086A
:10001000F5CD0008F5CD0008F5CD00080000000082
:10002000000000000000000000000000F5CD000806
:10003000F5CD000800000000F5CD0008E52F000810
:100040004F36000851360008533600085536000870
:1000500057360008593600085D3600087936000822
:1000600095360008B1360008CD3600085138000832
:100070006D38000889380008A5380008C138000824
:10008000DD380008F9380008E9360008EB360008CA
:10009000ED360008EF360008F1360008F5360008A6
:1000A00061370008633700086537000867370008C4
:1000B000693700086B3700086D3700086F37000894
:1000C0007137000873370008753700087737000864
:1000D00079370008FD37000819380008353800085E
:1000E0007D370008F9370008FB37000800000000E2
:1000F0000000000000000000000000000000000000
:0C01000000000000000000005FF808F1A3
:10010C000448054B10B5834203D0044B002B00D0A0
:10011C00984710BD68000020680000200000000017
:10012C0006480749091A8B10C90FC91810B5491090
:10013C0003D0044B002B00D0984710BD6800002062
:10014C00680000200000000010B5074C2378002B3D
:10015C0009D1FFF7D5FF054B002B02D00448AFF3B4
:10016C0000800123237010BD6800002000000000F7
:10017C0090CF0008054B10B5002B03D0044905485F
:10018C00AFF30080FFF7CCFF10BDC04600000000AD
:10019C006C00002090CF000810B5062000F0D4FAB7
:1001AC00012001F035FAC04670B5064C0500002060
:1001BC00002C05D0130002300A00290000F07AFB55
:1001CC0070BDC046C108000870B50C4D0C4E761BB6
:1001DC00B61005D0002408CD01349847A642FAD1B8
:1001EC000CF0D0FE074D084E761BB61005D000243F
:1001FC0008CD01349847A642FAD170BD70ED0008C5
:10020C0070ED000870ED000878ED000810B5034B98
:10021C000100186800F092F910BDC04604000020DF
:10022C0010B5034B0100186800F032F910BDC04640
:10023C000400002030B5032A0CD903000B439B07A4
:10024C001CD103680C68A34218D1043A0430043161
:10025C00032AF6D8551E002A0ED002780C78944248
:10026C000ED101350123013904E0C25C0133CC5CB1
:10027C00A24205D1AB42F8D1002030BD551EECE7AF
:10028C00101BFAE7F0B5C64600B50F2A43D90B0090
:10029C00032603431E400C000300002E40D1150022
:1002AC00103D2D09AC462D01A846804400E03B00D2
:1002BC00676825685F60E7681D60DF601F00A568E0
:1002CC0010379D6010344345F1D165460F230C2443
:1002DC0001352D01491913404519144223D08C596D
:1002EC00AC5104369C1B032CF9D80324043B9B080B
:1002FC0001339B002240ED18C918561E002A07D066
:10030C00002300E02300CA5C5C1CEA549E42F9D135
:10031C0004BC9046F0BD0500561E002AF0D1F7E74C
:10032C00561E0500ECE71A00F6E7C046F0B5C646C7
:10033C0000B588420CD98B18984209D2531E002A5A
:10034C0003D0CA5CC254013BFBD204BC9046F0BD46
:10035C000F2A0CD80500561E002AF6D0002300E008
:10036C002300CA5C5C1CEA549E42F9D1EDE70B00F9
:10037C00032603431E400C000300002E2ED1150053
:10038C00103D2D09AC462D01A846804400E02B0001
:10039C001D00276810351F6067685F60A7689F6045
:1003AC00E7681034DF604345F1D165460F230C2418
:1003BC0001352D01491913404519144211D08C599E
:1003CC00AC5104369C1B032CF9D80324043B9B082A
:1003DC0001339B00ED18C9182240BCE7561E0500DE
:1003EC00BCE71A00B7E7C046F0B5050083074AD052
:1003FC00541E002A44D0CEB20300032202E0013581
:10040C00013C3DD301332E701342F8D1032C2FD96C
:10041C00FF220A40150215432A0415430F2C35D927
:10042C002700103F3F093E01B4461E001A0010364B
:10043C006644156055609560D5601032B242F8D1B3
:10044C000F260C2201373F012640DB1937002242D0
:10045C0017D03E1FB608B400A4461A001C1D6444F5
:10046C0020C2A242FCD103240136B6009B193C40A9
:10047C00002C05D0C9B21C19197001339C42FBD158
:10048C00F0BD3400F4E714000300BFE72700E0E7F9
:10049C0070B50500002915D00C1F2368002B27DB35
:1004AC00280000F075FA244B1A68002A05D0A242E5
:1004BC000CD921686018824224D0626028001C602C
:1004CC0000F068FA70BDA34203D81A005368002BE1
:1004DC00F9D111685018A0421BD027D82168601898
:1004EC00834207D063605460280000F053FAE9E7B8
:1004FC00E418D5E718685B68844661442160636042
:10050C005460F1E71068526884466144216062606F
:10051C00D4E720680918501811608342E4D1186898
:10052C005B688446614411605360DDE70C2328004E
:10053C002B6000F02FFAC5E784000020F8B50323E8
:10054C00CD1C9D43083506000C2D2AD20C25A94242
:10055C0029D8300000F01CFA2A4F3A68002A0AD039
:10056C0013685B1B04D441E023685B1B1FD522007E
:10057C005468002CF8D17B68002B3DD0290030004A
:10058C0000F042F8431C2AD00323C41C9C43A04215
:10059C0005D0211A300000F037F8431C1FD025601D
:1005AC0010E0002DD3DA0C2300203360F8BD0B2BA8
:1005BC0005D86368A2421DD0536003E01400236089
:1005CC00E4182560300000F0E5F9200007220B301C
:1005DC00231D9043C21AE9D01B1AA350E6E70C2343
:1005EC003000336000F0D6F90020DFE70B2BE5D8A4
:1005FC00140053683B60E5E70021300000F004F87C
:10060C007860BBE784000020002370B5064C050021
:10061C000800236000F0EEFF431C00D070BD23687F
:10062C00002BFBD02B60F9E7200A002010B58021AD
:10063C000400FFF783FF6064002807D0020000234A
:10064C00803208C09042FCD1002010BD01204042F5
:10065C00FBE7C046426C10B50023002A01D01800FD
:10066C0010BDFFF7E3FF0300F9E7C04670B50500C6
:10067C000C0016001F2907D8436C002B09D0A400CE
:10068C001B1918681E6070BD1623036001204042C0
:10069C00F9E7FFF7CBFF002801D16B6CEFE70120E6
:1006AC004042F0E770B505000C001F2920D8436CC0
:1006BC00002B0ED08A009B181A68002A09D0012A38
:1006CC0014D0511C0ED0002120001960904700203E
:1006DC0070BD280000F07AF822000100280000F01C
:1006EC0061F8F5E7162303600120F1E70020EFE73E
:1006FC001623036001204042EAE7C04670B50500AE
:10070C000C001F291DD8436C002B10D0A2009B1885
:10071C001A68002A09D0511C11D0012A0DD00021D1
:10072C00200019609047002070BD0120FCE7FFF706
:10073C007DFF002805D16B6CE8E70320F4E702206D
:10074C00F2E701204042EFE710B5034B01001868B7
:10075C00FFF7A8FF10BDC0460400002010B5044BE5
:10076C000A001B6801001800FFF780FF10BDC0468F
:10077C0004000020054B10B51B6800205A6C002AA1
:10078C0000D010BD1800FFF751FFFAE7040000205D
:10079C0010B5034B01001868FFF7B0FF10BDC04641
:1007AC0004000020002370B5074C05000800110060
:1007BC00236000F017FF431C00D070BD2368002B92
:1007CC00FBD02B60F9E7C046200A002010B500F0E2
:1007DC0001FF10BD0CB400B59DB002910691094902
:1007EC001EAB07910491084904CB059102A9019312
:1007FC0000F0C4F90023029A13701DB008BC02B0BB
:10080C001847C046FFFFFF7F0802FFFF0EB400B57C
:10081C000B499CB0079104910A491DAB05910A49FB
:10082C0004CB02900690086802A9019300F0A6F987
:10083C000023029A13701CB008BC03B01847C046C2
:10084C00FFFFFF7F0802FFFF0400002010B58307A5
:10085C0027D00378002B26D00300032102E01A785E
:10086C00002A1CD001330B42F9D119680F4A104CE5
:10087C008A188A4322420FD1043319680B4A8A180A
:10088C008A43224208D104331968084A8A188A43D9
:10089C002242F1D000E001331A78002AFBD1181A59
:1008AC0010BD0300E1E70020FAE7C046FFFEFEFEA4
:1008BC0080808080F0B546464F46D646C0B51F00B6
:1008CC002F4B82B01C6805000E009046002C2DD0DA
:1008DC0063681F2B50DC002D1CD08822A058914639
:1008EC00002834D07832825894469A00914681443C
:1008FC00424649460A600121624699400A439446A1
:10090C0080228A466146520081504946803A8F5077
:10091C00022D16D000205A1C02339B0062601E511F
:10092C0002B01CBC90469946A246F0BD154C1C600A
:10093C00154B002BCCD01B6801938823019AE250F5
:10094C00C6E75546843281580D438550E2E70F4B7C
:10095C00002B11D084204000FFF758FC00280BD04E
:10096C008022002352008350043283504B460022D5
:10097C00E05094466368B8E701204042D0E7C04697
:10098C002002002094010020A8CF000819020008C2
:10099C007047C0467047C046F0B546464F46D646EF
:1009AC00C0B58E6881460C0090461D0008689E42BA
:1009BC0039D890228B89D200134211D135002A00EC
:1009CC004146FFF7B3FCA36800209E1B2368A6607A
:1009DC009C46654425601CBC90469946A246F0BDD9
:1009EC000969421A92466269681C5700BF18FA0FCF
:1009FC00D7197F1050443A00B84201D907000200C1
:100A0C005B0512D511004846FFF798FD061E1FD056
:100A1C0052462169FFF736FCA389124A1340802203
:100A2C001343A38106E01E00C9E7484600F020FCF2
:100A3C00061E09D03000534650446761FF1A2661E8
:100A4C0020602E00A760BAE721694846FFF720FD19
:100A5C000C234A46136040220120A38940421343D1
:100A6C00A381B8E77FFBFFFFF0B54E464546DE4657
:100A7C005746E0B5936883B001900D009146002B6A
:100A8C006BD0176808688C6844E09022AB89D20060
:100A9C0013422ED02969421A9346686942001218F3
:100AAC00D00F8218701C521058449046904201D9B5
:100ABC00804602008020C000034237D0110001980C
:100ACC00FFF73CFD041E53D05A462969FFF7DAFBA9
:100ADC00AB89294A134080221343AB814346200043
:100AEC005A462C61B046340058446B619B1A2860FE
:100AFC00AB6042465146FFF719FCAB681C1B2B68D8
:100B0C00AC6043442B6018004B469B689E1B4B46C5
:100B1C009E6022D03B687E689A460837A046002E1D
:100B2C00F8D0A642B1D23400B046E2E7019800F00A
:100B3C009FFB041ED2D1019C29692000FFF7A8FC61
:100B4C000C2323604022AB8901201343AB814A461E
:100B5C00002340429360536003E000234A46002088
:100B6C00536003B03CBC90469946A246AB46F0BDE0
:100B7C000C23019A1360E5E77FFBFFFFF0B54E46AF
:100B8C00DE4657464546E0B5A1B0049003911C00E3
:100B9C008B8991461B0604D50B690593002B00D15C
:100BAC0019E1002308AD6B6120336B761033AB7603
:100BBC002F3B98464B461B780794924F002B00D145
:100BCC0086E0252B00D104E14E4603E0252B00D115
:100BDC008BE026007378741C002BF7D14B46E31A7C
:100BEC009A4675D053464A4603990498FFF7D4FEAB
:100BFC00431C6DD06B6953446B617378002B67D0C9
:100C0C000122002352426A60443201342B60EB60B3
:100C1C00AB60AB54AB6506E04346C01B834034006D
:100C2C002A6813432B6021780522380000F0E0FA83
:100C3C00661C0028F0D12B68B246DA0602D5432296
:100C4C002021A9541A0702D543222B21A95421781B
:100C5C002A2950D1079A111D12680791002A00DA2F
:100C6C009AE0EA606178A61C2E295CD0664B0322C0
:100C7C001800994600F0BCFA002800D171E04B46F0
:100C8C00C01A402383402A68317813432B60062214
:100C9C00731C5E489946297600F0AAFA00286AD09F
:100CAC005B4B002B00D170E007AB0093039A594BC0
:100CBC0029000498AFF3008083465B46013307D0CC
:100CCC006B695B446B614B461B78002B00D078E75B
:100CDC00039B9B895B0600D58CE0686921B03CBC0A
:100CEC0090469946A246AB46F0BD4B46E31A9A464F
:100CFC0000D185E776E70A00303AA246092AB3D834
:100D0C00EB68180001E03400013683001B183178C1
:100D1C005B0098180A00303A092AF4D9B246E86008
:100D2C00A61C2E29A2D1534659782A293AD1079BC1
:100D3C001A1D079252469178D61C022294461B68C3
:100D4C00E2446B60002B00DB90E701235B426B609D
:100D5C002D4B03221800994600F04AFA002800D0C7
:100D6C008DE7B1465646317806222848297600F0A0
:100D7C003FFA002894D107AB0093039A254B290026
:100D8C00049800F0E1F8834697E70722079B0733A6
:100D9C0093430833079393E75242EA6002221343CA
:100DAC002B605FE70A000023303A6B601800092AB9
:100DBC0001D91CE01E0083001B1871785B00981889
:100DCC000A00303A731C092AF4D99A460236686034
:100DDC004CE74C4614E74021FFF7B0FB039B18602F
:100DEC001861002809D04023039A5361D9E6B24612
:100DFC0001363BE70120404270E70C23049A01388E
:100E0C0013606BE734ED00083CED000840ED000882
:100E1C0000000000A5090008F0B54F464646D6462E
:100E2C00C0B51F00089B914698468A680B6906005E
:100E3C000C00934200DA13004A4613604322A25C72
:100E4C00002A02D04A460133136023689A065AD509
:100E5C004B461B6806209A1C4B461A6023681900E7
:100E6C00184208D1E16800258A1A19218A4619000E
:100E7C00A244002A3FDC4323E35C5A1E93418A06BA
:100E8C000AD53020E1184331087045215A1C615CA9
:100E9C00A218433202331170220039004332300061
:100EAC00C047431C19D006232068A268216903405F
:100EBC00042B30D08A423ADD00239946521A9144D1
:100ECC001A34002502E001354D4530DA01232200A9
:100EDC0039003000C047431CF5D1012040421CBCF6
:100EEC0090469946A246F0BD4B46E2681B68013518
:100EFC00D31AAB4220DD0123524639003000C047E3
:100F0C00431CF1D1E9E706221A4212D04323E35CD9
:100F1C005A1E9341C0E74B46E0681B68C31AD8437E
:100F2C00C017184081468A42C8DC002BC8DC002060
:100F3C00D5E74A46126895E743232168E35C5A1EBD
:100F4C0093418A069DD4A7E7F0B557469A464323AA
:100F5C009C464E464546DE468C446346E0B587B01B
:100F6C0003930B7E914680460C00109A6E2B00D199
:100F7C00D8E000D871E0732B00D11AE100D881E0E1
:100F8C00752B00D1FFE0782B00D00BE10B6878209B
:100F9C004521605494498B46116840C9116018066C
:100FAC0003D4580601D53604360CDA0702D52022B4
:100FBC00134323601027002E00D1C2E043230022EC
:100FCC00E2546368A360002B00DAC5E004222168B8
:100FDC0091432160002E00D083E0002B00D0BDE0B7
:100FEC00039D082F00D18CE0039B5B1B23615346B0
:100FFC0005AA009321004B464046FFF70DFF431C0A
:10100C0022D023692A0049464046D047431C1BD0B6
:10101C0022680598E368920700D47FE01A1A002A28
:10102C0000DC7BE026000025193606E0E368059815
:10103C0001351A1AAA4200DC70E00123320049463D
:10104C004046D047431CF1D10120404207B03CBC84
:10105C0090469946A246AB46F0BD632B00D184E086
:10106C001FD8002B69D0582B00D09BE0452163542E
:10107C005E4923688B46116840C91160180600D47C
:10108C008FE792E76F2B7ED0702B00D08AE0202365
:10109C00096878200B4345212360605452498B46E4
:1010AC007AE7642B01D0692B7CD111682368081D69
:1010BC0010601D064AD50A681600002A03DB4B4B4C
:1010CC000A279B467DE743222D21A1546268764274
:1010DC00A260002A02DB042293432360434B0A27BD
:1010EC009B46039D00E006003900300000F082F9B9
:1010FC005B465B5C013D2B70BE42F4D2082F00D0E6
:10110C0072E72368DB0700D46EE7636822699342B9
:10111C0000DD69E73023013D2B7065E7984295DAD5
:10112C00180093E7136809681D1D606915601B683A
:10113C000E0601D449064BD418600023039D23618D
:10114C0055E7202322689A43226037E75D06B2D523
:10115C0000228E5E3200B0E7002EC2D15B46250025
:10116C001A7842234235E2543BE713682500191DD7
:10117C0011601A684223E254413B423523614323F8
:10118C000022E25433E7116820680D1D1560060635
:10119C0001D440061ED40E686F2B1DD0134B0A27AA
:1011AC009B460BE742222500A354012342352361C1
:1011BC00E5E71368191D11601D686268002128009D
:1011CC0000F016F800280BD0401B60602061D6E7B9
:1011DC001880B2E70E88DFE7044B08279B46EDE644
:1011EC0060682061CBE7C0465CED000848ED000864
:1011FC0070B5CDB2830734D0531E002A1BD00278B1
:10120C00AA4219D0032404E0013B14D30278AA4269
:10121C0012D001302042F7D1032B0ED8002B0AD06C
:10122C000278AA4208D0C31802E00278AA4203D07E
:10123C0001308342F9D1002070BDFF220C06240C32
:10124C00114021430C04084E0C43026807496240CC
:10125C00511891433142E3D1043B0430032BF4D8B1
:10126C00DCE71300D8E7C04680808080FFFEFEFEDE
:10127C00F8B507000C00150000291BD0002A15D06A
:10128C0000F01EF82600A84201D33000F8BD29005A
:10129C003800FFF753F9061EF7D021002A00FEF79D
:1012AC00F1FF21003800FFF7F3F8EEE7FFF7F0F855
:1012BC000026EAE71100FFF741F90600E5E7C04612
:1012CC000B1F1B68181F002B00DB70470B58C01836
:1012DC00FBE7C04602B4714649084900095C490065
:1012EC008E4402BC7047C046002243088B4274D324
:1012FC0003098B425FD3030A8B4244D3030B8B420B
:10130C0028D3030C8B420DD3FF22090212BA030C13
:10131C008B4202D31212090265D0030B8B4219D3F4
:10132C0000E0090AC30B8B4201D3CB03C01A524114
:10133C00830B8B4201D38B03C01A5241430B8B425C
:10134C0001D34B03C01A5241030B8B4201D30B0345
:10135C00C01A5241C30A8B4201D3CB02C01A52416C
:10136C00830A8B4201D38B02C01A5241430A8B422F
:10137C0001D34B02C01A5241030A8B4201D30B0218
:10138C00C01A5241CDD2C3098B4201D3CB01C01A32
:10139C00524183098B4201D38B01C01A524143093C
:1013AC008B4201D34B01C01A524103098B4201D32A
:1013BC000B01C01A5241C3088B4201D3CB00C01A97
:1013CC00524183088B4201D38B00C01A524143080F
:1013DC008B4201D34B00C01A5241411A00D2014634
:1013EC00524110467047FFE701B5002000F0F0F8BD
:1013FC0002BDC0460029F7D076E7704703460B4381
:10140C007FD4002243088B4274D303098B425FD3F1
:10141C00030A8B4244D3030B8B4228D3030C8B421D
:10142C000DD3FF22090212BA030C8B4202D3121203
:10143C00090265D0030B8B4219D300E0090AC30BD8
:10144C008B4201D3CB03C01A5241830B8B4201D385
:10145C008B03C01A5241430B8B4201D34B03C01A6E
:10146C005241030B8B4201D30B03C01A5241C30AE6
:10147C008B4201D3CB02C01A5241830A8B4201D357
:10148C008B02C01A5241430A8B4201D34B02C01A41
:10149C005241030A8B4201D30B02C01A5241CDD2E6
:1014AC00C3098B4201D3CB01C01A524183098B4231
:1014BC0001D38B01C01A524143098B4201D34B011A
:1014CC00C01A524103098B4201D30B01C01A52417D
:1014DC00C3088B4201D3CB00C01A524183088B4204
:1014EC0001D38B00C01A524143088B4201D34B00ED
:1014FC00C01A5241411A00D201465241104670475F
:10150C005DE0CA0F00D04942031000D34042534063
:10151C0000229C4603098B422DD3030A8B4212D323
:10152C00FC22890112BA030A8B420CD38901921155
:10153C008B4208D3890192118B4204D389013AD092
:10154C00921100E08909C3098B4201D3CB01C01A67
:10155C00524183098B4201D38B01C01A524143097A
:10156C008B4201D34B01C01A524103098B4201D368
:10157C000B01C01A5241C3088B4201D3CB00C01AD5
:10158C00524183088B4201D38B00C01A5241D9D2ED
:10159C0043088B4201D34B00C01A5241411A00D26E
:1015AC000146634652415B10104601D34042002B6A
:1015BC0000D54942704763465B1000D3404201B5E9
:1015CC00002000F005F802BD0029F8D016E770479E
:1015DC007047C04658220120014B40421A607047A8
:1015EC00200A002058220120014B40421A6070470B
:1015FC00200A0020044A1368002B03D0181810602E
:10160C0018007047014BF9E724020020280A00203B
:10161C00FEE7C0461F22430910401E3A8240024991
:10162C009B005A507047C04600E100E0436901330B
:10163C0043617047704770477047022A06D0032AEF
:10164C0002D0012A00D10160002070470B680360B2
:10165C00FAE7022A06D0032A02D0012A00D101603F
:10166C00002070470B680360FAE7022A06D0032AB1
:10167C0002D0012A00D10160002070470B68036082
:10168C00FAE7022A06D0032A02D0012A00D101600F
:10169C00002070470B680360FAE7022A06D0032A81
:1016AC0002D0012A00D10160002070470B68036052
:1016BC00FAE7022A06D0032A02D0012A00D10160DF
:1016CC00002070470B680360FAE7022A06D0032A51
:1016DC0002D0012A00D10160002070470B68036022
:1016EC00FAE7022A06D0032A02D0012A00D10160AF
:1016FC00002070470B680360FAE7022A06D0032A21
:10170C0002D0012A00D10160002070470B680360F1
:10171C00FAE7022A06D0032A02D0012A00D101607E
:10172C00002070470B680360FAE7022A06D0032AF0
:10173C0002D0012A00D10160002070470B680360C1
:10174C00FAE7022A06D0032A02D0012A00D101604E
:10175C00002070470B680360FAE7022A06D0032AC0
:10176C0002D0012A00D10160002070470B68036091
:10177C00FAE7022A06D0032A02D0012A00D101601E
:10178C00002070470CC90CC0FAE7022A06D0032AC5
:10179C0002D0012A00D10160002070470CC90CC096
:1017AC00FAE70268406810B503685C1C9B00D3180C
:1017BC000460196110BD022A06D0032A02D0012A46
:1017CC0000D10160002070470B680360FAE7022A21
:1017DC0006D0032A02D0012A00D1016000207047F4
:1017EC000B680360FAE7022A06D0032A02D0012A0A
:1017FC0000D10160002070470B680360FAE7022AF1
:10180C0006D0032A02D0012A00D1016000207047C3
:10181C000B680360FAE7022A06D0032A02D0012AD9
:10182C0000D10160002070470B680360FAE7022AC0
:10183C0006D0032A02D0012A00D101600020704793
:10184C000B680360FAE7022A06D0032A02D0012AA9
:10185C0000D10160002070470B680360FAE7022A90
:10186C0006D0032A02D0012A00D101600020704763
:10187C000B680360FAE7022A06D0032A02D0012A79
:10188C0000D10160002070470B680360FAE7022A60
:10189C0006D0032A02D0012A00D101600020704733
:1018AC000B680360FAE7022A06D0032A02D0012A49
:1018BC0000D10160002070470B680360FAE7022A30
:1018CC0006D0032A02D0012A00D101600020704703
:1018DC000B680360FAE7022A06D0032A02D0012A19
:1018EC0000D10160002070470B680360FAE7022A00
:1018FC0006D0032A02D0012A00D1016000207047D3
:10190C000B680360FAE7022A06D0032A02D0012AE8
:10191C0000D10160002070470B680360FAE7704744
:10192C00012A00D1016000207047012A00D101601A
:10193C0000207047022A06D0032A02D0012A00D1C7
:10194C000160002070470B680360FAE7022A06D09A
:10195C00032A02D0012A00D10160002070470B68D5
:10196C000360FAE7022A06D0032A02D0012A00D12A
:10197C000160002070470B680360FAE7022A06D06A
:10198C00032A02D0012A00D10160002070470B68A5
:10199C000360FAE7022A06D0032A02D0012A00D1FA
:1019AC000160002070470B680360FAE7022A06D03A
:1019BC00032A02D0012A00D10160002070470B6875
:1019CC000360FAE7022A06D0032A02D0012A00D1CA
:1019DC000160002070470B680360FAE7022A06D00A
:1019EC00032A02D0012A00D10160002070470B6845
:1019FC000360FAE7022A06D0032A02D0012A00D19A
:101A0C000160002070470B680360FAE7022A06D0D9
:101A1C00032A02D0012A00D10160002070470B6814
:101A2C000360FAE7022A06D0032A02D0012A00D169
:101A3C000160002070470B680360FAE7022A06D0A9
:101A4C00032A02D0012A00D10160002070470B68E4
:101A5C000360FAE7022A06D0032A02D0012A00D139
:101A6C000160002070470B680360FAE7022A06D079
:101A7C00032A02D0012A00D10160002070470B68B4
:101A8C000360FAE7022A06D0032A02D0012A00D109
:101A9C000160002070470B680360FAE7022A06D049
:101AAC00032A02D0012A00D10160002070470B6884
:101ABC000360FAE7022A06D0032A02D0012A00D1D9
:101ACC000160002070470B680360FAE7022A06D019
:101ADC00032A02D0012A00D10160002070470B6854
:101AEC000360FAE7022A06D0032A02D0012A00D1A9
:101AFC000160002070470B680360FAE7022A06D0E9
:101B0C00032A02D0012A00D10160002070470B6823
:101B1C000360FAE7022A06D0032A02D0012A00D178
:101B2C000160002070470B680360FAE7022A06D0B8
:101B3C00032A02D0012A00D10160002070470B68F3
:101B4C000360FAE7022A06D0032A02D0012A00D148
:101B5C000160002070470B680360FAE7022A06D088
:101B6C00032A02D0012A00D10160002070470B68C3
:101B7C000360FAE7022A06D0032A02D0012A00D118
:101B8C000160002070470B680360FAE7022A06D058
:101B9C00032A02D0012A00D10160002070470B6893
:101BAC000360FAE7022A06D0032A02D0012A00D1E8
:101BBC000160002070470B680360FAE7022A06D028
:101BCC00032A02D0012A00D10160002070470B6863
:101BDC000360FAE7022A06D0032A02D0012A00D1B8
:101BEC000160002070470B680360FAE7022A06D0F8
:101BFC00032A02D0012A00D10160002070470B6833
:101C0C000360FAE7022A06D0032A02D0012A00D187
:101C1C000160002070470B680360FAE7022A06D0C7
:101C2C00032A02D0012A00D10160002070470B6802
:101C3C000360FAE7022A06D0032A02D0012A00D157
:101C4C000160002070470B680360FAE7022A06D097
:101C5C00032A02D0012A00D10160002070470B68D2
:101C6C000360FAE7022A06D0032A02D0012A00D127
:101C7C000160002070470B680360FAE7022A06D067
:101C8C00032A02D0012A00D10160002070470B68A2
:101C9C000360FAE7022A06D0032A02D0012A00D1F7
:101CAC000160002070470B680360FAE7022A06D037
:101CBC00032A02D0012A00D10160002070470B6872
:101CCC000360FAE7022A06D0032A02D0012A00D1C7
:101CDC000160002070470B680360FAE7022A06D007
:101CEC00032A02D0012A00D10160002070470B6842
:101CFC000360FAE7022A06D0032A02D0012A00D197
:101D0C000160002070470B680360FAE7022A06D0D6
:101D1C00032A02D0012A00D10160002070470B6811
:101D2C000360FAE7022A06D0032A02D0012A00D166
:101D3C000160002070470B680360FAE7022A06D0A6
:101D4C00032A02D0012A00D10160002070470B68E1
:101D5C000360FAE7022A06D0032A02D0012A00D136
:101D6C000160002070470B680360FAE7022A06D076
:101D7C00032A02D0012A00D10160002070470B68B1
:101D8C000360FAE7022A06D0032A02D0012A00D106
:101D9C000160002070470B680360FAE7022A06D046
:101DAC00032A02D0012A00D10160002070470B6881
:101DBC000360FAE7022A06D0032A02D0012A00D1D6
:101DCC000160002070470B680360FAE7022A06D016
:101DDC00032A02D0012A00D10160002070470B6851
:101DEC000360FAE7022A06D0032A02D0012A00D1A6
:101DFC000160002070470B680360FAE7022A06D0E6
:101E0C00032A02D0012A00D10160002070470B6820
:101E1C000360FAE7022A06D0032A02D0012A00D175
:101E2C000160002070470B680360FAE7022A06D0B5
:101E3C00032A02D0012A00D10160002070470B68F0
:101E4C000360FAE7022A06D0032A02D0012A00D145
:101E5C000160002070470B680360FAE7022A06D085
:101E6C00032A02D0012A00D10160002070470B68C0
:101E7C000360FAE7022A06D0032A02D0012A00D115
:101E8C000160002070470B680360FAE7022A06D055
:101E9C00032A02D0012A00D10160002070470B6890
:101EAC000360FAE7022A06D0032A02D0012A00D1E5
:101EBC000160002070470B680360FAE7022A06D025
:101ECC00032A02D0012A00D10160002070470B6860
:101EDC000360FAE7022A06D0032A02D0012A00D1B5
:101EEC000160002070470B680360FAE7022A06D0F5
:101EFC00032A02D0012A00D10160002070470CC9CE
:101F0C000CC0FAE7022A06D0032A02D0012A00D11B
:101F1C000160002070470CC90CC0FAE7836D0133D7
:101F2C008365704700230370437070470023037070
:101F3C004370704700230370437070470023037095
:101F4C0043707047C3690133C36170477047704772
:101F5C0070477047704770477047704770477047BD
:101F6C00704770477047022A06D0032A02D0012A14
:101F7C0000D10160002070470B680360FAE7022A69
:101F8C0006D0032A02D0012A00D10160002070473C
:101F9C000B680360FAE7022A06D0032A02D0012A52
:101FAC0000D10160002070470B680360FAE7022A39
:101FBC0006D0032A02D0012A00D10160002070470C
:101FCC000B680360FAE7022A06D0032A02D0012A22
:101FDC0000D10160002070470B680360FAE7022A09
:101FEC0006D0032A02D0012A00D1016000207047DC
:101FFC000B680360FAE7022A06D0032A02D0012AF2
:10200C0000D10160002070470B680360FAE7022AD8
:10201C0006D0032A02D0012A00D1016000207047AB
:10202C000B680360FAE7022A06D0032A02D0012AC1
:10203C0000D10160002070470B680360FAE7022AA8
:10204C0006D0032A02D0012A00D10160002070477B
:10205C000B680360FAE7022A06D0032A02D0012A91
:10206C0000D10160002070470B680360FAE7022A78
:10207C0006D0032A02D0012A00D10160002070474B
:10208C000B680360FAE7022A06D0032A02D0012A61
:10209C0000D10160002070470B680360FAE7022A48
:1020AC0006D0032A02D0012A00D10160002070471B
:1020BC000B680360FAE7022A06D0032A02D0012A31
:1020CC0000D10160002070470B680360FAE7022A18
:1020DC0006D0032A02D0012A00D1016000207047EB
:1020EC000B680360FAE7022A06D0032A02D0012A01
:1020FC0000D10160002070470B680360FAE7022AE8
:10210C0006D0032A02D0012A00D1016000207047BA
:10211C000B680360FAE7022A06D0032A02D0012AD0
:10212C0000D10160002070470B680360FAE7022AB7
:10213C0006D0032A02D0012A00D10160002070478A
:10214C000B680360FAE7022A06D0032A02D0012AA0
:10215C0000D10160002070470B680360FAE7022A87
:10216C0006D0032A02D0012A00D10160002070475A
:10217C000B680360FAE7022A06D0032A02D0012A70
:10218C0000D10160002070470B680360FAE7022A57
:10219C0006D0032A02D0012A00D10160002070472A
:1021AC000B680360FAE7022A06D0032A02D0012A40
:1021BC0000D10160002070470B680360FAE7022A27
:1021CC0006D0032A02D0012A00D1016000207047FA
:1021DC000B680360FAE7022A06D0032A02D0012A10
:1021EC0000D10160002070470B680360FAE7022AF7
:1021FC0006D0032A02D0012A00D1016000207047CA
:10220C000B680360FAE7022A06D0032A02D0012ADF
:10221C0000D10160002070470B680360FAE7022AC6
:10222C0006D0032A02D0012A00D101600020704799
:10223C000B680360FAE7022A06D0032A02D0012AAF
:10224C0000D10160002070470B680360FAE7022A96
:10225C0006D0032A02D0012A00D101600020704769
:10226C000B680360FAE7022A06D0032A02D0012A7F
:10227C0000D10160002070470B680360FAE7022A66
:10228C0006D0032A02D0012A00D101600020704739
:10229C000B680360FAE7022A06D0032A02D0012A4F
:1022AC0000D10160002070470B680360FAE7022A36
:1022BC0006D0032A02D0012A00D101600020704709
:1022CC000B680360FAE7022A06D0032A02D0012A1F
:1022DC0000D10160002070470B680360FAE7022A06
:1022EC0006D0032A02D0012A00D1016000207047D9
:1022FC000B680360FAE7022A06D0032A02D0012AEF
:10230C0000D10160002070470B680360FAE7022AD5
:10231C0006D0032A02D0012A00D1016000207047A8
:10232C000B680360FAE7022A06D0032A02D0012ABE
:10233C0000D10160002070470B680360FAE7022AA5
:10234C0006D0032A02D0012A00D101600020704778
:10235C000B680360FAE7022A06D0032A02D0012A8E
:10236C0000D10160002070470B680360FAE7022A75
:10237C0006D0032A02D0012A00D101600020704748
:10238C000B680360FAE7022A06D0032A02D0012A5E
:10239C0000D10160002070470B680360FAE7022A45
:1023AC0006D0032A02D0012A00D101600020704718
:1023BC000B680360FAE7022A06D0032A02D0012A2E
:1023CC0000D10160002070470B680360FAE7022A15
:1023DC0006D0032A02D0012A00D1016000207047E8
:1023EC000B680360FAE7022A06D0032A02D0012AFE
:1023FC0000D10160002070470B680360FAE7022AE5
:10240C0006D0032A02D0012A00D1016000207047B7
:10241C000B680360FAE7022A06D0032A02D0012ACD
:10242C0000D10160002070470B680360FAE7022AB4
:10243C0006D0032A02D0012A00D101600020704787
:10244C000B680360FAE7022A06D0032A02D0012A9D
:10245C0000D10160002070470B680360FAE7022A84
:10246C0006D0032A02D0012A00D101600020704757
:10247C000B680360FAE7022A06D0032A02D0012A6D
:10248C0000D10160002070470B680360FAE7022A54
:10249C0006D0032A02D0012A00D101600020704727
:1024AC000B680360FAE7022A06D0032A02D0012A3D
:1024BC0000D10160002070470B680360FAE7022A24
:1024CC0006D0032A02D0012A00D1016000207047F7
:1024DC000B680360FAE7022A06D0032A02D0012A0D
:1024EC0000D10160002070470B680360FAE7022AF4
:1024FC0006D0032A02D0012A00D1016000207047C7
:10250C000B680360FAE7022A06D0032A02D0012ADC
:10251C0000D10160002070470B680360FAE7022AC3
:10252C0006D0032A02D0012A00D101600020704796
:10253C000B680360FAE7022A06D0032A02D0012AAC
:10254C0000D10160002070470B680360FAE7022A93
:10255C0006D0032A02D0012A00D101600020704766
:10256C000B680360FAE7022A06D0032A02D0012A7C
:10257C0000D10160002070470B680360FAE7022A63
:10258C0006D0032A02D0012A00D101600020704736
:10259C000B680360FAE7022A06D0032A02D0012A4C
:1025AC0000D10160002070470B680360FAE7022A33
:1025BC0006D0032A02D0012A00D101600020704706
:1025CC000B680360FAE7022A06D0032A02D0012A1C
:1025DC0000D10160002070470B680360FAE7022A03
:1025EC0006D0032A02D0012A00D1016000207047D6
:1025FC000B680360FAE770B50C000500006803680F
:10260C009B68984723682C6020001B68984770BD16
:10261C00006810B501003931FF318C30FFF7EBFF4A
:10262C0010BD006810B501008C30F431FFF7E3FFEA
:10263C0010BD862310B500689B00C1188C30FFF7C5
:10264C00DAFF10BDC72310B500689B00C1188C3091
:10265C00FFF7D1FF10BD000010B50068024BC11888
:10266C008C30FFF7C8FF10BD0C050000A02310B57F
:10267C0000685B01C1188C30FFF7BDFF10BDB8239B
:10268C0010B500689B00C1188C30FFF7B4FF10BD6B
:10269C00F92310B500689B00C1188C30FFF7ABFF15
:1026AC0010BD0000006810B5031DDB6F9A7C044B55
:1026BC00C250044BC1188C30FFF79DFF10BDC046B3
:1026CC00740400006C04000010B50068024BC118C3
:1026DC008C30FFF790FF10BDEC050000CE2310B539
:1026EC000068DB00C1188C30FFF785FF10BD0000BF
:1026FC0010B50068024BC1188C30FFF77CFF10BD81
:10270C000C07000010B50068024BC1188C30FFF7A5
:10271C0072FF10BD240B000010B50068024BC118ED
:10272C008C30FFF768FF10BD0408000010B500687E
:10273C00024BC1188C30FFF75EFF10BDA4080000DF
:10274C0010B50068024BC1188C30FFF754FF10BD58
:10275C004409000010B50068024BC1188C30FFF71B
:10276C004AFF10BDE409000010B50068024BC11807
:10277C008C30FFF740FF10BD840A00008A2310B58F
:10278C001F2400681B01C16FC25C8B78520123406F
:10279C0013438B70024BC1188C30FFF72CFF10BD0C
:1027AC000C070000942310B500681B01C25C0124C7
:1027BC00531E9A41C16F8B78A34313438B70034B09
:1027CC00C1188C30FFF717FF10BDC0460C07000076
:1027DC009E23012210B5022400681B01C16FC35C4B
:1027EC001A408B785200A34313438B70024BC118D1
:1027FC008C30FFF700FF10BD0C070000A823006809
:10280C001B01C35810B5013B5A1E93411824C16FCC
:10281C005B008A78DB00A24313438B70024BC11818
:10282C008C30FFF7E8FE10BD0C0700000368074A68
:10283C001800096810B58C30914204D1044A9918DB
:10284C00FFF7D9FE10BD034AF9E7C046B7040000F4
:10285C00C40B00000C05000010B50068024BC11839
:10286C008C30FFF7C8FE10BD340D0000DD2310B511
:10287C0000681B01C1188C30FFF7BDFE10BD0000B5
:10288C00BC230022006810B51B01C250024BC118BA
:10289C008C30FFF7B0FE10BD6C0E000010B5006858
:1028AC00024BC1188C30FFF7A6FE10BD0C0F0000B8
:1028BC0010B50068024BC1188C30FFF79CFE10BDA0
:1028CC00A80F000010B50068024BC1188C30FFF740
:1028DC0092FE10BD44100000872310B500685B0108
:1028EC00C1188C30FFF787FE10BD0000BC230022FE
:1028FC00006810B51B01C250024BC1188C30FFF799
:10290C007AFE10BD1812000010B50068024BC118F9
:10291C008C30FFF770FE10BDBC1200009B2310B56D
:10292C0000685B01C1188C30FFF765FE10BD00001C
:10293C0010B5034BC1188C30FFF75DFE10BDC046BF
:10294C00C40B000010B50068FFF7F2FF10BD10B506
:10295C000068FFF7EDFF10BD10B50068FFF7E8FF4A
:10296C0010BD0000BC2300681B01C35810B5002B20
:10297C0002D00023C26FD381024BC1188C30FFF7F9
:10298C003AFE10BDC40B000010B50068FFF7D0FF75
:10299C0010BD000010B504680222231DD86FE16F32
:1029AC0012300931FDF76EFC2000034B8C30E1181E
:1029BC00FFF721FE10BDC046C40B000010B5006827
:1029CC00FFF7B6FF10BD10B50068FFF7B1FF10BDE3
:1029DC0010B50068FFF7ACFF10BD10B50068FFF72D
:1029EC00A7FF10BD10B50068FFF7A2FF10BD0000D7
:1029FC00BC2300681B01C35810B5002B07D0002264
:102A0C00C36F9A82DA821A835A8B01325A83034B30
:102A1C00C1188C30FFF7EFFD10BDC046C40B000091
:102A2C0010B50068FFF784FF10BD00000068084B6C
:102A3C0010B5C2580124531E9A41C16F8B7CA3431D
:102A4C0013438B74034BC1188C30FFF7D4FD10BDAE
:102A5C00B8120000C40B000010B50068FFF768FF47
:102A6C0010BD00000068094B10B5C35802245A1E53
:102A7C009341C16F5A008B7CA34313438B74044B5B
:102A8C00C1188C30FFF7B7FD10BDC0465C130000B9
:102A9C00C40B00000B1A9B10002B14DD0278002ACB
:102AAC0003D04278002A01D1013070478278002A85
:102ABC0001D10230F9E7C278002A01D10330F4E7E2
:102ACC000430013BE8E70B1A022B09D0032B03D08F
:102ADC00012B09D00800E8E70378002BE5D0013082
:102AEC000378002BE1D001300378002BF2D1DCE726
:102AFC000B1A9B10002B14DD0278002A03D14278AC
:102B0C00002A01D0013070478278002A01D00230AF
:102B1C00F9E7C278002A01D00330F4E70430013B16
:102B2C00E8E70B1A022B09D0032B03D0012B09D099
:102B3C000800E8E70378002BE5D101300378002B7F
:102B4C00E1D101300378002BF2D0DCE710B5FEF7B1
:102B5C0061FD10BD0368002B05D01A005B68002BCB
:102B6C00FBD1516070470160FCE710B50400002CEC
:102B7C0005D0236820001B6898476468F7E710BDF0
:102B8C00030010B5044A1800994204D002339C1E6D
:102B9C0024889442F7D010BDFFFF000013B51478C1
:102BAC000091763C63425C410192E3B20C000B292C
:102BBC0000D90C24E418994205D2002301220649BD
:102BCC0006480AF01DF9C91AA14200D92100D218F1
:102BDC000160426016BDC046ACCF0008C6CF0008ED
:102BEC00482210B50300007A5143114A002807D03F
:102BFC0090681860814201D3081A5860002018723E
:102C0C001C68A14208D892680120A41AA14202D8DB
:102C1C00012200201A7210BD916801208C42FAD852
:102C2C00516892688A1A59688A42F1D2F3E7C04611
:102C3C0010E000E00369F7B5114A01330400934238
:102C4C001CD1002506003C27436C0561009314360B
:102C5C00009B1B78AB4212DDE36B01201B88390013
:102C6C002B4198433368C018236C01C60193FEF7BF
:102C7C003BFB019B6A0098520135E9E70361F7BD04
:102C8C0060EA0000006810B503000833DB6F002415
:102C9C001A00196C14323C3310C20C8002319A4267
:102CAC00FAD1030088331B68084A1900413380317C
:102CBC00FF338A839A83C26FD38A0133D382F92379
:102CCC009B00C1188C30FFF796FC10BDFF03000071
:102CDC00C72310B5040000689B00C1188C30FFF7A7
:102CEC008AFC2368002288331B6819004133803129
:102CFC00FF338A839A8310BD8D2370B50068DB0087
:102D0C00C16FC658CB7A721E9E421EDC0300002493
:102D1C000833DD6F9300EB185C612B6C5500EC52A3
:102D2C000B8B01330B83174B134004D50221013B52
:102D3C0049420B430133D31A134A8350F9239B00A6
:102D4C00C1188C30FFF757FC70BD0D7B5C19A64287
:102D5C0008DCD51A01230400AB4088342468803485
:102D6C00A383DDE74C7B6419E418A642D8DCD31AA4
:102D7C005B1B012504009D40883424684134FF34DA
:102D8C00A583CDE7010000806404000003009033AC
:102D9C001A6810B5511C1960064B53430122D341DC
:102DAC00054A934204D88C30006803685B689847E6
:102DBC0010BDC046295C8FC251B81E0510B50A1A49
:102DCC00884202D02021FDF70FFB10BD7047000098
:102DDC0010B50068024BC1188C30FFF70CFC10BD0D
:102DEC000C07000010B50068024BC1188C30FFF7BF
:102DFC0002FC10BD0C05000010B50068024BC11898
:102E0C008C30FFF7F8FB10BD0C05000010B5006806
:102E1C00024BC1188C30FFF7EEFB10BD0C05000007
:102E2C0010B50068024BC1188C30FFF7E4FB10BDE5
:102E3C000C07000010B50068024BC1188C30FFF76E
:102E4C00DAFB10BD0C07000010B50068024BC1186E
:102E5C008C30FFF7D0FB10BD0C07000010B50068DC
:102E6C00024BC1188C30FFF7C6FB10BD0C070000DD
:102E7C0010B50068024BC1188C30FFF7BCFB10BDBD
:102E8C000C05000010B50068024BC1188C30FFF720
:102E9C00B2FB10BD0C050000006810B50100393103
:102EAC00FF318C30FFF7A7FB10BD862310B50068EF
:102EBC009B00C1188C30FFF79EFB10BDC72310B5CB
:102ECC0000689B00C1188C30FFF795FB10BD0068A3
:102EDC0010B501003931FF318C30FFF78CFB10BD80
:102EEC00006810B501003931FF318C30FFF783FBDE
:102EFC0010BD006810B501003931FF318C30FFF77F
:102F0C007AFB10BD10B504680222231DD86FE16F47
:102F1C0012300931FDF7B6F92000034B8C30E11863
:102F2C00FFF769FB10BDC046C40B000003691B060C
:102F3C0003D5024B4360024B436070472301674546
:102F4C00AB89EFCD0122036993430361022302692C
:102F5C001343036180239B02C918402389024161FA
:102F6C000269134303617047836810B50400002B9A
:102F7C0002D0032201009847200010BD10B50400B8
:102F8C00064B08330360DD30FF30FFF7EDFF200008
:102F9C00CD30FF30FFF7E8FF200010BD78EC0008C3
:102FAC0010B50468002C05D0236820001B689847D6
:102FBC00A468F7E710BD10B504000830FFF7F0FF68
:102FCC0020696169431C2361FEF714FA002902D1C0
:102FDC002000FFF7E5FF10BD10B50248FFF7EBFF2F
:102FEC0010BDC046080A0020416902690300002098
:102FFC00914201D35861013070470000037B002BD4
:10300C000DD00023426803738368002A0ED0002B76
:10301C0008D0936083685A600023436083607047D4
:10302C000B60F8E7044993604A60F5E70249002B0E
:10303C00F6D10B604B60EFE7080A0020002310B5B7
:10304C004361FFF7DBFF10BD037B002B0CD1013379
:10305C000373064B5A684260002A00D090601A68CD
:10306C005860002A00D118607047C046080A00203A
:10307C0070B58225AD0043590400022B14D0032BEC
:10308C0024D0012B0FD123000021B0331A7810303B
:10309C0019708A4207D0FFF7B1FF2000B830FFF754
:1030AC00D3FF0223635170BD230000215933FF333A
:1030BC001A78B83019708A42F5D0FFF79FFF2000BC
:1030CC006130FF30FFF7C0FF0323EBE780230021C3
:1030DC009B00C3181A7819708A42E4D06130FF3013
:1030EC00FFF78CFF20001030FFF7AEFF0123D9E76C
:1030FC00036810B55A1CC3180260597204005021A1
:10310C000068FEF777F92000216010BD0222F8B5A7
:10311C000B4D03680B4E6B43D3410400B34202D8F2
:10312C002021FFF7E5FF022723686B43FB41B342E5
:10313C0004D920212000FFF7DBFFF5E72000F8BDC4
:10314C00CDCCCCCCCCCCCC0C10B504002368002B53
:10315C0004D020212000FFF7CBFFF7E7200010BDA3
:10316C0070B5040008000D00FDF770FB2060656071
:10317C00200070BD70B504000D0000681421FEF72E
:10318C00B3F81423584350214019FEF733F92000AB
:10319C00216070BD70B505682A00C4321368002B1D
:1031AC001AD02E001424C036013B136033686868B3
:1031BC00634313210360FFF7DDFF2021FFF798FF26
:1031CC0033686868013B5C43132133600460FFF78C
:1031DC00D1FF7E21FFF78CFF70BD70B505682A000A
:1031EC00C4321368022B1AD02E001424C0360133BB
:1031FC00136033686868634313210360FFF7BAFFF9
:10320C002021FFF775FF3368686801335C43132195
:10321C0033600460FFF7AEFF7E21FFF769FF70BDDE
:10322C0070B505682A00DC321368002B1AD02E000A
:10323C001424D836013B1360336868686343132148
:10324C000360FFF797FF2021FFF752FF3368686890
:10325C00013B5C43132133600460FFF78BFF7E213D
:10326C00FFF746FF70BD70B505682A00DC321368A5
:10327C00032B1AD02E001424D83601331360336874
:10328C006868634313210360FFF774FF2021FFF785
:10329C002FFF3368686801335C431321336004608B
:1032AC00FFF768FF7E21FFF723FF70BD0123026843
:1032BC004068116983400B431361704701234268D6
:1032CC0010B51032934001680C6923430B6110BD9B
:1032DC00036810B504009869FFF7F0FFC821606817
:1032EC00FFF77EFC0028F9D123689869FFF7DEFF11
:1032FC00C8216068FFF774FC0028F9D110BD70B5C7
:10330C0004000D000368ED001869FFF7D7FF236870
:10331C006068DA699B6AEB581361FFF7D9FF236881
:10332C006068996ADA694D196B681361FFF7D0FF11
:10333C006421A068FFF754FC0028F9D170BD00008F
:10334C0070B5437B0400012B1ED0022B27D0002B21
:10335C0019D14069FFF7B2FF2069FFF7A7FF606B37
:10336C005021431C6363FEF745F8114B8900256A15
:10337C00CB58626AEB5CDB00D318E2690ACB1161B3
:10338C00E3620123637370BD8069FFF78FFFA0694F
:10339C00FFF794FFE369E26A1A610223F2E780699E
:1033AC00FFF784FFA069FFF789FF0023EAE7C04617
:1033BC0090D800080300026890685A680123934073
:1033CC001840431E9841C0B2704770B500240500E8
:1033DC002600EB6B1B78A3420ADD2B00A2001033F6
:1033EC009858FFF7E7FFA0400643B6B20134F0E768
:1033FC00AB6B1E8070BD10B50C1E03D0FFF756FFD3
:10340C00200010BDFFF75AFFFAE770B50600437AAB
:10341C0004000C36002B05D00023C1614372300030
:10342C00FFF712FE3000FFF7DFFD0125002804D066
:10343C003000FFF703FE65720025280070BD000008
:10344C0070B5002504002D208EB00322290068449D
:10345C0005950695FCF7C8FF2C226B469B181D7032
:10346C0002236A46FF333A4E938305AB019305ABB7
:10347C000C9509950A9508960D9500940294039263
:10348C000493642105A8FFF7C0FF0028F9D1206937
:10349C00FFF714FF6069FFF711FFA069FFF706FF44
:1034AC00A26AE369D26968461A61FFF711FF052128
:1034BC0005A8FFF7AAFF0028F9D1A26AE369D2692F
:1034CC0068461A61FFF704FF642105A8FFF788FB23
:1034DC000028F9D1A26AE369D26968461A61FFF73C
:1034EC00F7FE322105A8FFF77BFB0028F9D1A26A71
:1034FC00E369526968461A61FFF7EAFE322105A8B2
:10350C00FFF76EFB0028F9D1282102A8FFF7F7FE80
:10351C000C2102A8FFF7F3FE062102A8FFF7EFFE2D
:10352C00012102A8FFF7EBFE802102A8FFF7E7FEBE
:10353C00012105A8FFF769FF0028F9D101233034D8
:10354C00237008A80896FFF759FD0EB070BDC04651
:10355C0084D3000810B504005030FFF705FD20009F
:10356C004030FFF701FD20003030FFF7FDFC20005C
:10357C002030FFF7F9FC20001030FFF7F5FC20009D
:10358C00FFF7F2FC200010BD10B504000800092A5A
:10359C0018D1204B5B689B045B0F1BD0042B1BD0FA
:1035AC00052B1BD0063B5A1E93411B4A5B42134012
:1035BC001A4A9B18072819D8FDF78CFE121A1C1FE3
:1035CC00212426290A3A0023012AF3D8114B5B68DF
:1035DC005B05E1E7124BEDE7124BEBE7124BE9E72A
:1035EC00962189011800FDF77FFEA060200010BD18
:1035FC00E121F6E79621C901F4E7E121FBE79621E9
:10360C000902EFE7E121FBE796214902EAE7E12114
:10361C00FBE7C04600100240E055BBFF4054890058
:10362C0000A24A040051250280A812010123C9B24C
:10363C00890003398B4000681840431E9841C0B282
:10364C007047FEE7FEE7FEE7FEE7FEE7FEE7000059
:10365C00044B10B51868FFF788FA0122024B5A6127
:10366C0010BDC0466009002000040140044B10B599
:10367C001868FFF77AFA0222024B5A6110BDC04655
:10368C006809002000040140044B10B51868FFF7CE
:10369C006CFA0422024B5A6110BDC046A0090020EE
:1036AC0000040140044B10B51868FFF75EFA0822BD
:1036BC00024B5A6110BDC046A8090020000401400D
:1036CC00044B10B51868FFF750FA1022024B5A61E0
:1036DC0010BDC046B009002000040140FEE7FEE723
:1036EC00FEE7FEE7FEE7000010B5144C63699B068D
:1036FC0003D5134B1868FFF738FA63695B0603D5DB
:10370C00104B1868FFF731FA63691B0603D50E4B93
:10371C001868FFF72AFA6369DB0503D50B4B1868A9
:10372C00FFF723FA63699B0503D5094B1868FFF76C
:10373C001CFAF8239B00636110BDC04600040140D5
:10374C00B8090020C0090020C8090020D0090020B9
:10375C00D8090020FEE7FEE7FEE7FEE7FEE7FEE7FE
:10376C00FEE7FEE7FEE7FEE7FEE7FEE7FEE700000A
:10377C0010B5174C63695B0503D5164B1868FFF73A
:10378C00F4F963691B0503D5134B1868FFF7EDF9C2
:10379C006369DB0403D5114B1868FFF7E6F963691D
:1037AC009B0403D50E4B1868FFF7DFF963695B04C4
:1037BC0003D50C4B1868FFF7D8F963691B0403D5C4
:1037CC00094B1868FFF7D1F9FC231B02636110BD8C
:1037DC0000040140700900207809002080090020B5
:1037EC00880900209009002098090020FEE7FEE7D8
:1037FC00044B10B51868FFF7B8F9034B1A685B68EF
:10380C0010BDC046F009002000380140044B10B533
:10381C001868FFF7AAF9034B1A685B6810BDC0461D
:10382C00F809002000440040044B10B51868FFF75D
:10383C009CF9034B1A685B6810BDC046000A002057
:10384C0000480040044B10B51868FFF78EF90122B0
:10385C00024B5A6010BDC0462809002000000240EF
:10386C00044B10B51868FFF780F91022024B5A6010
:10387C0010BDC0463009002000000240044B10B5BA
:10388C001868FFF772F98022024B52005A6010BD83
:10389C003809002000000240044B10B51868FFF7EF
:1038AC0064F98022024B52015A6010BD400900207D
:1038BC0000000240044B10B51868FFF756F980223F
:1038CC00024B52025A6010BD480900200000024011
:1038DC00044B10B51868FFF748F98022024B5203CD
:1038EC005A6010BD5009002000000240044B10B576
:1038FC001868FFF73AF98022024B52045A6010BD47
:10390C005809002000000240436800685B00C018A2
:10391C007047000010221F4B19680A4307211A60D8
:10392C001A688A43110002220A431A6080221A4B39
:10393C00520219680A431A601A689203FCD5F021E6
:10394C005A688A435A605A68144911408022D2003E
:10395C000A435A605A6812490A405A6080225968D0
:10396C0052020A435A605A680E491140E02252032F
:10397C000A435A608022196852040A431A601A6872
:10398C009201FCD503215A688A43110002220A4392
:10399C005A6070470020024000100240FFF8FFFF01
:1039AC00FFC7FFFFFFFFC3FFF8B50123614A624F5A
:1039BC0012681A4260D1614A61481168194204D1F7
:1039CC00604913600160092141600423BA69F02148
:1039DC001343BB610123BA6905681A43BA616A686B
:1039EC008A431100A0220A436A60574A5749156856
:1039FC001D4204D1534D13600D600A254D60042304
:103A0C00BA69534D1343BB610123BA690E681A435B
:103A1C00BA61726815408022D2002A434D4D726003
:103A2C002E684D4A1E4204D1464E2B601660082665
:103A3C00566004250F24BB692B43BB611668736861
:103A4C00A3439C460223644623437360434B0026E6
:103A5C00FC335A61424A5E609A61424A9E60DA6166
:103A6C00414AD8601A62414A19615A620922DD62E0
:103A7C009A6201232F4A13608023384EBA693400AE
:103A8C00DB0113430822BB61FC34E3698025D96850
:103A9C0004200A43DA600422D9680A43DA605A69BE
:103AAC002A435A61402259690A435A61304B1856CD
:103ABC00FFF74CF801237A692E4913437B611027D9
:103ACC00236A2D481A683A431A6062689219DA60C0
:103ADC00E26904329A601A682A431A601A680A402A
:103AEC001A601A6802401A600222042019680A43FC
:103AFC001A60224B1856FFF729F8636A1D491A6899
:103B0C001D48BA431A6062689219DA60E26904329D
:103B1C009A60FF225A601A6815431D601A680A40A1
:103B2C001A601A6802401A602022196830000A4391
:103B3C001A60F8BD34050020001002407C060020FD
:103B4C00800600200008014070060020740600204A
:103B5C00FFF0FFFF640600206806002038050020F7
:103B6C00000002400038014044000240580002406E
:103B7C00F0090020FFF3FFFFFFFCFFFF40090020CE
:103B8C00F8B50123704A714F12681A427ED1704AFF
:103B9C0070491068184204D16F48136008600A20FD
:103BAC00486010220120BB696C4C1343BB61BB699C
:103BBC000D680343BB616B681C40A0231B012343AE
:103BCC006B603025664B5C68AC432243654C5A6095
:103BDC002568654A054204D15F4D206015600B25B0
:103BEC0055601024B86926002043B8611068BC6980
:103BFC00844601200443BC6164465C4D64682540E6
:103C0C008024E4012C4365466C6030255C68AC4331
:103C1C0034435C60564C2568054205D1554D564ED3
:103C2C0020602E600F266E600420BC69514D20432D
:103C3C000124B861286826008446B8692043B8611D
:103C4C0058684E4C044080208004204358606346E2
:103C5C0080205B6880051B011B09034360464360A1
:103C6C00474B0020FC331A61464A58609A61464A19
:103C7C009860DA61454AD9601A62454A5D615A62B8
:103C8C000B229A62093ADA622F4B1E6080233C4E5B
:103C9C00FA693400DB0213430822FB61FC34E3694C
:103CAC008025D96804200A43DA600422D9680A43C3
:103CBC00DA605A692A435A61402259690A435A61A7
:103CCC00344B1856FEF742FF01237A6932491343ED
:103CDC007B611027236A31481A683A431A6062687C
:103CEC009219DA60E26904329A601A682A431A60FF
:103CFC001A680A401A601A6802401A6002220420EC
:103D0C0019680A431A60264B1856FEF71FFF636AA0
:103D1C0021491A682148BA431A6062689219DA601C
:103D2C00E26904329A60FF225A601A6815431D60DA
:103D3C001A680A401A601A6802401A602022196830
:103D4C0030000A431A60F8BDE00300200010024066
:103D5C00280500202C05002000100140FFF0FFFF7B
:103D6C00000001401C05002020050020FF0FFFFF74
:103D7C00100500201405002000080140FFFFFFF88B
:103D8C00E403002000000240004800401C000240F8
:103D9C0030000240000A0020FFF3FFFFFFFCFFFF92
:103DAC003009002070B514000D1A884204D00100AF
:103DBC002A002000FCF7BAFA601970BD0300F0B5B8
:103DCC00093387B00193036815000293029A019B93
:103DDC0004009A18037A0F00002B27D013291CD843
:103DEC001426761A7608961973181000310003936E
:103DFC00FEF7E4FFE91932002800FFF7D3FF029920
:103E0C00019B143103985918FEF7D8FF2068143021
:103E1C005021FDF7EFFA216016E008001438400835
:103E2C00281801001431FFF7BDFFEFE75021029B6A
:103E3C00C91AEB190293B9420BD919002800FFF7E4
:103E4C00B1FF2368DF19276000232000237207B01D
:103E5C00F0BD3E0069182800FFF7A4FF2368503E10
:103E6C00F618B91B6D182800019A5035502E04D93C
:103E7C002900FFF797FF503EF5E70299FFF792FFF5
:103E8C002368F018C4E7000030B5040089B00A00BC
:103E9C0005A81149FCF7BAFC05A901A8FFF760F9C0
:103EAC006268019B00259A4200D9D51A013D04D3C2
:103EBC0020212000FFF71CF9F8E705A903A8FFF75C
:103ECC004FF920000399049AFFF778FF0023200094
:103EDC00636009B030BDC046F7CF0008F7B50022CB
:103EEC00436804001A60031DDD6F05272B0008339F
:103EFC000193E36F60681B78AB4203DC6068FFF7EB
:103F0C0023F9F7BD03236E1C43603100FFF7BCFFA0
:103F1C003A21FFF7EDF8A36F60686D00E95A47602E
:103F2C00FFF7B2FF2021FFF7E3F8019B9E42E5D09B
:103F3C003500DEE710B5FFF7D1FF10BD006810B5F6
:103F4C00021DD36F002B03D0023BD367FFF7C6FFD4
:103F5C0010BD006810B5021DD36FC16F1C0009782D
:103F6C0008348C4203DA0233D367FFF7B7FF10BD76
:103F7C00F8B53022060007000400436888361A6042
:103F8C0098376568B74204D0280002CEFFF77CFF53
:103F9C00F7E73C232B60386850214430FDF72AFAB0
:103FAC00280029605E21FFF7A3F8FFF7AFF8F8BDF2
:103FBC0070B50568290098310B689B00EB188833A5
:103FCC001A6801321A600C680A21A4002C19883472
:103FDC002068FDF7F9FA28002160FFF7C9FF70BDD2
:103FEC00006810B5010098310B689B00C31888332A
:103FFC001A68013A1A600B689B00C31888331A6858
:10400C00002A01DA09221A60FFF7B2FF10BD000086
:10401C00F7B50025836B46681B78040035609B0759
:10402C000ED40123334933726846FFF799F83000F8
:10403C000099019AFFF7C2FE6068FFF785F8F7BD9B
:10404C00836A1A88002A0AD15D88002D06D19B88C4
:10405C00002B04D1013328493372E5E715002E00FB
:10406C000327E36A1B78AB420DDDA36A01221B8890
:10407C002B41134205D06068A9184760FFF704FF75
:10408C0001361C2E32D100250327236B1B78AB4243
:10409C0010DDA36A01225B882B41134208D06068B3
:1040AC00E36A47601978013649198918FFF7ECFE65
:1040BC001C2E1DD100250327636B1B78AB42BBDD87
:1040CC00A36A01229B882B4113420BD06068E36AE0
:1040DC0047601978236B49191B780136C918891860
:1040EC00FFF7D2FE1C2EA7D00135E5E70135B8E766
:1040FC000135CAE7FACF000806D0000837B51A23F5
:10410C00040040680360636B1978FFF7BDFEFEF78F
:10411C00FDFFE36B1B78DB071CD53C2365683F492F
:10412C002B606846FFF71CF8019A28000099FFF7EE
:10413C0045FE022360684360E36A1988FFF7A4FE1A
:10414C00050037496846FFF70BF828000099019ADB
:10415C00FFF734FE4323656832492B60A36B1B7851
:10416C009B0700D430496846FEF7FAFF28000099F7
:10417C00019AFFF723FEE36B1B789B0717D5A36B04
:10418C000A211B7860689B0733D5FEF7F3FF0323E6
:10419C004360236B1988FFF777FE050023496846B7
:1041AC00FEF7DEFF28000099019AFFF707FE1021A9
:1041BC006068FEF7DFFFA36B05001B781C49DB076B
:1041CC0000D419496846FEF7CBFF2800019A0099E4
:1041DC00FFF7F4FD302365682B60A36B1B781A077F
:1041EC0059060BD4002A0CDB12495B070AD512497D
:1041FC0008E0FEF7BFFF11490500D0E71049002A7F
:10420C0000DA10496846FEF7ABFF28000099019AC6
:10421C00FFF7D4FDFEF77AFF37BDC04614D0000877
:10422C0017D0000844D3000826ED00081BD0000866
:10423C0011D000081DD0000830D0000824ED000873
:10424C002AD0000821D00008F0B500254768061DCB
:10425C003D60F36F040089B0AB4212D15B4906A8F4
:10426C00FEF77EFF079A06993800FFF7A7FD032398
:10427C00606801354360A36F1978FFF705FEFEF700
:10428C0045FFF36F012B13DC6768514906A8FEF755
:10429C0067FF079A06993800FFF790FD02236068C4
:1042AC0001354360A36F5978FFF7EEFDFEF72EFF43
:1042BC00F36F022B16DC6768464906A8FEF750FF21
:1042CC0006993800079AFFF779FDE36F2B211B78CD
:1042DC00DA0702D49B0700D40231FEF709FFFEF780
:1042EC0015FF0135F36F032B16DC67683A4906A8F6
:1042FC00FEF736FF06993800079AFFF75FFDE36F6C
:10430C002B211B78DB0700D40231FEF7F1FE0135BF
:10431C00FEF7FCFE042D57D0F36F042B16DC6768F8
:10432C002E4906A8FEF71CFF06993800079AFFF7DE
:10433C0045FDE36F2B211B789B0700D40231FEF760
:10434C00D7FE0135FEF7E2FE042D3DD0F36F052BB1
:10435C003ADC6768224904A8FEF702FF059A380088
:10436C000499FFF72BFD07001E4906A8FEF7F8FE7F
:10437C0068460699079AFEF711FC0099019A3800D5
:10438C00FFF71CFDFEF7C2FE032D1DD0F36F052BAE
:10439C001ADC6468144902A8FEF7E2FE039A2000B6
:1043AC000299FFF70BFD0400104904A8FEF7D8FE94
:1043BC000499059A06A8FEF7F1FB0699079A2000C6
:1043CC00FFF7FCFCFEF7A2FE09B0F0BD38D00008E8
:1043DC0045D0000857D0000868D0000877D00008F6
:1043EC0083D000088AD000089AD00008A1D0000819
:1043FC00006810B5021DD36F002B01DD013BD367A4
:10440C00FFF722FF10BD006810B5021DD36F022B01
:10441C0001DC0133D367FFF717FF10BD002370B524
:10442C0083608B6804000D00002B05D00222984796
:10443C00EB68E360AB68A360200070BD002370B52F
:10444C0083608B6804000D00002B05D00222984776
:10445C00EB68E360AB68A360200070BD70B505002D
:10446C000C00FFF7DBFF2800210010301031FFF7A4
:10447C00D5FF2800210020302031FFF7CFFF280086
:10448C00210030303031FFF7C9FF280021004030C7
:10449C004031FFF7D3FF2800210050305031FFF797
:1044AC00CDFF280070BD002370B583608B680400BD
:1044BC000D00002B05D002229847EB68E360AB6837
:1044CC00A360200070BD30B5846F85B0236868464A
:1044DC009D68FFF7E8FF69462000A8476846FEF78D
:1044EC0043FD05B030BD836810B5002B01D108F039
:1044FC00A5FCC368984710BD10B500681830FFF7CD
:10450C00F2FF10BD10B500681830FFF7ECFF10BDBE
:10451C0010B500686830FFF7E6FF10BD10B50068F5
:10452C006830FFF7E0FF10BD10B500686830FFF78A
:10453C00DAFF10BD10B500681830FFF7D4FF10BDBE
:10454C00006810B503009C331A68043B1B681A60A2
:10455C00030088331B68002B03D08030FFF7C3FFA8
:10456C0010BD7030FAE7006810B503009C331A6870
:10457C00043B1B681A60030088331B68002B03D0B4
:10458C008030FFF7B0FF10BD7030FAE7006810B54F
:10459C00030098331A88043B1B681A800300083305
:1045AC00DB6F002B03D07C30FFF79DFF10BD6C3010
:1045BC00FAE7036810B51A00983394321B78126826
:1045CC001370006803000833DB6F002B03D07C30C2
:1045DC00FFF789FF10BD6C30FAE700681822030062
:1045EC00FC331B6F10B55343C0188030FFF77BFFB3
:1045FC0010BD036810B51A00983394321B781268FA
:10460C001370006803000833DB6F002B03D07C3081
:10461C00FFF769FF10BD6C30FAE7036810B51A009C
:10462C00983394321B7812681370006803000833B7
:10463C00DB6F002B03D07C30FFF755FF10BD6C30C7
:10464C00FAE7036810B51A00983394321B78126895
:10465C001370006803000833DB6F002B03D07C3031
:10466C00FFF741FF10BD6C30FAE700681822030019
:10467C00F4331B6810B55343C0188030FFF733FF79
:10468C0010BD036810B51A00983394321B78126869
:10469C001370006803000833DB6F002B03D07C30F1
:1046AC00FFF721FF10BD6C30FAE7006810B503006E
:1046BC009C331A68043B1B681A60030088331B6820
:1046CC00002B03D08030FFF70EFF10BD7030FAE7DF
:1046DC00006818220300C4331B6810B55343C0187C
:1046EC008030FFF700FF10BD006818220300DC3398
:1046FC001B6810B55343C0188030FFF7F4FE10BD93
:10470C0010B500687030FFF7EEFE10BD10B50068F4
:10471C007030FFF7E8FE10BD10B500686C30FFF785
:10472C00E2FE10BD10B500686C30FFF7DCFE10BD6A
:10473C0010B500686830FFF7D6FE10BD10B50068E4
:10474C006C30FFF7D0FE10BD10B500686C30FFF771
:10475C00CAFE10BD10B500686C30FFF7C4FE10BD6A
:10476C0010B500686830FFF7BEFE10BD10B50068CC
:10477C006C30FFF7B8FE10BD10B500687030FFF755
:10478C00B2FE10BD10B500686830FFF7ACFE10BD6E
:10479C0010B500686830FFF7A6FE10BD836810B531
:1047AC00002B01D108F04AFBC368984710BD1FB518
:1047BC000023694608300293FFF7F0FF6846FEF7C6
:1047CC00D3FB05B000BD30B50025040085B06946AB
:1047DC0008300295FFF7E2FF6846FEF7C5FB2000A4
:1047EC00694618300295FFF7D9FF6846FEF7BCFB07
:1047FC002000694638300295FFF7D0FF6846FEF777
:10480C00B3FB2000694628300295FFF7C7FF6846C6
:10481C00FEF7AAFB05B030BD30B50025040085B00D
:10482C00694608300295FFF7B9FF6846FEF79CFB16
:10483C002000694618300295FFF7B0FF6846FEF776
:10484C0093FB2000694638300295FFF7A7FF6846B6
:10485C00FEF78AFB05B030BD30B50025040085B0ED
:10486C00694608300295FFF799FF6846FEF77CFB16
:10487C002000694618300295FFF790FF6846FEF756
:10488C0073FB2000694638300295FFF787FF6846B6
:10489C00FEF76AFB05B030BD1FB500236946083032
:1048AC000293FFF77BFF6846FEF75EFB05B000BD89
:1048BC001FB50023694608300293FFF76FFF684667
:1048CC00FEF752FB05B000BD30B50025040085B0E5
:1048DC00694608300295FFF761FF6846FEF744FB16
:1048EC002000694618300295FFF758FF6846FEF71E
:1048FC003BFB2000694628300295FFF74FFF6846C6
:10490C00FEF732FB2000694638300295FFF746FF70
:10491C006846FEF729FB05B030BD30B50025040014
:10492C0085B0694608300295FFF738FF6846FEF7F8
:10493C001BFB2000694618300295FFF72FFF6846D5
:10494C00FEF712FB2000694628300295FFF726FF80
:10495C006846FEF709FB2000694638300295FFF7E0
:10496C001DFF6846FEF700FB05B030BD30B50025D5
:10497C00040085B0694608300295FFF70FFF6846C2
:10498C00FEF7F2FA2000694618300295FFF706FF91
:10499C006846FEF7E9FA2000694628300295FFF7D1
:1049AC00FDFE6846FEF7E0FA2000694638300295B5
:1049BC00FFF7F4FE6846FEF7D7FA05B030BD30B508
:1049CC000025040085B0694608300295FFF7E6FE25
:1049DC006846FEF7C9FA2000694618300295FFF7C1
:1049EC00DDFE6846FEF7C0FA2000694628300295C5
:1049FC00FFF7D4FE6846FEF7B7FA20006946383058
:104A0C000295FFF7CBFE6846FEF7AEFA05B030BD57
:104A1C001FB5074B69460393064B00900830029371
:104A2C00FFF7BCFE6846FEF79FFA05B000BDC04616
:104A3C00114500085F1600081FB50400144B6946A9
:104A4C000393144B009008300293FFF7A7FE6846BF
:104A5C00FEF78AFA2000104B694603930F4B18306F
:104A6C0002930094FFF79AFE6846FEF77DFA200049
:104A7C000B4B694603930B4B383002930094FFF7B2
:104A8C008DFE6846FEF770FA2000FFF727FA1FBD6F
:104A9C00493F0008771600085F3F00088F16000892
:104AAC001D450008A71600087FB5284B040003938A
:104ABC00274B6946009008300293FFF76FFE68465B
:104ACC00FEF752FA0023656868462B602149FEF711
:104ADC0047FB28000525019A0099FFF76FF9A36A97
:104AEC00606819884560FFF7CFF9666868461A490F
:104AFC00FEF736FB019A00993000FFF75FF960680A
:104B0C00A36A45605988FFF7BFF966686846134980
:104B1C00FEF726FB019A00993000FFF74FF9606809
:104B2C00A36A45609988FFF7AFF9666868460C4937
:104B3C00FEF716FB30000099019AFFF73FF9606809
:104B4C00A36A4560D988FFF79FF97FBD41450008EE
:104B5C0067170008A7D00008B7D00008C7D0000816
:104B6C00D7D000087FB50400274B69460393274B29
:104B7C00009008300293FFF711FE6846FEF7F4F937
:104B8C002000234B69460393224B18300293009468
:104B9C00FFF704FE6846FEF7E7F920001E4B694656
:104BAC0003931E4B383002930094FFF7F7FD6846D1
:104BBC00FEF7DAF920001A4B69460393194B28309B
:104BCC0002930094FFF7EAFD6846FEF7CDF9002545
:104BDC00012366686846337235601349FEF7C0FAE4
:104BEC000099019A3000FFF7E9F8FEF7ADFA2300BF
:104BFC00032288331D605D609D60DD6020001A61BA
:104C0C00FFF7B6F97FBDC046BD3F00080717000887
:104C1C00ED3F00081F17000835450008371700083E
:104C2C00874D00084F170008E7D000081FB5040097
:104C3C00144B69460393144B009008300293FFF712
:104C4C00ADFD6846FEF790F92000104B69460393C2
:104C5C000F4B183002930094FFF7A0FD6846FEF747
:104C6C0083F920000B4B694603930B4B38300293AE
:104C7C000094FFF793FD6846FEF776F92000FFF7E6
:104C8C00E3FA1FBDFD430008BF16000813440008DB
:104C9C00D716000829450008EF16000830B50400A7
:104CAC00234B85B00393234B694600900830029345
:104CBC00FFF774FD6846FEF757F965682900280070
:104CCC0059310930FEF77AF800232B6065681A4ACF
:104CDC002B6001332B72A36A68461B789B00995892
:104CEC00FEF73EFA019A00992800FFF767F81423A3
:104CFC00656868462B601149FEF732FA019A0099F3
:104D0C002800FFF75BF8636B1978FFF7BDF82823D1
:104D1C006468684623600A49FEF722FA0099019AF2
:104D2C002000FFF74BF8FEF7F1F905B030BDC04697
:104D3C000545000847160008D8DB0008F6D0000827
:104D4C00FDD00008002370B583608B6804000D0053
:104D5C00002B05D002229847EB68E360AB68A36098
:104D6C00200070BD07B583680191002B01D108F0BC
:104D7C0065F8C36801A9984707BD006870B50200C3
:104D8C0098321368013B1360002B0DDA03000021ED
:104D9C000A2588339A4203D0694310CB0919F9E7E5
:104DAC007830FFF7DFFF70BDFFF7E2F8FBE700009C
:104DBC0070B50C000978FC30826A4909C069FEF7AD
:104DCC00E3FB01212278C368154D52080A402B40A1
:104DDC0052021A43C2602378C2689B080B401149E7
:104DEC001B030A401343C360237802690E49DB0698
:104DFC009B0F1B030A40134303612378DB070AD57F
:104E0C008023C268DB001343C3608023C2689B010C
:104E1C001343C36070BDC368044A1340F4E7C04633
:104E2C00FFFDFFFFFFEFFFFFFFCFFFFFFFFBFFFFCC
:104E3C000023FC3010B50400436083604069FEF72A
:104E4C003DFA0122216A0B6893430B60636A19686F
:104E5C0091431960FF21596019680A431A601A6856
:104E6C00D207FCD51023E269D1680B43D36010BD87
:104E7C0010B58468A36CFC33D96A9869FEF7D6FB2D
:104E8C00002805D0A06CFFF7D3FF2000FEF7DCF85C
:104E9C0010BD10B584682369FC33D96A9869FEF794
:104EAC00C5FB002802D02069FFF7C2FF10BD10B56A
:104EBC0004000068636802001B68B8325361A832B2
:104ECC005361FEF7C1F820681030FEF7BDF882235D
:104EDC00012122689B00D15010BD036842791B88C8
:104EEC009A4201D20122827102799A4201D900239D
:104EFC0083718079704710B504000068FFF7EDFFEF
:104F0C006168002804D020220B7893430B7010BDED
:104F1C0001200A789306DB0F434003401F305B01EE
:104F2C0082431343F2E710B504000068FFF7D5FF86
:104F3C006168002804D010220B7893430B7010BDCD
:104F4C0001200A78D306DB0F434003400F301B01CE
:104F5C0082431343F2E70B7810B50400002B0AD000
:104F6C000068FFF7BAFF002804D11023626811789B
:104F7C000B43137010BD1021426813788B43F8E774
:104F8C000B7810B50400002B0AD00068FFF7A5FFC2
:104F9C00002804D12023626811780B43137010BDD4
:104FAC002021426813788B43F8E70000FF23F0B50B
:104FBC001D00064F064E0C7801315C403B5D6B408A
:104FCC00355D8A42F7D105704370F0BDD0D9000829
:104FDC00D0DA0008F7B50120814D01912968814B89
:104FEC00814A824C01426BD1814E8249376807421B
:104FFC0004D1814F30600F600C274F6010209E69E8
:10500C00304398610E687D497068084080218902A0
:10501C000143716001267A487A490768374204D106
:10502C00794F06600F6002274F6020209E69304345
:10503C0098610E68754831680840802189000143E9
:10504C000120316072490E68064205D1714E724FD3
:10505C0008603760032777600821012698696D4F37
:10506C000143996139688C4699693143996150685B
:10507C006A490840802189040143516061466848AF
:10508C000968084080218901014360460160594844
:10509C00644920615B48083160615F482160E061D0
:1050AC000198002120626048616060625F48A160E5
:1050BC00A06220003030A181A761017061632E6075
:1050CC0001255B485B4906682E4204D1524E0560AF
:1050DC000E6004264E6008209D692843986108687C
:1050EC0001219D690D439D6156684C4D2E408025D4
:1050FC00AD04354355600568404A15408022920244
:10510C002A4302604C484D4A05680D4204D1424D79
:10511C000160156005255560082198690143996166
:10512C001068474902681140802292030A430260CA
:10513C0001204449444A0D68054204D1364D0860AB
:10514C00156006255560082198690143996110681E
:10515C003E4902681140802292040A4302600120F9
:10516C003B493C4A0D68054204D12B4D0860156043
:10517C0007255560082198690143996111688022BF
:10518C000B6892051B011B0913430B602000FEF7F3
:10519C0057F9237B002B21D1013323732E4BDA6873
:1051AC006260002A00D094609A68DC60002A00D10A
:1051BC009C60022101225961284B186890431860A9
:1051CC0027485860002098601D68043028431860F8
:1051DC0018680143196019680A431A602000FEBD63
:1051EC00D00200200010024000000140D402002038
:1051FC00240300202803002000100140FFFFF0FFD3
:10520C00180300201C03002000140140FFF0FFFFD6
:10521C000C03002010030020000C0140FFFFFFF8DE
:10522C00FF0FFFFF9CEC000878DC000878E4000816
:10523C004C020020500200204002002044020020BA
:10524C00FFFF0FFF3402002038020020FFFFFFF0A9
:10525C00280200202C020020080A002010E000E0A8
:10526C009F8C000010B504000CC90CC0FFF71BF993
:10527C00200010BD70B504001D00134B416003608D
:10528C0011000830FFF7EAF8200029006830FFF71A
:10529C000AF9200004997830FFF7E4FF2000059903
:1052AC009030FFF7DFFF20000699A830FFF7DAFFF8
:1052BC0020000799C030FFF7D5FF22000023D83219
:1052CC0020001360536070BD14D4000882B0F8B590
:1052DC00040007930AAB18780BAB207120001B78E5
:1052EC000F4F63712760A1600C301100099EFFF70E
:1052FC00B5F820000C996C30FFF7D5F820000D990B
:10530C007C30FFF7D0F8230007AD8C3306CD06C3F5
:10531C00327820001E601A71F8BC08BC02B0184725
:10532C0050D40008F7B57E4A012311687D4D0C005E
:10533C00AC461C40194203D17B496C602960136058
:10534C0004227A4B0F2599691143996161460C68C7
:10535C002168A9430A432260012275490C68144252
:10536C0004D1744D704C6A602C600A6004229969F7
:10537C000A43F0219A616F4A146822688A4311002B
:10538C0040220A43226001246B490D68254205D155
:10539C00654D6A4A0C6015600225556004219C69B4
:1053AC00664A214399611568654C29680C40802137
:1053BC00C900214329600125624C634926682E42AD
:1053CC0004D1594E25600E6003264E6004279C695B
:1053DC005E4D3C439C610E68346825408024E4019A
:1053EC002C43346001265A4D5A4C2A68324203D160
:1053FC004D4A676022602E6004259E6935439D618D
:10540C00276880243D68544EE40235402C433C60B0
:10541C000127524D524C2A6800963A4204D1424E12
:10542C002F6026600526666004259E6935439D61C4
:10543C00276880243D684B4EE40335402C433C6088
:10544C000127494D494C2A6801963A4204D1364EFF
:10545C002F6026600626666004259E6935439D6193
:10546C002668434D346825408024E4042C430125F0
:10547C003460404C22682A4204D107273E4E2A4A07
:10548C00256084C604279C6980253C439C613A4C6A
:10549C00ED0526683468BC40FC402C433460012682
:1054AC00364D374C2A68324203D1364A6760226047
:1054BC002E6010259E6935439D61256880242E68D9
:1054CC00009AE402164026432E6001252E4C2268D9
:1054DC002A4204D105272D4E2A4A256084C6102461
:1054EC0080269D69F6032C439C61284B019A1C680D
:1054FC00256815402E4326600360214B8161436073
:10550C001D4B8360194BC360154B0361114B4361F9
:10551C000A4BC361074B036263464362FEBDC04640
:10552C00C4020020C8020020000801400010024004
:10553C00B8020020BC020020AC020020B002002007
:10554C00FFF0FFFFA0020020A4020020FF0FFFFFCE
:10555C009402002098020020FFFFF0FF8802002038
:10556C008C020020FFFF0FFF7C0200208002002035
:10557C00FFFFFFF070020020740200206402002084
:10558C006802002000100140580200205C0200203C
:10559C00F0B58BB0060068460D00FFF7C3FE144F44
:1055AC0001243A681300234022421ED11148436063
:1055BC0083600373104B86630360099BC5630361AF
:1055CC00089B4361079B8361069BC361059B036238
:1055DC00049B4362039B8362029BC362019B036334
:1055EC00009B4363FDF730FD3C6002480BB0F0BDFF
:1055FC00300300203403002018D500080300FC33CE
:10560C009A68FE2A03D881549A6801329A607047CE
:10561C00FC3010B504004069FDF748FE1021E2692A
:10562C00D3688B43D360626A0F3913688B43136062
:10563C00226A13688B431360A36860681B1A0233D9
:10564C009BB253601368194311601368DB07FCD5D8
:10565C0010BDF7B50400006900220300FC335A604A
:10566C009A60631D0E00A71DD97F012E20D1FFF774
:10567C00C5FF8023F97F1943FFF7C0FF3100FFF707
:10568C00BDFF216901A80B00FC339A685B688A187E
:10569C00C918FFF78BFC6B4620695979FFF7AEFFF1
:1056AC006B461979FFF7AAFF2069FFF7B1FFF7BD29
:1056BC0080256D42022E05D1FFF7A0FFF97F29430B
:1056CC00C9B2D9E7FFF79AFFF97F2943C9B2FFF7AF
:1056DC0095FF0321D3E70100FC3110B54A688C68B3
:1056EC0003000020944202D9501C4860985C10BD05
:1056FC0073B56B4604001A0060CC60C20A0030CA55
:10570C0030C005CB05C173BD70B505000C00FFF7AB
:10571C00EFFFAB68A268AA60E268A360EB68EA607E
:10572C00E36070BD1FB504006846FEF7BCFE2100A7
:10573C006846FFF7E9FF6846FDF716FC200004B049
:10574C0010BD10B54430FFF7EDFF10BD10B534306F
:10575C00FFF7E8FF10BD10B52430FFF7E3FF10BDD5
:10576C0010B51430FFF7DEFF10BD10B54430FFF755
:10577C00D9FF10BD10B53430FFF7D4FF10BD10B5F4
:10578C002430FFF7CFFF10BD10B51430FFF7CAFF60
:10579C0010BD10B54430FFF7C5FF10BD10B5343047
:1057AC00FFF7C0FF10BD10B52430FFF7BBFF10BDD5
:1057BC0010B51430FFF7B6FF10BD10B53430FFF73D
:1057CC00B1FF10BD10B53430FFF7ACFF10BD10B5F4
:1057DC004430FFF7A7FF10BD10B54430FFF7A2FF10
:1057EC0010BD10B52430FFF79DFF10BD10B514305F
:1057FC00FFF798FF10BD10B52430FFF793FF10BDD5
:10580C0010B51430FFF78EFF10BD1FB50023040038
:10581C00080069460293FFF777FF69462068FEF798
:10582C0052FE6846FDF7A0FB1FBD30B500230400F7
:10583C0089B0080069460293FFF766FF2368694642
:10584C001C6F04A823689D68FEF72DFE04A9200098
:10585C00A84704A8FDF788FB6846FDF785FB09B04F
:10586C0030BD30B50023040089B0080069460293AE
:10587C00FFF74AFF236869465C6F04A823689D689C
:10588C00FEF711FE04A92000A84704A8FDF76CFB45
:10589C006846FDF769FB09B030BD1FB50023040055
:1058AC00080069460293FFF72FFF69462068FEF750
:1058BC000AFE6846FDF758FB1FBD30B500230400F7
:1058CC0089B0080069460293FFF71EFF23686946FA
:1058DC009C6F04A82368DD68FEF7E5FD04A9200091
:1058EC00A84704A8FDF740FB6846FDF73DFB09B04F
:1058FC0030BD0200FC3210B5536894689C4204D948
:10590C005C1C5460C35C0B7010BD0023FBE70200F1
:10591C00FC3253689268013370B504000D009A4252
:10592C000BD9FFF7D8FE06002000FFF7D4FE360295
:10593C00C0B230432880200070BD00230B80FAE7F2
:10594C00F7B5436D816C1D680B00FC33040058687F
:10595C002A790E5C96420CD00922A8692B181A756C
:10596C0003210130FBF730FEA961636F01336367DC
:10597C00F7BD9A68161A022E2FD90027904202D230
:10598C00013A9A608F5C9A680026904202D2013AE2
:10599C009A608E5C9A688A18091801A8FFF706FBB2
:1059AC006B461B79BB4218D16B465B79B34214D161
:1059BC00A06CFFF790FE6B46DE1C3100A06CFFF76D
:1059CC0098FF33787F2B0CD9A06C01A9FFF791FFBE
:1059DC006A46A86912792B18C1E7A86910222B18FE
:1059EC00BDE72B7A033B012BC2D801A9A06CFFF7B2
:1059FC0080FFE968A06CFFF78AFFB9E770B50C006F
:105A0C000500090AFFF7FAFDE1B2FFF7F7FD2800E0
:105A1C0070BD10B52822FAF70DFC43425841C0B2B4
:105A2C0010BD0B1A1B11002B18DD0268127C002A0A
:105A3C0004D04268127C002A01D10430704782687D
:105A4C00127C002A01D10830F8E7C268127C002AC7
:105A5C0001D10C30F2E71030013BE4E70B1A082BB4
:105A6C000AD00C2B03D0042B0BD00800E6E70368FC
:105A7C001B7C002BE2D0043003681B7C002BDDD098
:105A8C00043003681B7C002BEFD1D7E773B5437B45
:105A9C000400012B2FD0022B00D1ABE0002B38D10E
:105AAC00836C416EFC339A685B68D31AC26E9A425F
:105ABC0000D2C165A56D8D4210DB1222636D0321EE
:105ACC001E68B06933181A750130FBF77DFD636FE2
