:020000040800F2
:10000000005000205132000899320008993200084F
:100010009932000899320008993200080000000067
:1000200000000000000000000000000099320008FD
:1000300099320008000000009932000849090008C0
:10004000950C0008970C0008990C00089B0C000800
:100050009D0C00089F0C0008A10C0008BD0C0008B6
:10006000D90C0008F50C0008110D0008950E0008C9
:10007000B50E0008D50E0008F50E0008150F000893
:10008000350F0008550F00082D0D00082F0D000832
:10009000310D0008330D0008350D0008390D00083A
:1000A000A50D0008A70D0008A90D0008AB0D00085C
:1000B000AD0D0008AF0D0008B10D0008B30D00082C
:1000C000B50D0008B70D0008B90D0008BB0D0008FC
:1000D000BD0D0008410E00085D0E0008790E0008F5
:1000E000C10D00083D0E00083F0E00080000000092
:1000F0000000000000000000000000000000000000
:0C01000000000000000000005FF808F1A3
:10010C0010B5064C2378002B07D1054B002B02D0E1
:10011C000448AFF300800123237010BD7C00002045
:10012C0000000000543C0008044B10B5002B03D019
:10013C0003490448AFF3008010BDC0460000000026
:10014C0080000020543C00080023C25C0133002ACC
:10015C00FBD1581E70470000002243088B4274D319
:10016C0003098B425FD3030A8B4244D3030B8B42AC
:10017C0028D3030C8B420DD3FF22090212BA030CB5
:10018C008B4202D31212090265D0030B8B4219D396
:10019C0000E0090AC30B8B4201D3CB03C01A5241B6
:1001AC00830B8B4201D38B03C01A5241430B8B42FE
:1001BC0001D34B03C01A5241030B8B4201D30B03E7
:1001CC00C01A5241C30A8B4201D3CB02C01A52410E
:1001DC00830A8B4201D38B02C01A5241430A8B42D1
:1001EC0001D34B02C01A5241030A8B4201D30B02BA
:1001FC00C01A5241CDD2C3098B4201D3CB01C01AD4
:10020C00524183098B4201D38B01C01A52414309DD
:10021C008B4201D34B01C01A524103098B4201D3CB
:10022C000B01C01A5241C3088B4201D3CB00C01A38
:10023C00524183088B4201D38B00C01A52414308B0
:10024C008B4201D34B00C01A5241411A00D20146D5
:10025C00524110467047FFE701B5002000F006F848
:10026C0002BDC0460029F7D076E770477047C046FC
:10027C0070474369013343617047012A03D0022A56
:10028C0003D0002070470160FBE70B680360F8E7C0
:10029C0010B50368984710BD012A03D0022A03D079
:1002AC00002070470160FBE70B680360F8E7012A48
:1002BC0003D0022A03D0002070470160FBE70B68D3
:1002CC000360F8E7012A03D0022A03D0002070470C
:1002DC000160FBE70B680360F8E7012A03D0022AF0
:1002EC0003D0002070470160FBE70B680360F8E760
:1002FC00012A03D0022A03D0002070470160FBE7DB
:10030C000B680360F8E7012A03D0022A03D000200F
:10031C0070470160FBE70B680360F8E7012A03D024
:10032C00022A03D0002070470160FBE70B680360D2
:10033C00F8E7012A03D0022A03D00020704701609D
:10034C00FBE70B680360F8E7012A03D0022A03D00D
:10035C00002070470160FBE70B680360F8E770470B
:10036C00012A00D1016000207047012A03D0022A23
:10037C0003D0002070470160FBE70B680360F8E7CF
:10038C007047012A00D1016000207047012A03D078
:10039C00022A03D0002070470160FBE70B68036062
:1003AC00F8E77047012A00D10160002070477047C0
:1003BC00012A00D10160002070477047012A00D14A
:1003CC00016000207047012A03D0022A03D00020CC
:1003DC0070470160FBE70B680360F8E77047012A80
:1003EC0000D1016000207047012A03D0022A03D0FB
:1003FC00002070470160FBE70B680360F8E7012AF7
:10040C0003D0022A03D0002070470160FBE70B6881
:10041C000360F8E7012A03D0022A03D000207047BA
:10042C000160FBE70B680360F8E7012A03D0022A9E
:10043C0003D0002070470160FBE70B680360F8E70E
:10044C00012A03D0022A03D0002070470160FBE789
:10045C000B680360F8E77047012A00D101600020A7
:10046C0070477047012A00D1016000207047704727
:10047C00012A00D1016000207047012A03D0022A12
:10048C0003D0002070470160FBE70B680360F8E7BE
:10049C00012A03D0022A03D0002070470160FBE739
:1004AC000B680360F8E77047012A00D10160002057
:1004BC0070477047012A00D10160002070477047D7
:1004CC00012A00D1016000207047012A03D0022AC2
:1004DC0003D0002070470160FBE70B680360F8E76E
:1004EC00012A03D0022A03D0002070470160FBE7E9
:1004FC000B680360F8E7012A03D0022A03D000201E
:10050C0070470160FBE70B680360F8E770477047C2
:10051C007047704770470300083310B50400D86F5C
:10052C003221421CDA67FFF79DFE002904D1043406
:10053C00E06F03685B68984710BD012A03D0022A5C
:10054C0003D0002070470160FBE70B680360F8E7FD
:10055C00012A03D0022A03D0002070470160FBE778
:10056C000B680360F8E703685A6E1B6E1A607047DD
:10057C00012A03D0022A03D0002070470160FBE758
:10058C000B680360F8E7012A03D0022A03D000208D
:10059C0070470160FBE70B680360F8E7012A03D0A2
:1005AC00022A03D0002070470160FBE70B68036050
:1005BC00F8E7012A03D0022A03D00020704701601B
:1005CC00FBE70B680360F8E703681A6E64331B786B
:1005DC0013707047012A03D0022A03D00020704701
:1005EC000160FBE70B680360F8E7012A03D0022ADD
:1005FC0003D0002070470160FBE70B680360F8E74D
:10060C00012A03D0022A03D0002070470160FBE7C7
:10061C000B680360F8E7012A03D0022A03D00020FC
:10062C0070470160FBE70B680360F8E703685A6EDC
:10063C001B6E1A607047012A03D0022A03D00020D7
:10064C0070470160FBE70B680360F8E7012A03D0F1
:10065C00022A03D0002070470160FBE70B6803609F
:10066C00F8E7012A03D0022A03D00020704701606A
:10067C00FBE70B680360F8E7012A03D0022A03D0DA
:10068C00002070470160FBE70B680360F8E7012A64
:10069C0003D0022A03D0002070470160FBE70B68EF
:1006AC000360F8E7012A03D0022A03D00020704728
:1006BC000160FBE70B680360F8E7012A03D0022A0C
:1006CC0003D0002070470160FBE70B680360F8E77C
:1006DC00012A03D0022A03D0002070470160FBE7F7
:1006EC000B680360F8E7012A03D0022A03D000202C
:1006FC0070470160FBE70B680360F8E7012A03D041
:10070C00022A03D0002070470160FBE70B680360EE
:10071C00F8E710B50400002C05D0236820001B68F6
:10072C0098476468F7E710BD482210B50300007ABB
:10073C005143114A002807D090681860814201D3B8
:10074C00081A5860002018721C68A14208D89268D8
:10075C000120A41AA14202D8012200201A7210BD55
:10076C00916801208C42FAD8516892688A1A5968AB
:10077C008A42F1D2F3E7C04610E000E070B50C00FD
:10078C000500006803689B689847236820001B6875
:10079C002C609847042002F07AFD094A136C9900EA
:1007AC008850084901330B4004D51021013B4942C4
:1007BC000B4301330421136402F082FD70BDC0466B
:1007CC002C0200200F000080006810B50100803062
:1007DC00F831FFF7D3FF10BD006810B50100803071
:1007EC00C831FFF7CBFF10BD006810B50100B9315F
:1007FC00FF318030FFF7C2FF10BD982310B50068A1
:10080C009B00C1188030FFF7B9FF10BD006810B510
:10081C0001008030F831FFF7B1FF10BD006810B552
:10082C0001008030F831FFF7A9FF10BD942310B5FB
:10083C000068DB00C1188030FFF7A0FF10BDC82393
:10084C0010B500689B00C1188030FFF797FF10BDF2
:10085C00F82310B500689B00C1188030FFF78EFF9D
:10086C0010BD982310B500689B00C1188030FFF7AD
:10087C0085FF10BDA22310B50068DB00C1188030C5
:10088C00FFF77CFF10BD982310B500689B00C118C2
:10089C008030FFF773FF10BDAF2310B50068DB008D
:1008AC00C1188030FFF76AFF10BD982310B500689F
:1008BC009B00C1188030FFF761FF10BDC82310B535
:1008CC0000689B00C1188030FFF758FF10BD9823BB
:1008DC0010B500689B00C1188030FFF74FFF10BDAA
:1008EC0010B50A1A02D0202102F047FD10BD10B538
:1008FC000468002C05D0236820001B689847A46866
:10090C00F7E710BD10B583680400002B02D003225A
:10091C0001009847200010BD10B504000830FFF707
:10092C00E6FF20696169431C2361FFF79BFC0029EA
:10093C0002D12000FFF7DBFF10BD000010B502480C
:10094C00FFF7EAFF10BDC04614020020416902699E
:10095C000023914201D3436101331800704700001A
:10096C00037B002B0DD00023426803738368002A9D
:10097C000ED0002B08D0936083685A60002343602C
:10098C00836070470B60F8E7044993604A60F5E7B1
:10099C000249002BF6D10B604B60EFE714020020EC
:1009AC00002310B54361FFF7DBFF10BD037B002B69
:1009BC000CD101330373064B5A684260002A00D0F5
:1009CC0090601A685860002A00D118607047C046C1
:1009DC001402002003685A1CC31802605972704735
:1009EC0010B5040014212068FFF73CFC002904D04A
:1009FC0020212000FFF7EEFFF4E7200010BD70B5BA
:100A0C00040000200D00814202D00800FFF79CFB7F
:100A1C0020606560200070BD70B504000D0000689A
:100A2C001421FFF799FB030014205843502140195F
:100A3C00FFF718FC2000216070BD0123026840689C
:100A4C00116983400B43136170470123426810B551
:100A5C001032934001680C6923430B6110BD03688D
:100A6C0010B504009869FFF7F0FF64216068FFF788
:100A7C005BFE0028F9D123689869FFF7DEFF64213B
:100A8C006068FFF751FE0028F9D110BD70B5040065
:100A9C000D000368ED001869FFF7D7FF2368606845
:100AAC00DA699B6AEB581361FFF7D9FF236860681A
:100ABC00DA699B6A5D196B681361FFF7D0FF32210D
:100ACC00A068FFF731FE0028F9D170BD70B5437BEB
:100ADC000400012B20D0002B02D0022B27D070BD9C
:100AEC004069FFF7B2FF2069FFF7A7FF206B502189
:100AFC00431C2363FFF7B6FB114B8900256ACB58C7
:100B0C00626AEB5CDB00D3181968E2695B681161FF
:100B1C00E36201236373E2E78069FFF78EFFA0694C
:100B2C00FFF793FFE369E26A1A610223F2E7806937
:100B3C00FFF783FFA069FFF788FF0023EAE7C046B1
:100B4C00803D000803684268012090409B68184073
:100B5C00431E9841C0B2704770B50600437A04003A
:100B6C000C36002B05D00023C16143723000FFF717
:100B7C001DFF3000FFF7EAFE0125002804D03000ED
:100B8C00FFF70EFF65720025280070BDF0B500263A
:100B9C008FB005AC05000C22310009A805966660E3
:100BAC0002F0EBFB0123637223726B46354FE66157
:100BBC00E760266200950194029503930494142136
:100BCC002000FFF7C9FF0028F9D12869FFF73DFF86
:100BDC006869FFF73AFFA869FFF72FFFAA6AEB696C
:100BEC00D26968461A61FFF73AFF05212000FFF72A
:100BFC00B3FF0028F9D1AA6AEB69D26968461A6179
:100C0C00FFF72DFF64212000FFF78EFD0028F9D19E
:100C1C00AA6AEB69D26968461A61FFF720FF322194
:100C2C002000FFF781FD0028F9D1AA6AEB6952690F
:100C3C0068461A61FFF713FF32212000FFF774FD9D
:100C4C000028F9D1282102A8FFF720FF0C2102A8C7
:100C5C00FFF71CFF062102A8FFF718FF012102A8CD
:100C6C00FFF714FF802102A8FFF710FF01212000DD
:100C7C00FFF772FF0028F9D108A8E760FFF770FEB4
:100C8C000FB0F0BD743C0008FEE7FEE7FEE7FEE7A0
:100C9C00FEE7FEE7044B10B51868FFF73AFD01229A
:100CAC00024B5A6110BDC046740100200004014083
:100CBC00044B10B51868FFF72CFD0222024B5A6149
:100CCC0010BDC0467C01002000040140044B10B54F
:100CDC001868FFF71EFD0422024B5A6110BDC04676
:100CEC00B401002000040140044B10B51868FFF754
:100CFC0010FD0822024B5A6110BDC046BC010020F9
:100D0C0000040140044B10B51868FFF702FD1022D7
:100D1C00024B5A6110BDC046C401002000040140C2
:100D2C00FEE7FEE7FEE7FEE7FEE7000010B5144C19
:100D3C0063699B0603D5134B1868FFF7EAFC6369DC
:100D4C005B0603D5104B1868FFF7E3FC63691B06C1
:100D5C0003D50E4B1868FFF7DCFC6369DB0503D584
:100D6C000B4B1868FFF7D5FC63699B0503D5094B42
:100D7C001868FFF7CEFCF8239B00636110BDC046DA
:100D8C0000040140CC010020D4010020DC01002033
:100D9C00E4010020EC010020FEE7FEE7FEE7FEE7A1
:100DAC00FEE7FEE7FEE7FEE7FEE7FEE7FEE7FEE70F
:100DBC00FEE7000010B5174C63695B0503D5164BB5
:100DCC001868FFF7A6FC63691B0503D5134B18685D
:100DDC00FFF79FFC6369DB0403D5114B1868FFF721
:100DEC0098FC63699B0403D50E4B1868FFF791FCC4
:100DFC0063695B0403D50C4B1868FFF78AFC6369C5
:100E0C001B0403D5094B1868FFF783FCFC231B025A
:100E1C00636110BD00040140840100208C0100209E
:100E2C00940100209C010020A4010020AC010020B2
:100E3C00FEE7FEE7044B10B51868FFF76AFC034B9E
:100E4C001A685B6810BDC046FC01002000380140E8
:100E5C00044B10B51868FFF75CFC034B1A685B6811
:100E6C0010BDC0460402002000440040044B10B5E5
:100E7C001868FFF74EFC034B1A685B6810BDC04640
:100E8C000C02002000480040054B10B51868FFF715
:100E9C0040FC0123034A51680B43536010BDC0460C
:100EAC003C01002000000240054B10B51868FFF70C
:100EBC0030FC1023034A51680B43536010BDC046ED
:100ECC004401002000000240054B10B51868FFF7E4
:100EDC0020FC8023034A5B0051680B43536010BD18
:100EEC004C01002000000240054B10B51868FFF7BC
:100EFC0010FC8023034A5B0151680B43536010BD07
:100F0C005401002000000240054B10B51868FFF793
:100F1C0000FC8023034A5B0251680B43536010BDF5
:100F2C005C01002000000240054B10B51868FFF76B
:100F3C00F0FB8023034A5B0351680B43536010BDE5
:100F4C006401002000000240054B10B51868FFF743
:100F5C00E0FB8023034A5B0451680B43536010BDD4
:100F6C006C0100200000024010221F4B19680A433C
:100F7C0007211A601A688A43110002220A431A6078
:100F8C0080221A4B520219680A431A601A6892039B
:100F9C00FCD5F0215A688A435A605A6814491140AA
:100FAC008022D2000A435A605A6812490A405A6099
:100FBC008022596852020A435A605A680E491140FD
:100FCC00E02252030A435A608022196852040A43F1
:100FDC001A601A689201FCD503215A688A431100E1
:100FEC0002220A435A60704700200240001002405F
:100FFC00FFF8FFFFFFC7FFFFFFFFC3FF10B50400A3
:10100C003030FFF77FFC20002030FFF77BFC200006
:10101C001030FFF777FC2000FFF774FC200010BDA8
:10102C0070B515000C1A04D001002200280002F043
:10103C0091F9281970BD0300F0B5093387B00193FD
:10104C00036816000293029A019B05009A18037A12
:10105C000C00002B27D013291CD814277F1A7F08CB
:10106C00D7197B18100039000393FFF739FC31199D
:10107C003A003000FFF7D4FF0299019B1431591844
:10108C000398FFF72DFC286814305021FFF7EAF87D
:10109C00296016E00800143840083018010014319B
:1010AC00FFF7BEFFEFE75021029BC91A33190293D9
:1010BC00A1420BD919003000FFF7B2FF2B681C19A5
:1010CC002C60002328002B7207B0F0BD270071188C
:1010DC003000FFF7A5FF2B68503FFF18E41B3619B3
:1010EC003000019A5036502F04D93100FFF798FF89
:1010FC00503FF5E70299FFF793FF2B68F818C4E708
:10110C0030B5050089B00A0005A8104902F042FA72
:10111C0005A901A8FFF773FC6C68019B9C4207D9D9
:10112C00E41A013C04D320212800FFF753FCF8E714
:10113C0005A903A8FFF763FC0399049A2800FFF79D
:10114C007AFF002328006B6009B030BD583F0008BF
:10115C0028220300406810B50260D96A4A1CDA6282
:10116C00FFF7CEFF10BD016810B50A00080064320D
:10117C00137866300133DBB213700078984203D2D7
:10118C000B0065331B7813701423486803601178C7
:10119C00FFF7B6FFFFF724FC10BD016810B50A007D
:1011AC000800643213786530013BDBB213700078B1
:1011BC00984203D90B0066331B78137014234868CC
:1011CC0003601178FFF79CFFFFF70AFC10BD036862
:1011DC0010B55A6ED96E01325A668A4201DD9A6E8A
:1011EC005A66142258680260596EFFF789FFFFF7A0
:1011FC00F7FB10BD036810B55A6E996E013A5A662A
:10120C008A4201DADA6E5A66142258680260596E04
:10121C00FFF776FFFFF7E4FB10BD0000036813B582
:10122C005A6ED96E01325A668A4201DD9A6E5A663E
:10123C0014225C68684622605B6E064A9B009958D3
:10124C00FFF7DDFB0099019A2000FFF7F4FEFFF792
:10125C00C7FB13BDC03E0008036813B55A6E996EE8
:10126C00013A5A668A4201DADA6E5A6614225C68CE
:10127C00684622605B6E064A9B009958FFF7BFFBDD
:10128C000099019A2000FFF7D6FEFFF7A9FB13BDCA
:10129C00C03E0008F7B505682A00A4321368002B7D
:1012AC0028D02E001424A036013B136033686868E4
:1012BC00634313210360FFF7AFFB07000E49684639
:1012CC00FFF79DFB019A00993800FFF7B4FE3368D5
:1012DC006868013B5C43336013210460FFF79CFB9F
:1012EC00040006496846FFF78AFB0099019A200022
:1012FC00FFF7A1FEF7BDC046725000085850000819
:10130C00F7B505682A00A4321368022B28D02E00EA
:10131C001424A036013313603368686863431321C7
:10132C000360FFF779FB07000E496846FFF767FB80
:10133C00019A00993800FFF77EFE33686868013324
:10134C005C43336013210460FFF766FB040006491D
:10135C006846FFF754FB0099019A2000FFF76BFEDB
:10136C00F7BDC0467250000858500008F7B5056824
:10137C002A00BC321368002B28D02E001424B83657
:10138C00013B136033686868634313210360FFF704
:10139C0043FB07000E496846FFF731FB019A0099A1
:1013AC003800FFF748FE33686868013B5C433360E4
:1013BC0013210460FFF730FB040006496846FFF771
:1013CC001EFB0099019A2000FFF735FEF7BDC046C1
:1013DC007250000858500008F7B505682A00BC3256
:1013EC001368032B28D02E001424B8360133136055
:1013FC0033686868634313210360FFF70DFB070034
:10140C000E496846FFF7FBFA019A00993800FFF77E
:10141C0012FE3368686801335C4333601321046047
:10142C00FFF7FAFA040006496846FFF7E8FA009954
:10143C00019A2000FFF7FFFDF7BDC046725000086F
:10144C0058500008002370B583608B6804000D00B1
:10145C00002B05D002229847EB68E360AB68A360D1
:10146C00200070BD002370B583608B6804000D00F4
:10147C00002B05D002229847EB68E360AB68A360B1
:10148C00200070BD836810B5002B01D101F01CFF4A
:10149C00C368984710BD10B500681830FFF7F2FF0D
:1014AC0010BD10B500684830FFF7ECFF10BD10B54B
:1014BC0000684830FFF7E6FF10BD10B500684830F3
:1014CC00FFF7E0FF10BD006818220300A4331B686F
:1014DC0010B55343C0186030FFF7D4FF10BD10B5E2
:1014EC0000684830FFF7CEFF10BD006818220300DB
:1014FC00BC331B6810B55343C0186030FFF7C2FFF4
:10150C0010BD10B500684830FFF7BCFF10BD8368F4
:10151C0010B5002B01D101F0D7FEC368984710BD60
:10152C001FB5074B69460093064B08300393064BD7
:10153C000293FFF7ECFF6846FFF7E4F905B000BD36
:10154C007D0200089D020008A5020008F0B5040009
:10155C0085B0184F184E194D694608300097039600
:10156C000295FFF7D4FF6846FFF7CCF920006946D7
:10157C001830009703960295FFF7C9FF6846FFF7EE
:10158C00C1F9200069462830009703960295FFF7B1
:10159C00BEFF6846FFF7B6F9200069463830009761
:1015AC0003960295FFF7B3FF6846FFF7ABF905B05A
:1015BC00F0BDC0467D0200089D020008A50200088F
:1015CC00F0B5040085B0184F184E194D6946083017
:1015DC00009703960295FFF79AFF6846FFF792F97A
:1015EC00200069461830009703960295FFF78FFF8D
:1015FC006846FFF787F92000694628300097039664
:10160C000295FFF784FF6846FFF77CF920006946D6
:10161C003830009703960295FFF779FF6846FFF77D
:10162C0071F905B0F0BDC0467D0200089D020008AE
:10163C00A5020008F0B5040085B0184F184E194DDE
:10164C0069460830009703960295FFF760FF6846DD
:10165C00FFF758F920006946183000970396029559
:10166C00FFF755FF6846FFF74DF920006946283013
:10167C00009703960295FFF74AFF6846FFF742F979
:10168C00200069463830009703960295FFF73FFF1C
:10169C006846FFF737F905B0F0BDC0467D0200087B
:1016AC009D020008A5020008F0B5040085B0184F93
:1016BC00184E194D69460830009703960295FFF7AE
:1016CC0026FF6846FFF71EF9200069461830009780
:1016DC0003960295FFF71BFF6846FFF713F92000EE
:1016EC0069462830009703960295FFF710FF68466D
:1016FC00FFF708F9200069463830009703960295E9
:10170C00FFF705FF6846FFF7FDF805B0F0BDC046D2
:10171C007D0200089D020008A5020008F0B5040037
:10172C0085B0184F184E194D69460830009703962E
:10173C000295FFF7ECFE6846FFF7E4F820006946D7
:10174C001830009703960295FFF7E1FE6846FFF705
:10175C00D9F8200069462830009703960295FFF7C8
:10176C00D6FE6846FFF7CEF8200069463830009761
:10177C0003960295FFF7CBFE6846FFF7C3F805B05A
:10178C00F0BDC0467D0200089D020008A5020008BD
:10179C0030B504001A4B85B003931A4B6946009080
:1017AC0008300293FFF7B3FE6846FFF7ABF86568A5
:1017BC002900280059310930FFF792F800232B60DB
:1017CC006568114A2B6001332B72A36A68461B684B
:1017DC009B009958FFF713F9019A00992800FFF71D
:1017EC002AFC646809496846FFF709F90099019ACF
:1017FC002000FFF720FCFFF7F3F805B030BDC04622
:10180C00A314000887020008C03E0008513F0008DE
:10181C0070B50400424B88B00793424B04A9049066
:10182C0008300693FFF773FE04A8FFF76BF820004F
:10183C003D4B04A907933D4B183006930494FFF7D6
:10184C0066FE04A8FFF75EF82000394B04A9079345
:10185C00384B283006930494FFF759FE04A8FFF781
:10186C0051F82000344B04A90793344B38300693BD
:10187C000494FFF74CFE04A8FFF744F800236068BB
:10188C000360E26DA16DFFF7D6FBFFF7A9F8616E5F
:10189C006068FFF735FCFFF7A3F8656828496846D0
:1018AC00FFF7ADF8019A00992800FFF7C4FB06007A
:1018BC00244D02A82900FFF7A2F8039A02993000E0
:1018CC00FFF7B9FB0600204904A8FFF798F8059A22
:1018DC0004993000FFF7AFFBFFF782F864681B49EF
:1018EC006846FFF78CF8019A00992000FFF7A3FBDC
:1018FC000400290002A8FFF782F8039A029920003D
:10190C00FFF799FB0400124904A8FFF778F8049933
:10191C00059A2000FFF78FFBFFF762F808B070BD47
:10192C002912000847050008651200085D0500082B
:10193C00730500087D050008AF1400089305000826
:10194C002C3F000858500008373F00083F3F000864
:10195C004A3F000870B50400434B88B00793434BD3
:10196C0004A9049008300693FFF7D1FD04A8FEF7F4
:10197C00C9FF20003E4B04A907933E4B1830069339
:10198C000494FFF7C4FD04A8FEF7BCFF20003A4BFB
:10199C0004A90793394B283006930494FFF7B7FD3D
:1019AC0004A8FEF7AFFF2000354B04A90793354B75
:1019BC00383006930494FFF7AAFD04A8FEF7A2FFA3
:1019CC00002360680360E26DA16DFFF734FBFFF745
:1019DC0007F82300643319786068FFF791FBFEF772
:1019EC00FFFF656828496846FFF709F8019A0099D6
:1019FC002800FFF720FB0600244D02A82900FEF763
:101A0C00FEFF039A02993000FFF715FB06002049F0
:101A1C0004A8FEF7F4FF059A04993000FFF70BFBBE
:101A2C00FEF7DEFF64681B496846FEF7E8FF019A83
:101A3C0000992000FFF7FFFA0400290002A8FEF726
:101A4C00DEFF039A02992000FFF7F5FA0400124911
:101A5C0004A8FEF7D4FF0499059A2000FFF7EBFACF
:101A6C00FEF7BEFF08B070BD73110008A905000891
:101A7C00A7110008BF050008D5050008E1050008FE
:101A8C00BB140008F70500082C3F0008585000084C
:101A9C00373F00083F3F00084A3F000870B504007C
:101AAC00424B88B00793424B04A90490083006932C
:101ABC00FFF72DFD04A8FEF725FF20003D4B04A9E0
:101ACC0007933D4B183006930494FFF720FD04A8B0
:101ADC00FEF718FF2000394B04A90793384B283028
:101AEC0006930494FFF713FD04A8FEF70BFF2000E8
:101AFC00344B04A90793344B383006930494FFF706
:101B0C0006FD04A8FEF7FEFE002360680360E26D8C
:101B1C00A16DFFF790FAFEF763FF616E6068FFF747
:101B2C00EFFAFEF75DFF656828496846FEF767FF28
:101B3C00019A00992800FFF77EFA0600244D02A8AE
:101B4C002900FEF75CFF039A02993000FFF773FA45
:101B5C000600204904A8FEF752FF059A04993000AC
:101B6C00FFF769FAFEF73CFF64681B496846FEF70D
:101B7C0046FF019A00992000FFF75DFA0400290046
:101B8C0002A8FEF73CFF039A02992000FFF753FAD4
:101B9C000400124904A8FEF732FF0499059A2000AC
:101BAC00FFF749FAFEF71CFF08B070BDDB11000807
:101BBC000D0600080112000823060008390600086B
:101BCC0043060008C7140008590600082C3F0008FB
:101BDC0058500008373F00083F3F00084A3F0008B4
:101BEC0070B505000C00FFF72DFC2800210010300B
:101BFC001031FFF727FC2800210020302031FFF79F
:101C0C0021FC2800210030303031FFF71BFC28006C
:101C1C0070BD10B504000CC90CC0FFF723FC2000EC
:101C2C0010BD000070B504001D00134B4160036033
:101C3C0011000830FFF7D4FF200029004830FFF7CF
:101C4C0011FC200004995830FFF7E3FF20000599A0
:101C5C007030FFF7DEFF200006998830FFF7D9FFC0
:101C6C0020000799A030FFF7D4FF22000023B832E0
:101C7C0020001360536070BD943C0008F0B5BFB0F9
:101C8C00079300230692F34A436083600373036156
:101C9C004361037603000260010002001933103225
:101CAC0069310400180004920593FEF719FE012116
:101CBC00E94BEA481A68EA4B0A4269D1E94DEA4A0B
:101CCC002E680E4204D1E94E296016600C2656602F
:101CDC0010219D69294399611568E54A696811408D
:101CEC00802292020A436A600125E249E24A0E68A8
:101CFC002E4204D1E14E0D60166002265660202162
:101D0C009D69DF4F294399611568DE492A681140A6
:101D1C00802292000A4301212A60DB4A15680D4299
:101D2C0004D10326D94D11602F606E600822012664
:101D3C0099690A439A61D54A156894469A6932435F
:101D4C009A614168D24A1140802292040A4342604F
:101D5C002A68D0491140802292010A432A60CE4D54
:101D6C00CE4A08351560C04D00211561C24D516039
:101D7C00556165469561059D91601562C84D11735D
:101D8C005562C84D5173D76195621163B24A1660A2
:101D9C000121C54A15680D4204D10427C34DB84E24
:101DAC001160C0C5082299690A439A61BF4A9969B2
:101DBC0015680122114399614668B5490E4080218E
:101DCC008904314341602868A9490840802189026F
:101DDC000143B74829600568B649154204D1A84D9E
:101DEC0002600D6005254D600822986902439A61D6
:101DFC000868B14902681140802292030A430260CC
:101E0C000120AE49AE4A0D68054204D19C4D0860D4
:101E1C001560062555600821986901439961106881
:101E2C00A84902681140802292040A4302600120F2
:101E3C00A549A64A0D68054204D1914D086015606C
:101E4C000725556008219869944D014399618021BB
:101E5C0012688905136828001B011B090B431360CA
:101E6C00FEF794FE2B7B002B22D101332B73984B66
:101E7C00DA686A60002A00D095609A68DD60002AF2
:101E8C0000D19D600A225A61924B093A196891431C
:101E9C001960914959600021996018680431014317
:101EAC001960022118680143196019680A431A6005
:101EBC00069BE5662367079B0EA96367449B0AA8EC
:101ECC00A367459B0E94E3672300C8330693069AD9
:101EDC00231DDA6700220433DA67803305937F4BC6
:101EEC0022AF11937E4B1CAE1093FFF7ABFA7D4BD8
:101EFC0016A919937C4B12A818931694FFF7A2FA03
:101F0C007A4B2294FB607A4B39003000BB60FFF7B0
:101F1C0099FA784B28AD3193774B2EA92800309342
:101F2C002E94FFF78FFA0AA90598FFF78BFA200079
:101F3C0012A99830FFF786FA20003100A830FFF77D
:101F4C0081FA20002900B830FFF77CFA2800FEF750
:101F5C00D9FC2EA8FEF7D6FC3000FEF7D3FC3800D7
:101F6C00FEF7D0FC12A8FEF7CDFC16A8FEF7CAFCB3
:101F7C000AA8FEF7C7FC0EA8FEF7C4FC5F4B229420
:101F8C00FB605F4B39003000BB60FFF75BFA5D4BC9
:101F9C002EA931935C4B280030932E94FFF762FAF4
:101FAC00E36F069910330793584B20000B600B001E
:101FBC000499D03059603100FFF744FA2000290011
:101FCC00E030FFF74FFA0022069B0799DA6299621C
:101FDC002800FEF797FC2EA8FEF794FC3000FEF7C5
:101FEC0091FC3800FEF78EFC05992EA8FFF7F8FD42
:101FFC00474B12A91593474B0EA814931294FFF755
:10200C0031FA06230A201693434B0C211793434BAA
:10201C0028901B93424B20001A9309231C93414B8D
:10202C0022917360404B2EAA7361404B189433611C
:10203C003F4BF8307B603F4B24947B613E4B3B61C4
:10204C003E4B6B603E4B6B613E4B2B6116AB03956D
:10205C007AE0C0467C3D0008C8000020000001402A
:10206C0000100240180100201C010020001001404B
:10207C00FFFFF0FF0C0100201001002000140140B4
:10208C00000C0140FFF0FFFF0001002004010020C4
:10209C00FFFFFFF8FF0FFFFF5C500008CC00002093
:1020AC005840000858480008BC000020C000002020
:1020BC00B0000020B4000020FFFF0FFFA4000020A0
:1020CC00A8000020FFFFFFF0980000209C000020DB
:1020DC001402002010E000E01F1C0000D9280008AA
:1020EC00BB02000811290008D10200084929000888
:1020FC00E702000881290008FD020008A128000859
:10210C0013030008D507000829030008803C0008C9
:10211C00E50700083F0300085B3F0008F5070008CF
:10212C0055030008623F00086B0300086D030008AC
:10213C006C3F00080708000877030008793F000887
:10214C008D0300088F0300080297019604990093F1
:10215C000EABFFF767FD2AA8FEF7D4FB24A8FEF709
:10216C00D1FB1EA8FEF7CEFB18A8FEF7CBFB0EA8E2
:10217C00FEF7C8FB12A8FEF7C5FB2EA8FEF73EFF24
:10218C0005992EA8FFF72CFDFE4B16A91993FE4BB3
:10219C0012A818931694FFF765F90F23FB4A1C93AA
:1021AC007260FB4A28937261FA4AFB4B326112222D
:1021BC006B60FA4B22926B61F94BFA4A2B61DC2370
:1021CC007A60F94A5B007A61F84A20003A61F84A71
:1021DC000499E2502300B933FF33C1305960FF300A
:1021EC002EA9FFF7FDFC80239B00E01812A9FFF736
:1021FC0039F984239B00E0183100FFF70AFD8A238C
:10220C009B00E0183900FFF704FD90239B00290088
:10221C00E018FFF7FEFC962300229B00E3181A60DF
:10222C0097239B00E3181A602AA8FEF76BFB24A8DF
:10223C00FEF768FB1EA8FEF765FB12A8FEF762FB13
:10224C0016A8FEF75FFB2EA8FEF7D8FE05992EA860
:10225C00FFF7C6FCD74B12A91593D74B0EA81493B6
:10226C001294FFF7FFF811230A201693D34B1C90FE
:10227C001793D34B98201B93D24BD34A1A93D34B1F
:10228C007A607360D24B1E947361D24BD24A336125
:10229C000E2322932893D14B24946B60D04B2A9419
:1022AC006B61D04B7A61D04A2B61800016AB3A61DE
:1022BC0020182EAA039502970499019600930EAB51
:1022CC00FFF7B0FC2AA8FEF71DFB24A8FEF71AFBAB
:1022DC001EA8FEF717FB18A8FEF714FB0EA8FEF7B6
:1022EC0011FB12A8FEF70EFB2EA8FEF787FE059930
:1022FC002EA8FFF775FCBD4B12A81593BC4B010023
:10230C000EA814931294FFF7ADF805231693B94B4E
:10231C00B94A1793B94B72601B93B94BB94A1A93CC
:10232C0008231C932293B84B72617B60B74BB84A5D
:10233C007B61B84B32613B6109232893B64B2EAAC3
:10234C006B60B64B18946B61B54B2B61C8239B002B
:10235C00E01816AB01960395029700930EAB049907
:10236C00FFF760FC2AA8FEF7CDFA24A8FEF7CAFAFC
:10237C001EA8FEF7C7FA18A8FEF7C4FA0EA8FEF7B7
:10238C00C1FA12A8FEF7BEFA2EA8FEF737FE059981
:10239C002EA8FFF725FCA34B0EA81593A24B129465
:1023AC00149312AB1900FFF75DF804229F4B0C211C
:1023BC0017939F4B28921B939E4B16911A939E4BEF
:1023CC009E4973607B606B609D4B1C926B619D4B57
:1023DC0071612B61F8239C49229231619B499B00CE
:1023EC0079619B49E018396116AB2EA90A0000935C
:1023FC0004990EAB0196189403950297FFF712FC03
:10240C002AA8FEF77FFA24A8FEF77CFA1EA8FEF78E
:10241C0079FA18A8FEF776FA0EA8FEF773FA12A846
:10242C00FEF770FA2EA8FEF7E9FD05992EA8FFF726
:10243C00D7FB884B2894EB60874B29003800AB60A6
:10244C00FFF710F885493000FEF7D9FAE36F844A9C
:10245C0007931C9B049908931D9B09939423DB0001
:10246C00E250E318069359609523DB00E0182EA97F
:10247C00FFF7B6FB9D23DB00E0183900FEF7F2FFF7
:10248C009F230899DB00E1500999764BE150079B9B
:10249C00069908330B66079B9B6807930B000799FB
:1024AC0018005966012383666333C3663800FEF750
:1024BC0029FA2800FEF726FA2EA8FEF79FFD0599AB
:1024CC002EA8FFF78DFB684B2894EB60674B290017
:1024DC003800AB60FEF7C6FF65493000FEF78FFA97
:1024EC00A223E06F634A06901C98DB0008901D98AD
:1024FC00E2500990E018049B07904360A320C000B1
:10250C002EA92018FFF76CFBAB20C0003900201857
:10251C00FEF7A8FFAD230898DB00E0500998564B56
:10252C000121E0500698031D07980366069802796E
:10253C00524823181A70FF22514823181970514B16
:10254C003800E3181A70FEF7DDF92800FEF7DAF907
:10255C002EA8FEF753FD05992EA8FFF741FB4A4B19
:10256C002894EB60494B29003800AB60FEF77AFFEA
:10257C0047493000FEF743FAE36F464A05931C9B2C
:10258C008AE0C0461908000899030008843F000837
:10259C00AF030008B1030008A73F0008C7030008F9
:1025AC00C9030008943F0008BB030008BD030008E2
:1025BC00A83C000829080008D3030008B73F00080E
:1025CC00E9030008EB030008D43F0008C93F0008EA
:1025DC0039080008F50300084B080008E33F000821
:1025EC005D080008210400080B0400086F080008AF
:1025FC0037040008F23F0008F83F00088108000883
:10260C004D04000863040008014000086F04000832
:10261C0065040008710400080A4000087B040008E7
:10262C007D04000893080008870400081440000883
:10263C00A50800089D04000821400008B304000808
:10264C00CB040008CD040008B5040008BF04000842
:10265C00C1040008B7080008D70400082640000889
:10266C00BC3C0008FC040000C9080008ED0400088C
:10267C0031400008D03C00086C05000074050000D7
:10268C007505000076050000DB080008030500084E
:10269C003E400008E43C00082EA907931D9B0693BE
:1026AC00AF23DB00E618E250049B7360B023DB0021
:1026BC00E018FFF795FAB823DB00E0183900FEF7B5
:1026CC00D1FEBA230799DB00E15006990F4B00228B
:1026DC00E150059B380010333366059B1B69B266CD
:1026EC0073661B23F366FEF70DF92800FEF70AF953
:1026FC002EA8FEF783FC2000FEF758F9231DD86F97
:10270C0003681B68984720003FB0F0BDD40500005B
:10271C0000230121F0B5444C444AA5440392444A99
:10272C0003AC6260434AA3601068E3602374637473
:10273C00E361E362E363E364E3653F4B084204D186
:10274C003E48116018600820586008223C4F002653
:10275C00B9691FAD0A430F21BA61186842688A43F0
:10276C00110004220A43426063661EAB1E7079237B
:10277C0004A86B441E70A666FEF718F90121314BB4
:10278C00314A1F931068314BAE606B60EE602E7453
:10279C006E74EE61EE62EE63EE64EE652C4B0842F5
:1027AC0004D1264811601860092058600822B969C4
:1027BC0000260A43F021BA61186842688A43110066
:1027CC0040220A4342606B663AAB1E70E92320A894
:1027DC006B441E70AE66FEF7E9F8FC226B469B1844
:1027EC001E701C4B3CA83B931B4B3D963C9355AB2E
:1027FC001E705623FF336B441E703E9642964696CF
:10280C004A964E965296549656945795FEF7CEF895
:10281C00124B220001933BAB009300212B0058A8D4
:10282C00FFF72CFA30BFFDE7B4F8FFFFF83C0008C7
:10283C00183D00083001002034010020000C01403C
:10284C0000100240243D000824010020443D0008F3
:10285C0028010020503D0008703D000800000020B9
:10286C0073B56B4604001A0060CC60C20A0030CA13
:10287C0030C005CB05C173BD70B505000C00FFF76A
:10288C00EFFFAB68A268AA60A360E268EB68EA603D
:10289C00E36070BD30B50023040089B008006946C0
:1028AC000293FFF7E9FF236869469C6F04A823682D
:1028BC009D68FEF7D7FD04A92000A84704A8FEF7E1
:1028CC0021F86846FEF71EF809B030BD30B500237C
:1028DC00040089B0080069460293FFF7CDFF236816
:1028EC0069461C6F04A823689D68FEF7BBFD04A90C
:1028FC002000A84704A8FEF705F86846FEF702F882
:10290C0009B030BD30B50023040089B00800694619
:10291C000293FFF7B1FF236869465C6F04A8236834
:10292C009D68FEF79FFD04A92000A84704A8FDF7A9
:10293C00E9FF6846FDF7E6FF09B030BD30B500236E
:10294C00040089B0080069460293FFF795FF2368DD
:10295C0069469C6F04A823689D68FEF783FD04A953
:10296C002000A84704A8FDF7CDFF6846FDF7CAFF75
:10297C0009B030BD30B50023040089B008006946A9
:10298C000293FFF779FF236869469C6F04A82368BC
:10299C00DD68FEF767FD04A92000A84704A8FDF731
:1029AC00B1FF6846FDF7AEFF09B030BD1FB504009E
:1029BC006846FEF757FD21006846FFF75DFF684645
:1029CC00FDF7A0FF200004B010BD10B54430FFF798
:1029DC00EDFF10BD10B53430FFF7E8FF10BD10B59A
:1029EC002430FFF7E3FF10BD10B51430FFF7DEFF06
:1029FC0010BD10B54430FFF7D9FF10BD10B5343001
:102A0C00FFF7D4FF10BD10B52430FFF7CFFF10BD7A
:102A1C0010B51430FFF7CAFF10BD10B54430FFF7E6
:102A2C00C5FF10BD10B53430FFF7C0FF10BD10B599
:102A3C002430FFF7BBFF10BD10B51430FFF7B6FF05
:102A4C0010BD836810B5002B01D0FEF71BFD10BD27
:102A5C001FB5002808D06846FEF704FD6846FFF74E
:102A6C00F0FF6846FDF74EFF05B000BD002370B5C2
:102A7C0083608B6804000D00002B05D00222984760
:102A8C00EB68E360AB68A360200070BD1FB5040069
:102A9C006846FFF7EBFF21006846FFF7E1FE029B5B
:102AAC00A268A360039B0292E2686846E36003920B
:102ABC00FDF728FF200004B010BD10B55430FFF70F
:102ACC00E5FF10BD10B55430FFF7E0FF10BD10B599
:102ADC005430FFF7DBFF10BDF7B5030006001824D8
:102AEC000200A433A0361B68316858325B1A5C4371
:102AFC001419270060370500B74200D937000022AF
:102B0C006B681A606868A74207D021686268FEF794
:102B1C0092FAFDF765FF1834F4E700681421FDF70D
:102B2C001BFB1424070044436868032F09D8202298
:102B3C00631C036003195A72FDF752FF01371434FA
:102B4C00F2E714233268132153430360FDF764FF4B
:102B5C00040005496846FDF752FF0099019A2000D0
:102B6C00FEF769FAF7BDC046585000081FB50400BF
:102B7C001B4B694603931B4B009008300293FEF7E6
:102B8C00C6FC6846FDF7BEFE2000174B6946039352
:102B9C00164B183002930094FEF7B9FC6846FDF70B
:102BAC00B1FE2000124B69460393124B283002935E
:102BBC000094FEF7ACFC6846FDF7A4FE20000E4B1B
:102BCC00694603930D4B383002930094FEF79FFC3B
:102BDC006846FDF797FE2000FFF77EFF1FBDC0463D
:102BEC00A11200086F0600080D13000885060008E6
:102BFC00D31400089B060008EB140008B10600086B
:102C0C00F7B50300060018240200BC33B8361B6865
:102C1C00316858325B1A5C43141927006037050081
:102C2C00B74200D9370000226B681A606868A74267
:102C3C0007D021686268FEF7FEF9FDF7D1FE183463
:102C4C00F4E700681421FDF787FA142407004443C5
:102C5C006868032F09D82022631C036003195A7279
:102C6C00FDF7BEFE01371434F2E71423326813214A
:102C7C0053430360FDF7D0FE040005496846FDF799
:102C8C00BEFE0099019A2000FEF7D5F9F7BDC046AB
:102C9C00585000081FB504001B4B694603931B4B8F
:102CAC00009008300293FEF732FC6846FDF72AFECE
:102CBC002000174B69460393164B1830029300946F
:102CCC00FEF725FC6846FDF71DFE2000124B6946F9
:102CDC000393124B283002930094FEF718FC6846BD
:102CEC00FDF710FE20000E4B694603930D4B383058
:102CFC0002930094FEF70BFC6846FDF703FE2000E0
:102D0C00FFF77EFF1FBDC04679130008C7060008F9
:102D1C00E5130008DD060008F7140008F3060008A8
:102D2C000F1500080907000807B583680191002BEF
:102D3C0001D100F0C9FAC36801A9984707BD00008A
:102D4C00F0B5C36E85B00400586EFDF7FBFE00288D
:102D5C0004D1636E002B07D105B0F0BD236F586E04
:102D6C00FDF7F0FE0028F4D0E36E586EFDF7EAFE96
:102D7C00002834D0E36E586EFDF7E4FE002803D033
:102D8C00236F586EFDF7DEFE236F5874E36E587494
:102D9C00636E01336366092BDED922006832117829
:102DAC0000294ED101252100157014316846FEF71B
:102DBC0059FB6846FFF745FE6846FDF7A3FD210069
:102DCC0068465431FFF752FE029B002B03D02900BA
:102DDC006846FFF7A9FF6846FDF794FDBCE7236F33
:102DEC00586EFDF7AFFE0028C4D1250021006835D0
:102DFC002E7824316846FEF735FB300026006946F4
:102E0C00FFF726FE6846FDF77DFD2F786936002F0B
:102E1C0002D0012733785F40210068463431FEF739
:102E2C0021FB69463800FFF713FE6846FDF76AFD83
:102E3C000023E26E63662B7033705374226F5374ED
:102E4C008AE70A4A934200D886E7230069331A7846
:102E5C00002A00D080E7210001321A704431684604
:102E6C00FEF700FB6846FFF7ECFDB4E7E703000054
:102E7C0008B4024B9C46043808BC60474D2D000832
:102E8C001FB50C0001006846FFF7F0FD029B002BFC
:102E9C0003D021006846FFF747FF6846FDF732FD77
:102EAC001FBD0000F0B5040085B0406EFDF74AFE72
:102EBC00002802D1A36E002B32D0606EFDF742FECB
:102ECC00051E2FD12600637C6C360700002B00D129
:102EDC003778210068462431FEF7C4FA3800270001
:102EEC006946FFF7B5FD6846FDF70CFD637C6D3751
:102EFC00002B05D13578002D02D001253B785D40A3
:102F0C00210068463431FEF7ADFA69462800FFF718
:102F1C009FFD6846FDF7F6FC0023A36633703B70FB
:102F2C0005B0F0BDA36E0133A366092BF8D92200BE
:102F3C006C32117800291FD1012521001570667C97
:102F4C0014316E406846FEF78DFA69463000FFF783
:102F5C007FFD6846FDF7D6FC2100667C543168463F
:102F6C00FFF784FD002E03D129006846FFF788FF88
:102F7C006846FDF7C7FCD3E70A4A9342D0D9220032
:102F8C006D321378002BCBD1210001331370657C8B
:102F9C0044315D406846FEF765FA69462800FFF744
:102FAC0057FDE5E7E703000008B4024B9C460438E4
:102FBC0008BC6047B12E0008F0B5040085B0406E27
:102FCC00FDF7C0FD002802D1A36E002B32D0606E3D
:102FDC00FDF7B8FD051E2FD12600637C6C3607006B
:102FEC00002B00D13778210068462431FEF73AFADD
:102FFC00380027006946FFF72BFD6846FDF782FC79
:10300C00637C6D37002B05D13578002D02D001255E
:10301C003B785D40210068463431FEF723FA69465F
:10302C002800FFF715FD6846FDF76CFC0023A3662E
:10303C0033703B7005B0F0BDA36E0133A366092B52
:10304C00F8D922006C32117800291FD101252100FA
:10305C001570667C14316E406846FEF703FA6946BB
:10306C003000FFF7F5FC6846FDF74CFC2100667C50
:10307C0054316846FFF7FAFC002E03D1290068464C
:10308C00FFF7FEFE6846FDF73DFCD3E70A4A934284
:10309C00D0D922006D321378002BCBD12100013313
:1030AC001370657C44315D406846FEF7DBF9694678
:1030BC002800FFF7CDFCE5E7E703000008B4024B5E
:1030CC009C46043808BC6047C52F0008002301212A
:1030DC0010B53E4A136053609360D3601361516125
:1030EC003B4A1068884310603A4850600420936053
:1030FC00146820431060022014682043106010688C
:10310C00014311602321344A13601171334A023197
:10311C0013601171324A013113601171314A01315E
:10312C0013601171304A1C39136011712F4A01312F
:10313C00136011712E4A0131136011712D4A013146
:10314C00136011712C4A0131136011712B4A01313A
:10315C00136011712A4A013113601171294A0B391C
:10316C0013601171284A013113601171274A013122
:10317C0013601171264A013113601171254A013116
:10318C0013601171172224490B600A7123490B60DB
:10319C000A7123490B600A7122490B600A7122499A
:1031AC000B600A71214911320B600A7120490B60C6
:1031BC000A7120490B600A711F490B600A711F4983
:1031CC000B600A711E490B600A7110BD14020020BD
:1031DC0010E000E03F190100F4010020FC01002088
:1031EC00040200200C0200203C01002044010020BD
:1031FC004C010020540100205C01002064010020DF
:10320C006C010020740100207C010020B40100201E
:10321C00BC010020C4010020CC010020D4010020FE
:10322C00DC010020E4010020EC01002084010020DE
:10323C008C010020940100209C010020A40100209E
:10324C00AC010020002103E00B4B5B5843500431D0
:10325C000A480B4B42189A42F6D30A4A02E0002362
:10326C0042F8043B084B9A42F9D3FDF77DFE00F07F
:10327C0039F8FFF74DFA7047EC51000800000020B8
:10328C007C0000207C00002084020020FEE710B5AA
:10329C00041E00D10134200000F048F8002807D1AA
:1032AC0000F008F8002801D100F015F88047F2E78B
:1032BC0010BD0000014B18687047C046700200201A
:1032CC0010B500F004F810BD10B500F004F810B5FE
:1032DC0000F036F810BD10B5062000F03BF90120C7
:1032EC0000F0B0FC70B500260C4D0D4C641BA41006
:1032FC00A64209D1002600F0A7FC0A4D0A4C641B1B
:10330C00A410A64205D170BDB300EB589847013606
:10331C00EEE7B300EB5898470136F2E7E0510008AE
:10332C00E0510008E0510008E851000810B5034BCB
:10333C000100186800F074F810BDC0461800002099
:10334C0010B5034B0100186800F020F810BDC04602
:10335C001800002010B5884202D98B18984203D36C
:10336C00002307E08B5C8354013AFBD210BDCC5C8C
:10337C00C45401339A42FAD1F8E70300121893426D
:10338C0000D1704719700133F9E7000070B50500E2
:10339C00002910D00C1F2368002B00DAE418280039
:1033AC0000F018F91D4A1368002B05D163601460F6
:1033BC00280000F010F970BDA34209D921686018EB
:1033CC008342F3D118685B6841182160EEE7130063
:1033DC005A68002A01D0A242F9D919685818A0429B
:1033EC000BD120680918581819608242E0D1106876
:1033FC005268411819605A60DAE7A04202D90C23CE
:10340C002B60D5E721686018824203D1106852689E
:10341C004118216062605C60CAE7C04674020020FB
:10342C00032370B5CD1C9D43083506000C2D1ED210
:10343C000C25A9421DD8300000F0CCF8254A1468A0
:10344C002100002919D1244C2368002B03D1300012
:10345C0000F044F820602900300000F03FF8431CD5
:10346C002BD10C233000336000F0B5F803E0002DB5
:10347C00DFDA0C233360002070BD0B685B1B19D4A2
:10348C000B2B03D90B60CC18256003E04B688C42E6
:10349C000DD11360300000F09EF8200007220B3095
:1034AC00231D9043C31AE7D05A42E250E4E763600D
:1034BC000C00EFE70C004968C3E70323C41C9C43D2
:1034CC00A042E1D0211A300000F008F8431CDBD1F7
:1034DC00C7E7C0467402002078020020002370B5B4
:1034EC00064C05000800236000F09EFB431C03D132
:1034FC002368002B00D02B6070BDC04680020020DA
:10350C0070B504000D001F2904D916230360012097
:10351C00404270BD436C002B04D08A009B181A6883
:10352C00002A08D1200000F031F82A000100200008
:10353C0000F01AF8EDE70020012AEAD0511C03D163
:10354C00162301302360E4E7002428001C60904718
:10355C002000DEE710B5034B01001868FFF7D0FF21
:10356C0010BDC04618000020002370B5064C0500A5
:10357C0008001100236000F04FFB431C03D12368AB
:10358C00002B00D02B6070BD8002002010B500F025
:10359C003BFB10BD0EB400B50B499CB01DAB0290AB
:1035AC000690079104910948094904CB05910068DC
:1035BC0002A9019300F072F80023029A13701CB058
:1035CC0008BC03B01847C046FFFFFF7F180000205F
:1035DC000802FFFF70477047F0B58E6885B0070092
:1035EC000C00039201939E423CD890238A89DB0005
:1035FC001A4234D00325096923685B1A0293636964
:10360C0002985D43EB0F5D19019B6D1001331B1884
:10361C00AB4200D91D00530532D529003800FFF705
:10362C00FFFE061E09D10C233B6040230120A2891A
:10363C0040421343A38105B0F0BD029A216900F00A
:10364C00ACFAA389144A1A4080231343A381029B2A
:10365C002661F61826606561019EED1AA560019B36
:10366C009E4200D9019E320003992068FFF772FE3A
:10367C00A36800209B1BA36023689E192660DAE7D1
:10368C002A00380000F092FA061EE0D121693800B9
:10369C00FFF77CFEC7E7C0467FFBFFFFF0B5A1B08C
:1036AC0003901D008B890F0016001B0611D50B69AA
:1036BC00002B0ED14021FFF7B3FE38603861002893
:1036CC0005D10C23039A0138136021B0F0BD4023BF
:1036DC007B61002308AC6361203363761033A376DF
:1036EC00079535002B78002B01D0252B46D1AB1B31
:1036FC0005930CD0320039000398FFF76DFF431C83
:10370C0000D1AEE06269059B9446634463612B78FB
:10371C00002B00D1A5E0012200235242626004A9D3
:10372C00543252186E1C2360E360A3601370A365BF
:10373C0031780522534800F025FA751C00281FD15A
:10374C002268D30604D5532304A95B1820211970D1
:10375C00130704D5532304A95B182B211970337854
:10376C002A2B16D0350000210A20E3682A786E1C1B
:10377C00303A092A4ED9002918D010E00135B1E7AA
:10378C00404B2268C01A01238340134323602E0050
:10379C00CEE7079B191D1B680791002B01DB0B93D0
:1037AC0004E05B42E3600223134323602B782E2B4F
:1037BC000AD16B782A2B35D1079B02351A1D1B6851
:1037CC000792002B2BDB09932F4E29780322300014
:1037DC0000F0D8F9002806D04023801B83402268D3
:1037EC000135134323602978062228486E1C217664
:1037FC0000F0C8F900283CD0254B002B25D107221E
:10380C00079B07339343083307936369049A9B1808
:10381C00636166E7434301219B183500A6E701234A
:10382C005B42D0E700230A201A0001356360297837
:10383C006E1C3039092903D9002BC5D00992C3E776
:10384C004243012352183500F1E707AB00933A00CD
:10385C00104B21000398AFF300800490049B0133BC
:10386C00D3D1BB890D985B0600D42EE701204042D2
:10387C002BE707AB00933A00064B2100039800F0AE
:10388C0079F8EAE7AC510008B2510008B6510008CB
:10389C0000000000E5350008F7B5150001938A68B3
:1038AC000B6900900C00934200DA130022002B608D
:1038BC0043321278002A01D001332B6023689B0617
:1038CC0002D52B6802332B60062723681F4027D0B4
:1038DC00230043331B785A1E93412268920630D43E
:1038EC002200019943320098089EB047431C25D012
:1038FC00062320682A68E16803400025042B03D1C5
:10390C008D1AEB43DB171D40A3682269934201DD3E
:10391C009B1AED180027BD4220D1002010E0013782
:10392C00E3682A689B1ABB42D2DD220001231932BC
:10393C0001990098089EB047431CF0D101204042E9
:10394C00FEBD3020E1184331087021005A1C45316E
:10395C000978A218433202331170C1E72200012307
:10396C001A3201990098089EB047431CE6D00137E3
:10397C00D1E70000F0B589B004920A0043320593F8
:10398C00039002920A7E0C000E9B6E2A00D186E0F8
:10399C001FD8632A33D008D8002A00D18CE0582ACB
:1039AC004DD0250042352A7030E0642A01D0692AB6
:1039BC00F7D1196825680A1D280629D508681A60E8
:1039CC00002803DA2D23029A404213706B4E0A270B
:1039DC004FE0732A74D008D86F2A1FD0702AE0D118
:1039EC00202209680A43226003E0752A16D0782A3F
:1039FC00D7D12200782145321170614E22E025008A
:103A0C001A684235111D196013682B70012365E08B
:103A1C0008681A606906D3D500B2D1E71968256821
:103A2C00081D186008682E0605D5544E08276F2A05
:103A3C001BD00A2719E06D06F7D580B2F5E74531A2
:103A4C004E4E0A7018682268011D00681960150630
:103A5C0021D5D30702D520231A4322601027002832
:103A6C0003D1202322689A4322602300002243338F
:103A7C001A706368A360002B58DB04222168914301
:103A8C002160002854D1029D002B5AD02500337898
:103A9C0042352B7055E05506DBD580B2D9E71A6854
:103AAC000D68101D4969186013682E0601D5196040
:103ABC0002E06D06FBD519800023029D23614FE0C7
:103ACC001A68111D1960156800216268280000F041
:103ADC0059F8002801D0401B606063682361002303
:103AEC00029A13703CE023692A0004990398059DFF
:103AFC00A847431C3ED023689B0715D4079BE0685E
:103B0C00984239DA180037E022000123193204995F
:103B1C000398059EB047431C2CD00135E368079AE7
:103B2C009B1AAB42F0DCE9E70025F7E70028ADD0A3
:103B3C00029D3900FCF796FB735C013D2B7000284D
:103B4C00F7D1082F09D12368DB0706D563682269F2
:103B5C00934202DC3023013D2B70029B5B1B2361E3
:103B6C00059B07AA00932100049B0398FFF794FE82
:103B7C00431CB8D10120404209B0F0BDBD51000832
:103B8C00CE510008C9B28218904201D10020704772
:103B9C0003788B42FBD00130F6E7002310B59A4234
:103BAC0000D110BDCC5CC4540133F8E7F8B5070064
:103BBC000D001600002905D11100FFF731FC04009F
:103BCC002000F8BD002A03D1FFF7E0FB3400F7E733
:103BDC0000F012F82C00B042F2D231003800FFF79E
:103BEC001FFC041EECD029003200FFF7D6FF290081
:103BFC003800FFF7CBFBE3E70B1F1B68181F002BEC
:103C0C0001DA0B58C018704758220120014B404272
:103C1C001A6070478002002058220120014B40425C
:103C2C001A60704780020020044A1368002B00D1F0
:103C3C00034B1818106018007047C0467C02002017
:103C4C0088020020FEE7C046F8B5C046F8BC08BCA8
:103C5C009E467047F8B5C046F8BC08BC9E467047F7
:103C6C0000000000000000007F02000800000000BF
:103C7C00000000009D1700085D1100082D150008BC
:103C8C000000000000000000A12C00082105000825
:103C9C00291700080000000000000000792B000824
:103CAC001F050008B5160008000000000000000009
:103CBC00A91A00081D0500084116000800000000A4
:103CCC0000000000611900081B050008CD15000854
:103CDC0000000000000000001D1800081905000875
:103CEC00591500080000000000000000F52900082C
:103CFC00EB290008E1290008D7290008C72A000889
:103D0C00B12E0008FCFFFFFF00000000B52F0008DB
:103D1C0000000000000000001D2A0008132A000803
:103D2C00092A0008FF290008D12A0008C52F00081D
:103D3C00FCFFFFFF00000000C9300008000000007D
:103D4C0000000000452A00083B2A0008312A000820
:103D5C00272A0008DB2A00084D2D0008FCFFFFFF76
:103D6C00000000007D2E0008000000000000000094
:103D7C002305000800000000010000000200000004
:103D8C000300000004000000050000000600000015
:103D9C000700000008000000090000000A000000F5
:103DAC000B0000000C0000000D0000000E000000D5
:103DBC000F000000100000001100000012000000B5
:103DCC001300000028000000290000002A00000059
:103DDC002B0000002C0000002D0000002E00000025
:103DEC002F00000030000000310000003200000005
:103DFC0033000000340000003500000036000000E5
:103E0C003700000038000000390000003A000000C4
:103E1C003B0000001400000015000000160000001C
:103E2C001700000018000000190000001A00000024
:103E3C001B0000001C0000001D0000001E00000004
:103E4C001F000000200000002100000022000000E4
:103E5C0023000000240000002500000026000000C4
:103E6C00270000003C0000003D0000003E00000068
:103E7C003F00000040000000410000004200000034
:103E8C004300000044000000450000004600000014
:103E9C004700000048000000490000004A000000F4
:103EAC004B0000004C0000004D0000004E000000D4
:103EBC004F00000068500008745000088050000843
:103ECC008C50000898500008A4500008B05000080E
:103EDC00BC500008C8500008D4500008E05000083E
:103EEC00EC500008F850000804510008105100086C
:103EFC001C5100082851000834510008405100089A
:103F0C004C510008585100086451000870510008C9
:103F1C007C5100088851000894510008A0510008F9
:103F2C00CDE0E6E0F2E8E520202000D1EEF5F0E06F
:103F3C00ED2E00D3E4E5F0E6E0EDE8E52000CEF26E
:103F4C00ECE5EDE000F1F7E5F23A2000256400C065
:103F5C00E2E0F0E8E800CDE0F0E0E1EEF2EAE000CB
:103F6C00CAEEEDF4E8E3F3F0E0F6E8FF00CBEEE3A5
:103F7C0020F0E0E1EEF2FB00CDE5F0E0E1EEF7E859
:103F8C00E520EBE0ECEFFB00CEF8E8E1EAE820EB13
:103F9C00E8EDE8E820525334383500D1E1F0EEF189
:103FAC00E8F2FC20E0E2E0F0E8E800CFF0EEF1EC23
:103FBC00EEF2F020EAEEEDF42E2DE8E800D2F0E57A
:103FCC00E2EEE3E020D3D400CDE0F1F2F0EEE9EA4A
:103FDC00E020F1E5F2E800D2E5F52E20EDE0F1F27B
:103FEC00F0EEE9EAE800C0E4F0E5F100D1EAEEF029
:103FFC00EEF1F2FC00CFF0EEE2E5F0EAE000D1F2F7
:10400C00EEEF20E1E8F2FB00CDE0E8ECE5EDEEE2CE
:10401C00E0EDE8E500F2F3E4F300F3F0EEE2E5EDB9
:10402C00FC20D3D400C0E4F0E5F1206D6F64627520
:10403C007300CDE0E8ECE5EDEEE2E0EDE8E520F331
:10404C00F1F2E0EDEEE2EAE8000000000000F00022
:10405C000000F0000000F0001000E0000000F00094
:10406C002000D0000000F0003000C0000000F00084
:10407C004000B0000000F0005000A0000000F00074
:10408C00600090000000F000700080000000F00064
:10409C00800070000000F000900060000000F00054
:1040AC00A00050000000F000B00040000000F00044
:1040BC00C00030000000F000D00020000000F00034
:1040CC00E00010000000F000F00000001000E00024
:1040DC000000F0001000E0001000E0001000E00014
:1040EC002000D0001000E0003000C0001000E00004
:1040FC004000B0001000E0005000A0001000E000F4
:10410C00600090001000E000700080001000E000E3
:10411C00800070001000E000900060001000E000D3
:10412C00A00050001000E000B00040001000E000C3
:10413C00C00030001000E000D00020001000E000B3
:10414C00E00010001000E000F00000002000D000A3
:10415C000000F0002000D0001000E0002000D00093
:10416C002000D0002000D0003000C0002000D00083
:10417C004000B0002000D0005000A0002000D00073
:10418C00600090002000D000700080002000D00063
:10419C00800070002000D000900060002000D00053
:1041AC00A00050002000D000B00040002000D00043
:1041BC00C00030002000D000D00020002000D00033
:1041CC00E00010002000D000F00000003000C00023
:1041DC000000F0003000C0001000E0003000C00013
:1041EC002000D0003000C0003000C0003000C00003
:1041FC004000B0003000C0005000A0003000C000F3
:10420C00600090003000C000700080003000C000E2
:10421C00800070003000C000900060003000C000D2
:10422C00A00050003000C000B00040003000C000C2
:10423C00C00030003000C000D00020003000C000B2
:10424C00E00010003000C000F00000004000B000A2
:10425C000000F0004000B0001000E0004000B00092
:10426C002000D0004000B0003000C0004000B00082
:10427C004000B0004000B0005000A0004000B00072
:10428C00600090004000B000700080004000B00062
:10429C00800070004000B000900060004000B00052
:1042AC00A00050004000B000B00040004000B00042
:1042BC00C00030004000B000D00020004000B00032
:1042CC00E00010004000B000F00000005000A00022
:1042DC000000F0005000A0001000E0005000A00012
:1042EC002000D0005000A0003000C0005000A00002
:1042FC004000B0005000A0005000A0005000A000F2
:10430C00600090005000A000700080005000A000E1
:10431C00800070005000A000900060005000A000D1
:10432C00A00050005000A000B00040005000A000C1
:10433C00C00030005000A000D00020005000A000B1
:10434C00E00010005000A000F000000060009000A1
:10435C000000F000600090001000E0006000900091
:10436C002000D000600090003000C0006000900081
:10437C004000B000600090005000A0006000900071
:10438C006000900060009000700080006000900061
:10439C008000700060009000900060006000900051
:1043AC00A000500060009000B00040006000900041
:1043BC00C000300060009000D00020006000900031
:1043CC00E000100060009000F00000007000800021
:1043DC000000F000700080001000E0007000800011
:1043EC002000D000700080003000C0007000800001
:1043FC004000B000700080005000A00070008000F1
:10440C0060009000700080007000800070008000E0
:10441C0080007000700080009000600070008000D0
:10442C00A000500070008000B000400070008000C0
:10443C00C000300070008000D000200070008000B0
:10444C00E000100070008000F000000080007000A0
:10445C000000F000800070001000E0008000700090
:10446C002000D000800070003000C0008000700080
:10447C004000B000800070005000A0008000700070
:10448C006000900080007000700080008000700060
:10449C008000700080007000900060008000700050
:1044AC00A000500080007000B00040008000700040
:1044BC00C000300080007000D00020008000700030
:1044CC00E000100080007000F00000009000600020
:1044DC000000F000900060001000E0009000600010
:1044EC002000D000900060003000C0009000600000
:1044FC004000B000900060005000A00090006000F0
:10450C0060009000900060007000800090006000DF
:10451C0080007000900060009000600090006000CF
:10452C00A000500090006000B000400090006000BF
:10453C00C000300090006000D000200090006000AF
:10454C00E000100090006000F0000000A00050009F
:10455C000000F000A00050001000E000A00050008F
:10456C002000D000A00050003000C000A00050007F
:10457C004000B000A00050005000A000A00050006F
:10458C0060009000A000500070008000A00050005F
:10459C0080007000A000500090006000A00050004F
:1045AC00A0005000A0005000B0004000A00050003F
:1045BC00C0003000A0005000D0002000A00050002F
:1045CC00E0001000A0005000F0000000B00040001F
:1045DC000000F000B00040001000E000B00040000F
:1045EC002000D000B00040003000C000B0004000FF
:1045FC004000B000B00040005000A000B0004000EF
:10460C0060009000B000400070008000B0004000DE
:10461C0080007000B000400090006000B0004000CE
:10462C00A0005000B0004000B0004000B0004000BE
:10463C00C0003000B0004000D0002000B0004000AE
:10464C00E0001000B0004000F00000004000B0009E
:10465C001000E000A00050000000F0004000B0008E
:10466C002000D000A00050001000E000E00010007E
:10467C000000F0004000B0005000A000A00050006E
:10468C003000C000A00050004000B000A00050005E
:10469C005000A000A0005000600090004000B0004E
:1046AC00B0004000A0005000700080004000B0003E
:1046BC00D00020004000B000800070004000B0002E
:1046CC00F0000000A0005000800070005000A0001E
:1046DC000000F0004000B0003000C0005000A0000E
:1046EC004000B000A000500090006000A0005000FE
:1046FC00A00050005000A00080007000E0001000EE
:10470C001000E000A0005000B0004000A0005000DD
:10471C00C0003000E00010002000D000A0005000CD
:10472C00D0002000A0005000E0001000A0005000BD
:10473C00D0002000A0005000F0000000B0004000AD
:10474C000000F000B00040001000E000600090009D
:10475C001000E000B00040002000D000B00040008D
:10476C003000C000B00040004000B000E00010007D
:10477C003000C000600090005000A000B00040006D
:10478C0060009000B000400070008000B00040005D
:10479C0080007000B000400090006000B00040004D
:1047AC00A0005000B0004000B0004000B00040003D
:1047BC00C0003000B0004000D0002000600090002D
:1047CC00F0000000B0004000E0001000700080001D
:1047DC000000F000600090003000C000B00040000D
:1047EC00F00000007000800090006000E0001000FD
:1047FC004000B0007000800080007000E0001000ED
:10480C005000A000C00030000000F000C0003000DC
:10481C001000E000E000100060009000C0003000CC
:10482C002000D000C00030003000C000C0003000BC
:10483C004000B000C00030005000A000C0003000AC
:10484C0060009000C0003000700080000000F0009C
:10485C000000F0000000F0001000E0000000F0008C
:10486C002000D0000000F0003000C0000000F0007C
:10487C004000B0000000F0005000A0000000F0006C
:10488C00600090000000F000700080000000F0005C
:10489C00800070000000F000900060000000F0004C
:1048AC00A00050000000F000B00040000000F0003C
:1048BC00C00030000000F000D00020000000F0002C
:1048CC00E00010000000F000F00000001000E0001C
:1048DC000000F0001000E0001000E0001000E0000C
:1048EC002000D0001000E0003000C0001000E000FC
:1048FC004000B0001000E0005000A0001000E000EC
:10490C00600090001000E000700080001000E000DB
:10491C00800070001000E000900060001000E000CB
:10492C00A00050001000E000B00040001000E000BB
:10493C00C00030001000E000D00020001000E000AB
:10494C00E00010001000E000F00000002000D0009B
:10495C000000F0002000D0001000E0002000D0008B
:10496C002000D0002000D0003000C0002000D0007B
:10497C004000B0002000D0005000A0002000D0006B
:10498C00600090002000D000700080002000D0005B
:10499C00800070002000D000900060002000D0004B
:1049AC00A00050002000D000B00040002000D0003B
:1049BC00C00030002000D000D00020002000D0002B
:1049CC00E00010002000D000F00000003000C0001B
:1049DC000000F0003000C0001000E0003000C0000B
:1049EC002000D0003000C0003000C0003000C000FB
:1049FC004000B0003000C0005000A0003000C000EB
:104A0C00600090003000C000700080003000C000DA
:104A1C00800070003000C000900060003000C000CA
:104A2C00A00050003000C000B00040003000C000BA
:104A3C00C00030003000C000D00020003000C000AA
:104A4C00E00010003000C000F00000004000B0009A
:104A5C000000F0004000B0001000E0004000B0008A
:104A6C002000D0004000B0003000C0004000B0007A
:104A7C004000B0004000B0005000A0004000B0006A
:104A8C00600090004000B000700080004000B0005A
:104A9C00800070004000B000900060004000B0004A
:104AAC00A00050004000B000B00040004000B0003A
:104ABC00C00030004000B000D00020004000B0002A
:104ACC00E00010004000B000F00000005000A0001A
:104ADC000000F0005000A0001000E0005000A0000A
:104AEC002000D0005000A0003000C0005000A000FA
:104AFC004000B0005000A0005000A0005000A000EA
:104B0C00600090005000A000700080005000A000D9
:104B1C00800070005000A000900060005000A000C9
:104B2C00A00050005000A000B00040005000A000B9
:104B3C00C00030005000A000D00020005000A000A9
:104B4C00E00010005000A000F00000006000900099
:104B5C000000F000600090001000E0006000900089
:104B6C002000D000600090003000C0006000900079
:104B7C004000B000600090005000A0006000900069
:104B8C006000900060009000700080006000900059
:104B9C008000700060009000900060006000900049
:104BAC00A000500060009000B00040006000900039
:104BBC00C000300060009000D00020006000900029
:104BCC00E000100060009000F00000007000800019
:104BDC000000F000700080001000E0007000800009
:104BEC002000D000700080003000C00070008000F9
:104BFC004000B000700080005000A00070008000E9
:104C0C0060009000700080007000800070008000D8
:104C1C0080007000700080009000600070008000C8
:104C2C00A000500070008000B000400070008000B8
:104C3C00C000300070008000D000200070008000A8
:104C4C00E000100070008000F00000008000700098
:104C5C000000F000800070001000E0008000700088
:104C6C002000D000800070003000C0008000700078
:104C7C004000B000800070005000A0008000700068
:104C8C006000900080007000700080008000700058
:104C9C008000700080007000900060008000700048
:104CAC00A000500080007000B00040008000700038
:104CBC00C000300080007000D00020008000700028
:104CCC00E000100080007000F00000009000600018
:104CDC000000F000900060001000E0009000600008
:104CEC002000D000900060003000C00090006000F8
:104CFC004000B000900060005000A00090006000E8
:104D0C0060009000900060007000800090006000D7
:104D1C0080007000900060009000600090006000C7
:104D2C00A000500090006000B000400090006000B7
:104D3C00C000300090006000D000200090006000A7
:104D4C00E000100090006000F0000000A000500097
:104D5C000000F000A00050001000E000A000500087
:104D6C002000D000A00050003000C000A000500077
:104D7C004000B000A00050005000A000A000500067
:104D8C0060009000A000500070008000A000500057
:104D9C0080007000A000500090006000A000500047
:104DAC00A0005000A0005000B0004000A000500037
:104DBC00C0003000A0005000D0002000A000500027
:104DCC00E0001000A0005000F0000000B000400017
:104DDC000000F000B00040001000E000B000400007
:104DEC002000D000B00040003000C000B0004000F7
:104DFC004000B000B00040005000A000B0004000E7
:104E0C0060009000B000400070008000B0004000D6
:104E1C0080007000B000400090006000B0004000C6
:104E2C00A0005000B0004000B0004000B0004000B6
:104E3C00C0003000B0004000D0002000B0004000A6
:104E4C00E0001000B0004000F0000000C000300096
:104E5C000000F000C00030001000E000C000300086
:104E6C002000D000C00030003000C000C000300076
:104E7C004000B000C00030005000A000C000300066
:104E8C0060009000C000300070008000C000300056
:104E9C0080007000C000300090006000C000300046
:104EAC00A0005000C0003000B0004000C000300036
:104EBC00C0003000C0003000D0002000C000300026
:104ECC00E0001000C0003000F0000000D000200016
:104EDC000000F000D00020001000E000D000200006
:104EEC002000D000D00020003000C000D0002000F6
:104EFC004000B000D00020005000A000D0002000E6
:104F0C0060009000D000200070008000D0002000D5
:104F1C0080007000D000200090006000D0002000C5
:104F2C00A0005000D0002000B0004000D0002000B5
:104F3C00C0003000D0002000D0002000D0002000A5
:104F4C00E0001000D0002000F0000000E000100095
:104F5C000000F000E00010001000E000E000100085
:104F6C002000D000E00010003000C000E000100075
:104F7C004000B000E00010005000A000E000100065
:104F8C0060009000E000100070008000E000100055
:104F9C0080007000E000100090006000E000100045
:104FAC00A0005000E0001000B0004000E000100035
:104FBC00C0003000E0001000D0002000E000100025
:104FCC00E0001000E0001000F0000000F000000015
:104FDC000000F000F00000001000E000F000000005
:104FEC002000D000F00000003000C000F0000000F5
:104FFC004000B000F00000005000A000F0000000E5
:10500C0060009000F000000070008000F0000000D4
:10501C0080007000F000000090006000F0000000C4
:10502C00A0005000F0000000B0004000F0000000B4
:10503C00C0003000F0000000D0002000F0000000A4
:10504C00E0001000F0000000F00000007E00000006
:10505C000000000000000000D90A0008D3CEC22DC9
:10506C00CFC22D3120202000D3CEC22DCFC22D3562
:10507C0020202000D3CEC22DCFC22D3130202000D5
:10508C00D3CEC22DCFC22D3135202000D3CEC22D90
:10509C00CFC22D3330202000D3CEC22DCFC22D3520
:1050AC0030202000D3CEC22DCFC22D313030200085
:1050BC00D3CEC22DCFC22D3135302000D3CEC22D50
:1050CC00CFC22D3230302000D3CEC22DCFC22D33E3
:1050DC0030302000D3CEC22DCFC22D353030200041
:1050EC00D3CEC22DCFC22D3730302000D3CEC22D1F
:1050FC00CFC22D3130303000D3CEC22DCFC22D31A6
:10510C0035303000D3CEC22DD1C22D352020200019
:10511C00D3CEC22DD1C22D3130202000D3CEC22D02
:10512C00D1C22D3135202000D3CEC22DD1C22D338A
:10513C0030202000D3CEC22DD1C22D3530202000FE
:10514C00D3CEC22DD1C22D3130302000D3CEC22DC2
:10515C00D1C22D3135302000D3CEC22DD1C22D324B
:10516C0030302000D3CEC22DD1C22D3330302000B0
:10517C00D3CEC22DD1C22D3530302000D3CEC22D8E
:10518C00D1C22D3730302000D3CEC22DD1C22D311B
:10519C0030303000D3CEC22DD1C22D31353030005D
:1051AC00232D302B2000686C4C0065666745464704
:1051BC000030313233343536373839414243444587
:1051CC0046003031323334353637383961626364F6
:0451DC006566000004
:0851E00035010008D930000878
:0451E8000D010008AD
:1051EC00000000000100370028000000050000014D
:1051FC0000000000140000001C0000200000000053
:10520C000000000000000000000000000000000092
:10521C000000000000000000000000000000000082
:10522C000000000000000000000000000000000072
:10523C000000000000000000000000000000000062
:10524C000000000000000000000000000000000052
:0C525C0000000000000000000000000046
:04000005080032516C
:00000001FF
