:020000040800F2
:100000000050002011060008590600085906000893
:1000100059060008590600085906000800000000AB
:100020000000000000000000000000005906000869
:10003000590600080000000059060008B101000838
:100040005906000859060008590600085906000814
:100050005906000859060008590600085906000804
:1000600059060008590600085906000859060008F4
:1000700059060008590600085906000859060008E4
:1000800059060008590600085906000859060008D4
:1000900059060008590600085906000859060008C4
:1000A00059060008590600085906000859060008B4
:1000B00059060008590600085906000859060008A4
:1000C0005906000859060008590600085906000894
:1000D0005906000859060008590600085906000884
:1000E00059060008590600085906000800000000DB
:1000F0000000000000000000000000000000000000
:0C01000000000000000000005FF808F1A3
:10010C0010B5064C2378002B07D1054B002B02D0E1
:10011C000448AFF300800123237010BD00000020C1
:10012C0000000000B4060008044B10B5002B03D0EF
:10013C0003490448AFF3008010BDC0460000000026
:10014C0004000020B4060008436901334361704782
:10015C0001231A008A4010B58468224205D0103160
:10016C008B4002691343036110BD03691A4302619A
:10017C00FAE70000054B1A00FC3251684018CB1806
:10018C005060FF2800D90023180070471C00002085
:10019C0003684268012090409B681840431E9841B8
:1001AC00C0B27047054B10B51C68002C05D02368F5
:1001BC0020001B689847A468F7E710BD20010020B9
:1001CC00416902690023914201D343610133180054
:1001DC0070470000037B002B0DD000234268037393
:1001EC008368002A0ED0002B08D0936083685A6075
:1001FC0000234360836070470B60F8E70449936009
:10020C004A60F5E70249002BF6D10B604B60EFE733
:10021C002001002010B50400E37E0069002B0ED0F5
:10022C00FFF7B6FF00280ED02000FFF7D3FF002306
:10023C00636123766376A3760133E36110BDFFF728
:10024C00A7FF0028F0D0636901336361F6E7000073
:10025C00037B002B0CD101330373064B5A684260AD
:10026C00002A00D090601A685860002A00D11860EB
:10027C007047C04620010020030010B5DB7E0069EA
:10028C00002B06D0FFF784FF030001205840C0B2BA
:10029C0010BDFFF77DFFFBE710B504000068FFF70A
:1002AC00EBFF00280AD06068FFF7E6FF002805D0B6
:1002BC002068FFF7CDFF6068FFF7CAFF23680020B6
:1002CC005A69092A0CDD62685169092908DD197E11
:1002DC00814202D0117E814202D101201076187623
:1002EC0010BD000010221F4B19680A4307211A6029
:1002FC001A688A43110002220A431A6080221A4BA0
:10030C00520219680A431A601A689203FCD5F0214C
:10031C005A688A435A605A68144911408022D200A4
:10032C000A435A605A6812490A405A608022596836
:10033C0052020A435A605A680E491140E022520395
:10034C000A435A608022196852040A431A601A68D8
:10035C009201FCD503215A688A43110002220A43F8
:10036C005A6070470020024000100240FFF8FFFF67
:10037C00FFC7FFFFFFFFC3FFF0B50820A9B0FFF7D1
:10038C00F9FE0822864E874D06604260AB69070075
:10039C001343AB617368073293431A00042313436E
:1003AC00736028200024FFF7E5FE01217E4B44609A
:1003BC008460047303600761446104764476847638
:1003CC00C476C1610462446215AB043006C806C32E
:1003DC005C206B461B181C70734B0C3014936B46D3
:1003EC001B181C706B4601301B181C706B460130BF
:1003FC001B181C706B46012101301B1863381C70D4
:10040C001B91189719941C941D94FFF7B3FE0923A4
:10041C0008220660436007004020AB691343AB61C0
:10042C007368E8329343034373601838FFF7A2FEF6
:10043C0001215D4B44608460047303600761446177
:10044C00047644768476C476C161046244621FAB40
:10045C00043006C806C384206B461B181C70524B14
:10046C000C301E936B461B181C706B4601301B180E
:10047C001C706B4601301B181C706B46012101303F
:10048C001B188B381C702297239425912694279443
:10049C00FFF770FE072310278022444992050AC0FB
:1004AC00AB6908203B43AB610B681B011B09134371
:1004BC000B60FFF75FFE06233C493D4A0AC0AB695F
:1004CC0008201F43AF610B680EAF1A4080239B04BA
:1004DC0013430B60FFF74EFE0C23082206604360AB
:1004EC00AB691343AB617368324A334D1A408023B6
:1004FC009B0213437360FA2302AE300008355B0095
:10050C007460B46034733461029574613361FFF7C5
:10051C009FFEC82308A84460846004730461089596
:10052C0044610361FFF794FE64237C60BC603C7300
:10053C0038003C610E957C613B61FFF789FE4023DE
:10054C001C001A4D14AB009368461EAB0193FFF7C9
:10055C00A3FE002802D02B6923432B6114AB00931C
:10056C0068461EAB0193FFF797FE002804D080234A
:10057C002A69DB0313432B613000FFF721FE0028AF
:10058C0003D007210948FFF7E3FD3800FFF718FEF9
:10059C000028D7D00C210248FFF7DAFDD2E7C0467D
:1005AC00000C014000100240D4060008001001406D
:1005BC00FFFFFFF0FFFFF0FFD8060008822210B506
:1005CC00520000210B4800F067F800220A4B0B493F
:1005DC001A605A600A4B59609A60196804320A43CF
:1005EC001A60022219680A431A60012219680A4328
:1005FC001A6010BD1C000020200100203F190100D2
:10060C0010E000E0002103E00B4B5B584350043139
:10061C000A480B4B42189A42F6D30A4A02E00023CE
:10062C0042F8043B084B9A42F9D3FFF75BFE00F00B
:10063C000FF8FFF7A1FE7047F0060008000000203D
:10064C00000000200000002028010020FEE7000030
:10065C0070B500260C4D0D4C641BA410A64209D19C
:10066C00002600F021F80A4D0A4C641BA410A64287
:10067C0005D170BDB300EB5898470136EEE7B300D7
:10068C00EB5898470136F2E7E4060008E406000848
:10069C00E4060008EC06000803001218934200D18F
:1006AC00704719700133F9E7F8B5C046F8BC08BCBF
:1006BC009E467047F8B5C046F8BC08BC9E467047CD
:1006CC0000000000000000002102000800000000F3
:0806DC000000000055010008B8
:0806E40035010008C9050008FA
:0406EC000D010008F4
:0400000508000611D8
:00000001FF
